{
	"project2/contracts/LoanAgreement.sol": {
		"LoanAgreement": {
			"abi": [
				{
					"inputs": [
						{
							"internalType": "address",
							"name": "_lender",
							"type": "address"
						},
						{
							"internalType": "address",
							"name": "_borrower",
							"type": "address"
						},
						{
							"internalType": "uint256",
							"name": "_amount",
							"type": "uint256"
						},
						{
							"internalType": "address",
							"name": "_token",
							"type": "address"
						},
						{
							"internalType": "uint256",
							"name": "_duration",
							"type": "uint256"
						},
						{
							"internalType": "uint256",
							"name": "_interestPercent",
							"type": "uint256"
						},
						{
							"internalType": "address",
							"name": "_factory",
							"type": "address"
						}
					],
					"stateMutability": "nonpayable",
					"type": "constructor"
				},
				{
					"anonymous": false,
					"inputs": [
						{
							"indexed": true,
							"internalType": "address",
							"name": "loan",
							"type": "address"
						},
						{
							"indexed": true,
							"internalType": "address",
							"name": "lender",
							"type": "address"
						}
					],
					"name": "DefaultMarked",
					"type": "event"
				},
				{
					"anonymous": false,
					"inputs": [
						{
							"indexed": true,
							"internalType": "address",
							"name": "loan",
							"type": "address"
						}
					],
					"name": "FullyRepaid",
					"type": "event"
				},
				{
					"anonymous": false,
					"inputs": [
						{
							"indexed": true,
							"internalType": "address",
							"name": "payer",
							"type": "address"
						},
						{
							"indexed": false,
							"internalType": "uint256",
							"name": "amount",
							"type": "uint256"
						},
						{
							"indexed": false,
							"internalType": "uint256",
							"name": "totalRepaid",
							"type": "uint256"
						}
					],
					"name": "Repaid",
					"type": "event"
				},
				{
					"inputs": [],
					"name": "borrower",
					"outputs": [
						{
							"internalType": "address",
							"name": "",
							"type": "address"
						}
					],
					"stateMutability": "view",
					"type": "function"
				},
				{
					"inputs": [],
					"name": "dueTimestamp",
					"outputs": [
						{
							"internalType": "uint256",
							"name": "",
							"type": "uint256"
						}
					],
					"stateMutability": "view",
					"type": "function"
				},
				{
					"inputs": [],
					"name": "factory",
					"outputs": [
						{
							"internalType": "address",
							"name": "",
							"type": "address"
						}
					],
					"stateMutability": "view",
					"type": "function"
				},
				{
					"inputs": [],
					"name": "getDueTimestamp",
					"outputs": [
						{
							"internalType": "uint256",
							"name": "",
							"type": "uint256"
						}
					],
					"stateMutability": "view",
					"type": "function"
				},
				{
					"inputs": [],
					"name": "getRepaidAmount",
					"outputs": [
						{
							"internalType": "uint256",
							"name": "",
							"type": "uint256"
						}
					],
					"stateMutability": "view",
					"type": "function"
				},
				{
					"inputs": [],
					"name": "getStatus",
					"outputs": [
						{
							"internalType": "enum LoanAgreement.LoanStatus",
							"name": "",
							"type": "uint8"
						}
					],
					"stateMutability": "view",
					"type": "function"
				},
				{
					"inputs": [],
					"name": "getTotalOwed",
					"outputs": [
						{
							"internalType": "uint256",
							"name": "",
							"type": "uint256"
						}
					],
					"stateMutability": "view",
					"type": "function"
				},
				{
					"inputs": [],
					"name": "interestPercent",
					"outputs": [
						{
							"internalType": "uint256",
							"name": "",
							"type": "uint256"
						}
					],
					"stateMutability": "view",
					"type": "function"
				},
				{
					"inputs": [],
					"name": "lender",
					"outputs": [
						{
							"internalType": "address",
							"name": "",
							"type": "address"
						}
					],
					"stateMutability": "view",
					"type": "function"
				},
				{
					"inputs": [],
					"name": "markDefault",
					"outputs": [],
					"stateMutability": "nonpayable",
					"type": "function"
				},
				{
					"inputs": [],
					"name": "markedDefault",
					"outputs": [
						{
							"internalType": "bool",
							"name": "",
							"type": "bool"
						}
					],
					"stateMutability": "view",
					"type": "function"
				},
				{
					"inputs": [],
					"name": "principal",
					"outputs": [
						{
							"internalType": "uint256",
							"name": "",
							"type": "uint256"
						}
					],
					"stateMutability": "view",
					"type": "function"
				},
				{
					"inputs": [],
					"name": "repaidAmount",
					"outputs": [
						{
							"internalType": "uint256",
							"name": "",
							"type": "uint256"
						}
					],
					"stateMutability": "view",
					"type": "function"
				},
				{
					"inputs": [
						{
							"internalType": "uint256",
							"name": "amount",
							"type": "uint256"
						}
					],
					"name": "repay",
					"outputs": [],
					"stateMutability": "nonpayable",
					"type": "function"
				},
				{
					"inputs": [],
					"name": "tokenAddress",
					"outputs": [
						{
							"internalType": "address",
							"name": "",
							"type": "address"
						}
					],
					"stateMutability": "view",
					"type": "function"
				}
			],
			"devdoc": {
				"author": "Ethan Wong, Tony Wang",
				"kind": "dev",
				"methods": {
					"constructor": {
						"params": {
							"_amount": "principal loan",
							"_borrower": "borrower address",
							"_duration": "Duration of the loan in seconds",
							"_factory": "LoanFactory contract address (for trust score updates)",
							"_interestPercent": "Interest rate (e.g., 5 = 5%)",
							"_lender": "lender address",
							"_token": "ERC-20 token addressaddress of the ERC-20 token"
						}
					},
					"getStatus()": {
						"returns": {
							"_0": "status Current status of the loan"
						}
					},
					"repay(uint256)": {
						"params": {
							"amount": "Amount to repay"
						}
					}
				},
				"title": "Enforces loan terms such as repayment logic, timestamps, status, and trust interactions",
				"version": 1
			},
			"evm": {
				"assembly": "    /* \"project2/contracts/LoanAgreement.sol\":258:4332  contract LoanAgreement {... */\n  mstore(0x40, 0x80)\n    /* \"project2/contracts/LoanAgreement.sol\":1560:2013  constructor(... */\n  callvalue\n  dup1\n  iszero\n  tag_1\n  jumpi\n  revert(0x00, 0x00)\ntag_1:\n  pop\n  mload(0x40)\n  sub(codesize, bytecodeSize)\n  dup1\n  bytecodeSize\n  dup4\n  codecopy\n  dup2\n  dup2\n  add\n  0x40\n  mstore\n  dup2\n  add\n  swap1\n  tag_2\n  swap2\n  swap1\n  tag_3\n  jump\t// in\ntag_2:\n    /* \"project2/contracts/LoanAgreement.sol\":1785:1792  _lender */\n  dup7\n    /* \"project2/contracts/LoanAgreement.sol\":1776:1782  lender */\n  0x00\n  0x00\n    /* \"project2/contracts/LoanAgreement.sol\":1776:1792  lender = _lender */\n  0x0100\n  exp\n  dup2\n  sload\n  dup2\n  0xffffffffffffffffffffffffffffffffffffffff\n  mul\n  not\n  and\n  swap1\n  dup4\n  0xffffffffffffffffffffffffffffffffffffffff\n  and\n  mul\n  or\n  swap1\n  sstore\n  pop\n    /* \"project2/contracts/LoanAgreement.sol\":1813:1822  _borrower */\n  dup6\n    /* \"project2/contracts/LoanAgreement.sol\":1802:1810  borrower */\n  0x01\n  0x00\n    /* \"project2/contracts/LoanAgreement.sol\":1802:1822  borrower = _borrower */\n  0x0100\n  exp\n  dup2\n  sload\n  dup2\n  0xffffffffffffffffffffffffffffffffffffffff\n  mul\n  not\n  and\n  swap1\n  dup4\n  0xffffffffffffffffffffffffffffffffffffffff\n  and\n  mul\n  or\n  swap1\n  sstore\n  pop\n    /* \"project2/contracts/LoanAgreement.sol\":1844:1851  _amount */\n  dup5\n    /* \"project2/contracts/LoanAgreement.sol\":1832:1841  principal */\n  0x02\n    /* \"project2/contracts/LoanAgreement.sol\":1832:1851  principal = _amount */\n  dup2\n  swap1\n  sstore\n  pop\n    /* \"project2/contracts/LoanAgreement.sol\":1876:1882  _token */\n  dup4\n    /* \"project2/contracts/LoanAgreement.sol\":1861:1873  tokenAddress */\n  0x05\n  0x00\n    /* \"project2/contracts/LoanAgreement.sol\":1861:1882  tokenAddress = _token */\n  0x0100\n  exp\n  dup2\n  sload\n  dup2\n  0xffffffffffffffffffffffffffffffffffffffff\n  mul\n  not\n  and\n  swap1\n  dup4\n  0xffffffffffffffffffffffffffffffffffffffff\n  and\n  mul\n  or\n  swap1\n  sstore\n  pop\n    /* \"project2/contracts/LoanAgreement.sol\":1925:1934  _duration */\n  dup3\n    /* \"project2/contracts/LoanAgreement.sol\":1907:1922  block.timestamp */\n  timestamp\n    /* \"project2/contracts/LoanAgreement.sol\":1907:1934  block.timestamp + _duration */\n  tag_6\n  swap2\n  swap1\n  tag_7\n  jump\t// in\ntag_6:\n    /* \"project2/contracts/LoanAgreement.sol\":1892:1904  dueTimestamp */\n  0x04\n    /* \"project2/contracts/LoanAgreement.sol\":1892:1934  dueTimestamp = block.timestamp + _duration */\n  dup2\n  swap1\n  sstore\n  pop\n    /* \"project2/contracts/LoanAgreement.sol\":1962:1978  _interestPercent */\n  dup2\n    /* \"project2/contracts/LoanAgreement.sol\":1944:1959  interestPercent */\n  0x03\n    /* \"project2/contracts/LoanAgreement.sol\":1944:1978  interestPercent = _interestPercent */\n  dup2\n  swap1\n  sstore\n  pop\n    /* \"project2/contracts/LoanAgreement.sol\":1998:2006  _factory */\n  dup1\n    /* \"project2/contracts/LoanAgreement.sol\":1988:1995  factory */\n  0x06\n  0x00\n    /* \"project2/contracts/LoanAgreement.sol\":1988:2006  factory = _factory */\n  0x0100\n  exp\n  dup2\n  sload\n  dup2\n  0xffffffffffffffffffffffffffffffffffffffff\n  mul\n  not\n  and\n  swap1\n  dup4\n  0xffffffffffffffffffffffffffffffffffffffff\n  and\n  mul\n  or\n  swap1\n  sstore\n  pop\n    /* \"project2/contracts/LoanAgreement.sol\":1560:2013  constructor(... */\n  pop\n  pop\n  pop\n  pop\n  pop\n  pop\n  pop\n    /* \"project2/contracts/LoanAgreement.sol\":258:4332  contract LoanAgreement {... */\n  jump(tag_8)\n    /* \"#utility.yul\":88:205   */\ntag_10:\n    /* \"#utility.yul\":197:198   */\n  0x00\n    /* \"#utility.yul\":194:195   */\n  0x00\n    /* \"#utility.yul\":187:199   */\n  revert\n    /* \"#utility.yul\":334:460   */\ntag_12:\n    /* \"#utility.yul\":371:378   */\n  0x00\n    /* \"#utility.yul\":411:453   */\n  0xffffffffffffffffffffffffffffffffffffffff\n    /* \"#utility.yul\":404:409   */\n  dup3\n    /* \"#utility.yul\":400:454   */\n  and\n    /* \"#utility.yul\":389:454   */\n  swap1\n  pop\n    /* \"#utility.yul\":334:460   */\n  swap2\n  swap1\n  pop\n  jump\t// out\n    /* \"#utility.yul\":466:562   */\ntag_13:\n    /* \"#utility.yul\":503:510   */\n  0x00\n    /* \"#utility.yul\":532:556   */\n  tag_26\n    /* \"#utility.yul\":550:555   */\n  dup3\n    /* \"#utility.yul\":532:556   */\n  tag_12\n  jump\t// in\ntag_26:\n    /* \"#utility.yul\":521:556   */\n  swap1\n  pop\n    /* \"#utility.yul\":466:562   */\n  swap2\n  swap1\n  pop\n  jump\t// out\n    /* \"#utility.yul\":568:690   */\ntag_14:\n    /* \"#utility.yul\":641:665   */\n  tag_28\n    /* \"#utility.yul\":659:664   */\n  dup2\n    /* \"#utility.yul\":641:665   */\n  tag_13\n  jump\t// in\ntag_28:\n    /* \"#utility.yul\":634:639   */\n  dup2\n    /* \"#utility.yul\":631:666   */\n  eq\n    /* \"#utility.yul\":621:684   */\n  tag_29\n  jumpi\n    /* \"#utility.yul\":680:681   */\n  0x00\n    /* \"#utility.yul\":677:678   */\n  0x00\n    /* \"#utility.yul\":670:682   */\n  revert\n    /* \"#utility.yul\":621:684   */\ntag_29:\n    /* \"#utility.yul\":568:690   */\n  pop\n  jump\t// out\n    /* \"#utility.yul\":696:839   */\ntag_15:\n    /* \"#utility.yul\":753:758   */\n  0x00\n    /* \"#utility.yul\":784:790   */\n  dup2\n    /* \"#utility.yul\":778:791   */\n  mload\n    /* \"#utility.yul\":769:791   */\n  swap1\n  pop\n    /* \"#utility.yul\":800:833   */\n  tag_31\n    /* \"#utility.yul\":827:832   */\n  dup2\n    /* \"#utility.yul\":800:833   */\n  tag_14\n  jump\t// in\ntag_31:\n    /* \"#utility.yul\":696:839   */\n  swap3\n  swap2\n  pop\n  pop\n  jump\t// out\n    /* \"#utility.yul\":845:922   */\ntag_16:\n    /* \"#utility.yul\":882:889   */\n  0x00\n    /* \"#utility.yul\":911:916   */\n  dup2\n    /* \"#utility.yul\":900:916   */\n  swap1\n  pop\n    /* \"#utility.yul\":845:922   */\n  swap2\n  swap1\n  pop\n  jump\t// out\n    /* \"#utility.yul\":928:1050   */\ntag_17:\n    /* \"#utility.yul\":1001:1025   */\n  tag_34\n    /* \"#utility.yul\":1019:1024   */\n  dup2\n    /* \"#utility.yul\":1001:1025   */\n  tag_16\n  jump\t// in\ntag_34:\n    /* \"#utility.yul\":994:999   */\n  dup2\n    /* \"#utility.yul\":991:1026   */\n  eq\n    /* \"#utility.yul\":981:1044   */\n  tag_35\n  jumpi\n    /* \"#utility.yul\":1040:1041   */\n  0x00\n    /* \"#utility.yul\":1037:1038   */\n  0x00\n    /* \"#utility.yul\":1030:1042   */\n  revert\n    /* \"#utility.yul\":981:1044   */\ntag_35:\n    /* \"#utility.yul\":928:1050   */\n  pop\n  jump\t// out\n    /* \"#utility.yul\":1056:1199   */\ntag_18:\n    /* \"#utility.yul\":1113:1118   */\n  0x00\n    /* \"#utility.yul\":1144:1150   */\n  dup2\n    /* \"#utility.yul\":1138:1151   */\n  mload\n    /* \"#utility.yul\":1129:1151   */\n  swap1\n  pop\n    /* \"#utility.yul\":1160:1193   */\n  tag_37\n    /* \"#utility.yul\":1187:1192   */\n  dup2\n    /* \"#utility.yul\":1160:1193   */\n  tag_17\n  jump\t// in\ntag_37:\n    /* \"#utility.yul\":1056:1199   */\n  swap3\n  swap2\n  pop\n  pop\n  jump\t// out\n    /* \"#utility.yul\":1205:2496   */\ntag_3:\n    /* \"#utility.yul\":1329:1335   */\n  0x00\n    /* \"#utility.yul\":1337:1343   */\n  0x00\n    /* \"#utility.yul\":1345:1351   */\n  0x00\n    /* \"#utility.yul\":1353:1359   */\n  0x00\n    /* \"#utility.yul\":1361:1367   */\n  0x00\n    /* \"#utility.yul\":1369:1375   */\n  0x00\n    /* \"#utility.yul\":1377:1383   */\n  0x00\n    /* \"#utility.yul\":1426:1429   */\n  0xe0\n    /* \"#utility.yul\":1414:1423   */\n  dup9\n    /* \"#utility.yul\":1405:1412   */\n  dup11\n    /* \"#utility.yul\":1401:1424   */\n  sub\n    /* \"#utility.yul\":1397:1430   */\n  slt\n    /* \"#utility.yul\":1394:1514   */\n  iszero\n  tag_39\n  jumpi\n    /* \"#utility.yul\":1433:1512   */\n  tag_40\n  tag_10\n  jump\t// in\ntag_40:\n    /* \"#utility.yul\":1394:1514   */\ntag_39:\n    /* \"#utility.yul\":1553:1554   */\n  0x00\n    /* \"#utility.yul\":1578:1642   */\n  tag_41\n    /* \"#utility.yul\":1634:1641   */\n  dup11\n    /* \"#utility.yul\":1625:1631   */\n  dup3\n    /* \"#utility.yul\":1614:1623   */\n  dup12\n    /* \"#utility.yul\":1610:1632   */\n  add\n    /* \"#utility.yul\":1578:1642   */\n  tag_15\n  jump\t// in\ntag_41:\n    /* \"#utility.yul\":1568:1642   */\n  swap8\n  pop\n    /* \"#utility.yul\":1524:1652   */\n  pop\n    /* \"#utility.yul\":1691:1693   */\n  0x20\n    /* \"#utility.yul\":1717:1781   */\n  tag_42\n    /* \"#utility.yul\":1773:1780   */\n  dup11\n    /* \"#utility.yul\":1764:1770   */\n  dup3\n    /* \"#utility.yul\":1753:1762   */\n  dup12\n    /* \"#utility.yul\":1749:1771   */\n  add\n    /* \"#utility.yul\":1717:1781   */\n  tag_15\n  jump\t// in\ntag_42:\n    /* \"#utility.yul\":1707:1781   */\n  swap7\n  pop\n    /* \"#utility.yul\":1662:1791   */\n  pop\n    /* \"#utility.yul\":1830:1832   */\n  0x40\n    /* \"#utility.yul\":1856:1920   */\n  tag_43\n    /* \"#utility.yul\":1912:1919   */\n  dup11\n    /* \"#utility.yul\":1903:1909   */\n  dup3\n    /* \"#utility.yul\":1892:1901   */\n  dup12\n    /* \"#utility.yul\":1888:1910   */\n  add\n    /* \"#utility.yul\":1856:1920   */\n  tag_18\n  jump\t// in\ntag_43:\n    /* \"#utility.yul\":1846:1920   */\n  swap6\n  pop\n    /* \"#utility.yul\":1801:1930   */\n  pop\n    /* \"#utility.yul\":1969:1971   */\n  0x60\n    /* \"#utility.yul\":1995:2059   */\n  tag_44\n    /* \"#utility.yul\":2051:2058   */\n  dup11\n    /* \"#utility.yul\":2042:2048   */\n  dup3\n    /* \"#utility.yul\":2031:2040   */\n  dup12\n    /* \"#utility.yul\":2027:2049   */\n  add\n    /* \"#utility.yul\":1995:2059   */\n  tag_15\n  jump\t// in\ntag_44:\n    /* \"#utility.yul\":1985:2059   */\n  swap5\n  pop\n    /* \"#utility.yul\":1940:2069   */\n  pop\n    /* \"#utility.yul\":2108:2111   */\n  0x80\n    /* \"#utility.yul\":2135:2199   */\n  tag_45\n    /* \"#utility.yul\":2191:2198   */\n  dup11\n    /* \"#utility.yul\":2182:2188   */\n  dup3\n    /* \"#utility.yul\":2171:2180   */\n  dup12\n    /* \"#utility.yul\":2167:2189   */\n  add\n    /* \"#utility.yul\":2135:2199   */\n  tag_18\n  jump\t// in\ntag_45:\n    /* \"#utility.yul\":2125:2199   */\n  swap4\n  pop\n    /* \"#utility.yul\":2079:2209   */\n  pop\n    /* \"#utility.yul\":2248:2251   */\n  0xa0\n    /* \"#utility.yul\":2275:2339   */\n  tag_46\n    /* \"#utility.yul\":2331:2338   */\n  dup11\n    /* \"#utility.yul\":2322:2328   */\n  dup3\n    /* \"#utility.yul\":2311:2320   */\n  dup12\n    /* \"#utility.yul\":2307:2329   */\n  add\n    /* \"#utility.yul\":2275:2339   */\n  tag_18\n  jump\t// in\ntag_46:\n    /* \"#utility.yul\":2265:2339   */\n  swap3\n  pop\n    /* \"#utility.yul\":2219:2349   */\n  pop\n    /* \"#utility.yul\":2388:2391   */\n  0xc0\n    /* \"#utility.yul\":2415:2479   */\n  tag_47\n    /* \"#utility.yul\":2471:2478   */\n  dup11\n    /* \"#utility.yul\":2462:2468   */\n  dup3\n    /* \"#utility.yul\":2451:2460   */\n  dup12\n    /* \"#utility.yul\":2447:2469   */\n  add\n    /* \"#utility.yul\":2415:2479   */\n  tag_15\n  jump\t// in\ntag_47:\n    /* \"#utility.yul\":2405:2479   */\n  swap2\n  pop\n    /* \"#utility.yul\":2359:2489   */\n  pop\n    /* \"#utility.yul\":1205:2496   */\n  swap3\n  swap6\n  swap9\n  swap2\n  swap5\n  swap8\n  pop\n  swap3\n  swap6\n  pop\n  jump\t// out\n    /* \"#utility.yul\":2502:2682   */\ntag_19:\n    /* \"#utility.yul\":2550:2627   */\n  0x4e487b7100000000000000000000000000000000000000000000000000000000\n    /* \"#utility.yul\":2547:2548   */\n  0x00\n    /* \"#utility.yul\":2540:2628   */\n  mstore\n    /* \"#utility.yul\":2647:2651   */\n  0x11\n    /* \"#utility.yul\":2644:2645   */\n  0x04\n    /* \"#utility.yul\":2637:2652   */\n  mstore\n    /* \"#utility.yul\":2671:2675   */\n  0x24\n    /* \"#utility.yul\":2668:2669   */\n  0x00\n    /* \"#utility.yul\":2661:2676   */\n  revert\n    /* \"#utility.yul\":2688:2879   */\ntag_7:\n    /* \"#utility.yul\":2728:2731   */\n  0x00\n    /* \"#utility.yul\":2747:2767   */\n  tag_50\n    /* \"#utility.yul\":2765:2766   */\n  dup3\n    /* \"#utility.yul\":2747:2767   */\n  tag_16\n  jump\t// in\ntag_50:\n    /* \"#utility.yul\":2742:2767   */\n  swap2\n  pop\n    /* \"#utility.yul\":2781:2801   */\n  tag_51\n    /* \"#utility.yul\":2799:2800   */\n  dup4\n    /* \"#utility.yul\":2781:2801   */\n  tag_16\n  jump\t// in\ntag_51:\n    /* \"#utility.yul\":2776:2801   */\n  swap3\n  pop\n    /* \"#utility.yul\":2824:2825   */\n  dup3\n    /* \"#utility.yul\":2821:2822   */\n  dup3\n    /* \"#utility.yul\":2817:2826   */\n  add\n    /* \"#utility.yul\":2810:2826   */\n  swap1\n  pop\n    /* \"#utility.yul\":2845:2848   */\n  dup1\n    /* \"#utility.yul\":2842:2843   */\n  dup3\n    /* \"#utility.yul\":2839:2849   */\n  gt\n    /* \"#utility.yul\":2836:2872   */\n  iszero\n  tag_52\n  jumpi\n    /* \"#utility.yul\":2852:2870   */\n  tag_53\n  tag_19\n  jump\t// in\ntag_53:\n    /* \"#utility.yul\":2836:2872   */\ntag_52:\n    /* \"#utility.yul\":2688:2879   */\n  swap3\n  swap2\n  pop\n  pop\n  jump\t// out\n    /* \"project2/contracts/LoanAgreement.sol\":258:4332  contract LoanAgreement {... */\ntag_8:\n  dataSize(sub_0)\n  dup1\n  dataOffset(sub_0)\n  0x00\n  codecopy\n  0x00\n  return\nstop\n\nsub_0: assembly {\n        /* \"project2/contracts/LoanAgreement.sol\":258:4332  contract LoanAgreement {... */\n      mstore(0x40, 0x80)\n      callvalue\n      dup1\n      iszero\n      tag_1\n      jumpi\n      revert(0x00, 0x00)\n    tag_1:\n      pop\n      jumpi(tag_2, lt(calldatasize, 0x04))\n      shr(0xe0, calldataload(0x00))\n      dup1\n      0x9d76ea58\n      gt\n      tag_18\n      jumpi\n      dup1\n      0xc45a0155\n      gt\n      tag_19\n      jumpi\n      dup1\n      0xc45a0155\n      eq\n      tag_14\n      jumpi\n      dup1\n      0xd8bac5ed\n      eq\n      tag_15\n      jumpi\n      dup1\n      0xdd3b3110\n      eq\n      tag_16\n      jumpi\n      dup1\n      0xf98b8028\n      eq\n      tag_17\n      jumpi\n      jump(tag_2)\n    tag_19:\n      dup1\n      0x9d76ea58\n      eq\n      tag_10\n      jumpi\n      dup1\n      0xa35a4ab3\n      eq\n      tag_11\n      jumpi\n      dup1\n      0xba5d3078\n      eq\n      tag_12\n      jumpi\n      dup1\n      0xbcead63e\n      eq\n      tag_13\n      jumpi\n      jump(tag_2)\n    tag_18:\n      dup1\n      0x5451073d\n      gt\n      tag_20\n      jumpi\n      dup1\n      0x5451073d\n      eq\n      tag_6\n      jumpi\n      dup1\n      0x7df1f1b9\n      eq\n      tag_7\n      jumpi\n      dup1\n      0x8cff3e4b\n      eq\n      tag_8\n      jumpi\n      dup1\n      0x95c8cbc9\n      eq\n      tag_9\n      jumpi\n      jump(tag_2)\n    tag_20:\n      dup1\n      0x371fd8e6\n      eq\n      tag_3\n      jumpi\n      dup1\n      0x4e69d560\n      eq\n      tag_4\n      jumpi\n      dup1\n      0x53069df6\n      eq\n      tag_5\n      jumpi\n    tag_2:\n      revert(0x00, 0x00)\n        /* \"project2/contracts/LoanAgreement.sol\":2131:2666  function repay(uint256 amount) external {... */\n    tag_3:\n      tag_21\n      0x04\n      dup1\n      calldatasize\n      sub\n      dup2\n      add\n      swap1\n      tag_22\n      swap2\n      swap1\n      tag_23\n      jump\t// in\n    tag_22:\n      tag_24\n      jump\t// in\n    tag_21:\n      stop\n        /* \"project2/contracts/LoanAgreement.sol\":3240:3581  function getStatus() public view returns (LoanStatus) {... */\n    tag_4:\n      tag_25\n      tag_26\n      jump\t// in\n    tag_25:\n      mload(0x40)\n      tag_27\n      swap2\n      swap1\n      tag_28\n      jump\t// in\n    tag_27:\n      mload(0x40)\n      dup1\n      swap2\n      sub\n      swap1\n      return\n        /* \"project2/contracts/LoanAgreement.sol\":4237:4330  function getRepaidAmount() public view returns (uint256) {... */\n    tag_5:\n      tag_29\n      tag_30\n      jump\t// in\n    tag_29:\n      mload(0x40)\n      tag_31\n      swap2\n      swap1\n      tag_32\n      jump\t// in\n    tag_31:\n      mload(0x40)\n      dup1\n      swap2\n      sub\n      swap1\n      return\n        /* \"project2/contracts/LoanAgreement.sol\":576:603  uint256 public dueTimestamp */\n    tag_6:\n      tag_33\n      tag_34\n      jump\t// in\n    tag_33:\n      mload(0x40)\n      tag_35\n      swap2\n      swap1\n      tag_32\n      jump\t// in\n    tag_35:\n      mload(0x40)\n      dup1\n      swap2\n      sub\n      swap1\n      return\n        /* \"project2/contracts/LoanAgreement.sol\":481:504  address public borrower */\n    tag_7:\n      tag_36\n      tag_37\n      jump\t// in\n    tag_36:\n      mload(0x40)\n      tag_38\n      swap2\n      swap1\n      tag_39\n      jump\t// in\n    tag_38:\n      mload(0x40)\n      dup1\n      swap2\n      sub\n      swap1\n      return\n        /* \"project2/contracts/LoanAgreement.sol\":2740:3152  function markDefault() external {... */\n    tag_8:\n      tag_40\n      tag_41\n      jump\t// in\n    tag_40:\n      stop\n        /* \"project2/contracts/LoanAgreement.sol\":4007:4132  function getTotalOwed() public view returns (uint256) {... */\n    tag_9:\n      tag_42\n      tag_43\n      jump\t// in\n    tag_42:\n      mload(0x40)\n      tag_44\n      swap2\n      swap1\n      tag_32\n      jump\t// in\n    tag_44:\n      mload(0x40)\n      dup1\n      swap2\n      sub\n      swap1\n      return\n        /* \"project2/contracts/LoanAgreement.sol\":609:636  address public tokenAddress */\n    tag_10:\n      tag_45\n      tag_46\n      jump\t// in\n    tag_45:\n      mload(0x40)\n      tag_47\n      swap2\n      swap1\n      tag_39\n      jump\t// in\n    tag_47:\n      mload(0x40)\n      dup1\n      swap2\n      sub\n      swap1\n      return\n        /* \"project2/contracts/LoanAgreement.sol\":4138:4231  function getDueTimestamp() public view returns (uint256) {... */\n    tag_11:\n      tag_48\n      tag_49\n      jump\t// in\n    tag_48:\n      mload(0x40)\n      tag_50\n      swap2\n      swap1\n      tag_32\n      jump\t// in\n    tag_50:\n      mload(0x40)\n      dup1\n      swap2\n      sub\n      swap1\n      return\n        /* \"project2/contracts/LoanAgreement.sol\":510:534  uint256 public principal */\n    tag_12:\n      tag_51\n      tag_52\n      jump\t// in\n    tag_51:\n      mload(0x40)\n      tag_53\n      swap2\n      swap1\n      tag_32\n      jump\t// in\n    tag_53:\n      mload(0x40)\n      dup1\n      swap2\n      sub\n      swap1\n      return\n        /* \"project2/contracts/LoanAgreement.sol\":454:475  address public lender */\n    tag_13:\n      tag_54\n      tag_55\n      jump\t// in\n    tag_54:\n      mload(0x40)\n      tag_56\n      swap2\n      swap1\n      tag_39\n      jump\t// in\n    tag_56:\n      mload(0x40)\n      dup1\n      swap2\n      sub\n      swap1\n      return\n        /* \"project2/contracts/LoanAgreement.sol\":642:664  address public factory */\n    tag_14:\n      tag_57\n      tag_58\n      jump\t// in\n    tag_57:\n      mload(0x40)\n      tag_59\n      swap2\n      swap1\n      tag_39\n      jump\t// in\n    tag_59:\n      mload(0x40)\n      dup1\n      swap2\n      sub\n      swap1\n      return\n        /* \"project2/contracts/LoanAgreement.sol\":731:756  bool public markedDefault */\n    tag_15:\n      tag_60\n      tag_61\n      jump\t// in\n    tag_60:\n      mload(0x40)\n      tag_62\n      swap2\n      swap1\n      tag_63\n      jump\t// in\n    tag_62:\n      mload(0x40)\n      dup1\n      swap2\n      sub\n      swap1\n      return\n        /* \"project2/contracts/LoanAgreement.sol\":540:570  uint256 public interestPercent */\n    tag_16:\n      tag_64\n      tag_65\n      jump\t// in\n    tag_64:\n      mload(0x40)\n      tag_66\n      swap2\n      swap1\n      tag_32\n      jump\t// in\n    tag_66:\n      mload(0x40)\n      dup1\n      swap2\n      sub\n      swap1\n      return\n        /* \"project2/contracts/LoanAgreement.sol\":698:725  uint256 public repaidAmount */\n    tag_17:\n      tag_67\n      tag_68\n      jump\t// in\n    tag_67:\n      mload(0x40)\n      tag_69\n      swap2\n      swap1\n      tag_32\n      jump\t// in\n    tag_69:\n      mload(0x40)\n      dup1\n      swap2\n      sub\n      swap1\n      return\n        /* \"project2/contracts/LoanAgreement.sol\":2131:2666  function repay(uint256 amount) external {... */\n    tag_24:\n        /* \"project2/contracts/LoanAgreement.sol\":2203:2211  borrower */\n      0x01\n      0x00\n      swap1\n      sload\n      swap1\n      0x0100\n      exp\n      swap1\n      div\n      0xffffffffffffffffffffffffffffffffffffffff\n      and\n        /* \"project2/contracts/LoanAgreement.sol\":2189:2211  msg.sender == borrower */\n      0xffffffffffffffffffffffffffffffffffffffff\n      and\n        /* \"project2/contracts/LoanAgreement.sol\":2189:2199  msg.sender */\n      caller\n        /* \"project2/contracts/LoanAgreement.sol\":2189:2211  msg.sender == borrower */\n      0xffffffffffffffffffffffffffffffffffffffff\n      and\n      eq\n        /* \"project2/contracts/LoanAgreement.sol\":2181:2239  require(msg.sender == borrower, \"Only borrower can repay\") */\n      tag_71\n      jumpi\n      mload(0x40)\n      0x08c379a000000000000000000000000000000000000000000000000000000000\n      dup2\n      mstore\n      0x04\n      add\n      tag_72\n      swap1\n      tag_73\n      jump\t// in\n    tag_72:\n      mload(0x40)\n      dup1\n      swap2\n      sub\n      swap1\n      revert\n    tag_71:\n        /* \"project2/contracts/LoanAgreement.sol\":2250:2262  IERC20 token */\n      0x00\n        /* \"project2/contracts/LoanAgreement.sol\":2272:2284  tokenAddress */\n      0x05\n      0x00\n      swap1\n      sload\n      swap1\n      0x0100\n      exp\n      swap1\n      div\n      0xffffffffffffffffffffffffffffffffffffffff\n      and\n        /* \"project2/contracts/LoanAgreement.sol\":2250:2285  IERC20 token = IERC20(tokenAddress) */\n      swap1\n      pop\n        /* \"project2/contracts/LoanAgreement.sol\":2303:2308  token */\n      dup1\n        /* \"project2/contracts/LoanAgreement.sol\":2303:2321  token.transferFrom */\n      0xffffffffffffffffffffffffffffffffffffffff\n      and\n      0x23b872dd\n        /* \"project2/contracts/LoanAgreement.sol\":2322:2332  msg.sender */\n      caller\n        /* \"project2/contracts/LoanAgreement.sol\":2334:2340  lender */\n      0x00\n      0x00\n      swap1\n      sload\n      swap1\n      0x0100\n      exp\n      swap1\n      div\n      0xffffffffffffffffffffffffffffffffffffffff\n      and\n        /* \"project2/contracts/LoanAgreement.sol\":2342:2348  amount */\n      dup6\n        /* \"project2/contracts/LoanAgreement.sol\":2303:2349  token.transferFrom(msg.sender, lender, amount) */\n      mload(0x40)\n      dup5\n      0xffffffff\n      and\n      0xe0\n      shl\n      dup2\n      mstore\n      0x04\n      add\n      tag_74\n      swap4\n      swap3\n      swap2\n      swap1\n      tag_75\n      jump\t// in\n    tag_74:\n      0x20\n      mload(0x40)\n      dup1\n      dup4\n      sub\n      dup2\n      0x00\n      dup8\n      gas\n      call\n      iszero\n      dup1\n      iszero\n      tag_77\n      jumpi\n      returndatacopy(0x00, 0x00, returndatasize)\n      revert(0x00, returndatasize)\n    tag_77:\n      pop\n      pop\n      pop\n      pop\n      mload(0x40)\n      returndatasize\n      not(0x1f)\n      0x1f\n      dup3\n      add\n      and\n      dup3\n      add\n      dup1\n      0x40\n      mstore\n      pop\n      dup2\n      add\n      swap1\n      tag_78\n      swap2\n      swap1\n      tag_79\n      jump\t// in\n    tag_78:\n        /* \"project2/contracts/LoanAgreement.sol\":2295:2375  require(token.transferFrom(msg.sender, lender, amount), \"Token transfer failed\") */\n      tag_80\n      jumpi\n      mload(0x40)\n      0x08c379a000000000000000000000000000000000000000000000000000000000\n      dup2\n      mstore\n      0x04\n      add\n      tag_81\n      swap1\n      tag_82\n      jump\t// in\n    tag_81:\n      mload(0x40)\n      dup1\n      swap2\n      sub\n      swap1\n      revert\n    tag_80:\n        /* \"project2/contracts/LoanAgreement.sol\":2402:2408  amount */\n      dup2\n        /* \"project2/contracts/LoanAgreement.sol\":2386:2398  repaidAmount */\n      0x07\n      0x00\n        /* \"project2/contracts/LoanAgreement.sol\":2386:2408  repaidAmount += amount */\n      dup3\n      dup3\n      sload\n      tag_83\n      swap2\n      swap1\n      tag_84\n      jump\t// in\n    tag_83:\n      swap3\n      pop\n      pop\n      dup2\n      swap1\n      sstore\n      pop\n        /* \"project2/contracts/LoanAgreement.sol\":2430:2440  msg.sender */\n      caller\n        /* \"project2/contracts/LoanAgreement.sol\":2423:2463  Repaid(msg.sender, amount, repaidAmount) */\n      0xffffffffffffffffffffffffffffffffffffffff\n      and\n      0x1b8cd61ed43bec7c6bdad3a18ffee613f99c853d16c50678d248d879e1b43438\n        /* \"project2/contracts/LoanAgreement.sol\":2442:2448  amount */\n      dup4\n        /* \"project2/contracts/LoanAgreement.sol\":2450:2462  repaidAmount */\n      sload(0x07)\n        /* \"project2/contracts/LoanAgreement.sol\":2423:2463  Repaid(msg.sender, amount, repaidAmount) */\n      mload(0x40)\n      tag_85\n      swap3\n      swap2\n      swap1\n      tag_86\n      jump\t// in\n    tag_85:\n      mload(0x40)\n      dup1\n      swap2\n      sub\n      swap1\n      log2\n        /* \"project2/contracts/LoanAgreement.sol\":2526:2543  LoanStatus.Repaid */\n      0x01\n        /* \"project2/contracts/LoanAgreement.sol\":2511:2543  getStatus() == LoanStatus.Repaid */\n      0x02\n      dup2\n      gt\n      iszero\n      tag_87\n      jumpi\n      tag_88\n      tag_89\n      jump\t// in\n    tag_88:\n    tag_87:\n        /* \"project2/contracts/LoanAgreement.sol\":2511:2522  getStatus() */\n      tag_90\n        /* \"project2/contracts/LoanAgreement.sol\":2511:2520  getStatus */\n      tag_26\n        /* \"project2/contracts/LoanAgreement.sol\":2511:2522  getStatus() */\n      jump\t// in\n    tag_90:\n        /* \"project2/contracts/LoanAgreement.sol\":2511:2543  getStatus() == LoanStatus.Repaid */\n      0x02\n      dup2\n      gt\n      iszero\n      tag_91\n      jumpi\n      tag_92\n      tag_89\n      jump\t// in\n    tag_92:\n    tag_91:\n      sub\n        /* \"project2/contracts/LoanAgreement.sol\":2507:2660  if (getStatus() == LoanStatus.Repaid) {... */\n      tag_93\n      jumpi\n        /* \"project2/contracts/LoanAgreement.sol\":2584:2588  this */\n      address\n        /* \"project2/contracts/LoanAgreement.sol\":2564:2590  FullyRepaid(address(this)) */\n      0xffffffffffffffffffffffffffffffffffffffff\n      and\n      0x927542d877f6ef1fb1779cb252a65aaa543f48e6d9abc25433c57e19ceccf61d\n      mload(0x40)\n      mload(0x40)\n      dup1\n      swap2\n      sub\n      swap1\n      log2\n        /* \"project2/contracts/LoanAgreement.sol\":2604:2624  _updateTrustScore(1) */\n      tag_94\n        /* \"project2/contracts/LoanAgreement.sol\":2622:2623  1 */\n      0x01\n        /* \"project2/contracts/LoanAgreement.sol\":2604:2621  _updateTrustScore */\n      tag_95\n        /* \"project2/contracts/LoanAgreement.sol\":2604:2624  _updateTrustScore(1) */\n      jump\t// in\n    tag_94:\n        /* \"project2/contracts/LoanAgreement.sol\":2507:2660  if (getStatus() == LoanStatus.Repaid) {... */\n    tag_93:\n        /* \"project2/contracts/LoanAgreement.sol\":2171:2666  {... */\n      pop\n        /* \"project2/contracts/LoanAgreement.sol\":2131:2666  function repay(uint256 amount) external {... */\n      pop\n      jump\t// out\n        /* \"project2/contracts/LoanAgreement.sol\":3240:3581  function getStatus() public view returns (LoanStatus) {... */\n    tag_26:\n        /* \"project2/contracts/LoanAgreement.sol\":3282:3292  LoanStatus */\n      0x00\n        /* \"project2/contracts/LoanAgreement.sol\":3308:3321  markedDefault */\n      0x08\n      0x00\n      swap1\n      sload\n      swap1\n      0x0100\n      exp\n      swap1\n      div\n      0xff\n      and\n        /* \"project2/contracts/LoanAgreement.sol\":3304:3375  if (markedDefault) {... */\n      iszero\n      tag_97\n      jumpi\n        /* \"project2/contracts/LoanAgreement.sol\":3344:3364  LoanStatus.Defaulted */\n      0x02\n        /* \"project2/contracts/LoanAgreement.sol\":3337:3364  return LoanStatus.Defaulted */\n      swap1\n      pop\n      jump(tag_96)\n        /* \"project2/contracts/LoanAgreement.sol\":3304:3375  if (markedDefault) {... */\n    tag_97:\n        /* \"project2/contracts/LoanAgreement.sol\":3384:3401  uint256 totalOwed */\n      0x00\n        /* \"project2/contracts/LoanAgreement.sol\":3448:3451  100 */\n      0x64\n        /* \"project2/contracts/LoanAgreement.sol\":3429:3444  interestPercent */\n      sload(0x03)\n        /* \"project2/contracts/LoanAgreement.sol\":3417:3426  principal */\n      sload(0x02)\n        /* \"project2/contracts/LoanAgreement.sol\":3417:3444  principal * interestPercent */\n      tag_98\n      swap2\n      swap1\n      tag_99\n      jump\t// in\n    tag_98:\n        /* \"project2/contracts/LoanAgreement.sol\":3416:3451  (principal * interestPercent) / 100 */\n      tag_100\n      swap2\n      swap1\n      tag_101\n      jump\t// in\n    tag_100:\n        /* \"project2/contracts/LoanAgreement.sol\":3404:3413  principal */\n      sload(0x02)\n        /* \"project2/contracts/LoanAgreement.sol\":3404:3451  principal + (principal * interestPercent) / 100 */\n      tag_102\n      swap2\n      swap1\n      tag_84\n      jump\t// in\n    tag_102:\n        /* \"project2/contracts/LoanAgreement.sol\":3384:3451  uint256 totalOwed = principal + (principal * interestPercent) / 100 */\n      swap1\n      pop\n        /* \"project2/contracts/LoanAgreement.sol\":3481:3490  totalOwed */\n      dup1\n        /* \"project2/contracts/LoanAgreement.sol\":3465:3477  repaidAmount */\n      sload(0x07)\n        /* \"project2/contracts/LoanAgreement.sol\":3465:3490  repaidAmount >= totalOwed */\n      lt\n        /* \"project2/contracts/LoanAgreement.sol\":3461:3541  if (repaidAmount >= totalOwed) {... */\n      tag_103\n      jumpi\n        /* \"project2/contracts/LoanAgreement.sol\":3513:3530  LoanStatus.Repaid */\n      0x01\n        /* \"project2/contracts/LoanAgreement.sol\":3506:3530  return LoanStatus.Repaid */\n      swap2\n      pop\n      pop\n      jump(tag_96)\n        /* \"project2/contracts/LoanAgreement.sol\":3461:3541  if (repaidAmount >= totalOwed) {... */\n    tag_103:\n        /* \"project2/contracts/LoanAgreement.sol\":3557:3574  LoanStatus.Active */\n      0x00\n        /* \"project2/contracts/LoanAgreement.sol\":3550:3574  return LoanStatus.Active */\n      swap2\n      pop\n      pop\n        /* \"project2/contracts/LoanAgreement.sol\":3240:3581  function getStatus() public view returns (LoanStatus) {... */\n    tag_96:\n      swap1\n      jump\t// out\n        /* \"project2/contracts/LoanAgreement.sol\":4237:4330  function getRepaidAmount() public view returns (uint256) {... */\n    tag_30:\n        /* \"project2/contracts/LoanAgreement.sol\":4285:4292  uint256 */\n      0x00\n        /* \"project2/contracts/LoanAgreement.sol\":4311:4323  repaidAmount */\n      sload(0x07)\n        /* \"project2/contracts/LoanAgreement.sol\":4304:4323  return repaidAmount */\n      swap1\n      pop\n        /* \"project2/contracts/LoanAgreement.sol\":4237:4330  function getRepaidAmount() public view returns (uint256) {... */\n      swap1\n      jump\t// out\n        /* \"project2/contracts/LoanAgreement.sol\":576:603  uint256 public dueTimestamp */\n    tag_34:\n      sload(0x04)\n      dup2\n      jump\t// out\n        /* \"project2/contracts/LoanAgreement.sol\":481:504  address public borrower */\n    tag_37:\n      0x01\n      0x00\n      swap1\n      sload\n      swap1\n      0x0100\n      exp\n      swap1\n      div\n      0xffffffffffffffffffffffffffffffffffffffff\n      and\n      dup2\n      jump\t// out\n        /* \"project2/contracts/LoanAgreement.sol\":2740:3152  function markDefault() external {... */\n    tag_41:\n        /* \"project2/contracts/LoanAgreement.sol\":2804:2810  lender */\n      0x00\n      0x00\n      swap1\n      sload\n      swap1\n      0x0100\n      exp\n      swap1\n      div\n      0xffffffffffffffffffffffffffffffffffffffff\n      and\n        /* \"project2/contracts/LoanAgreement.sol\":2790:2810  msg.sender == lender */\n      0xffffffffffffffffffffffffffffffffffffffff\n      and\n        /* \"project2/contracts/LoanAgreement.sol\":2790:2800  msg.sender */\n      caller\n        /* \"project2/contracts/LoanAgreement.sol\":2790:2810  msg.sender == lender */\n      0xffffffffffffffffffffffffffffffffffffffff\n      and\n      eq\n        /* \"project2/contracts/LoanAgreement.sol\":2782:2843  require(msg.sender == lender, \"Only lender can mark default\") */\n      tag_106\n      jumpi\n      mload(0x40)\n      0x08c379a000000000000000000000000000000000000000000000000000000000\n      dup2\n      mstore\n      0x04\n      add\n      tag_107\n      swap1\n      tag_108\n      jump\t// in\n    tag_107:\n      mload(0x40)\n      dup1\n      swap2\n      sub\n      swap1\n      revert\n    tag_106:\n        /* \"project2/contracts/LoanAgreement.sol\":2876:2893  LoanStatus.Active */\n      0x00\n        /* \"project2/contracts/LoanAgreement.sol\":2861:2893  getStatus() == LoanStatus.Active */\n      0x02\n      dup2\n      gt\n      iszero\n      tag_109\n      jumpi\n      tag_110\n      tag_89\n      jump\t// in\n    tag_110:\n    tag_109:\n        /* \"project2/contracts/LoanAgreement.sol\":2861:2872  getStatus() */\n      tag_111\n        /* \"project2/contracts/LoanAgreement.sol\":2861:2870  getStatus */\n      tag_26\n        /* \"project2/contracts/LoanAgreement.sol\":2861:2872  getStatus() */\n      jump\t// in\n    tag_111:\n        /* \"project2/contracts/LoanAgreement.sol\":2861:2893  getStatus() == LoanStatus.Active */\n      0x02\n      dup2\n      gt\n      iszero\n      tag_112\n      jumpi\n      tag_113\n      tag_89\n      jump\t// in\n    tag_113:\n    tag_112:\n      eq\n        /* \"project2/contracts/LoanAgreement.sol\":2853:2932  require(getStatus() == LoanStatus.Active, \"Loan not active or already handled\") */\n      tag_114\n      jumpi\n      mload(0x40)\n      0x08c379a000000000000000000000000000000000000000000000000000000000\n      dup2\n      mstore\n      0x04\n      add\n      tag_115\n      swap1\n      tag_116\n      jump\t// in\n    tag_115:\n      mload(0x40)\n      dup1\n      swap2\n      sub\n      swap1\n      revert\n    tag_114:\n        /* \"project2/contracts/LoanAgreement.sol\":2968:2980  dueTimestamp */\n      sload(0x04)\n        /* \"project2/contracts/LoanAgreement.sol\":2950:2965  block.timestamp */\n      timestamp\n        /* \"project2/contracts/LoanAgreement.sol\":2950:2980  block.timestamp > dueTimestamp */\n      gt\n        /* \"project2/contracts/LoanAgreement.sol\":2942:3008  require(block.timestamp > dueTimestamp, \"Loan is not overdue yet\") */\n      tag_117\n      jumpi\n      mload(0x40)\n      0x08c379a000000000000000000000000000000000000000000000000000000000\n      dup2\n      mstore\n      0x04\n      add\n      tag_118\n      swap1\n      tag_119\n      jump\t// in\n    tag_118:\n      mload(0x40)\n      dup1\n      swap2\n      sub\n      swap1\n      revert\n    tag_117:\n        /* \"project2/contracts/LoanAgreement.sol\":3035:3039  true */\n      0x01\n        /* \"project2/contracts/LoanAgreement.sol\":3019:3032  markedDefault */\n      0x08\n      0x00\n        /* \"project2/contracts/LoanAgreement.sol\":3019:3039  markedDefault = true */\n      0x0100\n      exp\n      dup2\n      sload\n      dup2\n      0xff\n      mul\n      not\n      and\n      swap1\n      dup4\n      iszero\n      iszero\n      mul\n      or\n      swap1\n      sstore\n      pop\n        /* \"project2/contracts/LoanAgreement.sol\":3083:3089  lender */\n      0x00\n      0x00\n      swap1\n      sload\n      swap1\n      0x0100\n      exp\n      swap1\n      div\n      0xffffffffffffffffffffffffffffffffffffffff\n      and\n        /* \"project2/contracts/LoanAgreement.sol\":3054:3090  DefaultMarked(address(this), lender) */\n      0xffffffffffffffffffffffffffffffffffffffff\n      and\n        /* \"project2/contracts/LoanAgreement.sol\":3076:3080  this */\n      address\n        /* \"project2/contracts/LoanAgreement.sol\":3054:3090  DefaultMarked(address(this), lender) */\n      0xffffffffffffffffffffffffffffffffffffffff\n      and\n      0xa6e9acf469d627e8f02eec880995bb6f37ecadea71c528f0e35081bd77e91897\n      mload(0x40)\n      mload(0x40)\n      dup1\n      swap2\n      sub\n      swap1\n      log3\n        /* \"project2/contracts/LoanAgreement.sol\":3100:3121  _updateTrustScore(-2) */\n      tag_120\n        /* \"project2/contracts/LoanAgreement.sol\":3118:3120  -2 */\n      0xfffffffffffffffffffffffffffffffffffffffffffffffffffffffffffffffe\n        /* \"project2/contracts/LoanAgreement.sol\":3100:3117  _updateTrustScore */\n      tag_95\n        /* \"project2/contracts/LoanAgreement.sol\":3100:3121  _updateTrustScore(-2) */\n      jump\t// in\n    tag_120:\n        /* \"project2/contracts/LoanAgreement.sol\":2740:3152  function markDefault() external {... */\n      jump\t// out\n        /* \"project2/contracts/LoanAgreement.sol\":4007:4132  function getTotalOwed() public view returns (uint256) {... */\n    tag_43:\n        /* \"project2/contracts/LoanAgreement.sol\":4052:4059  uint256 */\n      0x00\n        /* \"project2/contracts/LoanAgreement.sol\":4122:4125  100 */\n      0x64\n        /* \"project2/contracts/LoanAgreement.sol\":4103:4118  interestPercent */\n      sload(0x03)\n        /* \"project2/contracts/LoanAgreement.sol\":4091:4100  principal */\n      sload(0x02)\n        /* \"project2/contracts/LoanAgreement.sol\":4091:4118  principal * interestPercent */\n      tag_122\n      swap2\n      swap1\n      tag_99\n      jump\t// in\n    tag_122:\n        /* \"project2/contracts/LoanAgreement.sol\":4090:4125  (principal * interestPercent) / 100 */\n      tag_123\n      swap2\n      swap1\n      tag_101\n      jump\t// in\n    tag_123:\n        /* \"project2/contracts/LoanAgreement.sol\":4078:4087  principal */\n      sload(0x02)\n        /* \"project2/contracts/LoanAgreement.sol\":4078:4125  principal + (principal * interestPercent) / 100 */\n      tag_124\n      swap2\n      swap1\n      tag_84\n      jump\t// in\n    tag_124:\n        /* \"project2/contracts/LoanAgreement.sol\":4071:4125  return principal + (principal * interestPercent) / 100 */\n      swap1\n      pop\n        /* \"project2/contracts/LoanAgreement.sol\":4007:4132  function getTotalOwed() public view returns (uint256) {... */\n      swap1\n      jump\t// out\n        /* \"project2/contracts/LoanAgreement.sol\":609:636  address public tokenAddress */\n    tag_46:\n      0x05\n      0x00\n      swap1\n      sload\n      swap1\n      0x0100\n      exp\n      swap1\n      div\n      0xffffffffffffffffffffffffffffffffffffffff\n      and\n      dup2\n      jump\t// out\n        /* \"project2/contracts/LoanAgreement.sol\":4138:4231  function getDueTimestamp() public view returns (uint256) {... */\n    tag_49:\n        /* \"project2/contracts/LoanAgreement.sol\":4186:4193  uint256 */\n      0x00\n        /* \"project2/contracts/LoanAgreement.sol\":4212:4224  dueTimestamp */\n      sload(0x04)\n        /* \"project2/contracts/LoanAgreement.sol\":4205:4224  return dueTimestamp */\n      swap1\n      pop\n        /* \"project2/contracts/LoanAgreement.sol\":4138:4231  function getDueTimestamp() public view returns (uint256) {... */\n      swap1\n      jump\t// out\n        /* \"project2/contracts/LoanAgreement.sol\":510:534  uint256 public principal */\n    tag_52:\n      sload(0x02)\n      dup2\n      jump\t// out\n        /* \"project2/contracts/LoanAgreement.sol\":454:475  address public lender */\n    tag_55:\n      0x00\n      0x00\n      swap1\n      sload\n      swap1\n      0x0100\n      exp\n      swap1\n      div\n      0xffffffffffffffffffffffffffffffffffffffff\n      and\n      dup2\n      jump\t// out\n        /* \"project2/contracts/LoanAgreement.sol\":642:664  address public factory */\n    tag_58:\n      0x06\n      0x00\n      swap1\n      sload\n      swap1\n      0x0100\n      exp\n      swap1\n      div\n      0xffffffffffffffffffffffffffffffffffffffff\n      and\n      dup2\n      jump\t// out\n        /* \"project2/contracts/LoanAgreement.sol\":731:756  bool public markedDefault */\n    tag_61:\n      0x08\n      0x00\n      swap1\n      sload\n      swap1\n      0x0100\n      exp\n      swap1\n      div\n      0xff\n      and\n      dup2\n      jump\t// out\n        /* \"project2/contracts/LoanAgreement.sol\":540:570  uint256 public interestPercent */\n    tag_65:\n      sload(0x03)\n      dup2\n      jump\t// out\n        /* \"project2/contracts/LoanAgreement.sol\":698:725  uint256 public repaidAmount */\n    tag_68:\n      sload(0x07)\n      dup2\n      jump\t// out\n        /* \"project2/contracts/LoanAgreement.sol\":3703:3956  function _updateTrustScore(int256 delta) internal {... */\n    tag_95:\n        /* \"project2/contracts/LoanAgreement.sol\":3764:3776  bool success */\n      0x00\n        /* \"project2/contracts/LoanAgreement.sol\":3782:3789  factory */\n      0x06\n      0x00\n      swap1\n      sload\n      swap1\n      0x0100\n      exp\n      swap1\n      div\n      0xffffffffffffffffffffffffffffffffffffffff\n      and\n        /* \"project2/contracts/LoanAgreement.sol\":3782:3794  factory.call */\n      0xffffffffffffffffffffffffffffffffffffffff\n      and\n        /* \"project2/contracts/LoanAgreement.sol\":3868:3876  borrower */\n      0x01\n      0x00\n      swap1\n      sload\n      swap1\n      0x0100\n      exp\n      swap1\n      div\n      0xffffffffffffffffffffffffffffffffffffffff\n      and\n        /* \"project2/contracts/LoanAgreement.sol\":3878:3883  delta */\n      dup4\n        /* \"project2/contracts/LoanAgreement.sol\":3808:3884  abi.encodeWithSignature(\"updateTrustScore(address,int256)\", borrower, delta) */\n      add(0x24, mload(0x40))\n      tag_127\n      swap3\n      swap2\n      swap1\n      tag_128\n      jump\t// in\n    tag_127:\n      mload(0x40)\n      0x20\n      dup2\n      dup4\n      sub\n      sub\n      dup2\n      mstore\n      swap1\n      0x40\n      mstore\n      and(not(0xffffffffffffffffffffffffffffffffffffffffffffffffffffffff), 0xe766784d00000000000000000000000000000000000000000000000000000000)\n      0x20\n      dup3\n      add\n      dup1\n      mload\n      0xffffffffffffffffffffffffffffffffffffffffffffffffffffffff\n      dup4\n      dup2\n      dup4\n      and\n      or\n      dup4\n      mstore\n      pop\n      pop\n      pop\n      pop\n        /* \"project2/contracts/LoanAgreement.sol\":3782:3894  factory.call(... */\n      mload(0x40)\n      tag_129\n      swap2\n      swap1\n      tag_130\n      jump\t// in\n    tag_129:\n      0x00\n      mload(0x40)\n      dup1\n      dup4\n      sub\n      dup2\n      0x00\n      dup7\n      gas\n      call\n      swap2\n      pop\n      pop\n      returndatasize\n      dup1\n      0x00\n      dup2\n      eq\n      tag_133\n      jumpi\n      mload(0x40)\n      swap2\n      pop\n      and(add(returndatasize, 0x3f), not(0x1f))\n      dup3\n      add\n      0x40\n      mstore\n      returndatasize\n      dup3\n      mstore\n      returndatasize\n      0x00\n      0x20\n      dup5\n      add\n      returndatacopy\n      jump(tag_132)\n    tag_133:\n      0x60\n      swap2\n      pop\n    tag_132:\n      pop\n        /* \"project2/contracts/LoanAgreement.sol\":3763:3894  (bool success, ) = factory.call(... */\n      pop\n      swap1\n      pop\n        /* \"project2/contracts/LoanAgreement.sol\":3912:3919  success */\n      dup1\n        /* \"project2/contracts/LoanAgreement.sol\":3904:3949  require(success, \"Trust score update failed\") */\n      tag_134\n      jumpi\n      mload(0x40)\n      0x08c379a000000000000000000000000000000000000000000000000000000000\n      dup2\n      mstore\n      0x04\n      add\n      tag_135\n      swap1\n      tag_136\n      jump\t// in\n    tag_135:\n      mload(0x40)\n      dup1\n      swap2\n      sub\n      swap1\n      revert\n    tag_134:\n        /* \"project2/contracts/LoanAgreement.sol\":3753:3956  {... */\n      pop\n        /* \"project2/contracts/LoanAgreement.sol\":3703:3956  function _updateTrustScore(int256 delta) internal {... */\n      pop\n      jump\t// out\n        /* \"#utility.yul\":88:205   */\n    tag_138:\n        /* \"#utility.yul\":197:198   */\n      0x00\n        /* \"#utility.yul\":194:195   */\n      0x00\n        /* \"#utility.yul\":187:199   */\n      revert\n        /* \"#utility.yul\":334:411   */\n    tag_140:\n        /* \"#utility.yul\":371:378   */\n      0x00\n        /* \"#utility.yul\":400:405   */\n      dup2\n        /* \"#utility.yul\":389:405   */\n      swap1\n      pop\n        /* \"#utility.yul\":334:411   */\n      swap2\n      swap1\n      pop\n      jump\t// out\n        /* \"#utility.yul\":417:539   */\n    tag_141:\n        /* \"#utility.yul\":490:514   */\n      tag_182\n        /* \"#utility.yul\":508:513   */\n      dup2\n        /* \"#utility.yul\":490:514   */\n      tag_140\n      jump\t// in\n    tag_182:\n        /* \"#utility.yul\":483:488   */\n      dup2\n        /* \"#utility.yul\":480:515   */\n      eq\n        /* \"#utility.yul\":470:533   */\n      tag_183\n      jumpi\n        /* \"#utility.yul\":529:530   */\n      0x00\n        /* \"#utility.yul\":526:527   */\n      0x00\n        /* \"#utility.yul\":519:531   */\n      revert\n        /* \"#utility.yul\":470:533   */\n    tag_183:\n        /* \"#utility.yul\":417:539   */\n      pop\n      jump\t// out\n        /* \"#utility.yul\":545:684   */\n    tag_142:\n        /* \"#utility.yul\":591:596   */\n      0x00\n        /* \"#utility.yul\":629:635   */\n      dup2\n        /* \"#utility.yul\":616:636   */\n      calldataload\n        /* \"#utility.yul\":607:636   */\n      swap1\n      pop\n        /* \"#utility.yul\":645:678   */\n      tag_185\n        /* \"#utility.yul\":672:677   */\n      dup2\n        /* \"#utility.yul\":645:678   */\n      tag_141\n      jump\t// in\n    tag_185:\n        /* \"#utility.yul\":545:684   */\n      swap3\n      swap2\n      pop\n      pop\n      jump\t// out\n        /* \"#utility.yul\":690:1019   */\n    tag_23:\n        /* \"#utility.yul\":749:755   */\n      0x00\n        /* \"#utility.yul\":798:800   */\n      0x20\n        /* \"#utility.yul\":786:795   */\n      dup3\n        /* \"#utility.yul\":777:784   */\n      dup5\n        /* \"#utility.yul\":773:796   */\n      sub\n        /* \"#utility.yul\":769:801   */\n      slt\n        /* \"#utility.yul\":766:885   */\n      iszero\n      tag_187\n      jumpi\n        /* \"#utility.yul\":804:883   */\n      tag_188\n      tag_138\n      jump\t// in\n    tag_188:\n        /* \"#utility.yul\":766:885   */\n    tag_187:\n        /* \"#utility.yul\":924:925   */\n      0x00\n        /* \"#utility.yul\":949:1002   */\n      tag_189\n        /* \"#utility.yul\":994:1001   */\n      dup5\n        /* \"#utility.yul\":985:991   */\n      dup3\n        /* \"#utility.yul\":974:983   */\n      dup6\n        /* \"#utility.yul\":970:992   */\n      add\n        /* \"#utility.yul\":949:1002   */\n      tag_142\n      jump\t// in\n    tag_189:\n        /* \"#utility.yul\":939:1002   */\n      swap2\n      pop\n        /* \"#utility.yul\":895:1012   */\n      pop\n        /* \"#utility.yul\":690:1019   */\n      swap3\n      swap2\n      pop\n      pop\n      jump\t// out\n        /* \"#utility.yul\":1025:1205   */\n    tag_89:\n        /* \"#utility.yul\":1073:1150   */\n      0x4e487b7100000000000000000000000000000000000000000000000000000000\n        /* \"#utility.yul\":1070:1071   */\n      0x00\n        /* \"#utility.yul\":1063:1151   */\n      mstore\n        /* \"#utility.yul\":1170:1174   */\n      0x21\n        /* \"#utility.yul\":1167:1168   */\n      0x04\n        /* \"#utility.yul\":1160:1175   */\n      mstore\n        /* \"#utility.yul\":1194:1198   */\n      0x24\n        /* \"#utility.yul\":1191:1192   */\n      0x00\n        /* \"#utility.yul\":1184:1199   */\n      revert\n        /* \"#utility.yul\":1211:1329   */\n    tag_143:\n        /* \"#utility.yul\":1297:1298   */\n      0x03\n        /* \"#utility.yul\":1290:1295   */\n      dup2\n        /* \"#utility.yul\":1287:1299   */\n      lt\n        /* \"#utility.yul\":1277:1323   */\n      tag_192\n      jumpi\n        /* \"#utility.yul\":1303:1321   */\n      tag_193\n      tag_89\n      jump\t// in\n    tag_193:\n        /* \"#utility.yul\":1277:1323   */\n    tag_192:\n        /* \"#utility.yul\":1211:1329   */\n      pop\n      jump\t// out\n        /* \"#utility.yul\":1335:1472   */\n    tag_144:\n        /* \"#utility.yul\":1385:1392   */\n      0x00\n        /* \"#utility.yul\":1414:1419   */\n      dup2\n        /* \"#utility.yul\":1403:1419   */\n      swap1\n      pop\n        /* \"#utility.yul\":1420:1466   */\n      tag_195\n        /* \"#utility.yul\":1460:1465   */\n      dup3\n        /* \"#utility.yul\":1420:1466   */\n      tag_143\n      jump\t// in\n    tag_195:\n        /* \"#utility.yul\":1335:1472   */\n      swap2\n      swap1\n      pop\n      jump\t// out\n        /* \"#utility.yul\":1478:1615   */\n    tag_145:\n        /* \"#utility.yul\":1539:1548   */\n      0x00\n        /* \"#utility.yul\":1572:1609   */\n      tag_197\n        /* \"#utility.yul\":1603:1608   */\n      dup3\n        /* \"#utility.yul\":1572:1609   */\n      tag_144\n      jump\t// in\n    tag_197:\n        /* \"#utility.yul\":1559:1609   */\n      swap1\n      pop\n        /* \"#utility.yul\":1478:1615   */\n      swap2\n      swap1\n      pop\n      jump\t// out\n        /* \"#utility.yul\":1621:1774   */\n    tag_146:\n        /* \"#utility.yul\":1719:1767   */\n      tag_199\n        /* \"#utility.yul\":1761:1766   */\n      dup2\n        /* \"#utility.yul\":1719:1767   */\n      tag_145\n      jump\t// in\n    tag_199:\n        /* \"#utility.yul\":1714:1717   */\n      dup3\n        /* \"#utility.yul\":1707:1768   */\n      mstore\n        /* \"#utility.yul\":1621:1774   */\n      pop\n      pop\n      jump\t// out\n        /* \"#utility.yul\":1780:2024   */\n    tag_28:\n        /* \"#utility.yul\":1884:1888   */\n      0x00\n        /* \"#utility.yul\":1922:1924   */\n      0x20\n        /* \"#utility.yul\":1911:1920   */\n      dup3\n        /* \"#utility.yul\":1907:1925   */\n      add\n        /* \"#utility.yul\":1899:1925   */\n      swap1\n      pop\n        /* \"#utility.yul\":1935:2017   */\n      tag_201\n        /* \"#utility.yul\":2014:2015   */\n      0x00\n        /* \"#utility.yul\":2003:2012   */\n      dup4\n        /* \"#utility.yul\":1999:2016   */\n      add\n        /* \"#utility.yul\":1990:1996   */\n      dup5\n        /* \"#utility.yul\":1935:2017   */\n      tag_146\n      jump\t// in\n    tag_201:\n        /* \"#utility.yul\":1780:2024   */\n      swap3\n      swap2\n      pop\n      pop\n      jump\t// out\n        /* \"#utility.yul\":2030:2148   */\n    tag_147:\n        /* \"#utility.yul\":2117:2141   */\n      tag_203\n        /* \"#utility.yul\":2135:2140   */\n      dup2\n        /* \"#utility.yul\":2117:2141   */\n      tag_140\n      jump\t// in\n    tag_203:\n        /* \"#utility.yul\":2112:2115   */\n      dup3\n        /* \"#utility.yul\":2105:2142   */\n      mstore\n        /* \"#utility.yul\":2030:2148   */\n      pop\n      pop\n      jump\t// out\n        /* \"#utility.yul\":2154:2376   */\n    tag_32:\n        /* \"#utility.yul\":2247:2251   */\n      0x00\n        /* \"#utility.yul\":2285:2287   */\n      0x20\n        /* \"#utility.yul\":2274:2283   */\n      dup3\n        /* \"#utility.yul\":2270:2288   */\n      add\n        /* \"#utility.yul\":2262:2288   */\n      swap1\n      pop\n        /* \"#utility.yul\":2298:2369   */\n      tag_205\n        /* \"#utility.yul\":2366:2367   */\n      0x00\n        /* \"#utility.yul\":2355:2364   */\n      dup4\n        /* \"#utility.yul\":2351:2368   */\n      add\n        /* \"#utility.yul\":2342:2348   */\n      dup5\n        /* \"#utility.yul\":2298:2369   */\n      tag_147\n      jump\t// in\n    tag_205:\n        /* \"#utility.yul\":2154:2376   */\n      swap3\n      swap2\n      pop\n      pop\n      jump\t// out\n        /* \"#utility.yul\":2382:2508   */\n    tag_148:\n        /* \"#utility.yul\":2419:2426   */\n      0x00\n        /* \"#utility.yul\":2459:2501   */\n      0xffffffffffffffffffffffffffffffffffffffff\n        /* \"#utility.yul\":2452:2457   */\n      dup3\n        /* \"#utility.yul\":2448:2502   */\n      and\n        /* \"#utility.yul\":2437:2502   */\n      swap1\n      pop\n        /* \"#utility.yul\":2382:2508   */\n      swap2\n      swap1\n      pop\n      jump\t// out\n        /* \"#utility.yul\":2514:2610   */\n    tag_149:\n        /* \"#utility.yul\":2551:2558   */\n      0x00\n        /* \"#utility.yul\":2580:2604   */\n      tag_208\n        /* \"#utility.yul\":2598:2603   */\n      dup3\n        /* \"#utility.yul\":2580:2604   */\n      tag_148\n      jump\t// in\n    tag_208:\n        /* \"#utility.yul\":2569:2604   */\n      swap1\n      pop\n        /* \"#utility.yul\":2514:2610   */\n      swap2\n      swap1\n      pop\n      jump\t// out\n        /* \"#utility.yul\":2616:2734   */\n    tag_150:\n        /* \"#utility.yul\":2703:2727   */\n      tag_210\n        /* \"#utility.yul\":2721:2726   */\n      dup2\n        /* \"#utility.yul\":2703:2727   */\n      tag_149\n      jump\t// in\n    tag_210:\n        /* \"#utility.yul\":2698:2701   */\n      dup3\n        /* \"#utility.yul\":2691:2728   */\n      mstore\n        /* \"#utility.yul\":2616:2734   */\n      pop\n      pop\n      jump\t// out\n        /* \"#utility.yul\":2740:2962   */\n    tag_39:\n        /* \"#utility.yul\":2833:2837   */\n      0x00\n        /* \"#utility.yul\":2871:2873   */\n      0x20\n        /* \"#utility.yul\":2860:2869   */\n      dup3\n        /* \"#utility.yul\":2856:2874   */\n      add\n        /* \"#utility.yul\":2848:2874   */\n      swap1\n      pop\n        /* \"#utility.yul\":2884:2955   */\n      tag_212\n        /* \"#utility.yul\":2952:2953   */\n      0x00\n        /* \"#utility.yul\":2941:2950   */\n      dup4\n        /* \"#utility.yul\":2937:2954   */\n      add\n        /* \"#utility.yul\":2928:2934   */\n      dup5\n        /* \"#utility.yul\":2884:2955   */\n      tag_150\n      jump\t// in\n    tag_212:\n        /* \"#utility.yul\":2740:2962   */\n      swap3\n      swap2\n      pop\n      pop\n      jump\t// out\n        /* \"#utility.yul\":2968:3058   */\n    tag_151:\n        /* \"#utility.yul\":3002:3009   */\n      0x00\n        /* \"#utility.yul\":3045:3050   */\n      dup2\n        /* \"#utility.yul\":3038:3051   */\n      iszero\n        /* \"#utility.yul\":3031:3052   */\n      iszero\n        /* \"#utility.yul\":3020:3052   */\n      swap1\n      pop\n        /* \"#utility.yul\":2968:3058   */\n      swap2\n      swap1\n      pop\n      jump\t// out\n        /* \"#utility.yul\":3064:3173   */\n    tag_152:\n        /* \"#utility.yul\":3145:3166   */\n      tag_215\n        /* \"#utility.yul\":3160:3165   */\n      dup2\n        /* \"#utility.yul\":3145:3166   */\n      tag_151\n      jump\t// in\n    tag_215:\n        /* \"#utility.yul\":3140:3143   */\n      dup3\n        /* \"#utility.yul\":3133:3167   */\n      mstore\n        /* \"#utility.yul\":3064:3173   */\n      pop\n      pop\n      jump\t// out\n        /* \"#utility.yul\":3179:3389   */\n    tag_63:\n        /* \"#utility.yul\":3266:3270   */\n      0x00\n        /* \"#utility.yul\":3304:3306   */\n      0x20\n        /* \"#utility.yul\":3293:3302   */\n      dup3\n        /* \"#utility.yul\":3289:3307   */\n      add\n        /* \"#utility.yul\":3281:3307   */\n      swap1\n      pop\n        /* \"#utility.yul\":3317:3382   */\n      tag_217\n        /* \"#utility.yul\":3379:3380   */\n      0x00\n        /* \"#utility.yul\":3368:3377   */\n      dup4\n        /* \"#utility.yul\":3364:3381   */\n      add\n        /* \"#utility.yul\":3355:3361   */\n      dup5\n        /* \"#utility.yul\":3317:3382   */\n      tag_152\n      jump\t// in\n    tag_217:\n        /* \"#utility.yul\":3179:3389   */\n      swap3\n      swap2\n      pop\n      pop\n      jump\t// out\n        /* \"#utility.yul\":3395:3564   */\n    tag_153:\n        /* \"#utility.yul\":3479:3490   */\n      0x00\n        /* \"#utility.yul\":3513:3519   */\n      dup3\n        /* \"#utility.yul\":3508:3511   */\n      dup3\n        /* \"#utility.yul\":3501:3520   */\n      mstore\n        /* \"#utility.yul\":3553:3557   */\n      0x20\n        /* \"#utility.yul\":3548:3551   */\n      dup3\n        /* \"#utility.yul\":3544:3558   */\n      add\n        /* \"#utility.yul\":3529:3558   */\n      swap1\n      pop\n        /* \"#utility.yul\":3395:3564   */\n      swap3\n      swap2\n      pop\n      pop\n      jump\t// out\n        /* \"#utility.yul\":3570:3743   */\n    tag_154:\n        /* \"#utility.yul\":3710:3735   */\n      0x4f6e6c7920626f72726f7765722063616e207265706179000000000000000000\n        /* \"#utility.yul\":3706:3707   */\n      0x00\n        /* \"#utility.yul\":3698:3704   */\n      dup3\n        /* \"#utility.yul\":3694:3708   */\n      add\n        /* \"#utility.yul\":3687:3736   */\n      mstore\n        /* \"#utility.yul\":3570:3743   */\n      pop\n      jump\t// out\n        /* \"#utility.yul\":3749:4115   */\n    tag_155:\n        /* \"#utility.yul\":3891:3894   */\n      0x00\n        /* \"#utility.yul\":3912:3979   */\n      tag_221\n        /* \"#utility.yul\":3976:3978   */\n      0x17\n        /* \"#utility.yul\":3971:3974   */\n      dup4\n        /* \"#utility.yul\":3912:3979   */\n      tag_153\n      jump\t// in\n    tag_221:\n        /* \"#utility.yul\":3905:3979   */\n      swap2\n      pop\n        /* \"#utility.yul\":3988:4081   */\n      tag_222\n        /* \"#utility.yul\":4077:4080   */\n      dup3\n        /* \"#utility.yul\":3988:4081   */\n      tag_154\n      jump\t// in\n    tag_222:\n        /* \"#utility.yul\":4106:4108   */\n      0x20\n        /* \"#utility.yul\":4101:4104   */\n      dup3\n        /* \"#utility.yul\":4097:4109   */\n      add\n        /* \"#utility.yul\":4090:4109   */\n      swap1\n      pop\n        /* \"#utility.yul\":3749:4115   */\n      swap2\n      swap1\n      pop\n      jump\t// out\n        /* \"#utility.yul\":4121:4540   */\n    tag_73:\n        /* \"#utility.yul\":4287:4291   */\n      0x00\n        /* \"#utility.yul\":4325:4327   */\n      0x20\n        /* \"#utility.yul\":4314:4323   */\n      dup3\n        /* \"#utility.yul\":4310:4328   */\n      add\n        /* \"#utility.yul\":4302:4328   */\n      swap1\n      pop\n        /* \"#utility.yul\":4374:4383   */\n      dup2\n        /* \"#utility.yul\":4368:4372   */\n      dup2\n        /* \"#utility.yul\":4364:4384   */\n      sub\n        /* \"#utility.yul\":4360:4361   */\n      0x00\n        /* \"#utility.yul\":4349:4358   */\n      dup4\n        /* \"#utility.yul\":4345:4362   */\n      add\n        /* \"#utility.yul\":4338:4385   */\n      mstore\n        /* \"#utility.yul\":4402:4533   */\n      tag_224\n        /* \"#utility.yul\":4528:4532   */\n      dup2\n        /* \"#utility.yul\":4402:4533   */\n      tag_155\n      jump\t// in\n    tag_224:\n        /* \"#utility.yul\":4394:4533   */\n      swap1\n      pop\n        /* \"#utility.yul\":4121:4540   */\n      swap2\n      swap1\n      pop\n      jump\t// out\n        /* \"#utility.yul\":4546:4988   */\n    tag_75:\n        /* \"#utility.yul\":4695:4699   */\n      0x00\n        /* \"#utility.yul\":4733:4735   */\n      0x60\n        /* \"#utility.yul\":4722:4731   */\n      dup3\n        /* \"#utility.yul\":4718:4736   */\n      add\n        /* \"#utility.yul\":4710:4736   */\n      swap1\n      pop\n        /* \"#utility.yul\":4746:4817   */\n      tag_226\n        /* \"#utility.yul\":4814:4815   */\n      0x00\n        /* \"#utility.yul\":4803:4812   */\n      dup4\n        /* \"#utility.yul\":4799:4816   */\n      add\n        /* \"#utility.yul\":4790:4796   */\n      dup7\n        /* \"#utility.yul\":4746:4817   */\n      tag_150\n      jump\t// in\n    tag_226:\n        /* \"#utility.yul\":4827:4899   */\n      tag_227\n        /* \"#utility.yul\":4895:4897   */\n      0x20\n        /* \"#utility.yul\":4884:4893   */\n      dup4\n        /* \"#utility.yul\":4880:4898   */\n      add\n        /* \"#utility.yul\":4871:4877   */\n      dup6\n        /* \"#utility.yul\":4827:4899   */\n      tag_150\n      jump\t// in\n    tag_227:\n        /* \"#utility.yul\":4909:4981   */\n      tag_228\n        /* \"#utility.yul\":4977:4979   */\n      0x40\n        /* \"#utility.yul\":4966:4975   */\n      dup4\n        /* \"#utility.yul\":4962:4980   */\n      add\n        /* \"#utility.yul\":4953:4959   */\n      dup5\n        /* \"#utility.yul\":4909:4981   */\n      tag_147\n      jump\t// in\n    tag_228:\n        /* \"#utility.yul\":4546:4988   */\n      swap5\n      swap4\n      pop\n      pop\n      pop\n      pop\n      jump\t// out\n        /* \"#utility.yul\":4994:5110   */\n    tag_156:\n        /* \"#utility.yul\":5064:5085   */\n      tag_230\n        /* \"#utility.yul\":5079:5084   */\n      dup2\n        /* \"#utility.yul\":5064:5085   */\n      tag_151\n      jump\t// in\n    tag_230:\n        /* \"#utility.yul\":5057:5062   */\n      dup2\n        /* \"#utility.yul\":5054:5086   */\n      eq\n        /* \"#utility.yul\":5044:5104   */\n      tag_231\n      jumpi\n        /* \"#utility.yul\":5100:5101   */\n      0x00\n        /* \"#utility.yul\":5097:5098   */\n      0x00\n        /* \"#utility.yul\":5090:5102   */\n      revert\n        /* \"#utility.yul\":5044:5104   */\n    tag_231:\n        /* \"#utility.yul\":4994:5110   */\n      pop\n      jump\t// out\n        /* \"#utility.yul\":5116:5253   */\n    tag_157:\n        /* \"#utility.yul\":5170:5175   */\n      0x00\n        /* \"#utility.yul\":5201:5207   */\n      dup2\n        /* \"#utility.yul\":5195:5208   */\n      mload\n        /* \"#utility.yul\":5186:5208   */\n      swap1\n      pop\n        /* \"#utility.yul\":5217:5247   */\n      tag_233\n        /* \"#utility.yul\":5241:5246   */\n      dup2\n        /* \"#utility.yul\":5217:5247   */\n      tag_156\n      jump\t// in\n    tag_233:\n        /* \"#utility.yul\":5116:5253   */\n      swap3\n      swap2\n      pop\n      pop\n      jump\t// out\n        /* \"#utility.yul\":5259:5604   */\n    tag_79:\n        /* \"#utility.yul\":5326:5332   */\n      0x00\n        /* \"#utility.yul\":5375:5377   */\n      0x20\n        /* \"#utility.yul\":5363:5372   */\n      dup3\n        /* \"#utility.yul\":5354:5361   */\n      dup5\n        /* \"#utility.yul\":5350:5373   */\n      sub\n        /* \"#utility.yul\":5346:5378   */\n      slt\n        /* \"#utility.yul\":5343:5462   */\n      iszero\n      tag_235\n      jumpi\n        /* \"#utility.yul\":5381:5460   */\n      tag_236\n      tag_138\n      jump\t// in\n    tag_236:\n        /* \"#utility.yul\":5343:5462   */\n    tag_235:\n        /* \"#utility.yul\":5501:5502   */\n      0x00\n        /* \"#utility.yul\":5526:5587   */\n      tag_237\n        /* \"#utility.yul\":5579:5586   */\n      dup5\n        /* \"#utility.yul\":5570:5576   */\n      dup3\n        /* \"#utility.yul\":5559:5568   */\n      dup6\n        /* \"#utility.yul\":5555:5577   */\n      add\n        /* \"#utility.yul\":5526:5587   */\n      tag_157\n      jump\t// in\n    tag_237:\n        /* \"#utility.yul\":5516:5587   */\n      swap2\n      pop\n        /* \"#utility.yul\":5472:5597   */\n      pop\n        /* \"#utility.yul\":5259:5604   */\n      swap3\n      swap2\n      pop\n      pop\n      jump\t// out\n        /* \"#utility.yul\":5610:5781   */\n    tag_158:\n        /* \"#utility.yul\":5750:5773   */\n      0x546f6b656e207472616e73666572206661696c65640000000000000000000000\n        /* \"#utility.yul\":5746:5747   */\n      0x00\n        /* \"#utility.yul\":5738:5744   */\n      dup3\n        /* \"#utility.yul\":5734:5748   */\n      add\n        /* \"#utility.yul\":5727:5774   */\n      mstore\n        /* \"#utility.yul\":5610:5781   */\n      pop\n      jump\t// out\n        /* \"#utility.yul\":5787:6153   */\n    tag_159:\n        /* \"#utility.yul\":5929:5932   */\n      0x00\n        /* \"#utility.yul\":5950:6017   */\n      tag_240\n        /* \"#utility.yul\":6014:6016   */\n      0x15\n        /* \"#utility.yul\":6009:6012   */\n      dup4\n        /* \"#utility.yul\":5950:6017   */\n      tag_153\n      jump\t// in\n    tag_240:\n        /* \"#utility.yul\":5943:6017   */\n      swap2\n      pop\n        /* \"#utility.yul\":6026:6119   */\n      tag_241\n        /* \"#utility.yul\":6115:6118   */\n      dup3\n        /* \"#utility.yul\":6026:6119   */\n      tag_158\n      jump\t// in\n    tag_241:\n        /* \"#utility.yul\":6144:6146   */\n      0x20\n        /* \"#utility.yul\":6139:6142   */\n      dup3\n        /* \"#utility.yul\":6135:6147   */\n      add\n        /* \"#utility.yul\":6128:6147   */\n      swap1\n      pop\n        /* \"#utility.yul\":5787:6153   */\n      swap2\n      swap1\n      pop\n      jump\t// out\n        /* \"#utility.yul\":6159:6578   */\n    tag_82:\n        /* \"#utility.yul\":6325:6329   */\n      0x00\n        /* \"#utility.yul\":6363:6365   */\n      0x20\n        /* \"#utility.yul\":6352:6361   */\n      dup3\n        /* \"#utility.yul\":6348:6366   */\n      add\n        /* \"#utility.yul\":6340:6366   */\n      swap1\n      pop\n        /* \"#utility.yul\":6412:6421   */\n      dup2\n        /* \"#utility.yul\":6406:6410   */\n      dup2\n        /* \"#utility.yul\":6402:6422   */\n      sub\n        /* \"#utility.yul\":6398:6399   */\n      0x00\n        /* \"#utility.yul\":6387:6396   */\n      dup4\n        /* \"#utility.yul\":6383:6400   */\n      add\n        /* \"#utility.yul\":6376:6423   */\n      mstore\n        /* \"#utility.yul\":6440:6571   */\n      tag_243\n        /* \"#utility.yul\":6566:6570   */\n      dup2\n        /* \"#utility.yul\":6440:6571   */\n      tag_159\n      jump\t// in\n    tag_243:\n        /* \"#utility.yul\":6432:6571   */\n      swap1\n      pop\n        /* \"#utility.yul\":6159:6578   */\n      swap2\n      swap1\n      pop\n      jump\t// out\n        /* \"#utility.yul\":6584:6764   */\n    tag_160:\n        /* \"#utility.yul\":6632:6709   */\n      0x4e487b7100000000000000000000000000000000000000000000000000000000\n        /* \"#utility.yul\":6629:6630   */\n      0x00\n        /* \"#utility.yul\":6622:6710   */\n      mstore\n        /* \"#utility.yul\":6729:6733   */\n      0x11\n        /* \"#utility.yul\":6726:6727   */\n      0x04\n        /* \"#utility.yul\":6719:6734   */\n      mstore\n        /* \"#utility.yul\":6753:6757   */\n      0x24\n        /* \"#utility.yul\":6750:6751   */\n      0x00\n        /* \"#utility.yul\":6743:6758   */\n      revert\n        /* \"#utility.yul\":6770:6961   */\n    tag_84:\n        /* \"#utility.yul\":6810:6813   */\n      0x00\n        /* \"#utility.yul\":6829:6849   */\n      tag_246\n        /* \"#utility.yul\":6847:6848   */\n      dup3\n        /* \"#utility.yul\":6829:6849   */\n      tag_140\n      jump\t// in\n    tag_246:\n        /* \"#utility.yul\":6824:6849   */\n      swap2\n      pop\n        /* \"#utility.yul\":6863:6883   */\n      tag_247\n        /* \"#utility.yul\":6881:6882   */\n      dup4\n        /* \"#utility.yul\":6863:6883   */\n      tag_140\n      jump\t// in\n    tag_247:\n        /* \"#utility.yul\":6858:6883   */\n      swap3\n      pop\n        /* \"#utility.yul\":6906:6907   */\n      dup3\n        /* \"#utility.yul\":6903:6904   */\n      dup3\n        /* \"#utility.yul\":6899:6908   */\n      add\n        /* \"#utility.yul\":6892:6908   */\n      swap1\n      pop\n        /* \"#utility.yul\":6927:6930   */\n      dup1\n        /* \"#utility.yul\":6924:6925   */\n      dup3\n        /* \"#utility.yul\":6921:6931   */\n      gt\n        /* \"#utility.yul\":6918:6954   */\n      iszero\n      tag_248\n      jumpi\n        /* \"#utility.yul\":6934:6952   */\n      tag_249\n      tag_160\n      jump\t// in\n    tag_249:\n        /* \"#utility.yul\":6918:6954   */\n    tag_248:\n        /* \"#utility.yul\":6770:6961   */\n      swap3\n      swap2\n      pop\n      pop\n      jump\t// out\n        /* \"#utility.yul\":6967:7299   */\n    tag_86:\n        /* \"#utility.yul\":7088:7092   */\n      0x00\n        /* \"#utility.yul\":7126:7128   */\n      0x40\n        /* \"#utility.yul\":7115:7124   */\n      dup3\n        /* \"#utility.yul\":7111:7129   */\n      add\n        /* \"#utility.yul\":7103:7129   */\n      swap1\n      pop\n        /* \"#utility.yul\":7139:7210   */\n      tag_251\n        /* \"#utility.yul\":7207:7208   */\n      0x00\n        /* \"#utility.yul\":7196:7205   */\n      dup4\n        /* \"#utility.yul\":7192:7209   */\n      add\n        /* \"#utility.yul\":7183:7189   */\n      dup6\n        /* \"#utility.yul\":7139:7210   */\n      tag_147\n      jump\t// in\n    tag_251:\n        /* \"#utility.yul\":7220:7292   */\n      tag_252\n        /* \"#utility.yul\":7288:7290   */\n      0x20\n        /* \"#utility.yul\":7277:7286   */\n      dup4\n        /* \"#utility.yul\":7273:7291   */\n      add\n        /* \"#utility.yul\":7264:7270   */\n      dup5\n        /* \"#utility.yul\":7220:7292   */\n      tag_147\n      jump\t// in\n    tag_252:\n        /* \"#utility.yul\":6967:7299   */\n      swap4\n      swap3\n      pop\n      pop\n      pop\n      jump\t// out\n        /* \"#utility.yul\":7305:7715   */\n    tag_99:\n        /* \"#utility.yul\":7345:7352   */\n      0x00\n        /* \"#utility.yul\":7368:7388   */\n      tag_254\n        /* \"#utility.yul\":7386:7387   */\n      dup3\n        /* \"#utility.yul\":7368:7388   */\n      tag_140\n      jump\t// in\n    tag_254:\n        /* \"#utility.yul\":7363:7388   */\n      swap2\n      pop\n        /* \"#utility.yul\":7402:7422   */\n      tag_255\n        /* \"#utility.yul\":7420:7421   */\n      dup4\n        /* \"#utility.yul\":7402:7422   */\n      tag_140\n      jump\t// in\n    tag_255:\n        /* \"#utility.yul\":7397:7422   */\n      swap3\n      pop\n        /* \"#utility.yul\":7457:7458   */\n      dup3\n        /* \"#utility.yul\":7454:7455   */\n      dup3\n        /* \"#utility.yul\":7450:7459   */\n      mul\n        /* \"#utility.yul\":7479:7509   */\n      tag_256\n        /* \"#utility.yul\":7497:7508   */\n      dup2\n        /* \"#utility.yul\":7479:7509   */\n      tag_140\n      jump\t// in\n    tag_256:\n        /* \"#utility.yul\":7468:7509   */\n      swap2\n      pop\n        /* \"#utility.yul\":7658:7659   */\n      dup3\n        /* \"#utility.yul\":7649:7656   */\n      dup3\n        /* \"#utility.yul\":7645:7660   */\n      div\n        /* \"#utility.yul\":7642:7643   */\n      dup5\n        /* \"#utility.yul\":7639:7661   */\n      eq\n        /* \"#utility.yul\":7619:7620   */\n      dup4\n        /* \"#utility.yul\":7612:7621   */\n      iszero\n        /* \"#utility.yul\":7592:7675   */\n      or\n        /* \"#utility.yul\":7569:7708   */\n      tag_257\n      jumpi\n        /* \"#utility.yul\":7688:7706   */\n      tag_258\n      tag_160\n      jump\t// in\n    tag_258:\n        /* \"#utility.yul\":7569:7708   */\n    tag_257:\n        /* \"#utility.yul\":7353:7715   */\n      pop\n        /* \"#utility.yul\":7305:7715   */\n      swap3\n      swap2\n      pop\n      pop\n      jump\t// out\n        /* \"#utility.yul\":7721:7901   */\n    tag_161:\n        /* \"#utility.yul\":7769:7846   */\n      0x4e487b7100000000000000000000000000000000000000000000000000000000\n        /* \"#utility.yul\":7766:7767   */\n      0x00\n        /* \"#utility.yul\":7759:7847   */\n      mstore\n        /* \"#utility.yul\":7866:7870   */\n      0x12\n        /* \"#utility.yul\":7863:7864   */\n      0x04\n        /* \"#utility.yul\":7856:7871   */\n      mstore\n        /* \"#utility.yul\":7890:7894   */\n      0x24\n        /* \"#utility.yul\":7887:7888   */\n      0x00\n        /* \"#utility.yul\":7880:7895   */\n      revert\n        /* \"#utility.yul\":7907:8092   */\n    tag_101:\n        /* \"#utility.yul\":7947:7948   */\n      0x00\n        /* \"#utility.yul\":7964:7984   */\n      tag_261\n        /* \"#utility.yul\":7982:7983   */\n      dup3\n        /* \"#utility.yul\":7964:7984   */\n      tag_140\n      jump\t// in\n    tag_261:\n        /* \"#utility.yul\":7959:7984   */\n      swap2\n      pop\n        /* \"#utility.yul\":7998:8018   */\n      tag_262\n        /* \"#utility.yul\":8016:8017   */\n      dup4\n        /* \"#utility.yul\":7998:8018   */\n      tag_140\n      jump\t// in\n    tag_262:\n        /* \"#utility.yul\":7993:8018   */\n      swap3\n      pop\n        /* \"#utility.yul\":8037:8038   */\n      dup3\n        /* \"#utility.yul\":8027:8062   */\n      tag_263\n      jumpi\n        /* \"#utility.yul\":8042:8060   */\n      tag_264\n      tag_161\n      jump\t// in\n    tag_264:\n        /* \"#utility.yul\":8027:8062   */\n    tag_263:\n        /* \"#utility.yul\":8084:8085   */\n      dup3\n        /* \"#utility.yul\":8081:8082   */\n      dup3\n        /* \"#utility.yul\":8077:8086   */\n      div\n        /* \"#utility.yul\":8072:8086   */\n      swap1\n      pop\n        /* \"#utility.yul\":7907:8092   */\n      swap3\n      swap2\n      pop\n      pop\n      jump\t// out\n        /* \"#utility.yul\":8098:8276   */\n    tag_162:\n        /* \"#utility.yul\":8238:8268   */\n      0x4f6e6c79206c656e6465722063616e206d61726b2064656661756c7400000000\n        /* \"#utility.yul\":8234:8235   */\n      0x00\n        /* \"#utility.yul\":8226:8232   */\n      dup3\n        /* \"#utility.yul\":8222:8236   */\n      add\n        /* \"#utility.yul\":8215:8269   */\n      mstore\n        /* \"#utility.yul\":8098:8276   */\n      pop\n      jump\t// out\n        /* \"#utility.yul\":8282:8648   */\n    tag_163:\n        /* \"#utility.yul\":8424:8427   */\n      0x00\n        /* \"#utility.yul\":8445:8512   */\n      tag_267\n        /* \"#utility.yul\":8509:8511   */\n      0x1c\n        /* \"#utility.yul\":8504:8507   */\n      dup4\n        /* \"#utility.yul\":8445:8512   */\n      tag_153\n      jump\t// in\n    tag_267:\n        /* \"#utility.yul\":8438:8512   */\n      swap2\n      pop\n        /* \"#utility.yul\":8521:8614   */\n      tag_268\n        /* \"#utility.yul\":8610:8613   */\n      dup3\n        /* \"#utility.yul\":8521:8614   */\n      tag_162\n      jump\t// in\n    tag_268:\n        /* \"#utility.yul\":8639:8641   */\n      0x20\n        /* \"#utility.yul\":8634:8637   */\n      dup3\n        /* \"#utility.yul\":8630:8642   */\n      add\n        /* \"#utility.yul\":8623:8642   */\n      swap1\n      pop\n        /* \"#utility.yul\":8282:8648   */\n      swap2\n      swap1\n      pop\n      jump\t// out\n        /* \"#utility.yul\":8654:9073   */\n    tag_108:\n        /* \"#utility.yul\":8820:8824   */\n      0x00\n        /* \"#utility.yul\":8858:8860   */\n      0x20\n        /* \"#utility.yul\":8847:8856   */\n      dup3\n        /* \"#utility.yul\":8843:8861   */\n      add\n        /* \"#utility.yul\":8835:8861   */\n      swap1\n      pop\n        /* \"#utility.yul\":8907:8916   */\n      dup2\n        /* \"#utility.yul\":8901:8905   */\n      dup2\n        /* \"#utility.yul\":8897:8917   */\n      sub\n        /* \"#utility.yul\":8893:8894   */\n      0x00\n        /* \"#utility.yul\":8882:8891   */\n      dup4\n        /* \"#utility.yul\":8878:8895   */\n      add\n        /* \"#utility.yul\":8871:8918   */\n      mstore\n        /* \"#utility.yul\":8935:9066   */\n      tag_270\n        /* \"#utility.yul\":9061:9065   */\n      dup2\n        /* \"#utility.yul\":8935:9066   */\n      tag_163\n      jump\t// in\n    tag_270:\n        /* \"#utility.yul\":8927:9066   */\n      swap1\n      pop\n        /* \"#utility.yul\":8654:9073   */\n      swap2\n      swap1\n      pop\n      jump\t// out\n        /* \"#utility.yul\":9079:9300   */\n    tag_164:\n        /* \"#utility.yul\":9219:9253   */\n      0x4c6f616e206e6f7420616374697665206f7220616c72656164792068616e646c\n        /* \"#utility.yul\":9215:9216   */\n      0x00\n        /* \"#utility.yul\":9207:9213   */\n      dup3\n        /* \"#utility.yul\":9203:9217   */\n      add\n        /* \"#utility.yul\":9196:9254   */\n      mstore\n        /* \"#utility.yul\":9288:9292   */\n      0x6564000000000000000000000000000000000000000000000000000000000000\n        /* \"#utility.yul\":9283:9285   */\n      0x20\n        /* \"#utility.yul\":9275:9281   */\n      dup3\n        /* \"#utility.yul\":9271:9286   */\n      add\n        /* \"#utility.yul\":9264:9293   */\n      mstore\n        /* \"#utility.yul\":9079:9300   */\n      pop\n      jump\t// out\n        /* \"#utility.yul\":9306:9672   */\n    tag_165:\n        /* \"#utility.yul\":9448:9451   */\n      0x00\n        /* \"#utility.yul\":9469:9536   */\n      tag_273\n        /* \"#utility.yul\":9533:9535   */\n      0x22\n        /* \"#utility.yul\":9528:9531   */\n      dup4\n        /* \"#utility.yul\":9469:9536   */\n      tag_153\n      jump\t// in\n    tag_273:\n        /* \"#utility.yul\":9462:9536   */\n      swap2\n      pop\n        /* \"#utility.yul\":9545:9638   */\n      tag_274\n        /* \"#utility.yul\":9634:9637   */\n      dup3\n        /* \"#utility.yul\":9545:9638   */\n      tag_164\n      jump\t// in\n    tag_274:\n        /* \"#utility.yul\":9663:9665   */\n      0x40\n        /* \"#utility.yul\":9658:9661   */\n      dup3\n        /* \"#utility.yul\":9654:9666   */\n      add\n        /* \"#utility.yul\":9647:9666   */\n      swap1\n      pop\n        /* \"#utility.yul\":9306:9672   */\n      swap2\n      swap1\n      pop\n      jump\t// out\n        /* \"#utility.yul\":9678:10097   */\n    tag_116:\n        /* \"#utility.yul\":9844:9848   */\n      0x00\n        /* \"#utility.yul\":9882:9884   */\n      0x20\n        /* \"#utility.yul\":9871:9880   */\n      dup3\n        /* \"#utility.yul\":9867:9885   */\n      add\n        /* \"#utility.yul\":9859:9885   */\n      swap1\n      pop\n        /* \"#utility.yul\":9931:9940   */\n      dup2\n        /* \"#utility.yul\":9925:9929   */\n      dup2\n        /* \"#utility.yul\":9921:9941   */\n      sub\n        /* \"#utility.yul\":9917:9918   */\n      0x00\n        /* \"#utility.yul\":9906:9915   */\n      dup4\n        /* \"#utility.yul\":9902:9919   */\n      add\n        /* \"#utility.yul\":9895:9942   */\n      mstore\n        /* \"#utility.yul\":9959:10090   */\n      tag_276\n        /* \"#utility.yul\":10085:10089   */\n      dup2\n        /* \"#utility.yul\":9959:10090   */\n      tag_165\n      jump\t// in\n    tag_276:\n        /* \"#utility.yul\":9951:10090   */\n      swap1\n      pop\n        /* \"#utility.yul\":9678:10097   */\n      swap2\n      swap1\n      pop\n      jump\t// out\n        /* \"#utility.yul\":10103:10276   */\n    tag_166:\n        /* \"#utility.yul\":10243:10268   */\n      0x4c6f616e206973206e6f74206f76657264756520796574000000000000000000\n        /* \"#utility.yul\":10239:10240   */\n      0x00\n        /* \"#utility.yul\":10231:10237   */\n      dup3\n        /* \"#utility.yul\":10227:10241   */\n      add\n        /* \"#utility.yul\":10220:10269   */\n      mstore\n        /* \"#utility.yul\":10103:10276   */\n      pop\n      jump\t// out\n        /* \"#utility.yul\":10282:10648   */\n    tag_167:\n        /* \"#utility.yul\":10424:10427   */\n      0x00\n        /* \"#utility.yul\":10445:10512   */\n      tag_279\n        /* \"#utility.yul\":10509:10511   */\n      0x17\n        /* \"#utility.yul\":10504:10507   */\n      dup4\n        /* \"#utility.yul\":10445:10512   */\n      tag_153\n      jump\t// in\n    tag_279:\n        /* \"#utility.yul\":10438:10512   */\n      swap2\n      pop\n        /* \"#utility.yul\":10521:10614   */\n      tag_280\n        /* \"#utility.yul\":10610:10613   */\n      dup3\n        /* \"#utility.yul\":10521:10614   */\n      tag_166\n      jump\t// in\n    tag_280:\n        /* \"#utility.yul\":10639:10641   */\n      0x20\n        /* \"#utility.yul\":10634:10637   */\n      dup3\n        /* \"#utility.yul\":10630:10642   */\n      add\n        /* \"#utility.yul\":10623:10642   */\n      swap1\n      pop\n        /* \"#utility.yul\":10282:10648   */\n      swap2\n      swap1\n      pop\n      jump\t// out\n        /* \"#utility.yul\":10654:11073   */\n    tag_119:\n        /* \"#utility.yul\":10820:10824   */\n      0x00\n        /* \"#utility.yul\":10858:10860   */\n      0x20\n        /* \"#utility.yul\":10847:10856   */\n      dup3\n        /* \"#utility.yul\":10843:10861   */\n      add\n        /* \"#utility.yul\":10835:10861   */\n      swap1\n      pop\n        /* \"#utility.yul\":10907:10916   */\n      dup2\n        /* \"#utility.yul\":10901:10905   */\n      dup2\n        /* \"#utility.yul\":10897:10917   */\n      sub\n        /* \"#utility.yul\":10893:10894   */\n      0x00\n        /* \"#utility.yul\":10882:10891   */\n      dup4\n        /* \"#utility.yul\":10878:10895   */\n      add\n        /* \"#utility.yul\":10871:10918   */\n      mstore\n        /* \"#utility.yul\":10935:11066   */\n      tag_282\n        /* \"#utility.yul\":11061:11065   */\n      dup2\n        /* \"#utility.yul\":10935:11066   */\n      tag_167\n      jump\t// in\n    tag_282:\n        /* \"#utility.yul\":10927:11066   */\n      swap1\n      pop\n        /* \"#utility.yul\":10654:11073   */\n      swap2\n      swap1\n      pop\n      jump\t// out\n        /* \"#utility.yul\":11079:11155   */\n    tag_168:\n        /* \"#utility.yul\":11115:11122   */\n      0x00\n        /* \"#utility.yul\":11144:11149   */\n      dup2\n        /* \"#utility.yul\":11133:11149   */\n      swap1\n      pop\n        /* \"#utility.yul\":11079:11155   */\n      swap2\n      swap1\n      pop\n      jump\t// out\n        /* \"#utility.yul\":11161:11276   */\n    tag_169:\n        /* \"#utility.yul\":11246:11269   */\n      tag_285\n        /* \"#utility.yul\":11263:11268   */\n      dup2\n        /* \"#utility.yul\":11246:11269   */\n      tag_168\n      jump\t// in\n    tag_285:\n        /* \"#utility.yul\":11241:11244   */\n      dup3\n        /* \"#utility.yul\":11234:11270   */\n      mstore\n        /* \"#utility.yul\":11161:11276   */\n      pop\n      pop\n      jump\t// out\n        /* \"#utility.yul\":11282:11610   */\n    tag_128:\n        /* \"#utility.yul\":11401:11405   */\n      0x00\n        /* \"#utility.yul\":11439:11441   */\n      0x40\n        /* \"#utility.yul\":11428:11437   */\n      dup3\n        /* \"#utility.yul\":11424:11442   */\n      add\n        /* \"#utility.yul\":11416:11442   */\n      swap1\n      pop\n        /* \"#utility.yul\":11452:11523   */\n      tag_287\n        /* \"#utility.yul\":11520:11521   */\n      0x00\n        /* \"#utility.yul\":11509:11518   */\n      dup4\n        /* \"#utility.yul\":11505:11522   */\n      add\n        /* \"#utility.yul\":11496:11502   */\n      dup6\n        /* \"#utility.yul\":11452:11523   */\n      tag_150\n      jump\t// in\n    tag_287:\n        /* \"#utility.yul\":11533:11603   */\n      tag_288\n        /* \"#utility.yul\":11599:11601   */\n      0x20\n        /* \"#utility.yul\":11588:11597   */\n      dup4\n        /* \"#utility.yul\":11584:11602   */\n      add\n        /* \"#utility.yul\":11575:11581   */\n      dup5\n        /* \"#utility.yul\":11533:11603   */\n      tag_169\n      jump\t// in\n    tag_288:\n        /* \"#utility.yul\":11282:11610   */\n      swap4\n      swap3\n      pop\n      pop\n      pop\n      jump\t// out\n        /* \"#utility.yul\":11616:11714   */\n    tag_170:\n        /* \"#utility.yul\":11667:11673   */\n      0x00\n        /* \"#utility.yul\":11701:11706   */\n      dup2\n        /* \"#utility.yul\":11695:11707   */\n      mload\n        /* \"#utility.yul\":11685:11707   */\n      swap1\n      pop\n        /* \"#utility.yul\":11616:11714   */\n      swap2\n      swap1\n      pop\n      jump\t// out\n        /* \"#utility.yul\":11720:11867   */\n    tag_171:\n        /* \"#utility.yul\":11821:11832   */\n      0x00\n        /* \"#utility.yul\":11858:11861   */\n      dup2\n        /* \"#utility.yul\":11843:11861   */\n      swap1\n      pop\n        /* \"#utility.yul\":11720:11867   */\n      swap3\n      swap2\n      pop\n      pop\n      jump\t// out\n        /* \"#utility.yul\":11873:12012   */\n    tag_172:\n        /* \"#utility.yul\":11962:11968   */\n      dup3\n        /* \"#utility.yul\":11957:11960   */\n      dup2\n        /* \"#utility.yul\":11952:11955   */\n      dup4\n        /* \"#utility.yul\":11946:11969   */\n      mcopy\n        /* \"#utility.yul\":12003:12004   */\n      0x00\n        /* \"#utility.yul\":11994:12000   */\n      dup4\n        /* \"#utility.yul\":11989:11992   */\n      dup4\n        /* \"#utility.yul\":11985:12001   */\n      add\n        /* \"#utility.yul\":11978:12005   */\n      mstore\n        /* \"#utility.yul\":11873:12012   */\n      pop\n      pop\n      pop\n      jump\t// out\n        /* \"#utility.yul\":12018:12404   */\n    tag_173:\n        /* \"#utility.yul\":12122:12125   */\n      0x00\n        /* \"#utility.yul\":12150:12188   */\n      tag_293\n        /* \"#utility.yul\":12182:12187   */\n      dup3\n        /* \"#utility.yul\":12150:12188   */\n      tag_170\n      jump\t// in\n    tag_293:\n        /* \"#utility.yul\":12204:12292   */\n      tag_294\n        /* \"#utility.yul\":12285:12291   */\n      dup2\n        /* \"#utility.yul\":12280:12283   */\n      dup6\n        /* \"#utility.yul\":12204:12292   */\n      tag_171\n      jump\t// in\n    tag_294:\n        /* \"#utility.yul\":12197:12292   */\n      swap4\n      pop\n        /* \"#utility.yul\":12301:12366   */\n      tag_295\n        /* \"#utility.yul\":12359:12365   */\n      dup2\n        /* \"#utility.yul\":12354:12357   */\n      dup6\n        /* \"#utility.yul\":12347:12351   */\n      0x20\n        /* \"#utility.yul\":12340:12345   */\n      dup7\n        /* \"#utility.yul\":12336:12352   */\n      add\n        /* \"#utility.yul\":12301:12366   */\n      tag_172\n      jump\t// in\n    tag_295:\n        /* \"#utility.yul\":12391:12397   */\n      dup1\n        /* \"#utility.yul\":12386:12389   */\n      dup5\n        /* \"#utility.yul\":12382:12398   */\n      add\n        /* \"#utility.yul\":12375:12398   */\n      swap2\n      pop\n        /* \"#utility.yul\":12126:12404   */\n      pop\n        /* \"#utility.yul\":12018:12404   */\n      swap3\n      swap2\n      pop\n      pop\n      jump\t// out\n        /* \"#utility.yul\":12410:12681   */\n    tag_130:\n        /* \"#utility.yul\":12540:12543   */\n      0x00\n        /* \"#utility.yul\":12562:12655   */\n      tag_297\n        /* \"#utility.yul\":12651:12654   */\n      dup3\n        /* \"#utility.yul\":12642:12648   */\n      dup5\n        /* \"#utility.yul\":12562:12655   */\n      tag_173\n      jump\t// in\n    tag_297:\n        /* \"#utility.yul\":12555:12655   */\n      swap2\n      pop\n        /* \"#utility.yul\":12672:12675   */\n      dup2\n        /* \"#utility.yul\":12665:12675   */\n      swap1\n      pop\n        /* \"#utility.yul\":12410:12681   */\n      swap3\n      swap2\n      pop\n      pop\n      jump\t// out\n        /* \"#utility.yul\":12687:12862   */\n    tag_174:\n        /* \"#utility.yul\":12827:12854   */\n      0x54727573742073636f726520757064617465206661696c656400000000000000\n        /* \"#utility.yul\":12823:12824   */\n      0x00\n        /* \"#utility.yul\":12815:12821   */\n      dup3\n        /* \"#utility.yul\":12811:12825   */\n      add\n        /* \"#utility.yul\":12804:12855   */\n      mstore\n        /* \"#utility.yul\":12687:12862   */\n      pop\n      jump\t// out\n        /* \"#utility.yul\":12868:13234   */\n    tag_175:\n        /* \"#utility.yul\":13010:13013   */\n      0x00\n        /* \"#utility.yul\":13031:13098   */\n      tag_300\n        /* \"#utility.yul\":13095:13097   */\n      0x19\n        /* \"#utility.yul\":13090:13093   */\n      dup4\n        /* \"#utility.yul\":13031:13098   */\n      tag_153\n      jump\t// in\n    tag_300:\n        /* \"#utility.yul\":13024:13098   */\n      swap2\n      pop\n        /* \"#utility.yul\":13107:13200   */\n      tag_301\n        /* \"#utility.yul\":13196:13199   */\n      dup3\n        /* \"#utility.yul\":13107:13200   */\n      tag_174\n      jump\t// in\n    tag_301:\n        /* \"#utility.yul\":13225:13227   */\n      0x20\n        /* \"#utility.yul\":13220:13223   */\n      dup3\n        /* \"#utility.yul\":13216:13228   */\n      add\n        /* \"#utility.yul\":13209:13228   */\n      swap1\n      pop\n        /* \"#utility.yul\":12868:13234   */\n      swap2\n      swap1\n      pop\n      jump\t// out\n        /* \"#utility.yul\":13240:13659   */\n    tag_136:\n        /* \"#utility.yul\":13406:13410   */\n      0x00\n        /* \"#utility.yul\":13444:13446   */\n      0x20\n        /* \"#utility.yul\":13433:13442   */\n      dup3\n        /* \"#utility.yul\":13429:13447   */\n      add\n        /* \"#utility.yul\":13421:13447   */\n      swap1\n      pop\n        /* \"#utility.yul\":13493:13502   */\n      dup2\n        /* \"#utility.yul\":13487:13491   */\n      dup2\n        /* \"#utility.yul\":13483:13503   */\n      sub\n        /* \"#utility.yul\":13479:13480   */\n      0x00\n        /* \"#utility.yul\":13468:13477   */\n      dup4\n        /* \"#utility.yul\":13464:13481   */\n      add\n        /* \"#utility.yul\":13457:13504   */\n      mstore\n        /* \"#utility.yul\":13521:13652   */\n      tag_303\n        /* \"#utility.yul\":13647:13651   */\n      dup2\n        /* \"#utility.yul\":13521:13652   */\n      tag_175\n      jump\t// in\n    tag_303:\n        /* \"#utility.yul\":13513:13652   */\n      swap1\n      pop\n        /* \"#utility.yul\":13240:13659   */\n      swap2\n      swap1\n      pop\n      jump\t// out\n\n    auxdata: 0xa2646970667358221220059feb329a5d70a0f3d12f465f38e57a1469ee70dbd1e8491a16df4488f842d264736f6c634300081e0033\n}\n",
				"bytecode": {
					"linkReferences": {},
					"object": "608060405234801561000f575f5ffd5b506040516113ca3803806113ca833981810160405281019061003191906101ed565b865f5f6101000a81548173ffffffffffffffffffffffffffffffffffffffff021916908373ffffffffffffffffffffffffffffffffffffffff1602179055508560015f6101000a81548173ffffffffffffffffffffffffffffffffffffffff021916908373ffffffffffffffffffffffffffffffffffffffff160217905550846002819055508360055f6101000a81548173ffffffffffffffffffffffffffffffffffffffff021916908373ffffffffffffffffffffffffffffffffffffffff160217905550824261010391906102b7565b600481905550816003819055508060065f6101000a81548173ffffffffffffffffffffffffffffffffffffffff021916908373ffffffffffffffffffffffffffffffffffffffff160217905550505050505050506102ea565b5f5ffd5b5f73ffffffffffffffffffffffffffffffffffffffff82169050919050565b5f61018982610160565b9050919050565b6101998161017f565b81146101a3575f5ffd5b50565b5f815190506101b481610190565b92915050565b5f819050919050565b6101cc816101ba565b81146101d6575f5ffd5b50565b5f815190506101e7816101c3565b92915050565b5f5f5f5f5f5f5f60e0888a0312156102085761020761015c565b5b5f6102158a828b016101a6565b97505060206102268a828b016101a6565b96505060406102378a828b016101d9565b95505060606102488a828b016101a6565b94505060806102598a828b016101d9565b93505060a061026a8a828b016101d9565b92505060c061027b8a828b016101a6565b91505092959891949750929550565b7f4e487b71000000000000000000000000000000000000000000000000000000005f52601160045260245ffd5b5f6102c1826101ba565b91506102cc836101ba565b92508282019050808211156102e4576102e361028a565b5b92915050565b6110d3806102f75f395ff3fe608060405234801561000f575f5ffd5b50600436106100f3575f3560e01c80639d76ea5811610095578063c45a015511610064578063c45a01551461022b578063d8bac5ed14610249578063dd3b311014610267578063f98b802814610285576100f3565b80639d76ea58146101b3578063a35a4ab3146101d1578063ba5d3078146101ef578063bcead63e1461020d576100f3565b80635451073d116100d15780635451073d1461014f5780637df1f1b91461016d5780638cff3e4b1461018b57806395c8cbc914610195576100f3565b8063371fd8e6146100f75780634e69d5601461011357806353069df614610131575b5f5ffd5b610111600480360381019061010c9190610a37565b6102a3565b005b61011b610522565b6040516101289190610ad5565b60405180910390f35b610139610587565b6040516101469190610afd565b60405180910390f35b610157610590565b6040516101649190610afd565b60405180910390f35b610175610596565b6040516101829190610b55565b60405180910390f35b6101936105bb565b005b61019d6107b9565b6040516101aa9190610afd565b60405180910390f35b6101bb6107e8565b6040516101c89190610b55565b60405180910390f35b6101d961080d565b6040516101e69190610afd565b60405180910390f35b6101f7610816565b6040516102049190610afd565b60405180910390f35b61021561081c565b6040516102229190610b55565b60405180910390f35b610233610840565b6040516102409190610b55565b60405180910390f35b610251610865565b60405161025e9190610b88565b60405180910390f35b61026f610877565b60405161027c9190610afd565b60405180910390f35b61028d61087d565b60405161029a9190610afd565b60405180910390f35b60015f9054906101000a900473ffffffffffffffffffffffffffffffffffffffff1673ffffffffffffffffffffffffffffffffffffffff163373ffffffffffffffffffffffffffffffffffffffff1614610332576040517f08c379a000000000000000000000000000000000000000000000000000000000815260040161032990610bfb565b60405180910390fd5b5f60055f9054906101000a900473ffffffffffffffffffffffffffffffffffffffff1690508073ffffffffffffffffffffffffffffffffffffffff166323b872dd335f5f9054906101000a900473ffffffffffffffffffffffffffffffffffffffff16856040518463ffffffff1660e01b81526004016103b493929190610c19565b6020604051808303815f875af11580156103d0573d5f5f3e3d5ffd5b505050506040513d601f19601f820116820180604052508101906103f49190610c78565b610433576040517f08c379a000000000000000000000000000000000000000000000000000000000815260040161042a90610ced565b60405180910390fd5b8160075f8282546104449190610d38565b925050819055503373ffffffffffffffffffffffffffffffffffffffff167f1b8cd61ed43bec7c6bdad3a18ffee613f99c853d16c50678d248d879e1b4343883600754604051610495929190610d6b565b60405180910390a2600160028111156104b1576104b0610a62565b5b6104b9610522565b60028111156104cb576104ca610a62565b5b0361051e573073ffffffffffffffffffffffffffffffffffffffff167f927542d877f6ef1fb1779cb252a65aaa543f48e6d9abc25433c57e19ceccf61d60405160405180910390a261051d6001610883565b5b5050565b5f60085f9054906101000a900460ff16156105405760029050610584565b5f60646003546002546105539190610d92565b61055d9190610e00565b60025461056a9190610d38565b9050806007541061057f576001915050610584565b5f9150505b90565b5f600754905090565b60045481565b60015f9054906101000a900473ffffffffffffffffffffffffffffffffffffffff1681565b5f5f9054906101000a900473ffffffffffffffffffffffffffffffffffffffff1673ffffffffffffffffffffffffffffffffffffffff163373ffffffffffffffffffffffffffffffffffffffff1614610649576040517f08c379a000000000000000000000000000000000000000000000000000000000815260040161064090610e7a565b60405180910390fd5b5f600281111561065c5761065b610a62565b5b610664610522565b600281111561067657610675610a62565b5b146106b6576040517f08c379a00000000000000000000000000000000000000000000000000000000081526004016106ad90610f08565b60405180910390fd5b60045442116106fa576040517f08c379a00000000000000000000000000000000000000000000000000000000081526004016106f190610f70565b60405180910390fd5b600160085f6101000a81548160ff0219169083151502179055505f5f9054906101000a900473ffffffffffffffffffffffffffffffffffffffff1673ffffffffffffffffffffffffffffffffffffffff163073ffffffffffffffffffffffffffffffffffffffff167fa6e9acf469d627e8f02eec880995bb6f37ecadea71c528f0e35081bd77e9189760405160405180910390a36107b77ffffffffffffffffffffffffffffffffffffffffffffffffffffffffffffffffe610883565b565b5f60646003546002546107cc9190610d92565b6107d69190610e00565b6002546107e39190610d38565b905090565b60055f9054906101000a900473ffffffffffffffffffffffffffffffffffffffff1681565b5f600454905090565b60025481565b5f5f9054906101000a900473ffffffffffffffffffffffffffffffffffffffff1681565b60065f9054906101000a900473ffffffffffffffffffffffffffffffffffffffff1681565b60085f9054906101000a900460ff1681565b60035481565b60075481565b5f60065f9054906101000a900473ffffffffffffffffffffffffffffffffffffffff1673ffffffffffffffffffffffffffffffffffffffff1660015f9054906101000a900473ffffffffffffffffffffffffffffffffffffffff16836040516024016108f0929190610fa6565b6040516020818303038152906040527fe766784d000000000000000000000000000000000000000000000000000000007bffffffffffffffffffffffffffffffffffffffffffffffffffffffff19166020820180517bffffffffffffffffffffffffffffffffffffffffffffffffffffffff838183161783525050505060405161097a919061101f565b5f604051808303815f865af19150503d805f81146109b3576040519150601f19603f3d011682016040523d82523d5f602084013e6109b8565b606091505b50509050806109fc576040517f08c379a00000000000000000000000000000000000000000000000000000000081526004016109f39061107f565b60405180910390fd5b5050565b5f5ffd5b5f819050919050565b610a1681610a04565b8114610a20575f5ffd5b50565b5f81359050610a3181610a0d565b92915050565b5f60208284031215610a4c57610a4b610a00565b5b5f610a5984828501610a23565b91505092915050565b7f4e487b71000000000000000000000000000000000000000000000000000000005f52602160045260245ffd5b60038110610aa057610a9f610a62565b5b50565b5f819050610ab082610a8f565b919050565b5f610abf82610aa3565b9050919050565b610acf81610ab5565b82525050565b5f602082019050610ae85f830184610ac6565b92915050565b610af781610a04565b82525050565b5f602082019050610b105f830184610aee565b92915050565b5f73ffffffffffffffffffffffffffffffffffffffff82169050919050565b5f610b3f82610b16565b9050919050565b610b4f81610b35565b82525050565b5f602082019050610b685f830184610b46565b92915050565b5f8115159050919050565b610b8281610b6e565b82525050565b5f602082019050610b9b5f830184610b79565b92915050565b5f82825260208201905092915050565b7f4f6e6c7920626f72726f7765722063616e2072657061790000000000000000005f82015250565b5f610be5601783610ba1565b9150610bf082610bb1565b602082019050919050565b5f6020820190508181035f830152610c1281610bd9565b9050919050565b5f606082019050610c2c5f830186610b46565b610c396020830185610b46565b610c466040830184610aee565b949350505050565b610c5781610b6e565b8114610c61575f5ffd5b50565b5f81519050610c7281610c4e565b92915050565b5f60208284031215610c8d57610c8c610a00565b5b5f610c9a84828501610c64565b91505092915050565b7f546f6b656e207472616e73666572206661696c656400000000000000000000005f82015250565b5f610cd7601583610ba1565b9150610ce282610ca3565b602082019050919050565b5f6020820190508181035f830152610d0481610ccb565b9050919050565b7f4e487b71000000000000000000000000000000000000000000000000000000005f52601160045260245ffd5b5f610d4282610a04565b9150610d4d83610a04565b9250828201905080821115610d6557610d64610d0b565b5b92915050565b5f604082019050610d7e5f830185610aee565b610d8b6020830184610aee565b9392505050565b5f610d9c82610a04565b9150610da783610a04565b9250828202610db581610a04565b91508282048414831517610dcc57610dcb610d0b565b5b5092915050565b7f4e487b71000000000000000000000000000000000000000000000000000000005f52601260045260245ffd5b5f610e0a82610a04565b9150610e1583610a04565b925082610e2557610e24610dd3565b5b828204905092915050565b7f4f6e6c79206c656e6465722063616e206d61726b2064656661756c74000000005f82015250565b5f610e64601c83610ba1565b9150610e6f82610e30565b602082019050919050565b5f6020820190508181035f830152610e9181610e58565b9050919050565b7f4c6f616e206e6f7420616374697665206f7220616c72656164792068616e646c5f8201527f6564000000000000000000000000000000000000000000000000000000000000602082015250565b5f610ef2602283610ba1565b9150610efd82610e98565b604082019050919050565b5f6020820190508181035f830152610f1f81610ee6565b9050919050565b7f4c6f616e206973206e6f74206f766572647565207965740000000000000000005f82015250565b5f610f5a601783610ba1565b9150610f6582610f26565b602082019050919050565b5f6020820190508181035f830152610f8781610f4e565b9050919050565b5f819050919050565b610fa081610f8e565b82525050565b5f604082019050610fb95f830185610b46565b610fc66020830184610f97565b9392505050565b5f81519050919050565b5f81905092915050565b8281835e5f83830152505050565b5f610ff982610fcd565b6110038185610fd7565b9350611013818560208601610fe1565b80840191505092915050565b5f61102a8284610fef565b915081905092915050565b7f54727573742073636f726520757064617465206661696c6564000000000000005f82015250565b5f611069601983610ba1565b915061107482611035565b602082019050919050565b5f6020820190508181035f8301526110968161105d565b905091905056fea2646970667358221220059feb329a5d70a0f3d12f465f38e57a1469ee70dbd1e8491a16df4488f842d264736f6c634300081e0033",
					"opcodes": "PUSH1 0x80 PUSH1 0x40 MSTORE CALLVALUE DUP1 ISZERO PUSH2 0xF JUMPI PUSH0 PUSH0 REVERT JUMPDEST POP PUSH1 0x40 MLOAD PUSH2 0x13CA CODESIZE SUB DUP1 PUSH2 0x13CA DUP4 CODECOPY DUP2 DUP2 ADD PUSH1 0x40 MSTORE DUP2 ADD SWAP1 PUSH2 0x31 SWAP2 SWAP1 PUSH2 0x1ED JUMP JUMPDEST DUP7 PUSH0 PUSH0 PUSH2 0x100 EXP DUP2 SLOAD DUP2 PUSH20 0xFFFFFFFFFFFFFFFFFFFFFFFFFFFFFFFFFFFFFFFF MUL NOT AND SWAP1 DUP4 PUSH20 0xFFFFFFFFFFFFFFFFFFFFFFFFFFFFFFFFFFFFFFFF AND MUL OR SWAP1 SSTORE POP DUP6 PUSH1 0x1 PUSH0 PUSH2 0x100 EXP DUP2 SLOAD DUP2 PUSH20 0xFFFFFFFFFFFFFFFFFFFFFFFFFFFFFFFFFFFFFFFF MUL NOT AND SWAP1 DUP4 PUSH20 0xFFFFFFFFFFFFFFFFFFFFFFFFFFFFFFFFFFFFFFFF AND MUL OR SWAP1 SSTORE POP DUP5 PUSH1 0x2 DUP2 SWAP1 SSTORE POP DUP4 PUSH1 0x5 PUSH0 PUSH2 0x100 EXP DUP2 SLOAD DUP2 PUSH20 0xFFFFFFFFFFFFFFFFFFFFFFFFFFFFFFFFFFFFFFFF MUL NOT AND SWAP1 DUP4 PUSH20 0xFFFFFFFFFFFFFFFFFFFFFFFFFFFFFFFFFFFFFFFF AND MUL OR SWAP1 SSTORE POP DUP3 TIMESTAMP PUSH2 0x103 SWAP2 SWAP1 PUSH2 0x2B7 JUMP JUMPDEST PUSH1 0x4 DUP2 SWAP1 SSTORE POP DUP2 PUSH1 0x3 DUP2 SWAP1 SSTORE POP DUP1 PUSH1 0x6 PUSH0 PUSH2 0x100 EXP DUP2 SLOAD DUP2 PUSH20 0xFFFFFFFFFFFFFFFFFFFFFFFFFFFFFFFFFFFFFFFF MUL NOT AND SWAP1 DUP4 PUSH20 0xFFFFFFFFFFFFFFFFFFFFFFFFFFFFFFFFFFFFFFFF AND MUL OR SWAP1 SSTORE POP POP POP POP POP POP POP POP PUSH2 0x2EA JUMP JUMPDEST PUSH0 PUSH0 REVERT JUMPDEST PUSH0 PUSH20 0xFFFFFFFFFFFFFFFFFFFFFFFFFFFFFFFFFFFFFFFF DUP3 AND SWAP1 POP SWAP2 SWAP1 POP JUMP JUMPDEST PUSH0 PUSH2 0x189 DUP3 PUSH2 0x160 JUMP JUMPDEST SWAP1 POP SWAP2 SWAP1 POP JUMP JUMPDEST PUSH2 0x199 DUP2 PUSH2 0x17F JUMP JUMPDEST DUP2 EQ PUSH2 0x1A3 JUMPI PUSH0 PUSH0 REVERT JUMPDEST POP JUMP JUMPDEST PUSH0 DUP2 MLOAD SWAP1 POP PUSH2 0x1B4 DUP2 PUSH2 0x190 JUMP JUMPDEST SWAP3 SWAP2 POP POP JUMP JUMPDEST PUSH0 DUP2 SWAP1 POP SWAP2 SWAP1 POP JUMP JUMPDEST PUSH2 0x1CC DUP2 PUSH2 0x1BA JUMP JUMPDEST DUP2 EQ PUSH2 0x1D6 JUMPI PUSH0 PUSH0 REVERT JUMPDEST POP JUMP JUMPDEST PUSH0 DUP2 MLOAD SWAP1 POP PUSH2 0x1E7 DUP2 PUSH2 0x1C3 JUMP JUMPDEST SWAP3 SWAP2 POP POP JUMP JUMPDEST PUSH0 PUSH0 PUSH0 PUSH0 PUSH0 PUSH0 PUSH0 PUSH1 0xE0 DUP9 DUP11 SUB SLT ISZERO PUSH2 0x208 JUMPI PUSH2 0x207 PUSH2 0x15C JUMP JUMPDEST JUMPDEST PUSH0 PUSH2 0x215 DUP11 DUP3 DUP12 ADD PUSH2 0x1A6 JUMP JUMPDEST SWAP8 POP POP PUSH1 0x20 PUSH2 0x226 DUP11 DUP3 DUP12 ADD PUSH2 0x1A6 JUMP JUMPDEST SWAP7 POP POP PUSH1 0x40 PUSH2 0x237 DUP11 DUP3 DUP12 ADD PUSH2 0x1D9 JUMP JUMPDEST SWAP6 POP POP PUSH1 0x60 PUSH2 0x248 DUP11 DUP3 DUP12 ADD PUSH2 0x1A6 JUMP JUMPDEST SWAP5 POP POP PUSH1 0x80 PUSH2 0x259 DUP11 DUP3 DUP12 ADD PUSH2 0x1D9 JUMP JUMPDEST SWAP4 POP POP PUSH1 0xA0 PUSH2 0x26A DUP11 DUP3 DUP12 ADD PUSH2 0x1D9 JUMP JUMPDEST SWAP3 POP POP PUSH1 0xC0 PUSH2 0x27B DUP11 DUP3 DUP12 ADD PUSH2 0x1A6 JUMP JUMPDEST SWAP2 POP POP SWAP3 SWAP6 SWAP9 SWAP2 SWAP5 SWAP8 POP SWAP3 SWAP6 POP JUMP JUMPDEST PUSH32 0x4E487B7100000000000000000000000000000000000000000000000000000000 PUSH0 MSTORE PUSH1 0x11 PUSH1 0x4 MSTORE PUSH1 0x24 PUSH0 REVERT JUMPDEST PUSH0 PUSH2 0x2C1 DUP3 PUSH2 0x1BA JUMP JUMPDEST SWAP2 POP PUSH2 0x2CC DUP4 PUSH2 0x1BA JUMP JUMPDEST SWAP3 POP DUP3 DUP3 ADD SWAP1 POP DUP1 DUP3 GT ISZERO PUSH2 0x2E4 JUMPI PUSH2 0x2E3 PUSH2 0x28A JUMP JUMPDEST JUMPDEST SWAP3 SWAP2 POP POP JUMP JUMPDEST PUSH2 0x10D3 DUP1 PUSH2 0x2F7 PUSH0 CODECOPY PUSH0 RETURN INVALID PUSH1 0x80 PUSH1 0x40 MSTORE CALLVALUE DUP1 ISZERO PUSH2 0xF JUMPI PUSH0 PUSH0 REVERT JUMPDEST POP PUSH1 0x4 CALLDATASIZE LT PUSH2 0xF3 JUMPI PUSH0 CALLDATALOAD PUSH1 0xE0 SHR DUP1 PUSH4 0x9D76EA58 GT PUSH2 0x95 JUMPI DUP1 PUSH4 0xC45A0155 GT PUSH2 0x64 JUMPI DUP1 PUSH4 0xC45A0155 EQ PUSH2 0x22B JUMPI DUP1 PUSH4 0xD8BAC5ED EQ PUSH2 0x249 JUMPI DUP1 PUSH4 0xDD3B3110 EQ PUSH2 0x267 JUMPI DUP1 PUSH4 0xF98B8028 EQ PUSH2 0x285 JUMPI PUSH2 0xF3 JUMP JUMPDEST DUP1 PUSH4 0x9D76EA58 EQ PUSH2 0x1B3 JUMPI DUP1 PUSH4 0xA35A4AB3 EQ PUSH2 0x1D1 JUMPI DUP1 PUSH4 0xBA5D3078 EQ PUSH2 0x1EF JUMPI DUP1 PUSH4 0xBCEAD63E EQ PUSH2 0x20D JUMPI PUSH2 0xF3 JUMP JUMPDEST DUP1 PUSH4 0x5451073D GT PUSH2 0xD1 JUMPI DUP1 PUSH4 0x5451073D EQ PUSH2 0x14F JUMPI DUP1 PUSH4 0x7DF1F1B9 EQ PUSH2 0x16D JUMPI DUP1 PUSH4 0x8CFF3E4B EQ PUSH2 0x18B JUMPI DUP1 PUSH4 0x95C8CBC9 EQ PUSH2 0x195 JUMPI PUSH2 0xF3 JUMP JUMPDEST DUP1 PUSH4 0x371FD8E6 EQ PUSH2 0xF7 JUMPI DUP1 PUSH4 0x4E69D560 EQ PUSH2 0x113 JUMPI DUP1 PUSH4 0x53069DF6 EQ PUSH2 0x131 JUMPI JUMPDEST PUSH0 PUSH0 REVERT JUMPDEST PUSH2 0x111 PUSH1 0x4 DUP1 CALLDATASIZE SUB DUP2 ADD SWAP1 PUSH2 0x10C SWAP2 SWAP1 PUSH2 0xA37 JUMP JUMPDEST PUSH2 0x2A3 JUMP JUMPDEST STOP JUMPDEST PUSH2 0x11B PUSH2 0x522 JUMP JUMPDEST PUSH1 0x40 MLOAD PUSH2 0x128 SWAP2 SWAP1 PUSH2 0xAD5 JUMP JUMPDEST PUSH1 0x40 MLOAD DUP1 SWAP2 SUB SWAP1 RETURN JUMPDEST PUSH2 0x139 PUSH2 0x587 JUMP JUMPDEST PUSH1 0x40 MLOAD PUSH2 0x146 SWAP2 SWAP1 PUSH2 0xAFD JUMP JUMPDEST PUSH1 0x40 MLOAD DUP1 SWAP2 SUB SWAP1 RETURN JUMPDEST PUSH2 0x157 PUSH2 0x590 JUMP JUMPDEST PUSH1 0x40 MLOAD PUSH2 0x164 SWAP2 SWAP1 PUSH2 0xAFD JUMP JUMPDEST PUSH1 0x40 MLOAD DUP1 SWAP2 SUB SWAP1 RETURN JUMPDEST PUSH2 0x175 PUSH2 0x596 JUMP JUMPDEST PUSH1 0x40 MLOAD PUSH2 0x182 SWAP2 SWAP1 PUSH2 0xB55 JUMP JUMPDEST PUSH1 0x40 MLOAD DUP1 SWAP2 SUB SWAP1 RETURN JUMPDEST PUSH2 0x193 PUSH2 0x5BB JUMP JUMPDEST STOP JUMPDEST PUSH2 0x19D PUSH2 0x7B9 JUMP JUMPDEST PUSH1 0x40 MLOAD PUSH2 0x1AA SWAP2 SWAP1 PUSH2 0xAFD JUMP JUMPDEST PUSH1 0x40 MLOAD DUP1 SWAP2 SUB SWAP1 RETURN JUMPDEST PUSH2 0x1BB PUSH2 0x7E8 JUMP JUMPDEST PUSH1 0x40 MLOAD PUSH2 0x1C8 SWAP2 SWAP1 PUSH2 0xB55 JUMP JUMPDEST PUSH1 0x40 MLOAD DUP1 SWAP2 SUB SWAP1 RETURN JUMPDEST PUSH2 0x1D9 PUSH2 0x80D JUMP JUMPDEST PUSH1 0x40 MLOAD PUSH2 0x1E6 SWAP2 SWAP1 PUSH2 0xAFD JUMP JUMPDEST PUSH1 0x40 MLOAD DUP1 SWAP2 SUB SWAP1 RETURN JUMPDEST PUSH2 0x1F7 PUSH2 0x816 JUMP JUMPDEST PUSH1 0x40 MLOAD PUSH2 0x204 SWAP2 SWAP1 PUSH2 0xAFD JUMP JUMPDEST PUSH1 0x40 MLOAD DUP1 SWAP2 SUB SWAP1 RETURN JUMPDEST PUSH2 0x215 PUSH2 0x81C JUMP JUMPDEST PUSH1 0x40 MLOAD PUSH2 0x222 SWAP2 SWAP1 PUSH2 0xB55 JUMP JUMPDEST PUSH1 0x40 MLOAD DUP1 SWAP2 SUB SWAP1 RETURN JUMPDEST PUSH2 0x233 PUSH2 0x840 JUMP JUMPDEST PUSH1 0x40 MLOAD PUSH2 0x240 SWAP2 SWAP1 PUSH2 0xB55 JUMP JUMPDEST PUSH1 0x40 MLOAD DUP1 SWAP2 SUB SWAP1 RETURN JUMPDEST PUSH2 0x251 PUSH2 0x865 JUMP JUMPDEST PUSH1 0x40 MLOAD PUSH2 0x25E SWAP2 SWAP1 PUSH2 0xB88 JUMP JUMPDEST PUSH1 0x40 MLOAD DUP1 SWAP2 SUB SWAP1 RETURN JUMPDEST PUSH2 0x26F PUSH2 0x877 JUMP JUMPDEST PUSH1 0x40 MLOAD PUSH2 0x27C SWAP2 SWAP1 PUSH2 0xAFD JUMP JUMPDEST PUSH1 0x40 MLOAD DUP1 SWAP2 SUB SWAP1 RETURN JUMPDEST PUSH2 0x28D PUSH2 0x87D JUMP JUMPDEST PUSH1 0x40 MLOAD PUSH2 0x29A SWAP2 SWAP1 PUSH2 0xAFD JUMP JUMPDEST PUSH1 0x40 MLOAD DUP1 SWAP2 SUB SWAP1 RETURN JUMPDEST PUSH1 0x1 PUSH0 SWAP1 SLOAD SWAP1 PUSH2 0x100 EXP SWAP1 DIV PUSH20 0xFFFFFFFFFFFFFFFFFFFFFFFFFFFFFFFFFFFFFFFF AND PUSH20 0xFFFFFFFFFFFFFFFFFFFFFFFFFFFFFFFFFFFFFFFF AND CALLER PUSH20 0xFFFFFFFFFFFFFFFFFFFFFFFFFFFFFFFFFFFFFFFF AND EQ PUSH2 0x332 JUMPI PUSH1 0x40 MLOAD PUSH32 0x8C379A000000000000000000000000000000000000000000000000000000000 DUP2 MSTORE PUSH1 0x4 ADD PUSH2 0x329 SWAP1 PUSH2 0xBFB JUMP JUMPDEST PUSH1 0x40 MLOAD DUP1 SWAP2 SUB SWAP1 REVERT JUMPDEST PUSH0 PUSH1 0x5 PUSH0 SWAP1 SLOAD SWAP1 PUSH2 0x100 EXP SWAP1 DIV PUSH20 0xFFFFFFFFFFFFFFFFFFFFFFFFFFFFFFFFFFFFFFFF AND SWAP1 POP DUP1 PUSH20 0xFFFFFFFFFFFFFFFFFFFFFFFFFFFFFFFFFFFFFFFF AND PUSH4 0x23B872DD CALLER PUSH0 PUSH0 SWAP1 SLOAD SWAP1 PUSH2 0x100 EXP SWAP1 DIV PUSH20 0xFFFFFFFFFFFFFFFFFFFFFFFFFFFFFFFFFFFFFFFF AND DUP6 PUSH1 0x40 MLOAD DUP5 PUSH4 0xFFFFFFFF AND PUSH1 0xE0 SHL DUP2 MSTORE PUSH1 0x4 ADD PUSH2 0x3B4 SWAP4 SWAP3 SWAP2 SWAP1 PUSH2 0xC19 JUMP JUMPDEST PUSH1 0x20 PUSH1 0x40 MLOAD DUP1 DUP4 SUB DUP2 PUSH0 DUP8 GAS CALL ISZERO DUP1 ISZERO PUSH2 0x3D0 JUMPI RETURNDATASIZE PUSH0 PUSH0 RETURNDATACOPY RETURNDATASIZE PUSH0 REVERT JUMPDEST POP POP POP POP PUSH1 0x40 MLOAD RETURNDATASIZE PUSH1 0x1F NOT PUSH1 0x1F DUP3 ADD AND DUP3 ADD DUP1 PUSH1 0x40 MSTORE POP DUP2 ADD SWAP1 PUSH2 0x3F4 SWAP2 SWAP1 PUSH2 0xC78 JUMP JUMPDEST PUSH2 0x433 JUMPI PUSH1 0x40 MLOAD PUSH32 0x8C379A000000000000000000000000000000000000000000000000000000000 DUP2 MSTORE PUSH1 0x4 ADD PUSH2 0x42A SWAP1 PUSH2 0xCED JUMP JUMPDEST PUSH1 0x40 MLOAD DUP1 SWAP2 SUB SWAP1 REVERT JUMPDEST DUP2 PUSH1 0x7 PUSH0 DUP3 DUP3 SLOAD PUSH2 0x444 SWAP2 SWAP1 PUSH2 0xD38 JUMP JUMPDEST SWAP3 POP POP DUP2 SWAP1 SSTORE POP CALLER PUSH20 0xFFFFFFFFFFFFFFFFFFFFFFFFFFFFFFFFFFFFFFFF AND PUSH32 0x1B8CD61ED43BEC7C6BDAD3A18FFEE613F99C853D16C50678D248D879E1B43438 DUP4 PUSH1 0x7 SLOAD PUSH1 0x40 MLOAD PUSH2 0x495 SWAP3 SWAP2 SWAP1 PUSH2 0xD6B JUMP JUMPDEST PUSH1 0x40 MLOAD DUP1 SWAP2 SUB SWAP1 LOG2 PUSH1 0x1 PUSH1 0x2 DUP2 GT ISZERO PUSH2 0x4B1 JUMPI PUSH2 0x4B0 PUSH2 0xA62 JUMP JUMPDEST JUMPDEST PUSH2 0x4B9 PUSH2 0x522 JUMP JUMPDEST PUSH1 0x2 DUP2 GT ISZERO PUSH2 0x4CB JUMPI PUSH2 0x4CA PUSH2 0xA62 JUMP JUMPDEST JUMPDEST SUB PUSH2 0x51E JUMPI ADDRESS PUSH20 0xFFFFFFFFFFFFFFFFFFFFFFFFFFFFFFFFFFFFFFFF AND PUSH32 0x927542D877F6EF1FB1779CB252A65AAA543F48E6D9ABC25433C57E19CECCF61D PUSH1 0x40 MLOAD PUSH1 0x40 MLOAD DUP1 SWAP2 SUB SWAP1 LOG2 PUSH2 0x51D PUSH1 0x1 PUSH2 0x883 JUMP JUMPDEST JUMPDEST POP POP JUMP JUMPDEST PUSH0 PUSH1 0x8 PUSH0 SWAP1 SLOAD SWAP1 PUSH2 0x100 EXP SWAP1 DIV PUSH1 0xFF AND ISZERO PUSH2 0x540 JUMPI PUSH1 0x2 SWAP1 POP PUSH2 0x584 JUMP JUMPDEST PUSH0 PUSH1 0x64 PUSH1 0x3 SLOAD PUSH1 0x2 SLOAD PUSH2 0x553 SWAP2 SWAP1 PUSH2 0xD92 JUMP JUMPDEST PUSH2 0x55D SWAP2 SWAP1 PUSH2 0xE00 JUMP JUMPDEST PUSH1 0x2 SLOAD PUSH2 0x56A SWAP2 SWAP1 PUSH2 0xD38 JUMP JUMPDEST SWAP1 POP DUP1 PUSH1 0x7 SLOAD LT PUSH2 0x57F JUMPI PUSH1 0x1 SWAP2 POP POP PUSH2 0x584 JUMP JUMPDEST PUSH0 SWAP2 POP POP JUMPDEST SWAP1 JUMP JUMPDEST PUSH0 PUSH1 0x7 SLOAD SWAP1 POP SWAP1 JUMP JUMPDEST PUSH1 0x4 SLOAD DUP2 JUMP JUMPDEST PUSH1 0x1 PUSH0 SWAP1 SLOAD SWAP1 PUSH2 0x100 EXP SWAP1 DIV PUSH20 0xFFFFFFFFFFFFFFFFFFFFFFFFFFFFFFFFFFFFFFFF AND DUP2 JUMP JUMPDEST PUSH0 PUSH0 SWAP1 SLOAD SWAP1 PUSH2 0x100 EXP SWAP1 DIV PUSH20 0xFFFFFFFFFFFFFFFFFFFFFFFFFFFFFFFFFFFFFFFF AND PUSH20 0xFFFFFFFFFFFFFFFFFFFFFFFFFFFFFFFFFFFFFFFF AND CALLER PUSH20 0xFFFFFFFFFFFFFFFFFFFFFFFFFFFFFFFFFFFFFFFF AND EQ PUSH2 0x649 JUMPI PUSH1 0x40 MLOAD PUSH32 0x8C379A000000000000000000000000000000000000000000000000000000000 DUP2 MSTORE PUSH1 0x4 ADD PUSH2 0x640 SWAP1 PUSH2 0xE7A JUMP JUMPDEST PUSH1 0x40 MLOAD DUP1 SWAP2 SUB SWAP1 REVERT JUMPDEST PUSH0 PUSH1 0x2 DUP2 GT ISZERO PUSH2 0x65C JUMPI PUSH2 0x65B PUSH2 0xA62 JUMP JUMPDEST JUMPDEST PUSH2 0x664 PUSH2 0x522 JUMP JUMPDEST PUSH1 0x2 DUP2 GT ISZERO PUSH2 0x676 JUMPI PUSH2 0x675 PUSH2 0xA62 JUMP JUMPDEST JUMPDEST EQ PUSH2 0x6B6 JUMPI PUSH1 0x40 MLOAD PUSH32 0x8C379A000000000000000000000000000000000000000000000000000000000 DUP2 MSTORE PUSH1 0x4 ADD PUSH2 0x6AD SWAP1 PUSH2 0xF08 JUMP JUMPDEST PUSH1 0x40 MLOAD DUP1 SWAP2 SUB SWAP1 REVERT JUMPDEST PUSH1 0x4 SLOAD TIMESTAMP GT PUSH2 0x6FA JUMPI PUSH1 0x40 MLOAD PUSH32 0x8C379A000000000000000000000000000000000000000000000000000000000 DUP2 MSTORE PUSH1 0x4 ADD PUSH2 0x6F1 SWAP1 PUSH2 0xF70 JUMP JUMPDEST PUSH1 0x40 MLOAD DUP1 SWAP2 SUB SWAP1 REVERT JUMPDEST PUSH1 0x1 PUSH1 0x8 PUSH0 PUSH2 0x100 EXP DUP2 SLOAD DUP2 PUSH1 0xFF MUL NOT AND SWAP1 DUP4 ISZERO ISZERO MUL OR SWAP1 SSTORE POP PUSH0 PUSH0 SWAP1 SLOAD SWAP1 PUSH2 0x100 EXP SWAP1 DIV PUSH20 0xFFFFFFFFFFFFFFFFFFFFFFFFFFFFFFFFFFFFFFFF AND PUSH20 0xFFFFFFFFFFFFFFFFFFFFFFFFFFFFFFFFFFFFFFFF AND ADDRESS PUSH20 0xFFFFFFFFFFFFFFFFFFFFFFFFFFFFFFFFFFFFFFFF AND PUSH32 0xA6E9ACF469D627E8F02EEC880995BB6F37ECADEA71C528F0E35081BD77E91897 PUSH1 0x40 MLOAD PUSH1 0x40 MLOAD DUP1 SWAP2 SUB SWAP1 LOG3 PUSH2 0x7B7 PUSH32 0xFFFFFFFFFFFFFFFFFFFFFFFFFFFFFFFFFFFFFFFFFFFFFFFFFFFFFFFFFFFFFFFE PUSH2 0x883 JUMP JUMPDEST JUMP JUMPDEST PUSH0 PUSH1 0x64 PUSH1 0x3 SLOAD PUSH1 0x2 SLOAD PUSH2 0x7CC SWAP2 SWAP1 PUSH2 0xD92 JUMP JUMPDEST PUSH2 0x7D6 SWAP2 SWAP1 PUSH2 0xE00 JUMP JUMPDEST PUSH1 0x2 SLOAD PUSH2 0x7E3 SWAP2 SWAP1 PUSH2 0xD38 JUMP JUMPDEST SWAP1 POP SWAP1 JUMP JUMPDEST PUSH1 0x5 PUSH0 SWAP1 SLOAD SWAP1 PUSH2 0x100 EXP SWAP1 DIV PUSH20 0xFFFFFFFFFFFFFFFFFFFFFFFFFFFFFFFFFFFFFFFF AND DUP2 JUMP JUMPDEST PUSH0 PUSH1 0x4 SLOAD SWAP1 POP SWAP1 JUMP JUMPDEST PUSH1 0x2 SLOAD DUP2 JUMP JUMPDEST PUSH0 PUSH0 SWAP1 SLOAD SWAP1 PUSH2 0x100 EXP SWAP1 DIV PUSH20 0xFFFFFFFFFFFFFFFFFFFFFFFFFFFFFFFFFFFFFFFF AND DUP2 JUMP JUMPDEST PUSH1 0x6 PUSH0 SWAP1 SLOAD SWAP1 PUSH2 0x100 EXP SWAP1 DIV PUSH20 0xFFFFFFFFFFFFFFFFFFFFFFFFFFFFFFFFFFFFFFFF AND DUP2 JUMP JUMPDEST PUSH1 0x8 PUSH0 SWAP1 SLOAD SWAP1 PUSH2 0x100 EXP SWAP1 DIV PUSH1 0xFF AND DUP2 JUMP JUMPDEST PUSH1 0x3 SLOAD DUP2 JUMP JUMPDEST PUSH1 0x7 SLOAD DUP2 JUMP JUMPDEST PUSH0 PUSH1 0x6 PUSH0 SWAP1 SLOAD SWAP1 PUSH2 0x100 EXP SWAP1 DIV PUSH20 0xFFFFFFFFFFFFFFFFFFFFFFFFFFFFFFFFFFFFFFFF AND PUSH20 0xFFFFFFFFFFFFFFFFFFFFFFFFFFFFFFFFFFFFFFFF AND PUSH1 0x1 PUSH0 SWAP1 SLOAD SWAP1 PUSH2 0x100 EXP SWAP1 DIV PUSH20 0xFFFFFFFFFFFFFFFFFFFFFFFFFFFFFFFFFFFFFFFF AND DUP4 PUSH1 0x40 MLOAD PUSH1 0x24 ADD PUSH2 0x8F0 SWAP3 SWAP2 SWAP1 PUSH2 0xFA6 JUMP JUMPDEST PUSH1 0x40 MLOAD PUSH1 0x20 DUP2 DUP4 SUB SUB DUP2 MSTORE SWAP1 PUSH1 0x40 MSTORE PUSH32 0xE766784D00000000000000000000000000000000000000000000000000000000 PUSH28 0xFFFFFFFFFFFFFFFFFFFFFFFFFFFFFFFFFFFFFFFFFFFFFFFFFFFFFFFF NOT AND PUSH1 0x20 DUP3 ADD DUP1 MLOAD PUSH28 0xFFFFFFFFFFFFFFFFFFFFFFFFFFFFFFFFFFFFFFFFFFFFFFFFFFFFFFFF DUP4 DUP2 DUP4 AND OR DUP4 MSTORE POP POP POP POP PUSH1 0x40 MLOAD PUSH2 0x97A SWAP2 SWAP1 PUSH2 0x101F JUMP JUMPDEST PUSH0 PUSH1 0x40 MLOAD DUP1 DUP4 SUB DUP2 PUSH0 DUP7 GAS CALL SWAP2 POP POP RETURNDATASIZE DUP1 PUSH0 DUP2 EQ PUSH2 0x9B3 JUMPI PUSH1 0x40 MLOAD SWAP2 POP PUSH1 0x1F NOT PUSH1 0x3F RETURNDATASIZE ADD AND DUP3 ADD PUSH1 0x40 MSTORE RETURNDATASIZE DUP3 MSTORE RETURNDATASIZE PUSH0 PUSH1 0x20 DUP5 ADD RETURNDATACOPY PUSH2 0x9B8 JUMP JUMPDEST PUSH1 0x60 SWAP2 POP JUMPDEST POP POP SWAP1 POP DUP1 PUSH2 0x9FC JUMPI PUSH1 0x40 MLOAD PUSH32 0x8C379A000000000000000000000000000000000000000000000000000000000 DUP2 MSTORE PUSH1 0x4 ADD PUSH2 0x9F3 SWAP1 PUSH2 0x107F JUMP JUMPDEST PUSH1 0x40 MLOAD DUP1 SWAP2 SUB SWAP1 REVERT JUMPDEST POP POP JUMP JUMPDEST PUSH0 PUSH0 REVERT JUMPDEST PUSH0 DUP2 SWAP1 POP SWAP2 SWAP1 POP JUMP JUMPDEST PUSH2 0xA16 DUP2 PUSH2 0xA04 JUMP JUMPDEST DUP2 EQ PUSH2 0xA20 JUMPI PUSH0 PUSH0 REVERT JUMPDEST POP JUMP JUMPDEST PUSH0 DUP2 CALLDATALOAD SWAP1 POP PUSH2 0xA31 DUP2 PUSH2 0xA0D JUMP JUMPDEST SWAP3 SWAP2 POP POP JUMP JUMPDEST PUSH0 PUSH1 0x20 DUP3 DUP5 SUB SLT ISZERO PUSH2 0xA4C JUMPI PUSH2 0xA4B PUSH2 0xA00 JUMP JUMPDEST JUMPDEST PUSH0 PUSH2 0xA59 DUP5 DUP3 DUP6 ADD PUSH2 0xA23 JUMP JUMPDEST SWAP2 POP POP SWAP3 SWAP2 POP POP JUMP JUMPDEST PUSH32 0x4E487B7100000000000000000000000000000000000000000000000000000000 PUSH0 MSTORE PUSH1 0x21 PUSH1 0x4 MSTORE PUSH1 0x24 PUSH0 REVERT JUMPDEST PUSH1 0x3 DUP2 LT PUSH2 0xAA0 JUMPI PUSH2 0xA9F PUSH2 0xA62 JUMP JUMPDEST JUMPDEST POP JUMP JUMPDEST PUSH0 DUP2 SWAP1 POP PUSH2 0xAB0 DUP3 PUSH2 0xA8F JUMP JUMPDEST SWAP2 SWAP1 POP JUMP JUMPDEST PUSH0 PUSH2 0xABF DUP3 PUSH2 0xAA3 JUMP JUMPDEST SWAP1 POP SWAP2 SWAP1 POP JUMP JUMPDEST PUSH2 0xACF DUP2 PUSH2 0xAB5 JUMP JUMPDEST DUP3 MSTORE POP POP JUMP JUMPDEST PUSH0 PUSH1 0x20 DUP3 ADD SWAP1 POP PUSH2 0xAE8 PUSH0 DUP4 ADD DUP5 PUSH2 0xAC6 JUMP JUMPDEST SWAP3 SWAP2 POP POP JUMP JUMPDEST PUSH2 0xAF7 DUP2 PUSH2 0xA04 JUMP JUMPDEST DUP3 MSTORE POP POP JUMP JUMPDEST PUSH0 PUSH1 0x20 DUP3 ADD SWAP1 POP PUSH2 0xB10 PUSH0 DUP4 ADD DUP5 PUSH2 0xAEE JUMP JUMPDEST SWAP3 SWAP2 POP POP JUMP JUMPDEST PUSH0 PUSH20 0xFFFFFFFFFFFFFFFFFFFFFFFFFFFFFFFFFFFFFFFF DUP3 AND SWAP1 POP SWAP2 SWAP1 POP JUMP JUMPDEST PUSH0 PUSH2 0xB3F DUP3 PUSH2 0xB16 JUMP JUMPDEST SWAP1 POP SWAP2 SWAP1 POP JUMP JUMPDEST PUSH2 0xB4F DUP2 PUSH2 0xB35 JUMP JUMPDEST DUP3 MSTORE POP POP JUMP JUMPDEST PUSH0 PUSH1 0x20 DUP3 ADD SWAP1 POP PUSH2 0xB68 PUSH0 DUP4 ADD DUP5 PUSH2 0xB46 JUMP JUMPDEST SWAP3 SWAP2 POP POP JUMP JUMPDEST PUSH0 DUP2 ISZERO ISZERO SWAP1 POP SWAP2 SWAP1 POP JUMP JUMPDEST PUSH2 0xB82 DUP2 PUSH2 0xB6E JUMP JUMPDEST DUP3 MSTORE POP POP JUMP JUMPDEST PUSH0 PUSH1 0x20 DUP3 ADD SWAP1 POP PUSH2 0xB9B PUSH0 DUP4 ADD DUP5 PUSH2 0xB79 JUMP JUMPDEST SWAP3 SWAP2 POP POP JUMP JUMPDEST PUSH0 DUP3 DUP3 MSTORE PUSH1 0x20 DUP3 ADD SWAP1 POP SWAP3 SWAP2 POP POP JUMP JUMPDEST PUSH32 0x4F6E6C7920626F72726F7765722063616E207265706179000000000000000000 PUSH0 DUP3 ADD MSTORE POP JUMP JUMPDEST PUSH0 PUSH2 0xBE5 PUSH1 0x17 DUP4 PUSH2 0xBA1 JUMP JUMPDEST SWAP2 POP PUSH2 0xBF0 DUP3 PUSH2 0xBB1 JUMP JUMPDEST PUSH1 0x20 DUP3 ADD SWAP1 POP SWAP2 SWAP1 POP JUMP JUMPDEST PUSH0 PUSH1 0x20 DUP3 ADD SWAP1 POP DUP2 DUP2 SUB PUSH0 DUP4 ADD MSTORE PUSH2 0xC12 DUP2 PUSH2 0xBD9 JUMP JUMPDEST SWAP1 POP SWAP2 SWAP1 POP JUMP JUMPDEST PUSH0 PUSH1 0x60 DUP3 ADD SWAP1 POP PUSH2 0xC2C PUSH0 DUP4 ADD DUP7 PUSH2 0xB46 JUMP JUMPDEST PUSH2 0xC39 PUSH1 0x20 DUP4 ADD DUP6 PUSH2 0xB46 JUMP JUMPDEST PUSH2 0xC46 PUSH1 0x40 DUP4 ADD DUP5 PUSH2 0xAEE JUMP JUMPDEST SWAP5 SWAP4 POP POP POP POP JUMP JUMPDEST PUSH2 0xC57 DUP2 PUSH2 0xB6E JUMP JUMPDEST DUP2 EQ PUSH2 0xC61 JUMPI PUSH0 PUSH0 REVERT JUMPDEST POP JUMP JUMPDEST PUSH0 DUP2 MLOAD SWAP1 POP PUSH2 0xC72 DUP2 PUSH2 0xC4E JUMP JUMPDEST SWAP3 SWAP2 POP POP JUMP JUMPDEST PUSH0 PUSH1 0x20 DUP3 DUP5 SUB SLT ISZERO PUSH2 0xC8D JUMPI PUSH2 0xC8C PUSH2 0xA00 JUMP JUMPDEST JUMPDEST PUSH0 PUSH2 0xC9A DUP5 DUP3 DUP6 ADD PUSH2 0xC64 JUMP JUMPDEST SWAP2 POP POP SWAP3 SWAP2 POP POP JUMP JUMPDEST PUSH32 0x546F6B656E207472616E73666572206661696C65640000000000000000000000 PUSH0 DUP3 ADD MSTORE POP JUMP JUMPDEST PUSH0 PUSH2 0xCD7 PUSH1 0x15 DUP4 PUSH2 0xBA1 JUMP JUMPDEST SWAP2 POP PUSH2 0xCE2 DUP3 PUSH2 0xCA3 JUMP JUMPDEST PUSH1 0x20 DUP3 ADD SWAP1 POP SWAP2 SWAP1 POP JUMP JUMPDEST PUSH0 PUSH1 0x20 DUP3 ADD SWAP1 POP DUP2 DUP2 SUB PUSH0 DUP4 ADD MSTORE PUSH2 0xD04 DUP2 PUSH2 0xCCB JUMP JUMPDEST SWAP1 POP SWAP2 SWAP1 POP JUMP JUMPDEST PUSH32 0x4E487B7100000000000000000000000000000000000000000000000000000000 PUSH0 MSTORE PUSH1 0x11 PUSH1 0x4 MSTORE PUSH1 0x24 PUSH0 REVERT JUMPDEST PUSH0 PUSH2 0xD42 DUP3 PUSH2 0xA04 JUMP JUMPDEST SWAP2 POP PUSH2 0xD4D DUP4 PUSH2 0xA04 JUMP JUMPDEST SWAP3 POP DUP3 DUP3 ADD SWAP1 POP DUP1 DUP3 GT ISZERO PUSH2 0xD65 JUMPI PUSH2 0xD64 PUSH2 0xD0B JUMP JUMPDEST JUMPDEST SWAP3 SWAP2 POP POP JUMP JUMPDEST PUSH0 PUSH1 0x40 DUP3 ADD SWAP1 POP PUSH2 0xD7E PUSH0 DUP4 ADD DUP6 PUSH2 0xAEE JUMP JUMPDEST PUSH2 0xD8B PUSH1 0x20 DUP4 ADD DUP5 PUSH2 0xAEE JUMP JUMPDEST SWAP4 SWAP3 POP POP POP JUMP JUMPDEST PUSH0 PUSH2 0xD9C DUP3 PUSH2 0xA04 JUMP JUMPDEST SWAP2 POP PUSH2 0xDA7 DUP4 PUSH2 0xA04 JUMP JUMPDEST SWAP3 POP DUP3 DUP3 MUL PUSH2 0xDB5 DUP2 PUSH2 0xA04 JUMP JUMPDEST SWAP2 POP DUP3 DUP3 DIV DUP5 EQ DUP4 ISZERO OR PUSH2 0xDCC JUMPI PUSH2 0xDCB PUSH2 0xD0B JUMP JUMPDEST JUMPDEST POP SWAP3 SWAP2 POP POP JUMP JUMPDEST PUSH32 0x4E487B7100000000000000000000000000000000000000000000000000000000 PUSH0 MSTORE PUSH1 0x12 PUSH1 0x4 MSTORE PUSH1 0x24 PUSH0 REVERT JUMPDEST PUSH0 PUSH2 0xE0A DUP3 PUSH2 0xA04 JUMP JUMPDEST SWAP2 POP PUSH2 0xE15 DUP4 PUSH2 0xA04 JUMP JUMPDEST SWAP3 POP DUP3 PUSH2 0xE25 JUMPI PUSH2 0xE24 PUSH2 0xDD3 JUMP JUMPDEST JUMPDEST DUP3 DUP3 DIV SWAP1 POP SWAP3 SWAP2 POP POP JUMP JUMPDEST PUSH32 0x4F6E6C79206C656E6465722063616E206D61726B2064656661756C7400000000 PUSH0 DUP3 ADD MSTORE POP JUMP JUMPDEST PUSH0 PUSH2 0xE64 PUSH1 0x1C DUP4 PUSH2 0xBA1 JUMP JUMPDEST SWAP2 POP PUSH2 0xE6F DUP3 PUSH2 0xE30 JUMP JUMPDEST PUSH1 0x20 DUP3 ADD SWAP1 POP SWAP2 SWAP1 POP JUMP JUMPDEST PUSH0 PUSH1 0x20 DUP3 ADD SWAP1 POP DUP2 DUP2 SUB PUSH0 DUP4 ADD MSTORE PUSH2 0xE91 DUP2 PUSH2 0xE58 JUMP JUMPDEST SWAP1 POP SWAP2 SWAP1 POP JUMP JUMPDEST PUSH32 0x4C6F616E206E6F7420616374697665206F7220616C72656164792068616E646C PUSH0 DUP3 ADD MSTORE PUSH32 0x6564000000000000000000000000000000000000000000000000000000000000 PUSH1 0x20 DUP3 ADD MSTORE POP JUMP JUMPDEST PUSH0 PUSH2 0xEF2 PUSH1 0x22 DUP4 PUSH2 0xBA1 JUMP JUMPDEST SWAP2 POP PUSH2 0xEFD DUP3 PUSH2 0xE98 JUMP JUMPDEST PUSH1 0x40 DUP3 ADD SWAP1 POP SWAP2 SWAP1 POP JUMP JUMPDEST PUSH0 PUSH1 0x20 DUP3 ADD SWAP1 POP DUP2 DUP2 SUB PUSH0 DUP4 ADD MSTORE PUSH2 0xF1F DUP2 PUSH2 0xEE6 JUMP JUMPDEST SWAP1 POP SWAP2 SWAP1 POP JUMP JUMPDEST PUSH32 0x4C6F616E206973206E6F74206F76657264756520796574000000000000000000 PUSH0 DUP3 ADD MSTORE POP JUMP JUMPDEST PUSH0 PUSH2 0xF5A PUSH1 0x17 DUP4 PUSH2 0xBA1 JUMP JUMPDEST SWAP2 POP PUSH2 0xF65 DUP3 PUSH2 0xF26 JUMP JUMPDEST PUSH1 0x20 DUP3 ADD SWAP1 POP SWAP2 SWAP1 POP JUMP JUMPDEST PUSH0 PUSH1 0x20 DUP3 ADD SWAP1 POP DUP2 DUP2 SUB PUSH0 DUP4 ADD MSTORE PUSH2 0xF87 DUP2 PUSH2 0xF4E JUMP JUMPDEST SWAP1 POP SWAP2 SWAP1 POP JUMP JUMPDEST PUSH0 DUP2 SWAP1 POP SWAP2 SWAP1 POP JUMP JUMPDEST PUSH2 0xFA0 DUP2 PUSH2 0xF8E JUMP JUMPDEST DUP3 MSTORE POP POP JUMP JUMPDEST PUSH0 PUSH1 0x40 DUP3 ADD SWAP1 POP PUSH2 0xFB9 PUSH0 DUP4 ADD DUP6 PUSH2 0xB46 JUMP JUMPDEST PUSH2 0xFC6 PUSH1 0x20 DUP4 ADD DUP5 PUSH2 0xF97 JUMP JUMPDEST SWAP4 SWAP3 POP POP POP JUMP JUMPDEST PUSH0 DUP2 MLOAD SWAP1 POP SWAP2 SWAP1 POP JUMP JUMPDEST PUSH0 DUP2 SWAP1 POP SWAP3 SWAP2 POP POP JUMP JUMPDEST DUP3 DUP2 DUP4 MCOPY PUSH0 DUP4 DUP4 ADD MSTORE POP POP POP JUMP JUMPDEST PUSH0 PUSH2 0xFF9 DUP3 PUSH2 0xFCD JUMP JUMPDEST PUSH2 0x1003 DUP2 DUP6 PUSH2 0xFD7 JUMP JUMPDEST SWAP4 POP PUSH2 0x1013 DUP2 DUP6 PUSH1 0x20 DUP7 ADD PUSH2 0xFE1 JUMP JUMPDEST DUP1 DUP5 ADD SWAP2 POP POP SWAP3 SWAP2 POP POP JUMP JUMPDEST PUSH0 PUSH2 0x102A DUP3 DUP5 PUSH2 0xFEF JUMP JUMPDEST SWAP2 POP DUP2 SWAP1 POP SWAP3 SWAP2 POP POP JUMP JUMPDEST PUSH32 0x54727573742073636F726520757064617465206661696C656400000000000000 PUSH0 DUP3 ADD MSTORE POP JUMP JUMPDEST PUSH0 PUSH2 0x1069 PUSH1 0x19 DUP4 PUSH2 0xBA1 JUMP JUMPDEST SWAP2 POP PUSH2 0x1074 DUP3 PUSH2 0x1035 JUMP JUMPDEST PUSH1 0x20 DUP3 ADD SWAP1 POP SWAP2 SWAP1 POP JUMP JUMPDEST PUSH0 PUSH1 0x20 DUP3 ADD SWAP1 POP DUP2 DUP2 SUB PUSH0 DUP4 ADD MSTORE PUSH2 0x1096 DUP2 PUSH2 0x105D JUMP JUMPDEST SWAP1 POP SWAP2 SWAP1 POP JUMP INVALID LOG2 PUSH5 0x6970667358 0x22 SLT KECCAK256 SDIV SWAP16 0xEB ORIGIN SWAP11 TSTORE PUSH17 0xA0F3D12F465F38E57A1469EE70DBD1E849 BYTE AND 0xDF PREVRANDAO DUP9 EXTCALL TIMESTAMP 0xD2 PUSH5 0x736F6C6343 STOP ADDMOD 0x1E STOP CALLER "
				},
				"gasEstimates": {
					"creation": {
						"codeDepositCost": "861400",
						"executionCost": "infinite",
						"totalCost": "infinite"
					},
					"external": {
						"borrower()": "2553",
						"dueTimestamp()": "2448",
						"factory()": "2530",
						"getDueTimestamp()": "2477",
						"getRepaidAmount()": "2500",
						"getStatus()": "infinite",
						"getTotalOwed()": "infinite",
						"interestPercent()": "2491",
						"lender()": "2596",
						"markDefault()": "infinite",
						"markedDefault()": "2510",
						"principal()": "2492",
						"repaidAmount()": "2513",
						"repay(uint256)": "infinite",
						"tokenAddress()": "2531"
					},
					"internal": {
						"_updateTrustScore(int256)": "infinite"
					}
				},
				"methodIdentifiers": {
					"borrower()": "7df1f1b9",
					"dueTimestamp()": "5451073d",
					"factory()": "c45a0155",
					"getDueTimestamp()": "a35a4ab3",
					"getRepaidAmount()": "53069df6",
					"getStatus()": "4e69d560",
					"getTotalOwed()": "95c8cbc9",
					"interestPercent()": "dd3b3110",
					"lender()": "bcead63e",
					"markDefault()": "8cff3e4b",
					"markedDefault()": "d8bac5ed",
					"principal()": "ba5d3078",
					"repaidAmount()": "f98b8028",
					"repay(uint256)": "371fd8e6",
					"tokenAddress()": "9d76ea58"
				}
			},
			"storageLayout": {
				"storage": [
					{
						"astId": 87,
						"contract": "project2/contracts/LoanAgreement.sol:LoanAgreement",
						"label": "lender",
						"offset": 0,
						"slot": "0",
						"type": "t_address"
					},
					{
						"astId": 89,
						"contract": "project2/contracts/LoanAgreement.sol:LoanAgreement",
						"label": "borrower",
						"offset": 0,
						"slot": "1",
						"type": "t_address"
					},
					{
						"astId": 91,
						"contract": "project2/contracts/LoanAgreement.sol:LoanAgreement",
						"label": "principal",
						"offset": 0,
						"slot": "2",
						"type": "t_uint256"
					},
					{
						"astId": 93,
						"contract": "project2/contracts/LoanAgreement.sol:LoanAgreement",
						"label": "interestPercent",
						"offset": 0,
						"slot": "3",
						"type": "t_uint256"
					},
					{
						"astId": 95,
						"contract": "project2/contracts/LoanAgreement.sol:LoanAgreement",
						"label": "dueTimestamp",
						"offset": 0,
						"slot": "4",
						"type": "t_uint256"
					},
					{
						"astId": 97,
						"contract": "project2/contracts/LoanAgreement.sol:LoanAgreement",
						"label": "tokenAddress",
						"offset": 0,
						"slot": "5",
						"type": "t_address"
					},
					{
						"astId": 99,
						"contract": "project2/contracts/LoanAgreement.sol:LoanAgreement",
						"label": "factory",
						"offset": 0,
						"slot": "6",
						"type": "t_address"
					},
					{
						"astId": 101,
						"contract": "project2/contracts/LoanAgreement.sol:LoanAgreement",
						"label": "repaidAmount",
						"offset": 0,
						"slot": "7",
						"type": "t_uint256"
					},
					{
						"astId": 103,
						"contract": "project2/contracts/LoanAgreement.sol:LoanAgreement",
						"label": "markedDefault",
						"offset": 0,
						"slot": "8",
						"type": "t_bool"
					}
				],
				"types": {
					"t_address": {
						"encoding": "inplace",
						"label": "address",
						"numberOfBytes": "20"
					},
					"t_bool": {
						"encoding": "inplace",
						"label": "bool",
						"numberOfBytes": "1"
					},
					"t_uint256": {
						"encoding": "inplace",
						"label": "uint256",
						"numberOfBytes": "32"
					}
				}
			},
			"userdoc": {
				"kind": "user",
				"methods": {
					"constructor": {
						"notice": "constructor for loan agreement"
					},
					"getStatus()": {
						"notice": "Get loan status"
					},
					"markDefault()": {
						"notice": "Mark a loan as defaulted (by lender) after due date"
					},
					"repay(uint256)": {
						"notice": "Called by borrower to repay part or full amount"
					}
				},
				"version": 1
			}
		}
	}
}