{
	"data": {
		"bytecode": {
			"linkReferences": {
				"remix_accounts.sol": {
					"TestsAccounts": [
						{
							"length": 20,
							"start": 6712
						},
						{
							"length": 20,
							"start": 6875
						},
						{
							"length": 20,
							"start": 7038
						},
						{
							"length": 20,
							"start": 7201
						},
						{
							"length": 20,
							"start": 7363
						}
					]
				},
				"remix_tests.sol": {
					"Assert": [
						{
							"length": 20,
							"start": 1524
						},
						{
							"length": 20,
							"start": 1885
						},
						{
							"length": 20,
							"start": 2125
						},
						{
							"length": 20,
							"start": 2271
						},
						{
							"length": 20,
							"start": 2387
						},
						{
							"length": 20,
							"start": 3046
						},
						{
							"length": 20,
							"start": 3281
						},
						{
							"length": 20,
							"start": 3705
						},
						{
							"length": 20,
							"start": 3760
						},
						{
							"length": 20,
							"start": 3972
						},
						{
							"length": 20,
							"start": 5030
						},
						{
							"length": 20,
							"start": 5181
						},
						{
							"length": 20,
							"start": 5406
						},
						{
							"length": 20,
							"start": 5610
						},
						{
							"length": 20,
							"start": 5732
						},
						{
							"length": 20,
							"start": 6092
						},
						{
							"length": 20,
							"start": 6403
						},
						{
							"length": 20,
							"start": 6650
						},
						{
							"length": 20,
							"start": 7511
						},
						{
							"length": 20,
							"start": 7690
						},
						{
							"length": 20,
							"start": 7928
						},
						{
							"length": 20,
							"start": 8170
						},
						{
							"length": 20,
							"start": 8408
						},
						{
							"length": 20,
							"start": 8626
						},
						{
							"length": 20,
							"start": 8949
						},
						{
							"length": 20,
							"start": 8998
						},
						{
							"length": 20,
							"start": 9056
						},
						{
							"length": 20,
							"start": 9261
						},
						{
							"length": 20,
							"start": 9544
						},
						{
							"length": 20,
							"start": 9817
						},
						{
							"length": 20,
							"start": 10113
						}
					]
				}
			},
			"object": "600060028190556003819055600481905560a0604081905260808290526200002b91600691906200006a565b506009805461ffff19166001179055600b805460ff191690553480156200005157600080fd5b50600580546001600160a01b031916331790556200014d565b828054620000789062000110565b90600052602060002090601f0160209004810192826200009c5760008555620000e7565b82601f10620000b757805160ff1916838001178555620000e7565b82800160010185558215620000e7579182015b82811115620000e7578251825591602001919060010190620000ca565b50620000f5929150620000f9565b5090565b5b80821115620000f55760008155600101620000fa565b600181811c908216806200012557607f821691505b602082108114156200014757634e487b7160e01b600052602260045260246000fd5b50919050565b613336806200015d6000396000f3fe608060405234801561001057600080fd5b50600436106102485760003560e01c8063788d38511161013b578063a9a4070c116100b8578063c1c16efc1161007c578063c1c16efc1461046d578063c3403ddf14610475578063cb43284e1461047d578063e5fbfef414610485578063fc0e74d11461048d57600080fd5b8063a9a4070c14610427578063ad5461d81461042f578063b798867f1461044f578063bbb97ded14610458578063bf86d6901461046057600080fd5b8063947aea86116100ff578063947aea8614610406578063a24a4e88146102ea578063a3bef4d71461040e578063a5627cf014610417578063a82672451461041f57600080fd5b8063788d3851146103d95780637a23732e146103e65780637fea0d4b146103ee5780638322f501146103f6578063848b4427146103fe57600080fd5b806347098f36116101c95780635df813301161018d5780635df8133014610364578063632a9a52146102ea5780636d77bd3e146103b65780637575cdc1146103c957806377440e06146103d157600080fd5b806347098f3614610318578063481c6a75146103215780634a22fc0b1461034c578063512a6fbb1461035457806359c5a8d01461035c57600080fd5b80631bca28ee116102105780631bca28ee146102c15780631ddabf7a146102c95780632955fea3146102ea5780633b9f708d146102f25780633d2f5bda1461030557600080fd5b806302df553a1461024d578063055ad42e14610257578063083c63231461027f578063124258c61461029657806312a4591a146102b9575b600080fd5b610255610495565b005b60095461026990610100900460ff1681565b6040516102769190612bc7565b60405180910390f35b610288600a5481565b604051908152602001610276565b6102a96102a4366004612a87565b610818565b6040519015158152602001610276565b610255610a87565b610255610c5a565b6102dc6102d7366004612997565b610d7e565b604051610276929190612c02565b610255610e25565b6102886103003660046129d8565b610ea0565b610255610313366004612a87565b611032565b61028860035481565b600554610334906001600160a01b031681565b6040516001600160a01b039091168152602001610276565b610255611199565b610255611302565b6102556113e9565b610397610372366004612a87565b600760205260009081526040902080546001909101546001600160a01b039091169082565b604080516001600160a01b039093168352602083019190915201610276565b6102886103c4366004612a4a565b611529565b61025561166a565b6102556116f9565b6009546102a99060ff1681565b6102556117d1565b6102556118c5565b610255611bf5565b610255611c8c565b610255611ffc565b61028860045481565b610255612077565b6102556121f4565b61025561222c565b61044261043d366004612a87565b6122f8565b6040516102769190612bef565b61028860025481565b610255612392565b600b546102a99060ff1681565b61044261240d565b61025561241a565b6102556124ec565b610255612646565b6102556126d3565b73__$acbfb1c35000d78352310b16a054a6b106$__6339df137f6104b96001610818565b604080516001600160e01b031960e085901b16815291151560048301526024820152601960448201527f466972737420766f74652073686f756c64207375636365656400000000000000606482015260840160206040518083038186803b15801561052357600080fd5b505af4158015610537573d6000803e3d6000fd5b505050506040513d601f19601f8201168201806040525081019061055b9190612a28565b506040516309212c6360e11b815260026004820152309063124258c690602401602060405180830381600087803b15801561059557600080fd5b505af19250505080156105c5575060408051601f3d908101601f191682019092526105c291810190612a28565b60015b6107a4576105d1613225565b806308c379a0141561067c57506105e6613241565b806105f15750610712565b604051637461658b60e11b815273__$acbfb1c35000d78352310b16a054a6b106$__9063e8c2cb1690610628908490600401612cb3565b60206040518083038186803b15801561064057600080fd5b505af4158015610654573d6000803e3d6000fd5b505050506040513d601f19601f820116820180604052508101906106789190612a28565b5050565b634e487b7114156107125761068f6132cb565b9061069a5750610712565b604080516339df137f60e01b8152600060048201526024810191909152602160448201527f4661696c656420756e65787065637465642077697468206572726f7220636f646064820152606560f81b608482015273__$acbfb1c35000d78352310b16a054a6b106$__906339df137f9060a401610628565b3d80801561073c576040519150601f19603f3d011682016040523d82523d6000602084013e610741565b606091505b50604080516339df137f60e01b8152600060048201526024810191909152601160448201527011985a5b1959081d5b995e1c1958dd1959607a1b606482015273__$acbfb1c35000d78352310b16a054a6b106$__906339df137f90608401610628565b60405163767392b360e01b815281151560048201526000602482015260606044820152601f60648201527f5365636f6e6420766f74652073686f756c64206e6f742062652076616c696400608482015273__$acbfb1c35000d78352310b16a054a6b106$__9063767392b39060a401610628565b600b5460009060ff16156108475760405162461bcd60e51b815260040161083e90612fe8565b60405180910390fd5b600180600954610100900460ff166002811115610866576108666131f9565b146108835760405162461bcd60e51b815260040161083e9061302a565b60095460ff1615156001146108e65760405162461bcd60e51b815260206004820152602360248201527f43616e20766f7465206f6e6c79207768696c6520766f74696e67206973206f7060448201526232b71760e91b606482015260840161083e565b600a5443111561092f5760405162461bcd60e51b81526020600482015260146024820152732b37ba34b733903832b934b7b21032b73232b21760611b604482015260640161083e565b336000908152600160205260409020805461094990613166565b151590506109695760405162461bcd60e51b815260040161083e90613079565b336000908152600160208190526040909120015460ff161561099d5760405162461bcd60e51b815260040161083e90612f7b565b600083815260208190526040902080546109b690613166565b151590506109d65760405162461bcd60e51b815260040161083e90612f38565b3360008181526001602081815260408084208301805460ff19168417905580518082019091529384528301869052600480549195509091610a16836131c8565b90915550506004546000908152600760209081526040909120825181546001600160a01b0319166001600160a01b0390911617815590820151600190910155600354610a6490600290613114565b610a6f9060016130fc565b60045410610a7f57610a7f61271b565b505b50919050565b73__$acbfb1c35000d78352310b16a054a6b106$__63abcd7960610ad06040518060400160405280600e81526020016d436f75727479617264204361666560901b815250611529565b6040516001600160e01b031960e084901b16815260048101919091526001602482015260606044820152601460648201527353686f756c6420626520657175616c20746f203160601b608482015260a40160206040518083038186803b158015610b3957600080fd5b505af4158015610b4d573d6000803e3d6000fd5b505050506040513d601f19601f82011682018060405250810190610b719190612a28565b5073__$acbfb1c35000d78352310b16a054a6b106$__63abcd7960610bb560405180604001604052806008815260200167556e69204361666560c01b815250611529565b6040516001600160e01b031960e084901b16815260048101919091526002602482015260606044820152601460648201527329b437bab6321031329032b8bab0b6103a37901960611b608482015260a4015b60206040518083038186803b158015610c1f57600080fd5b505af4158015610c33573d6000803e3d6000fd5b505050506040513d601f19601f82011682018060405250810190610c579190612a28565b50565b6040516336bbde9f60e11b815260206004820152600e60248201526d436f75727479617264204361666560901b60448201523090636d77bd3e90606401602060405180830381600087803b158015610cb157600080fd5b505af1925050508015610ce1575060408051601f3d908101601f19168201909252610cde91810190612aa0565b60015b610d4457610ced613225565b806308c379a0141561067c5750610d02613241565b80610d0d5750610712565b604051637461658b60e11b815273__$acbfb1c35000d78352310b16a054a6b106$__9063e8c2cb1690610628908490600401612d8c565b604051632b080af160e11b815273__$acbfb1c35000d78352310b16a054a6b106$__9063561015e2906106289084906003906004016130b3565b600160205260009081526040902080548190610d9990613166565b80601f0160208091040260200160405190810160405280929190818152602001828054610dc590613166565b8015610e125780601f10610de757610100808354040283529160200191610e12565b820191906000526020600020905b815481529060010190602001808311610df557829003601f168201915b5050506001909301549192505060ff1682565b73__$acbfb1c35000d78352310b16a054a6b106$__6339df137f610e496002610818565b604080516001600160e01b031960e085901b16815291151560048301526024820152601c60448201527f566f74696e6720726573756c742073686f756c642062652074727565000000006064820152608401610c07565b6005546000906001600160a01b03163314610ecd5760405162461bcd60e51b815260040161083e90613018565b600b5460ff1615610ef05760405162461bcd60e51b815260040161083e90612fe8565b600080600954610100900460ff166002811115610f0f57610f0f6131f9565b14610f2c5760405162461bcd60e51b815260040161083e9061302a565b6001600160a01b03841660009081526001602052604090208054610f4f90613166565b159050610f6e5760405162461bcd60e51b815260040161083e90612fb2565b6000835111610fb75760405162461bcd60e51b81526020600482015260156024820152742730b6b29031b0b73737ba1031329032b6b83a3c9760591b604482015260640161083e565b604080518082018252600060208083018290528683526001600160a01b0388168252600181529290208151805192938493610ff5928492019061280f565b50602091909101516001909101805460ff191691151591909117905560038054906000611021836131c8565b909155505060035495945050505050565b6005546001600160a01b0316331461105c5760405162461bcd60e51b815260040161083e90613018565b600b5460ff161561107f5760405162461bcd60e51b815260040161083e90612fe8565b600080600954610100900460ff16600281111561109e5761109e6131f9565b146110bb5760405162461bcd60e51b815260040161083e9061302a565b60016002541161111c5760405162461bcd60e51b815260206004820152602660248201527f4174206c65617374206f6e652072657374617572616e74206d7573742062652060448201526530b23232b21760d11b606482015260840161083e565b6001600354116111795760405162461bcd60e51b815260206004820152602260248201527f4174206c65617374206f6e6520667269656e64206d7573742062652061646465604482015261321760f11b606482015260840161083e565b61118382436130fc565b600a5550506009805461ffff1916610101179055565b6111a46103e8611032565b6040516309212c6360e11b81526103e76004820152309063124258c690602401602060405180830381600087803b1580156111de57600080fd5b505af192505050801561120e575060408051601f3d908101601f1916820190925261120b91810190612a28565b60015b6112715761121a613225565b806308c379a0141561067c575061122f613241565b8061123a5750610712565b604051637461658b60e11b815273__$acbfb1c35000d78352310b16a054a6b106$__9063e8c2cb1690610628908490600401612c26565b60405163767392b360e01b815281151560048201526000602482015260606044820152603460648201527f566f74652073686f756c64206e6f742062652076616c696420666f72206e6f6e6084820152730b595e1a5cdd195b9d081c995cdd185d5c985b9d60621b60a482015273__$acbfb1c35000d78352310b16a054a6b106$__9063767392b39060c401610628565b6040516336bbde9f60e11b815260206004820152600b60248201526a41746f6d6963204361666560a81b60448201523090636d77bd3e90606401602060405180830381600087803b15801561135657600080fd5b505af1925050508015611386575060408051601f3d908101601f1916820190925261138391810190612aa0565b60015b610d4457611392613225565b806308c379a0141561067c57506113a7613241565b806113b25750610712565b604051637461658b60e11b815273__$acbfb1c35000d78352310b16a054a6b106$__9063e8c2cb1690610628908490600401612d44565b6040516309212c6360e11b815260016004820152309063124258c690602401602060405180830381600087803b15801561142257600080fd5b505af1925050508015611452575060408051601f3d908101601f1916820190925261144f91810190612a28565b60015b6114b55761145e613225565b806308c379a0141561067c5750611473613241565b8061147e5750610712565b604051637461658b60e11b815273__$acbfb1c35000d78352310b16a054a6b106$__9063e8c2cb1690610628908490600401612d68565b60405163767392b360e01b815281151560048201526000602482015260606044820152601860648201527f566f74652073686f756c64206e6f742062652076616c69640000000000000000608482015273__$acbfb1c35000d78352310b16a054a6b106$__9063767392b39060a401610628565b6005546000906001600160a01b031633146115565760405162461bcd60e51b815260040161083e90613018565b600b5460ff16156115795760405162461bcd60e51b815260040161083e90612fe8565b600080600954610100900460ff166002811115611598576115986131f9565b146115b55760405162461bcd60e51b815260040161083e9061302a565b6000836040516020016115c89190612b5e565b60408051601f1981840301815291815281516020928301206000818152600c90935291205490915060ff16156116105760405162461bcd60e51b815260040161083e9061303c565b60028054906000611620836131c8565b909155505060025460009081526020818152604090912085516116459287019061280f565b506000908152600c60205260409020805460ff19166001179055600254915050919050565b60095473__$acbfb1c35000d78352310b16a054a6b106$__9063abcd796090610100900460ff1660028111156116a2576116a26131f9565b60026040516001600160e01b031960e085901b16815260048101929092526024820152606060448201526015606482015274141a185cd9481cda1bdd5b1908189948115b991959605a1b608482015260a401610c07565b60115460408051633b9f708d60e01b81526001600160a01b0390921660048301526024820152600760448201526644616e69656c7360c81b60648201523090633b9f708d90608401602060405180830381600087803b15801561175b57600080fd5b505af192505050801561178b575060408051601f3d908101601f1916820190925261178891810190612aa0565b60015b61179757611392613225565b604051632b080af160e11b815273__$acbfb1c35000d78352310b16a054a6b106$__9063561015e2906106289084906005906004016130b3565b600d5460408051633b9f708d60e01b81526001600160a01b0390921660048301526024820152600660448201526520b634b1b29960d11b60648201523090633b9f708d90608401602060405180830381600087803b15801561183257600080fd5b505af1925050508015611862575060408051601f3d908101601f1916820190925261185f91810190612aa0565b60015b6117975761186e613225565b806308c379a0141561067c5750611883613241565b8061188e5750610712565b604051637461658b60e11b815273__$acbfb1c35000d78352310b16a054a6b106$__9063e8c2cb1690610628908490600401612cfc565b60405163ce88b14560e01b81526000600482015273__$1068a87eb54ed04c4e435de35b2ebf536f$__9063ce88b1459060240160206040518083038186803b15801561191057600080fd5b505af4158015611924573d6000803e3d6000fd5b505050506040513d601f19601f8201168201806040525081019061194891906129bb565b600d80546001600160a01b0319166001600160a01b039290921691909117905560405163ce88b14560e01b81526001600482015273__$1068a87eb54ed04c4e435de35b2ebf536f$__9063ce88b1459060240160206040518083038186803b1580156119b357600080fd5b505af41580156119c7573d6000803e3d6000fd5b505050506040513d601f19601f820116820180604052508101906119eb91906129bb565b600e80546001600160a01b0319166001600160a01b039290921691909117905560405163ce88b14560e01b81526002600482015273__$1068a87eb54ed04c4e435de35b2ebf536f$__9063ce88b1459060240160206040518083038186803b158015611a5657600080fd5b505af4158015611a6a573d6000803e3d6000fd5b505050506040513d601f19601f82011682018060405250810190611a8e91906129bb565b600f80546001600160a01b0319166001600160a01b039290921691909117905560405163ce88b14560e01b81526003600482015273__$1068a87eb54ed04c4e435de35b2ebf536f$__9063ce88b1459060240160206040518083038186803b158015611af957600080fd5b505af4158015611b0d573d6000803e3d6000fd5b505050506040513d601f19601f82011682018060405250810190611b3191906129bb565b601080546001600160a01b0319166001600160a01b039290921691909117905560405163ce88b14560e01b815260048082015273__$1068a87eb54ed04c4e435de35b2ebf536f$__9063ce88b1459060240160206040518083038186803b158015611b9b57600080fd5b505af4158015611baf573d6000803e3d6000fd5b505050506040513d601f19601f82011682018060405250810190611bd391906129bb565b601180546001600160a01b0319166001600160a01b0392909216919091179055565b60095473__$acbfb1c35000d78352310b16a054a6b106$__9063abcd796090610100900460ff166002811115611c2d57611c2d6131f9565b60006040516001600160e01b031960e085901b1681526004810192909252602482015260606044820152601d60648201527f496e697469616c2070686173652073686f756c64206265205365747570000000608482015260a401610c07565b600d54604080518082019091526005815264416c69636560d81b602082015273__$acbfb1c35000d78352310b16a054a6b106$__9163abcd796091611cda916001600160a01b031690610ea0565b6040516001600160e01b031960e084901b16815260048101919091526001602482015260606044820152601460648201527353686f756c6420626520657175616c20746f203160601b608482015260a40160206040518083038186803b158015611d4357600080fd5b505af4158015611d57573d6000803e3d6000fd5b505050506040513d601f19601f82011682018060405250810190611d7b9190612a28565b50600e546040805180820190915260038152622137b160e91b602082015273__$acbfb1c35000d78352310b16a054a6b106$__9163abcd796091611dc8916001600160a01b031690610ea0565b6040516001600160e01b031960e084901b16815260048101919091526002602482015260606044820152601460648201527329b437bab6321031329032b8bab0b6103a37901960611b608482015260a40160206040518083038186803b158015611e3157600080fd5b505af4158015611e45573d6000803e3d6000fd5b505050506040513d601f19601f82011682018060405250810190611e699190612a28565b50600f54604080518082019091526007815266436861726c696560c81b602082015273__$acbfb1c35000d78352310b16a054a6b106$__9163abcd796091611eba916001600160a01b031690610ea0565b6040516001600160e01b031960e084901b16815260048101919091526003602482015260606044820152601460648201527353686f756c6420626520657175616c20746f203360601b608482015260a40160206040518083038186803b158015611f2357600080fd5b505af4158015611f37573d6000803e3d6000fd5b505050506040513d601f19601f82011682018060405250810190611f5b9190612a28565b5060105460408051808201909152600381526245766560e81b602082015273__$acbfb1c35000d78352310b16a054a6b106$__9163abcd796091611fa8916001600160a01b031690610ea0565b60046040518363ffffffff1660e01b8152600401610c0792919091825260208201526060604082018190526014908201527314da1bdd5b1908189948195c5d585b081d1bc80d60621b608082015260a00190565b600554600d54604051635fdd2eeb60e11b81526001600160a01b0392831660048201529116602482015260606044820152601660648201527504d616e616765722073686f756c6420626520616363360541b608482015273__$acbfb1c35000d78352310b16a054a6b106$__9063bfba5dd69060a401610c07565b6040516309212c6360e11b815260016004820152309063124258c690602401602060405180830381600087803b1580156120b057600080fd5b505af19250505080156120e0575060408051601f3d908101601f191682019092526120dd91810190612a28565b60015b6121ba576120ec613225565b806308c379a0141561210c5750612101613241565b8061147e5750612126565b634e487b7114156121265761211f6132cb565b9061069a57505b3d808015612150576040519150601f19603f3d011682016040523d82523d6000602084013e612155565b606091505b50604080516339df137f60e01b815260006004820152602481019190915260136044820152724661696c656420756e65787065637465646c7960681b606482015273__$acbfb1c35000d78352310b16a054a6b106$__906339df137f90608401610628565b60405163767392b360e01b815273__$acbfb1c35000d78352310b16a054a6b106$__9063767392b390610628908490600190600401612b7a565b604051637461658b60e11b815273__$acbfb1c35000d78352310b16a054a6b106$__9063e8c2cb1690610c0790600690600401612e2a565b6040516309212c6360e11b815260016004820152309063124258c690602401602060405180830381600087803b15801561226557600080fd5b505af1925050508015612295575060408051601f3d908101601f1916820190925261229291810190612a28565b60015b6114b5576122a1613225565b806308c379a0141561067c57506122b6613241565b806122c15750610712565b604051637461658b60e11b815273__$acbfb1c35000d78352310b16a054a6b106$__9063e8c2cb1690610628908490600401612ddb565b6000602081905290815260409020805461231190613166565b80601f016020809104026020016040519081016040528092919081815260200182805461233d90613166565b801561238a5780601f1061235f5761010080835404028352916020019161238a565b820191906000526020600020905b81548152906001019060200180831161236d57829003601f168201915b505050505081565b60095460405163767392b360e01b815260ff909116151560048201526000602482015260606044820152601760648201527f566f74696e672073686f756c6420626520636c6f736564000000000000000000608482015273__$acbfb1c35000d78352310b16a054a6b106$__9063767392b39060a401610c07565b6006805461231190613166565b6005546001600160a01b031633146124445760405162461bcd60e51b815260040161083e90613018565b600b5460ff16156124675760405162461bcd60e51b815260040161083e90612fe8565b6001600954610100900460ff166002811115612485576124856131f9565b146124c95760405162461bcd60e51b81526020600482015260146024820152732737ba1034b7103b37ba34b73390383430b9b29760611b604482015260640161083e565b600454156124db576124d961271b565b565b6009805461ffff1916610200179055565b6124f76103e8611032565b60095473__$acbfb1c35000d78352310b16a054a6b106$__9063abcd796090610100900460ff16600281111561252f5761252f6131f9565b60016040516001600160e01b031960e085901b1681526004810192909252602482015260606044820152601660648201527550686173652073686f756c6420626520566f74696e6760501b608482015260a40160206040518083038186803b15801561259a57600080fd5b505af41580156125ae573d6000803e3d6000fd5b505050506040513d601f19601f820116820180604052508101906125d29190612a28565b5060095460405163767392b360e01b815260ff90911615156004820152600160248201526060604482015260156064820152742b37ba34b7339039b437bab6321031329037b832b760591b608482015273__$acbfb1c35000d78352310b16a054a6b106$__9063767392b39060a401610c07565b6040516336bbde9f60e11b81526020600482015260086024820152674e6577204361666560c01b60448201523090636d77bd3e90606401602060405180830381600087803b15801561269757600080fd5b505af19250505080156126c7575060408051601f3d908101601f191682019092526126c491810190612aa0565b60015b610d445761145e613225565b6005546001600160a01b031633146126fd5760405162461bcd60e51b815260040161083e90613018565b600b805460ff191660011790556009805461ffff1916610200179055565b60008060015b60045481116127d257600081815260076020908152604080832060019081015484526008909252909120541561277d576000828152600760209081526040808320600101548352600890915290205461277a90826130fc565b90505b600082815260076020908152604080832060010154835260089091529020819055838111156127bf576000828152600760205260409020600101549093509150825b50806127ca816131c8565b915050612721565b5060008181526020819052604090208054600691906127f090613166565b6127fb929190612893565b50506009805461ffff191661020017905550565b82805461281b90613166565b90600052602060002090601f01602090048101928261283d5760008555612883565b82601f1061285657805160ff1916838001178555612883565b82800160010185558215612883579182015b82811115612883578251825591602001919060010190612868565b5061288f92915061290e565b5090565b82805461289f90613166565b90600052602060002090601f0160209004810192826128c15760008555612883565b82601f106128d25780548555612883565b8280016001018555821561288357600052602060002091601f016020900482015b828111156128835782548255916001019190600101906128f3565b5b8082111561288f576000815560010161290f565b600082601f83011261293457600080fd5b813567ffffffffffffffff81111561294e5761294e61320f565b604051612965601f8301601f19166020018261319b565b81815284602083860101111561297a57600080fd5b816020850160208301376000918101602001919091529392505050565b6000602082840312156129a957600080fd5b81356129b4816132eb565b9392505050565b6000602082840312156129cd57600080fd5b81516129b4816132eb565b600080604083850312156129eb57600080fd5b82356129f6816132eb565b9150602083013567ffffffffffffffff811115612a1257600080fd5b612a1e85828601612923565b9150509250929050565b600060208284031215612a3a57600080fd5b815180151581146129b457600080fd5b600060208284031215612a5c57600080fd5b813567ffffffffffffffff811115612a7357600080fd5b612a7f84828501612923565b949350505050565b600060208284031215612a9957600080fd5b5035919050565b600060208284031215612ab257600080fd5b5051919050565b60008151808452612ad1816020860160208601613136565b601f01601f19169290920160200192915050565b602381527f43616e206f6e6c7920626520657865637574656420627920746865206d616e6160208201526233b2b960e91b604082015260600190565b602481527f416374696f6e206e6f7420616c6c6f77656420696e2063757272656e7420706860208201526330b9b29760e11b604082015260600190565b60008251612b70818460208701613136565b9190910192915050565b82151581528115156020820152606060408201526000612a7f60608301601d81527f4d6574686f6420657865637574696f6e20646964206e6f74206661696c000000602082015260400190565b6020810160038310612be957634e487b7160e01b600052602160045260246000fd5b91905290565b6020815260006129b46020830184612ab9565b604081526000612c156040830185612ab9565b905082151560208301529392505050565b606081526000612c396060830184612ab9565b8281036020840152612c7581601a81527f52657374617572616e7420646f6573206e6f742065786973742e000000000000602082015260400190565b90508281036040840152612a7f81601d81527f4661696c6564207769746820756e657870656374656420726561736f6e000000602082015260400190565b606081526000612cc66060830184612ab9565b8281036020840152612c758160178152762cb7ba903430bb329030b63932b0b23c903b37ba32b21760491b602082015260400190565b606081526000612d0f6060830184612ab9565b8281036020840152612c75816016815275233934b2b7321030b63932b0b23c9032bc34b9ba399760511b602082015260400190565b606081526000612d576060830184612ab9565b8281036020840152612c7581612ae5565b606081526000612d7b6060830184612ab9565b8281036020840152612c7581612b21565b606081526000612d9f6060830184612ab9565b8281036020840152612c7581601a81527f52657374617572616e7420616c7265616479206578697374732e000000000000602082015260400190565b606081526000612dee6060830184612ab9565b8281036020840152612c758160208082527f596f7520617265206e6f742061207265676973746572656420667269656e642e9082015260400190565b60608152600080835481600182811c915080831680612e4a57607f831692505b6020808410821415612e6a57634e487b7160e01b86526022600452602486fd5b6060880184905260808801828015612e895760018114612e9a57612ec5565b60ff19871682528282019750612ec5565b60008b81526020902060005b87811015612ebf57815484820152908601908401612ea6565b83019850505b505087860390880152505060088352505067556e69204361666560c01b60208201526040810190508281036040840152612a7f81602681527f53656c65637465642072657374617572616e742073686f756c6420626520556e60208201526569204361666560d01b604082015260600190565b602081526000612f7560208301601a81527f52657374617572616e7420646f6573206e6f742065786973742e000000000000602082015260400190565b92915050565b602081526000612f756020830160178152762cb7ba903430bb329030b63932b0b23c903b37ba32b21760491b602082015260400190565b602081526000612f75602083016016815275233934b2b7321030b63932b0b23c9032bc34b9ba399760511b602082015260400190565b60208082526016908201527521b7b73a3930b1ba1034b99039b43aba103237bbb71760511b604082015260600190565b602081526000612f7560208301612ae5565b602081526000612f7560208301612b21565b602081526000612f7560208301601a81527f52657374617572616e7420616c7265616479206578697374732e000000000000602082015260400190565b6020808252818101527f596f7520617265206e6f742061207265676973746572656420667269656e642e6040820152600060608201612f75565b828152816020820152606060408201526000612a7f60608301601d81527f4d6574686f6420657865637574696f6e20646964206e6f74206661696c000000602082015260400190565b6000821982111561310f5761310f6131e3565b500190565b60008261313157634e487b7160e01b600052601260045260246000fd5b500490565b60005b83811015613151578181015183820152602001613139565b83811115613160576000848401525b50505050565b600181811c9082168061317a57607f821691505b60208210811415610a8157634e487b7160e01b600052602260045260246000fd5b601f8201601f1916810167ffffffffffffffff811182821017156131c1576131c161320f565b6040525050565b60006000198214156131dc576131dc6131e3565b5060010190565b634e487b7160e01b600052601160045260246000fd5b634e487b7160e01b600052602160045260246000fd5b634e487b7160e01b600052604160045260246000fd5b600060033d111561323e5760046000803e5060005160e01c5b90565b600060443d101561324f5790565b6040516003193d81016004833e81513d67ffffffffffffffff816024840111818411171561327f57505050505090565b82850191508151818111156132975750505050505090565b843d87010160208285010111156132b15750505050505090565b6132c06020828601018761319b565b509095945050505050565b60008060233d11156132e7576020600460003e50506000516001905b9091565b6001600160a01b0381168114610c5757600080fdfea2646970667358221220086052628158934fc79463be4a65d7389a56518c106fdea626ff844e2fe750c364736f6c63430008050033",
			"opcodes": "PUSH1 0x0 PUSH1 0x2 DUP2 SWAP1 SSTORE PUSH1 0x3 DUP2 SWAP1 SSTORE PUSH1 0x4 DUP2 SWAP1 SSTORE PUSH1 0xA0 PUSH1 0x40 DUP2 SWAP1 MSTORE PUSH1 0x80 DUP3 SWAP1 MSTORE PUSH3 0x2B SWAP2 PUSH1 0x6 SWAP2 SWAP1 PUSH3 0x6A JUMP JUMPDEST POP PUSH1 0x9 DUP1 SLOAD PUSH2 0xFFFF NOT AND PUSH1 0x1 OR SWAP1 SSTORE PUSH1 0xB DUP1 SLOAD PUSH1 0xFF NOT AND SWAP1 SSTORE CALLVALUE DUP1 ISZERO PUSH3 0x51 JUMPI PUSH1 0x0 DUP1 REVERT JUMPDEST POP PUSH1 0x5 DUP1 SLOAD PUSH1 0x1 PUSH1 0x1 PUSH1 0xA0 SHL SUB NOT AND CALLER OR SWAP1 SSTORE PUSH3 0x14D JUMP JUMPDEST DUP3 DUP1 SLOAD PUSH3 0x78 SWAP1 PUSH3 0x110 JUMP JUMPDEST SWAP1 PUSH1 0x0 MSTORE PUSH1 0x20 PUSH1 0x0 KECCAK256 SWAP1 PUSH1 0x1F ADD PUSH1 0x20 SWAP1 DIV DUP2 ADD SWAP3 DUP3 PUSH3 0x9C JUMPI PUSH1 0x0 DUP6 SSTORE PUSH3 0xE7 JUMP JUMPDEST DUP3 PUSH1 0x1F LT PUSH3 0xB7 JUMPI DUP1 MLOAD PUSH1 0xFF NOT AND DUP4 DUP1 ADD OR DUP6 SSTORE PUSH3 0xE7 JUMP JUMPDEST DUP3 DUP1 ADD PUSH1 0x1 ADD DUP6 SSTORE DUP3 ISZERO PUSH3 0xE7 JUMPI SWAP2 DUP3 ADD JUMPDEST DUP3 DUP2 GT ISZERO PUSH3 0xE7 JUMPI DUP3 MLOAD DUP3 SSTORE SWAP2 PUSH1 0x20 ADD SWAP2 SWAP1 PUSH1 0x1 ADD SWAP1 PUSH3 0xCA JUMP JUMPDEST POP PUSH3 0xF5 SWAP3 SWAP2 POP PUSH3 0xF9 JUMP JUMPDEST POP SWAP1 JUMP JUMPDEST JUMPDEST DUP1 DUP3 GT ISZERO PUSH3 0xF5 JUMPI PUSH1 0x0 DUP2 SSTORE PUSH1 0x1 ADD PUSH3 0xFA JUMP JUMPDEST PUSH1 0x1 DUP2 DUP2 SHR SWAP1 DUP3 AND DUP1 PUSH3 0x125 JUMPI PUSH1 0x7F DUP3 AND SWAP2 POP JUMPDEST PUSH1 0x20 DUP3 LT DUP2 EQ ISZERO PUSH3 0x147 JUMPI PUSH4 0x4E487B71 PUSH1 0xE0 SHL PUSH1 0x0 MSTORE PUSH1 0x22 PUSH1 0x4 MSTORE PUSH1 0x24 PUSH1 0x0 REVERT JUMPDEST POP SWAP2 SWAP1 POP JUMP JUMPDEST PUSH2 0x3336 DUP1 PUSH3 0x15D PUSH1 0x0 CODECOPY PUSH1 0x0 RETURN INVALID PUSH1 0x80 PUSH1 0x40 MSTORE CALLVALUE DUP1 ISZERO PUSH2 0x10 JUMPI PUSH1 0x0 DUP1 REVERT JUMPDEST POP PUSH1 0x4 CALLDATASIZE LT PUSH2 0x248 JUMPI PUSH1 0x0 CALLDATALOAD PUSH1 0xE0 SHR DUP1 PUSH4 0x788D3851 GT PUSH2 0x13B JUMPI DUP1 PUSH4 0xA9A4070C GT PUSH2 0xB8 JUMPI DUP1 PUSH4 0xC1C16EFC GT PUSH2 0x7C JUMPI DUP1 PUSH4 0xC1C16EFC EQ PUSH2 0x46D JUMPI DUP1 PUSH4 0xC3403DDF EQ PUSH2 0x475 JUMPI DUP1 PUSH4 0xCB43284E EQ PUSH2 0x47D JUMPI DUP1 PUSH4 0xE5FBFEF4 EQ PUSH2 0x485 JUMPI DUP1 PUSH4 0xFC0E74D1 EQ PUSH2 0x48D JUMPI PUSH1 0x0 DUP1 REVERT JUMPDEST DUP1 PUSH4 0xA9A4070C EQ PUSH2 0x427 JUMPI DUP1 PUSH4 0xAD5461D8 EQ PUSH2 0x42F JUMPI DUP1 PUSH4 0xB798867F EQ PUSH2 0x44F JUMPI DUP1 PUSH4 0xBBB97DED EQ PUSH2 0x458 JUMPI DUP1 PUSH4 0xBF86D690 EQ PUSH2 0x460 JUMPI PUSH1 0x0 DUP1 REVERT JUMPDEST DUP1 PUSH4 0x947AEA86 GT PUSH2 0xFF JUMPI DUP1 PUSH4 0x947AEA86 EQ PUSH2 0x406 JUMPI DUP1 PUSH4 0xA24A4E88 EQ PUSH2 0x2EA JUMPI DUP1 PUSH4 0xA3BEF4D7 EQ PUSH2 0x40E JUMPI DUP1 PUSH4 0xA5627CF0 EQ PUSH2 0x417 JUMPI DUP1 PUSH4 0xA8267245 EQ PUSH2 0x41F JUMPI PUSH1 0x0 DUP1 REVERT JUMPDEST DUP1 PUSH4 0x788D3851 EQ PUSH2 0x3D9 JUMPI DUP1 PUSH4 0x7A23732E EQ PUSH2 0x3E6 JUMPI DUP1 PUSH4 0x7FEA0D4B EQ PUSH2 0x3EE JUMPI DUP1 PUSH4 0x8322F501 EQ PUSH2 0x3F6 JUMPI DUP1 PUSH4 0x848B4427 EQ PUSH2 0x3FE JUMPI PUSH1 0x0 DUP1 REVERT JUMPDEST DUP1 PUSH4 0x47098F36 GT PUSH2 0x1C9 JUMPI DUP1 PUSH4 0x5DF81330 GT PUSH2 0x18D JUMPI DUP1 PUSH4 0x5DF81330 EQ PUSH2 0x364 JUMPI DUP1 PUSH4 0x632A9A52 EQ PUSH2 0x2EA JUMPI DUP1 PUSH4 0x6D77BD3E EQ PUSH2 0x3B6 JUMPI DUP1 PUSH4 0x7575CDC1 EQ PUSH2 0x3C9 JUMPI DUP1 PUSH4 0x77440E06 EQ PUSH2 0x3D1 JUMPI PUSH1 0x0 DUP1 REVERT JUMPDEST DUP1 PUSH4 0x47098F36 EQ PUSH2 0x318 JUMPI DUP1 PUSH4 0x481C6A75 EQ PUSH2 0x321 JUMPI DUP1 PUSH4 0x4A22FC0B EQ PUSH2 0x34C JUMPI DUP1 PUSH4 0x512A6FBB EQ PUSH2 0x354 JUMPI DUP1 PUSH4 0x59C5A8D0 EQ PUSH2 0x35C JUMPI PUSH1 0x0 DUP1 REVERT JUMPDEST DUP1 PUSH4 0x1BCA28EE GT PUSH2 0x210 JUMPI DUP1 PUSH4 0x1BCA28EE EQ PUSH2 0x2C1 JUMPI DUP1 PUSH4 0x1DDABF7A EQ PUSH2 0x2C9 JUMPI DUP1 PUSH4 0x2955FEA3 EQ PUSH2 0x2EA JUMPI DUP1 PUSH4 0x3B9F708D EQ PUSH2 0x2F2 JUMPI DUP1 PUSH4 0x3D2F5BDA EQ PUSH2 0x305 JUMPI PUSH1 0x0 DUP1 REVERT JUMPDEST DUP1 PUSH4 0x2DF553A EQ PUSH2 0x24D JUMPI DUP1 PUSH4 0x55AD42E EQ PUSH2 0x257 JUMPI DUP1 PUSH4 0x83C6323 EQ PUSH2 0x27F JUMPI DUP1 PUSH4 0x124258C6 EQ PUSH2 0x296 JUMPI DUP1 PUSH4 0x12A4591A EQ PUSH2 0x2B9 JUMPI JUMPDEST PUSH1 0x0 DUP1 REVERT JUMPDEST PUSH2 0x255 PUSH2 0x495 JUMP JUMPDEST STOP JUMPDEST PUSH1 0x9 SLOAD PUSH2 0x269 SWAP1 PUSH2 0x100 SWAP1 DIV PUSH1 0xFF AND DUP2 JUMP JUMPDEST PUSH1 0x40 MLOAD PUSH2 0x276 SWAP2 SWAP1 PUSH2 0x2BC7 JUMP JUMPDEST PUSH1 0x40 MLOAD DUP1 SWAP2 SUB SWAP1 RETURN JUMPDEST PUSH2 0x288 PUSH1 0xA SLOAD DUP2 JUMP JUMPDEST PUSH1 0x40 MLOAD SWAP1 DUP2 MSTORE PUSH1 0x20 ADD PUSH2 0x276 JUMP JUMPDEST PUSH2 0x2A9 PUSH2 0x2A4 CALLDATASIZE PUSH1 0x4 PUSH2 0x2A87 JUMP JUMPDEST PUSH2 0x818 JUMP JUMPDEST PUSH1 0x40 MLOAD SWAP1 ISZERO ISZERO DUP2 MSTORE PUSH1 0x20 ADD PUSH2 0x276 JUMP JUMPDEST PUSH2 0x255 PUSH2 0xA87 JUMP JUMPDEST PUSH2 0x255 PUSH2 0xC5A JUMP JUMPDEST PUSH2 0x2DC PUSH2 0x2D7 CALLDATASIZE PUSH1 0x4 PUSH2 0x2997 JUMP JUMPDEST PUSH2 0xD7E JUMP JUMPDEST PUSH1 0x40 MLOAD PUSH2 0x276 SWAP3 SWAP2 SWAP1 PUSH2 0x2C02 JUMP JUMPDEST PUSH2 0x255 PUSH2 0xE25 JUMP JUMPDEST PUSH2 0x288 PUSH2 0x300 CALLDATASIZE PUSH1 0x4 PUSH2 0x29D8 JUMP JUMPDEST PUSH2 0xEA0 JUMP JUMPDEST PUSH2 0x255 PUSH2 0x313 CALLDATASIZE PUSH1 0x4 PUSH2 0x2A87 JUMP JUMPDEST PUSH2 0x1032 JUMP JUMPDEST PUSH2 0x288 PUSH1 0x3 SLOAD DUP2 JUMP JUMPDEST PUSH1 0x5 SLOAD PUSH2 0x334 SWAP1 PUSH1 0x1 PUSH1 0x1 PUSH1 0xA0 SHL SUB AND DUP2 JUMP JUMPDEST PUSH1 0x40 MLOAD PUSH1 0x1 PUSH1 0x1 PUSH1 0xA0 SHL SUB SWAP1 SWAP2 AND DUP2 MSTORE PUSH1 0x20 ADD PUSH2 0x276 JUMP JUMPDEST PUSH2 0x255 PUSH2 0x1199 JUMP JUMPDEST PUSH2 0x255 PUSH2 0x1302 JUMP JUMPDEST PUSH2 0x255 PUSH2 0x13E9 JUMP JUMPDEST PUSH2 0x397 PUSH2 0x372 CALLDATASIZE PUSH1 0x4 PUSH2 0x2A87 JUMP JUMPDEST PUSH1 0x7 PUSH1 0x20 MSTORE PUSH1 0x0 SWAP1 DUP2 MSTORE PUSH1 0x40 SWAP1 KECCAK256 DUP1 SLOAD PUSH1 0x1 SWAP1 SWAP2 ADD SLOAD PUSH1 0x1 PUSH1 0x1 PUSH1 0xA0 SHL SUB SWAP1 SWAP2 AND SWAP1 DUP3 JUMP JUMPDEST PUSH1 0x40 DUP1 MLOAD PUSH1 0x1 PUSH1 0x1 PUSH1 0xA0 SHL SUB SWAP1 SWAP4 AND DUP4 MSTORE PUSH1 0x20 DUP4 ADD SWAP2 SWAP1 SWAP2 MSTORE ADD PUSH2 0x276 JUMP JUMPDEST PUSH2 0x288 PUSH2 0x3C4 CALLDATASIZE PUSH1 0x4 PUSH2 0x2A4A JUMP JUMPDEST PUSH2 0x1529 JUMP JUMPDEST PUSH2 0x255 PUSH2 0x166A JUMP JUMPDEST PUSH2 0x255 PUSH2 0x16F9 JUMP JUMPDEST PUSH1 0x9 SLOAD PUSH2 0x2A9 SWAP1 PUSH1 0xFF AND DUP2 JUMP JUMPDEST PUSH2 0x255 PUSH2 0x17D1 JUMP JUMPDEST PUSH2 0x255 PUSH2 0x18C5 JUMP JUMPDEST PUSH2 0x255 PUSH2 0x1BF5 JUMP JUMPDEST PUSH2 0x255 PUSH2 0x1C8C JUMP JUMPDEST PUSH2 0x255 PUSH2 0x1FFC JUMP JUMPDEST PUSH2 0x288 PUSH1 0x4 SLOAD DUP2 JUMP JUMPDEST PUSH2 0x255 PUSH2 0x2077 JUMP JUMPDEST PUSH2 0x255 PUSH2 0x21F4 JUMP JUMPDEST PUSH2 0x255 PUSH2 0x222C JUMP JUMPDEST PUSH2 0x442 PUSH2 0x43D CALLDATASIZE PUSH1 0x4 PUSH2 0x2A87 JUMP JUMPDEST PUSH2 0x22F8 JUMP JUMPDEST PUSH1 0x40 MLOAD PUSH2 0x276 SWAP2 SWAP1 PUSH2 0x2BEF JUMP JUMPDEST PUSH2 0x288 PUSH1 0x2 SLOAD DUP2 JUMP JUMPDEST PUSH2 0x255 PUSH2 0x2392 JUMP JUMPDEST PUSH1 0xB SLOAD PUSH2 0x2A9 SWAP1 PUSH1 0xFF AND DUP2 JUMP JUMPDEST PUSH2 0x442 PUSH2 0x240D JUMP JUMPDEST PUSH2 0x255 PUSH2 0x241A JUMP JUMPDEST PUSH2 0x255 PUSH2 0x24EC JUMP JUMPDEST PUSH2 0x255 PUSH2 0x2646 JUMP JUMPDEST PUSH2 0x255 PUSH2 0x26D3 JUMP JUMPDEST PUSH20 0x0 PUSH4 0x39DF137F PUSH2 0x4B9 PUSH1 0x1 PUSH2 0x818 JUMP JUMPDEST PUSH1 0x40 DUP1 MLOAD PUSH1 0x1 PUSH1 0x1 PUSH1 0xE0 SHL SUB NOT PUSH1 0xE0 DUP6 SWAP1 SHL AND DUP2 MSTORE SWAP2 ISZERO ISZERO PUSH1 0x4 DUP4 ADD MSTORE PUSH1 0x24 DUP3 ADD MSTORE PUSH1 0x19 PUSH1 0x44 DUP3 ADD MSTORE PUSH32 0x466972737420766F74652073686F756C64207375636365656400000000000000 PUSH1 0x64 DUP3 ADD MSTORE PUSH1 0x84 ADD PUSH1 0x20 PUSH1 0x40 MLOAD DUP1 DUP4 SUB DUP2 DUP7 DUP1 EXTCODESIZE ISZERO DUP1 ISZERO PUSH2 0x523 JUMPI PUSH1 0x0 DUP1 REVERT JUMPDEST POP GAS DELEGATECALL ISZERO DUP1 ISZERO PUSH2 0x537 JUMPI RETURNDATASIZE PUSH1 0x0 DUP1 RETURNDATACOPY RETURNDATASIZE PUSH1 0x0 REVERT JUMPDEST POP POP POP POP PUSH1 0x40 MLOAD RETURNDATASIZE PUSH1 0x1F NOT PUSH1 0x1F DUP3 ADD AND DUP3 ADD DUP1 PUSH1 0x40 MSTORE POP DUP2 ADD SWAP1 PUSH2 0x55B SWAP2 SWAP1 PUSH2 0x2A28 JUMP JUMPDEST POP PUSH1 0x40 MLOAD PUSH4 0x9212C63 PUSH1 0xE1 SHL DUP2 MSTORE PUSH1 0x2 PUSH1 0x4 DUP3 ADD MSTORE ADDRESS SWAP1 PUSH4 0x124258C6 SWAP1 PUSH1 0x24 ADD PUSH1 0x20 PUSH1 0x40 MLOAD DUP1 DUP4 SUB DUP2 PUSH1 0x0 DUP8 DUP1 EXTCODESIZE ISZERO DUP1 ISZERO PUSH2 0x595 JUMPI PUSH1 0x0 DUP1 REVERT JUMPDEST POP GAS CALL SWAP3 POP POP POP DUP1 ISZERO PUSH2 0x5C5 JUMPI POP PUSH1 0x40 DUP1 MLOAD PUSH1 0x1F RETURNDATASIZE SWAP1 DUP2 ADD PUSH1 0x1F NOT AND DUP3 ADD SWAP1 SWAP3 MSTORE PUSH2 0x5C2 SWAP2 DUP2 ADD SWAP1 PUSH2 0x2A28 JUMP JUMPDEST PUSH1 0x1 JUMPDEST PUSH2 0x7A4 JUMPI PUSH2 0x5D1 PUSH2 0x3225 JUMP JUMPDEST DUP1 PUSH4 0x8C379A0 EQ ISZERO PUSH2 0x67C JUMPI POP PUSH2 0x5E6 PUSH2 0x3241 JUMP JUMPDEST DUP1 PUSH2 0x5F1 JUMPI POP PUSH2 0x712 JUMP JUMPDEST PUSH1 0x40 MLOAD PUSH4 0x7461658B PUSH1 0xE1 SHL DUP2 MSTORE PUSH20 0x0 SWAP1 PUSH4 0xE8C2CB16 SWAP1 PUSH2 0x628 SWAP1 DUP5 SWAP1 PUSH1 0x4 ADD PUSH2 0x2CB3 JUMP JUMPDEST PUSH1 0x20 PUSH1 0x40 MLOAD DUP1 DUP4 SUB DUP2 DUP7 DUP1 EXTCODESIZE ISZERO DUP1 ISZERO PUSH2 0x640 JUMPI PUSH1 0x0 DUP1 REVERT JUMPDEST POP GAS DELEGATECALL ISZERO DUP1 ISZERO PUSH2 0x654 JUMPI RETURNDATASIZE PUSH1 0x0 DUP1 RETURNDATACOPY RETURNDATASIZE PUSH1 0x0 REVERT JUMPDEST POP POP POP POP PUSH1 0x40 MLOAD RETURNDATASIZE PUSH1 0x1F NOT PUSH1 0x1F DUP3 ADD AND DUP3 ADD DUP1 PUSH1 0x40 MSTORE POP DUP2 ADD SWAP1 PUSH2 0x678 SWAP2 SWAP1 PUSH2 0x2A28 JUMP JUMPDEST POP POP JUMP JUMPDEST PUSH4 0x4E487B71 EQ ISZERO PUSH2 0x712 JUMPI PUSH2 0x68F PUSH2 0x32CB JUMP JUMPDEST SWAP1 PUSH2 0x69A JUMPI POP PUSH2 0x712 JUMP JUMPDEST PUSH1 0x40 DUP1 MLOAD PUSH4 0x39DF137F PUSH1 0xE0 SHL DUP2 MSTORE PUSH1 0x0 PUSH1 0x4 DUP3 ADD MSTORE PUSH1 0x24 DUP2 ADD SWAP2 SWAP1 SWAP2 MSTORE PUSH1 0x21 PUSH1 0x44 DUP3 ADD MSTORE PUSH32 0x4661696C656420756E65787065637465642077697468206572726F7220636F64 PUSH1 0x64 DUP3 ADD MSTORE PUSH1 0x65 PUSH1 0xF8 SHL PUSH1 0x84 DUP3 ADD MSTORE PUSH20 0x0 SWAP1 PUSH4 0x39DF137F SWAP1 PUSH1 0xA4 ADD PUSH2 0x628 JUMP JUMPDEST RETURNDATASIZE DUP1 DUP1 ISZERO PUSH2 0x73C JUMPI PUSH1 0x40 MLOAD SWAP2 POP PUSH1 0x1F NOT PUSH1 0x3F RETURNDATASIZE ADD AND DUP3 ADD PUSH1 0x40 MSTORE RETURNDATASIZE DUP3 MSTORE RETURNDATASIZE PUSH1 0x0 PUSH1 0x20 DUP5 ADD RETURNDATACOPY PUSH2 0x741 JUMP JUMPDEST PUSH1 0x60 SWAP2 POP JUMPDEST POP PUSH1 0x40 DUP1 MLOAD PUSH4 0x39DF137F PUSH1 0xE0 SHL DUP2 MSTORE PUSH1 0x0 PUSH1 0x4 DUP3 ADD MSTORE PUSH1 0x24 DUP2 ADD SWAP2 SWAP1 SWAP2 MSTORE PUSH1 0x11 PUSH1 0x44 DUP3 ADD MSTORE PUSH17 0x11985A5B1959081D5B995E1C1958DD1959 PUSH1 0x7A SHL PUSH1 0x64 DUP3 ADD MSTORE PUSH20 0x0 SWAP1 PUSH4 0x39DF137F SWAP1 PUSH1 0x84 ADD PUSH2 0x628 JUMP JUMPDEST PUSH1 0x40 MLOAD PUSH4 0x767392B3 PUSH1 0xE0 SHL DUP2 MSTORE DUP2 ISZERO ISZERO PUSH1 0x4 DUP3 ADD MSTORE PUSH1 0x0 PUSH1 0x24 DUP3 ADD MSTORE PUSH1 0x60 PUSH1 0x44 DUP3 ADD MSTORE PUSH1 0x1F PUSH1 0x64 DUP3 ADD MSTORE PUSH32 0x5365636F6E6420766F74652073686F756C64206E6F742062652076616C696400 PUSH1 0x84 DUP3 ADD MSTORE PUSH20 0x0 SWAP1 PUSH4 0x767392B3 SWAP1 PUSH1 0xA4 ADD PUSH2 0x628 JUMP JUMPDEST PUSH1 0xB SLOAD PUSH1 0x0 SWAP1 PUSH1 0xFF AND ISZERO PUSH2 0x847 JUMPI PUSH1 0x40 MLOAD PUSH3 0x461BCD PUSH1 0xE5 SHL DUP2 MSTORE PUSH1 0x4 ADD PUSH2 0x83E SWAP1 PUSH2 0x2FE8 JUMP JUMPDEST PUSH1 0x40 MLOAD DUP1 SWAP2 SUB SWAP1 REVERT JUMPDEST PUSH1 0x1 DUP1 PUSH1 0x9 SLOAD PUSH2 0x100 SWAP1 DIV PUSH1 0xFF AND PUSH1 0x2 DUP2 GT ISZERO PUSH2 0x866 JUMPI PUSH2 0x866 PUSH2 0x31F9 JUMP JUMPDEST EQ PUSH2 0x883 JUMPI PUSH1 0x40 MLOAD PUSH3 0x461BCD PUSH1 0xE5 SHL DUP2 MSTORE PUSH1 0x4 ADD PUSH2 0x83E SWAP1 PUSH2 0x302A JUMP JUMPDEST PUSH1 0x9 SLOAD PUSH1 0xFF AND ISZERO ISZERO PUSH1 0x1 EQ PUSH2 0x8E6 JUMPI PUSH1 0x40 MLOAD PUSH3 0x461BCD PUSH1 0xE5 SHL DUP2 MSTORE PUSH1 0x20 PUSH1 0x4 DUP3 ADD MSTORE PUSH1 0x23 PUSH1 0x24 DUP3 ADD MSTORE PUSH32 0x43616E20766F7465206F6E6C79207768696C6520766F74696E67206973206F70 PUSH1 0x44 DUP3 ADD MSTORE PUSH3 0x32B717 PUSH1 0xE9 SHL PUSH1 0x64 DUP3 ADD MSTORE PUSH1 0x84 ADD PUSH2 0x83E JUMP JUMPDEST PUSH1 0xA SLOAD NUMBER GT ISZERO PUSH2 0x92F JUMPI PUSH1 0x40 MLOAD PUSH3 0x461BCD PUSH1 0xE5 SHL DUP2 MSTORE PUSH1 0x20 PUSH1 0x4 DUP3 ADD MSTORE PUSH1 0x14 PUSH1 0x24 DUP3 ADD MSTORE PUSH20 0x2B37BA34B733903832B934B7B21032B73232B217 PUSH1 0x61 SHL PUSH1 0x44 DUP3 ADD MSTORE PUSH1 0x64 ADD PUSH2 0x83E JUMP JUMPDEST CALLER PUSH1 0x0 SWAP1 DUP2 MSTORE PUSH1 0x1 PUSH1 0x20 MSTORE PUSH1 0x40 SWAP1 KECCAK256 DUP1 SLOAD PUSH2 0x949 SWAP1 PUSH2 0x3166 JUMP JUMPDEST ISZERO ISZERO SWAP1 POP PUSH2 0x969 JUMPI PUSH1 0x40 MLOAD PUSH3 0x461BCD PUSH1 0xE5 SHL DUP2 MSTORE PUSH1 0x4 ADD PUSH2 0x83E SWAP1 PUSH2 0x3079 JUMP JUMPDEST CALLER PUSH1 0x0 SWAP1 DUP2 MSTORE PUSH1 0x1 PUSH1 0x20 DUP2 SWAP1 MSTORE PUSH1 0x40 SWAP1 SWAP2 KECCAK256 ADD SLOAD PUSH1 0xFF AND ISZERO PUSH2 0x99D JUMPI PUSH1 0x40 MLOAD PUSH3 0x461BCD PUSH1 0xE5 SHL DUP2 MSTORE PUSH1 0x4 ADD PUSH2 0x83E SWAP1 PUSH2 0x2F7B JUMP JUMPDEST PUSH1 0x0 DUP4 DUP2 MSTORE PUSH1 0x20 DUP2 SWAP1 MSTORE PUSH1 0x40 SWAP1 KECCAK256 DUP1 SLOAD PUSH2 0x9B6 SWAP1 PUSH2 0x3166 JUMP JUMPDEST ISZERO ISZERO SWAP1 POP PUSH2 0x9D6 JUMPI PUSH1 0x40 MLOAD PUSH3 0x461BCD PUSH1 0xE5 SHL DUP2 MSTORE PUSH1 0x4 ADD PUSH2 0x83E SWAP1 PUSH2 0x2F38 JUMP JUMPDEST CALLER PUSH1 0x0 DUP2 DUP2 MSTORE PUSH1 0x1 PUSH1 0x20 DUP2 DUP2 MSTORE PUSH1 0x40 DUP1 DUP5 KECCAK256 DUP4 ADD DUP1 SLOAD PUSH1 0xFF NOT AND DUP5 OR SWAP1 SSTORE DUP1 MLOAD DUP1 DUP3 ADD SWAP1 SWAP2 MSTORE SWAP4 DUP5 MSTORE DUP4 ADD DUP7 SWAP1 MSTORE PUSH1 0x4 DUP1 SLOAD SWAP2 SWAP6 POP SWAP1 SWAP2 PUSH2 0xA16 DUP4 PUSH2 0x31C8 JUMP JUMPDEST SWAP1 SWAP2 SSTORE POP POP PUSH1 0x4 SLOAD PUSH1 0x0 SWAP1 DUP2 MSTORE PUSH1 0x7 PUSH1 0x20 SWAP1 DUP2 MSTORE PUSH1 0x40 SWAP1 SWAP2 KECCAK256 DUP3 MLOAD DUP2 SLOAD PUSH1 0x1 PUSH1 0x1 PUSH1 0xA0 SHL SUB NOT AND PUSH1 0x1 PUSH1 0x1 PUSH1 0xA0 SHL SUB SWAP1 SWAP2 AND OR DUP2 SSTORE SWAP1 DUP3 ADD MLOAD PUSH1 0x1 SWAP1 SWAP2 ADD SSTORE PUSH1 0x3 SLOAD PUSH2 0xA64 SWAP1 PUSH1 0x2 SWAP1 PUSH2 0x3114 JUMP JUMPDEST PUSH2 0xA6F SWAP1 PUSH1 0x1 PUSH2 0x30FC JUMP JUMPDEST PUSH1 0x4 SLOAD LT PUSH2 0xA7F JUMPI PUSH2 0xA7F PUSH2 0x271B JUMP JUMPDEST POP JUMPDEST POP SWAP2 SWAP1 POP JUMP JUMPDEST PUSH20 0x0 PUSH4 0xABCD7960 PUSH2 0xAD0 PUSH1 0x40 MLOAD DUP1 PUSH1 0x40 ADD PUSH1 0x40 MSTORE DUP1 PUSH1 0xE DUP2 MSTORE PUSH1 0x20 ADD PUSH14 0x436F757274796172642043616665 PUSH1 0x90 SHL DUP2 MSTORE POP PUSH2 0x1529 JUMP JUMPDEST PUSH1 0x40 MLOAD PUSH1 0x1 PUSH1 0x1 PUSH1 0xE0 SHL SUB NOT PUSH1 0xE0 DUP5 SWAP1 SHL AND DUP2 MSTORE PUSH1 0x4 DUP2 ADD SWAP2 SWAP1 SWAP2 MSTORE PUSH1 0x1 PUSH1 0x24 DUP3 ADD MSTORE PUSH1 0x60 PUSH1 0x44 DUP3 ADD MSTORE PUSH1 0x14 PUSH1 0x64 DUP3 ADD MSTORE PUSH20 0x53686F756C6420626520657175616C20746F2031 PUSH1 0x60 SHL PUSH1 0x84 DUP3 ADD MSTORE PUSH1 0xA4 ADD PUSH1 0x20 PUSH1 0x40 MLOAD DUP1 DUP4 SUB DUP2 DUP7 DUP1 EXTCODESIZE ISZERO DUP1 ISZERO PUSH2 0xB39 JUMPI PUSH1 0x0 DUP1 REVERT JUMPDEST POP GAS DELEGATECALL ISZERO DUP1 ISZERO PUSH2 0xB4D JUMPI RETURNDATASIZE PUSH1 0x0 DUP1 RETURNDATACOPY RETURNDATASIZE PUSH1 0x0 REVERT JUMPDEST POP POP POP POP PUSH1 0x40 MLOAD RETURNDATASIZE PUSH1 0x1F NOT PUSH1 0x1F DUP3 ADD AND DUP3 ADD DUP1 PUSH1 0x40 MSTORE POP DUP2 ADD SWAP1 PUSH2 0xB71 SWAP2 SWAP1 PUSH2 0x2A28 JUMP JUMPDEST POP PUSH20 0x0 PUSH4 0xABCD7960 PUSH2 0xBB5 PUSH1 0x40 MLOAD DUP1 PUSH1 0x40 ADD PUSH1 0x40 MSTORE DUP1 PUSH1 0x8 DUP2 MSTORE PUSH1 0x20 ADD PUSH8 0x556E692043616665 PUSH1 0xC0 SHL DUP2 MSTORE POP PUSH2 0x1529 JUMP JUMPDEST PUSH1 0x40 MLOAD PUSH1 0x1 PUSH1 0x1 PUSH1 0xE0 SHL SUB NOT PUSH1 0xE0 DUP5 SWAP1 SHL AND DUP2 MSTORE PUSH1 0x4 DUP2 ADD SWAP2 SWAP1 SWAP2 MSTORE PUSH1 0x2 PUSH1 0x24 DUP3 ADD MSTORE PUSH1 0x60 PUSH1 0x44 DUP3 ADD MSTORE PUSH1 0x14 PUSH1 0x64 DUP3 ADD MSTORE PUSH20 0x29B437BAB6321031329032B8BAB0B6103A379019 PUSH1 0x61 SHL PUSH1 0x84 DUP3 ADD MSTORE PUSH1 0xA4 ADD JUMPDEST PUSH1 0x20 PUSH1 0x40 MLOAD DUP1 DUP4 SUB DUP2 DUP7 DUP1 EXTCODESIZE ISZERO DUP1 ISZERO PUSH2 0xC1F JUMPI PUSH1 0x0 DUP1 REVERT JUMPDEST POP GAS DELEGATECALL ISZERO DUP1 ISZERO PUSH2 0xC33 JUMPI RETURNDATASIZE PUSH1 0x0 DUP1 RETURNDATACOPY RETURNDATASIZE PUSH1 0x0 REVERT JUMPDEST POP POP POP POP PUSH1 0x40 MLOAD RETURNDATASIZE PUSH1 0x1F NOT PUSH1 0x1F DUP3 ADD AND DUP3 ADD DUP1 PUSH1 0x40 MSTORE POP DUP2 ADD SWAP1 PUSH2 0xC57 SWAP2 SWAP1 PUSH2 0x2A28 JUMP JUMPDEST POP JUMP JUMPDEST PUSH1 0x40 MLOAD PUSH4 0x36BBDE9F PUSH1 0xE1 SHL DUP2 MSTORE PUSH1 0x20 PUSH1 0x4 DUP3 ADD MSTORE PUSH1 0xE PUSH1 0x24 DUP3 ADD MSTORE PUSH14 0x436F757274796172642043616665 PUSH1 0x90 SHL PUSH1 0x44 DUP3 ADD MSTORE ADDRESS SWAP1 PUSH4 0x6D77BD3E SWAP1 PUSH1 0x64 ADD PUSH1 0x20 PUSH1 0x40 MLOAD DUP1 DUP4 SUB DUP2 PUSH1 0x0 DUP8 DUP1 EXTCODESIZE ISZERO DUP1 ISZERO PUSH2 0xCB1 JUMPI PUSH1 0x0 DUP1 REVERT JUMPDEST POP GAS CALL SWAP3 POP POP POP DUP1 ISZERO PUSH2 0xCE1 JUMPI POP PUSH1 0x40 DUP1 MLOAD PUSH1 0x1F RETURNDATASIZE SWAP1 DUP2 ADD PUSH1 0x1F NOT AND DUP3 ADD SWAP1 SWAP3 MSTORE PUSH2 0xCDE SWAP2 DUP2 ADD SWAP1 PUSH2 0x2AA0 JUMP JUMPDEST PUSH1 0x1 JUMPDEST PUSH2 0xD44 JUMPI PUSH2 0xCED PUSH2 0x3225 JUMP JUMPDEST DUP1 PUSH4 0x8C379A0 EQ ISZERO PUSH2 0x67C JUMPI POP PUSH2 0xD02 PUSH2 0x3241 JUMP JUMPDEST DUP1 PUSH2 0xD0D JUMPI POP PUSH2 0x712 JUMP JUMPDEST PUSH1 0x40 MLOAD PUSH4 0x7461658B PUSH1 0xE1 SHL DUP2 MSTORE PUSH20 0x0 SWAP1 PUSH4 0xE8C2CB16 SWAP1 PUSH2 0x628 SWAP1 DUP5 SWAP1 PUSH1 0x4 ADD PUSH2 0x2D8C JUMP JUMPDEST PUSH1 0x40 MLOAD PUSH4 0x2B080AF1 PUSH1 0xE1 SHL DUP2 MSTORE PUSH20 0x0 SWAP1 PUSH4 0x561015E2 SWAP1 PUSH2 0x628 SWAP1 DUP5 SWAP1 PUSH1 0x3 SWAP1 PUSH1 0x4 ADD PUSH2 0x30B3 JUMP JUMPDEST PUSH1 0x1 PUSH1 0x20 MSTORE PUSH1 0x0 SWAP1 DUP2 MSTORE PUSH1 0x40 SWAP1 KECCAK256 DUP1 SLOAD DUP2 SWAP1 PUSH2 0xD99 SWAP1 PUSH2 0x3166 JUMP JUMPDEST DUP1 PUSH1 0x1F ADD PUSH1 0x20 DUP1 SWAP2 DIV MUL PUSH1 0x20 ADD PUSH1 0x40 MLOAD SWAP1 DUP2 ADD PUSH1 0x40 MSTORE DUP1 SWAP3 SWAP2 SWAP1 DUP2 DUP2 MSTORE PUSH1 0x20 ADD DUP3 DUP1 SLOAD PUSH2 0xDC5 SWAP1 PUSH2 0x3166 JUMP JUMPDEST DUP1 ISZERO PUSH2 0xE12 JUMPI DUP1 PUSH1 0x1F LT PUSH2 0xDE7 JUMPI PUSH2 0x100 DUP1 DUP4 SLOAD DIV MUL DUP4 MSTORE SWAP2 PUSH1 0x20 ADD SWAP2 PUSH2 0xE12 JUMP JUMPDEST DUP3 ADD SWAP2 SWAP1 PUSH1 0x0 MSTORE PUSH1 0x20 PUSH1 0x0 KECCAK256 SWAP1 JUMPDEST DUP2 SLOAD DUP2 MSTORE SWAP1 PUSH1 0x1 ADD SWAP1 PUSH1 0x20 ADD DUP1 DUP4 GT PUSH2 0xDF5 JUMPI DUP3 SWAP1 SUB PUSH1 0x1F AND DUP3 ADD SWAP2 JUMPDEST POP POP POP PUSH1 0x1 SWAP1 SWAP4 ADD SLOAD SWAP2 SWAP3 POP POP PUSH1 0xFF AND DUP3 JUMP JUMPDEST PUSH20 0x0 PUSH4 0x39DF137F PUSH2 0xE49 PUSH1 0x2 PUSH2 0x818 JUMP JUMPDEST PUSH1 0x40 DUP1 MLOAD PUSH1 0x1 PUSH1 0x1 PUSH1 0xE0 SHL SUB NOT PUSH1 0xE0 DUP6 SWAP1 SHL AND DUP2 MSTORE SWAP2 ISZERO ISZERO PUSH1 0x4 DUP4 ADD MSTORE PUSH1 0x24 DUP3 ADD MSTORE PUSH1 0x1C PUSH1 0x44 DUP3 ADD MSTORE PUSH32 0x566F74696E6720726573756C742073686F756C64206265207472756500000000 PUSH1 0x64 DUP3 ADD MSTORE PUSH1 0x84 ADD PUSH2 0xC07 JUMP JUMPDEST PUSH1 0x5 SLOAD PUSH1 0x0 SWAP1 PUSH1 0x1 PUSH1 0x1 PUSH1 0xA0 SHL SUB AND CALLER EQ PUSH2 0xECD JUMPI PUSH1 0x40 MLOAD PUSH3 0x461BCD PUSH1 0xE5 SHL DUP2 MSTORE PUSH1 0x4 ADD PUSH2 0x83E SWAP1 PUSH2 0x3018 JUMP JUMPDEST PUSH1 0xB SLOAD PUSH1 0xFF AND ISZERO PUSH2 0xEF0 JUMPI PUSH1 0x40 MLOAD PUSH3 0x461BCD PUSH1 0xE5 SHL DUP2 MSTORE PUSH1 0x4 ADD PUSH2 0x83E SWAP1 PUSH2 0x2FE8 JUMP JUMPDEST PUSH1 0x0 DUP1 PUSH1 0x9 SLOAD PUSH2 0x100 SWAP1 DIV PUSH1 0xFF AND PUSH1 0x2 DUP2 GT ISZERO PUSH2 0xF0F JUMPI PUSH2 0xF0F PUSH2 0x31F9 JUMP JUMPDEST EQ PUSH2 0xF2C JUMPI PUSH1 0x40 MLOAD PUSH3 0x461BCD PUSH1 0xE5 SHL DUP2 MSTORE PUSH1 0x4 ADD PUSH2 0x83E SWAP1 PUSH2 0x302A JUMP JUMPDEST PUSH1 0x1 PUSH1 0x1 PUSH1 0xA0 SHL SUB DUP5 AND PUSH1 0x0 SWAP1 DUP2 MSTORE PUSH1 0x1 PUSH1 0x20 MSTORE PUSH1 0x40 SWAP1 KECCAK256 DUP1 SLOAD PUSH2 0xF4F SWAP1 PUSH2 0x3166 JUMP JUMPDEST ISZERO SWAP1 POP PUSH2 0xF6E JUMPI PUSH1 0x40 MLOAD PUSH3 0x461BCD PUSH1 0xE5 SHL DUP2 MSTORE PUSH1 0x4 ADD PUSH2 0x83E SWAP1 PUSH2 0x2FB2 JUMP JUMPDEST PUSH1 0x0 DUP4 MLOAD GT PUSH2 0xFB7 JUMPI PUSH1 0x40 MLOAD PUSH3 0x461BCD PUSH1 0xE5 SHL DUP2 MSTORE PUSH1 0x20 PUSH1 0x4 DUP3 ADD MSTORE PUSH1 0x15 PUSH1 0x24 DUP3 ADD MSTORE PUSH21 0x2730B6B29031B0B73737BA1031329032B6B83A3C97 PUSH1 0x59 SHL PUSH1 0x44 DUP3 ADD MSTORE PUSH1 0x64 ADD PUSH2 0x83E JUMP JUMPDEST PUSH1 0x40 DUP1 MLOAD DUP1 DUP3 ADD DUP3 MSTORE PUSH1 0x0 PUSH1 0x20 DUP1 DUP4 ADD DUP3 SWAP1 MSTORE DUP7 DUP4 MSTORE PUSH1 0x1 PUSH1 0x1 PUSH1 0xA0 SHL SUB DUP9 AND DUP3 MSTORE PUSH1 0x1 DUP2 MSTORE SWAP3 SWAP1 KECCAK256 DUP2 MLOAD DUP1 MLOAD SWAP3 SWAP4 DUP5 SWAP4 PUSH2 0xFF5 SWAP3 DUP5 SWAP3 ADD SWAP1 PUSH2 0x280F JUMP JUMPDEST POP PUSH1 0x20 SWAP2 SWAP1 SWAP2 ADD MLOAD PUSH1 0x1 SWAP1 SWAP2 ADD DUP1 SLOAD PUSH1 0xFF NOT AND SWAP2 ISZERO ISZERO SWAP2 SWAP1 SWAP2 OR SWAP1 SSTORE PUSH1 0x3 DUP1 SLOAD SWAP1 PUSH1 0x0 PUSH2 0x1021 DUP4 PUSH2 0x31C8 JUMP JUMPDEST SWAP1 SWAP2 SSTORE POP POP PUSH1 0x3 SLOAD SWAP6 SWAP5 POP POP POP POP POP JUMP JUMPDEST PUSH1 0x5 SLOAD PUSH1 0x1 PUSH1 0x1 PUSH1 0xA0 SHL SUB AND CALLER EQ PUSH2 0x105C JUMPI PUSH1 0x40 MLOAD PUSH3 0x461BCD PUSH1 0xE5 SHL DUP2 MSTORE PUSH1 0x4 ADD PUSH2 0x83E SWAP1 PUSH2 0x3018 JUMP JUMPDEST PUSH1 0xB SLOAD PUSH1 0xFF AND ISZERO PUSH2 0x107F JUMPI PUSH1 0x40 MLOAD PUSH3 0x461BCD PUSH1 0xE5 SHL DUP2 MSTORE PUSH1 0x4 ADD PUSH2 0x83E SWAP1 PUSH2 0x2FE8 JUMP JUMPDEST PUSH1 0x0 DUP1 PUSH1 0x9 SLOAD PUSH2 0x100 SWAP1 DIV PUSH1 0xFF AND PUSH1 0x2 DUP2 GT ISZERO PUSH2 0x109E JUMPI PUSH2 0x109E PUSH2 0x31F9 JUMP JUMPDEST EQ PUSH2 0x10BB JUMPI PUSH1 0x40 MLOAD PUSH3 0x461BCD PUSH1 0xE5 SHL DUP2 MSTORE PUSH1 0x4 ADD PUSH2 0x83E SWAP1 PUSH2 0x302A JUMP JUMPDEST PUSH1 0x1 PUSH1 0x2 SLOAD GT PUSH2 0x111C JUMPI PUSH1 0x40 MLOAD PUSH3 0x461BCD PUSH1 0xE5 SHL DUP2 MSTORE PUSH1 0x20 PUSH1 0x4 DUP3 ADD MSTORE PUSH1 0x26 PUSH1 0x24 DUP3 ADD MSTORE PUSH32 0x4174206C65617374206F6E652072657374617572616E74206D75737420626520 PUSH1 0x44 DUP3 ADD MSTORE PUSH6 0x30B23232B217 PUSH1 0xD1 SHL PUSH1 0x64 DUP3 ADD MSTORE PUSH1 0x84 ADD PUSH2 0x83E JUMP JUMPDEST PUSH1 0x1 PUSH1 0x3 SLOAD GT PUSH2 0x1179 JUMPI PUSH1 0x40 MLOAD PUSH3 0x461BCD PUSH1 0xE5 SHL DUP2 MSTORE PUSH1 0x20 PUSH1 0x4 DUP3 ADD MSTORE PUSH1 0x22 PUSH1 0x24 DUP3 ADD MSTORE PUSH32 0x4174206C65617374206F6E6520667269656E64206D7573742062652061646465 PUSH1 0x44 DUP3 ADD MSTORE PUSH2 0x3217 PUSH1 0xF1 SHL PUSH1 0x64 DUP3 ADD MSTORE PUSH1 0x84 ADD PUSH2 0x83E JUMP JUMPDEST PUSH2 0x1183 DUP3 NUMBER PUSH2 0x30FC JUMP JUMPDEST PUSH1 0xA SSTORE POP POP PUSH1 0x9 DUP1 SLOAD PUSH2 0xFFFF NOT AND PUSH2 0x101 OR SWAP1 SSTORE JUMP JUMPDEST PUSH2 0x11A4 PUSH2 0x3E8 PUSH2 0x1032 JUMP JUMPDEST PUSH1 0x40 MLOAD PUSH4 0x9212C63 PUSH1 0xE1 SHL DUP2 MSTORE PUSH2 0x3E7 PUSH1 0x4 DUP3 ADD MSTORE ADDRESS SWAP1 PUSH4 0x124258C6 SWAP1 PUSH1 0x24 ADD PUSH1 0x20 PUSH1 0x40 MLOAD DUP1 DUP4 SUB DUP2 PUSH1 0x0 DUP8 DUP1 EXTCODESIZE ISZERO DUP1 ISZERO PUSH2 0x11DE JUMPI PUSH1 0x0 DUP1 REVERT JUMPDEST POP GAS CALL SWAP3 POP POP POP DUP1 ISZERO PUSH2 0x120E JUMPI POP PUSH1 0x40 DUP1 MLOAD PUSH1 0x1F RETURNDATASIZE SWAP1 DUP2 ADD PUSH1 0x1F NOT AND DUP3 ADD SWAP1 SWAP3 MSTORE PUSH2 0x120B SWAP2 DUP2 ADD SWAP1 PUSH2 0x2A28 JUMP JUMPDEST PUSH1 0x1 JUMPDEST PUSH2 0x1271 JUMPI PUSH2 0x121A PUSH2 0x3225 JUMP JUMPDEST DUP1 PUSH4 0x8C379A0 EQ ISZERO PUSH2 0x67C JUMPI POP PUSH2 0x122F PUSH2 0x3241 JUMP JUMPDEST DUP1 PUSH2 0x123A JUMPI POP PUSH2 0x712 JUMP JUMPDEST PUSH1 0x40 MLOAD PUSH4 0x7461658B PUSH1 0xE1 SHL DUP2 MSTORE PUSH20 0x0 SWAP1 PUSH4 0xE8C2CB16 SWAP1 PUSH2 0x628 SWAP1 DUP5 SWAP1 PUSH1 0x4 ADD PUSH2 0x2C26 JUMP JUMPDEST PUSH1 0x40 MLOAD PUSH4 0x767392B3 PUSH1 0xE0 SHL DUP2 MSTORE DUP2 ISZERO ISZERO PUSH1 0x4 DUP3 ADD MSTORE PUSH1 0x0 PUSH1 0x24 DUP3 ADD MSTORE PUSH1 0x60 PUSH1 0x44 DUP3 ADD MSTORE PUSH1 0x34 PUSH1 0x64 DUP3 ADD MSTORE PUSH32 0x566F74652073686F756C64206E6F742062652076616C696420666F72206E6F6E PUSH1 0x84 DUP3 ADD MSTORE PUSH20 0xB595E1A5CDD195B9D081C995CDD185D5C985B9D PUSH1 0x62 SHL PUSH1 0xA4 DUP3 ADD MSTORE PUSH20 0x0 SWAP1 PUSH4 0x767392B3 SWAP1 PUSH1 0xC4 ADD PUSH2 0x628 JUMP JUMPDEST PUSH1 0x40 MLOAD PUSH4 0x36BBDE9F PUSH1 0xE1 SHL DUP2 MSTORE PUSH1 0x20 PUSH1 0x4 DUP3 ADD MSTORE PUSH1 0xB PUSH1 0x24 DUP3 ADD MSTORE PUSH11 0x41746F6D69632043616665 PUSH1 0xA8 SHL PUSH1 0x44 DUP3 ADD MSTORE ADDRESS SWAP1 PUSH4 0x6D77BD3E SWAP1 PUSH1 0x64 ADD PUSH1 0x20 PUSH1 0x40 MLOAD DUP1 DUP4 SUB DUP2 PUSH1 0x0 DUP8 DUP1 EXTCODESIZE ISZERO DUP1 ISZERO PUSH2 0x1356 JUMPI PUSH1 0x0 DUP1 REVERT JUMPDEST POP GAS CALL SWAP3 POP POP POP DUP1 ISZERO PUSH2 0x1386 JUMPI POP PUSH1 0x40 DUP1 MLOAD PUSH1 0x1F RETURNDATASIZE SWAP1 DUP2 ADD PUSH1 0x1F NOT AND DUP3 ADD SWAP1 SWAP3 MSTORE PUSH2 0x1383 SWAP2 DUP2 ADD SWAP1 PUSH2 0x2AA0 JUMP JUMPDEST PUSH1 0x1 JUMPDEST PUSH2 0xD44 JUMPI PUSH2 0x1392 PUSH2 0x3225 JUMP JUMPDEST DUP1 PUSH4 0x8C379A0 EQ ISZERO PUSH2 0x67C JUMPI POP PUSH2 0x13A7 PUSH2 0x3241 JUMP JUMPDEST DUP1 PUSH2 0x13B2 JUMPI POP PUSH2 0x712 JUMP JUMPDEST PUSH1 0x40 MLOAD PUSH4 0x7461658B PUSH1 0xE1 SHL DUP2 MSTORE PUSH20 0x0 SWAP1 PUSH4 0xE8C2CB16 SWAP1 PUSH2 0x628 SWAP1 DUP5 SWAP1 PUSH1 0x4 ADD PUSH2 0x2D44 JUMP JUMPDEST PUSH1 0x40 MLOAD PUSH4 0x9212C63 PUSH1 0xE1 SHL DUP2 MSTORE PUSH1 0x1 PUSH1 0x4 DUP3 ADD MSTORE ADDRESS SWAP1 PUSH4 0x124258C6 SWAP1 PUSH1 0x24 ADD PUSH1 0x20 PUSH1 0x40 MLOAD DUP1 DUP4 SUB DUP2 PUSH1 0x0 DUP8 DUP1 EXTCODESIZE ISZERO DUP1 ISZERO PUSH2 0x1422 JUMPI PUSH1 0x0 DUP1 REVERT JUMPDEST POP GAS CALL SWAP3 POP POP POP DUP1 ISZERO PUSH2 0x1452 JUMPI POP PUSH1 0x40 DUP1 MLOAD PUSH1 0x1F RETURNDATASIZE SWAP1 DUP2 ADD PUSH1 0x1F NOT AND DUP3 ADD SWAP1 SWAP3 MSTORE PUSH2 0x144F SWAP2 DUP2 ADD SWAP1 PUSH2 0x2A28 JUMP JUMPDEST PUSH1 0x1 JUMPDEST PUSH2 0x14B5 JUMPI PUSH2 0x145E PUSH2 0x3225 JUMP JUMPDEST DUP1 PUSH4 0x8C379A0 EQ ISZERO PUSH2 0x67C JUMPI POP PUSH2 0x1473 PUSH2 0x3241 JUMP JUMPDEST DUP1 PUSH2 0x147E JUMPI POP PUSH2 0x712 JUMP JUMPDEST PUSH1 0x40 MLOAD PUSH4 0x7461658B PUSH1 0xE1 SHL DUP2 MSTORE PUSH20 0x0 SWAP1 PUSH4 0xE8C2CB16 SWAP1 PUSH2 0x628 SWAP1 DUP5 SWAP1 PUSH1 0x4 ADD PUSH2 0x2D68 JUMP JUMPDEST PUSH1 0x40 MLOAD PUSH4 0x767392B3 PUSH1 0xE0 SHL DUP2 MSTORE DUP2 ISZERO ISZERO PUSH1 0x4 DUP3 ADD MSTORE PUSH1 0x0 PUSH1 0x24 DUP3 ADD MSTORE PUSH1 0x60 PUSH1 0x44 DUP3 ADD MSTORE PUSH1 0x18 PUSH1 0x64 DUP3 ADD MSTORE PUSH32 0x566F74652073686F756C64206E6F742062652076616C69640000000000000000 PUSH1 0x84 DUP3 ADD MSTORE PUSH20 0x0 SWAP1 PUSH4 0x767392B3 SWAP1 PUSH1 0xA4 ADD PUSH2 0x628 JUMP JUMPDEST PUSH1 0x5 SLOAD PUSH1 0x0 SWAP1 PUSH1 0x1 PUSH1 0x1 PUSH1 0xA0 SHL SUB AND CALLER EQ PUSH2 0x1556 JUMPI PUSH1 0x40 MLOAD PUSH3 0x461BCD PUSH1 0xE5 SHL DUP2 MSTORE PUSH1 0x4 ADD PUSH2 0x83E SWAP1 PUSH2 0x3018 JUMP JUMPDEST PUSH1 0xB SLOAD PUSH1 0xFF AND ISZERO PUSH2 0x1579 JUMPI PUSH1 0x40 MLOAD PUSH3 0x461BCD PUSH1 0xE5 SHL DUP2 MSTORE PUSH1 0x4 ADD PUSH2 0x83E SWAP1 PUSH2 0x2FE8 JUMP JUMPDEST PUSH1 0x0 DUP1 PUSH1 0x9 SLOAD PUSH2 0x100 SWAP1 DIV PUSH1 0xFF AND PUSH1 0x2 DUP2 GT ISZERO PUSH2 0x1598 JUMPI PUSH2 0x1598 PUSH2 0x31F9 JUMP JUMPDEST EQ PUSH2 0x15B5 JUMPI PUSH1 0x40 MLOAD PUSH3 0x461BCD PUSH1 0xE5 SHL DUP2 MSTORE PUSH1 0x4 ADD PUSH2 0x83E SWAP1 PUSH2 0x302A JUMP JUMPDEST PUSH1 0x0 DUP4 PUSH1 0x40 MLOAD PUSH1 0x20 ADD PUSH2 0x15C8 SWAP2 SWAP1 PUSH2 0x2B5E JUMP JUMPDEST PUSH1 0x40 DUP1 MLOAD PUSH1 0x1F NOT DUP2 DUP5 SUB ADD DUP2 MSTORE SWAP2 DUP2 MSTORE DUP2 MLOAD PUSH1 0x20 SWAP3 DUP4 ADD KECCAK256 PUSH1 0x0 DUP2 DUP2 MSTORE PUSH1 0xC SWAP1 SWAP4 MSTORE SWAP2 KECCAK256 SLOAD SWAP1 SWAP2 POP PUSH1 0xFF AND ISZERO PUSH2 0x1610 JUMPI PUSH1 0x40 MLOAD PUSH3 0x461BCD PUSH1 0xE5 SHL DUP2 MSTORE PUSH1 0x4 ADD PUSH2 0x83E SWAP1 PUSH2 0x303C JUMP JUMPDEST PUSH1 0x2 DUP1 SLOAD SWAP1 PUSH1 0x0 PUSH2 0x1620 DUP4 PUSH2 0x31C8 JUMP JUMPDEST SWAP1 SWAP2 SSTORE POP POP PUSH1 0x2 SLOAD PUSH1 0x0 SWAP1 DUP2 MSTORE PUSH1 0x20 DUP2 DUP2 MSTORE PUSH1 0x40 SWAP1 SWAP2 KECCAK256 DUP6 MLOAD PUSH2 0x1645 SWAP3 DUP8 ADD SWAP1 PUSH2 0x280F JUMP JUMPDEST POP PUSH1 0x0 SWAP1 DUP2 MSTORE PUSH1 0xC PUSH1 0x20 MSTORE PUSH1 0x40 SWAP1 KECCAK256 DUP1 SLOAD PUSH1 0xFF NOT AND PUSH1 0x1 OR SWAP1 SSTORE PUSH1 0x2 SLOAD SWAP2 POP POP SWAP2 SWAP1 POP JUMP JUMPDEST PUSH1 0x9 SLOAD PUSH20 0x0 SWAP1 PUSH4 0xABCD7960 SWAP1 PUSH2 0x100 SWAP1 DIV PUSH1 0xFF AND PUSH1 0x2 DUP2 GT ISZERO PUSH2 0x16A2 JUMPI PUSH2 0x16A2 PUSH2 0x31F9 JUMP JUMPDEST PUSH1 0x2 PUSH1 0x40 MLOAD PUSH1 0x1 PUSH1 0x1 PUSH1 0xE0 SHL SUB NOT PUSH1 0xE0 DUP6 SWAP1 SHL AND DUP2 MSTORE PUSH1 0x4 DUP2 ADD SWAP3 SWAP1 SWAP3 MSTORE PUSH1 0x24 DUP3 ADD MSTORE PUSH1 0x60 PUSH1 0x44 DUP3 ADD MSTORE PUSH1 0x15 PUSH1 0x64 DUP3 ADD MSTORE PUSH21 0x141A185CD9481CDA1BDD5B1908189948115B991959 PUSH1 0x5A SHL PUSH1 0x84 DUP3 ADD MSTORE PUSH1 0xA4 ADD PUSH2 0xC07 JUMP JUMPDEST PUSH1 0x11 SLOAD PUSH1 0x40 DUP1 MLOAD PUSH4 0x3B9F708D PUSH1 0xE0 SHL DUP2 MSTORE PUSH1 0x1 PUSH1 0x1 PUSH1 0xA0 SHL SUB SWAP1 SWAP3 AND PUSH1 0x4 DUP4 ADD MSTORE PUSH1 0x24 DUP3 ADD MSTORE PUSH1 0x7 PUSH1 0x44 DUP3 ADD MSTORE PUSH7 0x44616E69656C73 PUSH1 0xC8 SHL PUSH1 0x64 DUP3 ADD MSTORE ADDRESS SWAP1 PUSH4 0x3B9F708D SWAP1 PUSH1 0x84 ADD PUSH1 0x20 PUSH1 0x40 MLOAD DUP1 DUP4 SUB DUP2 PUSH1 0x0 DUP8 DUP1 EXTCODESIZE ISZERO DUP1 ISZERO PUSH2 0x175B JUMPI PUSH1 0x0 DUP1 REVERT JUMPDEST POP GAS CALL SWAP3 POP POP POP DUP1 ISZERO PUSH2 0x178B JUMPI POP PUSH1 0x40 DUP1 MLOAD PUSH1 0x1F RETURNDATASIZE SWAP1 DUP2 ADD PUSH1 0x1F NOT AND DUP3 ADD SWAP1 SWAP3 MSTORE PUSH2 0x1788 SWAP2 DUP2 ADD SWAP1 PUSH2 0x2AA0 JUMP JUMPDEST PUSH1 0x1 JUMPDEST PUSH2 0x1797 JUMPI PUSH2 0x1392 PUSH2 0x3225 JUMP JUMPDEST PUSH1 0x40 MLOAD PUSH4 0x2B080AF1 PUSH1 0xE1 SHL DUP2 MSTORE PUSH20 0x0 SWAP1 PUSH4 0x561015E2 SWAP1 PUSH2 0x628 SWAP1 DUP5 SWAP1 PUSH1 0x5 SWAP1 PUSH1 0x4 ADD PUSH2 0x30B3 JUMP JUMPDEST PUSH1 0xD SLOAD PUSH1 0x40 DUP1 MLOAD PUSH4 0x3B9F708D PUSH1 0xE0 SHL DUP2 MSTORE PUSH1 0x1 PUSH1 0x1 PUSH1 0xA0 SHL SUB SWAP1 SWAP3 AND PUSH1 0x4 DUP4 ADD MSTORE PUSH1 0x24 DUP3 ADD MSTORE PUSH1 0x6 PUSH1 0x44 DUP3 ADD MSTORE PUSH6 0x20B634B1B299 PUSH1 0xD1 SHL PUSH1 0x64 DUP3 ADD MSTORE ADDRESS SWAP1 PUSH4 0x3B9F708D SWAP1 PUSH1 0x84 ADD PUSH1 0x20 PUSH1 0x40 MLOAD DUP1 DUP4 SUB DUP2 PUSH1 0x0 DUP8 DUP1 EXTCODESIZE ISZERO DUP1 ISZERO PUSH2 0x1832 JUMPI PUSH1 0x0 DUP1 REVERT JUMPDEST POP GAS CALL SWAP3 POP POP POP DUP1 ISZERO PUSH2 0x1862 JUMPI POP PUSH1 0x40 DUP1 MLOAD PUSH1 0x1F RETURNDATASIZE SWAP1 DUP2 ADD PUSH1 0x1F NOT AND DUP3 ADD SWAP1 SWAP3 MSTORE PUSH2 0x185F SWAP2 DUP2 ADD SWAP1 PUSH2 0x2AA0 JUMP JUMPDEST PUSH1 0x1 JUMPDEST PUSH2 0x1797 JUMPI PUSH2 0x186E PUSH2 0x3225 JUMP JUMPDEST DUP1 PUSH4 0x8C379A0 EQ ISZERO PUSH2 0x67C JUMPI POP PUSH2 0x1883 PUSH2 0x3241 JUMP JUMPDEST DUP1 PUSH2 0x188E JUMPI POP PUSH2 0x712 JUMP JUMPDEST PUSH1 0x40 MLOAD PUSH4 0x7461658B PUSH1 0xE1 SHL DUP2 MSTORE PUSH20 0x0 SWAP1 PUSH4 0xE8C2CB16 SWAP1 PUSH2 0x628 SWAP1 DUP5 SWAP1 PUSH1 0x4 ADD PUSH2 0x2CFC JUMP JUMPDEST PUSH1 0x40 MLOAD PUSH4 0xCE88B145 PUSH1 0xE0 SHL DUP2 MSTORE PUSH1 0x0 PUSH1 0x4 DUP3 ADD MSTORE PUSH20 0x0 SWAP1 PUSH4 0xCE88B145 SWAP1 PUSH1 0x24 ADD PUSH1 0x20 PUSH1 0x40 MLOAD DUP1 DUP4 SUB DUP2 DUP7 DUP1 EXTCODESIZE ISZERO DUP1 ISZERO PUSH2 0x1910 JUMPI PUSH1 0x0 DUP1 REVERT JUMPDEST POP GAS DELEGATECALL ISZERO DUP1 ISZERO PUSH2 0x1924 JUMPI RETURNDATASIZE PUSH1 0x0 DUP1 RETURNDATACOPY RETURNDATASIZE PUSH1 0x0 REVERT JUMPDEST POP POP POP POP PUSH1 0x40 MLOAD RETURNDATASIZE PUSH1 0x1F NOT PUSH1 0x1F DUP3 ADD AND DUP3 ADD DUP1 PUSH1 0x40 MSTORE POP DUP2 ADD SWAP1 PUSH2 0x1948 SWAP2 SWAP1 PUSH2 0x29BB JUMP JUMPDEST PUSH1 0xD DUP1 SLOAD PUSH1 0x1 PUSH1 0x1 PUSH1 0xA0 SHL SUB NOT AND PUSH1 0x1 PUSH1 0x1 PUSH1 0xA0 SHL SUB SWAP3 SWAP1 SWAP3 AND SWAP2 SWAP1 SWAP2 OR SWAP1 SSTORE PUSH1 0x40 MLOAD PUSH4 0xCE88B145 PUSH1 0xE0 SHL DUP2 MSTORE PUSH1 0x1 PUSH1 0x4 DUP3 ADD MSTORE PUSH20 0x0 SWAP1 PUSH4 0xCE88B145 SWAP1 PUSH1 0x24 ADD PUSH1 0x20 PUSH1 0x40 MLOAD DUP1 DUP4 SUB DUP2 DUP7 DUP1 EXTCODESIZE ISZERO DUP1 ISZERO PUSH2 0x19B3 JUMPI PUSH1 0x0 DUP1 REVERT JUMPDEST POP GAS DELEGATECALL ISZERO DUP1 ISZERO PUSH2 0x19C7 JUMPI RETURNDATASIZE PUSH1 0x0 DUP1 RETURNDATACOPY RETURNDATASIZE PUSH1 0x0 REVERT JUMPDEST POP POP POP POP PUSH1 0x40 MLOAD RETURNDATASIZE PUSH1 0x1F NOT PUSH1 0x1F DUP3 ADD AND DUP3 ADD DUP1 PUSH1 0x40 MSTORE POP DUP2 ADD SWAP1 PUSH2 0x19EB SWAP2 SWAP1 PUSH2 0x29BB JUMP JUMPDEST PUSH1 0xE DUP1 SLOAD PUSH1 0x1 PUSH1 0x1 PUSH1 0xA0 SHL SUB NOT AND PUSH1 0x1 PUSH1 0x1 PUSH1 0xA0 SHL SUB SWAP3 SWAP1 SWAP3 AND SWAP2 SWAP1 SWAP2 OR SWAP1 SSTORE PUSH1 0x40 MLOAD PUSH4 0xCE88B145 PUSH1 0xE0 SHL DUP2 MSTORE PUSH1 0x2 PUSH1 0x4 DUP3 ADD MSTORE PUSH20 0x0 SWAP1 PUSH4 0xCE88B145 SWAP1 PUSH1 0x24 ADD PUSH1 0x20 PUSH1 0x40 MLOAD DUP1 DUP4 SUB DUP2 DUP7 DUP1 EXTCODESIZE ISZERO DUP1 ISZERO PUSH2 0x1A56 JUMPI PUSH1 0x0 DUP1 REVERT JUMPDEST POP GAS DELEGATECALL ISZERO DUP1 ISZERO PUSH2 0x1A6A JUMPI RETURNDATASIZE PUSH1 0x0 DUP1 RETURNDATACOPY RETURNDATASIZE PUSH1 0x0 REVERT JUMPDEST POP POP POP POP PUSH1 0x40 MLOAD RETURNDATASIZE PUSH1 0x1F NOT PUSH1 0x1F DUP3 ADD AND DUP3 ADD DUP1 PUSH1 0x40 MSTORE POP DUP2 ADD SWAP1 PUSH2 0x1A8E SWAP2 SWAP1 PUSH2 0x29BB JUMP JUMPDEST PUSH1 0xF DUP1 SLOAD PUSH1 0x1 PUSH1 0x1 PUSH1 0xA0 SHL SUB NOT AND PUSH1 0x1 PUSH1 0x1 PUSH1 0xA0 SHL SUB SWAP3 SWAP1 SWAP3 AND SWAP2 SWAP1 SWAP2 OR SWAP1 SSTORE PUSH1 0x40 MLOAD PUSH4 0xCE88B145 PUSH1 0xE0 SHL DUP2 MSTORE PUSH1 0x3 PUSH1 0x4 DUP3 ADD MSTORE PUSH20 0x0 SWAP1 PUSH4 0xCE88B145 SWAP1 PUSH1 0x24 ADD PUSH1 0x20 PUSH1 0x40 MLOAD DUP1 DUP4 SUB DUP2 DUP7 DUP1 EXTCODESIZE ISZERO DUP1 ISZERO PUSH2 0x1AF9 JUMPI PUSH1 0x0 DUP1 REVERT JUMPDEST POP GAS DELEGATECALL ISZERO DUP1 ISZERO PUSH2 0x1B0D JUMPI RETURNDATASIZE PUSH1 0x0 DUP1 RETURNDATACOPY RETURNDATASIZE PUSH1 0x0 REVERT JUMPDEST POP POP POP POP PUSH1 0x40 MLOAD RETURNDATASIZE PUSH1 0x1F NOT PUSH1 0x1F DUP3 ADD AND DUP3 ADD DUP1 PUSH1 0x40 MSTORE POP DUP2 ADD SWAP1 PUSH2 0x1B31 SWAP2 SWAP1 PUSH2 0x29BB JUMP JUMPDEST PUSH1 0x10 DUP1 SLOAD PUSH1 0x1 PUSH1 0x1 PUSH1 0xA0 SHL SUB NOT AND PUSH1 0x1 PUSH1 0x1 PUSH1 0xA0 SHL SUB SWAP3 SWAP1 SWAP3 AND SWAP2 SWAP1 SWAP2 OR SWAP1 SSTORE PUSH1 0x40 MLOAD PUSH4 0xCE88B145 PUSH1 0xE0 SHL DUP2 MSTORE PUSH1 0x4 DUP1 DUP3 ADD MSTORE PUSH20 0x0 SWAP1 PUSH4 0xCE88B145 SWAP1 PUSH1 0x24 ADD PUSH1 0x20 PUSH1 0x40 MLOAD DUP1 DUP4 SUB DUP2 DUP7 DUP1 EXTCODESIZE ISZERO DUP1 ISZERO PUSH2 0x1B9B JUMPI PUSH1 0x0 DUP1 REVERT JUMPDEST POP GAS DELEGATECALL ISZERO DUP1 ISZERO PUSH2 0x1BAF JUMPI RETURNDATASIZE PUSH1 0x0 DUP1 RETURNDATACOPY RETURNDATASIZE PUSH1 0x0 REVERT JUMPDEST POP POP POP POP PUSH1 0x40 MLOAD RETURNDATASIZE PUSH1 0x1F NOT PUSH1 0x1F DUP3 ADD AND DUP3 ADD DUP1 PUSH1 0x40 MSTORE POP DUP2 ADD SWAP1 PUSH2 0x1BD3 SWAP2 SWAP1 PUSH2 0x29BB JUMP JUMPDEST PUSH1 0x11 DUP1 SLOAD PUSH1 0x1 PUSH1 0x1 PUSH1 0xA0 SHL SUB NOT AND PUSH1 0x1 PUSH1 0x1 PUSH1 0xA0 SHL SUB SWAP3 SWAP1 SWAP3 AND SWAP2 SWAP1 SWAP2 OR SWAP1 SSTORE JUMP JUMPDEST PUSH1 0x9 SLOAD PUSH20 0x0 SWAP1 PUSH4 0xABCD7960 SWAP1 PUSH2 0x100 SWAP1 DIV PUSH1 0xFF AND PUSH1 0x2 DUP2 GT ISZERO PUSH2 0x1C2D JUMPI PUSH2 0x1C2D PUSH2 0x31F9 JUMP JUMPDEST PUSH1 0x0 PUSH1 0x40 MLOAD PUSH1 0x1 PUSH1 0x1 PUSH1 0xE0 SHL SUB NOT PUSH1 0xE0 DUP6 SWAP1 SHL AND DUP2 MSTORE PUSH1 0x4 DUP2 ADD SWAP3 SWAP1 SWAP3 MSTORE PUSH1 0x24 DUP3 ADD MSTORE PUSH1 0x60 PUSH1 0x44 DUP3 ADD MSTORE PUSH1 0x1D PUSH1 0x64 DUP3 ADD MSTORE PUSH32 0x496E697469616C2070686173652073686F756C64206265205365747570000000 PUSH1 0x84 DUP3 ADD MSTORE PUSH1 0xA4 ADD PUSH2 0xC07 JUMP JUMPDEST PUSH1 0xD SLOAD PUSH1 0x40 DUP1 MLOAD DUP1 DUP3 ADD SWAP1 SWAP2 MSTORE PUSH1 0x5 DUP2 MSTORE PUSH5 0x416C696365 PUSH1 0xD8 SHL PUSH1 0x20 DUP3 ADD MSTORE PUSH20 0x0 SWAP2 PUSH4 0xABCD7960 SWAP2 PUSH2 0x1CDA SWAP2 PUSH1 0x1 PUSH1 0x1 PUSH1 0xA0 SHL SUB AND SWAP1 PUSH2 0xEA0 JUMP JUMPDEST PUSH1 0x40 MLOAD PUSH1 0x1 PUSH1 0x1 PUSH1 0xE0 SHL SUB NOT PUSH1 0xE0 DUP5 SWAP1 SHL AND DUP2 MSTORE PUSH1 0x4 DUP2 ADD SWAP2 SWAP1 SWAP2 MSTORE PUSH1 0x1 PUSH1 0x24 DUP3 ADD MSTORE PUSH1 0x60 PUSH1 0x44 DUP3 ADD MSTORE PUSH1 0x14 PUSH1 0x64 DUP3 ADD MSTORE PUSH20 0x53686F756C6420626520657175616C20746F2031 PUSH1 0x60 SHL PUSH1 0x84 DUP3 ADD MSTORE PUSH1 0xA4 ADD PUSH1 0x20 PUSH1 0x40 MLOAD DUP1 DUP4 SUB DUP2 DUP7 DUP1 EXTCODESIZE ISZERO DUP1 ISZERO PUSH2 0x1D43 JUMPI PUSH1 0x0 DUP1 REVERT JUMPDEST POP GAS DELEGATECALL ISZERO DUP1 ISZERO PUSH2 0x1D57 JUMPI RETURNDATASIZE PUSH1 0x0 DUP1 RETURNDATACOPY RETURNDATASIZE PUSH1 0x0 REVERT JUMPDEST POP POP POP POP PUSH1 0x40 MLOAD RETURNDATASIZE PUSH1 0x1F NOT PUSH1 0x1F DUP3 ADD AND DUP3 ADD DUP1 PUSH1 0x40 MSTORE POP DUP2 ADD SWAP1 PUSH2 0x1D7B SWAP2 SWAP1 PUSH2 0x2A28 JUMP JUMPDEST POP PUSH1 0xE SLOAD PUSH1 0x40 DUP1 MLOAD DUP1 DUP3 ADD SWAP1 SWAP2 MSTORE PUSH1 0x3 DUP2 MSTORE PUSH3 0x2137B1 PUSH1 0xE9 SHL PUSH1 0x20 DUP3 ADD MSTORE PUSH20 0x0 SWAP2 PUSH4 0xABCD7960 SWAP2 PUSH2 0x1DC8 SWAP2 PUSH1 0x1 PUSH1 0x1 PUSH1 0xA0 SHL SUB AND SWAP1 PUSH2 0xEA0 JUMP JUMPDEST PUSH1 0x40 MLOAD PUSH1 0x1 PUSH1 0x1 PUSH1 0xE0 SHL SUB NOT PUSH1 0xE0 DUP5 SWAP1 SHL AND DUP2 MSTORE PUSH1 0x4 DUP2 ADD SWAP2 SWAP1 SWAP2 MSTORE PUSH1 0x2 PUSH1 0x24 DUP3 ADD MSTORE PUSH1 0x60 PUSH1 0x44 DUP3 ADD MSTORE PUSH1 0x14 PUSH1 0x64 DUP3 ADD MSTORE PUSH20 0x29B437BAB6321031329032B8BAB0B6103A379019 PUSH1 0x61 SHL PUSH1 0x84 DUP3 ADD MSTORE PUSH1 0xA4 ADD PUSH1 0x20 PUSH1 0x40 MLOAD DUP1 DUP4 SUB DUP2 DUP7 DUP1 EXTCODESIZE ISZERO DUP1 ISZERO PUSH2 0x1E31 JUMPI PUSH1 0x0 DUP1 REVERT JUMPDEST POP GAS DELEGATECALL ISZERO DUP1 ISZERO PUSH2 0x1E45 JUMPI RETURNDATASIZE PUSH1 0x0 DUP1 RETURNDATACOPY RETURNDATASIZE PUSH1 0x0 REVERT JUMPDEST POP POP POP POP PUSH1 0x40 MLOAD RETURNDATASIZE PUSH1 0x1F NOT PUSH1 0x1F DUP3 ADD AND DUP3 ADD DUP1 PUSH1 0x40 MSTORE POP DUP2 ADD SWAP1 PUSH2 0x1E69 SWAP2 SWAP1 PUSH2 0x2A28 JUMP JUMPDEST POP PUSH1 0xF SLOAD PUSH1 0x40 DUP1 MLOAD DUP1 DUP3 ADD SWAP1 SWAP2 MSTORE PUSH1 0x7 DUP2 MSTORE PUSH7 0x436861726C6965 PUSH1 0xC8 SHL PUSH1 0x20 DUP3 ADD MSTORE PUSH20 0x0 SWAP2 PUSH4 0xABCD7960 SWAP2 PUSH2 0x1EBA SWAP2 PUSH1 0x1 PUSH1 0x1 PUSH1 0xA0 SHL SUB AND SWAP1 PUSH2 0xEA0 JUMP JUMPDEST PUSH1 0x40 MLOAD PUSH1 0x1 PUSH1 0x1 PUSH1 0xE0 SHL SUB NOT PUSH1 0xE0 DUP5 SWAP1 SHL AND DUP2 MSTORE PUSH1 0x4 DUP2 ADD SWAP2 SWAP1 SWAP2 MSTORE PUSH1 0x3 PUSH1 0x24 DUP3 ADD MSTORE PUSH1 0x60 PUSH1 0x44 DUP3 ADD MSTORE PUSH1 0x14 PUSH1 0x64 DUP3 ADD MSTORE PUSH20 0x53686F756C6420626520657175616C20746F2033 PUSH1 0x60 SHL PUSH1 0x84 DUP3 ADD MSTORE PUSH1 0xA4 ADD PUSH1 0x20 PUSH1 0x40 MLOAD DUP1 DUP4 SUB DUP2 DUP7 DUP1 EXTCODESIZE ISZERO DUP1 ISZERO PUSH2 0x1F23 JUMPI PUSH1 0x0 DUP1 REVERT JUMPDEST POP GAS DELEGATECALL ISZERO DUP1 ISZERO PUSH2 0x1F37 JUMPI RETURNDATASIZE PUSH1 0x0 DUP1 RETURNDATACOPY RETURNDATASIZE PUSH1 0x0 REVERT JUMPDEST POP POP POP POP PUSH1 0x40 MLOAD RETURNDATASIZE PUSH1 0x1F NOT PUSH1 0x1F DUP3 ADD AND DUP3 ADD DUP1 PUSH1 0x40 MSTORE POP DUP2 ADD SWAP1 PUSH2 0x1F5B SWAP2 SWAP1 PUSH2 0x2A28 JUMP JUMPDEST POP PUSH1 0x10 SLOAD PUSH1 0x40 DUP1 MLOAD DUP1 DUP3 ADD SWAP1 SWAP2 MSTORE PUSH1 0x3 DUP2 MSTORE PUSH3 0x457665 PUSH1 0xE8 SHL PUSH1 0x20 DUP3 ADD MSTORE PUSH20 0x0 SWAP2 PUSH4 0xABCD7960 SWAP2 PUSH2 0x1FA8 SWAP2 PUSH1 0x1 PUSH1 0x1 PUSH1 0xA0 SHL SUB AND SWAP1 PUSH2 0xEA0 JUMP JUMPDEST PUSH1 0x4 PUSH1 0x40 MLOAD DUP4 PUSH4 0xFFFFFFFF AND PUSH1 0xE0 SHL DUP2 MSTORE PUSH1 0x4 ADD PUSH2 0xC07 SWAP3 SWAP2 SWAP1 SWAP2 DUP3 MSTORE PUSH1 0x20 DUP3 ADD MSTORE PUSH1 0x60 PUSH1 0x40 DUP3 ADD DUP2 SWAP1 MSTORE PUSH1 0x14 SWAP1 DUP3 ADD MSTORE PUSH20 0x14DA1BDD5B1908189948195C5D585B081D1BC80D PUSH1 0x62 SHL PUSH1 0x80 DUP3 ADD MSTORE PUSH1 0xA0 ADD SWAP1 JUMP JUMPDEST PUSH1 0x5 SLOAD PUSH1 0xD SLOAD PUSH1 0x40 MLOAD PUSH4 0x5FDD2EEB PUSH1 0xE1 SHL DUP2 MSTORE PUSH1 0x1 PUSH1 0x1 PUSH1 0xA0 SHL SUB SWAP3 DUP4 AND PUSH1 0x4 DUP3 ADD MSTORE SWAP2 AND PUSH1 0x24 DUP3 ADD MSTORE PUSH1 0x60 PUSH1 0x44 DUP3 ADD MSTORE PUSH1 0x16 PUSH1 0x64 DUP3 ADD MSTORE PUSH22 0x4D616E616765722073686F756C64206265206163633 PUSH1 0x54 SHL PUSH1 0x84 DUP3 ADD MSTORE PUSH20 0x0 SWAP1 PUSH4 0xBFBA5DD6 SWAP1 PUSH1 0xA4 ADD PUSH2 0xC07 JUMP JUMPDEST PUSH1 0x40 MLOAD PUSH4 0x9212C63 PUSH1 0xE1 SHL DUP2 MSTORE PUSH1 0x1 PUSH1 0x4 DUP3 ADD MSTORE ADDRESS SWAP1 PUSH4 0x124258C6 SWAP1 PUSH1 0x24 ADD PUSH1 0x20 PUSH1 0x40 MLOAD DUP1 DUP4 SUB DUP2 PUSH1 0x0 DUP8 DUP1 EXTCODESIZE ISZERO DUP1 ISZERO PUSH2 0x20B0 JUMPI PUSH1 0x0 DUP1 REVERT JUMPDEST POP GAS CALL SWAP3 POP POP POP DUP1 ISZERO PUSH2 0x20E0 JUMPI POP PUSH1 0x40 DUP1 MLOAD PUSH1 0x1F RETURNDATASIZE SWAP1 DUP2 ADD PUSH1 0x1F NOT AND DUP3 ADD SWAP1 SWAP3 MSTORE PUSH2 0x20DD SWAP2 DUP2 ADD SWAP1 PUSH2 0x2A28 JUMP JUMPDEST PUSH1 0x1 JUMPDEST PUSH2 0x21BA JUMPI PUSH2 0x20EC PUSH2 0x3225 JUMP JUMPDEST DUP1 PUSH4 0x8C379A0 EQ ISZERO PUSH2 0x210C JUMPI POP PUSH2 0x2101 PUSH2 0x3241 JUMP JUMPDEST DUP1 PUSH2 0x147E JUMPI POP PUSH2 0x2126 JUMP JUMPDEST PUSH4 0x4E487B71 EQ ISZERO PUSH2 0x2126 JUMPI PUSH2 0x211F PUSH2 0x32CB JUMP JUMPDEST SWAP1 PUSH2 0x69A JUMPI POP JUMPDEST RETURNDATASIZE DUP1 DUP1 ISZERO PUSH2 0x2150 JUMPI PUSH1 0x40 MLOAD SWAP2 POP PUSH1 0x1F NOT PUSH1 0x3F RETURNDATASIZE ADD AND DUP3 ADD PUSH1 0x40 MSTORE RETURNDATASIZE DUP3 MSTORE RETURNDATASIZE PUSH1 0x0 PUSH1 0x20 DUP5 ADD RETURNDATACOPY PUSH2 0x2155 JUMP JUMPDEST PUSH1 0x60 SWAP2 POP JUMPDEST POP PUSH1 0x40 DUP1 MLOAD PUSH4 0x39DF137F PUSH1 0xE0 SHL DUP2 MSTORE PUSH1 0x0 PUSH1 0x4 DUP3 ADD MSTORE PUSH1 0x24 DUP2 ADD SWAP2 SWAP1 SWAP2 MSTORE PUSH1 0x13 PUSH1 0x44 DUP3 ADD MSTORE PUSH19 0x4661696C656420756E65787065637465646C79 PUSH1 0x68 SHL PUSH1 0x64 DUP3 ADD MSTORE PUSH20 0x0 SWAP1 PUSH4 0x39DF137F SWAP1 PUSH1 0x84 ADD PUSH2 0x628 JUMP JUMPDEST PUSH1 0x40 MLOAD PUSH4 0x767392B3 PUSH1 0xE0 SHL DUP2 MSTORE PUSH20 0x0 SWAP1 PUSH4 0x767392B3 SWAP1 PUSH2 0x628 SWAP1 DUP5 SWAP1 PUSH1 0x1 SWAP1 PUSH1 0x4 ADD PUSH2 0x2B7A JUMP JUMPDEST PUSH1 0x40 MLOAD PUSH4 0x7461658B PUSH1 0xE1 SHL DUP2 MSTORE PUSH20 0x0 SWAP1 PUSH4 0xE8C2CB16 SWAP1 PUSH2 0xC07 SWAP1 PUSH1 0x6 SWAP1 PUSH1 0x4 ADD PUSH2 0x2E2A JUMP JUMPDEST PUSH1 0x40 MLOAD PUSH4 0x9212C63 PUSH1 0xE1 SHL DUP2 MSTORE PUSH1 0x1 PUSH1 0x4 DUP3 ADD MSTORE ADDRESS SWAP1 PUSH4 0x124258C6 SWAP1 PUSH1 0x24 ADD PUSH1 0x20 PUSH1 0x40 MLOAD DUP1 DUP4 SUB DUP2 PUSH1 0x0 DUP8 DUP1 EXTCODESIZE ISZERO DUP1 ISZERO PUSH2 0x2265 JUMPI PUSH1 0x0 DUP1 REVERT JUMPDEST POP GAS CALL SWAP3 POP POP POP DUP1 ISZERO PUSH2 0x2295 JUMPI POP PUSH1 0x40 DUP1 MLOAD PUSH1 0x1F RETURNDATASIZE SWAP1 DUP2 ADD PUSH1 0x1F NOT AND DUP3 ADD SWAP1 SWAP3 MSTORE PUSH2 0x2292 SWAP2 DUP2 ADD SWAP1 PUSH2 0x2A28 JUMP JUMPDEST PUSH1 0x1 JUMPDEST PUSH2 0x14B5 JUMPI PUSH2 0x22A1 PUSH2 0x3225 JUMP JUMPDEST DUP1 PUSH4 0x8C379A0 EQ ISZERO PUSH2 0x67C JUMPI POP PUSH2 0x22B6 PUSH2 0x3241 JUMP JUMPDEST DUP1 PUSH2 0x22C1 JUMPI POP PUSH2 0x712 JUMP JUMPDEST PUSH1 0x40 MLOAD PUSH4 0x7461658B PUSH1 0xE1 SHL DUP2 MSTORE PUSH20 0x0 SWAP1 PUSH4 0xE8C2CB16 SWAP1 PUSH2 0x628 SWAP1 DUP5 SWAP1 PUSH1 0x4 ADD PUSH2 0x2DDB JUMP JUMPDEST PUSH1 0x0 PUSH1 0x20 DUP2 SWAP1 MSTORE SWAP1 DUP2 MSTORE PUSH1 0x40 SWAP1 KECCAK256 DUP1 SLOAD PUSH2 0x2311 SWAP1 PUSH2 0x3166 JUMP JUMPDEST DUP1 PUSH1 0x1F ADD PUSH1 0x20 DUP1 SWAP2 DIV MUL PUSH1 0x20 ADD PUSH1 0x40 MLOAD SWAP1 DUP2 ADD PUSH1 0x40 MSTORE DUP1 SWAP3 SWAP2 SWAP1 DUP2 DUP2 MSTORE PUSH1 0x20 ADD DUP3 DUP1 SLOAD PUSH2 0x233D SWAP1 PUSH2 0x3166 JUMP JUMPDEST DUP1 ISZERO PUSH2 0x238A JUMPI DUP1 PUSH1 0x1F LT PUSH2 0x235F JUMPI PUSH2 0x100 DUP1 DUP4 SLOAD DIV MUL DUP4 MSTORE SWAP2 PUSH1 0x20 ADD SWAP2 PUSH2 0x238A JUMP JUMPDEST DUP3 ADD SWAP2 SWAP1 PUSH1 0x0 MSTORE PUSH1 0x20 PUSH1 0x0 KECCAK256 SWAP1 JUMPDEST DUP2 SLOAD DUP2 MSTORE SWAP1 PUSH1 0x1 ADD SWAP1 PUSH1 0x20 ADD DUP1 DUP4 GT PUSH2 0x236D JUMPI DUP3 SWAP1 SUB PUSH1 0x1F AND DUP3 ADD SWAP2 JUMPDEST POP POP POP POP POP DUP2 JUMP JUMPDEST PUSH1 0x9 SLOAD PUSH1 0x40 MLOAD PUSH4 0x767392B3 PUSH1 0xE0 SHL DUP2 MSTORE PUSH1 0xFF SWAP1 SWAP2 AND ISZERO ISZERO PUSH1 0x4 DUP3 ADD MSTORE PUSH1 0x0 PUSH1 0x24 DUP3 ADD MSTORE PUSH1 0x60 PUSH1 0x44 DUP3 ADD MSTORE PUSH1 0x17 PUSH1 0x64 DUP3 ADD MSTORE PUSH32 0x566F74696E672073686F756C6420626520636C6F736564000000000000000000 PUSH1 0x84 DUP3 ADD MSTORE PUSH20 0x0 SWAP1 PUSH4 0x767392B3 SWAP1 PUSH1 0xA4 ADD PUSH2 0xC07 JUMP JUMPDEST PUSH1 0x6 DUP1 SLOAD PUSH2 0x2311 SWAP1 PUSH2 0x3166 JUMP JUMPDEST PUSH1 0x5 SLOAD PUSH1 0x1 PUSH1 0x1 PUSH1 0xA0 SHL SUB AND CALLER EQ PUSH2 0x2444 JUMPI PUSH1 0x40 MLOAD PUSH3 0x461BCD PUSH1 0xE5 SHL DUP2 MSTORE PUSH1 0x4 ADD PUSH2 0x83E SWAP1 PUSH2 0x3018 JUMP JUMPDEST PUSH1 0xB SLOAD PUSH1 0xFF AND ISZERO PUSH2 0x2467 JUMPI PUSH1 0x40 MLOAD PUSH3 0x461BCD PUSH1 0xE5 SHL DUP2 MSTORE PUSH1 0x4 ADD PUSH2 0x83E SWAP1 PUSH2 0x2FE8 JUMP JUMPDEST PUSH1 0x1 PUSH1 0x9 SLOAD PUSH2 0x100 SWAP1 DIV PUSH1 0xFF AND PUSH1 0x2 DUP2 GT ISZERO PUSH2 0x2485 JUMPI PUSH2 0x2485 PUSH2 0x31F9 JUMP JUMPDEST EQ PUSH2 0x24C9 JUMPI PUSH1 0x40 MLOAD PUSH3 0x461BCD PUSH1 0xE5 SHL DUP2 MSTORE PUSH1 0x20 PUSH1 0x4 DUP3 ADD MSTORE PUSH1 0x14 PUSH1 0x24 DUP3 ADD MSTORE PUSH20 0x2737BA1034B7103B37BA34B73390383430B9B297 PUSH1 0x61 SHL PUSH1 0x44 DUP3 ADD MSTORE PUSH1 0x64 ADD PUSH2 0x83E JUMP JUMPDEST PUSH1 0x4 SLOAD ISZERO PUSH2 0x24DB JUMPI PUSH2 0x24D9 PUSH2 0x271B JUMP JUMPDEST JUMP JUMPDEST PUSH1 0x9 DUP1 SLOAD PUSH2 0xFFFF NOT AND PUSH2 0x200 OR SWAP1 SSTORE JUMP JUMPDEST PUSH2 0x24F7 PUSH2 0x3E8 PUSH2 0x1032 JUMP JUMPDEST PUSH1 0x9 SLOAD PUSH20 0x0 SWAP1 PUSH4 0xABCD7960 SWAP1 PUSH2 0x100 SWAP1 DIV PUSH1 0xFF AND PUSH1 0x2 DUP2 GT ISZERO PUSH2 0x252F JUMPI PUSH2 0x252F PUSH2 0x31F9 JUMP JUMPDEST PUSH1 0x1 PUSH1 0x40 MLOAD PUSH1 0x1 PUSH1 0x1 PUSH1 0xE0 SHL SUB NOT PUSH1 0xE0 DUP6 SWAP1 SHL AND DUP2 MSTORE PUSH1 0x4 DUP2 ADD SWAP3 SWAP1 SWAP3 MSTORE PUSH1 0x24 DUP3 ADD MSTORE PUSH1 0x60 PUSH1 0x44 DUP3 ADD MSTORE PUSH1 0x16 PUSH1 0x64 DUP3 ADD MSTORE PUSH22 0x50686173652073686F756C6420626520566F74696E67 PUSH1 0x50 SHL PUSH1 0x84 DUP3 ADD MSTORE PUSH1 0xA4 ADD PUSH1 0x20 PUSH1 0x40 MLOAD DUP1 DUP4 SUB DUP2 DUP7 DUP1 EXTCODESIZE ISZERO DUP1 ISZERO PUSH2 0x259A JUMPI PUSH1 0x0 DUP1 REVERT JUMPDEST POP GAS DELEGATECALL ISZERO DUP1 ISZERO PUSH2 0x25AE JUMPI RETURNDATASIZE PUSH1 0x0 DUP1 RETURNDATACOPY RETURNDATASIZE PUSH1 0x0 REVERT JUMPDEST POP POP POP POP PUSH1 0x40 MLOAD RETURNDATASIZE PUSH1 0x1F NOT PUSH1 0x1F DUP3 ADD AND DUP3 ADD DUP1 PUSH1 0x40 MSTORE POP DUP2 ADD SWAP1 PUSH2 0x25D2 SWAP2 SWAP1 PUSH2 0x2A28 JUMP JUMPDEST POP PUSH1 0x9 SLOAD PUSH1 0x40 MLOAD PUSH4 0x767392B3 PUSH1 0xE0 SHL DUP2 MSTORE PUSH1 0xFF SWAP1 SWAP2 AND ISZERO ISZERO PUSH1 0x4 DUP3 ADD MSTORE PUSH1 0x1 PUSH1 0x24 DUP3 ADD MSTORE PUSH1 0x60 PUSH1 0x44 DUP3 ADD MSTORE PUSH1 0x15 PUSH1 0x64 DUP3 ADD MSTORE PUSH21 0x2B37BA34B7339039B437BAB6321031329037B832B7 PUSH1 0x59 SHL PUSH1 0x84 DUP3 ADD MSTORE PUSH20 0x0 SWAP1 PUSH4 0x767392B3 SWAP1 PUSH1 0xA4 ADD PUSH2 0xC07 JUMP JUMPDEST PUSH1 0x40 MLOAD PUSH4 0x36BBDE9F PUSH1 0xE1 SHL DUP2 MSTORE PUSH1 0x20 PUSH1 0x4 DUP3 ADD MSTORE PUSH1 0x8 PUSH1 0x24 DUP3 ADD MSTORE PUSH8 0x4E65772043616665 PUSH1 0xC0 SHL PUSH1 0x44 DUP3 ADD MSTORE ADDRESS SWAP1 PUSH4 0x6D77BD3E SWAP1 PUSH1 0x64 ADD PUSH1 0x20 PUSH1 0x40 MLOAD DUP1 DUP4 SUB DUP2 PUSH1 0x0 DUP8 DUP1 EXTCODESIZE ISZERO DUP1 ISZERO PUSH2 0x2697 JUMPI PUSH1 0x0 DUP1 REVERT JUMPDEST POP GAS CALL SWAP3 POP POP POP DUP1 ISZERO PUSH2 0x26C7 JUMPI POP PUSH1 0x40 DUP1 MLOAD PUSH1 0x1F RETURNDATASIZE SWAP1 DUP2 ADD PUSH1 0x1F NOT AND DUP3 ADD SWAP1 SWAP3 MSTORE PUSH2 0x26C4 SWAP2 DUP2 ADD SWAP1 PUSH2 0x2AA0 JUMP JUMPDEST PUSH1 0x1 JUMPDEST PUSH2 0xD44 JUMPI PUSH2 0x145E PUSH2 0x3225 JUMP JUMPDEST PUSH1 0x5 SLOAD PUSH1 0x1 PUSH1 0x1 PUSH1 0xA0 SHL SUB AND CALLER EQ PUSH2 0x26FD JUMPI PUSH1 0x40 MLOAD PUSH3 0x461BCD PUSH1 0xE5 SHL DUP2 MSTORE PUSH1 0x4 ADD PUSH2 0x83E SWAP1 PUSH2 0x3018 JUMP JUMPDEST PUSH1 0xB DUP1 SLOAD PUSH1 0xFF NOT AND PUSH1 0x1 OR SWAP1 SSTORE PUSH1 0x9 DUP1 SLOAD PUSH2 0xFFFF NOT AND PUSH2 0x200 OR SWAP1 SSTORE JUMP JUMPDEST PUSH1 0x0 DUP1 PUSH1 0x1 JUMPDEST PUSH1 0x4 SLOAD DUP2 GT PUSH2 0x27D2 JUMPI PUSH1 0x0 DUP2 DUP2 MSTORE PUSH1 0x7 PUSH1 0x20 SWAP1 DUP2 MSTORE PUSH1 0x40 DUP1 DUP4 KECCAK256 PUSH1 0x1 SWAP1 DUP2 ADD SLOAD DUP5 MSTORE PUSH1 0x8 SWAP1 SWAP3 MSTORE SWAP1 SWAP2 KECCAK256 SLOAD ISZERO PUSH2 0x277D JUMPI PUSH1 0x0 DUP3 DUP2 MSTORE PUSH1 0x7 PUSH1 0x20 SWAP1 DUP2 MSTORE PUSH1 0x40 DUP1 DUP4 KECCAK256 PUSH1 0x1 ADD SLOAD DUP4 MSTORE PUSH1 0x8 SWAP1 SWAP2 MSTORE SWAP1 KECCAK256 SLOAD PUSH2 0x277A SWAP1 DUP3 PUSH2 0x30FC JUMP JUMPDEST SWAP1 POP JUMPDEST PUSH1 0x0 DUP3 DUP2 MSTORE PUSH1 0x7 PUSH1 0x20 SWAP1 DUP2 MSTORE PUSH1 0x40 DUP1 DUP4 KECCAK256 PUSH1 0x1 ADD SLOAD DUP4 MSTORE PUSH1 0x8 SWAP1 SWAP2 MSTORE SWAP1 KECCAK256 DUP2 SWAP1 SSTORE DUP4 DUP2 GT ISZERO PUSH2 0x27BF JUMPI PUSH1 0x0 DUP3 DUP2 MSTORE PUSH1 0x7 PUSH1 0x20 MSTORE PUSH1 0x40 SWAP1 KECCAK256 PUSH1 0x1 ADD SLOAD SWAP1 SWAP4 POP SWAP2 POP DUP3 JUMPDEST POP DUP1 PUSH2 0x27CA DUP2 PUSH2 0x31C8 JUMP JUMPDEST SWAP2 POP POP PUSH2 0x2721 JUMP JUMPDEST POP PUSH1 0x0 DUP2 DUP2 MSTORE PUSH1 0x20 DUP2 SWAP1 MSTORE PUSH1 0x40 SWAP1 KECCAK256 DUP1 SLOAD PUSH1 0x6 SWAP2 SWAP1 PUSH2 0x27F0 SWAP1 PUSH2 0x3166 JUMP JUMPDEST PUSH2 0x27FB SWAP3 SWAP2 SWAP1 PUSH2 0x2893 JUMP JUMPDEST POP POP PUSH1 0x9 DUP1 SLOAD PUSH2 0xFFFF NOT AND PUSH2 0x200 OR SWAP1 SSTORE POP JUMP JUMPDEST DUP3 DUP1 SLOAD PUSH2 0x281B SWAP1 PUSH2 0x3166 JUMP JUMPDEST SWAP1 PUSH1 0x0 MSTORE PUSH1 0x20 PUSH1 0x0 KECCAK256 SWAP1 PUSH1 0x1F ADD PUSH1 0x20 SWAP1 DIV DUP2 ADD SWAP3 DUP3 PUSH2 0x283D JUMPI PUSH1 0x0 DUP6 SSTORE PUSH2 0x2883 JUMP JUMPDEST DUP3 PUSH1 0x1F LT PUSH2 0x2856 JUMPI DUP1 MLOAD PUSH1 0xFF NOT AND DUP4 DUP1 ADD OR DUP6 SSTORE PUSH2 0x2883 JUMP JUMPDEST DUP3 DUP1 ADD PUSH1 0x1 ADD DUP6 SSTORE DUP3 ISZERO PUSH2 0x2883 JUMPI SWAP2 DUP3 ADD JUMPDEST DUP3 DUP2 GT ISZERO PUSH2 0x2883 JUMPI DUP3 MLOAD DUP3 SSTORE SWAP2 PUSH1 0x20 ADD SWAP2 SWAP1 PUSH1 0x1 ADD SWAP1 PUSH2 0x2868 JUMP JUMPDEST POP PUSH2 0x288F SWAP3 SWAP2 POP PUSH2 0x290E JUMP JUMPDEST POP SWAP1 JUMP JUMPDEST DUP3 DUP1 SLOAD PUSH2 0x289F SWAP1 PUSH2 0x3166 JUMP JUMPDEST SWAP1 PUSH1 0x0 MSTORE PUSH1 0x20 PUSH1 0x0 KECCAK256 SWAP1 PUSH1 0x1F ADD PUSH1 0x20 SWAP1 DIV DUP2 ADD SWAP3 DUP3 PUSH2 0x28C1 JUMPI PUSH1 0x0 DUP6 SSTORE PUSH2 0x2883 JUMP JUMPDEST DUP3 PUSH1 0x1F LT PUSH2 0x28D2 JUMPI DUP1 SLOAD DUP6 SSTORE PUSH2 0x2883 JUMP JUMPDEST DUP3 DUP1 ADD PUSH1 0x1 ADD DUP6 SSTORE DUP3 ISZERO PUSH2 0x2883 JUMPI PUSH1 0x0 MSTORE PUSH1 0x20 PUSH1 0x0 KECCAK256 SWAP2 PUSH1 0x1F ADD PUSH1 0x20 SWAP1 DIV DUP3 ADD JUMPDEST DUP3 DUP2 GT ISZERO PUSH2 0x2883 JUMPI DUP3 SLOAD DUP3 SSTORE SWAP2 PUSH1 0x1 ADD SWAP2 SWAP1 PUSH1 0x1 ADD SWAP1 PUSH2 0x28F3 JUMP JUMPDEST JUMPDEST DUP1 DUP3 GT ISZERO PUSH2 0x288F JUMPI PUSH1 0x0 DUP2 SSTORE PUSH1 0x1 ADD PUSH2 0x290F JUMP JUMPDEST PUSH1 0x0 DUP3 PUSH1 0x1F DUP4 ADD SLT PUSH2 0x2934 JUMPI PUSH1 0x0 DUP1 REVERT JUMPDEST DUP2 CALLDATALOAD PUSH8 0xFFFFFFFFFFFFFFFF DUP2 GT ISZERO PUSH2 0x294E JUMPI PUSH2 0x294E PUSH2 0x320F JUMP JUMPDEST PUSH1 0x40 MLOAD PUSH2 0x2965 PUSH1 0x1F DUP4 ADD PUSH1 0x1F NOT AND PUSH1 0x20 ADD DUP3 PUSH2 0x319B JUMP JUMPDEST DUP2 DUP2 MSTORE DUP5 PUSH1 0x20 DUP4 DUP7 ADD ADD GT ISZERO PUSH2 0x297A JUMPI PUSH1 0x0 DUP1 REVERT JUMPDEST DUP2 PUSH1 0x20 DUP6 ADD PUSH1 0x20 DUP4 ADD CALLDATACOPY PUSH1 0x0 SWAP2 DUP2 ADD PUSH1 0x20 ADD SWAP2 SWAP1 SWAP2 MSTORE SWAP4 SWAP3 POP POP POP JUMP JUMPDEST PUSH1 0x0 PUSH1 0x20 DUP3 DUP5 SUB SLT ISZERO PUSH2 0x29A9 JUMPI PUSH1 0x0 DUP1 REVERT JUMPDEST DUP2 CALLDATALOAD PUSH2 0x29B4 DUP2 PUSH2 0x32EB JUMP JUMPDEST SWAP4 SWAP3 POP POP POP JUMP JUMPDEST PUSH1 0x0 PUSH1 0x20 DUP3 DUP5 SUB SLT ISZERO PUSH2 0x29CD JUMPI PUSH1 0x0 DUP1 REVERT JUMPDEST DUP2 MLOAD PUSH2 0x29B4 DUP2 PUSH2 0x32EB JUMP JUMPDEST PUSH1 0x0 DUP1 PUSH1 0x40 DUP4 DUP6 SUB SLT ISZERO PUSH2 0x29EB JUMPI PUSH1 0x0 DUP1 REVERT JUMPDEST DUP3 CALLDATALOAD PUSH2 0x29F6 DUP2 PUSH2 0x32EB JUMP JUMPDEST SWAP2 POP PUSH1 0x20 DUP4 ADD CALLDATALOAD PUSH8 0xFFFFFFFFFFFFFFFF DUP2 GT ISZERO PUSH2 0x2A12 JUMPI PUSH1 0x0 DUP1 REVERT JUMPDEST PUSH2 0x2A1E DUP6 DUP3 DUP7 ADD PUSH2 0x2923 JUMP JUMPDEST SWAP2 POP POP SWAP3 POP SWAP3 SWAP1 POP JUMP JUMPDEST PUSH1 0x0 PUSH1 0x20 DUP3 DUP5 SUB SLT ISZERO PUSH2 0x2A3A JUMPI PUSH1 0x0 DUP1 REVERT JUMPDEST DUP2 MLOAD DUP1 ISZERO ISZERO DUP2 EQ PUSH2 0x29B4 JUMPI PUSH1 0x0 DUP1 REVERT JUMPDEST PUSH1 0x0 PUSH1 0x20 DUP3 DUP5 SUB SLT ISZERO PUSH2 0x2A5C JUMPI PUSH1 0x0 DUP1 REVERT JUMPDEST DUP2 CALLDATALOAD PUSH8 0xFFFFFFFFFFFFFFFF DUP2 GT ISZERO PUSH2 0x2A73 JUMPI PUSH1 0x0 DUP1 REVERT JUMPDEST PUSH2 0x2A7F DUP5 DUP3 DUP6 ADD PUSH2 0x2923 JUMP JUMPDEST SWAP5 SWAP4 POP POP POP POP JUMP JUMPDEST PUSH1 0x0 PUSH1 0x20 DUP3 DUP5 SUB SLT ISZERO PUSH2 0x2A99 JUMPI PUSH1 0x0 DUP1 REVERT JUMPDEST POP CALLDATALOAD SWAP2 SWAP1 POP JUMP JUMPDEST PUSH1 0x0 PUSH1 0x20 DUP3 DUP5 SUB SLT ISZERO PUSH2 0x2AB2 JUMPI PUSH1 0x0 DUP1 REVERT JUMPDEST POP MLOAD SWAP2 SWAP1 POP JUMP JUMPDEST PUSH1 0x0 DUP2 MLOAD DUP1 DUP5 MSTORE PUSH2 0x2AD1 DUP2 PUSH1 0x20 DUP7 ADD PUSH1 0x20 DUP7 ADD PUSH2 0x3136 JUMP JUMPDEST PUSH1 0x1F ADD PUSH1 0x1F NOT AND SWAP3 SWAP1 SWAP3 ADD PUSH1 0x20 ADD SWAP3 SWAP2 POP POP JUMP JUMPDEST PUSH1 0x23 DUP2 MSTORE PUSH32 0x43616E206F6E6C7920626520657865637574656420627920746865206D616E61 PUSH1 0x20 DUP3 ADD MSTORE PUSH3 0x33B2B9 PUSH1 0xE9 SHL PUSH1 0x40 DUP3 ADD MSTORE PUSH1 0x60 ADD SWAP1 JUMP JUMPDEST PUSH1 0x24 DUP2 MSTORE PUSH32 0x416374696F6E206E6F7420616C6C6F77656420696E2063757272656E74207068 PUSH1 0x20 DUP3 ADD MSTORE PUSH4 0x30B9B297 PUSH1 0xE1 SHL PUSH1 0x40 DUP3 ADD MSTORE PUSH1 0x60 ADD SWAP1 JUMP JUMPDEST PUSH1 0x0 DUP3 MLOAD PUSH2 0x2B70 DUP2 DUP5 PUSH1 0x20 DUP8 ADD PUSH2 0x3136 JUMP JUMPDEST SWAP2 SWAP1 SWAP2 ADD SWAP3 SWAP2 POP POP JUMP JUMPDEST DUP3 ISZERO ISZERO DUP2 MSTORE DUP2 ISZERO ISZERO PUSH1 0x20 DUP3 ADD MSTORE PUSH1 0x60 PUSH1 0x40 DUP3 ADD MSTORE PUSH1 0x0 PUSH2 0x2A7F PUSH1 0x60 DUP4 ADD PUSH1 0x1D DUP2 MSTORE PUSH32 0x4D6574686F6420657865637574696F6E20646964206E6F74206661696C000000 PUSH1 0x20 DUP3 ADD MSTORE PUSH1 0x40 ADD SWAP1 JUMP JUMPDEST PUSH1 0x20 DUP2 ADD PUSH1 0x3 DUP4 LT PUSH2 0x2BE9 JUMPI PUSH4 0x4E487B71 PUSH1 0xE0 SHL PUSH1 0x0 MSTORE PUSH1 0x21 PUSH1 0x4 MSTORE PUSH1 0x24 PUSH1 0x0 REVERT JUMPDEST SWAP2 SWAP1 MSTORE SWAP1 JUMP JUMPDEST PUSH1 0x20 DUP2 MSTORE PUSH1 0x0 PUSH2 0x29B4 PUSH1 0x20 DUP4 ADD DUP5 PUSH2 0x2AB9 JUMP JUMPDEST PUSH1 0x40 DUP2 MSTORE PUSH1 0x0 PUSH2 0x2C15 PUSH1 0x40 DUP4 ADD DUP6 PUSH2 0x2AB9 JUMP JUMPDEST SWAP1 POP DUP3 ISZERO ISZERO PUSH1 0x20 DUP4 ADD MSTORE SWAP4 SWAP3 POP POP POP JUMP JUMPDEST PUSH1 0x60 DUP2 MSTORE PUSH1 0x0 PUSH2 0x2C39 PUSH1 0x60 DUP4 ADD DUP5 PUSH2 0x2AB9 JUMP JUMPDEST DUP3 DUP2 SUB PUSH1 0x20 DUP5 ADD MSTORE PUSH2 0x2C75 DUP2 PUSH1 0x1A DUP2 MSTORE PUSH32 0x52657374617572616E7420646F6573206E6F742065786973742E000000000000 PUSH1 0x20 DUP3 ADD MSTORE PUSH1 0x40 ADD SWAP1 JUMP JUMPDEST SWAP1 POP DUP3 DUP2 SUB PUSH1 0x40 DUP5 ADD MSTORE PUSH2 0x2A7F DUP2 PUSH1 0x1D DUP2 MSTORE PUSH32 0x4661696C6564207769746820756E657870656374656420726561736F6E000000 PUSH1 0x20 DUP3 ADD MSTORE PUSH1 0x40 ADD SWAP1 JUMP JUMPDEST PUSH1 0x60 DUP2 MSTORE PUSH1 0x0 PUSH2 0x2CC6 PUSH1 0x60 DUP4 ADD DUP5 PUSH2 0x2AB9 JUMP JUMPDEST DUP3 DUP2 SUB PUSH1 0x20 DUP5 ADD MSTORE PUSH2 0x2C75 DUP2 PUSH1 0x17 DUP2 MSTORE PUSH23 0x2CB7BA903430BB329030B63932B0B23C903B37BA32B217 PUSH1 0x49 SHL PUSH1 0x20 DUP3 ADD MSTORE PUSH1 0x40 ADD SWAP1 JUMP JUMPDEST PUSH1 0x60 DUP2 MSTORE PUSH1 0x0 PUSH2 0x2D0F PUSH1 0x60 DUP4 ADD DUP5 PUSH2 0x2AB9 JUMP JUMPDEST DUP3 DUP2 SUB PUSH1 0x20 DUP5 ADD MSTORE PUSH2 0x2C75 DUP2 PUSH1 0x16 DUP2 MSTORE PUSH22 0x233934B2B7321030B63932B0B23C9032BC34B9BA3997 PUSH1 0x51 SHL PUSH1 0x20 DUP3 ADD MSTORE PUSH1 0x40 ADD SWAP1 JUMP JUMPDEST PUSH1 0x60 DUP2 MSTORE PUSH1 0x0 PUSH2 0x2D57 PUSH1 0x60 DUP4 ADD DUP5 PUSH2 0x2AB9 JUMP JUMPDEST DUP3 DUP2 SUB PUSH1 0x20 DUP5 ADD MSTORE PUSH2 0x2C75 DUP2 PUSH2 0x2AE5 JUMP JUMPDEST PUSH1 0x60 DUP2 MSTORE PUSH1 0x0 PUSH2 0x2D7B PUSH1 0x60 DUP4 ADD DUP5 PUSH2 0x2AB9 JUMP JUMPDEST DUP3 DUP2 SUB PUSH1 0x20 DUP5 ADD MSTORE PUSH2 0x2C75 DUP2 PUSH2 0x2B21 JUMP JUMPDEST PUSH1 0x60 DUP2 MSTORE PUSH1 0x0 PUSH2 0x2D9F PUSH1 0x60 DUP4 ADD DUP5 PUSH2 0x2AB9 JUMP JUMPDEST DUP3 DUP2 SUB PUSH1 0x20 DUP5 ADD MSTORE PUSH2 0x2C75 DUP2 PUSH1 0x1A DUP2 MSTORE PUSH32 0x52657374617572616E7420616C7265616479206578697374732E000000000000 PUSH1 0x20 DUP3 ADD MSTORE PUSH1 0x40 ADD SWAP1 JUMP JUMPDEST PUSH1 0x60 DUP2 MSTORE PUSH1 0x0 PUSH2 0x2DEE PUSH1 0x60 DUP4 ADD DUP5 PUSH2 0x2AB9 JUMP JUMPDEST DUP3 DUP2 SUB PUSH1 0x20 DUP5 ADD MSTORE PUSH2 0x2C75 DUP2 PUSH1 0x20 DUP1 DUP3 MSTORE PUSH32 0x596F7520617265206E6F742061207265676973746572656420667269656E642E SWAP1 DUP3 ADD MSTORE PUSH1 0x40 ADD SWAP1 JUMP JUMPDEST PUSH1 0x60 DUP2 MSTORE PUSH1 0x0 DUP1 DUP4 SLOAD DUP2 PUSH1 0x1 DUP3 DUP2 SHR SWAP2 POP DUP1 DUP4 AND DUP1 PUSH2 0x2E4A JUMPI PUSH1 0x7F DUP4 AND SWAP3 POP JUMPDEST PUSH1 0x20 DUP1 DUP5 LT DUP3 EQ ISZERO PUSH2 0x2E6A JUMPI PUSH4 0x4E487B71 PUSH1 0xE0 SHL DUP7 MSTORE PUSH1 0x22 PUSH1 0x4 MSTORE PUSH1 0x24 DUP7 REVERT JUMPDEST PUSH1 0x60 DUP9 ADD DUP5 SWAP1 MSTORE PUSH1 0x80 DUP9 ADD DUP3 DUP1 ISZERO PUSH2 0x2E89 JUMPI PUSH1 0x1 DUP2 EQ PUSH2 0x2E9A JUMPI PUSH2 0x2EC5 JUMP JUMPDEST PUSH1 0xFF NOT DUP8 AND DUP3 MSTORE DUP3 DUP3 ADD SWAP8 POP PUSH2 0x2EC5 JUMP JUMPDEST PUSH1 0x0 DUP12 DUP2 MSTORE PUSH1 0x20 SWAP1 KECCAK256 PUSH1 0x0 JUMPDEST DUP8 DUP2 LT ISZERO PUSH2 0x2EBF JUMPI DUP2 SLOAD DUP5 DUP3 ADD MSTORE SWAP1 DUP7 ADD SWAP1 DUP5 ADD PUSH2 0x2EA6 JUMP JUMPDEST DUP4 ADD SWAP9 POP POP JUMPDEST POP POP DUP8 DUP7 SUB SWAP1 DUP9 ADD MSTORE POP POP PUSH1 0x8 DUP4 MSTORE POP POP PUSH8 0x556E692043616665 PUSH1 0xC0 SHL PUSH1 0x20 DUP3 ADD MSTORE PUSH1 0x40 DUP2 ADD SWAP1 POP DUP3 DUP2 SUB PUSH1 0x40 DUP5 ADD MSTORE PUSH2 0x2A7F DUP2 PUSH1 0x26 DUP2 MSTORE PUSH32 0x53656C65637465642072657374617572616E742073686F756C6420626520556E PUSH1 0x20 DUP3 ADD MSTORE PUSH6 0x692043616665 PUSH1 0xD0 SHL PUSH1 0x40 DUP3 ADD MSTORE PUSH1 0x60 ADD SWAP1 JUMP JUMPDEST PUSH1 0x20 DUP2 MSTORE PUSH1 0x0 PUSH2 0x2F75 PUSH1 0x20 DUP4 ADD PUSH1 0x1A DUP2 MSTORE PUSH32 0x52657374617572616E7420646F6573206E6F742065786973742E000000000000 PUSH1 0x20 DUP3 ADD MSTORE PUSH1 0x40 ADD SWAP1 JUMP JUMPDEST SWAP3 SWAP2 POP POP JUMP JUMPDEST PUSH1 0x20 DUP2 MSTORE PUSH1 0x0 PUSH2 0x2F75 PUSH1 0x20 DUP4 ADD PUSH1 0x17 DUP2 MSTORE PUSH23 0x2CB7BA903430BB329030B63932B0B23C903B37BA32B217 PUSH1 0x49 SHL PUSH1 0x20 DUP3 ADD MSTORE PUSH1 0x40 ADD SWAP1 JUMP JUMPDEST PUSH1 0x20 DUP2 MSTORE PUSH1 0x0 PUSH2 0x2F75 PUSH1 0x20 DUP4 ADD PUSH1 0x16 DUP2 MSTORE PUSH22 0x233934B2B7321030B63932B0B23C9032BC34B9BA3997 PUSH1 0x51 SHL PUSH1 0x20 DUP3 ADD MSTORE PUSH1 0x40 ADD SWAP1 JUMP JUMPDEST PUSH1 0x20 DUP1 DUP3 MSTORE PUSH1 0x16 SWAP1 DUP3 ADD MSTORE PUSH22 0x21B7B73A3930B1BA1034B99039B43ABA103237BBB717 PUSH1 0x51 SHL PUSH1 0x40 DUP3 ADD MSTORE PUSH1 0x60 ADD SWAP1 JUMP JUMPDEST PUSH1 0x20 DUP2 MSTORE PUSH1 0x0 PUSH2 0x2F75 PUSH1 0x20 DUP4 ADD PUSH2 0x2AE5 JUMP JUMPDEST PUSH1 0x20 DUP2 MSTORE PUSH1 0x0 PUSH2 0x2F75 PUSH1 0x20 DUP4 ADD PUSH2 0x2B21 JUMP JUMPDEST PUSH1 0x20 DUP2 MSTORE PUSH1 0x0 PUSH2 0x2F75 PUSH1 0x20 DUP4 ADD PUSH1 0x1A DUP2 MSTORE PUSH32 0x52657374617572616E7420616C7265616479206578697374732E000000000000 PUSH1 0x20 DUP3 ADD MSTORE PUSH1 0x40 ADD SWAP1 JUMP JUMPDEST PUSH1 0x20 DUP1 DUP3 MSTORE DUP2 DUP2 ADD MSTORE PUSH32 0x596F7520617265206E6F742061207265676973746572656420667269656E642E PUSH1 0x40 DUP3 ADD MSTORE PUSH1 0x0 PUSH1 0x60 DUP3 ADD PUSH2 0x2F75 JUMP JUMPDEST DUP3 DUP2 MSTORE DUP2 PUSH1 0x20 DUP3 ADD MSTORE PUSH1 0x60 PUSH1 0x40 DUP3 ADD MSTORE PUSH1 0x0 PUSH2 0x2A7F PUSH1 0x60 DUP4 ADD PUSH1 0x1D DUP2 MSTORE PUSH32 0x4D6574686F6420657865637574696F6E20646964206E6F74206661696C000000 PUSH1 0x20 DUP3 ADD MSTORE PUSH1 0x40 ADD SWAP1 JUMP JUMPDEST PUSH1 0x0 DUP3 NOT DUP3 GT ISZERO PUSH2 0x310F JUMPI PUSH2 0x310F PUSH2 0x31E3 JUMP JUMPDEST POP ADD SWAP1 JUMP JUMPDEST PUSH1 0x0 DUP3 PUSH2 0x3131 JUMPI PUSH4 0x4E487B71 PUSH1 0xE0 SHL PUSH1 0x0 MSTORE PUSH1 0x12 PUSH1 0x4 MSTORE PUSH1 0x24 PUSH1 0x0 REVERT JUMPDEST POP DIV SWAP1 JUMP JUMPDEST PUSH1 0x0 JUMPDEST DUP4 DUP2 LT ISZERO PUSH2 0x3151 JUMPI DUP2 DUP2 ADD MLOAD DUP4 DUP3 ADD MSTORE PUSH1 0x20 ADD PUSH2 0x3139 JUMP JUMPDEST DUP4 DUP2 GT ISZERO PUSH2 0x3160 JUMPI PUSH1 0x0 DUP5 DUP5 ADD MSTORE JUMPDEST POP POP POP POP JUMP JUMPDEST PUSH1 0x1 DUP2 DUP2 SHR SWAP1 DUP3 AND DUP1 PUSH2 0x317A JUMPI PUSH1 0x7F DUP3 AND SWAP2 POP JUMPDEST PUSH1 0x20 DUP3 LT DUP2 EQ ISZERO PUSH2 0xA81 JUMPI PUSH4 0x4E487B71 PUSH1 0xE0 SHL PUSH1 0x0 MSTORE PUSH1 0x22 PUSH1 0x4 MSTORE PUSH1 0x24 PUSH1 0x0 REVERT JUMPDEST PUSH1 0x1F DUP3 ADD PUSH1 0x1F NOT AND DUP2 ADD PUSH8 0xFFFFFFFFFFFFFFFF DUP2 GT DUP3 DUP3 LT OR ISZERO PUSH2 0x31C1 JUMPI PUSH2 0x31C1 PUSH2 0x320F JUMP JUMPDEST PUSH1 0x40 MSTORE POP POP JUMP JUMPDEST PUSH1 0x0 PUSH1 0x0 NOT DUP3 EQ ISZERO PUSH2 0x31DC JUMPI PUSH2 0x31DC PUSH2 0x31E3 JUMP JUMPDEST POP PUSH1 0x1 ADD SWAP1 JUMP JUMPDEST PUSH4 0x4E487B71 PUSH1 0xE0 SHL PUSH1 0x0 MSTORE PUSH1 0x11 PUSH1 0x4 MSTORE PUSH1 0x24 PUSH1 0x0 REVERT JUMPDEST PUSH4 0x4E487B71 PUSH1 0xE0 SHL PUSH1 0x0 MSTORE PUSH1 0x21 PUSH1 0x4 MSTORE PUSH1 0x24 PUSH1 0x0 REVERT JUMPDEST PUSH4 0x4E487B71 PUSH1 0xE0 SHL PUSH1 0x0 MSTORE PUSH1 0x41 PUSH1 0x4 MSTORE PUSH1 0x24 PUSH1 0x0 REVERT JUMPDEST PUSH1 0x0 PUSH1 0x3 RETURNDATASIZE GT ISZERO PUSH2 0x323E JUMPI PUSH1 0x4 PUSH1 0x0 DUP1 RETURNDATACOPY POP PUSH1 0x0 MLOAD PUSH1 0xE0 SHR JUMPDEST SWAP1 JUMP JUMPDEST PUSH1 0x0 PUSH1 0x44 RETURNDATASIZE LT ISZERO PUSH2 0x324F JUMPI SWAP1 JUMP JUMPDEST PUSH1 0x40 MLOAD PUSH1 0x3 NOT RETURNDATASIZE DUP2 ADD PUSH1 0x4 DUP4 RETURNDATACOPY DUP2 MLOAD RETURNDATASIZE PUSH8 0xFFFFFFFFFFFFFFFF DUP2 PUSH1 0x24 DUP5 ADD GT DUP2 DUP5 GT OR ISZERO PUSH2 0x327F JUMPI POP POP POP POP POP SWAP1 JUMP JUMPDEST DUP3 DUP6 ADD SWAP2 POP DUP2 MLOAD DUP2 DUP2 GT ISZERO PUSH2 0x3297 JUMPI POP POP POP POP POP POP SWAP1 JUMP JUMPDEST DUP5 RETURNDATASIZE DUP8 ADD ADD PUSH1 0x20 DUP3 DUP6 ADD ADD GT ISZERO PUSH2 0x32B1 JUMPI POP POP POP POP POP POP SWAP1 JUMP JUMPDEST PUSH2 0x32C0 PUSH1 0x20 DUP3 DUP7 ADD ADD DUP8 PUSH2 0x319B JUMP JUMPDEST POP SWAP1 SWAP6 SWAP5 POP POP POP POP POP JUMP JUMPDEST PUSH1 0x0 DUP1 PUSH1 0x23 RETURNDATASIZE GT ISZERO PUSH2 0x32E7 JUMPI PUSH1 0x20 PUSH1 0x4 PUSH1 0x0 RETURNDATACOPY POP POP PUSH1 0x0 MLOAD PUSH1 0x1 SWAP1 JUMPDEST SWAP1 SWAP2 JUMP JUMPDEST PUSH1 0x1 PUSH1 0x1 PUSH1 0xA0 SHL SUB DUP2 AND DUP2 EQ PUSH2 0xC57 JUMPI PUSH1 0x0 DUP1 REVERT INVALID LOG2 PUSH5 0x6970667358 0x22 SLT KECCAK256 ADDMOD PUSH1 0x52 PUSH3 0x815893 0x4F 0xC7 SWAP5 PUSH4 0xBE4A65D7 CODESIZE SWAP11 JUMP MLOAD DUP13 LT PUSH16 0xDEA626FF844E2FE750C364736F6C6343 STOP ADDMOD SDIV STOP CALLER "
		},
		"gasEstimates": {
			"creation": {
				"codeDepositCost": "2622000",
				"executionCost": "infinite",
				"totalCost": "infinite"
			},
			"external": {
				"addFriend(address,string)": "infinite",
				"addRestaurant(string)": "infinite",
				"addRestaurantDuringVotingFailure()": "infinite",
				"beforeAll()": "infinite",
				"currentPhase()": "2431",
				"doVote(uint256)": "infinite",
				"endBlock()": "2386",
				"endVoting()": "infinite",
				"friends(address)": "infinite",
				"initialPhaseTest()": "infinite",
				"isShutdown()": "2443",
				"lunchVenueTest()": "infinite",
				"manager()": "2405",
				"managerTest()": "infinite",
				"numFriends()": "2341",
				"numRestaurants()": "2384",
				"numVotes()": "2384",
				"phaseEndedTest()": "infinite",
				"restaurants(uint256)": "infinite",
				"setDuplicateFriendFailure()": "infinite",
				"setDuplicateRestaurantFailure()": "infinite",
				"setFriend()": "infinite",
				"setFriendFailure()": "infinite",
				"setRestaurant()": "infinite",
				"setRestaurantFailure()": "infinite",
				"shutdown()": "50864",
				"startVoting(uint256)": "57436",
				"startVotingPhase()": "infinite",
				"vote()": "infinite",
				"vote2()": "infinite",
				"vote3()": "infinite",
				"voteAfterClosedFailure()": "infinite",
				"voteBeforeVotingPhaseFailure()": "infinite",
				"voteFailure()": "infinite",
				"voteInvalidRestaurantFailure()": "infinite",
				"voteOpen()": "2356",
				"voteOpenTest()": "infinite",
				"voteTwiceFailure()": "infinite",
				"votedRestaurant()": "infinite",
				"votes(uint256)": "4670"
			}
		},
		"methodIdentifiers": {
			"addFriend(address,string)": "3b9f708d",
			"addRestaurant(string)": "6d77bd3e",
			"addRestaurantDuringVotingFailure()": "e5fbfef4",
			"beforeAll()": "7fea0d4b",
			"currentPhase()": "055ad42e",
			"doVote(uint256)": "124258c6",
			"endBlock()": "083c6323",
			"endVoting()": "c3403ddf",
			"friends(address)": "1ddabf7a",
			"initialPhaseTest()": "8322f501",
			"isShutdown()": "bf86d690",
			"lunchVenueTest()": "a8267245",
			"manager()": "481c6a75",
			"managerTest()": "947aea86",
			"numFriends()": "47098f36",
			"numRestaurants()": "b798867f",
			"numVotes()": "a3bef4d7",
			"phaseEndedTest()": "7575cdc1",
			"restaurants(uint256)": "ad5461d8",
			"setDuplicateFriendFailure()": "7a23732e",
			"setDuplicateRestaurantFailure()": "1bca28ee",
			"setFriend()": "848b4427",
			"setFriendFailure()": "77440e06",
			"setRestaurant()": "12a4591a",
			"setRestaurantFailure()": "512a6fbb",
			"shutdown()": "fc0e74d1",
			"startVoting(uint256)": "3d2f5bda",
			"startVotingPhase()": "cb43284e",
			"vote()": "632a9a52",
			"vote2()": "a24a4e88",
			"vote3()": "2955fea3",
			"voteAfterClosedFailure()": "a5627cf0",
			"voteBeforeVotingPhaseFailure()": "59c5a8d0",
			"voteFailure()": "a9a4070c",
			"voteInvalidRestaurantFailure()": "4a22fc0b",
			"voteOpen()": "788d3851",
			"voteOpenTest()": "bbb97ded",
			"voteTwiceFailure()": "02df553a",
			"votedRestaurant()": "c1c16efc",
			"votes(uint256)": "5df81330"
		}
	},
	"abi": [
		{
			"inputs": [
				{
					"internalType": "address",
					"name": "friendAddress",
					"type": "address"
				},
				{
					"internalType": "string",
					"name": "name",
					"type": "string"
				}
			],
			"name": "addFriend",
			"outputs": [
				{
					"internalType": "uint256",
					"name": "",
					"type": "uint256"
				}
			],
			"stateMutability": "nonpayable",
			"type": "function"
		},
		{
			"inputs": [
				{
					"internalType": "string",
					"name": "name",
					"type": "string"
				}
			],
			"name": "addRestaurant",
			"outputs": [
				{
					"internalType": "uint256",
					"name": "",
					"type": "uint256"
				}
			],
			"stateMutability": "nonpayable",
			"type": "function"
		},
		{
			"inputs": [],
			"name": "addRestaurantDuringVotingFailure",
			"outputs": [],
			"stateMutability": "nonpayable",
			"type": "function"
		},
		{
			"inputs": [],
			"name": "beforeAll",
			"outputs": [],
			"stateMutability": "nonpayable",
			"type": "function"
		},
		{
			"inputs": [],
			"name": "currentPhase",
			"outputs": [
				{
					"internalType": "enum LunchVenue.Phase",
					"name": "",
					"type": "uint8"
				}
			],
			"stateMutability": "view",
			"type": "function"
		},
		{
			"inputs": [
				{
					"internalType": "uint256",
					"name": "restaurant",
					"type": "uint256"
				}
			],
			"name": "doVote",
			"outputs": [
				{
					"internalType": "bool",
					"name": "validVote",
					"type": "bool"
				}
			],
			"stateMutability": "nonpayable",
			"type": "function"
		},
		{
			"inputs": [],
			"name": "endBlock",
			"outputs": [
				{
					"internalType": "uint256",
					"name": "",
					"type": "uint256"
				}
			],
			"stateMutability": "view",
			"type": "function"
		},
		{
			"inputs": [],
			"name": "endVoting",
			"outputs": [],
			"stateMutability": "nonpayable",
			"type": "function"
		},
		{
			"inputs": [
				{
					"internalType": "address",
					"name": "",
					"type": "address"
				}
			],
			"name": "friends",
			"outputs": [
				{
					"internalType": "string",
					"name": "name",
					"type": "string"
				},
				{
					"internalType": "bool",
					"name": "voted",
					"type": "bool"
				}
			],
			"stateMutability": "view",
			"type": "function"
		},
		{
			"inputs": [],
			"name": "initialPhaseTest",
			"outputs": [],
			"stateMutability": "nonpayable",
			"type": "function"
		},
		{
			"inputs": [],
			"name": "isShutdown",
			"outputs": [
				{
					"internalType": "bool",
					"name": "",
					"type": "bool"
				}
			],
			"stateMutability": "view",
			"type": "function"
		},
		{
			"inputs": [],
			"name": "lunchVenueTest",
			"outputs": [],
			"stateMutability": "nonpayable",
			"type": "function"
		},
		{
			"inputs": [],
			"name": "manager",
			"outputs": [
				{
					"internalType": "address",
					"name": "",
					"type": "address"
				}
			],
			"stateMutability": "view",
			"type": "function"
		},
		{
			"inputs": [],
			"name": "managerTest",
			"outputs": [],
			"stateMutability": "nonpayable",
			"type": "function"
		},
		{
			"inputs": [],
			"name": "numFriends",
			"outputs": [
				{
					"internalType": "uint256",
					"name": "",
					"type": "uint256"
				}
			],
			"stateMutability": "view",
			"type": "function"
		},
		{
			"inputs": [],
			"name": "numRestaurants",
			"outputs": [
				{
					"internalType": "uint256",
					"name": "",
					"type": "uint256"
				}
			],
			"stateMutability": "view",
			"type": "function"
		},
		{
			"inputs": [],
			"name": "numVotes",
			"outputs": [
				{
					"internalType": "uint256",
					"name": "",
					"type": "uint256"
				}
			],
			"stateMutability": "view",
			"type": "function"
		},
		{
			"inputs": [],
			"name": "phaseEndedTest",
			"outputs": [],
			"stateMutability": "nonpayable",
			"type": "function"
		},
		{
			"inputs": [
				{
					"internalType": "uint256",
					"name": "",
					"type": "uint256"
				}
			],
			"name": "restaurants",
			"outputs": [
				{
					"internalType": "string",
					"name": "",
					"type": "string"
				}
			],
			"stateMutability": "view",
			"type": "function"
		},
		{
			"inputs": [],
			"name": "setDuplicateFriendFailure",
			"outputs": [],
			"stateMutability": "nonpayable",
			"type": "function"
		},
		{
			"inputs": [],
			"name": "setDuplicateRestaurantFailure",
			"outputs": [],
			"stateMutability": "nonpayable",
			"type": "function"
		},
		{
			"inputs": [],
			"name": "setFriend",
			"outputs": [],
			"stateMutability": "nonpayable",
			"type": "function"
		},
		{
			"inputs": [],
			"name": "setFriendFailure",
			"outputs": [],
			"stateMutability": "nonpayable",
			"type": "function"
		},
		{
			"inputs": [],
			"name": "setRestaurant",
			"outputs": [],
			"stateMutability": "nonpayable",
			"type": "function"
		},
		{
			"inputs": [],
			"name": "setRestaurantFailure",
			"outputs": [],
			"stateMutability": "nonpayable",
			"type": "function"
		},
		{
			"inputs": [],
			"name": "shutdown",
			"outputs": [],
			"stateMutability": "nonpayable",
			"type": "function"
		},
		{
			"inputs": [
				{
					"internalType": "uint256",
					"name": "blocksUntilEnd",
					"type": "uint256"
				}
			],
			"name": "startVoting",
			"outputs": [],
			"stateMutability": "nonpayable",
			"type": "function"
		},
		{
			"inputs": [],
			"name": "startVotingPhase",
			"outputs": [],
			"stateMutability": "nonpayable",
			"type": "function"
		},
		{
			"inputs": [],
			"name": "vote",
			"outputs": [],
			"stateMutability": "nonpayable",
			"type": "function"
		},
		{
			"inputs": [],
			"name": "vote2",
			"outputs": [],
			"stateMutability": "nonpayable",
			"type": "function"
		},
		{
			"inputs": [],
			"name": "vote3",
			"outputs": [],
			"stateMutability": "nonpayable",
			"type": "function"
		},
		{
			"inputs": [],
			"name": "voteAfterClosedFailure",
			"outputs": [],
			"stateMutability": "nonpayable",
			"type": "function"
		},
		{
			"inputs": [],
			"name": "voteBeforeVotingPhaseFailure",
			"outputs": [],
			"stateMutability": "nonpayable",
			"type": "function"
		},
		{
			"inputs": [],
			"name": "voteFailure",
			"outputs": [],
			"stateMutability": "nonpayable",
			"type": "function"
		},
		{
			"inputs": [],
			"name": "voteInvalidRestaurantFailure",
			"outputs": [],
			"stateMutability": "nonpayable",
			"type": "function"
		},
		{
			"inputs": [],
			"name": "voteOpen",
			"outputs": [
				{
					"internalType": "bool",
					"name": "",
					"type": "bool"
				}
			],
			"stateMutability": "view",
			"type": "function"
		},
		{
			"inputs": [],
			"name": "voteOpenTest",
			"outputs": [],
			"stateMutability": "nonpayable",
			"type": "function"
		},
		{
			"inputs": [],
			"name": "voteTwiceFailure",
			"outputs": [],
			"stateMutability": "nonpayable",
			"type": "function"
		},
		{
			"inputs": [],
			"name": "votedRestaurant",
			"outputs": [
				{
					"internalType": "string",
					"name": "",
					"type": "string"
				}
			],
			"stateMutability": "view",
			"type": "function"
		},
		{
			"inputs": [
				{
					"internalType": "uint256",
					"name": "",
					"type": "uint256"
				}
			],
			"name": "votes",
			"outputs": [
				{
					"internalType": "address",
					"name": "voterAddress",
					"type": "address"
				},
				{
					"internalType": "uint256",
					"name": "restaurant",
					"type": "uint256"
				}
			],
			"stateMutability": "view",
			"type": "function"
		}
	]
}