{
	"data": {
		"bytecode": {
			"linkReferences": {
				"remix_accounts.sol": {
					"TestsAccounts": [
						{
							"length": 20,
							"start": 5830
						},
						{
							"length": 20,
							"start": 6015
						},
						{
							"length": 20,
							"start": 6200
						},
						{
							"length": 20,
							"start": 6385
						},
						{
							"length": 20,
							"start": 6570
						}
					]
				},
				"remix_tests.sol": {
					"Assert": [
						{
							"length": 20,
							"start": 2793
						},
						{
							"length": 20,
							"start": 2978
						},
						{
							"length": 20,
							"start": 3350
						},
						{
							"length": 20,
							"start": 4021
						},
						{
							"length": 20,
							"start": 4177
						},
						{
							"length": 20,
							"start": 4355
						},
						{
							"length": 20,
							"start": 4484
						},
						{
							"length": 20,
							"start": 4680
						},
						{
							"length": 20,
							"start": 5220
						},
						{
							"length": 20,
							"start": 5376
						},
						{
							"length": 20,
							"start": 5554
						},
						{
							"length": 20,
							"start": 5683
						},
						{
							"length": 20,
							"start": 6757
						},
						{
							"length": 20,
							"start": 6977
						},
						{
							"length": 20,
							"start": 7197
						},
						{
							"length": 20,
							"start": 7417
						},
						{
							"length": 20,
							"start": 7639
						},
						{
							"length": 20,
							"start": 7832
						},
						{
							"length": 20,
							"start": 8131
						},
						{
							"length": 20,
							"start": 8287
						},
						{
							"length": 20,
							"start": 8465
						},
						{
							"length": 20,
							"start": 8594
						},
						{
							"length": 20,
							"start": 8722
						},
						{
							"length": 20,
							"start": 8846
						},
						{
							"length": 20,
							"start": 9147
						}
					]
				}
			},
			"object": "608060405260006004556000600555600060065560405180602001604052806000815250600890816200003391906200031e565b506001600960006101000a81548160ff0219169083151502179055503480156200005c57600080fd5b5033600760006101000a81548173ffffffffffffffffffffffffffffffffffffffff021916908373ffffffffffffffffffffffffffffffffffffffff16021790555062000405565b600081519050919050565b7f4e487b7100000000000000000000000000000000000000000000000000000000600052604160045260246000fd5b7f4e487b7100000000000000000000000000000000000000000000000000000000600052602260045260246000fd5b600060028204905060018216806200012657607f821691505b6020821081036200013c576200013b620000de565b5b50919050565b60008190508160005260206000209050919050565b60006020601f8301049050919050565b600082821b905092915050565b600060088302620001a67fffffffffffffffffffffffffffffffffffffffffffffffffffffffffffffffff8262000167565b620001b2868362000167565b95508019841693508086168417925050509392505050565b6000819050919050565b6000819050919050565b6000620001ff620001f9620001f384620001ca565b620001d4565b620001ca565b9050919050565b6000819050919050565b6200021b83620001de565b620002336200022a8262000206565b84845462000174565b825550505050565b600090565b6200024a6200023b565b6200025781848462000210565b505050565b5b818110156200027f576200027360008262000240565b6001810190506200025d565b5050565b601f821115620002ce57620002988162000142565b620002a38462000157565b81016020851015620002b3578190505b620002cb620002c28562000157565b8301826200025c565b50505b505050565b600082821c905092915050565b6000620002f360001984600802620002d3565b1980831691505092915050565b60006200030e8383620002e0565b9150826002028217905092915050565b6200032982620000a4565b67ffffffffffffffff811115620003455762000344620000af565b5b6200035182546200010d565b6200035e82828562000283565b600060209050601f83116001811462000396576000841562000381578287015190505b6200038d858262000300565b865550620003fd565b601f198416620003a68662000142565b60005b82811015620003d057848901518255600182019150602085019450602081019050620003a9565b86831015620003f05784890151620003ec601f891682620002e0565b8355505b6001600288020188555050505b505050505050565b613bda80620004156000396000f3fe608060405234801561001057600080fd5b50600436106101735760003560e01c8063788d3851116100de578063a5627cf011610097578063ad5461d811610071578063ad5461d81461035a578063b798867f1461038a578063bbb97ded146103a8578063c1c16efc146103b257610173565b8063a5627cf01461033c578063a826724514610346578063a9a4070c1461035057610173565b8063788d3851146102d85780637fea0d4b146102f6578063848b442714610300578063947aea861461030a578063a24a4e8814610314578063a3bef4d71461031e57610173565b8063481c6a7511610130578063481c6a751461023b578063512a6fbb146102595780635df8133014610263578063632a9a52146102945780636d77bd3e1461029e57806377440e06146102ce57610173565b8063124258c61461017857806312a4591a146101a85780631ddabf7a146101b25780632955fea3146101e35780633b9f708d146101ed57806347098f361461021d575b600080fd5b610192600480360381019061018d9190612280565b6103d0565b60405161019f91906122c8565b60405180910390f35b6101b06106d2565b005b6101cc60048036038101906101c79190612341565b610846565b6040516101da9291906123fe565b60405180910390f35b6101eb6108ff565b005b61020760048036038101906102029190612563565b610983565b60405161021491906125ce565b60405180910390f35b610225610ad4565b60405161023291906125ce565b60405180910390f35b610243610ada565b60405161025091906125f8565b60405180910390f35b610261610b00565b005b61027d60048036038101906102789190612280565b610ded565b60405161028b929190612613565b60405180910390f35b61029c610e31565b005b6102b860048036038101906102b3919061263c565b610eb5565b6040516102c591906125ce565b60405180910390f35b6102d6610f8b565b005b6102e061129c565b6040516102ed91906122c8565b60405180910390f35b6102fe6112af565b005b61030861164e565b005b6103126119c0565b005b61031c611a81565b005b610326611b05565b60405161033391906125ce565b60405180910390f35b610344611b0b565b005b61034e611dfb565b005b610358611e77565b005b610374600480360381019061036f9190612280565b611efe565b6040516103819190612685565b60405180910390f35b610392611f9e565b60405161039f91906125ce565b60405180910390f35b6103b0611fa4565b005b6103ba612031565b6040516103c79190612685565b60405180910390f35b600060011515600960009054906101000a900460ff16151514610428576040517f08c379a000000000000000000000000000000000000000000000000000000000815260040161041f90612719565b60405180910390fd5b600090506000600160003373ffffffffffffffffffffffffffffffffffffffff1673ffffffffffffffffffffffffffffffffffffffff168152602001908152602001600020600001805461047b90612768565b80601f01602080910402602001604051908101604052809291908181526020018280546104a790612768565b80156104f45780601f106104c9576101008083540402835291602001916104f4565b820191906000526020600020905b8154815290600101906020018083116104d757829003601f168201915b50505050509050600080825114159050600080600080878152602001908152602001600020805461052490612768565b9050141590508115610663578015610662576001935060018060003373ffffffffffffffffffffffffffffffffffffffff1673ffffffffffffffffffffffffffffffffffffffff16815260200190815260200160002060010160006101000a81548160ff02191690831515021790555061059c6121ea565b33816000019073ffffffffffffffffffffffffffffffffffffffff16908173ffffffffffffffffffffffffffffffffffffffff168152505085816020018181525050600660008154809291906105f1906127c8565b91905055508060026000600654815260200190815260200160002060008201518160000160006101000a81548173ffffffffffffffffffffffffffffffffffffffff021916908373ffffffffffffffffffffffffffffffffffffffff16021790555060208201518160010155905050505b5b7f6d8d4f87aa98876306c58b52a3cdfbbd05fc6b76b2cba163b787ada6cbd373d933848660405161069693929190612810565b60405180910390a1600160026005546106af919061287d565b6106b991906128ae565b600654106106ca576106c96120bf565b5b505050919050565b73__$acbfb1c35000d78352310b16a054a6b106$__63abcd796061072a6040518060400160405280600e81526020017f436f757274796172642043616665000000000000000000000000000000000000815250610eb5565b60016040518363ffffffff1660e01b8152600401610749929190612993565b602060405180830381865af4158015610766573d6000803e3d6000fd5b505050506040513d601f19601f8201168201806040525081019061078a91906129fb565b5073__$acbfb1c35000d78352310b16a054a6b106$__63abcd79606107e36040518060400160405280600881526020017f556e692043616665000000000000000000000000000000000000000000000000815250610eb5565b60026040518363ffffffff1660e01b8152600401610802929190612aaf565b602060405180830381865af415801561081f573d6000803e3d6000fd5b505050506040513d601f19601f8201168201806040525081019061084391906129fb565b50565b600160205280600052604060002060009150905080600001805461086990612768565b80601f016020809104026020016040519081016040528092919081815260200182805461089590612768565b80156108e25780601f106108b7576101008083540402835291602001916108e2565b820191906000526020600020905b8154815290600101906020018083116108c557829003601f168201915b5050505050908060010160009054906101000a900460ff16905082565b73__$acbfb1c35000d78352310b16a054a6b106$__6339df137f61092360026103d0565b6040518263ffffffff1660e01b815260040161093f9190612b46565b602060405180830381865af415801561095c573d6000803e3d6000fd5b505050506040513d601f19601f8201168201806040525081019061098091906129fb565b50565b6000600760009054906101000a900473ffffffffffffffffffffffffffffffffffffffff1673ffffffffffffffffffffffffffffffffffffffff163373ffffffffffffffffffffffffffffffffffffffff1614610a15576040517f08c379a0000000000000000000000000000000000000000000000000000000008152600401610a0c90612be6565b60405180910390fd5b610a1d61221a565b828160000181905250600081602001901515908115158152505080600160008673ffffffffffffffffffffffffffffffffffffffff1673ffffffffffffffffffffffffffffffffffffffff1681526020019081526020016000206000820151816000019081610a8c9190612da8565b5060208201518160010160006101000a81548160ff02191690831515021790555090505060056000815480929190610ac3906127c8565b919050555060055491505092915050565b60055481565b600760009054906101000a900473ffffffffffffffffffffffffffffffffffffffff1681565b3073ffffffffffffffffffffffffffffffffffffffff16636d77bd3e6040518163ffffffff1660e01b8152600401610b3790612ec6565b6020604051808303816000875af1925050508015610b7357506040513d601f19601f82011682018060405250810190610b709190612efb565b60015b610d6d57610b7f612f35565b806308c379a003610c1d5750610b93612f57565b80610b9e5750610cba565b73__$acbfb1c35000d78352310b16a054a6b106$__63e8c2cb16826040518263ffffffff1660e01b8152600401610bd5919061308f565b602060405180830381865af4158015610bf2573d6000803e3d6000fd5b505050506040513d601f19601f82011682018060405250810190610c1691906129fb565b5050610d68565b634e487b7103610cba57610c2f6130d7565b90610c3a5750610cba565b73__$acbfb1c35000d78352310b16a054a6b106$__6339df137f60006040518263ffffffff1660e01b8152600401610c72919061316a565b602060405180830381865af4158015610c8f573d6000803e3d6000fd5b505050506040513d601f19601f82011682018060405250810190610cb391906129fb565b5050610d68565b3d8060008114610ce6576040519150601f19603f3d011682016040523d82523d6000602084013e610ceb565b606091505b5073__$acbfb1c35000d78352310b16a054a6b106$__6339df137f60006040518263ffffffff1660e01b8152600401610d2491906131e4565b602060405180830381865af4158015610d41573d6000803e3d6000fd5b505050506040513d601f19601f82011682018060405250810190610d6591906129fb565b50505b610deb565b73__$acbfb1c35000d78352310b16a054a6b106$__63561015e28260036040518363ffffffff1660e01b8152600401610da7929190613299565b602060405180830381865af4158015610dc4573d6000803e3d6000fd5b505050506040513d601f19601f82011682018060405250810190610de891906129fb565b50505b565b60026020528060005260406000206000915090508060000160009054906101000a900473ffffffffffffffffffffffffffffffffffffffff16908060010154905082565b73__$acbfb1c35000d78352310b16a054a6b106$__6339df137f610e5560026103d0565b6040518263ffffffff1660e01b8152600401610e719190612b46565b602060405180830381865af4158015610e8e573d6000803e3d6000fd5b505050506040513d601f19601f82011682018060405250810190610eb291906129fb565b50565b6000600760009054906101000a900473ffffffffffffffffffffffffffffffffffffffff1673ffffffffffffffffffffffffffffffffffffffff163373ffffffffffffffffffffffffffffffffffffffff1614610f47576040517f08c379a0000000000000000000000000000000000000000000000000000000008152600401610f3e90612be6565b60405180910390fd5b60046000815480929190610f5a906127c8565b91905055508160008060045481526020019081526020016000209081610f809190612da8565b506004549050919050565b3073ffffffffffffffffffffffffffffffffffffffff16633b9f708d600d60009054906101000a900473ffffffffffffffffffffffffffffffffffffffff166040518263ffffffff1660e01b8152600401610fe69190613321565b6020604051808303816000875af192505050801561102257506040513d601f19601f8201168201806040525081019061101f9190612efb565b60015b61121c5761102e612f35565b806308c379a0036110cc5750611042612f57565b8061104d5750611169565b73__$acbfb1c35000d78352310b16a054a6b106$__63e8c2cb16826040518263ffffffff1660e01b8152600401611084919061308f565b602060405180830381865af41580156110a1573d6000803e3d6000fd5b505050506040513d601f19601f820116820180604052508101906110c591906129fb565b5050611217565b634e487b7103611169576110de6130d7565b906110e95750611169565b73__$acbfb1c35000d78352310b16a054a6b106$__6339df137f60006040518263ffffffff1660e01b8152600401611121919061316a565b602060405180830381865af415801561113e573d6000803e3d6000fd5b505050506040513d601f19601f8201168201806040525081019061116291906129fb565b5050611217565b3d8060008114611195576040519150601f19603f3d011682016040523d82523d6000602084013e61119a565b606091505b5073__$acbfb1c35000d78352310b16a054a6b106$__6339df137f60006040518263ffffffff1660e01b81526004016111d391906131e4565b602060405180830381865af41580156111f0573d6000803e3d6000fd5b505050506040513d601f19601f8201168201806040525081019061121491906129fb565b50505b61129a565b73__$acbfb1c35000d78352310b16a054a6b106$__63561015e28260056040518363ffffffff1660e01b815260040161125692919061338a565b602060405180830381865af4158015611273573d6000803e3d6000fd5b505050506040513d601f19601f8201168201806040525081019061129791906129fb565b50505b565b600960009054906101000a900460ff1681565b73__$1068a87eb54ed04c4e435de35b2ebf536f$__63ce88b14560006040518263ffffffff1660e01b81526004016112e79190613401565b602060405180830381865af4158015611304573d6000803e3d6000fd5b505050506040513d601f19601f820116820180604052508101906113289190613431565b600960016101000a81548173ffffffffffffffffffffffffffffffffffffffff021916908373ffffffffffffffffffffffffffffffffffffffff16021790555073__$1068a87eb54ed04c4e435de35b2ebf536f$__63ce88b14560016040518263ffffffff1660e01b81526004016113a0919061345e565b602060405180830381865af41580156113bd573d6000803e3d6000fd5b505050506040513d601f19601f820116820180604052508101906113e19190613431565b600a60006101000a81548173ffffffffffffffffffffffffffffffffffffffff021916908373ffffffffffffffffffffffffffffffffffffffff16021790555073__$1068a87eb54ed04c4e435de35b2ebf536f$__63ce88b14560026040518263ffffffff1660e01b81526004016114599190613479565b602060405180830381865af4158015611476573d6000803e3d6000fd5b505050506040513d601f19601f8201168201806040525081019061149a9190613431565b600b60006101000a81548173ffffffffffffffffffffffffffffffffffffffff021916908373ffffffffffffffffffffffffffffffffffffffff16021790555073__$1068a87eb54ed04c4e435de35b2ebf536f$__63ce88b14560036040518263ffffffff1660e01b81526004016115129190613494565b602060405180830381865af415801561152f573d6000803e3d6000fd5b505050506040513d601f19601f820116820180604052508101906115539190613431565b600c60006101000a81548173ffffffffffffffffffffffffffffffffffffffff021916908373ffffffffffffffffffffffffffffffffffffffff16021790555073__$1068a87eb54ed04c4e435de35b2ebf536f$__63ce88b14560046040518263ffffffff1660e01b81526004016115cb91906134ea565b602060405180830381865af41580156115e8573d6000803e3d6000fd5b505050506040513d601f19601f8201168201806040525081019061160c9190613431565b600d60006101000a81548173ffffffffffffffffffffffffffffffffffffffff021916908373ffffffffffffffffffffffffffffffffffffffff160217905550565b73__$acbfb1c35000d78352310b16a054a6b106$__63abcd79606116c9600960019054906101000a900473ffffffffffffffffffffffffffffffffffffffff166040518060400160405280600581526020017f416c696365000000000000000000000000000000000000000000000000000000815250610983565b60016040518363ffffffff1660e01b81526004016116e8929190612993565b602060405180830381865af4158015611705573d6000803e3d6000fd5b505050506040513d601f19601f8201168201806040525081019061172991906129fb565b5073__$acbfb1c35000d78352310b16a054a6b106$__63abcd79606117a5600a60009054906101000a900473ffffffffffffffffffffffffffffffffffffffff166040518060400160405280600381526020017f426f620000000000000000000000000000000000000000000000000000000000815250610983565b60026040518363ffffffff1660e01b81526004016117c4929190612aaf565b602060405180830381865af41580156117e1573d6000803e3d6000fd5b505050506040513d601f19601f8201168201806040525081019061180591906129fb565b5073__$acbfb1c35000d78352310b16a054a6b106$__63abcd7960611881600b60009054906101000a900473ffffffffffffffffffffffffffffffffffffffff166040518060400160405280600781526020017f436861726c696500000000000000000000000000000000000000000000000000815250610983565b60036040518363ffffffff1660e01b81526004016118a0929190613551565b602060405180830381865af41580156118bd573d6000803e3d6000fd5b505050506040513d601f19601f820116820180604052508101906118e191906129fb565b5073__$acbfb1c35000d78352310b16a054a6b106$__63abcd796061195d600c60009054906101000a900473ffffffffffffffffffffffffffffffffffffffff166040518060400160405280600381526020017f4576650000000000000000000000000000000000000000000000000000000000815250610983565b60046040518363ffffffff1660e01b815260040161197c9291906135d9565b602060405180830381865af4158015611999573d6000803e3d6000fd5b505050506040513d601f19601f820116820180604052508101906119bd91906129fb565b50565b73__$acbfb1c35000d78352310b16a054a6b106$__63bfba5dd6600760009054906101000a900473ffffffffffffffffffffffffffffffffffffffff16600960019054906101000a900473ffffffffffffffffffffffffffffffffffffffff166040518363ffffffff1660e01b8152600401611a3d929190613670565b602060405180830381865af4158015611a5a573d6000803e3d6000fd5b505050506040513d601f19601f82011682018060405250810190611a7e91906129fb565b50565b73__$acbfb1c35000d78352310b16a054a6b106$__6339df137f611aa560016103d0565b6040518263ffffffff1660e01b8152600401611ac19190612b46565b602060405180830381865af4158015611ade573d6000803e3d6000fd5b505050506040513d601f19601f82011682018060405250810190611b0291906129fb565b50565b60065481565b3073ffffffffffffffffffffffffffffffffffffffff1663124258c660016040518263ffffffff1660e01b8152600401611b4591906136bb565b6020604051808303816000875af1925050508015611b8157506040513d601f19601f82011682018060405250810190611b7e91906129fb565b60015b611d7b57611b8d612f35565b806308c379a003611c2b5750611ba1612f57565b80611bac5750611cc8565b73__$acbfb1c35000d78352310b16a054a6b106$__63e8c2cb16826040518263ffffffff1660e01b8152600401611be391906136f9565b602060405180830381865af4158015611c00573d6000803e3d6000fd5b505050506040513d601f19601f82011682018060405250810190611c2491906129fb565b5050611d76565b634e487b7103611cc857611c3d6130d7565b90611c485750611cc8565b73__$acbfb1c35000d78352310b16a054a6b106$__6339df137f60006040518263ffffffff1660e01b8152600401611c80919061316a565b602060405180830381865af4158015611c9d573d6000803e3d6000fd5b505050506040513d601f19601f82011682018060405250810190611cc191906129fb565b5050611d76565b3d8060008114611cf4576040519150601f19603f3d011682016040523d82523d6000602084013e611cf9565b606091505b5073__$acbfb1c35000d78352310b16a054a6b106$__6339df137f60006040518263ffffffff1660e01b8152600401611d32919061378d565b602060405180830381865af4158015611d4f573d6000803e3d6000fd5b505050506040513d601f19601f82011682018060405250810190611d7391906129fb565b50505b611df9565b73__$acbfb1c35000d78352310b16a054a6b106$__63767392b38260016040518363ffffffff1660e01b8152600401611db59291906137bb565b602060405180830381865af4158015611dd2573d6000803e3d6000fd5b505050506040513d601f19601f82011682018060405250810190611df691906129fb565b50505b565b73__$acbfb1c35000d78352310b16a054a6b106$__63e8c2cb1660086040518263ffffffff1660e01b8152600401611e339190613939565b602060405180830381865af4158015611e50573d6000803e3d6000fd5b505050506040513d601f19601f82011682018060405250810190611e7491906129fb565b50565b73__$acbfb1c35000d78352310b16a054a6b106$__63767392b3611e9b60016103d0565b60006040518363ffffffff1660e01b8152600401611eba9291906139cd565b602060405180830381865af4158015611ed7573d6000803e3d6000fd5b505050506040513d601f19601f82011682018060405250810190611efb91906129fb565b50565b60006020528060005260406000206000915090508054611f1d90612768565b80601f0160208091040260200160405190810160405280929190818152602001828054611f4990612768565b8015611f965780601f10611f6b57610100808354040283529160200191611f96565b820191906000526020600020905b815481529060010190602001808311611f7957829003601f168201915b505050505081565b60045481565b73__$acbfb1c35000d78352310b16a054a6b106$__63767392b3600960009054906101000a900460ff1660006040518363ffffffff1660e01b8152600401611fed929190613a55565b602060405180830381865af415801561200a573d6000803e3d6000fd5b505050506040513d601f19601f8201168201806040525081019061202e91906129fb565b50565b6008805461203e90612768565b80601f016020809104026020016040519081016040528092919081815260200182805461206a90612768565b80156120b75780601f1061208c576101008083540402835291602001916120b7565b820191906000526020600020905b81548152906001019060200180831161209a57829003601f168201915b505050505081565b6000806000600190505b60065481116121a95760006001905060006003600060026000868152602001908152602001600020600101548152602001908152602001600020541115612142576003600060026000858152602001908152602001600020600101548152602001908152602001600020548161213f91906128ae565b90505b806003600060026000868152602001908152602001600020600101548152602001908152602001600020819055508381111561219557809350600260008381526020019081526020016000206001015492505b5080806121a1906127c8565b9150506120c9565b50600080828152602001908152602001600020600890816121ca9190613abc565b506000600960006101000a81548160ff0219169083151502179055505050565b6040518060400160405280600073ffffffffffffffffffffffffffffffffffffffff168152602001600081525090565b6040518060400160405280606081526020016000151581525090565b6000604051905090565b600080fd5b600080fd5b6000819050919050565b61225d8161224a565b811461226857600080fd5b50565b60008135905061227a81612254565b92915050565b60006020828403121561229657612295612240565b5b60006122a48482850161226b565b91505092915050565b60008115159050919050565b6122c2816122ad565b82525050565b60006020820190506122dd60008301846122b9565b92915050565b600073ffffffffffffffffffffffffffffffffffffffff82169050919050565b600061230e826122e3565b9050919050565b61231e81612303565b811461232957600080fd5b50565b60008135905061233b81612315565b92915050565b60006020828403121561235757612356612240565b5b60006123658482850161232c565b91505092915050565b600081519050919050565b600082825260208201905092915050565b60005b838110156123a857808201518184015260208101905061238d565b60008484015250505050565b6000601f19601f8301169050919050565b60006123d08261236e565b6123da8185612379565b93506123ea81856020860161238a565b6123f3816123b4565b840191505092915050565b6000604082019050818103600083015261241881856123c5565b905061242760208301846122b9565b9392505050565b600080fd5b600080fd5b7f4e487b7100000000000000000000000000000000000000000000000000000000600052604160045260246000fd5b612470826123b4565b810181811067ffffffffffffffff8211171561248f5761248e612438565b5b80604052505050565b60006124a2612236565b90506124ae8282612467565b919050565b600067ffffffffffffffff8211156124ce576124cd612438565b5b6124d7826123b4565b9050602081019050919050565b82818337600083830152505050565b6000612506612501846124b3565b612498565b90508281526020810184848401111561252257612521612433565b5b61252d8482856124e4565b509392505050565b600082601f83011261254a5761254961242e565b5b813561255a8482602086016124f3565b91505092915050565b6000806040838503121561257a57612579612240565b5b60006125888582860161232c565b925050602083013567ffffffffffffffff8111156125a9576125a8612245565b5b6125b585828601612535565b9150509250929050565b6125c88161224a565b82525050565b60006020820190506125e360008301846125bf565b92915050565b6125f281612303565b82525050565b600060208201905061260d60008301846125e9565b92915050565b600060408201905061262860008301856125e9565b61263560208301846125bf565b9392505050565b60006020828403121561265257612651612240565b5b600082013567ffffffffffffffff8111156126705761266f612245565b5b61267c84828501612535565b91505092915050565b6000602082019050818103600083015261269f81846123c5565b905092915050565b7f43616e20766f7465206f6e6c79207768696c6520766f74696e67206973206f7060008201527f656e2e0000000000000000000000000000000000000000000000000000000000602082015250565b6000612703602383612379565b915061270e826126a7565b604082019050919050565b60006020820190508181036000830152612732816126f6565b9050919050565b7f4e487b7100000000000000000000000000000000000000000000000000000000600052602260045260246000fd5b6000600282049050600182168061278057607f821691505b60208210810361279357612792612739565b5b50919050565b7f4e487b7100000000000000000000000000000000000000000000000000000000600052601160045260246000fd5b60006127d38261224a565b91507fffffffffffffffffffffffffffffffffffffffffffffffffffffffffffffffff820361280557612804612799565b5b600182019050919050565b600060608201905061282560008301866125e9565b818103602083015261283781856123c5565b905061284660408301846122b9565b949350505050565b7f4e487b7100000000000000000000000000000000000000000000000000000000600052601260045260246000fd5b60006128888261224a565b91506128938361224a565b9250826128a3576128a261284e565b5b828204905092915050565b60006128b98261224a565b91506128c48361224a565b92508282019050808211156128dc576128db612799565b5b92915050565b6128eb8161224a565b82525050565b6000819050919050565b6000819050919050565b600061292061291b612916846128f1565b6128fb565b61224a565b9050919050565b61293081612905565b82525050565b600082825260208201905092915050565b7f53686f756c6420626520657175616c20746f2031000000000000000000000000600082015250565b600061297d601483612936565b915061298882612947565b602082019050919050565b60006060820190506129a860008301856128e2565b6129b56020830184612927565b81810360408301526129c681612970565b90509392505050565b6129d8816122ad565b81146129e357600080fd5b50565b6000815190506129f5816129cf565b92915050565b600060208284031215612a1157612a10612240565b5b6000612a1f848285016129e6565b91505092915050565b6000819050919050565b6000612a4d612a48612a4384612a28565b6128fb565b61224a565b9050919050565b612a5d81612a32565b82525050565b7f53686f756c6420626520657175616c20746f2032000000000000000000000000600082015250565b6000612a99601483612936565b9150612aa482612a63565b602082019050919050565b6000606082019050612ac460008301856128e2565b612ad16020830184612a54565b8181036040830152612ae281612a8c565b90509392505050565b612af4816122ad565b82525050565b7f566f74696e6720726573756c742073686f756c64206265207472756500000000600082015250565b6000612b30601c83612936565b9150612b3b82612afa565b602082019050919050565b6000604082019050612b5b6000830184612aeb565b8181036020830152612b6c81612b23565b905092915050565b7f43616e206f6e6c7920626520657865637574656420627920746865206d616e6160008201527f6765720000000000000000000000000000000000000000000000000000000000602082015250565b6000612bd0602383612379565b9150612bdb82612b74565b604082019050919050565b60006020820190508181036000830152612bff81612bc3565b9050919050565b60008190508160005260206000209050919050565b60006020601f8301049050919050565b600082821b905092915050565b600060088302612c687fffffffffffffffffffffffffffffffffffffffffffffffffffffffffffffffff82612c2b565b612c728683612c2b565b95508019841693508086168417925050509392505050565b6000612ca5612ca0612c9b8461224a565b6128fb565b61224a565b9050919050565b6000819050919050565b612cbf83612c8a565b612cd3612ccb82612cac565b848454612c38565b825550505050565b600090565b612ce8612cdb565b612cf3818484612cb6565b505050565b5b81811015612d1757612d0c600082612ce0565b600181019050612cf9565b5050565b601f821115612d5c57612d2d81612c06565b612d3684612c1b565b81016020851015612d45578190505b612d59612d5185612c1b565b830182612cf8565b50505b505050565b600082821c905092915050565b6000612d7f60001984600802612d61565b1980831691505092915050565b6000612d988383612d6e565b9150826002028217905092915050565b612db18261236e565b67ffffffffffffffff811115612dca57612dc9612438565b5b612dd48254612768565b612ddf828285612d1b565b600060209050601f831160018114612e125760008415612e00578287015190505b612e0a8582612d8c565b865550612e72565b601f198416612e2086612c06565b60005b82811015612e4857848901518255600182019150602085019450602081019050612e23565b86831015612e655784890151612e61601f891682612d6e565b8355505b6001600288020188555050505b505050505050565b7f41746f6d69632043616665000000000000000000000000000000000000000000600082015250565b6000612eb0600b83612379565b9150612ebb82612e7a565b602082019050919050565b60006020820190508181036000830152612edf81612ea3565b9050919050565b600081519050612ef581612254565b92915050565b600060208284031215612f1157612f10612240565b5b6000612f1f84828501612ee6565b91505092915050565b60008160e01c9050919050565b600060033d1115612f545760046000803e612f51600051612f28565b90505b90565b600060443d10612fe457612f69612236565b60043d036004823e80513d602482011167ffffffffffffffff82111715612f91575050612fe4565b808201805167ffffffffffffffff811115612faf5750505050612fe4565b80602083010160043d038501811115612fcc575050505050612fe4565b612fdb82602001850186612467565b82955050505050505b90565b6000612ff28261236e565b612ffc8185612936565b935061300c81856020860161238a565b613015816123b4565b840191505092915050565b600061302d602383612936565b915061303882612b74565b604082019050919050565b7f4661696c6564207769746820756e657870656374656420726561736f6e000000600082015250565b6000613079601d83612936565b915061308482613043565b602082019050919050565b600060608201905081810360008301526130a98184612fe7565b905081810360208301526130bc81613020565b905081810360408301526130cf8161306c565b905092915050565b60008060233d11156130f4576020600460003e6001915060005190505b9091565b7f4661696c656420756e65787065637465642077697468206572726f7220636f6460008201527f6500000000000000000000000000000000000000000000000000000000000000602082015250565b6000613154602183612936565b915061315f826130f8565b604082019050919050565b600060408201905061317f6000830184612aeb565b818103602083015261319081613147565b905092915050565b7f4661696c656420756e6578706563746564000000000000000000000000000000600082015250565b60006131ce601183612936565b91506131d982613198565b602082019050919050565b60006040820190506131f96000830184612aeb565b818103602083015261320a816131c1565b905092915050565b6000819050919050565b600061323761323261322d84613212565b6128fb565b61224a565b9050919050565b6132478161321c565b82525050565b7f4d6574686f6420657865637574696f6e20646964206e6f74206661696c000000600082015250565b6000613283601d83612936565b915061328e8261324d565b602082019050919050565b60006060820190506132ae60008301856128e2565b6132bb602083018461323e565b81810360408301526132cc81613276565b90509392505050565b7f44616e69656c7300000000000000000000000000000000000000000000000000600082015250565b600061330b600783612379565b9150613316826132d5565b602082019050919050565b600060408201905061333660008301846125e9565b8181036020830152613347816132fe565b905092915050565b6000819050919050565b600061337461336f61336a8461334f565b6128fb565b61224a565b9050919050565b61338481613359565b82525050565b600060608201905061339f60008301856128e2565b6133ac602083018461337b565b81810360408301526133bd81613276565b90509392505050565b6000819050919050565b60006133eb6133e66133e1846133c6565b6128fb565b61224a565b9050919050565b6133fb816133d0565b82525050565b600060208201905061341660008301846133f2565b92915050565b60008151905061342b81612315565b92915050565b60006020828403121561344757613446612240565b5b60006134558482850161341c565b91505092915050565b60006020820190506134736000830184612927565b92915050565b600060208201905061348e6000830184612a54565b92915050565b60006020820190506134a9600083018461323e565b92915050565b6000819050919050565b60006134d46134cf6134ca846134af565b6128fb565b61224a565b9050919050565b6134e4816134b9565b82525050565b60006020820190506134ff60008301846134db565b92915050565b7f53686f756c6420626520657175616c20746f2033000000000000000000000000600082015250565b600061353b601483612936565b915061354682613505565b602082019050919050565b600060608201905061356660008301856128e2565b613573602083018461323e565b81810360408301526135848161352e565b90509392505050565b7f53686f756c6420626520657175616c20746f2034000000000000000000000000600082015250565b60006135c3601483612936565b91506135ce8261358d565b602082019050919050565b60006060820190506135ee60008301856128e2565b6135fb60208301846134db565b818103604083015261360c816135b6565b90509392505050565b61361e81612303565b82525050565b7f4d616e616765722073686f756c64206265206163633000000000000000000000600082015250565b600061365a601683612936565b915061366582613624565b602082019050919050565b60006060820190506136856000830185613615565b6136926020830184613615565b81810360408301526136a38161364d565b90509392505050565b6136b581612905565b82525050565b60006020820190506136d060008301846136ac565b92915050565b60006136e3602383612936565b91506136ee826126a7565b604082019050919050565b600060608201905081810360008301526137138184612fe7565b90508181036020830152613726816136d6565b905081810360408301526137398161306c565b905092915050565b7f4661696c656420756e65787065637465646c7900000000000000000000000000600082015250565b6000613777601383612936565b915061378282613741565b602082019050919050565b60006040820190506137a26000830184612aeb565b81810360208301526137b38161376a565b905092915050565b60006060820190506137d06000830185612aeb565b6137dd6020830184612aeb565b81810360408301526137ee81613276565b90509392505050565b6000815461380481612768565b61380e8186612936565b94506001821660008114613829576001811461383f57613872565b60ff198316865281151560200286019350613872565b61384885612c06565b60005b8381101561386a5781548189015260018201915060208101905061384b565b808801955050505b50505092915050565b7f556e692043616665000000000000000000000000000000000000000000000000600082015250565b60006138b1600883612936565b91506138bc8261387b565b602082019050919050565b7f53656c65637465642072657374617572616e742073686f756c6420626520556e60008201527f6920436166650000000000000000000000000000000000000000000000000000602082015250565b6000613923602683612936565b915061392e826138c7565b604082019050919050565b6000606082019050818103600083015261395381846137f7565b90508181036020830152613966816138a4565b9050818103604083015261397981613916565b905092915050565b7f566f74696e6720726573756c742073686f756c642062652066616c7365000000600082015250565b60006139b7601d83612936565b91506139c282613981565b602082019050919050565b60006060820190506139e26000830185612aeb565b6139ef6020830184612aeb565b8181036040830152613a00816139aa565b90509392505050565b7f566f74696e672073686f756c6420626520636c6f736564000000000000000000600082015250565b6000613a3f601783612936565b9150613a4a82613a09565b602082019050919050565b6000606082019050613a6a6000830185612aeb565b613a776020830184612aeb565b8181036040830152613a8881613a32565b90509392505050565b600081549050613aa081612768565b9050919050565b60008190508160005260206000209050919050565b818103613aca575050613ba2565b613ad382613a91565b67ffffffffffffffff811115613aec57613aeb612438565b5b613af68254612768565b613b01828285612d1b565b6000601f831160018114613b305760008415613b1e578287015490505b613b288582612d8c565b865550613b9b565b601f198416613b3e87613aa7565b9650613b4986612c06565b60005b82811015613b7157848901548255600182019150600185019450602081019050613b4c565b86831015613b8e5784890154613b8a601f891682612d6e565b8355505b6001600288020188555050505b5050505050505b56fea264697066735822122065309a4ff58a893ac695ede80bfabea50bfb5e0afcdf5c19aafd5c4d6e62d64864736f6c63430008120033",
			"opcodes": "PUSH1 0x80 PUSH1 0x40 MSTORE PUSH1 0x0 PUSH1 0x4 SSTORE PUSH1 0x0 PUSH1 0x5 SSTORE PUSH1 0x0 PUSH1 0x6 SSTORE PUSH1 0x40 MLOAD DUP1 PUSH1 0x20 ADD PUSH1 0x40 MSTORE DUP1 PUSH1 0x0 DUP2 MSTORE POP PUSH1 0x8 SWAP1 DUP2 PUSH3 0x33 SWAP2 SWAP1 PUSH3 0x31E JUMP JUMPDEST POP PUSH1 0x1 PUSH1 0x9 PUSH1 0x0 PUSH2 0x100 EXP DUP2 SLOAD DUP2 PUSH1 0xFF MUL NOT AND SWAP1 DUP4 ISZERO ISZERO MUL OR SWAP1 SSTORE POP CALLVALUE DUP1 ISZERO PUSH3 0x5C JUMPI PUSH1 0x0 DUP1 REVERT JUMPDEST POP CALLER PUSH1 0x7 PUSH1 0x0 PUSH2 0x100 EXP DUP2 SLOAD DUP2 PUSH20 0xFFFFFFFFFFFFFFFFFFFFFFFFFFFFFFFFFFFFFFFF MUL NOT AND SWAP1 DUP4 PUSH20 0xFFFFFFFFFFFFFFFFFFFFFFFFFFFFFFFFFFFFFFFF AND MUL OR SWAP1 SSTORE POP PUSH3 0x405 JUMP JUMPDEST PUSH1 0x0 DUP2 MLOAD SWAP1 POP SWAP2 SWAP1 POP JUMP JUMPDEST PUSH32 0x4E487B7100000000000000000000000000000000000000000000000000000000 PUSH1 0x0 MSTORE PUSH1 0x41 PUSH1 0x4 MSTORE PUSH1 0x24 PUSH1 0x0 REVERT JUMPDEST PUSH32 0x4E487B7100000000000000000000000000000000000000000000000000000000 PUSH1 0x0 MSTORE PUSH1 0x22 PUSH1 0x4 MSTORE PUSH1 0x24 PUSH1 0x0 REVERT JUMPDEST PUSH1 0x0 PUSH1 0x2 DUP3 DIV SWAP1 POP PUSH1 0x1 DUP3 AND DUP1 PUSH3 0x126 JUMPI PUSH1 0x7F DUP3 AND SWAP2 POP JUMPDEST PUSH1 0x20 DUP3 LT DUP2 SUB PUSH3 0x13C JUMPI PUSH3 0x13B PUSH3 0xDE JUMP JUMPDEST JUMPDEST POP SWAP2 SWAP1 POP JUMP JUMPDEST PUSH1 0x0 DUP2 SWAP1 POP DUP2 PUSH1 0x0 MSTORE PUSH1 0x20 PUSH1 0x0 KECCAK256 SWAP1 POP SWAP2 SWAP1 POP JUMP JUMPDEST PUSH1 0x0 PUSH1 0x20 PUSH1 0x1F DUP4 ADD DIV SWAP1 POP SWAP2 SWAP1 POP JUMP JUMPDEST PUSH1 0x0 DUP3 DUP3 SHL SWAP1 POP SWAP3 SWAP2 POP POP JUMP JUMPDEST PUSH1 0x0 PUSH1 0x8 DUP4 MUL PUSH3 0x1A6 PUSH32 0xFFFFFFFFFFFFFFFFFFFFFFFFFFFFFFFFFFFFFFFFFFFFFFFFFFFFFFFFFFFFFFFF DUP3 PUSH3 0x167 JUMP JUMPDEST PUSH3 0x1B2 DUP7 DUP4 PUSH3 0x167 JUMP JUMPDEST SWAP6 POP DUP1 NOT DUP5 AND SWAP4 POP DUP1 DUP7 AND DUP5 OR SWAP3 POP POP POP SWAP4 SWAP3 POP POP POP JUMP JUMPDEST PUSH1 0x0 DUP2 SWAP1 POP SWAP2 SWAP1 POP JUMP JUMPDEST PUSH1 0x0 DUP2 SWAP1 POP SWAP2 SWAP1 POP JUMP JUMPDEST PUSH1 0x0 PUSH3 0x1FF PUSH3 0x1F9 PUSH3 0x1F3 DUP5 PUSH3 0x1CA JUMP JUMPDEST PUSH3 0x1D4 JUMP JUMPDEST PUSH3 0x1CA JUMP JUMPDEST SWAP1 POP SWAP2 SWAP1 POP JUMP JUMPDEST PUSH1 0x0 DUP2 SWAP1 POP SWAP2 SWAP1 POP JUMP JUMPDEST PUSH3 0x21B DUP4 PUSH3 0x1DE JUMP JUMPDEST PUSH3 0x233 PUSH3 0x22A DUP3 PUSH3 0x206 JUMP JUMPDEST DUP5 DUP5 SLOAD PUSH3 0x174 JUMP JUMPDEST DUP3 SSTORE POP POP POP POP JUMP JUMPDEST PUSH1 0x0 SWAP1 JUMP JUMPDEST PUSH3 0x24A PUSH3 0x23B JUMP JUMPDEST PUSH3 0x257 DUP2 DUP5 DUP5 PUSH3 0x210 JUMP JUMPDEST POP POP POP JUMP JUMPDEST JUMPDEST DUP2 DUP2 LT ISZERO PUSH3 0x27F JUMPI PUSH3 0x273 PUSH1 0x0 DUP3 PUSH3 0x240 JUMP JUMPDEST PUSH1 0x1 DUP2 ADD SWAP1 POP PUSH3 0x25D JUMP JUMPDEST POP POP JUMP JUMPDEST PUSH1 0x1F DUP3 GT ISZERO PUSH3 0x2CE JUMPI PUSH3 0x298 DUP2 PUSH3 0x142 JUMP JUMPDEST PUSH3 0x2A3 DUP5 PUSH3 0x157 JUMP JUMPDEST DUP2 ADD PUSH1 0x20 DUP6 LT ISZERO PUSH3 0x2B3 JUMPI DUP2 SWAP1 POP JUMPDEST PUSH3 0x2CB PUSH3 0x2C2 DUP6 PUSH3 0x157 JUMP JUMPDEST DUP4 ADD DUP3 PUSH3 0x25C JUMP JUMPDEST POP POP JUMPDEST POP POP POP JUMP JUMPDEST PUSH1 0x0 DUP3 DUP3 SHR SWAP1 POP SWAP3 SWAP2 POP POP JUMP JUMPDEST PUSH1 0x0 PUSH3 0x2F3 PUSH1 0x0 NOT DUP5 PUSH1 0x8 MUL PUSH3 0x2D3 JUMP JUMPDEST NOT DUP1 DUP4 AND SWAP2 POP POP SWAP3 SWAP2 POP POP JUMP JUMPDEST PUSH1 0x0 PUSH3 0x30E DUP4 DUP4 PUSH3 0x2E0 JUMP JUMPDEST SWAP2 POP DUP3 PUSH1 0x2 MUL DUP3 OR SWAP1 POP SWAP3 SWAP2 POP POP JUMP JUMPDEST PUSH3 0x329 DUP3 PUSH3 0xA4 JUMP JUMPDEST PUSH8 0xFFFFFFFFFFFFFFFF DUP2 GT ISZERO PUSH3 0x345 JUMPI PUSH3 0x344 PUSH3 0xAF JUMP JUMPDEST JUMPDEST PUSH3 0x351 DUP3 SLOAD PUSH3 0x10D JUMP JUMPDEST PUSH3 0x35E DUP3 DUP3 DUP6 PUSH3 0x283 JUMP JUMPDEST PUSH1 0x0 PUSH1 0x20 SWAP1 POP PUSH1 0x1F DUP4 GT PUSH1 0x1 DUP2 EQ PUSH3 0x396 JUMPI PUSH1 0x0 DUP5 ISZERO PUSH3 0x381 JUMPI DUP3 DUP8 ADD MLOAD SWAP1 POP JUMPDEST PUSH3 0x38D DUP6 DUP3 PUSH3 0x300 JUMP JUMPDEST DUP7 SSTORE POP PUSH3 0x3FD JUMP JUMPDEST PUSH1 0x1F NOT DUP5 AND PUSH3 0x3A6 DUP7 PUSH3 0x142 JUMP JUMPDEST PUSH1 0x0 JUMPDEST DUP3 DUP2 LT ISZERO PUSH3 0x3D0 JUMPI DUP5 DUP10 ADD MLOAD DUP3 SSTORE PUSH1 0x1 DUP3 ADD SWAP2 POP PUSH1 0x20 DUP6 ADD SWAP5 POP PUSH1 0x20 DUP2 ADD SWAP1 POP PUSH3 0x3A9 JUMP JUMPDEST DUP7 DUP4 LT ISZERO PUSH3 0x3F0 JUMPI DUP5 DUP10 ADD MLOAD PUSH3 0x3EC PUSH1 0x1F DUP10 AND DUP3 PUSH3 0x2E0 JUMP JUMPDEST DUP4 SSTORE POP JUMPDEST PUSH1 0x1 PUSH1 0x2 DUP9 MUL ADD DUP9 SSTORE POP POP POP JUMPDEST POP POP POP POP POP POP JUMP JUMPDEST PUSH2 0x3BDA DUP1 PUSH3 0x415 PUSH1 0x0 CODECOPY PUSH1 0x0 RETURN INVALID PUSH1 0x80 PUSH1 0x40 MSTORE CALLVALUE DUP1 ISZERO PUSH2 0x10 JUMPI PUSH1 0x0 DUP1 REVERT JUMPDEST POP PUSH1 0x4 CALLDATASIZE LT PUSH2 0x173 JUMPI PUSH1 0x0 CALLDATALOAD PUSH1 0xE0 SHR DUP1 PUSH4 0x788D3851 GT PUSH2 0xDE JUMPI DUP1 PUSH4 0xA5627CF0 GT PUSH2 0x97 JUMPI DUP1 PUSH4 0xAD5461D8 GT PUSH2 0x71 JUMPI DUP1 PUSH4 0xAD5461D8 EQ PUSH2 0x35A JUMPI DUP1 PUSH4 0xB798867F EQ PUSH2 0x38A JUMPI DUP1 PUSH4 0xBBB97DED EQ PUSH2 0x3A8 JUMPI DUP1 PUSH4 0xC1C16EFC EQ PUSH2 0x3B2 JUMPI PUSH2 0x173 JUMP JUMPDEST DUP1 PUSH4 0xA5627CF0 EQ PUSH2 0x33C JUMPI DUP1 PUSH4 0xA8267245 EQ PUSH2 0x346 JUMPI DUP1 PUSH4 0xA9A4070C EQ PUSH2 0x350 JUMPI PUSH2 0x173 JUMP JUMPDEST DUP1 PUSH4 0x788D3851 EQ PUSH2 0x2D8 JUMPI DUP1 PUSH4 0x7FEA0D4B EQ PUSH2 0x2F6 JUMPI DUP1 PUSH4 0x848B4427 EQ PUSH2 0x300 JUMPI DUP1 PUSH4 0x947AEA86 EQ PUSH2 0x30A JUMPI DUP1 PUSH4 0xA24A4E88 EQ PUSH2 0x314 JUMPI DUP1 PUSH4 0xA3BEF4D7 EQ PUSH2 0x31E JUMPI PUSH2 0x173 JUMP JUMPDEST DUP1 PUSH4 0x481C6A75 GT PUSH2 0x130 JUMPI DUP1 PUSH4 0x481C6A75 EQ PUSH2 0x23B JUMPI DUP1 PUSH4 0x512A6FBB EQ PUSH2 0x259 JUMPI DUP1 PUSH4 0x5DF81330 EQ PUSH2 0x263 JUMPI DUP1 PUSH4 0x632A9A52 EQ PUSH2 0x294 JUMPI DUP1 PUSH4 0x6D77BD3E EQ PUSH2 0x29E JUMPI DUP1 PUSH4 0x77440E06 EQ PUSH2 0x2CE JUMPI PUSH2 0x173 JUMP JUMPDEST DUP1 PUSH4 0x124258C6 EQ PUSH2 0x178 JUMPI DUP1 PUSH4 0x12A4591A EQ PUSH2 0x1A8 JUMPI DUP1 PUSH4 0x1DDABF7A EQ PUSH2 0x1B2 JUMPI DUP1 PUSH4 0x2955FEA3 EQ PUSH2 0x1E3 JUMPI DUP1 PUSH4 0x3B9F708D EQ PUSH2 0x1ED JUMPI DUP1 PUSH4 0x47098F36 EQ PUSH2 0x21D JUMPI JUMPDEST PUSH1 0x0 DUP1 REVERT JUMPDEST PUSH2 0x192 PUSH1 0x4 DUP1 CALLDATASIZE SUB DUP2 ADD SWAP1 PUSH2 0x18D SWAP2 SWAP1 PUSH2 0x2280 JUMP JUMPDEST PUSH2 0x3D0 JUMP JUMPDEST PUSH1 0x40 MLOAD PUSH2 0x19F SWAP2 SWAP1 PUSH2 0x22C8 JUMP JUMPDEST PUSH1 0x40 MLOAD DUP1 SWAP2 SUB SWAP1 RETURN JUMPDEST PUSH2 0x1B0 PUSH2 0x6D2 JUMP JUMPDEST STOP JUMPDEST PUSH2 0x1CC PUSH1 0x4 DUP1 CALLDATASIZE SUB DUP2 ADD SWAP1 PUSH2 0x1C7 SWAP2 SWAP1 PUSH2 0x2341 JUMP JUMPDEST PUSH2 0x846 JUMP JUMPDEST PUSH1 0x40 MLOAD PUSH2 0x1DA SWAP3 SWAP2 SWAP1 PUSH2 0x23FE JUMP JUMPDEST PUSH1 0x40 MLOAD DUP1 SWAP2 SUB SWAP1 RETURN JUMPDEST PUSH2 0x1EB PUSH2 0x8FF JUMP JUMPDEST STOP JUMPDEST PUSH2 0x207 PUSH1 0x4 DUP1 CALLDATASIZE SUB DUP2 ADD SWAP1 PUSH2 0x202 SWAP2 SWAP1 PUSH2 0x2563 JUMP JUMPDEST PUSH2 0x983 JUMP JUMPDEST PUSH1 0x40 MLOAD PUSH2 0x214 SWAP2 SWAP1 PUSH2 0x25CE JUMP JUMPDEST PUSH1 0x40 MLOAD DUP1 SWAP2 SUB SWAP1 RETURN JUMPDEST PUSH2 0x225 PUSH2 0xAD4 JUMP JUMPDEST PUSH1 0x40 MLOAD PUSH2 0x232 SWAP2 SWAP1 PUSH2 0x25CE JUMP JUMPDEST PUSH1 0x40 MLOAD DUP1 SWAP2 SUB SWAP1 RETURN JUMPDEST PUSH2 0x243 PUSH2 0xADA JUMP JUMPDEST PUSH1 0x40 MLOAD PUSH2 0x250 SWAP2 SWAP1 PUSH2 0x25F8 JUMP JUMPDEST PUSH1 0x40 MLOAD DUP1 SWAP2 SUB SWAP1 RETURN JUMPDEST PUSH2 0x261 PUSH2 0xB00 JUMP JUMPDEST STOP JUMPDEST PUSH2 0x27D PUSH1 0x4 DUP1 CALLDATASIZE SUB DUP2 ADD SWAP1 PUSH2 0x278 SWAP2 SWAP1 PUSH2 0x2280 JUMP JUMPDEST PUSH2 0xDED JUMP JUMPDEST PUSH1 0x40 MLOAD PUSH2 0x28B SWAP3 SWAP2 SWAP1 PUSH2 0x2613 JUMP JUMPDEST PUSH1 0x40 MLOAD DUP1 SWAP2 SUB SWAP1 RETURN JUMPDEST PUSH2 0x29C PUSH2 0xE31 JUMP JUMPDEST STOP JUMPDEST PUSH2 0x2B8 PUSH1 0x4 DUP1 CALLDATASIZE SUB DUP2 ADD SWAP1 PUSH2 0x2B3 SWAP2 SWAP1 PUSH2 0x263C JUMP JUMPDEST PUSH2 0xEB5 JUMP JUMPDEST PUSH1 0x40 MLOAD PUSH2 0x2C5 SWAP2 SWAP1 PUSH2 0x25CE JUMP JUMPDEST PUSH1 0x40 MLOAD DUP1 SWAP2 SUB SWAP1 RETURN JUMPDEST PUSH2 0x2D6 PUSH2 0xF8B JUMP JUMPDEST STOP JUMPDEST PUSH2 0x2E0 PUSH2 0x129C JUMP JUMPDEST PUSH1 0x40 MLOAD PUSH2 0x2ED SWAP2 SWAP1 PUSH2 0x22C8 JUMP JUMPDEST PUSH1 0x40 MLOAD DUP1 SWAP2 SUB SWAP1 RETURN JUMPDEST PUSH2 0x2FE PUSH2 0x12AF JUMP JUMPDEST STOP JUMPDEST PUSH2 0x308 PUSH2 0x164E JUMP JUMPDEST STOP JUMPDEST PUSH2 0x312 PUSH2 0x19C0 JUMP JUMPDEST STOP JUMPDEST PUSH2 0x31C PUSH2 0x1A81 JUMP JUMPDEST STOP JUMPDEST PUSH2 0x326 PUSH2 0x1B05 JUMP JUMPDEST PUSH1 0x40 MLOAD PUSH2 0x333 SWAP2 SWAP1 PUSH2 0x25CE JUMP JUMPDEST PUSH1 0x40 MLOAD DUP1 SWAP2 SUB SWAP1 RETURN JUMPDEST PUSH2 0x344 PUSH2 0x1B0B JUMP JUMPDEST STOP JUMPDEST PUSH2 0x34E PUSH2 0x1DFB JUMP JUMPDEST STOP JUMPDEST PUSH2 0x358 PUSH2 0x1E77 JUMP JUMPDEST STOP JUMPDEST PUSH2 0x374 PUSH1 0x4 DUP1 CALLDATASIZE SUB DUP2 ADD SWAP1 PUSH2 0x36F SWAP2 SWAP1 PUSH2 0x2280 JUMP JUMPDEST PUSH2 0x1EFE JUMP JUMPDEST PUSH1 0x40 MLOAD PUSH2 0x381 SWAP2 SWAP1 PUSH2 0x2685 JUMP JUMPDEST PUSH1 0x40 MLOAD DUP1 SWAP2 SUB SWAP1 RETURN JUMPDEST PUSH2 0x392 PUSH2 0x1F9E JUMP JUMPDEST PUSH1 0x40 MLOAD PUSH2 0x39F SWAP2 SWAP1 PUSH2 0x25CE JUMP JUMPDEST PUSH1 0x40 MLOAD DUP1 SWAP2 SUB SWAP1 RETURN JUMPDEST PUSH2 0x3B0 PUSH2 0x1FA4 JUMP JUMPDEST STOP JUMPDEST PUSH2 0x3BA PUSH2 0x2031 JUMP JUMPDEST PUSH1 0x40 MLOAD PUSH2 0x3C7 SWAP2 SWAP1 PUSH2 0x2685 JUMP JUMPDEST PUSH1 0x40 MLOAD DUP1 SWAP2 SUB SWAP1 RETURN JUMPDEST PUSH1 0x0 PUSH1 0x1 ISZERO ISZERO PUSH1 0x9 PUSH1 0x0 SWAP1 SLOAD SWAP1 PUSH2 0x100 EXP SWAP1 DIV PUSH1 0xFF AND ISZERO ISZERO EQ PUSH2 0x428 JUMPI PUSH1 0x40 MLOAD PUSH32 0x8C379A000000000000000000000000000000000000000000000000000000000 DUP2 MSTORE PUSH1 0x4 ADD PUSH2 0x41F SWAP1 PUSH2 0x2719 JUMP JUMPDEST PUSH1 0x40 MLOAD DUP1 SWAP2 SUB SWAP1 REVERT JUMPDEST PUSH1 0x0 SWAP1 POP PUSH1 0x0 PUSH1 0x1 PUSH1 0x0 CALLER PUSH20 0xFFFFFFFFFFFFFFFFFFFFFFFFFFFFFFFFFFFFFFFF AND PUSH20 0xFFFFFFFFFFFFFFFFFFFFFFFFFFFFFFFFFFFFFFFF AND DUP2 MSTORE PUSH1 0x20 ADD SWAP1 DUP2 MSTORE PUSH1 0x20 ADD PUSH1 0x0 KECCAK256 PUSH1 0x0 ADD DUP1 SLOAD PUSH2 0x47B SWAP1 PUSH2 0x2768 JUMP JUMPDEST DUP1 PUSH1 0x1F ADD PUSH1 0x20 DUP1 SWAP2 DIV MUL PUSH1 0x20 ADD PUSH1 0x40 MLOAD SWAP1 DUP2 ADD PUSH1 0x40 MSTORE DUP1 SWAP3 SWAP2 SWAP1 DUP2 DUP2 MSTORE PUSH1 0x20 ADD DUP3 DUP1 SLOAD PUSH2 0x4A7 SWAP1 PUSH2 0x2768 JUMP JUMPDEST DUP1 ISZERO PUSH2 0x4F4 JUMPI DUP1 PUSH1 0x1F LT PUSH2 0x4C9 JUMPI PUSH2 0x100 DUP1 DUP4 SLOAD DIV MUL DUP4 MSTORE SWAP2 PUSH1 0x20 ADD SWAP2 PUSH2 0x4F4 JUMP JUMPDEST DUP3 ADD SWAP2 SWAP1 PUSH1 0x0 MSTORE PUSH1 0x20 PUSH1 0x0 KECCAK256 SWAP1 JUMPDEST DUP2 SLOAD DUP2 MSTORE SWAP1 PUSH1 0x1 ADD SWAP1 PUSH1 0x20 ADD DUP1 DUP4 GT PUSH2 0x4D7 JUMPI DUP3 SWAP1 SUB PUSH1 0x1F AND DUP3 ADD SWAP2 JUMPDEST POP POP POP POP POP SWAP1 POP PUSH1 0x0 DUP1 DUP3 MLOAD EQ ISZERO SWAP1 POP PUSH1 0x0 DUP1 PUSH1 0x0 DUP1 DUP8 DUP2 MSTORE PUSH1 0x20 ADD SWAP1 DUP2 MSTORE PUSH1 0x20 ADD PUSH1 0x0 KECCAK256 DUP1 SLOAD PUSH2 0x524 SWAP1 PUSH2 0x2768 JUMP JUMPDEST SWAP1 POP EQ ISZERO SWAP1 POP DUP2 ISZERO PUSH2 0x663 JUMPI DUP1 ISZERO PUSH2 0x662 JUMPI PUSH1 0x1 SWAP4 POP PUSH1 0x1 DUP1 PUSH1 0x0 CALLER PUSH20 0xFFFFFFFFFFFFFFFFFFFFFFFFFFFFFFFFFFFFFFFF AND PUSH20 0xFFFFFFFFFFFFFFFFFFFFFFFFFFFFFFFFFFFFFFFF AND DUP2 MSTORE PUSH1 0x20 ADD SWAP1 DUP2 MSTORE PUSH1 0x20 ADD PUSH1 0x0 KECCAK256 PUSH1 0x1 ADD PUSH1 0x0 PUSH2 0x100 EXP DUP2 SLOAD DUP2 PUSH1 0xFF MUL NOT AND SWAP1 DUP4 ISZERO ISZERO MUL OR SWAP1 SSTORE POP PUSH2 0x59C PUSH2 0x21EA JUMP JUMPDEST CALLER DUP2 PUSH1 0x0 ADD SWAP1 PUSH20 0xFFFFFFFFFFFFFFFFFFFFFFFFFFFFFFFFFFFFFFFF AND SWAP1 DUP2 PUSH20 0xFFFFFFFFFFFFFFFFFFFFFFFFFFFFFFFFFFFFFFFF AND DUP2 MSTORE POP POP DUP6 DUP2 PUSH1 0x20 ADD DUP2 DUP2 MSTORE POP POP PUSH1 0x6 PUSH1 0x0 DUP2 SLOAD DUP1 SWAP3 SWAP2 SWAP1 PUSH2 0x5F1 SWAP1 PUSH2 0x27C8 JUMP JUMPDEST SWAP2 SWAP1 POP SSTORE POP DUP1 PUSH1 0x2 PUSH1 0x0 PUSH1 0x6 SLOAD DUP2 MSTORE PUSH1 0x20 ADD SWAP1 DUP2 MSTORE PUSH1 0x20 ADD PUSH1 0x0 KECCAK256 PUSH1 0x0 DUP3 ADD MLOAD DUP2 PUSH1 0x0 ADD PUSH1 0x0 PUSH2 0x100 EXP DUP2 SLOAD DUP2 PUSH20 0xFFFFFFFFFFFFFFFFFFFFFFFFFFFFFFFFFFFFFFFF MUL NOT AND SWAP1 DUP4 PUSH20 0xFFFFFFFFFFFFFFFFFFFFFFFFFFFFFFFFFFFFFFFF AND MUL OR SWAP1 SSTORE POP PUSH1 0x20 DUP3 ADD MLOAD DUP2 PUSH1 0x1 ADD SSTORE SWAP1 POP POP POP JUMPDEST JUMPDEST PUSH32 0x6D8D4F87AA98876306C58B52A3CDFBBD05FC6B76B2CBA163B787ADA6CBD373D9 CALLER DUP5 DUP7 PUSH1 0x40 MLOAD PUSH2 0x696 SWAP4 SWAP3 SWAP2 SWAP1 PUSH2 0x2810 JUMP JUMPDEST PUSH1 0x40 MLOAD DUP1 SWAP2 SUB SWAP1 LOG1 PUSH1 0x1 PUSH1 0x2 PUSH1 0x5 SLOAD PUSH2 0x6AF SWAP2 SWAP1 PUSH2 0x287D JUMP JUMPDEST PUSH2 0x6B9 SWAP2 SWAP1 PUSH2 0x28AE JUMP JUMPDEST PUSH1 0x6 SLOAD LT PUSH2 0x6CA JUMPI PUSH2 0x6C9 PUSH2 0x20BF JUMP JUMPDEST JUMPDEST POP POP POP SWAP2 SWAP1 POP JUMP JUMPDEST PUSH20 0x0 PUSH4 0xABCD7960 PUSH2 0x72A PUSH1 0x40 MLOAD DUP1 PUSH1 0x40 ADD PUSH1 0x40 MSTORE DUP1 PUSH1 0xE DUP2 MSTORE PUSH1 0x20 ADD PUSH32 0x436F757274796172642043616665000000000000000000000000000000000000 DUP2 MSTORE POP PUSH2 0xEB5 JUMP JUMPDEST PUSH1 0x1 PUSH1 0x40 MLOAD DUP4 PUSH4 0xFFFFFFFF AND PUSH1 0xE0 SHL DUP2 MSTORE PUSH1 0x4 ADD PUSH2 0x749 SWAP3 SWAP2 SWAP1 PUSH2 0x2993 JUMP JUMPDEST PUSH1 0x20 PUSH1 0x40 MLOAD DUP1 DUP4 SUB DUP2 DUP7 GAS DELEGATECALL ISZERO DUP1 ISZERO PUSH2 0x766 JUMPI RETURNDATASIZE PUSH1 0x0 DUP1 RETURNDATACOPY RETURNDATASIZE PUSH1 0x0 REVERT JUMPDEST POP POP POP POP PUSH1 0x40 MLOAD RETURNDATASIZE PUSH1 0x1F NOT PUSH1 0x1F DUP3 ADD AND DUP3 ADD DUP1 PUSH1 0x40 MSTORE POP DUP2 ADD SWAP1 PUSH2 0x78A SWAP2 SWAP1 PUSH2 0x29FB JUMP JUMPDEST POP PUSH20 0x0 PUSH4 0xABCD7960 PUSH2 0x7E3 PUSH1 0x40 MLOAD DUP1 PUSH1 0x40 ADD PUSH1 0x40 MSTORE DUP1 PUSH1 0x8 DUP2 MSTORE PUSH1 0x20 ADD PUSH32 0x556E692043616665000000000000000000000000000000000000000000000000 DUP2 MSTORE POP PUSH2 0xEB5 JUMP JUMPDEST PUSH1 0x2 PUSH1 0x40 MLOAD DUP4 PUSH4 0xFFFFFFFF AND PUSH1 0xE0 SHL DUP2 MSTORE PUSH1 0x4 ADD PUSH2 0x802 SWAP3 SWAP2 SWAP1 PUSH2 0x2AAF JUMP JUMPDEST PUSH1 0x20 PUSH1 0x40 MLOAD DUP1 DUP4 SUB DUP2 DUP7 GAS DELEGATECALL ISZERO DUP1 ISZERO PUSH2 0x81F JUMPI RETURNDATASIZE PUSH1 0x0 DUP1 RETURNDATACOPY RETURNDATASIZE PUSH1 0x0 REVERT JUMPDEST POP POP POP POP PUSH1 0x40 MLOAD RETURNDATASIZE PUSH1 0x1F NOT PUSH1 0x1F DUP3 ADD AND DUP3 ADD DUP1 PUSH1 0x40 MSTORE POP DUP2 ADD SWAP1 PUSH2 0x843 SWAP2 SWAP1 PUSH2 0x29FB JUMP JUMPDEST POP JUMP JUMPDEST PUSH1 0x1 PUSH1 0x20 MSTORE DUP1 PUSH1 0x0 MSTORE PUSH1 0x40 PUSH1 0x0 KECCAK256 PUSH1 0x0 SWAP2 POP SWAP1 POP DUP1 PUSH1 0x0 ADD DUP1 SLOAD PUSH2 0x869 SWAP1 PUSH2 0x2768 JUMP JUMPDEST DUP1 PUSH1 0x1F ADD PUSH1 0x20 DUP1 SWAP2 DIV MUL PUSH1 0x20 ADD PUSH1 0x40 MLOAD SWAP1 DUP2 ADD PUSH1 0x40 MSTORE DUP1 SWAP3 SWAP2 SWAP1 DUP2 DUP2 MSTORE PUSH1 0x20 ADD DUP3 DUP1 SLOAD PUSH2 0x895 SWAP1 PUSH2 0x2768 JUMP JUMPDEST DUP1 ISZERO PUSH2 0x8E2 JUMPI DUP1 PUSH1 0x1F LT PUSH2 0x8B7 JUMPI PUSH2 0x100 DUP1 DUP4 SLOAD DIV MUL DUP4 MSTORE SWAP2 PUSH1 0x20 ADD SWAP2 PUSH2 0x8E2 JUMP JUMPDEST DUP3 ADD SWAP2 SWAP1 PUSH1 0x0 MSTORE PUSH1 0x20 PUSH1 0x0 KECCAK256 SWAP1 JUMPDEST DUP2 SLOAD DUP2 MSTORE SWAP1 PUSH1 0x1 ADD SWAP1 PUSH1 0x20 ADD DUP1 DUP4 GT PUSH2 0x8C5 JUMPI DUP3 SWAP1 SUB PUSH1 0x1F AND DUP3 ADD SWAP2 JUMPDEST POP POP POP POP POP SWAP1 DUP1 PUSH1 0x1 ADD PUSH1 0x0 SWAP1 SLOAD SWAP1 PUSH2 0x100 EXP SWAP1 DIV PUSH1 0xFF AND SWAP1 POP DUP3 JUMP JUMPDEST PUSH20 0x0 PUSH4 0x39DF137F PUSH2 0x923 PUSH1 0x2 PUSH2 0x3D0 JUMP JUMPDEST PUSH1 0x40 MLOAD DUP3 PUSH4 0xFFFFFFFF AND PUSH1 0xE0 SHL DUP2 MSTORE PUSH1 0x4 ADD PUSH2 0x93F SWAP2 SWAP1 PUSH2 0x2B46 JUMP JUMPDEST PUSH1 0x20 PUSH1 0x40 MLOAD DUP1 DUP4 SUB DUP2 DUP7 GAS DELEGATECALL ISZERO DUP1 ISZERO PUSH2 0x95C JUMPI RETURNDATASIZE PUSH1 0x0 DUP1 RETURNDATACOPY RETURNDATASIZE PUSH1 0x0 REVERT JUMPDEST POP POP POP POP PUSH1 0x40 MLOAD RETURNDATASIZE PUSH1 0x1F NOT PUSH1 0x1F DUP3 ADD AND DUP3 ADD DUP1 PUSH1 0x40 MSTORE POP DUP2 ADD SWAP1 PUSH2 0x980 SWAP2 SWAP1 PUSH2 0x29FB JUMP JUMPDEST POP JUMP JUMPDEST PUSH1 0x0 PUSH1 0x7 PUSH1 0x0 SWAP1 SLOAD SWAP1 PUSH2 0x100 EXP SWAP1 DIV PUSH20 0xFFFFFFFFFFFFFFFFFFFFFFFFFFFFFFFFFFFFFFFF AND PUSH20 0xFFFFFFFFFFFFFFFFFFFFFFFFFFFFFFFFFFFFFFFF AND CALLER PUSH20 0xFFFFFFFFFFFFFFFFFFFFFFFFFFFFFFFFFFFFFFFF AND EQ PUSH2 0xA15 JUMPI PUSH1 0x40 MLOAD PUSH32 0x8C379A000000000000000000000000000000000000000000000000000000000 DUP2 MSTORE PUSH1 0x4 ADD PUSH2 0xA0C SWAP1 PUSH2 0x2BE6 JUMP JUMPDEST PUSH1 0x40 MLOAD DUP1 SWAP2 SUB SWAP1 REVERT JUMPDEST PUSH2 0xA1D PUSH2 0x221A JUMP JUMPDEST DUP3 DUP2 PUSH1 0x0 ADD DUP2 SWAP1 MSTORE POP PUSH1 0x0 DUP2 PUSH1 0x20 ADD SWAP1 ISZERO ISZERO SWAP1 DUP2 ISZERO ISZERO DUP2 MSTORE POP POP DUP1 PUSH1 0x1 PUSH1 0x0 DUP7 PUSH20 0xFFFFFFFFFFFFFFFFFFFFFFFFFFFFFFFFFFFFFFFF AND PUSH20 0xFFFFFFFFFFFFFFFFFFFFFFFFFFFFFFFFFFFFFFFF AND DUP2 MSTORE PUSH1 0x20 ADD SWAP1 DUP2 MSTORE PUSH1 0x20 ADD PUSH1 0x0 KECCAK256 PUSH1 0x0 DUP3 ADD MLOAD DUP2 PUSH1 0x0 ADD SWAP1 DUP2 PUSH2 0xA8C SWAP2 SWAP1 PUSH2 0x2DA8 JUMP JUMPDEST POP PUSH1 0x20 DUP3 ADD MLOAD DUP2 PUSH1 0x1 ADD PUSH1 0x0 PUSH2 0x100 EXP DUP2 SLOAD DUP2 PUSH1 0xFF MUL NOT AND SWAP1 DUP4 ISZERO ISZERO MUL OR SWAP1 SSTORE POP SWAP1 POP POP PUSH1 0x5 PUSH1 0x0 DUP2 SLOAD DUP1 SWAP3 SWAP2 SWAP1 PUSH2 0xAC3 SWAP1 PUSH2 0x27C8 JUMP JUMPDEST SWAP2 SWAP1 POP SSTORE POP PUSH1 0x5 SLOAD SWAP2 POP POP SWAP3 SWAP2 POP POP JUMP JUMPDEST PUSH1 0x5 SLOAD DUP2 JUMP JUMPDEST PUSH1 0x7 PUSH1 0x0 SWAP1 SLOAD SWAP1 PUSH2 0x100 EXP SWAP1 DIV PUSH20 0xFFFFFFFFFFFFFFFFFFFFFFFFFFFFFFFFFFFFFFFF AND DUP2 JUMP JUMPDEST ADDRESS PUSH20 0xFFFFFFFFFFFFFFFFFFFFFFFFFFFFFFFFFFFFFFFF AND PUSH4 0x6D77BD3E PUSH1 0x40 MLOAD DUP2 PUSH4 0xFFFFFFFF AND PUSH1 0xE0 SHL DUP2 MSTORE PUSH1 0x4 ADD PUSH2 0xB37 SWAP1 PUSH2 0x2EC6 JUMP JUMPDEST PUSH1 0x20 PUSH1 0x40 MLOAD DUP1 DUP4 SUB DUP2 PUSH1 0x0 DUP8 GAS CALL SWAP3 POP POP POP DUP1 ISZERO PUSH2 0xB73 JUMPI POP PUSH1 0x40 MLOAD RETURNDATASIZE PUSH1 0x1F NOT PUSH1 0x1F DUP3 ADD AND DUP3 ADD DUP1 PUSH1 0x40 MSTORE POP DUP2 ADD SWAP1 PUSH2 0xB70 SWAP2 SWAP1 PUSH2 0x2EFB JUMP JUMPDEST PUSH1 0x1 JUMPDEST PUSH2 0xD6D JUMPI PUSH2 0xB7F PUSH2 0x2F35 JUMP JUMPDEST DUP1 PUSH4 0x8C379A0 SUB PUSH2 0xC1D JUMPI POP PUSH2 0xB93 PUSH2 0x2F57 JUMP JUMPDEST DUP1 PUSH2 0xB9E JUMPI POP PUSH2 0xCBA JUMP JUMPDEST PUSH20 0x0 PUSH4 0xE8C2CB16 DUP3 PUSH1 0x40 MLOAD DUP3 PUSH4 0xFFFFFFFF AND PUSH1 0xE0 SHL DUP2 MSTORE PUSH1 0x4 ADD PUSH2 0xBD5 SWAP2 SWAP1 PUSH2 0x308F JUMP JUMPDEST PUSH1 0x20 PUSH1 0x40 MLOAD DUP1 DUP4 SUB DUP2 DUP7 GAS DELEGATECALL ISZERO DUP1 ISZERO PUSH2 0xBF2 JUMPI RETURNDATASIZE PUSH1 0x0 DUP1 RETURNDATACOPY RETURNDATASIZE PUSH1 0x0 REVERT JUMPDEST POP POP POP POP PUSH1 0x40 MLOAD RETURNDATASIZE PUSH1 0x1F NOT PUSH1 0x1F DUP3 ADD AND DUP3 ADD DUP1 PUSH1 0x40 MSTORE POP DUP2 ADD SWAP1 PUSH2 0xC16 SWAP2 SWAP1 PUSH2 0x29FB JUMP JUMPDEST POP POP PUSH2 0xD68 JUMP JUMPDEST PUSH4 0x4E487B71 SUB PUSH2 0xCBA JUMPI PUSH2 0xC2F PUSH2 0x30D7 JUMP JUMPDEST SWAP1 PUSH2 0xC3A JUMPI POP PUSH2 0xCBA JUMP JUMPDEST PUSH20 0x0 PUSH4 0x39DF137F PUSH1 0x0 PUSH1 0x40 MLOAD DUP3 PUSH4 0xFFFFFFFF AND PUSH1 0xE0 SHL DUP2 MSTORE PUSH1 0x4 ADD PUSH2 0xC72 SWAP2 SWAP1 PUSH2 0x316A JUMP JUMPDEST PUSH1 0x20 PUSH1 0x40 MLOAD DUP1 DUP4 SUB DUP2 DUP7 GAS DELEGATECALL ISZERO DUP1 ISZERO PUSH2 0xC8F JUMPI RETURNDATASIZE PUSH1 0x0 DUP1 RETURNDATACOPY RETURNDATASIZE PUSH1 0x0 REVERT JUMPDEST POP POP POP POP PUSH1 0x40 MLOAD RETURNDATASIZE PUSH1 0x1F NOT PUSH1 0x1F DUP3 ADD AND DUP3 ADD DUP1 PUSH1 0x40 MSTORE POP DUP2 ADD SWAP1 PUSH2 0xCB3 SWAP2 SWAP1 PUSH2 0x29FB JUMP JUMPDEST POP POP PUSH2 0xD68 JUMP JUMPDEST RETURNDATASIZE DUP1 PUSH1 0x0 DUP2 EQ PUSH2 0xCE6 JUMPI PUSH1 0x40 MLOAD SWAP2 POP PUSH1 0x1F NOT PUSH1 0x3F RETURNDATASIZE ADD AND DUP3 ADD PUSH1 0x40 MSTORE RETURNDATASIZE DUP3 MSTORE RETURNDATASIZE PUSH1 0x0 PUSH1 0x20 DUP5 ADD RETURNDATACOPY PUSH2 0xCEB JUMP JUMPDEST PUSH1 0x60 SWAP2 POP JUMPDEST POP PUSH20 0x0 PUSH4 0x39DF137F PUSH1 0x0 PUSH1 0x40 MLOAD DUP3 PUSH4 0xFFFFFFFF AND PUSH1 0xE0 SHL DUP2 MSTORE PUSH1 0x4 ADD PUSH2 0xD24 SWAP2 SWAP1 PUSH2 0x31E4 JUMP JUMPDEST PUSH1 0x20 PUSH1 0x40 MLOAD DUP1 DUP4 SUB DUP2 DUP7 GAS DELEGATECALL ISZERO DUP1 ISZERO PUSH2 0xD41 JUMPI RETURNDATASIZE PUSH1 0x0 DUP1 RETURNDATACOPY RETURNDATASIZE PUSH1 0x0 REVERT JUMPDEST POP POP POP POP PUSH1 0x40 MLOAD RETURNDATASIZE PUSH1 0x1F NOT PUSH1 0x1F DUP3 ADD AND DUP3 ADD DUP1 PUSH1 0x40 MSTORE POP DUP2 ADD SWAP1 PUSH2 0xD65 SWAP2 SWAP1 PUSH2 0x29FB JUMP JUMPDEST POP POP JUMPDEST PUSH2 0xDEB JUMP JUMPDEST PUSH20 0x0 PUSH4 0x561015E2 DUP3 PUSH1 0x3 PUSH1 0x40 MLOAD DUP4 PUSH4 0xFFFFFFFF AND PUSH1 0xE0 SHL DUP2 MSTORE PUSH1 0x4 ADD PUSH2 0xDA7 SWAP3 SWAP2 SWAP1 PUSH2 0x3299 JUMP JUMPDEST PUSH1 0x20 PUSH1 0x40 MLOAD DUP1 DUP4 SUB DUP2 DUP7 GAS DELEGATECALL ISZERO DUP1 ISZERO PUSH2 0xDC4 JUMPI RETURNDATASIZE PUSH1 0x0 DUP1 RETURNDATACOPY RETURNDATASIZE PUSH1 0x0 REVERT JUMPDEST POP POP POP POP PUSH1 0x40 MLOAD RETURNDATASIZE PUSH1 0x1F NOT PUSH1 0x1F DUP3 ADD AND DUP3 ADD DUP1 PUSH1 0x40 MSTORE POP DUP2 ADD SWAP1 PUSH2 0xDE8 SWAP2 SWAP1 PUSH2 0x29FB JUMP JUMPDEST POP POP JUMPDEST JUMP JUMPDEST PUSH1 0x2 PUSH1 0x20 MSTORE DUP1 PUSH1 0x0 MSTORE PUSH1 0x40 PUSH1 0x0 KECCAK256 PUSH1 0x0 SWAP2 POP SWAP1 POP DUP1 PUSH1 0x0 ADD PUSH1 0x0 SWAP1 SLOAD SWAP1 PUSH2 0x100 EXP SWAP1 DIV PUSH20 0xFFFFFFFFFFFFFFFFFFFFFFFFFFFFFFFFFFFFFFFF AND SWAP1 DUP1 PUSH1 0x1 ADD SLOAD SWAP1 POP DUP3 JUMP JUMPDEST PUSH20 0x0 PUSH4 0x39DF137F PUSH2 0xE55 PUSH1 0x2 PUSH2 0x3D0 JUMP JUMPDEST PUSH1 0x40 MLOAD DUP3 PUSH4 0xFFFFFFFF AND PUSH1 0xE0 SHL DUP2 MSTORE PUSH1 0x4 ADD PUSH2 0xE71 SWAP2 SWAP1 PUSH2 0x2B46 JUMP JUMPDEST PUSH1 0x20 PUSH1 0x40 MLOAD DUP1 DUP4 SUB DUP2 DUP7 GAS DELEGATECALL ISZERO DUP1 ISZERO PUSH2 0xE8E JUMPI RETURNDATASIZE PUSH1 0x0 DUP1 RETURNDATACOPY RETURNDATASIZE PUSH1 0x0 REVERT JUMPDEST POP POP POP POP PUSH1 0x40 MLOAD RETURNDATASIZE PUSH1 0x1F NOT PUSH1 0x1F DUP3 ADD AND DUP3 ADD DUP1 PUSH1 0x40 MSTORE POP DUP2 ADD SWAP1 PUSH2 0xEB2 SWAP2 SWAP1 PUSH2 0x29FB JUMP JUMPDEST POP JUMP JUMPDEST PUSH1 0x0 PUSH1 0x7 PUSH1 0x0 SWAP1 SLOAD SWAP1 PUSH2 0x100 EXP SWAP1 DIV PUSH20 0xFFFFFFFFFFFFFFFFFFFFFFFFFFFFFFFFFFFFFFFF AND PUSH20 0xFFFFFFFFFFFFFFFFFFFFFFFFFFFFFFFFFFFFFFFF AND CALLER PUSH20 0xFFFFFFFFFFFFFFFFFFFFFFFFFFFFFFFFFFFFFFFF AND EQ PUSH2 0xF47 JUMPI PUSH1 0x40 MLOAD PUSH32 0x8C379A000000000000000000000000000000000000000000000000000000000 DUP2 MSTORE PUSH1 0x4 ADD PUSH2 0xF3E SWAP1 PUSH2 0x2BE6 JUMP JUMPDEST PUSH1 0x40 MLOAD DUP1 SWAP2 SUB SWAP1 REVERT JUMPDEST PUSH1 0x4 PUSH1 0x0 DUP2 SLOAD DUP1 SWAP3 SWAP2 SWAP1 PUSH2 0xF5A SWAP1 PUSH2 0x27C8 JUMP JUMPDEST SWAP2 SWAP1 POP SSTORE POP DUP2 PUSH1 0x0 DUP1 PUSH1 0x4 SLOAD DUP2 MSTORE PUSH1 0x20 ADD SWAP1 DUP2 MSTORE PUSH1 0x20 ADD PUSH1 0x0 KECCAK256 SWAP1 DUP2 PUSH2 0xF80 SWAP2 SWAP1 PUSH2 0x2DA8 JUMP JUMPDEST POP PUSH1 0x4 SLOAD SWAP1 POP SWAP2 SWAP1 POP JUMP JUMPDEST ADDRESS PUSH20 0xFFFFFFFFFFFFFFFFFFFFFFFFFFFFFFFFFFFFFFFF AND PUSH4 0x3B9F708D PUSH1 0xD PUSH1 0x0 SWAP1 SLOAD SWAP1 PUSH2 0x100 EXP SWAP1 DIV PUSH20 0xFFFFFFFFFFFFFFFFFFFFFFFFFFFFFFFFFFFFFFFF AND PUSH1 0x40 MLOAD DUP3 PUSH4 0xFFFFFFFF AND PUSH1 0xE0 SHL DUP2 MSTORE PUSH1 0x4 ADD PUSH2 0xFE6 SWAP2 SWAP1 PUSH2 0x3321 JUMP JUMPDEST PUSH1 0x20 PUSH1 0x40 MLOAD DUP1 DUP4 SUB DUP2 PUSH1 0x0 DUP8 GAS CALL SWAP3 POP POP POP DUP1 ISZERO PUSH2 0x1022 JUMPI POP PUSH1 0x40 MLOAD RETURNDATASIZE PUSH1 0x1F NOT PUSH1 0x1F DUP3 ADD AND DUP3 ADD DUP1 PUSH1 0x40 MSTORE POP DUP2 ADD SWAP1 PUSH2 0x101F SWAP2 SWAP1 PUSH2 0x2EFB JUMP JUMPDEST PUSH1 0x1 JUMPDEST PUSH2 0x121C JUMPI PUSH2 0x102E PUSH2 0x2F35 JUMP JUMPDEST DUP1 PUSH4 0x8C379A0 SUB PUSH2 0x10CC JUMPI POP PUSH2 0x1042 PUSH2 0x2F57 JUMP JUMPDEST DUP1 PUSH2 0x104D JUMPI POP PUSH2 0x1169 JUMP JUMPDEST PUSH20 0x0 PUSH4 0xE8C2CB16 DUP3 PUSH1 0x40 MLOAD DUP3 PUSH4 0xFFFFFFFF AND PUSH1 0xE0 SHL DUP2 MSTORE PUSH1 0x4 ADD PUSH2 0x1084 SWAP2 SWAP1 PUSH2 0x308F JUMP JUMPDEST PUSH1 0x20 PUSH1 0x40 MLOAD DUP1 DUP4 SUB DUP2 DUP7 GAS DELEGATECALL ISZERO DUP1 ISZERO PUSH2 0x10A1 JUMPI RETURNDATASIZE PUSH1 0x0 DUP1 RETURNDATACOPY RETURNDATASIZE PUSH1 0x0 REVERT JUMPDEST POP POP POP POP PUSH1 0x40 MLOAD RETURNDATASIZE PUSH1 0x1F NOT PUSH1 0x1F DUP3 ADD AND DUP3 ADD DUP1 PUSH1 0x40 MSTORE POP DUP2 ADD SWAP1 PUSH2 0x10C5 SWAP2 SWAP1 PUSH2 0x29FB JUMP JUMPDEST POP POP PUSH2 0x1217 JUMP JUMPDEST PUSH4 0x4E487B71 SUB PUSH2 0x1169 JUMPI PUSH2 0x10DE PUSH2 0x30D7 JUMP JUMPDEST SWAP1 PUSH2 0x10E9 JUMPI POP PUSH2 0x1169 JUMP JUMPDEST PUSH20 0x0 PUSH4 0x39DF137F PUSH1 0x0 PUSH1 0x40 MLOAD DUP3 PUSH4 0xFFFFFFFF AND PUSH1 0xE0 SHL DUP2 MSTORE PUSH1 0x4 ADD PUSH2 0x1121 SWAP2 SWAP1 PUSH2 0x316A JUMP JUMPDEST PUSH1 0x20 PUSH1 0x40 MLOAD DUP1 DUP4 SUB DUP2 DUP7 GAS DELEGATECALL ISZERO DUP1 ISZERO PUSH2 0x113E JUMPI RETURNDATASIZE PUSH1 0x0 DUP1 RETURNDATACOPY RETURNDATASIZE PUSH1 0x0 REVERT JUMPDEST POP POP POP POP PUSH1 0x40 MLOAD RETURNDATASIZE PUSH1 0x1F NOT PUSH1 0x1F DUP3 ADD AND DUP3 ADD DUP1 PUSH1 0x40 MSTORE POP DUP2 ADD SWAP1 PUSH2 0x1162 SWAP2 SWAP1 PUSH2 0x29FB JUMP JUMPDEST POP POP PUSH2 0x1217 JUMP JUMPDEST RETURNDATASIZE DUP1 PUSH1 0x0 DUP2 EQ PUSH2 0x1195 JUMPI PUSH1 0x40 MLOAD SWAP2 POP PUSH1 0x1F NOT PUSH1 0x3F RETURNDATASIZE ADD AND DUP3 ADD PUSH1 0x40 MSTORE RETURNDATASIZE DUP3 MSTORE RETURNDATASIZE PUSH1 0x0 PUSH1 0x20 DUP5 ADD RETURNDATACOPY PUSH2 0x119A JUMP JUMPDEST PUSH1 0x60 SWAP2 POP JUMPDEST POP PUSH20 0x0 PUSH4 0x39DF137F PUSH1 0x0 PUSH1 0x40 MLOAD DUP3 PUSH4 0xFFFFFFFF AND PUSH1 0xE0 SHL DUP2 MSTORE PUSH1 0x4 ADD PUSH2 0x11D3 SWAP2 SWAP1 PUSH2 0x31E4 JUMP JUMPDEST PUSH1 0x20 PUSH1 0x40 MLOAD DUP1 DUP4 SUB DUP2 DUP7 GAS DELEGATECALL ISZERO DUP1 ISZERO PUSH2 0x11F0 JUMPI RETURNDATASIZE PUSH1 0x0 DUP1 RETURNDATACOPY RETURNDATASIZE PUSH1 0x0 REVERT JUMPDEST POP POP POP POP PUSH1 0x40 MLOAD RETURNDATASIZE PUSH1 0x1F NOT PUSH1 0x1F DUP3 ADD AND DUP3 ADD DUP1 PUSH1 0x40 MSTORE POP DUP2 ADD SWAP1 PUSH2 0x1214 SWAP2 SWAP1 PUSH2 0x29FB JUMP JUMPDEST POP POP JUMPDEST PUSH2 0x129A JUMP JUMPDEST PUSH20 0x0 PUSH4 0x561015E2 DUP3 PUSH1 0x5 PUSH1 0x40 MLOAD DUP4 PUSH4 0xFFFFFFFF AND PUSH1 0xE0 SHL DUP2 MSTORE PUSH1 0x4 ADD PUSH2 0x1256 SWAP3 SWAP2 SWAP1 PUSH2 0x338A JUMP JUMPDEST PUSH1 0x20 PUSH1 0x40 MLOAD DUP1 DUP4 SUB DUP2 DUP7 GAS DELEGATECALL ISZERO DUP1 ISZERO PUSH2 0x1273 JUMPI RETURNDATASIZE PUSH1 0x0 DUP1 RETURNDATACOPY RETURNDATASIZE PUSH1 0x0 REVERT JUMPDEST POP POP POP POP PUSH1 0x40 MLOAD RETURNDATASIZE PUSH1 0x1F NOT PUSH1 0x1F DUP3 ADD AND DUP3 ADD DUP1 PUSH1 0x40 MSTORE POP DUP2 ADD SWAP1 PUSH2 0x1297 SWAP2 SWAP1 PUSH2 0x29FB JUMP JUMPDEST POP POP JUMPDEST JUMP JUMPDEST PUSH1 0x9 PUSH1 0x0 SWAP1 SLOAD SWAP1 PUSH2 0x100 EXP SWAP1 DIV PUSH1 0xFF AND DUP2 JUMP JUMPDEST PUSH20 0x0 PUSH4 0xCE88B145 PUSH1 0x0 PUSH1 0x40 MLOAD DUP3 PUSH4 0xFFFFFFFF AND PUSH1 0xE0 SHL DUP2 MSTORE PUSH1 0x4 ADD PUSH2 0x12E7 SWAP2 SWAP1 PUSH2 0x3401 JUMP JUMPDEST PUSH1 0x20 PUSH1 0x40 MLOAD DUP1 DUP4 SUB DUP2 DUP7 GAS DELEGATECALL ISZERO DUP1 ISZERO PUSH2 0x1304 JUMPI RETURNDATASIZE PUSH1 0x0 DUP1 RETURNDATACOPY RETURNDATASIZE PUSH1 0x0 REVERT JUMPDEST POP POP POP POP PUSH1 0x40 MLOAD RETURNDATASIZE PUSH1 0x1F NOT PUSH1 0x1F DUP3 ADD AND DUP3 ADD DUP1 PUSH1 0x40 MSTORE POP DUP2 ADD SWAP1 PUSH2 0x1328 SWAP2 SWAP1 PUSH2 0x3431 JUMP JUMPDEST PUSH1 0x9 PUSH1 0x1 PUSH2 0x100 EXP DUP2 SLOAD DUP2 PUSH20 0xFFFFFFFFFFFFFFFFFFFFFFFFFFFFFFFFFFFFFFFF MUL NOT AND SWAP1 DUP4 PUSH20 0xFFFFFFFFFFFFFFFFFFFFFFFFFFFFFFFFFFFFFFFF AND MUL OR SWAP1 SSTORE POP PUSH20 0x0 PUSH4 0xCE88B145 PUSH1 0x1 PUSH1 0x40 MLOAD DUP3 PUSH4 0xFFFFFFFF AND PUSH1 0xE0 SHL DUP2 MSTORE PUSH1 0x4 ADD PUSH2 0x13A0 SWAP2 SWAP1 PUSH2 0x345E JUMP JUMPDEST PUSH1 0x20 PUSH1 0x40 MLOAD DUP1 DUP4 SUB DUP2 DUP7 GAS DELEGATECALL ISZERO DUP1 ISZERO PUSH2 0x13BD JUMPI RETURNDATASIZE PUSH1 0x0 DUP1 RETURNDATACOPY RETURNDATASIZE PUSH1 0x0 REVERT JUMPDEST POP POP POP POP PUSH1 0x40 MLOAD RETURNDATASIZE PUSH1 0x1F NOT PUSH1 0x1F DUP3 ADD AND DUP3 ADD DUP1 PUSH1 0x40 MSTORE POP DUP2 ADD SWAP1 PUSH2 0x13E1 SWAP2 SWAP1 PUSH2 0x3431 JUMP JUMPDEST PUSH1 0xA PUSH1 0x0 PUSH2 0x100 EXP DUP2 SLOAD DUP2 PUSH20 0xFFFFFFFFFFFFFFFFFFFFFFFFFFFFFFFFFFFFFFFF MUL NOT AND SWAP1 DUP4 PUSH20 0xFFFFFFFFFFFFFFFFFFFFFFFFFFFFFFFFFFFFFFFF AND MUL OR SWAP1 SSTORE POP PUSH20 0x0 PUSH4 0xCE88B145 PUSH1 0x2 PUSH1 0x40 MLOAD DUP3 PUSH4 0xFFFFFFFF AND PUSH1 0xE0 SHL DUP2 MSTORE PUSH1 0x4 ADD PUSH2 0x1459 SWAP2 SWAP1 PUSH2 0x3479 JUMP JUMPDEST PUSH1 0x20 PUSH1 0x40 MLOAD DUP1 DUP4 SUB DUP2 DUP7 GAS DELEGATECALL ISZERO DUP1 ISZERO PUSH2 0x1476 JUMPI RETURNDATASIZE PUSH1 0x0 DUP1 RETURNDATACOPY RETURNDATASIZE PUSH1 0x0 REVERT JUMPDEST POP POP POP POP PUSH1 0x40 MLOAD RETURNDATASIZE PUSH1 0x1F NOT PUSH1 0x1F DUP3 ADD AND DUP3 ADD DUP1 PUSH1 0x40 MSTORE POP DUP2 ADD SWAP1 PUSH2 0x149A SWAP2 SWAP1 PUSH2 0x3431 JUMP JUMPDEST PUSH1 0xB PUSH1 0x0 PUSH2 0x100 EXP DUP2 SLOAD DUP2 PUSH20 0xFFFFFFFFFFFFFFFFFFFFFFFFFFFFFFFFFFFFFFFF MUL NOT AND SWAP1 DUP4 PUSH20 0xFFFFFFFFFFFFFFFFFFFFFFFFFFFFFFFFFFFFFFFF AND MUL OR SWAP1 SSTORE POP PUSH20 0x0 PUSH4 0xCE88B145 PUSH1 0x3 PUSH1 0x40 MLOAD DUP3 PUSH4 0xFFFFFFFF AND PUSH1 0xE0 SHL DUP2 MSTORE PUSH1 0x4 ADD PUSH2 0x1512 SWAP2 SWAP1 PUSH2 0x3494 JUMP JUMPDEST PUSH1 0x20 PUSH1 0x40 MLOAD DUP1 DUP4 SUB DUP2 DUP7 GAS DELEGATECALL ISZERO DUP1 ISZERO PUSH2 0x152F JUMPI RETURNDATASIZE PUSH1 0x0 DUP1 RETURNDATACOPY RETURNDATASIZE PUSH1 0x0 REVERT JUMPDEST POP POP POP POP PUSH1 0x40 MLOAD RETURNDATASIZE PUSH1 0x1F NOT PUSH1 0x1F DUP3 ADD AND DUP3 ADD DUP1 PUSH1 0x40 MSTORE POP DUP2 ADD SWAP1 PUSH2 0x1553 SWAP2 SWAP1 PUSH2 0x3431 JUMP JUMPDEST PUSH1 0xC PUSH1 0x0 PUSH2 0x100 EXP DUP2 SLOAD DUP2 PUSH20 0xFFFFFFFFFFFFFFFFFFFFFFFFFFFFFFFFFFFFFFFF MUL NOT AND SWAP1 DUP4 PUSH20 0xFFFFFFFFFFFFFFFFFFFFFFFFFFFFFFFFFFFFFFFF AND MUL OR SWAP1 SSTORE POP PUSH20 0x0 PUSH4 0xCE88B145 PUSH1 0x4 PUSH1 0x40 MLOAD DUP3 PUSH4 0xFFFFFFFF AND PUSH1 0xE0 SHL DUP2 MSTORE PUSH1 0x4 ADD PUSH2 0x15CB SWAP2 SWAP1 PUSH2 0x34EA JUMP JUMPDEST PUSH1 0x20 PUSH1 0x40 MLOAD DUP1 DUP4 SUB DUP2 DUP7 GAS DELEGATECALL ISZERO DUP1 ISZERO PUSH2 0x15E8 JUMPI RETURNDATASIZE PUSH1 0x0 DUP1 RETURNDATACOPY RETURNDATASIZE PUSH1 0x0 REVERT JUMPDEST POP POP POP POP PUSH1 0x40 MLOAD RETURNDATASIZE PUSH1 0x1F NOT PUSH1 0x1F DUP3 ADD AND DUP3 ADD DUP1 PUSH1 0x40 MSTORE POP DUP2 ADD SWAP1 PUSH2 0x160C SWAP2 SWAP1 PUSH2 0x3431 JUMP JUMPDEST PUSH1 0xD PUSH1 0x0 PUSH2 0x100 EXP DUP2 SLOAD DUP2 PUSH20 0xFFFFFFFFFFFFFFFFFFFFFFFFFFFFFFFFFFFFFFFF MUL NOT AND SWAP1 DUP4 PUSH20 0xFFFFFFFFFFFFFFFFFFFFFFFFFFFFFFFFFFFFFFFF AND MUL OR SWAP1 SSTORE POP JUMP JUMPDEST PUSH20 0x0 PUSH4 0xABCD7960 PUSH2 0x16C9 PUSH1 0x9 PUSH1 0x1 SWAP1 SLOAD SWAP1 PUSH2 0x100 EXP SWAP1 DIV PUSH20 0xFFFFFFFFFFFFFFFFFFFFFFFFFFFFFFFFFFFFFFFF AND PUSH1 0x40 MLOAD DUP1 PUSH1 0x40 ADD PUSH1 0x40 MSTORE DUP1 PUSH1 0x5 DUP2 MSTORE PUSH1 0x20 ADD PUSH32 0x416C696365000000000000000000000000000000000000000000000000000000 DUP2 MSTORE POP PUSH2 0x983 JUMP JUMPDEST PUSH1 0x1 PUSH1 0x40 MLOAD DUP4 PUSH4 0xFFFFFFFF AND PUSH1 0xE0 SHL DUP2 MSTORE PUSH1 0x4 ADD PUSH2 0x16E8 SWAP3 SWAP2 SWAP1 PUSH2 0x2993 JUMP JUMPDEST PUSH1 0x20 PUSH1 0x40 MLOAD DUP1 DUP4 SUB DUP2 DUP7 GAS DELEGATECALL ISZERO DUP1 ISZERO PUSH2 0x1705 JUMPI RETURNDATASIZE PUSH1 0x0 DUP1 RETURNDATACOPY RETURNDATASIZE PUSH1 0x0 REVERT JUMPDEST POP POP POP POP PUSH1 0x40 MLOAD RETURNDATASIZE PUSH1 0x1F NOT PUSH1 0x1F DUP3 ADD AND DUP3 ADD DUP1 PUSH1 0x40 MSTORE POP DUP2 ADD SWAP1 PUSH2 0x1729 SWAP2 SWAP1 PUSH2 0x29FB JUMP JUMPDEST POP PUSH20 0x0 PUSH4 0xABCD7960 PUSH2 0x17A5 PUSH1 0xA PUSH1 0x0 SWAP1 SLOAD SWAP1 PUSH2 0x100 EXP SWAP1 DIV PUSH20 0xFFFFFFFFFFFFFFFFFFFFFFFFFFFFFFFFFFFFFFFF AND PUSH1 0x40 MLOAD DUP1 PUSH1 0x40 ADD PUSH1 0x40 MSTORE DUP1 PUSH1 0x3 DUP2 MSTORE PUSH1 0x20 ADD PUSH32 0x426F620000000000000000000000000000000000000000000000000000000000 DUP2 MSTORE POP PUSH2 0x983 JUMP JUMPDEST PUSH1 0x2 PUSH1 0x40 MLOAD DUP4 PUSH4 0xFFFFFFFF AND PUSH1 0xE0 SHL DUP2 MSTORE PUSH1 0x4 ADD PUSH2 0x17C4 SWAP3 SWAP2 SWAP1 PUSH2 0x2AAF JUMP JUMPDEST PUSH1 0x20 PUSH1 0x40 MLOAD DUP1 DUP4 SUB DUP2 DUP7 GAS DELEGATECALL ISZERO DUP1 ISZERO PUSH2 0x17E1 JUMPI RETURNDATASIZE PUSH1 0x0 DUP1 RETURNDATACOPY RETURNDATASIZE PUSH1 0x0 REVERT JUMPDEST POP POP POP POP PUSH1 0x40 MLOAD RETURNDATASIZE PUSH1 0x1F NOT PUSH1 0x1F DUP3 ADD AND DUP3 ADD DUP1 PUSH1 0x40 MSTORE POP DUP2 ADD SWAP1 PUSH2 0x1805 SWAP2 SWAP1 PUSH2 0x29FB JUMP JUMPDEST POP PUSH20 0x0 PUSH4 0xABCD7960 PUSH2 0x1881 PUSH1 0xB PUSH1 0x0 SWAP1 SLOAD SWAP1 PUSH2 0x100 EXP SWAP1 DIV PUSH20 0xFFFFFFFFFFFFFFFFFFFFFFFFFFFFFFFFFFFFFFFF AND PUSH1 0x40 MLOAD DUP1 PUSH1 0x40 ADD PUSH1 0x40 MSTORE DUP1 PUSH1 0x7 DUP2 MSTORE PUSH1 0x20 ADD PUSH32 0x436861726C696500000000000000000000000000000000000000000000000000 DUP2 MSTORE POP PUSH2 0x983 JUMP JUMPDEST PUSH1 0x3 PUSH1 0x40 MLOAD DUP4 PUSH4 0xFFFFFFFF AND PUSH1 0xE0 SHL DUP2 MSTORE PUSH1 0x4 ADD PUSH2 0x18A0 SWAP3 SWAP2 SWAP1 PUSH2 0x3551 JUMP JUMPDEST PUSH1 0x20 PUSH1 0x40 MLOAD DUP1 DUP4 SUB DUP2 DUP7 GAS DELEGATECALL ISZERO DUP1 ISZERO PUSH2 0x18BD JUMPI RETURNDATASIZE PUSH1 0x0 DUP1 RETURNDATACOPY RETURNDATASIZE PUSH1 0x0 REVERT JUMPDEST POP POP POP POP PUSH1 0x40 MLOAD RETURNDATASIZE PUSH1 0x1F NOT PUSH1 0x1F DUP3 ADD AND DUP3 ADD DUP1 PUSH1 0x40 MSTORE POP DUP2 ADD SWAP1 PUSH2 0x18E1 SWAP2 SWAP1 PUSH2 0x29FB JUMP JUMPDEST POP PUSH20 0x0 PUSH4 0xABCD7960 PUSH2 0x195D PUSH1 0xC PUSH1 0x0 SWAP1 SLOAD SWAP1 PUSH2 0x100 EXP SWAP1 DIV PUSH20 0xFFFFFFFFFFFFFFFFFFFFFFFFFFFFFFFFFFFFFFFF AND PUSH1 0x40 MLOAD DUP1 PUSH1 0x40 ADD PUSH1 0x40 MSTORE DUP1 PUSH1 0x3 DUP2 MSTORE PUSH1 0x20 ADD PUSH32 0x4576650000000000000000000000000000000000000000000000000000000000 DUP2 MSTORE POP PUSH2 0x983 JUMP JUMPDEST PUSH1 0x4 PUSH1 0x40 MLOAD DUP4 PUSH4 0xFFFFFFFF AND PUSH1 0xE0 SHL DUP2 MSTORE PUSH1 0x4 ADD PUSH2 0x197C SWAP3 SWAP2 SWAP1 PUSH2 0x35D9 JUMP JUMPDEST PUSH1 0x20 PUSH1 0x40 MLOAD DUP1 DUP4 SUB DUP2 DUP7 GAS DELEGATECALL ISZERO DUP1 ISZERO PUSH2 0x1999 JUMPI RETURNDATASIZE PUSH1 0x0 DUP1 RETURNDATACOPY RETURNDATASIZE PUSH1 0x0 REVERT JUMPDEST POP POP POP POP PUSH1 0x40 MLOAD RETURNDATASIZE PUSH1 0x1F NOT PUSH1 0x1F DUP3 ADD AND DUP3 ADD DUP1 PUSH1 0x40 MSTORE POP DUP2 ADD SWAP1 PUSH2 0x19BD SWAP2 SWAP1 PUSH2 0x29FB JUMP JUMPDEST POP JUMP JUMPDEST PUSH20 0x0 PUSH4 0xBFBA5DD6 PUSH1 0x7 PUSH1 0x0 SWAP1 SLOAD SWAP1 PUSH2 0x100 EXP SWAP1 DIV PUSH20 0xFFFFFFFFFFFFFFFFFFFFFFFFFFFFFFFFFFFFFFFF AND PUSH1 0x9 PUSH1 0x1 SWAP1 SLOAD SWAP1 PUSH2 0x100 EXP SWAP1 DIV PUSH20 0xFFFFFFFFFFFFFFFFFFFFFFFFFFFFFFFFFFFFFFFF AND PUSH1 0x40 MLOAD DUP4 PUSH4 0xFFFFFFFF AND PUSH1 0xE0 SHL DUP2 MSTORE PUSH1 0x4 ADD PUSH2 0x1A3D SWAP3 SWAP2 SWAP1 PUSH2 0x3670 JUMP JUMPDEST PUSH1 0x20 PUSH1 0x40 MLOAD DUP1 DUP4 SUB DUP2 DUP7 GAS DELEGATECALL ISZERO DUP1 ISZERO PUSH2 0x1A5A JUMPI RETURNDATASIZE PUSH1 0x0 DUP1 RETURNDATACOPY RETURNDATASIZE PUSH1 0x0 REVERT JUMPDEST POP POP POP POP PUSH1 0x40 MLOAD RETURNDATASIZE PUSH1 0x1F NOT PUSH1 0x1F DUP3 ADD AND DUP3 ADD DUP1 PUSH1 0x40 MSTORE POP DUP2 ADD SWAP1 PUSH2 0x1A7E SWAP2 SWAP1 PUSH2 0x29FB JUMP JUMPDEST POP JUMP JUMPDEST PUSH20 0x0 PUSH4 0x39DF137F PUSH2 0x1AA5 PUSH1 0x1 PUSH2 0x3D0 JUMP JUMPDEST PUSH1 0x40 MLOAD DUP3 PUSH4 0xFFFFFFFF AND PUSH1 0xE0 SHL DUP2 MSTORE PUSH1 0x4 ADD PUSH2 0x1AC1 SWAP2 SWAP1 PUSH2 0x2B46 JUMP JUMPDEST PUSH1 0x20 PUSH1 0x40 MLOAD DUP1 DUP4 SUB DUP2 DUP7 GAS DELEGATECALL ISZERO DUP1 ISZERO PUSH2 0x1ADE JUMPI RETURNDATASIZE PUSH1 0x0 DUP1 RETURNDATACOPY RETURNDATASIZE PUSH1 0x0 REVERT JUMPDEST POP POP POP POP PUSH1 0x40 MLOAD RETURNDATASIZE PUSH1 0x1F NOT PUSH1 0x1F DUP3 ADD AND DUP3 ADD DUP1 PUSH1 0x40 MSTORE POP DUP2 ADD SWAP1 PUSH2 0x1B02 SWAP2 SWAP1 PUSH2 0x29FB JUMP JUMPDEST POP JUMP JUMPDEST PUSH1 0x6 SLOAD DUP2 JUMP JUMPDEST ADDRESS PUSH20 0xFFFFFFFFFFFFFFFFFFFFFFFFFFFFFFFFFFFFFFFF AND PUSH4 0x124258C6 PUSH1 0x1 PUSH1 0x40 MLOAD DUP3 PUSH4 0xFFFFFFFF AND PUSH1 0xE0 SHL DUP2 MSTORE PUSH1 0x4 ADD PUSH2 0x1B45 SWAP2 SWAP1 PUSH2 0x36BB JUMP JUMPDEST PUSH1 0x20 PUSH1 0x40 MLOAD DUP1 DUP4 SUB DUP2 PUSH1 0x0 DUP8 GAS CALL SWAP3 POP POP POP DUP1 ISZERO PUSH2 0x1B81 JUMPI POP PUSH1 0x40 MLOAD RETURNDATASIZE PUSH1 0x1F NOT PUSH1 0x1F DUP3 ADD AND DUP3 ADD DUP1 PUSH1 0x40 MSTORE POP DUP2 ADD SWAP1 PUSH2 0x1B7E SWAP2 SWAP1 PUSH2 0x29FB JUMP JUMPDEST PUSH1 0x1 JUMPDEST PUSH2 0x1D7B JUMPI PUSH2 0x1B8D PUSH2 0x2F35 JUMP JUMPDEST DUP1 PUSH4 0x8C379A0 SUB PUSH2 0x1C2B JUMPI POP PUSH2 0x1BA1 PUSH2 0x2F57 JUMP JUMPDEST DUP1 PUSH2 0x1BAC JUMPI POP PUSH2 0x1CC8 JUMP JUMPDEST PUSH20 0x0 PUSH4 0xE8C2CB16 DUP3 PUSH1 0x40 MLOAD DUP3 PUSH4 0xFFFFFFFF AND PUSH1 0xE0 SHL DUP2 MSTORE PUSH1 0x4 ADD PUSH2 0x1BE3 SWAP2 SWAP1 PUSH2 0x36F9 JUMP JUMPDEST PUSH1 0x20 PUSH1 0x40 MLOAD DUP1 DUP4 SUB DUP2 DUP7 GAS DELEGATECALL ISZERO DUP1 ISZERO PUSH2 0x1C00 JUMPI RETURNDATASIZE PUSH1 0x0 DUP1 RETURNDATACOPY RETURNDATASIZE PUSH1 0x0 REVERT JUMPDEST POP POP POP POP PUSH1 0x40 MLOAD RETURNDATASIZE PUSH1 0x1F NOT PUSH1 0x1F DUP3 ADD AND DUP3 ADD DUP1 PUSH1 0x40 MSTORE POP DUP2 ADD SWAP1 PUSH2 0x1C24 SWAP2 SWAP1 PUSH2 0x29FB JUMP JUMPDEST POP POP PUSH2 0x1D76 JUMP JUMPDEST PUSH4 0x4E487B71 SUB PUSH2 0x1CC8 JUMPI PUSH2 0x1C3D PUSH2 0x30D7 JUMP JUMPDEST SWAP1 PUSH2 0x1C48 JUMPI POP PUSH2 0x1CC8 JUMP JUMPDEST PUSH20 0x0 PUSH4 0x39DF137F PUSH1 0x0 PUSH1 0x40 MLOAD DUP3 PUSH4 0xFFFFFFFF AND PUSH1 0xE0 SHL DUP2 MSTORE PUSH1 0x4 ADD PUSH2 0x1C80 SWAP2 SWAP1 PUSH2 0x316A JUMP JUMPDEST PUSH1 0x20 PUSH1 0x40 MLOAD DUP1 DUP4 SUB DUP2 DUP7 GAS DELEGATECALL ISZERO DUP1 ISZERO PUSH2 0x1C9D JUMPI RETURNDATASIZE PUSH1 0x0 DUP1 RETURNDATACOPY RETURNDATASIZE PUSH1 0x0 REVERT JUMPDEST POP POP POP POP PUSH1 0x40 MLOAD RETURNDATASIZE PUSH1 0x1F NOT PUSH1 0x1F DUP3 ADD AND DUP3 ADD DUP1 PUSH1 0x40 MSTORE POP DUP2 ADD SWAP1 PUSH2 0x1CC1 SWAP2 SWAP1 PUSH2 0x29FB JUMP JUMPDEST POP POP PUSH2 0x1D76 JUMP JUMPDEST RETURNDATASIZE DUP1 PUSH1 0x0 DUP2 EQ PUSH2 0x1CF4 JUMPI PUSH1 0x40 MLOAD SWAP2 POP PUSH1 0x1F NOT PUSH1 0x3F RETURNDATASIZE ADD AND DUP3 ADD PUSH1 0x40 MSTORE RETURNDATASIZE DUP3 MSTORE RETURNDATASIZE PUSH1 0x0 PUSH1 0x20 DUP5 ADD RETURNDATACOPY PUSH2 0x1CF9 JUMP JUMPDEST PUSH1 0x60 SWAP2 POP JUMPDEST POP PUSH20 0x0 PUSH4 0x39DF137F PUSH1 0x0 PUSH1 0x40 MLOAD DUP3 PUSH4 0xFFFFFFFF AND PUSH1 0xE0 SHL DUP2 MSTORE PUSH1 0x4 ADD PUSH2 0x1D32 SWAP2 SWAP1 PUSH2 0x378D JUMP JUMPDEST PUSH1 0x20 PUSH1 0x40 MLOAD DUP1 DUP4 SUB DUP2 DUP7 GAS DELEGATECALL ISZERO DUP1 ISZERO PUSH2 0x1D4F JUMPI RETURNDATASIZE PUSH1 0x0 DUP1 RETURNDATACOPY RETURNDATASIZE PUSH1 0x0 REVERT JUMPDEST POP POP POP POP PUSH1 0x40 MLOAD RETURNDATASIZE PUSH1 0x1F NOT PUSH1 0x1F DUP3 ADD AND DUP3 ADD DUP1 PUSH1 0x40 MSTORE POP DUP2 ADD SWAP1 PUSH2 0x1D73 SWAP2 SWAP1 PUSH2 0x29FB JUMP JUMPDEST POP POP JUMPDEST PUSH2 0x1DF9 JUMP JUMPDEST PUSH20 0x0 PUSH4 0x767392B3 DUP3 PUSH1 0x1 PUSH1 0x40 MLOAD DUP4 PUSH4 0xFFFFFFFF AND PUSH1 0xE0 SHL DUP2 MSTORE PUSH1 0x4 ADD PUSH2 0x1DB5 SWAP3 SWAP2 SWAP1 PUSH2 0x37BB JUMP JUMPDEST PUSH1 0x20 PUSH1 0x40 MLOAD DUP1 DUP4 SUB DUP2 DUP7 GAS DELEGATECALL ISZERO DUP1 ISZERO PUSH2 0x1DD2 JUMPI RETURNDATASIZE PUSH1 0x0 DUP1 RETURNDATACOPY RETURNDATASIZE PUSH1 0x0 REVERT JUMPDEST POP POP POP POP PUSH1 0x40 MLOAD RETURNDATASIZE PUSH1 0x1F NOT PUSH1 0x1F DUP3 ADD AND DUP3 ADD DUP1 PUSH1 0x40 MSTORE POP DUP2 ADD SWAP1 PUSH2 0x1DF6 SWAP2 SWAP1 PUSH2 0x29FB JUMP JUMPDEST POP POP JUMPDEST JUMP JUMPDEST PUSH20 0x0 PUSH4 0xE8C2CB16 PUSH1 0x8 PUSH1 0x40 MLOAD DUP3 PUSH4 0xFFFFFFFF AND PUSH1 0xE0 SHL DUP2 MSTORE PUSH1 0x4 ADD PUSH2 0x1E33 SWAP2 SWAP1 PUSH2 0x3939 JUMP JUMPDEST PUSH1 0x20 PUSH1 0x40 MLOAD DUP1 DUP4 SUB DUP2 DUP7 GAS DELEGATECALL ISZERO DUP1 ISZERO PUSH2 0x1E50 JUMPI RETURNDATASIZE PUSH1 0x0 DUP1 RETURNDATACOPY RETURNDATASIZE PUSH1 0x0 REVERT JUMPDEST POP POP POP POP PUSH1 0x40 MLOAD RETURNDATASIZE PUSH1 0x1F NOT PUSH1 0x1F DUP3 ADD AND DUP3 ADD DUP1 PUSH1 0x40 MSTORE POP DUP2 ADD SWAP1 PUSH2 0x1E74 SWAP2 SWAP1 PUSH2 0x29FB JUMP JUMPDEST POP JUMP JUMPDEST PUSH20 0x0 PUSH4 0x767392B3 PUSH2 0x1E9B PUSH1 0x1 PUSH2 0x3D0 JUMP JUMPDEST PUSH1 0x0 PUSH1 0x40 MLOAD DUP4 PUSH4 0xFFFFFFFF AND PUSH1 0xE0 SHL DUP2 MSTORE PUSH1 0x4 ADD PUSH2 0x1EBA SWAP3 SWAP2 SWAP1 PUSH2 0x39CD JUMP JUMPDEST PUSH1 0x20 PUSH1 0x40 MLOAD DUP1 DUP4 SUB DUP2 DUP7 GAS DELEGATECALL ISZERO DUP1 ISZERO PUSH2 0x1ED7 JUMPI RETURNDATASIZE PUSH1 0x0 DUP1 RETURNDATACOPY RETURNDATASIZE PUSH1 0x0 REVERT JUMPDEST POP POP POP POP PUSH1 0x40 MLOAD RETURNDATASIZE PUSH1 0x1F NOT PUSH1 0x1F DUP3 ADD AND DUP3 ADD DUP1 PUSH1 0x40 MSTORE POP DUP2 ADD SWAP1 PUSH2 0x1EFB SWAP2 SWAP1 PUSH2 0x29FB JUMP JUMPDEST POP JUMP JUMPDEST PUSH1 0x0 PUSH1 0x20 MSTORE DUP1 PUSH1 0x0 MSTORE PUSH1 0x40 PUSH1 0x0 KECCAK256 PUSH1 0x0 SWAP2 POP SWAP1 POP DUP1 SLOAD PUSH2 0x1F1D SWAP1 PUSH2 0x2768 JUMP JUMPDEST DUP1 PUSH1 0x1F ADD PUSH1 0x20 DUP1 SWAP2 DIV MUL PUSH1 0x20 ADD PUSH1 0x40 MLOAD SWAP1 DUP2 ADD PUSH1 0x40 MSTORE DUP1 SWAP3 SWAP2 SWAP1 DUP2 DUP2 MSTORE PUSH1 0x20 ADD DUP3 DUP1 SLOAD PUSH2 0x1F49 SWAP1 PUSH2 0x2768 JUMP JUMPDEST DUP1 ISZERO PUSH2 0x1F96 JUMPI DUP1 PUSH1 0x1F LT PUSH2 0x1F6B JUMPI PUSH2 0x100 DUP1 DUP4 SLOAD DIV MUL DUP4 MSTORE SWAP2 PUSH1 0x20 ADD SWAP2 PUSH2 0x1F96 JUMP JUMPDEST DUP3 ADD SWAP2 SWAP1 PUSH1 0x0 MSTORE PUSH1 0x20 PUSH1 0x0 KECCAK256 SWAP1 JUMPDEST DUP2 SLOAD DUP2 MSTORE SWAP1 PUSH1 0x1 ADD SWAP1 PUSH1 0x20 ADD DUP1 DUP4 GT PUSH2 0x1F79 JUMPI DUP3 SWAP1 SUB PUSH1 0x1F AND DUP3 ADD SWAP2 JUMPDEST POP POP POP POP POP DUP2 JUMP JUMPDEST PUSH1 0x4 SLOAD DUP2 JUMP JUMPDEST PUSH20 0x0 PUSH4 0x767392B3 PUSH1 0x9 PUSH1 0x0 SWAP1 SLOAD SWAP1 PUSH2 0x100 EXP SWAP1 DIV PUSH1 0xFF AND PUSH1 0x0 PUSH1 0x40 MLOAD DUP4 PUSH4 0xFFFFFFFF AND PUSH1 0xE0 SHL DUP2 MSTORE PUSH1 0x4 ADD PUSH2 0x1FED SWAP3 SWAP2 SWAP1 PUSH2 0x3A55 JUMP JUMPDEST PUSH1 0x20 PUSH1 0x40 MLOAD DUP1 DUP4 SUB DUP2 DUP7 GAS DELEGATECALL ISZERO DUP1 ISZERO PUSH2 0x200A JUMPI RETURNDATASIZE PUSH1 0x0 DUP1 RETURNDATACOPY RETURNDATASIZE PUSH1 0x0 REVERT JUMPDEST POP POP POP POP PUSH1 0x40 MLOAD RETURNDATASIZE PUSH1 0x1F NOT PUSH1 0x1F DUP3 ADD AND DUP3 ADD DUP1 PUSH1 0x40 MSTORE POP DUP2 ADD SWAP1 PUSH2 0x202E SWAP2 SWAP1 PUSH2 0x29FB JUMP JUMPDEST POP JUMP JUMPDEST PUSH1 0x8 DUP1 SLOAD PUSH2 0x203E SWAP1 PUSH2 0x2768 JUMP JUMPDEST DUP1 PUSH1 0x1F ADD PUSH1 0x20 DUP1 SWAP2 DIV MUL PUSH1 0x20 ADD PUSH1 0x40 MLOAD SWAP1 DUP2 ADD PUSH1 0x40 MSTORE DUP1 SWAP3 SWAP2 SWAP1 DUP2 DUP2 MSTORE PUSH1 0x20 ADD DUP3 DUP1 SLOAD PUSH2 0x206A SWAP1 PUSH2 0x2768 JUMP JUMPDEST DUP1 ISZERO PUSH2 0x20B7 JUMPI DUP1 PUSH1 0x1F LT PUSH2 0x208C JUMPI PUSH2 0x100 DUP1 DUP4 SLOAD DIV MUL DUP4 MSTORE SWAP2 PUSH1 0x20 ADD SWAP2 PUSH2 0x20B7 JUMP JUMPDEST DUP3 ADD SWAP2 SWAP1 PUSH1 0x0 MSTORE PUSH1 0x20 PUSH1 0x0 KECCAK256 SWAP1 JUMPDEST DUP2 SLOAD DUP2 MSTORE SWAP1 PUSH1 0x1 ADD SWAP1 PUSH1 0x20 ADD DUP1 DUP4 GT PUSH2 0x209A JUMPI DUP3 SWAP1 SUB PUSH1 0x1F AND DUP3 ADD SWAP2 JUMPDEST POP POP POP POP POP DUP2 JUMP JUMPDEST PUSH1 0x0 DUP1 PUSH1 0x0 PUSH1 0x1 SWAP1 POP JUMPDEST PUSH1 0x6 SLOAD DUP2 GT PUSH2 0x21A9 JUMPI PUSH1 0x0 PUSH1 0x1 SWAP1 POP PUSH1 0x0 PUSH1 0x3 PUSH1 0x0 PUSH1 0x2 PUSH1 0x0 DUP7 DUP2 MSTORE PUSH1 0x20 ADD SWAP1 DUP2 MSTORE PUSH1 0x20 ADD PUSH1 0x0 KECCAK256 PUSH1 0x1 ADD SLOAD DUP2 MSTORE PUSH1 0x20 ADD SWAP1 DUP2 MSTORE PUSH1 0x20 ADD PUSH1 0x0 KECCAK256 SLOAD GT ISZERO PUSH2 0x2142 JUMPI PUSH1 0x3 PUSH1 0x0 PUSH1 0x2 PUSH1 0x0 DUP6 DUP2 MSTORE PUSH1 0x20 ADD SWAP1 DUP2 MSTORE PUSH1 0x20 ADD PUSH1 0x0 KECCAK256 PUSH1 0x1 ADD SLOAD DUP2 MSTORE PUSH1 0x20 ADD SWAP1 DUP2 MSTORE PUSH1 0x20 ADD PUSH1 0x0 KECCAK256 SLOAD DUP2 PUSH2 0x213F SWAP2 SWAP1 PUSH2 0x28AE JUMP JUMPDEST SWAP1 POP JUMPDEST DUP1 PUSH1 0x3 PUSH1 0x0 PUSH1 0x2 PUSH1 0x0 DUP7 DUP2 MSTORE PUSH1 0x20 ADD SWAP1 DUP2 MSTORE PUSH1 0x20 ADD PUSH1 0x0 KECCAK256 PUSH1 0x1 ADD SLOAD DUP2 MSTORE PUSH1 0x20 ADD SWAP1 DUP2 MSTORE PUSH1 0x20 ADD PUSH1 0x0 KECCAK256 DUP2 SWAP1 SSTORE POP DUP4 DUP2 GT ISZERO PUSH2 0x2195 JUMPI DUP1 SWAP4 POP PUSH1 0x2 PUSH1 0x0 DUP4 DUP2 MSTORE PUSH1 0x20 ADD SWAP1 DUP2 MSTORE PUSH1 0x20 ADD PUSH1 0x0 KECCAK256 PUSH1 0x1 ADD SLOAD SWAP3 POP JUMPDEST POP DUP1 DUP1 PUSH2 0x21A1 SWAP1 PUSH2 0x27C8 JUMP JUMPDEST SWAP2 POP POP PUSH2 0x20C9 JUMP JUMPDEST POP PUSH1 0x0 DUP1 DUP3 DUP2 MSTORE PUSH1 0x20 ADD SWAP1 DUP2 MSTORE PUSH1 0x20 ADD PUSH1 0x0 KECCAK256 PUSH1 0x8 SWAP1 DUP2 PUSH2 0x21CA SWAP2 SWAP1 PUSH2 0x3ABC JUMP JUMPDEST POP PUSH1 0x0 PUSH1 0x9 PUSH1 0x0 PUSH2 0x100 EXP DUP2 SLOAD DUP2 PUSH1 0xFF MUL NOT AND SWAP1 DUP4 ISZERO ISZERO MUL OR SWAP1 SSTORE POP POP POP JUMP JUMPDEST PUSH1 0x40 MLOAD DUP1 PUSH1 0x40 ADD PUSH1 0x40 MSTORE DUP1 PUSH1 0x0 PUSH20 0xFFFFFFFFFFFFFFFFFFFFFFFFFFFFFFFFFFFFFFFF AND DUP2 MSTORE PUSH1 0x20 ADD PUSH1 0x0 DUP2 MSTORE POP SWAP1 JUMP JUMPDEST PUSH1 0x40 MLOAD DUP1 PUSH1 0x40 ADD PUSH1 0x40 MSTORE DUP1 PUSH1 0x60 DUP2 MSTORE PUSH1 0x20 ADD PUSH1 0x0 ISZERO ISZERO DUP2 MSTORE POP SWAP1 JUMP JUMPDEST PUSH1 0x0 PUSH1 0x40 MLOAD SWAP1 POP SWAP1 JUMP JUMPDEST PUSH1 0x0 DUP1 REVERT JUMPDEST PUSH1 0x0 DUP1 REVERT JUMPDEST PUSH1 0x0 DUP2 SWAP1 POP SWAP2 SWAP1 POP JUMP JUMPDEST PUSH2 0x225D DUP2 PUSH2 0x224A JUMP JUMPDEST DUP2 EQ PUSH2 0x2268 JUMPI PUSH1 0x0 DUP1 REVERT JUMPDEST POP JUMP JUMPDEST PUSH1 0x0 DUP2 CALLDATALOAD SWAP1 POP PUSH2 0x227A DUP2 PUSH2 0x2254 JUMP JUMPDEST SWAP3 SWAP2 POP POP JUMP JUMPDEST PUSH1 0x0 PUSH1 0x20 DUP3 DUP5 SUB SLT ISZERO PUSH2 0x2296 JUMPI PUSH2 0x2295 PUSH2 0x2240 JUMP JUMPDEST JUMPDEST PUSH1 0x0 PUSH2 0x22A4 DUP5 DUP3 DUP6 ADD PUSH2 0x226B JUMP JUMPDEST SWAP2 POP POP SWAP3 SWAP2 POP POP JUMP JUMPDEST PUSH1 0x0 DUP2 ISZERO ISZERO SWAP1 POP SWAP2 SWAP1 POP JUMP JUMPDEST PUSH2 0x22C2 DUP2 PUSH2 0x22AD JUMP JUMPDEST DUP3 MSTORE POP POP JUMP JUMPDEST PUSH1 0x0 PUSH1 0x20 DUP3 ADD SWAP1 POP PUSH2 0x22DD PUSH1 0x0 DUP4 ADD DUP5 PUSH2 0x22B9 JUMP JUMPDEST SWAP3 SWAP2 POP POP JUMP JUMPDEST PUSH1 0x0 PUSH20 0xFFFFFFFFFFFFFFFFFFFFFFFFFFFFFFFFFFFFFFFF DUP3 AND SWAP1 POP SWAP2 SWAP1 POP JUMP JUMPDEST PUSH1 0x0 PUSH2 0x230E DUP3 PUSH2 0x22E3 JUMP JUMPDEST SWAP1 POP SWAP2 SWAP1 POP JUMP JUMPDEST PUSH2 0x231E DUP2 PUSH2 0x2303 JUMP JUMPDEST DUP2 EQ PUSH2 0x2329 JUMPI PUSH1 0x0 DUP1 REVERT JUMPDEST POP JUMP JUMPDEST PUSH1 0x0 DUP2 CALLDATALOAD SWAP1 POP PUSH2 0x233B DUP2 PUSH2 0x2315 JUMP JUMPDEST SWAP3 SWAP2 POP POP JUMP JUMPDEST PUSH1 0x0 PUSH1 0x20 DUP3 DUP5 SUB SLT ISZERO PUSH2 0x2357 JUMPI PUSH2 0x2356 PUSH2 0x2240 JUMP JUMPDEST JUMPDEST PUSH1 0x0 PUSH2 0x2365 DUP5 DUP3 DUP6 ADD PUSH2 0x232C JUMP JUMPDEST SWAP2 POP POP SWAP3 SWAP2 POP POP JUMP JUMPDEST PUSH1 0x0 DUP2 MLOAD SWAP1 POP SWAP2 SWAP1 POP JUMP JUMPDEST PUSH1 0x0 DUP3 DUP3 MSTORE PUSH1 0x20 DUP3 ADD SWAP1 POP SWAP3 SWAP2 POP POP JUMP JUMPDEST PUSH1 0x0 JUMPDEST DUP4 DUP2 LT ISZERO PUSH2 0x23A8 JUMPI DUP1 DUP3 ADD MLOAD DUP2 DUP5 ADD MSTORE PUSH1 0x20 DUP2 ADD SWAP1 POP PUSH2 0x238D JUMP JUMPDEST PUSH1 0x0 DUP5 DUP5 ADD MSTORE POP POP POP POP JUMP JUMPDEST PUSH1 0x0 PUSH1 0x1F NOT PUSH1 0x1F DUP4 ADD AND SWAP1 POP SWAP2 SWAP1 POP JUMP JUMPDEST PUSH1 0x0 PUSH2 0x23D0 DUP3 PUSH2 0x236E JUMP JUMPDEST PUSH2 0x23DA DUP2 DUP6 PUSH2 0x2379 JUMP JUMPDEST SWAP4 POP PUSH2 0x23EA DUP2 DUP6 PUSH1 0x20 DUP7 ADD PUSH2 0x238A JUMP JUMPDEST PUSH2 0x23F3 DUP2 PUSH2 0x23B4 JUMP JUMPDEST DUP5 ADD SWAP2 POP POP SWAP3 SWAP2 POP POP JUMP JUMPDEST PUSH1 0x0 PUSH1 0x40 DUP3 ADD SWAP1 POP DUP2 DUP2 SUB PUSH1 0x0 DUP4 ADD MSTORE PUSH2 0x2418 DUP2 DUP6 PUSH2 0x23C5 JUMP JUMPDEST SWAP1 POP PUSH2 0x2427 PUSH1 0x20 DUP4 ADD DUP5 PUSH2 0x22B9 JUMP JUMPDEST SWAP4 SWAP3 POP POP POP JUMP JUMPDEST PUSH1 0x0 DUP1 REVERT JUMPDEST PUSH1 0x0 DUP1 REVERT JUMPDEST PUSH32 0x4E487B7100000000000000000000000000000000000000000000000000000000 PUSH1 0x0 MSTORE PUSH1 0x41 PUSH1 0x4 MSTORE PUSH1 0x24 PUSH1 0x0 REVERT JUMPDEST PUSH2 0x2470 DUP3 PUSH2 0x23B4 JUMP JUMPDEST DUP2 ADD DUP2 DUP2 LT PUSH8 0xFFFFFFFFFFFFFFFF DUP3 GT OR ISZERO PUSH2 0x248F JUMPI PUSH2 0x248E PUSH2 0x2438 JUMP JUMPDEST JUMPDEST DUP1 PUSH1 0x40 MSTORE POP POP POP JUMP JUMPDEST PUSH1 0x0 PUSH2 0x24A2 PUSH2 0x2236 JUMP JUMPDEST SWAP1 POP PUSH2 0x24AE DUP3 DUP3 PUSH2 0x2467 JUMP JUMPDEST SWAP2 SWAP1 POP JUMP JUMPDEST PUSH1 0x0 PUSH8 0xFFFFFFFFFFFFFFFF DUP3 GT ISZERO PUSH2 0x24CE JUMPI PUSH2 0x24CD PUSH2 0x2438 JUMP JUMPDEST JUMPDEST PUSH2 0x24D7 DUP3 PUSH2 0x23B4 JUMP JUMPDEST SWAP1 POP PUSH1 0x20 DUP2 ADD SWAP1 POP SWAP2 SWAP1 POP JUMP JUMPDEST DUP3 DUP2 DUP4 CALLDATACOPY PUSH1 0x0 DUP4 DUP4 ADD MSTORE POP POP POP JUMP JUMPDEST PUSH1 0x0 PUSH2 0x2506 PUSH2 0x2501 DUP5 PUSH2 0x24B3 JUMP JUMPDEST PUSH2 0x2498 JUMP JUMPDEST SWAP1 POP DUP3 DUP2 MSTORE PUSH1 0x20 DUP2 ADD DUP5 DUP5 DUP5 ADD GT ISZERO PUSH2 0x2522 JUMPI PUSH2 0x2521 PUSH2 0x2433 JUMP JUMPDEST JUMPDEST PUSH2 0x252D DUP5 DUP3 DUP6 PUSH2 0x24E4 JUMP JUMPDEST POP SWAP4 SWAP3 POP POP POP JUMP JUMPDEST PUSH1 0x0 DUP3 PUSH1 0x1F DUP4 ADD SLT PUSH2 0x254A JUMPI PUSH2 0x2549 PUSH2 0x242E JUMP JUMPDEST JUMPDEST DUP2 CALLDATALOAD PUSH2 0x255A DUP5 DUP3 PUSH1 0x20 DUP7 ADD PUSH2 0x24F3 JUMP JUMPDEST SWAP2 POP POP SWAP3 SWAP2 POP POP JUMP JUMPDEST PUSH1 0x0 DUP1 PUSH1 0x40 DUP4 DUP6 SUB SLT ISZERO PUSH2 0x257A JUMPI PUSH2 0x2579 PUSH2 0x2240 JUMP JUMPDEST JUMPDEST PUSH1 0x0 PUSH2 0x2588 DUP6 DUP3 DUP7 ADD PUSH2 0x232C JUMP JUMPDEST SWAP3 POP POP PUSH1 0x20 DUP4 ADD CALLDATALOAD PUSH8 0xFFFFFFFFFFFFFFFF DUP2 GT ISZERO PUSH2 0x25A9 JUMPI PUSH2 0x25A8 PUSH2 0x2245 JUMP JUMPDEST JUMPDEST PUSH2 0x25B5 DUP6 DUP3 DUP7 ADD PUSH2 0x2535 JUMP JUMPDEST SWAP2 POP POP SWAP3 POP SWAP3 SWAP1 POP JUMP JUMPDEST PUSH2 0x25C8 DUP2 PUSH2 0x224A JUMP JUMPDEST DUP3 MSTORE POP POP JUMP JUMPDEST PUSH1 0x0 PUSH1 0x20 DUP3 ADD SWAP1 POP PUSH2 0x25E3 PUSH1 0x0 DUP4 ADD DUP5 PUSH2 0x25BF JUMP JUMPDEST SWAP3 SWAP2 POP POP JUMP JUMPDEST PUSH2 0x25F2 DUP2 PUSH2 0x2303 JUMP JUMPDEST DUP3 MSTORE POP POP JUMP JUMPDEST PUSH1 0x0 PUSH1 0x20 DUP3 ADD SWAP1 POP PUSH2 0x260D PUSH1 0x0 DUP4 ADD DUP5 PUSH2 0x25E9 JUMP JUMPDEST SWAP3 SWAP2 POP POP JUMP JUMPDEST PUSH1 0x0 PUSH1 0x40 DUP3 ADD SWAP1 POP PUSH2 0x2628 PUSH1 0x0 DUP4 ADD DUP6 PUSH2 0x25E9 JUMP JUMPDEST PUSH2 0x2635 PUSH1 0x20 DUP4 ADD DUP5 PUSH2 0x25BF JUMP JUMPDEST SWAP4 SWAP3 POP POP POP JUMP JUMPDEST PUSH1 0x0 PUSH1 0x20 DUP3 DUP5 SUB SLT ISZERO PUSH2 0x2652 JUMPI PUSH2 0x2651 PUSH2 0x2240 JUMP JUMPDEST JUMPDEST PUSH1 0x0 DUP3 ADD CALLDATALOAD PUSH8 0xFFFFFFFFFFFFFFFF DUP2 GT ISZERO PUSH2 0x2670 JUMPI PUSH2 0x266F PUSH2 0x2245 JUMP JUMPDEST JUMPDEST PUSH2 0x267C DUP5 DUP3 DUP6 ADD PUSH2 0x2535 JUMP JUMPDEST SWAP2 POP POP SWAP3 SWAP2 POP POP JUMP JUMPDEST PUSH1 0x0 PUSH1 0x20 DUP3 ADD SWAP1 POP DUP2 DUP2 SUB PUSH1 0x0 DUP4 ADD MSTORE PUSH2 0x269F DUP2 DUP5 PUSH2 0x23C5 JUMP JUMPDEST SWAP1 POP SWAP3 SWAP2 POP POP JUMP JUMPDEST PUSH32 0x43616E20766F7465206F6E6C79207768696C6520766F74696E67206973206F70 PUSH1 0x0 DUP3 ADD MSTORE PUSH32 0x656E2E0000000000000000000000000000000000000000000000000000000000 PUSH1 0x20 DUP3 ADD MSTORE POP JUMP JUMPDEST PUSH1 0x0 PUSH2 0x2703 PUSH1 0x23 DUP4 PUSH2 0x2379 JUMP JUMPDEST SWAP2 POP PUSH2 0x270E DUP3 PUSH2 0x26A7 JUMP JUMPDEST PUSH1 0x40 DUP3 ADD SWAP1 POP SWAP2 SWAP1 POP JUMP JUMPDEST PUSH1 0x0 PUSH1 0x20 DUP3 ADD SWAP1 POP DUP2 DUP2 SUB PUSH1 0x0 DUP4 ADD MSTORE PUSH2 0x2732 DUP2 PUSH2 0x26F6 JUMP JUMPDEST SWAP1 POP SWAP2 SWAP1 POP JUMP JUMPDEST PUSH32 0x4E487B7100000000000000000000000000000000000000000000000000000000 PUSH1 0x0 MSTORE PUSH1 0x22 PUSH1 0x4 MSTORE PUSH1 0x24 PUSH1 0x0 REVERT JUMPDEST PUSH1 0x0 PUSH1 0x2 DUP3 DIV SWAP1 POP PUSH1 0x1 DUP3 AND DUP1 PUSH2 0x2780 JUMPI PUSH1 0x7F DUP3 AND SWAP2 POP JUMPDEST PUSH1 0x20 DUP3 LT DUP2 SUB PUSH2 0x2793 JUMPI PUSH2 0x2792 PUSH2 0x2739 JUMP JUMPDEST JUMPDEST POP SWAP2 SWAP1 POP JUMP JUMPDEST PUSH32 0x4E487B7100000000000000000000000000000000000000000000000000000000 PUSH1 0x0 MSTORE PUSH1 0x11 PUSH1 0x4 MSTORE PUSH1 0x24 PUSH1 0x0 REVERT JUMPDEST PUSH1 0x0 PUSH2 0x27D3 DUP3 PUSH2 0x224A JUMP JUMPDEST SWAP2 POP PUSH32 0xFFFFFFFFFFFFFFFFFFFFFFFFFFFFFFFFFFFFFFFFFFFFFFFFFFFFFFFFFFFFFFFF DUP3 SUB PUSH2 0x2805 JUMPI PUSH2 0x2804 PUSH2 0x2799 JUMP JUMPDEST JUMPDEST PUSH1 0x1 DUP3 ADD SWAP1 POP SWAP2 SWAP1 POP JUMP JUMPDEST PUSH1 0x0 PUSH1 0x60 DUP3 ADD SWAP1 POP PUSH2 0x2825 PUSH1 0x0 DUP4 ADD DUP7 PUSH2 0x25E9 JUMP JUMPDEST DUP2 DUP2 SUB PUSH1 0x20 DUP4 ADD MSTORE PUSH2 0x2837 DUP2 DUP6 PUSH2 0x23C5 JUMP JUMPDEST SWAP1 POP PUSH2 0x2846 PUSH1 0x40 DUP4 ADD DUP5 PUSH2 0x22B9 JUMP JUMPDEST SWAP5 SWAP4 POP POP POP POP JUMP JUMPDEST PUSH32 0x4E487B7100000000000000000000000000000000000000000000000000000000 PUSH1 0x0 MSTORE PUSH1 0x12 PUSH1 0x4 MSTORE PUSH1 0x24 PUSH1 0x0 REVERT JUMPDEST PUSH1 0x0 PUSH2 0x2888 DUP3 PUSH2 0x224A JUMP JUMPDEST SWAP2 POP PUSH2 0x2893 DUP4 PUSH2 0x224A JUMP JUMPDEST SWAP3 POP DUP3 PUSH2 0x28A3 JUMPI PUSH2 0x28A2 PUSH2 0x284E JUMP JUMPDEST JUMPDEST DUP3 DUP3 DIV SWAP1 POP SWAP3 SWAP2 POP POP JUMP JUMPDEST PUSH1 0x0 PUSH2 0x28B9 DUP3 PUSH2 0x224A JUMP JUMPDEST SWAP2 POP PUSH2 0x28C4 DUP4 PUSH2 0x224A JUMP JUMPDEST SWAP3 POP DUP3 DUP3 ADD SWAP1 POP DUP1 DUP3 GT ISZERO PUSH2 0x28DC JUMPI PUSH2 0x28DB PUSH2 0x2799 JUMP JUMPDEST JUMPDEST SWAP3 SWAP2 POP POP JUMP JUMPDEST PUSH2 0x28EB DUP2 PUSH2 0x224A JUMP JUMPDEST DUP3 MSTORE POP POP JUMP JUMPDEST PUSH1 0x0 DUP2 SWAP1 POP SWAP2 SWAP1 POP JUMP JUMPDEST PUSH1 0x0 DUP2 SWAP1 POP SWAP2 SWAP1 POP JUMP JUMPDEST PUSH1 0x0 PUSH2 0x2920 PUSH2 0x291B PUSH2 0x2916 DUP5 PUSH2 0x28F1 JUMP JUMPDEST PUSH2 0x28FB JUMP JUMPDEST PUSH2 0x224A JUMP JUMPDEST SWAP1 POP SWAP2 SWAP1 POP JUMP JUMPDEST PUSH2 0x2930 DUP2 PUSH2 0x2905 JUMP JUMPDEST DUP3 MSTORE POP POP JUMP JUMPDEST PUSH1 0x0 DUP3 DUP3 MSTORE PUSH1 0x20 DUP3 ADD SWAP1 POP SWAP3 SWAP2 POP POP JUMP JUMPDEST PUSH32 0x53686F756C6420626520657175616C20746F2031000000000000000000000000 PUSH1 0x0 DUP3 ADD MSTORE POP JUMP JUMPDEST PUSH1 0x0 PUSH2 0x297D PUSH1 0x14 DUP4 PUSH2 0x2936 JUMP JUMPDEST SWAP2 POP PUSH2 0x2988 DUP3 PUSH2 0x2947 JUMP JUMPDEST PUSH1 0x20 DUP3 ADD SWAP1 POP SWAP2 SWAP1 POP JUMP JUMPDEST PUSH1 0x0 PUSH1 0x60 DUP3 ADD SWAP1 POP PUSH2 0x29A8 PUSH1 0x0 DUP4 ADD DUP6 PUSH2 0x28E2 JUMP JUMPDEST PUSH2 0x29B5 PUSH1 0x20 DUP4 ADD DUP5 PUSH2 0x2927 JUMP JUMPDEST DUP2 DUP2 SUB PUSH1 0x40 DUP4 ADD MSTORE PUSH2 0x29C6 DUP2 PUSH2 0x2970 JUMP JUMPDEST SWAP1 POP SWAP4 SWAP3 POP POP POP JUMP JUMPDEST PUSH2 0x29D8 DUP2 PUSH2 0x22AD JUMP JUMPDEST DUP2 EQ PUSH2 0x29E3 JUMPI PUSH1 0x0 DUP1 REVERT JUMPDEST POP JUMP JUMPDEST PUSH1 0x0 DUP2 MLOAD SWAP1 POP PUSH2 0x29F5 DUP2 PUSH2 0x29CF JUMP JUMPDEST SWAP3 SWAP2 POP POP JUMP JUMPDEST PUSH1 0x0 PUSH1 0x20 DUP3 DUP5 SUB SLT ISZERO PUSH2 0x2A11 JUMPI PUSH2 0x2A10 PUSH2 0x2240 JUMP JUMPDEST JUMPDEST PUSH1 0x0 PUSH2 0x2A1F DUP5 DUP3 DUP6 ADD PUSH2 0x29E6 JUMP JUMPDEST SWAP2 POP POP SWAP3 SWAP2 POP POP JUMP JUMPDEST PUSH1 0x0 DUP2 SWAP1 POP SWAP2 SWAP1 POP JUMP JUMPDEST PUSH1 0x0 PUSH2 0x2A4D PUSH2 0x2A48 PUSH2 0x2A43 DUP5 PUSH2 0x2A28 JUMP JUMPDEST PUSH2 0x28FB JUMP JUMPDEST PUSH2 0x224A JUMP JUMPDEST SWAP1 POP SWAP2 SWAP1 POP JUMP JUMPDEST PUSH2 0x2A5D DUP2 PUSH2 0x2A32 JUMP JUMPDEST DUP3 MSTORE POP POP JUMP JUMPDEST PUSH32 0x53686F756C6420626520657175616C20746F2032000000000000000000000000 PUSH1 0x0 DUP3 ADD MSTORE POP JUMP JUMPDEST PUSH1 0x0 PUSH2 0x2A99 PUSH1 0x14 DUP4 PUSH2 0x2936 JUMP JUMPDEST SWAP2 POP PUSH2 0x2AA4 DUP3 PUSH2 0x2A63 JUMP JUMPDEST PUSH1 0x20 DUP3 ADD SWAP1 POP SWAP2 SWAP1 POP JUMP JUMPDEST PUSH1 0x0 PUSH1 0x60 DUP3 ADD SWAP1 POP PUSH2 0x2AC4 PUSH1 0x0 DUP4 ADD DUP6 PUSH2 0x28E2 JUMP JUMPDEST PUSH2 0x2AD1 PUSH1 0x20 DUP4 ADD DUP5 PUSH2 0x2A54 JUMP JUMPDEST DUP2 DUP2 SUB PUSH1 0x40 DUP4 ADD MSTORE PUSH2 0x2AE2 DUP2 PUSH2 0x2A8C JUMP JUMPDEST SWAP1 POP SWAP4 SWAP3 POP POP POP JUMP JUMPDEST PUSH2 0x2AF4 DUP2 PUSH2 0x22AD JUMP JUMPDEST DUP3 MSTORE POP POP JUMP JUMPDEST PUSH32 0x566F74696E6720726573756C742073686F756C64206265207472756500000000 PUSH1 0x0 DUP3 ADD MSTORE POP JUMP JUMPDEST PUSH1 0x0 PUSH2 0x2B30 PUSH1 0x1C DUP4 PUSH2 0x2936 JUMP JUMPDEST SWAP2 POP PUSH2 0x2B3B DUP3 PUSH2 0x2AFA JUMP JUMPDEST PUSH1 0x20 DUP3 ADD SWAP1 POP SWAP2 SWAP1 POP JUMP JUMPDEST PUSH1 0x0 PUSH1 0x40 DUP3 ADD SWAP1 POP PUSH2 0x2B5B PUSH1 0x0 DUP4 ADD DUP5 PUSH2 0x2AEB JUMP JUMPDEST DUP2 DUP2 SUB PUSH1 0x20 DUP4 ADD MSTORE PUSH2 0x2B6C DUP2 PUSH2 0x2B23 JUMP JUMPDEST SWAP1 POP SWAP3 SWAP2 POP POP JUMP JUMPDEST PUSH32 0x43616E206F6E6C7920626520657865637574656420627920746865206D616E61 PUSH1 0x0 DUP3 ADD MSTORE PUSH32 0x6765720000000000000000000000000000000000000000000000000000000000 PUSH1 0x20 DUP3 ADD MSTORE POP JUMP JUMPDEST PUSH1 0x0 PUSH2 0x2BD0 PUSH1 0x23 DUP4 PUSH2 0x2379 JUMP JUMPDEST SWAP2 POP PUSH2 0x2BDB DUP3 PUSH2 0x2B74 JUMP JUMPDEST PUSH1 0x40 DUP3 ADD SWAP1 POP SWAP2 SWAP1 POP JUMP JUMPDEST PUSH1 0x0 PUSH1 0x20 DUP3 ADD SWAP1 POP DUP2 DUP2 SUB PUSH1 0x0 DUP4 ADD MSTORE PUSH2 0x2BFF DUP2 PUSH2 0x2BC3 JUMP JUMPDEST SWAP1 POP SWAP2 SWAP1 POP JUMP JUMPDEST PUSH1 0x0 DUP2 SWAP1 POP DUP2 PUSH1 0x0 MSTORE PUSH1 0x20 PUSH1 0x0 KECCAK256 SWAP1 POP SWAP2 SWAP1 POP JUMP JUMPDEST PUSH1 0x0 PUSH1 0x20 PUSH1 0x1F DUP4 ADD DIV SWAP1 POP SWAP2 SWAP1 POP JUMP JUMPDEST PUSH1 0x0 DUP3 DUP3 SHL SWAP1 POP SWAP3 SWAP2 POP POP JUMP JUMPDEST PUSH1 0x0 PUSH1 0x8 DUP4 MUL PUSH2 0x2C68 PUSH32 0xFFFFFFFFFFFFFFFFFFFFFFFFFFFFFFFFFFFFFFFFFFFFFFFFFFFFFFFFFFFFFFFF DUP3 PUSH2 0x2C2B JUMP JUMPDEST PUSH2 0x2C72 DUP7 DUP4 PUSH2 0x2C2B JUMP JUMPDEST SWAP6 POP DUP1 NOT DUP5 AND SWAP4 POP DUP1 DUP7 AND DUP5 OR SWAP3 POP POP POP SWAP4 SWAP3 POP POP POP JUMP JUMPDEST PUSH1 0x0 PUSH2 0x2CA5 PUSH2 0x2CA0 PUSH2 0x2C9B DUP5 PUSH2 0x224A JUMP JUMPDEST PUSH2 0x28FB JUMP JUMPDEST PUSH2 0x224A JUMP JUMPDEST SWAP1 POP SWAP2 SWAP1 POP JUMP JUMPDEST PUSH1 0x0 DUP2 SWAP1 POP SWAP2 SWAP1 POP JUMP JUMPDEST PUSH2 0x2CBF DUP4 PUSH2 0x2C8A JUMP JUMPDEST PUSH2 0x2CD3 PUSH2 0x2CCB DUP3 PUSH2 0x2CAC JUMP JUMPDEST DUP5 DUP5 SLOAD PUSH2 0x2C38 JUMP JUMPDEST DUP3 SSTORE POP POP POP POP JUMP JUMPDEST PUSH1 0x0 SWAP1 JUMP JUMPDEST PUSH2 0x2CE8 PUSH2 0x2CDB JUMP JUMPDEST PUSH2 0x2CF3 DUP2 DUP5 DUP5 PUSH2 0x2CB6 JUMP JUMPDEST POP POP POP JUMP JUMPDEST JUMPDEST DUP2 DUP2 LT ISZERO PUSH2 0x2D17 JUMPI PUSH2 0x2D0C PUSH1 0x0 DUP3 PUSH2 0x2CE0 JUMP JUMPDEST PUSH1 0x1 DUP2 ADD SWAP1 POP PUSH2 0x2CF9 JUMP JUMPDEST POP POP JUMP JUMPDEST PUSH1 0x1F DUP3 GT ISZERO PUSH2 0x2D5C JUMPI PUSH2 0x2D2D DUP2 PUSH2 0x2C06 JUMP JUMPDEST PUSH2 0x2D36 DUP5 PUSH2 0x2C1B JUMP JUMPDEST DUP2 ADD PUSH1 0x20 DUP6 LT ISZERO PUSH2 0x2D45 JUMPI DUP2 SWAP1 POP JUMPDEST PUSH2 0x2D59 PUSH2 0x2D51 DUP6 PUSH2 0x2C1B JUMP JUMPDEST DUP4 ADD DUP3 PUSH2 0x2CF8 JUMP JUMPDEST POP POP JUMPDEST POP POP POP JUMP JUMPDEST PUSH1 0x0 DUP3 DUP3 SHR SWAP1 POP SWAP3 SWAP2 POP POP JUMP JUMPDEST PUSH1 0x0 PUSH2 0x2D7F PUSH1 0x0 NOT DUP5 PUSH1 0x8 MUL PUSH2 0x2D61 JUMP JUMPDEST NOT DUP1 DUP4 AND SWAP2 POP POP SWAP3 SWAP2 POP POP JUMP JUMPDEST PUSH1 0x0 PUSH2 0x2D98 DUP4 DUP4 PUSH2 0x2D6E JUMP JUMPDEST SWAP2 POP DUP3 PUSH1 0x2 MUL DUP3 OR SWAP1 POP SWAP3 SWAP2 POP POP JUMP JUMPDEST PUSH2 0x2DB1 DUP3 PUSH2 0x236E JUMP JUMPDEST PUSH8 0xFFFFFFFFFFFFFFFF DUP2 GT ISZERO PUSH2 0x2DCA JUMPI PUSH2 0x2DC9 PUSH2 0x2438 JUMP JUMPDEST JUMPDEST PUSH2 0x2DD4 DUP3 SLOAD PUSH2 0x2768 JUMP JUMPDEST PUSH2 0x2DDF DUP3 DUP3 DUP6 PUSH2 0x2D1B JUMP JUMPDEST PUSH1 0x0 PUSH1 0x20 SWAP1 POP PUSH1 0x1F DUP4 GT PUSH1 0x1 DUP2 EQ PUSH2 0x2E12 JUMPI PUSH1 0x0 DUP5 ISZERO PUSH2 0x2E00 JUMPI DUP3 DUP8 ADD MLOAD SWAP1 POP JUMPDEST PUSH2 0x2E0A DUP6 DUP3 PUSH2 0x2D8C JUMP JUMPDEST DUP7 SSTORE POP PUSH2 0x2E72 JUMP JUMPDEST PUSH1 0x1F NOT DUP5 AND PUSH2 0x2E20 DUP7 PUSH2 0x2C06 JUMP JUMPDEST PUSH1 0x0 JUMPDEST DUP3 DUP2 LT ISZERO PUSH2 0x2E48 JUMPI DUP5 DUP10 ADD MLOAD DUP3 SSTORE PUSH1 0x1 DUP3 ADD SWAP2 POP PUSH1 0x20 DUP6 ADD SWAP5 POP PUSH1 0x20 DUP2 ADD SWAP1 POP PUSH2 0x2E23 JUMP JUMPDEST DUP7 DUP4 LT ISZERO PUSH2 0x2E65 JUMPI DUP5 DUP10 ADD MLOAD PUSH2 0x2E61 PUSH1 0x1F DUP10 AND DUP3 PUSH2 0x2D6E JUMP JUMPDEST DUP4 SSTORE POP JUMPDEST PUSH1 0x1 PUSH1 0x2 DUP9 MUL ADD DUP9 SSTORE POP POP POP JUMPDEST POP POP POP POP POP POP JUMP JUMPDEST PUSH32 0x41746F6D69632043616665000000000000000000000000000000000000000000 PUSH1 0x0 DUP3 ADD MSTORE POP JUMP JUMPDEST PUSH1 0x0 PUSH2 0x2EB0 PUSH1 0xB DUP4 PUSH2 0x2379 JUMP JUMPDEST SWAP2 POP PUSH2 0x2EBB DUP3 PUSH2 0x2E7A JUMP JUMPDEST PUSH1 0x20 DUP3 ADD SWAP1 POP SWAP2 SWAP1 POP JUMP JUMPDEST PUSH1 0x0 PUSH1 0x20 DUP3 ADD SWAP1 POP DUP2 DUP2 SUB PUSH1 0x0 DUP4 ADD MSTORE PUSH2 0x2EDF DUP2 PUSH2 0x2EA3 JUMP JUMPDEST SWAP1 POP SWAP2 SWAP1 POP JUMP JUMPDEST PUSH1 0x0 DUP2 MLOAD SWAP1 POP PUSH2 0x2EF5 DUP2 PUSH2 0x2254 JUMP JUMPDEST SWAP3 SWAP2 POP POP JUMP JUMPDEST PUSH1 0x0 PUSH1 0x20 DUP3 DUP5 SUB SLT ISZERO PUSH2 0x2F11 JUMPI PUSH2 0x2F10 PUSH2 0x2240 JUMP JUMPDEST JUMPDEST PUSH1 0x0 PUSH2 0x2F1F DUP5 DUP3 DUP6 ADD PUSH2 0x2EE6 JUMP JUMPDEST SWAP2 POP POP SWAP3 SWAP2 POP POP JUMP JUMPDEST PUSH1 0x0 DUP2 PUSH1 0xE0 SHR SWAP1 POP SWAP2 SWAP1 POP JUMP JUMPDEST PUSH1 0x0 PUSH1 0x3 RETURNDATASIZE GT ISZERO PUSH2 0x2F54 JUMPI PUSH1 0x4 PUSH1 0x0 DUP1 RETURNDATACOPY PUSH2 0x2F51 PUSH1 0x0 MLOAD PUSH2 0x2F28 JUMP JUMPDEST SWAP1 POP JUMPDEST SWAP1 JUMP JUMPDEST PUSH1 0x0 PUSH1 0x44 RETURNDATASIZE LT PUSH2 0x2FE4 JUMPI PUSH2 0x2F69 PUSH2 0x2236 JUMP JUMPDEST PUSH1 0x4 RETURNDATASIZE SUB PUSH1 0x4 DUP3 RETURNDATACOPY DUP1 MLOAD RETURNDATASIZE PUSH1 0x24 DUP3 ADD GT PUSH8 0xFFFFFFFFFFFFFFFF DUP3 GT OR ISZERO PUSH2 0x2F91 JUMPI POP POP PUSH2 0x2FE4 JUMP JUMPDEST DUP1 DUP3 ADD DUP1 MLOAD PUSH8 0xFFFFFFFFFFFFFFFF DUP2 GT ISZERO PUSH2 0x2FAF JUMPI POP POP POP POP PUSH2 0x2FE4 JUMP JUMPDEST DUP1 PUSH1 0x20 DUP4 ADD ADD PUSH1 0x4 RETURNDATASIZE SUB DUP6 ADD DUP2 GT ISZERO PUSH2 0x2FCC JUMPI POP POP POP POP POP PUSH2 0x2FE4 JUMP JUMPDEST PUSH2 0x2FDB DUP3 PUSH1 0x20 ADD DUP6 ADD DUP7 PUSH2 0x2467 JUMP JUMPDEST DUP3 SWAP6 POP POP POP POP POP POP JUMPDEST SWAP1 JUMP JUMPDEST PUSH1 0x0 PUSH2 0x2FF2 DUP3 PUSH2 0x236E JUMP JUMPDEST PUSH2 0x2FFC DUP2 DUP6 PUSH2 0x2936 JUMP JUMPDEST SWAP4 POP PUSH2 0x300C DUP2 DUP6 PUSH1 0x20 DUP7 ADD PUSH2 0x238A JUMP JUMPDEST PUSH2 0x3015 DUP2 PUSH2 0x23B4 JUMP JUMPDEST DUP5 ADD SWAP2 POP POP SWAP3 SWAP2 POP POP JUMP JUMPDEST PUSH1 0x0 PUSH2 0x302D PUSH1 0x23 DUP4 PUSH2 0x2936 JUMP JUMPDEST SWAP2 POP PUSH2 0x3038 DUP3 PUSH2 0x2B74 JUMP JUMPDEST PUSH1 0x40 DUP3 ADD SWAP1 POP SWAP2 SWAP1 POP JUMP JUMPDEST PUSH32 0x4661696C6564207769746820756E657870656374656420726561736F6E000000 PUSH1 0x0 DUP3 ADD MSTORE POP JUMP JUMPDEST PUSH1 0x0 PUSH2 0x3079 PUSH1 0x1D DUP4 PUSH2 0x2936 JUMP JUMPDEST SWAP2 POP PUSH2 0x3084 DUP3 PUSH2 0x3043 JUMP JUMPDEST PUSH1 0x20 DUP3 ADD SWAP1 POP SWAP2 SWAP1 POP JUMP JUMPDEST PUSH1 0x0 PUSH1 0x60 DUP3 ADD SWAP1 POP DUP2 DUP2 SUB PUSH1 0x0 DUP4 ADD MSTORE PUSH2 0x30A9 DUP2 DUP5 PUSH2 0x2FE7 JUMP JUMPDEST SWAP1 POP DUP2 DUP2 SUB PUSH1 0x20 DUP4 ADD MSTORE PUSH2 0x30BC DUP2 PUSH2 0x3020 JUMP JUMPDEST SWAP1 POP DUP2 DUP2 SUB PUSH1 0x40 DUP4 ADD MSTORE PUSH2 0x30CF DUP2 PUSH2 0x306C JUMP JUMPDEST SWAP1 POP SWAP3 SWAP2 POP POP JUMP JUMPDEST PUSH1 0x0 DUP1 PUSH1 0x23 RETURNDATASIZE GT ISZERO PUSH2 0x30F4 JUMPI PUSH1 0x20 PUSH1 0x4 PUSH1 0x0 RETURNDATACOPY PUSH1 0x1 SWAP2 POP PUSH1 0x0 MLOAD SWAP1 POP JUMPDEST SWAP1 SWAP2 JUMP JUMPDEST PUSH32 0x4661696C656420756E65787065637465642077697468206572726F7220636F64 PUSH1 0x0 DUP3 ADD MSTORE PUSH32 0x6500000000000000000000000000000000000000000000000000000000000000 PUSH1 0x20 DUP3 ADD MSTORE POP JUMP JUMPDEST PUSH1 0x0 PUSH2 0x3154 PUSH1 0x21 DUP4 PUSH2 0x2936 JUMP JUMPDEST SWAP2 POP PUSH2 0x315F DUP3 PUSH2 0x30F8 JUMP JUMPDEST PUSH1 0x40 DUP3 ADD SWAP1 POP SWAP2 SWAP1 POP JUMP JUMPDEST PUSH1 0x0 PUSH1 0x40 DUP3 ADD SWAP1 POP PUSH2 0x317F PUSH1 0x0 DUP4 ADD DUP5 PUSH2 0x2AEB JUMP JUMPDEST DUP2 DUP2 SUB PUSH1 0x20 DUP4 ADD MSTORE PUSH2 0x3190 DUP2 PUSH2 0x3147 JUMP JUMPDEST SWAP1 POP SWAP3 SWAP2 POP POP JUMP JUMPDEST PUSH32 0x4661696C656420756E6578706563746564000000000000000000000000000000 PUSH1 0x0 DUP3 ADD MSTORE POP JUMP JUMPDEST PUSH1 0x0 PUSH2 0x31CE PUSH1 0x11 DUP4 PUSH2 0x2936 JUMP JUMPDEST SWAP2 POP PUSH2 0x31D9 DUP3 PUSH2 0x3198 JUMP JUMPDEST PUSH1 0x20 DUP3 ADD SWAP1 POP SWAP2 SWAP1 POP JUMP JUMPDEST PUSH1 0x0 PUSH1 0x40 DUP3 ADD SWAP1 POP PUSH2 0x31F9 PUSH1 0x0 DUP4 ADD DUP5 PUSH2 0x2AEB JUMP JUMPDEST DUP2 DUP2 SUB PUSH1 0x20 DUP4 ADD MSTORE PUSH2 0x320A DUP2 PUSH2 0x31C1 JUMP JUMPDEST SWAP1 POP SWAP3 SWAP2 POP POP JUMP JUMPDEST PUSH1 0x0 DUP2 SWAP1 POP SWAP2 SWAP1 POP JUMP JUMPDEST PUSH1 0x0 PUSH2 0x3237 PUSH2 0x3232 PUSH2 0x322D DUP5 PUSH2 0x3212 JUMP JUMPDEST PUSH2 0x28FB JUMP JUMPDEST PUSH2 0x224A JUMP JUMPDEST SWAP1 POP SWAP2 SWAP1 POP JUMP JUMPDEST PUSH2 0x3247 DUP2 PUSH2 0x321C JUMP JUMPDEST DUP3 MSTORE POP POP JUMP JUMPDEST PUSH32 0x4D6574686F6420657865637574696F6E20646964206E6F74206661696C000000 PUSH1 0x0 DUP3 ADD MSTORE POP JUMP JUMPDEST PUSH1 0x0 PUSH2 0x3283 PUSH1 0x1D DUP4 PUSH2 0x2936 JUMP JUMPDEST SWAP2 POP PUSH2 0x328E DUP3 PUSH2 0x324D JUMP JUMPDEST PUSH1 0x20 DUP3 ADD SWAP1 POP SWAP2 SWAP1 POP JUMP JUMPDEST PUSH1 0x0 PUSH1 0x60 DUP3 ADD SWAP1 POP PUSH2 0x32AE PUSH1 0x0 DUP4 ADD DUP6 PUSH2 0x28E2 JUMP JUMPDEST PUSH2 0x32BB PUSH1 0x20 DUP4 ADD DUP5 PUSH2 0x323E JUMP JUMPDEST DUP2 DUP2 SUB PUSH1 0x40 DUP4 ADD MSTORE PUSH2 0x32CC DUP2 PUSH2 0x3276 JUMP JUMPDEST SWAP1 POP SWAP4 SWAP3 POP POP POP JUMP JUMPDEST PUSH32 0x44616E69656C7300000000000000000000000000000000000000000000000000 PUSH1 0x0 DUP3 ADD MSTORE POP JUMP JUMPDEST PUSH1 0x0 PUSH2 0x330B PUSH1 0x7 DUP4 PUSH2 0x2379 JUMP JUMPDEST SWAP2 POP PUSH2 0x3316 DUP3 PUSH2 0x32D5 JUMP JUMPDEST PUSH1 0x20 DUP3 ADD SWAP1 POP SWAP2 SWAP1 POP JUMP JUMPDEST PUSH1 0x0 PUSH1 0x40 DUP3 ADD SWAP1 POP PUSH2 0x3336 PUSH1 0x0 DUP4 ADD DUP5 PUSH2 0x25E9 JUMP JUMPDEST DUP2 DUP2 SUB PUSH1 0x20 DUP4 ADD MSTORE PUSH2 0x3347 DUP2 PUSH2 0x32FE JUMP JUMPDEST SWAP1 POP SWAP3 SWAP2 POP POP JUMP JUMPDEST PUSH1 0x0 DUP2 SWAP1 POP SWAP2 SWAP1 POP JUMP JUMPDEST PUSH1 0x0 PUSH2 0x3374 PUSH2 0x336F PUSH2 0x336A DUP5 PUSH2 0x334F JUMP JUMPDEST PUSH2 0x28FB JUMP JUMPDEST PUSH2 0x224A JUMP JUMPDEST SWAP1 POP SWAP2 SWAP1 POP JUMP JUMPDEST PUSH2 0x3384 DUP2 PUSH2 0x3359 JUMP JUMPDEST DUP3 MSTORE POP POP JUMP JUMPDEST PUSH1 0x0 PUSH1 0x60 DUP3 ADD SWAP1 POP PUSH2 0x339F PUSH1 0x0 DUP4 ADD DUP6 PUSH2 0x28E2 JUMP JUMPDEST PUSH2 0x33AC PUSH1 0x20 DUP4 ADD DUP5 PUSH2 0x337B JUMP JUMPDEST DUP2 DUP2 SUB PUSH1 0x40 DUP4 ADD MSTORE PUSH2 0x33BD DUP2 PUSH2 0x3276 JUMP JUMPDEST SWAP1 POP SWAP4 SWAP3 POP POP POP JUMP JUMPDEST PUSH1 0x0 DUP2 SWAP1 POP SWAP2 SWAP1 POP JUMP JUMPDEST PUSH1 0x0 PUSH2 0x33EB PUSH2 0x33E6 PUSH2 0x33E1 DUP5 PUSH2 0x33C6 JUMP JUMPDEST PUSH2 0x28FB JUMP JUMPDEST PUSH2 0x224A JUMP JUMPDEST SWAP1 POP SWAP2 SWAP1 POP JUMP JUMPDEST PUSH2 0x33FB DUP2 PUSH2 0x33D0 JUMP JUMPDEST DUP3 MSTORE POP POP JUMP JUMPDEST PUSH1 0x0 PUSH1 0x20 DUP3 ADD SWAP1 POP PUSH2 0x3416 PUSH1 0x0 DUP4 ADD DUP5 PUSH2 0x33F2 JUMP JUMPDEST SWAP3 SWAP2 POP POP JUMP JUMPDEST PUSH1 0x0 DUP2 MLOAD SWAP1 POP PUSH2 0x342B DUP2 PUSH2 0x2315 JUMP JUMPDEST SWAP3 SWAP2 POP POP JUMP JUMPDEST PUSH1 0x0 PUSH1 0x20 DUP3 DUP5 SUB SLT ISZERO PUSH2 0x3447 JUMPI PUSH2 0x3446 PUSH2 0x2240 JUMP JUMPDEST JUMPDEST PUSH1 0x0 PUSH2 0x3455 DUP5 DUP3 DUP6 ADD PUSH2 0x341C JUMP JUMPDEST SWAP2 POP POP SWAP3 SWAP2 POP POP JUMP JUMPDEST PUSH1 0x0 PUSH1 0x20 DUP3 ADD SWAP1 POP PUSH2 0x3473 PUSH1 0x0 DUP4 ADD DUP5 PUSH2 0x2927 JUMP JUMPDEST SWAP3 SWAP2 POP POP JUMP JUMPDEST PUSH1 0x0 PUSH1 0x20 DUP3 ADD SWAP1 POP PUSH2 0x348E PUSH1 0x0 DUP4 ADD DUP5 PUSH2 0x2A54 JUMP JUMPDEST SWAP3 SWAP2 POP POP JUMP JUMPDEST PUSH1 0x0 PUSH1 0x20 DUP3 ADD SWAP1 POP PUSH2 0x34A9 PUSH1 0x0 DUP4 ADD DUP5 PUSH2 0x323E JUMP JUMPDEST SWAP3 SWAP2 POP POP JUMP JUMPDEST PUSH1 0x0 DUP2 SWAP1 POP SWAP2 SWAP1 POP JUMP JUMPDEST PUSH1 0x0 PUSH2 0x34D4 PUSH2 0x34CF PUSH2 0x34CA DUP5 PUSH2 0x34AF JUMP JUMPDEST PUSH2 0x28FB JUMP JUMPDEST PUSH2 0x224A JUMP JUMPDEST SWAP1 POP SWAP2 SWAP1 POP JUMP JUMPDEST PUSH2 0x34E4 DUP2 PUSH2 0x34B9 JUMP JUMPDEST DUP3 MSTORE POP POP JUMP JUMPDEST PUSH1 0x0 PUSH1 0x20 DUP3 ADD SWAP1 POP PUSH2 0x34FF PUSH1 0x0 DUP4 ADD DUP5 PUSH2 0x34DB JUMP JUMPDEST SWAP3 SWAP2 POP POP JUMP JUMPDEST PUSH32 0x53686F756C6420626520657175616C20746F2033000000000000000000000000 PUSH1 0x0 DUP3 ADD MSTORE POP JUMP JUMPDEST PUSH1 0x0 PUSH2 0x353B PUSH1 0x14 DUP4 PUSH2 0x2936 JUMP JUMPDEST SWAP2 POP PUSH2 0x3546 DUP3 PUSH2 0x3505 JUMP JUMPDEST PUSH1 0x20 DUP3 ADD SWAP1 POP SWAP2 SWAP1 POP JUMP JUMPDEST PUSH1 0x0 PUSH1 0x60 DUP3 ADD SWAP1 POP PUSH2 0x3566 PUSH1 0x0 DUP4 ADD DUP6 PUSH2 0x28E2 JUMP JUMPDEST PUSH2 0x3573 PUSH1 0x20 DUP4 ADD DUP5 PUSH2 0x323E JUMP JUMPDEST DUP2 DUP2 SUB PUSH1 0x40 DUP4 ADD MSTORE PUSH2 0x3584 DUP2 PUSH2 0x352E JUMP JUMPDEST SWAP1 POP SWAP4 SWAP3 POP POP POP JUMP JUMPDEST PUSH32 0x53686F756C6420626520657175616C20746F2034000000000000000000000000 PUSH1 0x0 DUP3 ADD MSTORE POP JUMP JUMPDEST PUSH1 0x0 PUSH2 0x35C3 PUSH1 0x14 DUP4 PUSH2 0x2936 JUMP JUMPDEST SWAP2 POP PUSH2 0x35CE DUP3 PUSH2 0x358D JUMP JUMPDEST PUSH1 0x20 DUP3 ADD SWAP1 POP SWAP2 SWAP1 POP JUMP JUMPDEST PUSH1 0x0 PUSH1 0x60 DUP3 ADD SWAP1 POP PUSH2 0x35EE PUSH1 0x0 DUP4 ADD DUP6 PUSH2 0x28E2 JUMP JUMPDEST PUSH2 0x35FB PUSH1 0x20 DUP4 ADD DUP5 PUSH2 0x34DB JUMP JUMPDEST DUP2 DUP2 SUB PUSH1 0x40 DUP4 ADD MSTORE PUSH2 0x360C DUP2 PUSH2 0x35B6 JUMP JUMPDEST SWAP1 POP SWAP4 SWAP3 POP POP POP JUMP JUMPDEST PUSH2 0x361E DUP2 PUSH2 0x2303 JUMP JUMPDEST DUP3 MSTORE POP POP JUMP JUMPDEST PUSH32 0x4D616E616765722073686F756C64206265206163633000000000000000000000 PUSH1 0x0 DUP3 ADD MSTORE POP JUMP JUMPDEST PUSH1 0x0 PUSH2 0x365A PUSH1 0x16 DUP4 PUSH2 0x2936 JUMP JUMPDEST SWAP2 POP PUSH2 0x3665 DUP3 PUSH2 0x3624 JUMP JUMPDEST PUSH1 0x20 DUP3 ADD SWAP1 POP SWAP2 SWAP1 POP JUMP JUMPDEST PUSH1 0x0 PUSH1 0x60 DUP3 ADD SWAP1 POP PUSH2 0x3685 PUSH1 0x0 DUP4 ADD DUP6 PUSH2 0x3615 JUMP JUMPDEST PUSH2 0x3692 PUSH1 0x20 DUP4 ADD DUP5 PUSH2 0x3615 JUMP JUMPDEST DUP2 DUP2 SUB PUSH1 0x40 DUP4 ADD MSTORE PUSH2 0x36A3 DUP2 PUSH2 0x364D JUMP JUMPDEST SWAP1 POP SWAP4 SWAP3 POP POP POP JUMP JUMPDEST PUSH2 0x36B5 DUP2 PUSH2 0x2905 JUMP JUMPDEST DUP3 MSTORE POP POP JUMP JUMPDEST PUSH1 0x0 PUSH1 0x20 DUP3 ADD SWAP1 POP PUSH2 0x36D0 PUSH1 0x0 DUP4 ADD DUP5 PUSH2 0x36AC JUMP JUMPDEST SWAP3 SWAP2 POP POP JUMP JUMPDEST PUSH1 0x0 PUSH2 0x36E3 PUSH1 0x23 DUP4 PUSH2 0x2936 JUMP JUMPDEST SWAP2 POP PUSH2 0x36EE DUP3 PUSH2 0x26A7 JUMP JUMPDEST PUSH1 0x40 DUP3 ADD SWAP1 POP SWAP2 SWAP1 POP JUMP JUMPDEST PUSH1 0x0 PUSH1 0x60 DUP3 ADD SWAP1 POP DUP2 DUP2 SUB PUSH1 0x0 DUP4 ADD MSTORE PUSH2 0x3713 DUP2 DUP5 PUSH2 0x2FE7 JUMP JUMPDEST SWAP1 POP DUP2 DUP2 SUB PUSH1 0x20 DUP4 ADD MSTORE PUSH2 0x3726 DUP2 PUSH2 0x36D6 JUMP JUMPDEST SWAP1 POP DUP2 DUP2 SUB PUSH1 0x40 DUP4 ADD MSTORE PUSH2 0x3739 DUP2 PUSH2 0x306C JUMP JUMPDEST SWAP1 POP SWAP3 SWAP2 POP POP JUMP JUMPDEST PUSH32 0x4661696C656420756E65787065637465646C7900000000000000000000000000 PUSH1 0x0 DUP3 ADD MSTORE POP JUMP JUMPDEST PUSH1 0x0 PUSH2 0x3777 PUSH1 0x13 DUP4 PUSH2 0x2936 JUMP JUMPDEST SWAP2 POP PUSH2 0x3782 DUP3 PUSH2 0x3741 JUMP JUMPDEST PUSH1 0x20 DUP3 ADD SWAP1 POP SWAP2 SWAP1 POP JUMP JUMPDEST PUSH1 0x0 PUSH1 0x40 DUP3 ADD SWAP1 POP PUSH2 0x37A2 PUSH1 0x0 DUP4 ADD DUP5 PUSH2 0x2AEB JUMP JUMPDEST DUP2 DUP2 SUB PUSH1 0x20 DUP4 ADD MSTORE PUSH2 0x37B3 DUP2 PUSH2 0x376A JUMP JUMPDEST SWAP1 POP SWAP3 SWAP2 POP POP JUMP JUMPDEST PUSH1 0x0 PUSH1 0x60 DUP3 ADD SWAP1 POP PUSH2 0x37D0 PUSH1 0x0 DUP4 ADD DUP6 PUSH2 0x2AEB JUMP JUMPDEST PUSH2 0x37DD PUSH1 0x20 DUP4 ADD DUP5 PUSH2 0x2AEB JUMP JUMPDEST DUP2 DUP2 SUB PUSH1 0x40 DUP4 ADD MSTORE PUSH2 0x37EE DUP2 PUSH2 0x3276 JUMP JUMPDEST SWAP1 POP SWAP4 SWAP3 POP POP POP JUMP JUMPDEST PUSH1 0x0 DUP2 SLOAD PUSH2 0x3804 DUP2 PUSH2 0x2768 JUMP JUMPDEST PUSH2 0x380E DUP2 DUP7 PUSH2 0x2936 JUMP JUMPDEST SWAP5 POP PUSH1 0x1 DUP3 AND PUSH1 0x0 DUP2 EQ PUSH2 0x3829 JUMPI PUSH1 0x1 DUP2 EQ PUSH2 0x383F JUMPI PUSH2 0x3872 JUMP JUMPDEST PUSH1 0xFF NOT DUP4 AND DUP7 MSTORE DUP2 ISZERO ISZERO PUSH1 0x20 MUL DUP7 ADD SWAP4 POP PUSH2 0x3872 JUMP JUMPDEST PUSH2 0x3848 DUP6 PUSH2 0x2C06 JUMP JUMPDEST PUSH1 0x0 JUMPDEST DUP4 DUP2 LT ISZERO PUSH2 0x386A JUMPI DUP2 SLOAD DUP2 DUP10 ADD MSTORE PUSH1 0x1 DUP3 ADD SWAP2 POP PUSH1 0x20 DUP2 ADD SWAP1 POP PUSH2 0x384B JUMP JUMPDEST DUP1 DUP9 ADD SWAP6 POP POP POP JUMPDEST POP POP POP SWAP3 SWAP2 POP POP JUMP JUMPDEST PUSH32 0x556E692043616665000000000000000000000000000000000000000000000000 PUSH1 0x0 DUP3 ADD MSTORE POP JUMP JUMPDEST PUSH1 0x0 PUSH2 0x38B1 PUSH1 0x8 DUP4 PUSH2 0x2936 JUMP JUMPDEST SWAP2 POP PUSH2 0x38BC DUP3 PUSH2 0x387B JUMP JUMPDEST PUSH1 0x20 DUP3 ADD SWAP1 POP SWAP2 SWAP1 POP JUMP JUMPDEST PUSH32 0x53656C65637465642072657374617572616E742073686F756C6420626520556E PUSH1 0x0 DUP3 ADD MSTORE PUSH32 0x6920436166650000000000000000000000000000000000000000000000000000 PUSH1 0x20 DUP3 ADD MSTORE POP JUMP JUMPDEST PUSH1 0x0 PUSH2 0x3923 PUSH1 0x26 DUP4 PUSH2 0x2936 JUMP JUMPDEST SWAP2 POP PUSH2 0x392E DUP3 PUSH2 0x38C7 JUMP JUMPDEST PUSH1 0x40 DUP3 ADD SWAP1 POP SWAP2 SWAP1 POP JUMP JUMPDEST PUSH1 0x0 PUSH1 0x60 DUP3 ADD SWAP1 POP DUP2 DUP2 SUB PUSH1 0x0 DUP4 ADD MSTORE PUSH2 0x3953 DUP2 DUP5 PUSH2 0x37F7 JUMP JUMPDEST SWAP1 POP DUP2 DUP2 SUB PUSH1 0x20 DUP4 ADD MSTORE PUSH2 0x3966 DUP2 PUSH2 0x38A4 JUMP JUMPDEST SWAP1 POP DUP2 DUP2 SUB PUSH1 0x40 DUP4 ADD MSTORE PUSH2 0x3979 DUP2 PUSH2 0x3916 JUMP JUMPDEST SWAP1 POP SWAP3 SWAP2 POP POP JUMP JUMPDEST PUSH32 0x566F74696E6720726573756C742073686F756C642062652066616C7365000000 PUSH1 0x0 DUP3 ADD MSTORE POP JUMP JUMPDEST PUSH1 0x0 PUSH2 0x39B7 PUSH1 0x1D DUP4 PUSH2 0x2936 JUMP JUMPDEST SWAP2 POP PUSH2 0x39C2 DUP3 PUSH2 0x3981 JUMP JUMPDEST PUSH1 0x20 DUP3 ADD SWAP1 POP SWAP2 SWAP1 POP JUMP JUMPDEST PUSH1 0x0 PUSH1 0x60 DUP3 ADD SWAP1 POP PUSH2 0x39E2 PUSH1 0x0 DUP4 ADD DUP6 PUSH2 0x2AEB JUMP JUMPDEST PUSH2 0x39EF PUSH1 0x20 DUP4 ADD DUP5 PUSH2 0x2AEB JUMP JUMPDEST DUP2 DUP2 SUB PUSH1 0x40 DUP4 ADD MSTORE PUSH2 0x3A00 DUP2 PUSH2 0x39AA JUMP JUMPDEST SWAP1 POP SWAP4 SWAP3 POP POP POP JUMP JUMPDEST PUSH32 0x566F74696E672073686F756C6420626520636C6F736564000000000000000000 PUSH1 0x0 DUP3 ADD MSTORE POP JUMP JUMPDEST PUSH1 0x0 PUSH2 0x3A3F PUSH1 0x17 DUP4 PUSH2 0x2936 JUMP JUMPDEST SWAP2 POP PUSH2 0x3A4A DUP3 PUSH2 0x3A09 JUMP JUMPDEST PUSH1 0x20 DUP3 ADD SWAP1 POP SWAP2 SWAP1 POP JUMP JUMPDEST PUSH1 0x0 PUSH1 0x60 DUP3 ADD SWAP1 POP PUSH2 0x3A6A PUSH1 0x0 DUP4 ADD DUP6 PUSH2 0x2AEB JUMP JUMPDEST PUSH2 0x3A77 PUSH1 0x20 DUP4 ADD DUP5 PUSH2 0x2AEB JUMP JUMPDEST DUP2 DUP2 SUB PUSH1 0x40 DUP4 ADD MSTORE PUSH2 0x3A88 DUP2 PUSH2 0x3A32 JUMP JUMPDEST SWAP1 POP SWAP4 SWAP3 POP POP POP JUMP JUMPDEST PUSH1 0x0 DUP2 SLOAD SWAP1 POP PUSH2 0x3AA0 DUP2 PUSH2 0x2768 JUMP JUMPDEST SWAP1 POP SWAP2 SWAP1 POP JUMP JUMPDEST PUSH1 0x0 DUP2 SWAP1 POP DUP2 PUSH1 0x0 MSTORE PUSH1 0x20 PUSH1 0x0 KECCAK256 SWAP1 POP SWAP2 SWAP1 POP JUMP JUMPDEST DUP2 DUP2 SUB PUSH2 0x3ACA JUMPI POP POP PUSH2 0x3BA2 JUMP JUMPDEST PUSH2 0x3AD3 DUP3 PUSH2 0x3A91 JUMP JUMPDEST PUSH8 0xFFFFFFFFFFFFFFFF DUP2 GT ISZERO PUSH2 0x3AEC JUMPI PUSH2 0x3AEB PUSH2 0x2438 JUMP JUMPDEST JUMPDEST PUSH2 0x3AF6 DUP3 SLOAD PUSH2 0x2768 JUMP JUMPDEST PUSH2 0x3B01 DUP3 DUP3 DUP6 PUSH2 0x2D1B JUMP JUMPDEST PUSH1 0x0 PUSH1 0x1F DUP4 GT PUSH1 0x1 DUP2 EQ PUSH2 0x3B30 JUMPI PUSH1 0x0 DUP5 ISZERO PUSH2 0x3B1E JUMPI DUP3 DUP8 ADD SLOAD SWAP1 POP JUMPDEST PUSH2 0x3B28 DUP6 DUP3 PUSH2 0x2D8C JUMP JUMPDEST DUP7 SSTORE POP PUSH2 0x3B9B JUMP JUMPDEST PUSH1 0x1F NOT DUP5 AND PUSH2 0x3B3E DUP8 PUSH2 0x3AA7 JUMP JUMPDEST SWAP7 POP PUSH2 0x3B49 DUP7 PUSH2 0x2C06 JUMP JUMPDEST PUSH1 0x0 JUMPDEST DUP3 DUP2 LT ISZERO PUSH2 0x3B71 JUMPI DUP5 DUP10 ADD SLOAD DUP3 SSTORE PUSH1 0x1 DUP3 ADD SWAP2 POP PUSH1 0x1 DUP6 ADD SWAP5 POP PUSH1 0x20 DUP2 ADD SWAP1 POP PUSH2 0x3B4C JUMP JUMPDEST DUP7 DUP4 LT ISZERO PUSH2 0x3B8E JUMPI DUP5 DUP10 ADD SLOAD PUSH2 0x3B8A PUSH1 0x1F DUP10 AND DUP3 PUSH2 0x2D6E JUMP JUMPDEST DUP4 SSTORE POP JUMPDEST PUSH1 0x1 PUSH1 0x2 DUP9 MUL ADD DUP9 SSTORE POP POP POP JUMPDEST POP POP POP POP POP POP JUMPDEST JUMP INVALID LOG2 PUSH5 0x6970667358 0x22 SLT KECCAK256 PUSH6 0x309A4FF58A89 GASPRICE 0xC6 SWAP6 0xED 0xE8 SIGNEXTEND STATICCALL 0xBE 0xA5 SIGNEXTEND 0xFB 0x5E EXP 0xFC 0xDF 0x5C NOT 0xAA REVERT 0x5C 0x4D PUSH15 0x62D64864736F6C6343000812003300 "
		},
		"gasEstimates": {
			"creation": {
				"codeDepositCost": "3064400",
				"executionCost": "infinite",
				"totalCost": "infinite"
			},
			"external": {
				"addFriend(address,string)": "infinite",
				"addRestaurant(string)": "infinite",
				"beforeAll()": "infinite",
				"doVote(uint256)": "infinite",
				"friends(address)": "infinite",
				"lunchVenueTest()": "infinite",
				"manager()": "2537",
				"managerTest()": "infinite",
				"numFriends()": "2563",
				"numRestaurants()": "2495",
				"numVotes()": "2562",
				"restaurants(uint256)": "infinite",
				"setFriend()": "infinite",
				"setFriendFailure()": "infinite",
				"setRestaurant()": "infinite",
				"setRestaurantFailure()": "infinite",
				"vote()": "infinite",
				"vote2()": "infinite",
				"vote3()": "infinite",
				"voteAfterClosedFailure()": "infinite",
				"voteFailure()": "infinite",
				"voteOpen()": "2494",
				"voteOpenTest()": "infinite",
				"votedRestaurant()": "infinite",
				"votes(uint256)": "infinite"
			}
		},
		"methodIdentifiers": {
			"addFriend(address,string)": "3b9f708d",
			"addRestaurant(string)": "6d77bd3e",
			"beforeAll()": "7fea0d4b",
			"doVote(uint256)": "124258c6",
			"friends(address)": "1ddabf7a",
			"lunchVenueTest()": "a8267245",
			"manager()": "481c6a75",
			"managerTest()": "947aea86",
			"numFriends()": "47098f36",
			"numRestaurants()": "b798867f",
			"numVotes()": "a3bef4d7",
			"restaurants(uint256)": "ad5461d8",
			"setFriend()": "848b4427",
			"setFriendFailure()": "77440e06",
			"setRestaurant()": "12a4591a",
			"setRestaurantFailure()": "512a6fbb",
			"vote()": "632a9a52",
			"vote2()": "a24a4e88",
			"vote3()": "2955fea3",
			"voteAfterClosedFailure()": "a5627cf0",
			"voteFailure()": "a9a4070c",
			"voteOpen()": "788d3851",
			"voteOpenTest()": "bbb97ded",
			"votedRestaurant()": "c1c16efc",
			"votes(uint256)": "5df81330"
		}
	},
	"abi": [
		{
			"anonymous": false,
			"inputs": [
				{
					"indexed": false,
					"internalType": "address",
					"name": "voter",
					"type": "address"
				},
				{
					"indexed": false,
					"internalType": "string",
					"name": "friendName",
					"type": "string"
				},
				{
					"indexed": false,
					"internalType": "bool",
					"name": "validVote",
					"type": "bool"
				}
			],
			"name": "DebugVote",
			"type": "event"
		},
		{
			"inputs": [
				{
					"internalType": "address",
					"name": "friendAddress",
					"type": "address"
				},
				{
					"internalType": "string",
					"name": "name",
					"type": "string"
				}
			],
			"name": "addFriend",
			"outputs": [
				{
					"internalType": "uint256",
					"name": "",
					"type": "uint256"
				}
			],
			"stateMutability": "nonpayable",
			"type": "function"
		},
		{
			"inputs": [
				{
					"internalType": "string",
					"name": "name",
					"type": "string"
				}
			],
			"name": "addRestaurant",
			"outputs": [
				{
					"internalType": "uint256",
					"name": "",
					"type": "uint256"
				}
			],
			"stateMutability": "nonpayable",
			"type": "function"
		},
		{
			"inputs": [],
			"name": "beforeAll",
			"outputs": [],
			"stateMutability": "nonpayable",
			"type": "function"
		},
		{
			"inputs": [
				{
					"internalType": "uint256",
					"name": "restaurant",
					"type": "uint256"
				}
			],
			"name": "doVote",
			"outputs": [
				{
					"internalType": "bool",
					"name": "validVote",
					"type": "bool"
				}
			],
			"stateMutability": "nonpayable",
			"type": "function"
		},
		{
			"inputs": [
				{
					"internalType": "address",
					"name": "",
					"type": "address"
				}
			],
			"name": "friends",
			"outputs": [
				{
					"internalType": "string",
					"name": "name",
					"type": "string"
				},
				{
					"internalType": "bool",
					"name": "voted",
					"type": "bool"
				}
			],
			"stateMutability": "view",
			"type": "function"
		},
		{
			"inputs": [],
			"name": "lunchVenueTest",
			"outputs": [],
			"stateMutability": "nonpayable",
			"type": "function"
		},
		{
			"inputs": [],
			"name": "manager",
			"outputs": [
				{
					"internalType": "address",
					"name": "",
					"type": "address"
				}
			],
			"stateMutability": "view",
			"type": "function"
		},
		{
			"inputs": [],
			"name": "managerTest",
			"outputs": [],
			"stateMutability": "nonpayable",
			"type": "function"
		},
		{
			"inputs": [],
			"name": "numFriends",
			"outputs": [
				{
					"internalType": "uint256",
					"name": "",
					"type": "uint256"
				}
			],
			"stateMutability": "view",
			"type": "function"
		},
		{
			"inputs": [],
			"name": "numRestaurants",
			"outputs": [
				{
					"internalType": "uint256",
					"name": "",
					"type": "uint256"
				}
			],
			"stateMutability": "view",
			"type": "function"
		},
		{
			"inputs": [],
			"name": "numVotes",
			"outputs": [
				{
					"internalType": "uint256",
					"name": "",
					"type": "uint256"
				}
			],
			"stateMutability": "view",
			"type": "function"
		},
		{
			"inputs": [
				{
					"internalType": "uint256",
					"name": "",
					"type": "uint256"
				}
			],
			"name": "restaurants",
			"outputs": [
				{
					"internalType": "string",
					"name": "",
					"type": "string"
				}
			],
			"stateMutability": "view",
			"type": "function"
		},
		{
			"inputs": [],
			"name": "setFriend",
			"outputs": [],
			"stateMutability": "nonpayable",
			"type": "function"
		},
		{
			"inputs": [],
			"name": "setFriendFailure",
			"outputs": [],
			"stateMutability": "nonpayable",
			"type": "function"
		},
		{
			"inputs": [],
			"name": "setRestaurant",
			"outputs": [],
			"stateMutability": "nonpayable",
			"type": "function"
		},
		{
			"inputs": [],
			"name": "setRestaurantFailure",
			"outputs": [],
			"stateMutability": "nonpayable",
			"type": "function"
		},
		{
			"inputs": [],
			"name": "vote",
			"outputs": [],
			"stateMutability": "nonpayable",
			"type": "function"
		},
		{
			"inputs": [],
			"name": "vote2",
			"outputs": [],
			"stateMutability": "nonpayable",
			"type": "function"
		},
		{
			"inputs": [],
			"name": "vote3",
			"outputs": [],
			"stateMutability": "nonpayable",
			"type": "function"
		},
		{
			"inputs": [],
			"name": "voteAfterClosedFailure",
			"outputs": [],
			"stateMutability": "nonpayable",
			"type": "function"
		},
		{
			"inputs": [],
			"name": "voteFailure",
			"outputs": [],
			"stateMutability": "nonpayable",
			"type": "function"
		},
		{
			"inputs": [],
			"name": "voteOpen",
			"outputs": [
				{
					"internalType": "bool",
					"name": "",
					"type": "bool"
				}
			],
			"stateMutability": "view",
			"type": "function"
		},
		{
			"inputs": [],
			"name": "voteOpenTest",
			"outputs": [],
			"stateMutability": "nonpayable",
			"type": "function"
		},
		{
			"inputs": [],
			"name": "votedRestaurant",
			"outputs": [
				{
					"internalType": "string",
					"name": "",
					"type": "string"
				}
			],
			"stateMutability": "view",
			"type": "function"
		},
		{
			"inputs": [
				{
					"internalType": "uint256",
					"name": "",
					"type": "uint256"
				}
			],
			"name": "votes",
			"outputs": [
				{
					"internalType": "address",
					"name": "voterAddress",
					"type": "address"
				},
				{
					"internalType": "uint256",
					"name": "restaurant",
					"type": "uint256"
				}
			],
			"stateMutability": "view",
			"type": "function"
		}
	]
}