{
	"data": {
		"bytecode": {
			"linkReferences": {
				"remix_accounts.sol": {
					"TestsAccounts": [
						{
							"length": 20,
							"start": 6584
						},
						{
							"length": 20,
							"start": 6747
						},
						{
							"length": 20,
							"start": 6910
						},
						{
							"length": 20,
							"start": 7073
						},
						{
							"length": 20,
							"start": 7235
						}
					]
				},
				"remix_tests.sol": {
					"Assert": [
						{
							"length": 20,
							"start": 1735
						},
						{
							"length": 20,
							"start": 1927
						},
						{
							"length": 20,
							"start": 2147
						},
						{
							"length": 20,
							"start": 2856
						},
						{
							"length": 20,
							"start": 3091
						},
						{
							"length": 20,
							"start": 3411
						},
						{
							"length": 20,
							"start": 3806
						},
						{
							"length": 20,
							"start": 4140
						},
						{
							"length": 20,
							"start": 4332
						},
						{
							"length": 20,
							"start": 5517
						},
						{
							"length": 20,
							"start": 5673
						},
						{
							"length": 20,
							"start": 5819
						},
						{
							"length": 20,
							"start": 5868
						},
						{
							"length": 20,
							"start": 6240
						},
						{
							"length": 20,
							"start": 7411
						},
						{
							"length": 20,
							"start": 7649
						},
						{
							"length": 20,
							"start": 7891
						},
						{
							"length": 20,
							"start": 8129
						},
						{
							"length": 20,
							"start": 8364
						},
						{
							"length": 20,
							"start": 8400
						},
						{
							"length": 20,
							"start": 8598
						},
						{
							"length": 20,
							"start": 8778
						},
						{
							"length": 20,
							"start": 8827
						},
						{
							"length": 20,
							"start": 8885
						},
						{
							"length": 20,
							"start": 9090
						},
						{
							"length": 20,
							"start": 9212
						},
						{
							"length": 20,
							"start": 9489
						},
						{
							"length": 20,
							"start": 9913
						},
						{
							"length": 20,
							"start": 10043
						},
						{
							"length": 20,
							"start": 10092
						},
						{
							"length": 20,
							"start": 10395
						},
						{
							"length": 20,
							"start": 10642
						},
						{
							"length": 20,
							"start": 10768
						}
					]
				}
			},
			"object": "600060028190556003819055600481905560a0604081905260808290526200002b916006919062000067565b506009805461ffff19169055600b805460ff191690553480156200004e57600080fd5b50600580546001600160a01b031916331790556200014a565b82805462000075906200010d565b90600052602060002090601f016020900481019282620000995760008555620000e4565b82601f10620000b457805160ff1916838001178555620000e4565b82800160010185558215620000e4579182015b82811115620000e4578251825591602001919060010190620000c7565b50620000f2929150620000f6565b5090565b5b80821115620000f25760008155600101620000f7565b600181811c908216806200012257607f821691505b602082108114156200014457634e487b7160e01b600052602260045260246000fd5b50919050565b6135ae806200015a6000396000f3fe608060405234801561001057600080fd5b506004361061023d5760003560e01c8063788d38511161013b578063ad5461d8116100b8578063c3403ddf1161007c578063c3403ddf14610483578063c9648f6e1461048b578063cb43284e14610493578063d012f7ea1461049b578063fc0e74d1146104a357600080fd5b8063ad5461d81461043d578063b798867f1461045d578063bbb97ded14610466578063bf86d6901461046e578063c1c16efc1461047b57600080fd5b8063a24a4e88116100ff578063a24a4e8814610414578063a3bef4d71461041c578063a5627cf014610425578063a82672451461042d578063a9a4070c1461043557600080fd5b8063788d3851146103dc5780637fea0d4b146103e9578063848b4427146103f15780638f43f134146103f9578063947aea861461040c57600080fd5b80633b9f708d116101c95780635df813301161018d5780635df813301461035c578063632a9a52146102d75780636d77bd3e146103ae57806377440e06146103c1578063781a38a3146103c957600080fd5b80633b9f708d146102fa5780633d2f5bda1461030d57806347098f3614610320578063481c6a7514610329578063512a6fbb1461035457600080fd5b806312a4591a1161021057806312a4591a146102ae5780631ddabf7a146102b65780632955fea3146102d75780632b5a9467146102df5780632d8c6f42146102e757600080fd5b8063055ad42e14610242578063083c63231461026a5780630b0f5dd714610281578063124258c61461028b575b600080fd5b60095461025490610100900460ff1681565b6040516102619190612dea565b60405180910390f35b610273600a5481565b604051908152602001610261565b6102896104ab565b005b61029e610299366004612caa565b61072d565b6040519015158152602001610261565b6102896109cc565b6102c96102c4366004612bc9565b610b50565b604051610261929190612e25565b610289610bf7565b610289610c72565b6102736102f5366004612c03565b611005565b610273610308366004612c03565b61116d565b61028961031b366004612caa565b61120b565b61027360035481565b60055461033c906001600160a01b031681565b6040516001600160a01b039091168152602001610261565b610289611374565b61038f61036a366004612caa565b600760205260009081526040902080546001909101546001600160a01b039091169082565b604080516001600160a01b039093168352602083019190915201610261565b6102736103bc366004612c75565b6115bd565b610289611659565b6102736103d7366004612c75565b611731565b60095461029e9060ff1681565b610289611848565b610289611b78565b61029e610407366004612caa565b611ee8565b610289611ef9565b610289611f74565b61027360045481565b610289611f98565b61028961214c565b610289612184565b61045061044b366004612caa565b6122c4565b6040516102619190612e12565b61027360025481565b61028961235e565b600b5461029e9060ff1681565b6104506123d9565b6102896123e6565b61028961249d565b610289612603565b610289612763565b6102896128d8565b60405163781a38a360e01b815260206004820152600e60248201526d13995dc814995cdd185d5c985b9d60921b6044820152309063781a38a390606401602060405180830381600087803b15801561050257600080fd5b505af1925050508015610532575060408051601f3d908101601f1916820190925261052f91810190612cc3565b60015b61069e5761053e61349d565b806308c379a014156105e957506105536134b9565b8061055e57506105eb565b604051637461658b60e11b815273__$acbfb1c35000d78352310b16a054a6b106$__9063e8c2cb1690610595908490600401612f68565b60206040518083038186803b1580156105ad57600080fd5b505af41580156105c1573d6000803e3d6000fd5b505050506040513d601f19601f820116820180604052508101906105e59190612c53565b5050565b505b604080516339df137f60e01b815260006004820152602481019190915260136044820152724661696c656420756e65787065637465646c7960681b606482015273__$acbfb1c35000d78352310b16a054a6b106$__906339df137f906084015b60206040518083038186803b15801561066357600080fd5b505af4158015610677573d6000803e3d6000fd5b505050506040513d601f19601f8201168201806040525081019061069b9190612c53565b50565b604080516339df137f60e01b8152600060048201526024810191909152603660448201527f53686f756c64206e6f7420616c6c6f7720616464696e672072657374617572616064820152756e7420647572696e6720766f74696e6720706861736560501b608482015273__$acbfb1c35000d78352310b16a054a6b106$__906339df137f9060a401610595565b565b600b5460009060ff161561075c5760405162461bcd60e51b815260040161075390613264565b60405180910390fd5b600180600954610100900460ff16600281111561077b5761077b613471565b146107985760405162461bcd60e51b8152600401610753906132a6565b60095460ff1615156001146107fb5760405162461bcd60e51b815260206004820152602360248201527f43616e20766f7465206f6e6c79207768696c6520766f74696e67206973206f7060448201526232b71760e91b6064820152608401610753565b60008381526020819052604090208054610814906133de565b151590506108645760405162461bcd60e51b815260206004820152601a60248201527f52657374617572616e7420646f6573206e6f742065786973742e0000000000006044820152606401610753565b600a5443111561087f5761087661292f565b600091506109c6565b3360009081526001602052604090208054610899906133de565b151590506108b95760405162461bcd60e51b8152600401610753906132f5565b336000908152600160208190526040909120015460ff161561091d5760405162461bcd60e51b815260206004820152601760248201527f596f75206861766520616c726561647920766f7465642e0000000000000000006044820152606401610753565b3360008181526001602081815260408084208301805460ff191684179055805180820190915293845283018690526004805491955060079291829061096190613440565b91829055508152602080820192909252604001600020825181546001600160a01b0319166001600160a01b039091161781559101516001909101556003546109ab90600290613390565b6109b6906001613378565b600454106109c6576109c661292f565b50919050565b73__$acbfb1c35000d78352310b16a054a6b106$__63abcd7960610a156040518060400160405280600e81526020016d436f75727479617264204361666560901b8152506115bd565b6040516001600160e01b031960e084901b16815260048101919091526001602482015260606044820152601460648201527353686f756c6420626520657175616c20746f203160601b608482015260a40160206040518083038186803b158015610a7e57600080fd5b505af4158015610a92573d6000803e3d6000fd5b505050506040513d601f19601f82011682018060405250810190610ab69190612c53565b5073__$acbfb1c35000d78352310b16a054a6b106$__63abcd7960610afa60405180604001604052806008815260200167556e69204361666560c01b8152506115bd565b6040516001600160e01b031960e084901b16815260048101919091526002602482015260606044820152601460648201527329b437bab6321031329032b8bab0b6103a37901960611b608482015260a40161064b565b600160205260009081526040902080548190610b6b906133de565b80601f0160208091040260200160405190810160405280929190818152602001828054610b97906133de565b8015610be45780601f10610bb957610100808354040283529160200191610be4565b820191906000526020600020905b815481529060010190602001808311610bc757829003601f168201915b5050506001909301549192505060ff1682565b73__$acbfb1c35000d78352310b16a054a6b106$__6339df137f610c1b600261072d565b604080516001600160e01b031960e085901b16815291151560048301526024820152601c60448201527f566f74696e6720726573756c742073686f756c64206265207472756500000000606482015260840161064b565b336000908152600160205260408082208151808301909252805482908290610c99906133de565b80601f0160208091040260200160405190810160405280929190818152602001828054610cc5906133de565b8015610d125780601f10610ce757610100808354040283529160200191610d12565b820191906000526020600020905b815481529060010190602001808311610cf557829003601f168201915b505050918352505060019182015460ff16151560209182015282015160405163767392b360e01b81529015156004820152602481019190915260606044820152601d60648201527f426f622073686f756c64206861766520616c726561647920766f746564000000608482015290915073__$acbfb1c35000d78352310b16a054a6b106$__9063767392b39060a40160206040518083038186803b158015610db957600080fd5b505af4158015610dcd573d6000803e3d6000fd5b505050506040513d601f19601f82011682018060405250810190610df19190612c53565b50600480546040516323d0fc4d60e21b8152600292810192909252906000903090638f43f13490602401602060405180830381600087803b158015610e3557600080fd5b505af1925050508015610e65575060408051601f3d908101601f19168201909252610e6291810190612c53565b60015b610e6e57610e71565b90505b60405163767392b360e01b8152811515600482015260006024808301919091526060604483015260648201527f4475706c696361746520766f74652073686f756c64206e6f7420626520616c6c6084820152631bddd95960e21b60a482015273__$acbfb1c35000d78352310b16a054a6b106$__9063767392b39060c40160206040518083038186803b158015610f0757600080fd5b505af4158015610f1b573d6000803e3d6000fd5b505050506040513d601f19601f82011682018060405250810190610f3f9190612c53565b506004805460405163055e6bcb60e51b8152918201526024810183905260606044820152601e60648201527f566f746520636f756e742073686f756c64206e6f7420696e6372656173650000608482015273__$acbfb1c35000d78352310b16a054a6b106$__9063abcd79609060a40160206040518083038186803b158015610fc757600080fd5b505af4158015610fdb573d6000803e3d6000fd5b505050506040513d601f19601f82011682018060405250810190610fff9190612c53565b50505050565b600b5460009060ff161561102b5760405162461bcd60e51b815260040161075390613264565b600080600954610100900460ff16600281111561104a5761104a613471565b146110675760405162461bcd60e51b8152600401610753906132a6565b6001600160a01b0384166000908152600160205260409020805461108a906133de565b1590506110a95760405162461bcd60e51b81526004016107539061322e565b60008351116110f25760405162461bcd60e51b81526020600482015260156024820152742730b6b29031b0b73737ba1031329032b6b83a3c9760591b6044820152606401610753565b604080518082018252600060208083018290528683526001600160a01b03881682526001815292902081518051929384936111309284920190612a41565b50602091909101516001909101805460ff19169115159190911790556003805490600061115c83613440565b909155505060035495945050505050565b600b5460009060ff16156111935760405162461bcd60e51b815260040161075390613264565b6005546001600160a01b031633146111bd5760405162461bcd60e51b815260040161075390613294565b600080600954610100900460ff1660028111156111dc576111dc613471565b146111f95760405162461bcd60e51b8152600401610753906132a6565b6112038484611005565b949350505050565b600b5460ff161561122e5760405162461bcd60e51b815260040161075390613264565b6005546001600160a01b031633146112585760405162461bcd60e51b815260040161075390613294565b600080600954610100900460ff16600281111561127757611277613471565b146112945760405162461bcd60e51b8152600401610753906132a6565b6001600254116112f65760405162461bcd60e51b815260206004820152602760248201527f4174206c656173742074776f2072657374617572616e7473206d7573742062656044820152661030b23232b21760c91b6064820152608401610753565b6001600354116113545760405162461bcd60e51b815260206004820152602360248201527f4174206c656173742074776f20667269656e6473206d7573742062652061646460448201526232b21760e91b6064820152608401610753565b61135e8243613378565b600a5550506009805461ffff1916610101179055565b6040516336bbde9f60e11b815260206004820152600b60248201526a41746f6d6963204361666560a81b60448201523090636d77bd3e90606401602060405180830381600087803b1580156113c857600080fd5b505af19250505080156113f8575060408051601f3d908101601f191682019092526113f591810190612cc3565b60015b6115835761140461349d565b806308c379a0141561145b57506114196134b9565b8061142457506114f1565b604051637461658b60e11b815273__$acbfb1c35000d78352310b16a054a6b106$__9063e8c2cb1690610595908490600401612ee2565b634e487b7114156114f15761146e613543565b9061147957506114f1565b604080516339df137f60e01b8152600060048201526024810191909152602160448201527f4661696c656420756e65787065637465642077697468206572726f7220636f646064820152606560f81b608482015273__$acbfb1c35000d78352310b16a054a6b106$__906339df137f9060a401610595565b3d80801561151b576040519150601f19603f3d011682016040523d82523d6000602084013e611520565b606091505b50604080516339df137f60e01b8152600060048201526024810191909152601160448201527011985a5b1959081d5b995e1c1958dd1959607a1b606482015273__$acbfb1c35000d78352310b16a054a6b106$__906339df137f90608401610595565b604051632b080af160e11b815273__$acbfb1c35000d78352310b16a054a6b106$__9063561015e29061059590849060039060040161332f565b600b5460009060ff16156115e35760405162461bcd60e51b815260040161075390613264565b6005546001600160a01b0316331461160d5760405162461bcd60e51b815260040161075390613294565b600080600954610100900460ff16600281111561162c5761162c613471565b146116495760405162461bcd60e51b8152600401610753906132a6565b61165283611731565b9392505050565b60115460408051633b9f708d60e01b81526001600160a01b0390921660048301526024820152600760448201526644616e69656c7360c81b60648201523090633b9f708d90608401602060405180830381600087803b1580156116bb57600080fd5b505af19250505080156116eb575060408051601f3d908101601f191682019092526116e891810190612cc3565b60015b6116f75761140461349d565b604051632b080af160e11b815273__$acbfb1c35000d78352310b16a054a6b106$__9063561015e29061059590849060059060040161332f565b600b5460009060ff16156117575760405162461bcd60e51b815260040161075390613264565b600080600954610100900460ff16600281111561177657611776613471565b146117935760405162461bcd60e51b8152600401610753906132a6565b6000836040516020016117a69190612d81565b60408051601f1981840301815291815281516020928301206000818152600c90935291205490915060ff16156117ee5760405162461bcd60e51b8152600401610753906132b8565b600280549060006117fe83613440565b9091555050600254600090815260208181526040909120855161182392870190612a41565b506000908152600c60205260409020805460ff19166001179055600254915050919050565b60405163ce88b14560e01b81526000600482015273__$1068a87eb54ed04c4e435de35b2ebf536f$__9063ce88b1459060240160206040518083038186803b15801561189357600080fd5b505af41580156118a7573d6000803e3d6000fd5b505050506040513d601f19601f820116820180604052508101906118cb9190612be6565b600d80546001600160a01b0319166001600160a01b039290921691909117905560405163ce88b14560e01b81526001600482015273__$1068a87eb54ed04c4e435de35b2ebf536f$__9063ce88b1459060240160206040518083038186803b15801561193657600080fd5b505af415801561194a573d6000803e3d6000fd5b505050506040513d601f19601f8201168201806040525081019061196e9190612be6565b600e80546001600160a01b0319166001600160a01b039290921691909117905560405163ce88b14560e01b81526002600482015273__$1068a87eb54ed04c4e435de35b2ebf536f$__9063ce88b1459060240160206040518083038186803b1580156119d957600080fd5b505af41580156119ed573d6000803e3d6000fd5b505050506040513d601f19601f82011682018060405250810190611a119190612be6565b600f80546001600160a01b0319166001600160a01b039290921691909117905560405163ce88b14560e01b81526003600482015273__$1068a87eb54ed04c4e435de35b2ebf536f$__9063ce88b1459060240160206040518083038186803b158015611a7c57600080fd5b505af4158015611a90573d6000803e3d6000fd5b505050506040513d601f19601f82011682018060405250810190611ab49190612be6565b601080546001600160a01b0319166001600160a01b039290921691909117905560405163ce88b14560e01b815260048082015273__$1068a87eb54ed04c4e435de35b2ebf536f$__9063ce88b1459060240160206040518083038186803b158015611b1e57600080fd5b505af4158015611b32573d6000803e3d6000fd5b505050506040513d601f19601f82011682018060405250810190611b569190612be6565b601180546001600160a01b0319166001600160a01b0392909216919091179055565b600d54604080518082019091526005815264416c69636560d81b602082015273__$acbfb1c35000d78352310b16a054a6b106$__9163abcd796091611bc6916001600160a01b03169061116d565b6040516001600160e01b031960e084901b16815260048101919091526001602482015260606044820152601460648201527353686f756c6420626520657175616c20746f203160601b608482015260a40160206040518083038186803b158015611c2f57600080fd5b505af4158015611c43573d6000803e3d6000fd5b505050506040513d601f19601f82011682018060405250810190611c679190612c53565b50600e546040805180820190915260038152622137b160e91b602082015273__$acbfb1c35000d78352310b16a054a6b106$__9163abcd796091611cb4916001600160a01b03169061116d565b6040516001600160e01b031960e084901b16815260048101919091526002602482015260606044820152601460648201527329b437bab6321031329032b8bab0b6103a37901960611b608482015260a40160206040518083038186803b158015611d1d57600080fd5b505af4158015611d31573d6000803e3d6000fd5b505050506040513d601f19601f82011682018060405250810190611d559190612c53565b50600f54604080518082019091526007815266436861726c696560c81b602082015273__$acbfb1c35000d78352310b16a054a6b106$__9163abcd796091611da6916001600160a01b03169061116d565b6040516001600160e01b031960e084901b16815260048101919091526003602482015260606044820152601460648201527353686f756c6420626520657175616c20746f203360601b608482015260a40160206040518083038186803b158015611e0f57600080fd5b505af4158015611e23573d6000803e3d6000fd5b505050506040513d601f19601f82011682018060405250810190611e479190612c53565b5060105460408051808201909152600381526245766560e81b602082015273__$acbfb1c35000d78352310b16a054a6b106$__9163abcd796091611e94916001600160a01b03169061116d565b60046040518363ffffffff1660e01b815260040161064b92919091825260208201526060604082018190526014908201527314da1bdd5b1908189948195c5d585b081d1bc80d60621b608082015260a00190565b6000611ef38261072d565b92915050565b600554600d54604051635fdd2eeb60e11b81526001600160a01b0392831660048201529116602482015260606044820152601660648201527504d616e616765722073686f756c6420626520616363360541b608482015273__$acbfb1c35000d78352310b16a054a6b106$__9063bfba5dd69060a40161064b565b73__$acbfb1c35000d78352310b16a054a6b106$__6339df137f610c1b600161072d565b6040516309212c6360e11b815260016004820152309063124258c690602401602060405180830381600087803b158015611fd157600080fd5b505af1925050508015612001575060408051601f3d908101601f19168201909252611ffe91810190612c53565b60015b6121125761200d61349d565b806308c379a0141561206457506120226134b9565b8061202d575061207e565b604051637461658b60e11b815273__$acbfb1c35000d78352310b16a054a6b106$__9063e8c2cb1690610595908490600401612f44565b634e487b71141561207e57612077613543565b9061147957505b3d8080156120a8576040519150601f19603f3d011682016040523d82523d6000602084013e6120ad565b606091505b50604080516339df137f60e01b815260006004820152602481019190915260136044820152724661696c656420756e65787065637465646c7960681b606482015273__$acbfb1c35000d78352310b16a054a6b106$__906339df137f90608401610595565b60405163767392b360e01b815273__$acbfb1c35000d78352310b16a054a6b106$__9063767392b390610595908490600190600401612d9d565b604051637461658b60e11b815273__$acbfb1c35000d78352310b16a054a6b106$__9063e8c2cb169061064b90600690600401613120565b6040516309212c6360e11b815260016004820152309063124258c690602401602060405180830381600087803b1580156121bd57600080fd5b505af19250505080156121ed575060408051601f3d908101601f191682019092526121ea91810190612c53565b60015b612250576121f961349d565b806308c379a014156105e9575061220e6134b9565b8061221957506105eb565b604051637461658b60e11b815273__$acbfb1c35000d78352310b16a054a6b106$__9063e8c2cb1690610595908490600401613082565b60405163767392b360e01b815281151560048201526000602482015260606044820152601d60648201527f566f74696e6720726573756c742073686f756c642062652066616c7365000000608482015273__$acbfb1c35000d78352310b16a054a6b106$__9063767392b39060a401610595565b600060208190529081526040902080546122dd906133de565b80601f0160208091040260200160405190810160405280929190818152602001828054612309906133de565b80156123565780601f1061232b57610100808354040283529160200191612356565b820191906000526020600020905b81548152906001019060200180831161233957829003601f168201915b505050505081565b60095460405163767392b360e01b815260ff909116151560048201526000602482015260606044820152601760648201527f566f74696e672073686f756c6420626520636c6f736564000000000000000000608482015273__$acbfb1c35000d78352310b16a054a6b106$__9063767392b39060a40161064b565b600680546122dd906133de565b600b5460ff16156124095760405162461bcd60e51b815260040161075390613264565b6005546001600160a01b031633146124335760405162461bcd60e51b815260040161075390613294565b6001600954610100900460ff16600281111561245157612451613471565b146124955760405162461bcd60e51b81526020600482015260146024820152732737ba1034b7103b37ba34b73390383430b9b29760611b6044820152606401610753565b61072b61292f565b60405163781a38a360e01b815260206004820152600e60248201526d436f75727479617264204361666560901b6044820152309063781a38a390606401602060405180830381600087803b1580156124f457600080fd5b505af1925050508015612524575060408051601f3d908101601f1916820190925261252191810190612cc3565b60015b6125875761253061349d565b806308c379a014156105e957506125456134b9565b8061255057506105eb565b604051637461658b60e11b815273__$acbfb1c35000d78352310b16a054a6b106$__9063e8c2cb1690610595908490600401612fde565b604080516339df137f60e01b8152600060048201526024810191909152602560448201527f53686f756c64206e6f7420616c6c6f77206475706c69636174652072657374616064820152641d5c985b9d60da1b608482015273__$acbfb1c35000d78352310b16a054a6b106$__906339df137f9060a401610595565b61260d606461120b565b60095473__$acbfb1c35000d78352310b16a054a6b106$__9063abcd796090610100900460ff16600281111561264557612645613471565b60016040516001600160e01b031960e085901b1681526004810192909252602482015260606044820152601960648201527f53686f756c6420626520696e20766f74696e6720706861736500000000000000608482015260a40160206040518083038186803b1580156126b757600080fd5b505af41580156126cb573d6000803e3d6000fd5b505050506040513d601f19601f820116820180604052508101906126ef9190612c53565b5060095460405163767392b360e01b815260ff90911615156004820152600160248201526060604482015260156064820152742b37ba34b7339039b437bab6321031329037b832b760591b608482015273__$acbfb1c35000d78352310b16a054a6b106$__9063767392b39060a40161064b565b600d8054604080516316c637a160e11b81526001600160a01b039092166004830152602482015260448101919091526c416e6f7468657220416c69636560981b60648201523090632d8c6f4290608401602060405180830381600087803b1580156127cd57600080fd5b505af19250505080156127fd575060408051601f3d908101601f191682019092526127fa91810190612cc3565b60015b6128605761280961349d565b806308c379a014156105e9575061281e6134b9565b8061282957506105eb565b604051637461658b60e11b815273__$acbfb1c35000d78352310b16a054a6b106$__9063e8c2cb1690610595908490600401612e49565b604080516339df137f60e01b8152600060048201526024810191909152602160448201527f53686f756c64206e6f7420616c6c6f77206475706c696361746520667269656e6064820152601960fa1b608482015273__$acbfb1c35000d78352310b16a054a6b106$__906339df137f9060a401610595565b6005546001600160a01b031633146129025760405162461bcd60e51b815260040161075390613294565b600b805460ff1990811660011790915560098054918216815560029161ffff1916610100835b0217905550565b6004541561293f5761293f61295c565b6009805460ff19811682556002919061ffff191661010083612928565b60008060015b6004548111612a135760008181526007602090815260408083206001908101548452600890925290912054156129be57600082815260076020908152604080832060010154835260089091529020546129bb9082613378565b90505b60008281526007602090815260408083206001015483526008909152902081905583811115612a00576000828152600760205260409020600101549093509150825b5080612a0b81613440565b915050612962565b506000818152602081905260409020805460069190612a31906133de565b612a3c929190612ac5565b505050565b828054612a4d906133de565b90600052602060002090601f016020900481019282612a6f5760008555612ab5565b82601f10612a8857805160ff1916838001178555612ab5565b82800160010185558215612ab5579182015b82811115612ab5578251825591602001919060010190612a9a565b50612ac1929150612b40565b5090565b828054612ad1906133de565b90600052602060002090601f016020900481019282612af35760008555612ab5565b82601f10612b045780548555612ab5565b82800160010185558215612ab557600052602060002091601f016020900482015b82811115612ab5578254825591600101919060010190612b25565b5b80821115612ac15760008155600101612b41565b600082601f830112612b6657600080fd5b813567ffffffffffffffff811115612b8057612b80613487565b604051612b97601f8301601f191660200182613413565b818152846020838601011115612bac57600080fd5b816020850160208301376000918101602001919091529392505050565b600060208284031215612bdb57600080fd5b813561165281613563565b600060208284031215612bf857600080fd5b815161165281613563565b60008060408385031215612c1657600080fd5b8235612c2181613563565b9150602083013567ffffffffffffffff811115612c3d57600080fd5b612c4985828601612b55565b9150509250929050565b600060208284031215612c6557600080fd5b8151801515811461165257600080fd5b600060208284031215612c8757600080fd5b813567ffffffffffffffff811115612c9e57600080fd5b61120384828501612b55565b600060208284031215612cbc57600080fd5b5035919050565b600060208284031215612cd557600080fd5b5051919050565b60008151808452612cf48160208601602086016133b2565b601f01601f19169290920160200192915050565b602381527f43616e206f6e6c7920626520657865637574656420627920746865206d616e6160208201526233b2b960e91b604082015260600190565b602481527f416374696f6e206e6f7420616c6c6f77656420696e2063757272656e7420706860208201526330b9b29760e11b604082015260600190565b60008251612d938184602087016133b2565b9190910192915050565b8215158152811515602082015260606040820152600061120360608301601d81527f4d6574686f6420657865637574696f6e20646964206e6f74206661696c000000602082015260400190565b6020810160038310612e0c57634e487b7160e01b600052602160045260246000fd5b91905290565b6020815260006116526020830184612cdc565b604081526000612e386040830185612cdc565b905082151560208301529392505050565b606081526000612e5c6060830184612cdc565b8281036020840152612e91816016815275233934b2b7321030b63932b0b23c9032bc34b9ba399760511b602082015260400190565b838103604094850152602981527f53686f756c64206661696c2077697468206475706c696361746520667269656e60208201526864206d65737361676560b81b938101939093525050606001919050565b606081526000612ef56060830184612cdc565b8281036020840152612f0681612d08565b9050828103604084015261120381601d81527f4661696c6564207769746820756e657870656374656420726561736f6e000000602082015260400190565b606081526000612f576060830184612cdc565b8281036020840152612f0681612d44565b606081526000612f7b6060830184612cdc565b8281036020840152612f8c81612d44565b838103604094850152602a81527f53686f756c64206661696c2077697468207068617365207265737472696374696020820152696f6e206d65737361676560b01b938101939093525050606001919050565b606081526000612ff16060830184612cdc565b828103602084015261302d81601a81527f52657374617572616e7420616c7265616479206578697374732e000000000000602082015260400190565b838103604094850152602d81527f53686f756c64206661696c2077697468206475706c696361746520726573746160208201526c7572616e74206d65737361676560981b938101939093525050606001919050565b6060815260006130956060830184612cdc565b82810360208401526130d18160208082527f596f7520617265206e6f742061207265676973746572656420667269656e642e9082015260400190565b838103604094850152602781527f53686f756c64206661696c2077697468206e6f742072656769737465726564206020820152666d65737361676560c81b938101939093525050606001919050565b60608152600080835481600182811c91508083168061314057607f831692505b602080841082141561316057634e487b7160e01b86526022600452602486fd5b606088018490526080880182801561317f5760018114613190576131bb565b60ff198716825282820197506131bb565b60008b81526020902060005b878110156131b55781548482015290860190840161319c565b83019850505b505087860390880152505060088352505067556e69204361666560c01b6020820152604081019050828103604084015261120381602681527f53656c65637465642072657374617572616e742073686f756c6420626520556e60208201526569204361666560d01b604082015260600190565b602081526000611ef3602083016016815275233934b2b7321030b63932b0b23c9032bc34b9ba399760511b602082015260400190565b60208082526016908201527521b7b73a3930b1ba1034b99039b43aba103237bbb71760511b604082015260600190565b602081526000611ef360208301612d08565b602081526000611ef360208301612d44565b602081526000611ef360208301601a81527f52657374617572616e7420616c7265616479206578697374732e000000000000602082015260400190565b6020808252818101527f596f7520617265206e6f742061207265676973746572656420667269656e642e6040820152600060608201611ef3565b82815281602082015260606040820152600061120360608301601d81527f4d6574686f6420657865637574696f6e20646964206e6f74206661696c000000602082015260400190565b6000821982111561338b5761338b61345b565b500190565b6000826133ad57634e487b7160e01b600052601260045260246000fd5b500490565b60005b838110156133cd5781810151838201526020016133b5565b83811115610fff5750506000910152565b600181811c908216806133f257607f821691505b602082108114156109c657634e487b7160e01b600052602260045260246000fd5b601f8201601f1916810167ffffffffffffffff8111828210171561343957613439613487565b6040525050565b60006000198214156134545761345461345b565b5060010190565b634e487b7160e01b600052601160045260246000fd5b634e487b7160e01b600052602160045260246000fd5b634e487b7160e01b600052604160045260246000fd5b600060033d11156134b65760046000803e5060005160e01c5b90565b600060443d10156134c75790565b6040516003193d81016004833e81513d67ffffffffffffffff81602484011181841117156134f757505050505090565b828501915081518181111561350f5750505050505090565b843d87010160208285010111156135295750505050505090565b61353860208286010187613413565b509095945050505050565b60008060233d111561355f576020600460003e50506000516001905b9091565b6001600160a01b038116811461069b57600080fdfea26469706673582212206bf2d7f9a312a6c9b25c7038e73dd69f2f3db69abecd8371df4d6c40844495e764736f6c63430008050033",
			"opcodes": "PUSH1 0x0 PUSH1 0x2 DUP2 SWAP1 SSTORE PUSH1 0x3 DUP2 SWAP1 SSTORE PUSH1 0x4 DUP2 SWAP1 SSTORE PUSH1 0xA0 PUSH1 0x40 DUP2 SWAP1 MSTORE PUSH1 0x80 DUP3 SWAP1 MSTORE PUSH3 0x2B SWAP2 PUSH1 0x6 SWAP2 SWAP1 PUSH3 0x67 JUMP JUMPDEST POP PUSH1 0x9 DUP1 SLOAD PUSH2 0xFFFF NOT AND SWAP1 SSTORE PUSH1 0xB DUP1 SLOAD PUSH1 0xFF NOT AND SWAP1 SSTORE CALLVALUE DUP1 ISZERO PUSH3 0x4E JUMPI PUSH1 0x0 DUP1 REVERT JUMPDEST POP PUSH1 0x5 DUP1 SLOAD PUSH1 0x1 PUSH1 0x1 PUSH1 0xA0 SHL SUB NOT AND CALLER OR SWAP1 SSTORE PUSH3 0x14A JUMP JUMPDEST DUP3 DUP1 SLOAD PUSH3 0x75 SWAP1 PUSH3 0x10D JUMP JUMPDEST SWAP1 PUSH1 0x0 MSTORE PUSH1 0x20 PUSH1 0x0 KECCAK256 SWAP1 PUSH1 0x1F ADD PUSH1 0x20 SWAP1 DIV DUP2 ADD SWAP3 DUP3 PUSH3 0x99 JUMPI PUSH1 0x0 DUP6 SSTORE PUSH3 0xE4 JUMP JUMPDEST DUP3 PUSH1 0x1F LT PUSH3 0xB4 JUMPI DUP1 MLOAD PUSH1 0xFF NOT AND DUP4 DUP1 ADD OR DUP6 SSTORE PUSH3 0xE4 JUMP JUMPDEST DUP3 DUP1 ADD PUSH1 0x1 ADD DUP6 SSTORE DUP3 ISZERO PUSH3 0xE4 JUMPI SWAP2 DUP3 ADD JUMPDEST DUP3 DUP2 GT ISZERO PUSH3 0xE4 JUMPI DUP3 MLOAD DUP3 SSTORE SWAP2 PUSH1 0x20 ADD SWAP2 SWAP1 PUSH1 0x1 ADD SWAP1 PUSH3 0xC7 JUMP JUMPDEST POP PUSH3 0xF2 SWAP3 SWAP2 POP PUSH3 0xF6 JUMP JUMPDEST POP SWAP1 JUMP JUMPDEST JUMPDEST DUP1 DUP3 GT ISZERO PUSH3 0xF2 JUMPI PUSH1 0x0 DUP2 SSTORE PUSH1 0x1 ADD PUSH3 0xF7 JUMP JUMPDEST PUSH1 0x1 DUP2 DUP2 SHR SWAP1 DUP3 AND DUP1 PUSH3 0x122 JUMPI PUSH1 0x7F DUP3 AND SWAP2 POP JUMPDEST PUSH1 0x20 DUP3 LT DUP2 EQ ISZERO PUSH3 0x144 JUMPI PUSH4 0x4E487B71 PUSH1 0xE0 SHL PUSH1 0x0 MSTORE PUSH1 0x22 PUSH1 0x4 MSTORE PUSH1 0x24 PUSH1 0x0 REVERT JUMPDEST POP SWAP2 SWAP1 POP JUMP JUMPDEST PUSH2 0x35AE DUP1 PUSH3 0x15A PUSH1 0x0 CODECOPY PUSH1 0x0 RETURN INVALID PUSH1 0x80 PUSH1 0x40 MSTORE CALLVALUE DUP1 ISZERO PUSH2 0x10 JUMPI PUSH1 0x0 DUP1 REVERT JUMPDEST POP PUSH1 0x4 CALLDATASIZE LT PUSH2 0x23D JUMPI PUSH1 0x0 CALLDATALOAD PUSH1 0xE0 SHR DUP1 PUSH4 0x788D3851 GT PUSH2 0x13B JUMPI DUP1 PUSH4 0xAD5461D8 GT PUSH2 0xB8 JUMPI DUP1 PUSH4 0xC3403DDF GT PUSH2 0x7C JUMPI DUP1 PUSH4 0xC3403DDF EQ PUSH2 0x483 JUMPI DUP1 PUSH4 0xC9648F6E EQ PUSH2 0x48B JUMPI DUP1 PUSH4 0xCB43284E EQ PUSH2 0x493 JUMPI DUP1 PUSH4 0xD012F7EA EQ PUSH2 0x49B JUMPI DUP1 PUSH4 0xFC0E74D1 EQ PUSH2 0x4A3 JUMPI PUSH1 0x0 DUP1 REVERT JUMPDEST DUP1 PUSH4 0xAD5461D8 EQ PUSH2 0x43D JUMPI DUP1 PUSH4 0xB798867F EQ PUSH2 0x45D JUMPI DUP1 PUSH4 0xBBB97DED EQ PUSH2 0x466 JUMPI DUP1 PUSH4 0xBF86D690 EQ PUSH2 0x46E JUMPI DUP1 PUSH4 0xC1C16EFC EQ PUSH2 0x47B JUMPI PUSH1 0x0 DUP1 REVERT JUMPDEST DUP1 PUSH4 0xA24A4E88 GT PUSH2 0xFF JUMPI DUP1 PUSH4 0xA24A4E88 EQ PUSH2 0x414 JUMPI DUP1 PUSH4 0xA3BEF4D7 EQ PUSH2 0x41C JUMPI DUP1 PUSH4 0xA5627CF0 EQ PUSH2 0x425 JUMPI DUP1 PUSH4 0xA8267245 EQ PUSH2 0x42D JUMPI DUP1 PUSH4 0xA9A4070C EQ PUSH2 0x435 JUMPI PUSH1 0x0 DUP1 REVERT JUMPDEST DUP1 PUSH4 0x788D3851 EQ PUSH2 0x3DC JUMPI DUP1 PUSH4 0x7FEA0D4B EQ PUSH2 0x3E9 JUMPI DUP1 PUSH4 0x848B4427 EQ PUSH2 0x3F1 JUMPI DUP1 PUSH4 0x8F43F134 EQ PUSH2 0x3F9 JUMPI DUP1 PUSH4 0x947AEA86 EQ PUSH2 0x40C JUMPI PUSH1 0x0 DUP1 REVERT JUMPDEST DUP1 PUSH4 0x3B9F708D GT PUSH2 0x1C9 JUMPI DUP1 PUSH4 0x5DF81330 GT PUSH2 0x18D JUMPI DUP1 PUSH4 0x5DF81330 EQ PUSH2 0x35C JUMPI DUP1 PUSH4 0x632A9A52 EQ PUSH2 0x2D7 JUMPI DUP1 PUSH4 0x6D77BD3E EQ PUSH2 0x3AE JUMPI DUP1 PUSH4 0x77440E06 EQ PUSH2 0x3C1 JUMPI DUP1 PUSH4 0x781A38A3 EQ PUSH2 0x3C9 JUMPI PUSH1 0x0 DUP1 REVERT JUMPDEST DUP1 PUSH4 0x3B9F708D EQ PUSH2 0x2FA JUMPI DUP1 PUSH4 0x3D2F5BDA EQ PUSH2 0x30D JUMPI DUP1 PUSH4 0x47098F36 EQ PUSH2 0x320 JUMPI DUP1 PUSH4 0x481C6A75 EQ PUSH2 0x329 JUMPI DUP1 PUSH4 0x512A6FBB EQ PUSH2 0x354 JUMPI PUSH1 0x0 DUP1 REVERT JUMPDEST DUP1 PUSH4 0x12A4591A GT PUSH2 0x210 JUMPI DUP1 PUSH4 0x12A4591A EQ PUSH2 0x2AE JUMPI DUP1 PUSH4 0x1DDABF7A EQ PUSH2 0x2B6 JUMPI DUP1 PUSH4 0x2955FEA3 EQ PUSH2 0x2D7 JUMPI DUP1 PUSH4 0x2B5A9467 EQ PUSH2 0x2DF JUMPI DUP1 PUSH4 0x2D8C6F42 EQ PUSH2 0x2E7 JUMPI PUSH1 0x0 DUP1 REVERT JUMPDEST DUP1 PUSH4 0x55AD42E EQ PUSH2 0x242 JUMPI DUP1 PUSH4 0x83C6323 EQ PUSH2 0x26A JUMPI DUP1 PUSH4 0xB0F5DD7 EQ PUSH2 0x281 JUMPI DUP1 PUSH4 0x124258C6 EQ PUSH2 0x28B JUMPI JUMPDEST PUSH1 0x0 DUP1 REVERT JUMPDEST PUSH1 0x9 SLOAD PUSH2 0x254 SWAP1 PUSH2 0x100 SWAP1 DIV PUSH1 0xFF AND DUP2 JUMP JUMPDEST PUSH1 0x40 MLOAD PUSH2 0x261 SWAP2 SWAP1 PUSH2 0x2DEA JUMP JUMPDEST PUSH1 0x40 MLOAD DUP1 SWAP2 SUB SWAP1 RETURN JUMPDEST PUSH2 0x273 PUSH1 0xA SLOAD DUP2 JUMP JUMPDEST PUSH1 0x40 MLOAD SWAP1 DUP2 MSTORE PUSH1 0x20 ADD PUSH2 0x261 JUMP JUMPDEST PUSH2 0x289 PUSH2 0x4AB JUMP JUMPDEST STOP JUMPDEST PUSH2 0x29E PUSH2 0x299 CALLDATASIZE PUSH1 0x4 PUSH2 0x2CAA JUMP JUMPDEST PUSH2 0x72D JUMP JUMPDEST PUSH1 0x40 MLOAD SWAP1 ISZERO ISZERO DUP2 MSTORE PUSH1 0x20 ADD PUSH2 0x261 JUMP JUMPDEST PUSH2 0x289 PUSH2 0x9CC JUMP JUMPDEST PUSH2 0x2C9 PUSH2 0x2C4 CALLDATASIZE PUSH1 0x4 PUSH2 0x2BC9 JUMP JUMPDEST PUSH2 0xB50 JUMP JUMPDEST PUSH1 0x40 MLOAD PUSH2 0x261 SWAP3 SWAP2 SWAP1 PUSH2 0x2E25 JUMP JUMPDEST PUSH2 0x289 PUSH2 0xBF7 JUMP JUMPDEST PUSH2 0x289 PUSH2 0xC72 JUMP JUMPDEST PUSH2 0x273 PUSH2 0x2F5 CALLDATASIZE PUSH1 0x4 PUSH2 0x2C03 JUMP JUMPDEST PUSH2 0x1005 JUMP JUMPDEST PUSH2 0x273 PUSH2 0x308 CALLDATASIZE PUSH1 0x4 PUSH2 0x2C03 JUMP JUMPDEST PUSH2 0x116D JUMP JUMPDEST PUSH2 0x289 PUSH2 0x31B CALLDATASIZE PUSH1 0x4 PUSH2 0x2CAA JUMP JUMPDEST PUSH2 0x120B JUMP JUMPDEST PUSH2 0x273 PUSH1 0x3 SLOAD DUP2 JUMP JUMPDEST PUSH1 0x5 SLOAD PUSH2 0x33C SWAP1 PUSH1 0x1 PUSH1 0x1 PUSH1 0xA0 SHL SUB AND DUP2 JUMP JUMPDEST PUSH1 0x40 MLOAD PUSH1 0x1 PUSH1 0x1 PUSH1 0xA0 SHL SUB SWAP1 SWAP2 AND DUP2 MSTORE PUSH1 0x20 ADD PUSH2 0x261 JUMP JUMPDEST PUSH2 0x289 PUSH2 0x1374 JUMP JUMPDEST PUSH2 0x38F PUSH2 0x36A CALLDATASIZE PUSH1 0x4 PUSH2 0x2CAA JUMP JUMPDEST PUSH1 0x7 PUSH1 0x20 MSTORE PUSH1 0x0 SWAP1 DUP2 MSTORE PUSH1 0x40 SWAP1 KECCAK256 DUP1 SLOAD PUSH1 0x1 SWAP1 SWAP2 ADD SLOAD PUSH1 0x1 PUSH1 0x1 PUSH1 0xA0 SHL SUB SWAP1 SWAP2 AND SWAP1 DUP3 JUMP JUMPDEST PUSH1 0x40 DUP1 MLOAD PUSH1 0x1 PUSH1 0x1 PUSH1 0xA0 SHL SUB SWAP1 SWAP4 AND DUP4 MSTORE PUSH1 0x20 DUP4 ADD SWAP2 SWAP1 SWAP2 MSTORE ADD PUSH2 0x261 JUMP JUMPDEST PUSH2 0x273 PUSH2 0x3BC CALLDATASIZE PUSH1 0x4 PUSH2 0x2C75 JUMP JUMPDEST PUSH2 0x15BD JUMP JUMPDEST PUSH2 0x289 PUSH2 0x1659 JUMP JUMPDEST PUSH2 0x273 PUSH2 0x3D7 CALLDATASIZE PUSH1 0x4 PUSH2 0x2C75 JUMP JUMPDEST PUSH2 0x1731 JUMP JUMPDEST PUSH1 0x9 SLOAD PUSH2 0x29E SWAP1 PUSH1 0xFF AND DUP2 JUMP JUMPDEST PUSH2 0x289 PUSH2 0x1848 JUMP JUMPDEST PUSH2 0x289 PUSH2 0x1B78 JUMP JUMPDEST PUSH2 0x29E PUSH2 0x407 CALLDATASIZE PUSH1 0x4 PUSH2 0x2CAA JUMP JUMPDEST PUSH2 0x1EE8 JUMP JUMPDEST PUSH2 0x289 PUSH2 0x1EF9 JUMP JUMPDEST PUSH2 0x289 PUSH2 0x1F74 JUMP JUMPDEST PUSH2 0x273 PUSH1 0x4 SLOAD DUP2 JUMP JUMPDEST PUSH2 0x289 PUSH2 0x1F98 JUMP JUMPDEST PUSH2 0x289 PUSH2 0x214C JUMP JUMPDEST PUSH2 0x289 PUSH2 0x2184 JUMP JUMPDEST PUSH2 0x450 PUSH2 0x44B CALLDATASIZE PUSH1 0x4 PUSH2 0x2CAA JUMP JUMPDEST PUSH2 0x22C4 JUMP JUMPDEST PUSH1 0x40 MLOAD PUSH2 0x261 SWAP2 SWAP1 PUSH2 0x2E12 JUMP JUMPDEST PUSH2 0x273 PUSH1 0x2 SLOAD DUP2 JUMP JUMPDEST PUSH2 0x289 PUSH2 0x235E JUMP JUMPDEST PUSH1 0xB SLOAD PUSH2 0x29E SWAP1 PUSH1 0xFF AND DUP2 JUMP JUMPDEST PUSH2 0x450 PUSH2 0x23D9 JUMP JUMPDEST PUSH2 0x289 PUSH2 0x23E6 JUMP JUMPDEST PUSH2 0x289 PUSH2 0x249D JUMP JUMPDEST PUSH2 0x289 PUSH2 0x2603 JUMP JUMPDEST PUSH2 0x289 PUSH2 0x2763 JUMP JUMPDEST PUSH2 0x289 PUSH2 0x28D8 JUMP JUMPDEST PUSH1 0x40 MLOAD PUSH4 0x781A38A3 PUSH1 0xE0 SHL DUP2 MSTORE PUSH1 0x20 PUSH1 0x4 DUP3 ADD MSTORE PUSH1 0xE PUSH1 0x24 DUP3 ADD MSTORE PUSH14 0x13995DC814995CDD185D5C985B9D PUSH1 0x92 SHL PUSH1 0x44 DUP3 ADD MSTORE ADDRESS SWAP1 PUSH4 0x781A38A3 SWAP1 PUSH1 0x64 ADD PUSH1 0x20 PUSH1 0x40 MLOAD DUP1 DUP4 SUB DUP2 PUSH1 0x0 DUP8 DUP1 EXTCODESIZE ISZERO DUP1 ISZERO PUSH2 0x502 JUMPI PUSH1 0x0 DUP1 REVERT JUMPDEST POP GAS CALL SWAP3 POP POP POP DUP1 ISZERO PUSH2 0x532 JUMPI POP PUSH1 0x40 DUP1 MLOAD PUSH1 0x1F RETURNDATASIZE SWAP1 DUP2 ADD PUSH1 0x1F NOT AND DUP3 ADD SWAP1 SWAP3 MSTORE PUSH2 0x52F SWAP2 DUP2 ADD SWAP1 PUSH2 0x2CC3 JUMP JUMPDEST PUSH1 0x1 JUMPDEST PUSH2 0x69E JUMPI PUSH2 0x53E PUSH2 0x349D JUMP JUMPDEST DUP1 PUSH4 0x8C379A0 EQ ISZERO PUSH2 0x5E9 JUMPI POP PUSH2 0x553 PUSH2 0x34B9 JUMP JUMPDEST DUP1 PUSH2 0x55E JUMPI POP PUSH2 0x5EB JUMP JUMPDEST PUSH1 0x40 MLOAD PUSH4 0x7461658B PUSH1 0xE1 SHL DUP2 MSTORE PUSH20 0x0 SWAP1 PUSH4 0xE8C2CB16 SWAP1 PUSH2 0x595 SWAP1 DUP5 SWAP1 PUSH1 0x4 ADD PUSH2 0x2F68 JUMP JUMPDEST PUSH1 0x20 PUSH1 0x40 MLOAD DUP1 DUP4 SUB DUP2 DUP7 DUP1 EXTCODESIZE ISZERO DUP1 ISZERO PUSH2 0x5AD JUMPI PUSH1 0x0 DUP1 REVERT JUMPDEST POP GAS DELEGATECALL ISZERO DUP1 ISZERO PUSH2 0x5C1 JUMPI RETURNDATASIZE PUSH1 0x0 DUP1 RETURNDATACOPY RETURNDATASIZE PUSH1 0x0 REVERT JUMPDEST POP POP POP POP PUSH1 0x40 MLOAD RETURNDATASIZE PUSH1 0x1F NOT PUSH1 0x1F DUP3 ADD AND DUP3 ADD DUP1 PUSH1 0x40 MSTORE POP DUP2 ADD SWAP1 PUSH2 0x5E5 SWAP2 SWAP1 PUSH2 0x2C53 JUMP JUMPDEST POP POP JUMP JUMPDEST POP JUMPDEST PUSH1 0x40 DUP1 MLOAD PUSH4 0x39DF137F PUSH1 0xE0 SHL DUP2 MSTORE PUSH1 0x0 PUSH1 0x4 DUP3 ADD MSTORE PUSH1 0x24 DUP2 ADD SWAP2 SWAP1 SWAP2 MSTORE PUSH1 0x13 PUSH1 0x44 DUP3 ADD MSTORE PUSH19 0x4661696C656420756E65787065637465646C79 PUSH1 0x68 SHL PUSH1 0x64 DUP3 ADD MSTORE PUSH20 0x0 SWAP1 PUSH4 0x39DF137F SWAP1 PUSH1 0x84 ADD JUMPDEST PUSH1 0x20 PUSH1 0x40 MLOAD DUP1 DUP4 SUB DUP2 DUP7 DUP1 EXTCODESIZE ISZERO DUP1 ISZERO PUSH2 0x663 JUMPI PUSH1 0x0 DUP1 REVERT JUMPDEST POP GAS DELEGATECALL ISZERO DUP1 ISZERO PUSH2 0x677 JUMPI RETURNDATASIZE PUSH1 0x0 DUP1 RETURNDATACOPY RETURNDATASIZE PUSH1 0x0 REVERT JUMPDEST POP POP POP POP PUSH1 0x40 MLOAD RETURNDATASIZE PUSH1 0x1F NOT PUSH1 0x1F DUP3 ADD AND DUP3 ADD DUP1 PUSH1 0x40 MSTORE POP DUP2 ADD SWAP1 PUSH2 0x69B SWAP2 SWAP1 PUSH2 0x2C53 JUMP JUMPDEST POP JUMP JUMPDEST PUSH1 0x40 DUP1 MLOAD PUSH4 0x39DF137F PUSH1 0xE0 SHL DUP2 MSTORE PUSH1 0x0 PUSH1 0x4 DUP3 ADD MSTORE PUSH1 0x24 DUP2 ADD SWAP2 SWAP1 SWAP2 MSTORE PUSH1 0x36 PUSH1 0x44 DUP3 ADD MSTORE PUSH32 0x53686F756C64206E6F7420616C6C6F7720616464696E67207265737461757261 PUSH1 0x64 DUP3 ADD MSTORE PUSH22 0x6E7420647572696E6720766F74696E67207068617365 PUSH1 0x50 SHL PUSH1 0x84 DUP3 ADD MSTORE PUSH20 0x0 SWAP1 PUSH4 0x39DF137F SWAP1 PUSH1 0xA4 ADD PUSH2 0x595 JUMP JUMPDEST JUMP JUMPDEST PUSH1 0xB SLOAD PUSH1 0x0 SWAP1 PUSH1 0xFF AND ISZERO PUSH2 0x75C JUMPI PUSH1 0x40 MLOAD PUSH3 0x461BCD PUSH1 0xE5 SHL DUP2 MSTORE PUSH1 0x4 ADD PUSH2 0x753 SWAP1 PUSH2 0x3264 JUMP JUMPDEST PUSH1 0x40 MLOAD DUP1 SWAP2 SUB SWAP1 REVERT JUMPDEST PUSH1 0x1 DUP1 PUSH1 0x9 SLOAD PUSH2 0x100 SWAP1 DIV PUSH1 0xFF AND PUSH1 0x2 DUP2 GT ISZERO PUSH2 0x77B JUMPI PUSH2 0x77B PUSH2 0x3471 JUMP JUMPDEST EQ PUSH2 0x798 JUMPI PUSH1 0x40 MLOAD PUSH3 0x461BCD PUSH1 0xE5 SHL DUP2 MSTORE PUSH1 0x4 ADD PUSH2 0x753 SWAP1 PUSH2 0x32A6 JUMP JUMPDEST PUSH1 0x9 SLOAD PUSH1 0xFF AND ISZERO ISZERO PUSH1 0x1 EQ PUSH2 0x7FB JUMPI PUSH1 0x40 MLOAD PUSH3 0x461BCD PUSH1 0xE5 SHL DUP2 MSTORE PUSH1 0x20 PUSH1 0x4 DUP3 ADD MSTORE PUSH1 0x23 PUSH1 0x24 DUP3 ADD MSTORE PUSH32 0x43616E20766F7465206F6E6C79207768696C6520766F74696E67206973206F70 PUSH1 0x44 DUP3 ADD MSTORE PUSH3 0x32B717 PUSH1 0xE9 SHL PUSH1 0x64 DUP3 ADD MSTORE PUSH1 0x84 ADD PUSH2 0x753 JUMP JUMPDEST PUSH1 0x0 DUP4 DUP2 MSTORE PUSH1 0x20 DUP2 SWAP1 MSTORE PUSH1 0x40 SWAP1 KECCAK256 DUP1 SLOAD PUSH2 0x814 SWAP1 PUSH2 0x33DE JUMP JUMPDEST ISZERO ISZERO SWAP1 POP PUSH2 0x864 JUMPI PUSH1 0x40 MLOAD PUSH3 0x461BCD PUSH1 0xE5 SHL DUP2 MSTORE PUSH1 0x20 PUSH1 0x4 DUP3 ADD MSTORE PUSH1 0x1A PUSH1 0x24 DUP3 ADD MSTORE PUSH32 0x52657374617572616E7420646F6573206E6F742065786973742E000000000000 PUSH1 0x44 DUP3 ADD MSTORE PUSH1 0x64 ADD PUSH2 0x753 JUMP JUMPDEST PUSH1 0xA SLOAD NUMBER GT ISZERO PUSH2 0x87F JUMPI PUSH2 0x876 PUSH2 0x292F JUMP JUMPDEST PUSH1 0x0 SWAP2 POP PUSH2 0x9C6 JUMP JUMPDEST CALLER PUSH1 0x0 SWAP1 DUP2 MSTORE PUSH1 0x1 PUSH1 0x20 MSTORE PUSH1 0x40 SWAP1 KECCAK256 DUP1 SLOAD PUSH2 0x899 SWAP1 PUSH2 0x33DE JUMP JUMPDEST ISZERO ISZERO SWAP1 POP PUSH2 0x8B9 JUMPI PUSH1 0x40 MLOAD PUSH3 0x461BCD PUSH1 0xE5 SHL DUP2 MSTORE PUSH1 0x4 ADD PUSH2 0x753 SWAP1 PUSH2 0x32F5 JUMP JUMPDEST CALLER PUSH1 0x0 SWAP1 DUP2 MSTORE PUSH1 0x1 PUSH1 0x20 DUP2 SWAP1 MSTORE PUSH1 0x40 SWAP1 SWAP2 KECCAK256 ADD SLOAD PUSH1 0xFF AND ISZERO PUSH2 0x91D JUMPI PUSH1 0x40 MLOAD PUSH3 0x461BCD PUSH1 0xE5 SHL DUP2 MSTORE PUSH1 0x20 PUSH1 0x4 DUP3 ADD MSTORE PUSH1 0x17 PUSH1 0x24 DUP3 ADD MSTORE PUSH32 0x596F75206861766520616C726561647920766F7465642E000000000000000000 PUSH1 0x44 DUP3 ADD MSTORE PUSH1 0x64 ADD PUSH2 0x753 JUMP JUMPDEST CALLER PUSH1 0x0 DUP2 DUP2 MSTORE PUSH1 0x1 PUSH1 0x20 DUP2 DUP2 MSTORE PUSH1 0x40 DUP1 DUP5 KECCAK256 DUP4 ADD DUP1 SLOAD PUSH1 0xFF NOT AND DUP5 OR SWAP1 SSTORE DUP1 MLOAD DUP1 DUP3 ADD SWAP1 SWAP2 MSTORE SWAP4 DUP5 MSTORE DUP4 ADD DUP7 SWAP1 MSTORE PUSH1 0x4 DUP1 SLOAD SWAP2 SWAP6 POP PUSH1 0x7 SWAP3 SWAP2 DUP3 SWAP1 PUSH2 0x961 SWAP1 PUSH2 0x3440 JUMP JUMPDEST SWAP2 DUP3 SWAP1 SSTORE POP DUP2 MSTORE PUSH1 0x20 DUP1 DUP3 ADD SWAP3 SWAP1 SWAP3 MSTORE PUSH1 0x40 ADD PUSH1 0x0 KECCAK256 DUP3 MLOAD DUP2 SLOAD PUSH1 0x1 PUSH1 0x1 PUSH1 0xA0 SHL SUB NOT AND PUSH1 0x1 PUSH1 0x1 PUSH1 0xA0 SHL SUB SWAP1 SWAP2 AND OR DUP2 SSTORE SWAP2 ADD MLOAD PUSH1 0x1 SWAP1 SWAP2 ADD SSTORE PUSH1 0x3 SLOAD PUSH2 0x9AB SWAP1 PUSH1 0x2 SWAP1 PUSH2 0x3390 JUMP JUMPDEST PUSH2 0x9B6 SWAP1 PUSH1 0x1 PUSH2 0x3378 JUMP JUMPDEST PUSH1 0x4 SLOAD LT PUSH2 0x9C6 JUMPI PUSH2 0x9C6 PUSH2 0x292F JUMP JUMPDEST POP SWAP2 SWAP1 POP JUMP JUMPDEST PUSH20 0x0 PUSH4 0xABCD7960 PUSH2 0xA15 PUSH1 0x40 MLOAD DUP1 PUSH1 0x40 ADD PUSH1 0x40 MSTORE DUP1 PUSH1 0xE DUP2 MSTORE PUSH1 0x20 ADD PUSH14 0x436F757274796172642043616665 PUSH1 0x90 SHL DUP2 MSTORE POP PUSH2 0x15BD JUMP JUMPDEST PUSH1 0x40 MLOAD PUSH1 0x1 PUSH1 0x1 PUSH1 0xE0 SHL SUB NOT PUSH1 0xE0 DUP5 SWAP1 SHL AND DUP2 MSTORE PUSH1 0x4 DUP2 ADD SWAP2 SWAP1 SWAP2 MSTORE PUSH1 0x1 PUSH1 0x24 DUP3 ADD MSTORE PUSH1 0x60 PUSH1 0x44 DUP3 ADD MSTORE PUSH1 0x14 PUSH1 0x64 DUP3 ADD MSTORE PUSH20 0x53686F756C6420626520657175616C20746F2031 PUSH1 0x60 SHL PUSH1 0x84 DUP3 ADD MSTORE PUSH1 0xA4 ADD PUSH1 0x20 PUSH1 0x40 MLOAD DUP1 DUP4 SUB DUP2 DUP7 DUP1 EXTCODESIZE ISZERO DUP1 ISZERO PUSH2 0xA7E JUMPI PUSH1 0x0 DUP1 REVERT JUMPDEST POP GAS DELEGATECALL ISZERO DUP1 ISZERO PUSH2 0xA92 JUMPI RETURNDATASIZE PUSH1 0x0 DUP1 RETURNDATACOPY RETURNDATASIZE PUSH1 0x0 REVERT JUMPDEST POP POP POP POP PUSH1 0x40 MLOAD RETURNDATASIZE PUSH1 0x1F NOT PUSH1 0x1F DUP3 ADD AND DUP3 ADD DUP1 PUSH1 0x40 MSTORE POP DUP2 ADD SWAP1 PUSH2 0xAB6 SWAP2 SWAP1 PUSH2 0x2C53 JUMP JUMPDEST POP PUSH20 0x0 PUSH4 0xABCD7960 PUSH2 0xAFA PUSH1 0x40 MLOAD DUP1 PUSH1 0x40 ADD PUSH1 0x40 MSTORE DUP1 PUSH1 0x8 DUP2 MSTORE PUSH1 0x20 ADD PUSH8 0x556E692043616665 PUSH1 0xC0 SHL DUP2 MSTORE POP PUSH2 0x15BD JUMP JUMPDEST PUSH1 0x40 MLOAD PUSH1 0x1 PUSH1 0x1 PUSH1 0xE0 SHL SUB NOT PUSH1 0xE0 DUP5 SWAP1 SHL AND DUP2 MSTORE PUSH1 0x4 DUP2 ADD SWAP2 SWAP1 SWAP2 MSTORE PUSH1 0x2 PUSH1 0x24 DUP3 ADD MSTORE PUSH1 0x60 PUSH1 0x44 DUP3 ADD MSTORE PUSH1 0x14 PUSH1 0x64 DUP3 ADD MSTORE PUSH20 0x29B437BAB6321031329032B8BAB0B6103A379019 PUSH1 0x61 SHL PUSH1 0x84 DUP3 ADD MSTORE PUSH1 0xA4 ADD PUSH2 0x64B JUMP JUMPDEST PUSH1 0x1 PUSH1 0x20 MSTORE PUSH1 0x0 SWAP1 DUP2 MSTORE PUSH1 0x40 SWAP1 KECCAK256 DUP1 SLOAD DUP2 SWAP1 PUSH2 0xB6B SWAP1 PUSH2 0x33DE JUMP JUMPDEST DUP1 PUSH1 0x1F ADD PUSH1 0x20 DUP1 SWAP2 DIV MUL PUSH1 0x20 ADD PUSH1 0x40 MLOAD SWAP1 DUP2 ADD PUSH1 0x40 MSTORE DUP1 SWAP3 SWAP2 SWAP1 DUP2 DUP2 MSTORE PUSH1 0x20 ADD DUP3 DUP1 SLOAD PUSH2 0xB97 SWAP1 PUSH2 0x33DE JUMP JUMPDEST DUP1 ISZERO PUSH2 0xBE4 JUMPI DUP1 PUSH1 0x1F LT PUSH2 0xBB9 JUMPI PUSH2 0x100 DUP1 DUP4 SLOAD DIV MUL DUP4 MSTORE SWAP2 PUSH1 0x20 ADD SWAP2 PUSH2 0xBE4 JUMP JUMPDEST DUP3 ADD SWAP2 SWAP1 PUSH1 0x0 MSTORE PUSH1 0x20 PUSH1 0x0 KECCAK256 SWAP1 JUMPDEST DUP2 SLOAD DUP2 MSTORE SWAP1 PUSH1 0x1 ADD SWAP1 PUSH1 0x20 ADD DUP1 DUP4 GT PUSH2 0xBC7 JUMPI DUP3 SWAP1 SUB PUSH1 0x1F AND DUP3 ADD SWAP2 JUMPDEST POP POP POP PUSH1 0x1 SWAP1 SWAP4 ADD SLOAD SWAP2 SWAP3 POP POP PUSH1 0xFF AND DUP3 JUMP JUMPDEST PUSH20 0x0 PUSH4 0x39DF137F PUSH2 0xC1B PUSH1 0x2 PUSH2 0x72D JUMP JUMPDEST PUSH1 0x40 DUP1 MLOAD PUSH1 0x1 PUSH1 0x1 PUSH1 0xE0 SHL SUB NOT PUSH1 0xE0 DUP6 SWAP1 SHL AND DUP2 MSTORE SWAP2 ISZERO ISZERO PUSH1 0x4 DUP4 ADD MSTORE PUSH1 0x24 DUP3 ADD MSTORE PUSH1 0x1C PUSH1 0x44 DUP3 ADD MSTORE PUSH32 0x566F74696E6720726573756C742073686F756C64206265207472756500000000 PUSH1 0x64 DUP3 ADD MSTORE PUSH1 0x84 ADD PUSH2 0x64B JUMP JUMPDEST CALLER PUSH1 0x0 SWAP1 DUP2 MSTORE PUSH1 0x1 PUSH1 0x20 MSTORE PUSH1 0x40 DUP1 DUP3 KECCAK256 DUP2 MLOAD DUP1 DUP4 ADD SWAP1 SWAP3 MSTORE DUP1 SLOAD DUP3 SWAP1 DUP3 SWAP1 PUSH2 0xC99 SWAP1 PUSH2 0x33DE JUMP JUMPDEST DUP1 PUSH1 0x1F ADD PUSH1 0x20 DUP1 SWAP2 DIV MUL PUSH1 0x20 ADD PUSH1 0x40 MLOAD SWAP1 DUP2 ADD PUSH1 0x40 MSTORE DUP1 SWAP3 SWAP2 SWAP1 DUP2 DUP2 MSTORE PUSH1 0x20 ADD DUP3 DUP1 SLOAD PUSH2 0xCC5 SWAP1 PUSH2 0x33DE JUMP JUMPDEST DUP1 ISZERO PUSH2 0xD12 JUMPI DUP1 PUSH1 0x1F LT PUSH2 0xCE7 JUMPI PUSH2 0x100 DUP1 DUP4 SLOAD DIV MUL DUP4 MSTORE SWAP2 PUSH1 0x20 ADD SWAP2 PUSH2 0xD12 JUMP JUMPDEST DUP3 ADD SWAP2 SWAP1 PUSH1 0x0 MSTORE PUSH1 0x20 PUSH1 0x0 KECCAK256 SWAP1 JUMPDEST DUP2 SLOAD DUP2 MSTORE SWAP1 PUSH1 0x1 ADD SWAP1 PUSH1 0x20 ADD DUP1 DUP4 GT PUSH2 0xCF5 JUMPI DUP3 SWAP1 SUB PUSH1 0x1F AND DUP3 ADD SWAP2 JUMPDEST POP POP POP SWAP2 DUP4 MSTORE POP POP PUSH1 0x1 SWAP2 DUP3 ADD SLOAD PUSH1 0xFF AND ISZERO ISZERO PUSH1 0x20 SWAP2 DUP3 ADD MSTORE DUP3 ADD MLOAD PUSH1 0x40 MLOAD PUSH4 0x767392B3 PUSH1 0xE0 SHL DUP2 MSTORE SWAP1 ISZERO ISZERO PUSH1 0x4 DUP3 ADD MSTORE PUSH1 0x24 DUP2 ADD SWAP2 SWAP1 SWAP2 MSTORE PUSH1 0x60 PUSH1 0x44 DUP3 ADD MSTORE PUSH1 0x1D PUSH1 0x64 DUP3 ADD MSTORE PUSH32 0x426F622073686F756C64206861766520616C726561647920766F746564000000 PUSH1 0x84 DUP3 ADD MSTORE SWAP1 SWAP2 POP PUSH20 0x0 SWAP1 PUSH4 0x767392B3 SWAP1 PUSH1 0xA4 ADD PUSH1 0x20 PUSH1 0x40 MLOAD DUP1 DUP4 SUB DUP2 DUP7 DUP1 EXTCODESIZE ISZERO DUP1 ISZERO PUSH2 0xDB9 JUMPI PUSH1 0x0 DUP1 REVERT JUMPDEST POP GAS DELEGATECALL ISZERO DUP1 ISZERO PUSH2 0xDCD JUMPI RETURNDATASIZE PUSH1 0x0 DUP1 RETURNDATACOPY RETURNDATASIZE PUSH1 0x0 REVERT JUMPDEST POP POP POP POP PUSH1 0x40 MLOAD RETURNDATASIZE PUSH1 0x1F NOT PUSH1 0x1F DUP3 ADD AND DUP3 ADD DUP1 PUSH1 0x40 MSTORE POP DUP2 ADD SWAP1 PUSH2 0xDF1 SWAP2 SWAP1 PUSH2 0x2C53 JUMP JUMPDEST POP PUSH1 0x4 DUP1 SLOAD PUSH1 0x40 MLOAD PUSH4 0x23D0FC4D PUSH1 0xE2 SHL DUP2 MSTORE PUSH1 0x2 SWAP3 DUP2 ADD SWAP3 SWAP1 SWAP3 MSTORE SWAP1 PUSH1 0x0 SWAP1 ADDRESS SWAP1 PUSH4 0x8F43F134 SWAP1 PUSH1 0x24 ADD PUSH1 0x20 PUSH1 0x40 MLOAD DUP1 DUP4 SUB DUP2 PUSH1 0x0 DUP8 DUP1 EXTCODESIZE ISZERO DUP1 ISZERO PUSH2 0xE35 JUMPI PUSH1 0x0 DUP1 REVERT JUMPDEST POP GAS CALL SWAP3 POP POP POP DUP1 ISZERO PUSH2 0xE65 JUMPI POP PUSH1 0x40 DUP1 MLOAD PUSH1 0x1F RETURNDATASIZE SWAP1 DUP2 ADD PUSH1 0x1F NOT AND DUP3 ADD SWAP1 SWAP3 MSTORE PUSH2 0xE62 SWAP2 DUP2 ADD SWAP1 PUSH2 0x2C53 JUMP JUMPDEST PUSH1 0x1 JUMPDEST PUSH2 0xE6E JUMPI PUSH2 0xE71 JUMP JUMPDEST SWAP1 POP JUMPDEST PUSH1 0x40 MLOAD PUSH4 0x767392B3 PUSH1 0xE0 SHL DUP2 MSTORE DUP2 ISZERO ISZERO PUSH1 0x4 DUP3 ADD MSTORE PUSH1 0x0 PUSH1 0x24 DUP1 DUP4 ADD SWAP2 SWAP1 SWAP2 MSTORE PUSH1 0x60 PUSH1 0x44 DUP4 ADD MSTORE PUSH1 0x64 DUP3 ADD MSTORE PUSH32 0x4475706C696361746520766F74652073686F756C64206E6F7420626520616C6C PUSH1 0x84 DUP3 ADD MSTORE PUSH4 0x1BDDD959 PUSH1 0xE2 SHL PUSH1 0xA4 DUP3 ADD MSTORE PUSH20 0x0 SWAP1 PUSH4 0x767392B3 SWAP1 PUSH1 0xC4 ADD PUSH1 0x20 PUSH1 0x40 MLOAD DUP1 DUP4 SUB DUP2 DUP7 DUP1 EXTCODESIZE ISZERO DUP1 ISZERO PUSH2 0xF07 JUMPI PUSH1 0x0 DUP1 REVERT JUMPDEST POP GAS DELEGATECALL ISZERO DUP1 ISZERO PUSH2 0xF1B JUMPI RETURNDATASIZE PUSH1 0x0 DUP1 RETURNDATACOPY RETURNDATASIZE PUSH1 0x0 REVERT JUMPDEST POP POP POP POP PUSH1 0x40 MLOAD RETURNDATASIZE PUSH1 0x1F NOT PUSH1 0x1F DUP3 ADD AND DUP3 ADD DUP1 PUSH1 0x40 MSTORE POP DUP2 ADD SWAP1 PUSH2 0xF3F SWAP2 SWAP1 PUSH2 0x2C53 JUMP JUMPDEST POP PUSH1 0x4 DUP1 SLOAD PUSH1 0x40 MLOAD PUSH4 0x55E6BCB PUSH1 0xE5 SHL DUP2 MSTORE SWAP2 DUP3 ADD MSTORE PUSH1 0x24 DUP2 ADD DUP4 SWAP1 MSTORE PUSH1 0x60 PUSH1 0x44 DUP3 ADD MSTORE PUSH1 0x1E PUSH1 0x64 DUP3 ADD MSTORE PUSH32 0x566F746520636F756E742073686F756C64206E6F7420696E6372656173650000 PUSH1 0x84 DUP3 ADD MSTORE PUSH20 0x0 SWAP1 PUSH4 0xABCD7960 SWAP1 PUSH1 0xA4 ADD PUSH1 0x20 PUSH1 0x40 MLOAD DUP1 DUP4 SUB DUP2 DUP7 DUP1 EXTCODESIZE ISZERO DUP1 ISZERO PUSH2 0xFC7 JUMPI PUSH1 0x0 DUP1 REVERT JUMPDEST POP GAS DELEGATECALL ISZERO DUP1 ISZERO PUSH2 0xFDB JUMPI RETURNDATASIZE PUSH1 0x0 DUP1 RETURNDATACOPY RETURNDATASIZE PUSH1 0x0 REVERT JUMPDEST POP POP POP POP PUSH1 0x40 MLOAD RETURNDATASIZE PUSH1 0x1F NOT PUSH1 0x1F DUP3 ADD AND DUP3 ADD DUP1 PUSH1 0x40 MSTORE POP DUP2 ADD SWAP1 PUSH2 0xFFF SWAP2 SWAP1 PUSH2 0x2C53 JUMP JUMPDEST POP POP POP POP JUMP JUMPDEST PUSH1 0xB SLOAD PUSH1 0x0 SWAP1 PUSH1 0xFF AND ISZERO PUSH2 0x102B JUMPI PUSH1 0x40 MLOAD PUSH3 0x461BCD PUSH1 0xE5 SHL DUP2 MSTORE PUSH1 0x4 ADD PUSH2 0x753 SWAP1 PUSH2 0x3264 JUMP JUMPDEST PUSH1 0x0 DUP1 PUSH1 0x9 SLOAD PUSH2 0x100 SWAP1 DIV PUSH1 0xFF AND PUSH1 0x2 DUP2 GT ISZERO PUSH2 0x104A JUMPI PUSH2 0x104A PUSH2 0x3471 JUMP JUMPDEST EQ PUSH2 0x1067 JUMPI PUSH1 0x40 MLOAD PUSH3 0x461BCD PUSH1 0xE5 SHL DUP2 MSTORE PUSH1 0x4 ADD PUSH2 0x753 SWAP1 PUSH2 0x32A6 JUMP JUMPDEST PUSH1 0x1 PUSH1 0x1 PUSH1 0xA0 SHL SUB DUP5 AND PUSH1 0x0 SWAP1 DUP2 MSTORE PUSH1 0x1 PUSH1 0x20 MSTORE PUSH1 0x40 SWAP1 KECCAK256 DUP1 SLOAD PUSH2 0x108A SWAP1 PUSH2 0x33DE JUMP JUMPDEST ISZERO SWAP1 POP PUSH2 0x10A9 JUMPI PUSH1 0x40 MLOAD PUSH3 0x461BCD PUSH1 0xE5 SHL DUP2 MSTORE PUSH1 0x4 ADD PUSH2 0x753 SWAP1 PUSH2 0x322E JUMP JUMPDEST PUSH1 0x0 DUP4 MLOAD GT PUSH2 0x10F2 JUMPI PUSH1 0x40 MLOAD PUSH3 0x461BCD PUSH1 0xE5 SHL DUP2 MSTORE PUSH1 0x20 PUSH1 0x4 DUP3 ADD MSTORE PUSH1 0x15 PUSH1 0x24 DUP3 ADD MSTORE PUSH21 0x2730B6B29031B0B73737BA1031329032B6B83A3C97 PUSH1 0x59 SHL PUSH1 0x44 DUP3 ADD MSTORE PUSH1 0x64 ADD PUSH2 0x753 JUMP JUMPDEST PUSH1 0x40 DUP1 MLOAD DUP1 DUP3 ADD DUP3 MSTORE PUSH1 0x0 PUSH1 0x20 DUP1 DUP4 ADD DUP3 SWAP1 MSTORE DUP7 DUP4 MSTORE PUSH1 0x1 PUSH1 0x1 PUSH1 0xA0 SHL SUB DUP9 AND DUP3 MSTORE PUSH1 0x1 DUP2 MSTORE SWAP3 SWAP1 KECCAK256 DUP2 MLOAD DUP1 MLOAD SWAP3 SWAP4 DUP5 SWAP4 PUSH2 0x1130 SWAP3 DUP5 SWAP3 ADD SWAP1 PUSH2 0x2A41 JUMP JUMPDEST POP PUSH1 0x20 SWAP2 SWAP1 SWAP2 ADD MLOAD PUSH1 0x1 SWAP1 SWAP2 ADD DUP1 SLOAD PUSH1 0xFF NOT AND SWAP2 ISZERO ISZERO SWAP2 SWAP1 SWAP2 OR SWAP1 SSTORE PUSH1 0x3 DUP1 SLOAD SWAP1 PUSH1 0x0 PUSH2 0x115C DUP4 PUSH2 0x3440 JUMP JUMPDEST SWAP1 SWAP2 SSTORE POP POP PUSH1 0x3 SLOAD SWAP6 SWAP5 POP POP POP POP POP JUMP JUMPDEST PUSH1 0xB SLOAD PUSH1 0x0 SWAP1 PUSH1 0xFF AND ISZERO PUSH2 0x1193 JUMPI PUSH1 0x40 MLOAD PUSH3 0x461BCD PUSH1 0xE5 SHL DUP2 MSTORE PUSH1 0x4 ADD PUSH2 0x753 SWAP1 PUSH2 0x3264 JUMP JUMPDEST PUSH1 0x5 SLOAD PUSH1 0x1 PUSH1 0x1 PUSH1 0xA0 SHL SUB AND CALLER EQ PUSH2 0x11BD JUMPI PUSH1 0x40 MLOAD PUSH3 0x461BCD PUSH1 0xE5 SHL DUP2 MSTORE PUSH1 0x4 ADD PUSH2 0x753 SWAP1 PUSH2 0x3294 JUMP JUMPDEST PUSH1 0x0 DUP1 PUSH1 0x9 SLOAD PUSH2 0x100 SWAP1 DIV PUSH1 0xFF AND PUSH1 0x2 DUP2 GT ISZERO PUSH2 0x11DC JUMPI PUSH2 0x11DC PUSH2 0x3471 JUMP JUMPDEST EQ PUSH2 0x11F9 JUMPI PUSH1 0x40 MLOAD PUSH3 0x461BCD PUSH1 0xE5 SHL DUP2 MSTORE PUSH1 0x4 ADD PUSH2 0x753 SWAP1 PUSH2 0x32A6 JUMP JUMPDEST PUSH2 0x1203 DUP5 DUP5 PUSH2 0x1005 JUMP JUMPDEST SWAP5 SWAP4 POP POP POP POP JUMP JUMPDEST PUSH1 0xB SLOAD PUSH1 0xFF AND ISZERO PUSH2 0x122E JUMPI PUSH1 0x40 MLOAD PUSH3 0x461BCD PUSH1 0xE5 SHL DUP2 MSTORE PUSH1 0x4 ADD PUSH2 0x753 SWAP1 PUSH2 0x3264 JUMP JUMPDEST PUSH1 0x5 SLOAD PUSH1 0x1 PUSH1 0x1 PUSH1 0xA0 SHL SUB AND CALLER EQ PUSH2 0x1258 JUMPI PUSH1 0x40 MLOAD PUSH3 0x461BCD PUSH1 0xE5 SHL DUP2 MSTORE PUSH1 0x4 ADD PUSH2 0x753 SWAP1 PUSH2 0x3294 JUMP JUMPDEST PUSH1 0x0 DUP1 PUSH1 0x9 SLOAD PUSH2 0x100 SWAP1 DIV PUSH1 0xFF AND PUSH1 0x2 DUP2 GT ISZERO PUSH2 0x1277 JUMPI PUSH2 0x1277 PUSH2 0x3471 JUMP JUMPDEST EQ PUSH2 0x1294 JUMPI PUSH1 0x40 MLOAD PUSH3 0x461BCD PUSH1 0xE5 SHL DUP2 MSTORE PUSH1 0x4 ADD PUSH2 0x753 SWAP1 PUSH2 0x32A6 JUMP JUMPDEST PUSH1 0x1 PUSH1 0x2 SLOAD GT PUSH2 0x12F6 JUMPI PUSH1 0x40 MLOAD PUSH3 0x461BCD PUSH1 0xE5 SHL DUP2 MSTORE PUSH1 0x20 PUSH1 0x4 DUP3 ADD MSTORE PUSH1 0x27 PUSH1 0x24 DUP3 ADD MSTORE PUSH32 0x4174206C656173742074776F2072657374617572616E7473206D757374206265 PUSH1 0x44 DUP3 ADD MSTORE PUSH7 0x1030B23232B217 PUSH1 0xC9 SHL PUSH1 0x64 DUP3 ADD MSTORE PUSH1 0x84 ADD PUSH2 0x753 JUMP JUMPDEST PUSH1 0x1 PUSH1 0x3 SLOAD GT PUSH2 0x1354 JUMPI PUSH1 0x40 MLOAD PUSH3 0x461BCD PUSH1 0xE5 SHL DUP2 MSTORE PUSH1 0x20 PUSH1 0x4 DUP3 ADD MSTORE PUSH1 0x23 PUSH1 0x24 DUP3 ADD MSTORE PUSH32 0x4174206C656173742074776F20667269656E6473206D75737420626520616464 PUSH1 0x44 DUP3 ADD MSTORE PUSH3 0x32B217 PUSH1 0xE9 SHL PUSH1 0x64 DUP3 ADD MSTORE PUSH1 0x84 ADD PUSH2 0x753 JUMP JUMPDEST PUSH2 0x135E DUP3 NUMBER PUSH2 0x3378 JUMP JUMPDEST PUSH1 0xA SSTORE POP POP PUSH1 0x9 DUP1 SLOAD PUSH2 0xFFFF NOT AND PUSH2 0x101 OR SWAP1 SSTORE JUMP JUMPDEST PUSH1 0x40 MLOAD PUSH4 0x36BBDE9F PUSH1 0xE1 SHL DUP2 MSTORE PUSH1 0x20 PUSH1 0x4 DUP3 ADD MSTORE PUSH1 0xB PUSH1 0x24 DUP3 ADD MSTORE PUSH11 0x41746F6D69632043616665 PUSH1 0xA8 SHL PUSH1 0x44 DUP3 ADD MSTORE ADDRESS SWAP1 PUSH4 0x6D77BD3E SWAP1 PUSH1 0x64 ADD PUSH1 0x20 PUSH1 0x40 MLOAD DUP1 DUP4 SUB DUP2 PUSH1 0x0 DUP8 DUP1 EXTCODESIZE ISZERO DUP1 ISZERO PUSH2 0x13C8 JUMPI PUSH1 0x0 DUP1 REVERT JUMPDEST POP GAS CALL SWAP3 POP POP POP DUP1 ISZERO PUSH2 0x13F8 JUMPI POP PUSH1 0x40 DUP1 MLOAD PUSH1 0x1F RETURNDATASIZE SWAP1 DUP2 ADD PUSH1 0x1F NOT AND DUP3 ADD SWAP1 SWAP3 MSTORE PUSH2 0x13F5 SWAP2 DUP2 ADD SWAP1 PUSH2 0x2CC3 JUMP JUMPDEST PUSH1 0x1 JUMPDEST PUSH2 0x1583 JUMPI PUSH2 0x1404 PUSH2 0x349D JUMP JUMPDEST DUP1 PUSH4 0x8C379A0 EQ ISZERO PUSH2 0x145B JUMPI POP PUSH2 0x1419 PUSH2 0x34B9 JUMP JUMPDEST DUP1 PUSH2 0x1424 JUMPI POP PUSH2 0x14F1 JUMP JUMPDEST PUSH1 0x40 MLOAD PUSH4 0x7461658B PUSH1 0xE1 SHL DUP2 MSTORE PUSH20 0x0 SWAP1 PUSH4 0xE8C2CB16 SWAP1 PUSH2 0x595 SWAP1 DUP5 SWAP1 PUSH1 0x4 ADD PUSH2 0x2EE2 JUMP JUMPDEST PUSH4 0x4E487B71 EQ ISZERO PUSH2 0x14F1 JUMPI PUSH2 0x146E PUSH2 0x3543 JUMP JUMPDEST SWAP1 PUSH2 0x1479 JUMPI POP PUSH2 0x14F1 JUMP JUMPDEST PUSH1 0x40 DUP1 MLOAD PUSH4 0x39DF137F PUSH1 0xE0 SHL DUP2 MSTORE PUSH1 0x0 PUSH1 0x4 DUP3 ADD MSTORE PUSH1 0x24 DUP2 ADD SWAP2 SWAP1 SWAP2 MSTORE PUSH1 0x21 PUSH1 0x44 DUP3 ADD MSTORE PUSH32 0x4661696C656420756E65787065637465642077697468206572726F7220636F64 PUSH1 0x64 DUP3 ADD MSTORE PUSH1 0x65 PUSH1 0xF8 SHL PUSH1 0x84 DUP3 ADD MSTORE PUSH20 0x0 SWAP1 PUSH4 0x39DF137F SWAP1 PUSH1 0xA4 ADD PUSH2 0x595 JUMP JUMPDEST RETURNDATASIZE DUP1 DUP1 ISZERO PUSH2 0x151B JUMPI PUSH1 0x40 MLOAD SWAP2 POP PUSH1 0x1F NOT PUSH1 0x3F RETURNDATASIZE ADD AND DUP3 ADD PUSH1 0x40 MSTORE RETURNDATASIZE DUP3 MSTORE RETURNDATASIZE PUSH1 0x0 PUSH1 0x20 DUP5 ADD RETURNDATACOPY PUSH2 0x1520 JUMP JUMPDEST PUSH1 0x60 SWAP2 POP JUMPDEST POP PUSH1 0x40 DUP1 MLOAD PUSH4 0x39DF137F PUSH1 0xE0 SHL DUP2 MSTORE PUSH1 0x0 PUSH1 0x4 DUP3 ADD MSTORE PUSH1 0x24 DUP2 ADD SWAP2 SWAP1 SWAP2 MSTORE PUSH1 0x11 PUSH1 0x44 DUP3 ADD MSTORE PUSH17 0x11985A5B1959081D5B995E1C1958DD1959 PUSH1 0x7A SHL PUSH1 0x64 DUP3 ADD MSTORE PUSH20 0x0 SWAP1 PUSH4 0x39DF137F SWAP1 PUSH1 0x84 ADD PUSH2 0x595 JUMP JUMPDEST PUSH1 0x40 MLOAD PUSH4 0x2B080AF1 PUSH1 0xE1 SHL DUP2 MSTORE PUSH20 0x0 SWAP1 PUSH4 0x561015E2 SWAP1 PUSH2 0x595 SWAP1 DUP5 SWAP1 PUSH1 0x3 SWAP1 PUSH1 0x4 ADD PUSH2 0x332F JUMP JUMPDEST PUSH1 0xB SLOAD PUSH1 0x0 SWAP1 PUSH1 0xFF AND ISZERO PUSH2 0x15E3 JUMPI PUSH1 0x40 MLOAD PUSH3 0x461BCD PUSH1 0xE5 SHL DUP2 MSTORE PUSH1 0x4 ADD PUSH2 0x753 SWAP1 PUSH2 0x3264 JUMP JUMPDEST PUSH1 0x5 SLOAD PUSH1 0x1 PUSH1 0x1 PUSH1 0xA0 SHL SUB AND CALLER EQ PUSH2 0x160D JUMPI PUSH1 0x40 MLOAD PUSH3 0x461BCD PUSH1 0xE5 SHL DUP2 MSTORE PUSH1 0x4 ADD PUSH2 0x753 SWAP1 PUSH2 0x3294 JUMP JUMPDEST PUSH1 0x0 DUP1 PUSH1 0x9 SLOAD PUSH2 0x100 SWAP1 DIV PUSH1 0xFF AND PUSH1 0x2 DUP2 GT ISZERO PUSH2 0x162C JUMPI PUSH2 0x162C PUSH2 0x3471 JUMP JUMPDEST EQ PUSH2 0x1649 JUMPI PUSH1 0x40 MLOAD PUSH3 0x461BCD PUSH1 0xE5 SHL DUP2 MSTORE PUSH1 0x4 ADD PUSH2 0x753 SWAP1 PUSH2 0x32A6 JUMP JUMPDEST PUSH2 0x1652 DUP4 PUSH2 0x1731 JUMP JUMPDEST SWAP4 SWAP3 POP POP POP JUMP JUMPDEST PUSH1 0x11 SLOAD PUSH1 0x40 DUP1 MLOAD PUSH4 0x3B9F708D PUSH1 0xE0 SHL DUP2 MSTORE PUSH1 0x1 PUSH1 0x1 PUSH1 0xA0 SHL SUB SWAP1 SWAP3 AND PUSH1 0x4 DUP4 ADD MSTORE PUSH1 0x24 DUP3 ADD MSTORE PUSH1 0x7 PUSH1 0x44 DUP3 ADD MSTORE PUSH7 0x44616E69656C73 PUSH1 0xC8 SHL PUSH1 0x64 DUP3 ADD MSTORE ADDRESS SWAP1 PUSH4 0x3B9F708D SWAP1 PUSH1 0x84 ADD PUSH1 0x20 PUSH1 0x40 MLOAD DUP1 DUP4 SUB DUP2 PUSH1 0x0 DUP8 DUP1 EXTCODESIZE ISZERO DUP1 ISZERO PUSH2 0x16BB JUMPI PUSH1 0x0 DUP1 REVERT JUMPDEST POP GAS CALL SWAP3 POP POP POP DUP1 ISZERO PUSH2 0x16EB JUMPI POP PUSH1 0x40 DUP1 MLOAD PUSH1 0x1F RETURNDATASIZE SWAP1 DUP2 ADD PUSH1 0x1F NOT AND DUP3 ADD SWAP1 SWAP3 MSTORE PUSH2 0x16E8 SWAP2 DUP2 ADD SWAP1 PUSH2 0x2CC3 JUMP JUMPDEST PUSH1 0x1 JUMPDEST PUSH2 0x16F7 JUMPI PUSH2 0x1404 PUSH2 0x349D JUMP JUMPDEST PUSH1 0x40 MLOAD PUSH4 0x2B080AF1 PUSH1 0xE1 SHL DUP2 MSTORE PUSH20 0x0 SWAP1 PUSH4 0x561015E2 SWAP1 PUSH2 0x595 SWAP1 DUP5 SWAP1 PUSH1 0x5 SWAP1 PUSH1 0x4 ADD PUSH2 0x332F JUMP JUMPDEST PUSH1 0xB SLOAD PUSH1 0x0 SWAP1 PUSH1 0xFF AND ISZERO PUSH2 0x1757 JUMPI PUSH1 0x40 MLOAD PUSH3 0x461BCD PUSH1 0xE5 SHL DUP2 MSTORE PUSH1 0x4 ADD PUSH2 0x753 SWAP1 PUSH2 0x3264 JUMP JUMPDEST PUSH1 0x0 DUP1 PUSH1 0x9 SLOAD PUSH2 0x100 SWAP1 DIV PUSH1 0xFF AND PUSH1 0x2 DUP2 GT ISZERO PUSH2 0x1776 JUMPI PUSH2 0x1776 PUSH2 0x3471 JUMP JUMPDEST EQ PUSH2 0x1793 JUMPI PUSH1 0x40 MLOAD PUSH3 0x461BCD PUSH1 0xE5 SHL DUP2 MSTORE PUSH1 0x4 ADD PUSH2 0x753 SWAP1 PUSH2 0x32A6 JUMP JUMPDEST PUSH1 0x0 DUP4 PUSH1 0x40 MLOAD PUSH1 0x20 ADD PUSH2 0x17A6 SWAP2 SWAP1 PUSH2 0x2D81 JUMP JUMPDEST PUSH1 0x40 DUP1 MLOAD PUSH1 0x1F NOT DUP2 DUP5 SUB ADD DUP2 MSTORE SWAP2 DUP2 MSTORE DUP2 MLOAD PUSH1 0x20 SWAP3 DUP4 ADD KECCAK256 PUSH1 0x0 DUP2 DUP2 MSTORE PUSH1 0xC SWAP1 SWAP4 MSTORE SWAP2 KECCAK256 SLOAD SWAP1 SWAP2 POP PUSH1 0xFF AND ISZERO PUSH2 0x17EE JUMPI PUSH1 0x40 MLOAD PUSH3 0x461BCD PUSH1 0xE5 SHL DUP2 MSTORE PUSH1 0x4 ADD PUSH2 0x753 SWAP1 PUSH2 0x32B8 JUMP JUMPDEST PUSH1 0x2 DUP1 SLOAD SWAP1 PUSH1 0x0 PUSH2 0x17FE DUP4 PUSH2 0x3440 JUMP JUMPDEST SWAP1 SWAP2 SSTORE POP POP PUSH1 0x2 SLOAD PUSH1 0x0 SWAP1 DUP2 MSTORE PUSH1 0x20 DUP2 DUP2 MSTORE PUSH1 0x40 SWAP1 SWAP2 KECCAK256 DUP6 MLOAD PUSH2 0x1823 SWAP3 DUP8 ADD SWAP1 PUSH2 0x2A41 JUMP JUMPDEST POP PUSH1 0x0 SWAP1 DUP2 MSTORE PUSH1 0xC PUSH1 0x20 MSTORE PUSH1 0x40 SWAP1 KECCAK256 DUP1 SLOAD PUSH1 0xFF NOT AND PUSH1 0x1 OR SWAP1 SSTORE PUSH1 0x2 SLOAD SWAP2 POP POP SWAP2 SWAP1 POP JUMP JUMPDEST PUSH1 0x40 MLOAD PUSH4 0xCE88B145 PUSH1 0xE0 SHL DUP2 MSTORE PUSH1 0x0 PUSH1 0x4 DUP3 ADD MSTORE PUSH20 0x0 SWAP1 PUSH4 0xCE88B145 SWAP1 PUSH1 0x24 ADD PUSH1 0x20 PUSH1 0x40 MLOAD DUP1 DUP4 SUB DUP2 DUP7 DUP1 EXTCODESIZE ISZERO DUP1 ISZERO PUSH2 0x1893 JUMPI PUSH1 0x0 DUP1 REVERT JUMPDEST POP GAS DELEGATECALL ISZERO DUP1 ISZERO PUSH2 0x18A7 JUMPI RETURNDATASIZE PUSH1 0x0 DUP1 RETURNDATACOPY RETURNDATASIZE PUSH1 0x0 REVERT JUMPDEST POP POP POP POP PUSH1 0x40 MLOAD RETURNDATASIZE PUSH1 0x1F NOT PUSH1 0x1F DUP3 ADD AND DUP3 ADD DUP1 PUSH1 0x40 MSTORE POP DUP2 ADD SWAP1 PUSH2 0x18CB SWAP2 SWAP1 PUSH2 0x2BE6 JUMP JUMPDEST PUSH1 0xD DUP1 SLOAD PUSH1 0x1 PUSH1 0x1 PUSH1 0xA0 SHL SUB NOT AND PUSH1 0x1 PUSH1 0x1 PUSH1 0xA0 SHL SUB SWAP3 SWAP1 SWAP3 AND SWAP2 SWAP1 SWAP2 OR SWAP1 SSTORE PUSH1 0x40 MLOAD PUSH4 0xCE88B145 PUSH1 0xE0 SHL DUP2 MSTORE PUSH1 0x1 PUSH1 0x4 DUP3 ADD MSTORE PUSH20 0x0 SWAP1 PUSH4 0xCE88B145 SWAP1 PUSH1 0x24 ADD PUSH1 0x20 PUSH1 0x40 MLOAD DUP1 DUP4 SUB DUP2 DUP7 DUP1 EXTCODESIZE ISZERO DUP1 ISZERO PUSH2 0x1936 JUMPI PUSH1 0x0 DUP1 REVERT JUMPDEST POP GAS DELEGATECALL ISZERO DUP1 ISZERO PUSH2 0x194A JUMPI RETURNDATASIZE PUSH1 0x0 DUP1 RETURNDATACOPY RETURNDATASIZE PUSH1 0x0 REVERT JUMPDEST POP POP POP POP PUSH1 0x40 MLOAD RETURNDATASIZE PUSH1 0x1F NOT PUSH1 0x1F DUP3 ADD AND DUP3 ADD DUP1 PUSH1 0x40 MSTORE POP DUP2 ADD SWAP1 PUSH2 0x196E SWAP2 SWAP1 PUSH2 0x2BE6 JUMP JUMPDEST PUSH1 0xE DUP1 SLOAD PUSH1 0x1 PUSH1 0x1 PUSH1 0xA0 SHL SUB NOT AND PUSH1 0x1 PUSH1 0x1 PUSH1 0xA0 SHL SUB SWAP3 SWAP1 SWAP3 AND SWAP2 SWAP1 SWAP2 OR SWAP1 SSTORE PUSH1 0x40 MLOAD PUSH4 0xCE88B145 PUSH1 0xE0 SHL DUP2 MSTORE PUSH1 0x2 PUSH1 0x4 DUP3 ADD MSTORE PUSH20 0x0 SWAP1 PUSH4 0xCE88B145 SWAP1 PUSH1 0x24 ADD PUSH1 0x20 PUSH1 0x40 MLOAD DUP1 DUP4 SUB DUP2 DUP7 DUP1 EXTCODESIZE ISZERO DUP1 ISZERO PUSH2 0x19D9 JUMPI PUSH1 0x0 DUP1 REVERT JUMPDEST POP GAS DELEGATECALL ISZERO DUP1 ISZERO PUSH2 0x19ED JUMPI RETURNDATASIZE PUSH1 0x0 DUP1 RETURNDATACOPY RETURNDATASIZE PUSH1 0x0 REVERT JUMPDEST POP POP POP POP PUSH1 0x40 MLOAD RETURNDATASIZE PUSH1 0x1F NOT PUSH1 0x1F DUP3 ADD AND DUP3 ADD DUP1 PUSH1 0x40 MSTORE POP DUP2 ADD SWAP1 PUSH2 0x1A11 SWAP2 SWAP1 PUSH2 0x2BE6 JUMP JUMPDEST PUSH1 0xF DUP1 SLOAD PUSH1 0x1 PUSH1 0x1 PUSH1 0xA0 SHL SUB NOT AND PUSH1 0x1 PUSH1 0x1 PUSH1 0xA0 SHL SUB SWAP3 SWAP1 SWAP3 AND SWAP2 SWAP1 SWAP2 OR SWAP1 SSTORE PUSH1 0x40 MLOAD PUSH4 0xCE88B145 PUSH1 0xE0 SHL DUP2 MSTORE PUSH1 0x3 PUSH1 0x4 DUP3 ADD MSTORE PUSH20 0x0 SWAP1 PUSH4 0xCE88B145 SWAP1 PUSH1 0x24 ADD PUSH1 0x20 PUSH1 0x40 MLOAD DUP1 DUP4 SUB DUP2 DUP7 DUP1 EXTCODESIZE ISZERO DUP1 ISZERO PUSH2 0x1A7C JUMPI PUSH1 0x0 DUP1 REVERT JUMPDEST POP GAS DELEGATECALL ISZERO DUP1 ISZERO PUSH2 0x1A90 JUMPI RETURNDATASIZE PUSH1 0x0 DUP1 RETURNDATACOPY RETURNDATASIZE PUSH1 0x0 REVERT JUMPDEST POP POP POP POP PUSH1 0x40 MLOAD RETURNDATASIZE PUSH1 0x1F NOT PUSH1 0x1F DUP3 ADD AND DUP3 ADD DUP1 PUSH1 0x40 MSTORE POP DUP2 ADD SWAP1 PUSH2 0x1AB4 SWAP2 SWAP1 PUSH2 0x2BE6 JUMP JUMPDEST PUSH1 0x10 DUP1 SLOAD PUSH1 0x1 PUSH1 0x1 PUSH1 0xA0 SHL SUB NOT AND PUSH1 0x1 PUSH1 0x1 PUSH1 0xA0 SHL SUB SWAP3 SWAP1 SWAP3 AND SWAP2 SWAP1 SWAP2 OR SWAP1 SSTORE PUSH1 0x40 MLOAD PUSH4 0xCE88B145 PUSH1 0xE0 SHL DUP2 MSTORE PUSH1 0x4 DUP1 DUP3 ADD MSTORE PUSH20 0x0 SWAP1 PUSH4 0xCE88B145 SWAP1 PUSH1 0x24 ADD PUSH1 0x20 PUSH1 0x40 MLOAD DUP1 DUP4 SUB DUP2 DUP7 DUP1 EXTCODESIZE ISZERO DUP1 ISZERO PUSH2 0x1B1E JUMPI PUSH1 0x0 DUP1 REVERT JUMPDEST POP GAS DELEGATECALL ISZERO DUP1 ISZERO PUSH2 0x1B32 JUMPI RETURNDATASIZE PUSH1 0x0 DUP1 RETURNDATACOPY RETURNDATASIZE PUSH1 0x0 REVERT JUMPDEST POP POP POP POP PUSH1 0x40 MLOAD RETURNDATASIZE PUSH1 0x1F NOT PUSH1 0x1F DUP3 ADD AND DUP3 ADD DUP1 PUSH1 0x40 MSTORE POP DUP2 ADD SWAP1 PUSH2 0x1B56 SWAP2 SWAP1 PUSH2 0x2BE6 JUMP JUMPDEST PUSH1 0x11 DUP1 SLOAD PUSH1 0x1 PUSH1 0x1 PUSH1 0xA0 SHL SUB NOT AND PUSH1 0x1 PUSH1 0x1 PUSH1 0xA0 SHL SUB SWAP3 SWAP1 SWAP3 AND SWAP2 SWAP1 SWAP2 OR SWAP1 SSTORE JUMP JUMPDEST PUSH1 0xD SLOAD PUSH1 0x40 DUP1 MLOAD DUP1 DUP3 ADD SWAP1 SWAP2 MSTORE PUSH1 0x5 DUP2 MSTORE PUSH5 0x416C696365 PUSH1 0xD8 SHL PUSH1 0x20 DUP3 ADD MSTORE PUSH20 0x0 SWAP2 PUSH4 0xABCD7960 SWAP2 PUSH2 0x1BC6 SWAP2 PUSH1 0x1 PUSH1 0x1 PUSH1 0xA0 SHL SUB AND SWAP1 PUSH2 0x116D JUMP JUMPDEST PUSH1 0x40 MLOAD PUSH1 0x1 PUSH1 0x1 PUSH1 0xE0 SHL SUB NOT PUSH1 0xE0 DUP5 SWAP1 SHL AND DUP2 MSTORE PUSH1 0x4 DUP2 ADD SWAP2 SWAP1 SWAP2 MSTORE PUSH1 0x1 PUSH1 0x24 DUP3 ADD MSTORE PUSH1 0x60 PUSH1 0x44 DUP3 ADD MSTORE PUSH1 0x14 PUSH1 0x64 DUP3 ADD MSTORE PUSH20 0x53686F756C6420626520657175616C20746F2031 PUSH1 0x60 SHL PUSH1 0x84 DUP3 ADD MSTORE PUSH1 0xA4 ADD PUSH1 0x20 PUSH1 0x40 MLOAD DUP1 DUP4 SUB DUP2 DUP7 DUP1 EXTCODESIZE ISZERO DUP1 ISZERO PUSH2 0x1C2F JUMPI PUSH1 0x0 DUP1 REVERT JUMPDEST POP GAS DELEGATECALL ISZERO DUP1 ISZERO PUSH2 0x1C43 JUMPI RETURNDATASIZE PUSH1 0x0 DUP1 RETURNDATACOPY RETURNDATASIZE PUSH1 0x0 REVERT JUMPDEST POP POP POP POP PUSH1 0x40 MLOAD RETURNDATASIZE PUSH1 0x1F NOT PUSH1 0x1F DUP3 ADD AND DUP3 ADD DUP1 PUSH1 0x40 MSTORE POP DUP2 ADD SWAP1 PUSH2 0x1C67 SWAP2 SWAP1 PUSH2 0x2C53 JUMP JUMPDEST POP PUSH1 0xE SLOAD PUSH1 0x40 DUP1 MLOAD DUP1 DUP3 ADD SWAP1 SWAP2 MSTORE PUSH1 0x3 DUP2 MSTORE PUSH3 0x2137B1 PUSH1 0xE9 SHL PUSH1 0x20 DUP3 ADD MSTORE PUSH20 0x0 SWAP2 PUSH4 0xABCD7960 SWAP2 PUSH2 0x1CB4 SWAP2 PUSH1 0x1 PUSH1 0x1 PUSH1 0xA0 SHL SUB AND SWAP1 PUSH2 0x116D JUMP JUMPDEST PUSH1 0x40 MLOAD PUSH1 0x1 PUSH1 0x1 PUSH1 0xE0 SHL SUB NOT PUSH1 0xE0 DUP5 SWAP1 SHL AND DUP2 MSTORE PUSH1 0x4 DUP2 ADD SWAP2 SWAP1 SWAP2 MSTORE PUSH1 0x2 PUSH1 0x24 DUP3 ADD MSTORE PUSH1 0x60 PUSH1 0x44 DUP3 ADD MSTORE PUSH1 0x14 PUSH1 0x64 DUP3 ADD MSTORE PUSH20 0x29B437BAB6321031329032B8BAB0B6103A379019 PUSH1 0x61 SHL PUSH1 0x84 DUP3 ADD MSTORE PUSH1 0xA4 ADD PUSH1 0x20 PUSH1 0x40 MLOAD DUP1 DUP4 SUB DUP2 DUP7 DUP1 EXTCODESIZE ISZERO DUP1 ISZERO PUSH2 0x1D1D JUMPI PUSH1 0x0 DUP1 REVERT JUMPDEST POP GAS DELEGATECALL ISZERO DUP1 ISZERO PUSH2 0x1D31 JUMPI RETURNDATASIZE PUSH1 0x0 DUP1 RETURNDATACOPY RETURNDATASIZE PUSH1 0x0 REVERT JUMPDEST POP POP POP POP PUSH1 0x40 MLOAD RETURNDATASIZE PUSH1 0x1F NOT PUSH1 0x1F DUP3 ADD AND DUP3 ADD DUP1 PUSH1 0x40 MSTORE POP DUP2 ADD SWAP1 PUSH2 0x1D55 SWAP2 SWAP1 PUSH2 0x2C53 JUMP JUMPDEST POP PUSH1 0xF SLOAD PUSH1 0x40 DUP1 MLOAD DUP1 DUP3 ADD SWAP1 SWAP2 MSTORE PUSH1 0x7 DUP2 MSTORE PUSH7 0x436861726C6965 PUSH1 0xC8 SHL PUSH1 0x20 DUP3 ADD MSTORE PUSH20 0x0 SWAP2 PUSH4 0xABCD7960 SWAP2 PUSH2 0x1DA6 SWAP2 PUSH1 0x1 PUSH1 0x1 PUSH1 0xA0 SHL SUB AND SWAP1 PUSH2 0x116D JUMP JUMPDEST PUSH1 0x40 MLOAD PUSH1 0x1 PUSH1 0x1 PUSH1 0xE0 SHL SUB NOT PUSH1 0xE0 DUP5 SWAP1 SHL AND DUP2 MSTORE PUSH1 0x4 DUP2 ADD SWAP2 SWAP1 SWAP2 MSTORE PUSH1 0x3 PUSH1 0x24 DUP3 ADD MSTORE PUSH1 0x60 PUSH1 0x44 DUP3 ADD MSTORE PUSH1 0x14 PUSH1 0x64 DUP3 ADD MSTORE PUSH20 0x53686F756C6420626520657175616C20746F2033 PUSH1 0x60 SHL PUSH1 0x84 DUP3 ADD MSTORE PUSH1 0xA4 ADD PUSH1 0x20 PUSH1 0x40 MLOAD DUP1 DUP4 SUB DUP2 DUP7 DUP1 EXTCODESIZE ISZERO DUP1 ISZERO PUSH2 0x1E0F JUMPI PUSH1 0x0 DUP1 REVERT JUMPDEST POP GAS DELEGATECALL ISZERO DUP1 ISZERO PUSH2 0x1E23 JUMPI RETURNDATASIZE PUSH1 0x0 DUP1 RETURNDATACOPY RETURNDATASIZE PUSH1 0x0 REVERT JUMPDEST POP POP POP POP PUSH1 0x40 MLOAD RETURNDATASIZE PUSH1 0x1F NOT PUSH1 0x1F DUP3 ADD AND DUP3 ADD DUP1 PUSH1 0x40 MSTORE POP DUP2 ADD SWAP1 PUSH2 0x1E47 SWAP2 SWAP1 PUSH2 0x2C53 JUMP JUMPDEST POP PUSH1 0x10 SLOAD PUSH1 0x40 DUP1 MLOAD DUP1 DUP3 ADD SWAP1 SWAP2 MSTORE PUSH1 0x3 DUP2 MSTORE PUSH3 0x457665 PUSH1 0xE8 SHL PUSH1 0x20 DUP3 ADD MSTORE PUSH20 0x0 SWAP2 PUSH4 0xABCD7960 SWAP2 PUSH2 0x1E94 SWAP2 PUSH1 0x1 PUSH1 0x1 PUSH1 0xA0 SHL SUB AND SWAP1 PUSH2 0x116D JUMP JUMPDEST PUSH1 0x4 PUSH1 0x40 MLOAD DUP4 PUSH4 0xFFFFFFFF AND PUSH1 0xE0 SHL DUP2 MSTORE PUSH1 0x4 ADD PUSH2 0x64B SWAP3 SWAP2 SWAP1 SWAP2 DUP3 MSTORE PUSH1 0x20 DUP3 ADD MSTORE PUSH1 0x60 PUSH1 0x40 DUP3 ADD DUP2 SWAP1 MSTORE PUSH1 0x14 SWAP1 DUP3 ADD MSTORE PUSH20 0x14DA1BDD5B1908189948195C5D585B081D1BC80D PUSH1 0x62 SHL PUSH1 0x80 DUP3 ADD MSTORE PUSH1 0xA0 ADD SWAP1 JUMP JUMPDEST PUSH1 0x0 PUSH2 0x1EF3 DUP3 PUSH2 0x72D JUMP JUMPDEST SWAP3 SWAP2 POP POP JUMP JUMPDEST PUSH1 0x5 SLOAD PUSH1 0xD SLOAD PUSH1 0x40 MLOAD PUSH4 0x5FDD2EEB PUSH1 0xE1 SHL DUP2 MSTORE PUSH1 0x1 PUSH1 0x1 PUSH1 0xA0 SHL SUB SWAP3 DUP4 AND PUSH1 0x4 DUP3 ADD MSTORE SWAP2 AND PUSH1 0x24 DUP3 ADD MSTORE PUSH1 0x60 PUSH1 0x44 DUP3 ADD MSTORE PUSH1 0x16 PUSH1 0x64 DUP3 ADD MSTORE PUSH22 0x4D616E616765722073686F756C64206265206163633 PUSH1 0x54 SHL PUSH1 0x84 DUP3 ADD MSTORE PUSH20 0x0 SWAP1 PUSH4 0xBFBA5DD6 SWAP1 PUSH1 0xA4 ADD PUSH2 0x64B JUMP JUMPDEST PUSH20 0x0 PUSH4 0x39DF137F PUSH2 0xC1B PUSH1 0x1 PUSH2 0x72D JUMP JUMPDEST PUSH1 0x40 MLOAD PUSH4 0x9212C63 PUSH1 0xE1 SHL DUP2 MSTORE PUSH1 0x1 PUSH1 0x4 DUP3 ADD MSTORE ADDRESS SWAP1 PUSH4 0x124258C6 SWAP1 PUSH1 0x24 ADD PUSH1 0x20 PUSH1 0x40 MLOAD DUP1 DUP4 SUB DUP2 PUSH1 0x0 DUP8 DUP1 EXTCODESIZE ISZERO DUP1 ISZERO PUSH2 0x1FD1 JUMPI PUSH1 0x0 DUP1 REVERT JUMPDEST POP GAS CALL SWAP3 POP POP POP DUP1 ISZERO PUSH2 0x2001 JUMPI POP PUSH1 0x40 DUP1 MLOAD PUSH1 0x1F RETURNDATASIZE SWAP1 DUP2 ADD PUSH1 0x1F NOT AND DUP3 ADD SWAP1 SWAP3 MSTORE PUSH2 0x1FFE SWAP2 DUP2 ADD SWAP1 PUSH2 0x2C53 JUMP JUMPDEST PUSH1 0x1 JUMPDEST PUSH2 0x2112 JUMPI PUSH2 0x200D PUSH2 0x349D JUMP JUMPDEST DUP1 PUSH4 0x8C379A0 EQ ISZERO PUSH2 0x2064 JUMPI POP PUSH2 0x2022 PUSH2 0x34B9 JUMP JUMPDEST DUP1 PUSH2 0x202D JUMPI POP PUSH2 0x207E JUMP JUMPDEST PUSH1 0x40 MLOAD PUSH4 0x7461658B PUSH1 0xE1 SHL DUP2 MSTORE PUSH20 0x0 SWAP1 PUSH4 0xE8C2CB16 SWAP1 PUSH2 0x595 SWAP1 DUP5 SWAP1 PUSH1 0x4 ADD PUSH2 0x2F44 JUMP JUMPDEST PUSH4 0x4E487B71 EQ ISZERO PUSH2 0x207E JUMPI PUSH2 0x2077 PUSH2 0x3543 JUMP JUMPDEST SWAP1 PUSH2 0x1479 JUMPI POP JUMPDEST RETURNDATASIZE DUP1 DUP1 ISZERO PUSH2 0x20A8 JUMPI PUSH1 0x40 MLOAD SWAP2 POP PUSH1 0x1F NOT PUSH1 0x3F RETURNDATASIZE ADD AND DUP3 ADD PUSH1 0x40 MSTORE RETURNDATASIZE DUP3 MSTORE RETURNDATASIZE PUSH1 0x0 PUSH1 0x20 DUP5 ADD RETURNDATACOPY PUSH2 0x20AD JUMP JUMPDEST PUSH1 0x60 SWAP2 POP JUMPDEST POP PUSH1 0x40 DUP1 MLOAD PUSH4 0x39DF137F PUSH1 0xE0 SHL DUP2 MSTORE PUSH1 0x0 PUSH1 0x4 DUP3 ADD MSTORE PUSH1 0x24 DUP2 ADD SWAP2 SWAP1 SWAP2 MSTORE PUSH1 0x13 PUSH1 0x44 DUP3 ADD MSTORE PUSH19 0x4661696C656420756E65787065637465646C79 PUSH1 0x68 SHL PUSH1 0x64 DUP3 ADD MSTORE PUSH20 0x0 SWAP1 PUSH4 0x39DF137F SWAP1 PUSH1 0x84 ADD PUSH2 0x595 JUMP JUMPDEST PUSH1 0x40 MLOAD PUSH4 0x767392B3 PUSH1 0xE0 SHL DUP2 MSTORE PUSH20 0x0 SWAP1 PUSH4 0x767392B3 SWAP1 PUSH2 0x595 SWAP1 DUP5 SWAP1 PUSH1 0x1 SWAP1 PUSH1 0x4 ADD PUSH2 0x2D9D JUMP JUMPDEST PUSH1 0x40 MLOAD PUSH4 0x7461658B PUSH1 0xE1 SHL DUP2 MSTORE PUSH20 0x0 SWAP1 PUSH4 0xE8C2CB16 SWAP1 PUSH2 0x64B SWAP1 PUSH1 0x6 SWAP1 PUSH1 0x4 ADD PUSH2 0x3120 JUMP JUMPDEST PUSH1 0x40 MLOAD PUSH4 0x9212C63 PUSH1 0xE1 SHL DUP2 MSTORE PUSH1 0x1 PUSH1 0x4 DUP3 ADD MSTORE ADDRESS SWAP1 PUSH4 0x124258C6 SWAP1 PUSH1 0x24 ADD PUSH1 0x20 PUSH1 0x40 MLOAD DUP1 DUP4 SUB DUP2 PUSH1 0x0 DUP8 DUP1 EXTCODESIZE ISZERO DUP1 ISZERO PUSH2 0x21BD JUMPI PUSH1 0x0 DUP1 REVERT JUMPDEST POP GAS CALL SWAP3 POP POP POP DUP1 ISZERO PUSH2 0x21ED JUMPI POP PUSH1 0x40 DUP1 MLOAD PUSH1 0x1F RETURNDATASIZE SWAP1 DUP2 ADD PUSH1 0x1F NOT AND DUP3 ADD SWAP1 SWAP3 MSTORE PUSH2 0x21EA SWAP2 DUP2 ADD SWAP1 PUSH2 0x2C53 JUMP JUMPDEST PUSH1 0x1 JUMPDEST PUSH2 0x2250 JUMPI PUSH2 0x21F9 PUSH2 0x349D JUMP JUMPDEST DUP1 PUSH4 0x8C379A0 EQ ISZERO PUSH2 0x5E9 JUMPI POP PUSH2 0x220E PUSH2 0x34B9 JUMP JUMPDEST DUP1 PUSH2 0x2219 JUMPI POP PUSH2 0x5EB JUMP JUMPDEST PUSH1 0x40 MLOAD PUSH4 0x7461658B PUSH1 0xE1 SHL DUP2 MSTORE PUSH20 0x0 SWAP1 PUSH4 0xE8C2CB16 SWAP1 PUSH2 0x595 SWAP1 DUP5 SWAP1 PUSH1 0x4 ADD PUSH2 0x3082 JUMP JUMPDEST PUSH1 0x40 MLOAD PUSH4 0x767392B3 PUSH1 0xE0 SHL DUP2 MSTORE DUP2 ISZERO ISZERO PUSH1 0x4 DUP3 ADD MSTORE PUSH1 0x0 PUSH1 0x24 DUP3 ADD MSTORE PUSH1 0x60 PUSH1 0x44 DUP3 ADD MSTORE PUSH1 0x1D PUSH1 0x64 DUP3 ADD MSTORE PUSH32 0x566F74696E6720726573756C742073686F756C642062652066616C7365000000 PUSH1 0x84 DUP3 ADD MSTORE PUSH20 0x0 SWAP1 PUSH4 0x767392B3 SWAP1 PUSH1 0xA4 ADD PUSH2 0x595 JUMP JUMPDEST PUSH1 0x0 PUSH1 0x20 DUP2 SWAP1 MSTORE SWAP1 DUP2 MSTORE PUSH1 0x40 SWAP1 KECCAK256 DUP1 SLOAD PUSH2 0x22DD SWAP1 PUSH2 0x33DE JUMP JUMPDEST DUP1 PUSH1 0x1F ADD PUSH1 0x20 DUP1 SWAP2 DIV MUL PUSH1 0x20 ADD PUSH1 0x40 MLOAD SWAP1 DUP2 ADD PUSH1 0x40 MSTORE DUP1 SWAP3 SWAP2 SWAP1 DUP2 DUP2 MSTORE PUSH1 0x20 ADD DUP3 DUP1 SLOAD PUSH2 0x2309 SWAP1 PUSH2 0x33DE JUMP JUMPDEST DUP1 ISZERO PUSH2 0x2356 JUMPI DUP1 PUSH1 0x1F LT PUSH2 0x232B JUMPI PUSH2 0x100 DUP1 DUP4 SLOAD DIV MUL DUP4 MSTORE SWAP2 PUSH1 0x20 ADD SWAP2 PUSH2 0x2356 JUMP JUMPDEST DUP3 ADD SWAP2 SWAP1 PUSH1 0x0 MSTORE PUSH1 0x20 PUSH1 0x0 KECCAK256 SWAP1 JUMPDEST DUP2 SLOAD DUP2 MSTORE SWAP1 PUSH1 0x1 ADD SWAP1 PUSH1 0x20 ADD DUP1 DUP4 GT PUSH2 0x2339 JUMPI DUP3 SWAP1 SUB PUSH1 0x1F AND DUP3 ADD SWAP2 JUMPDEST POP POP POP POP POP DUP2 JUMP JUMPDEST PUSH1 0x9 SLOAD PUSH1 0x40 MLOAD PUSH4 0x767392B3 PUSH1 0xE0 SHL DUP2 MSTORE PUSH1 0xFF SWAP1 SWAP2 AND ISZERO ISZERO PUSH1 0x4 DUP3 ADD MSTORE PUSH1 0x0 PUSH1 0x24 DUP3 ADD MSTORE PUSH1 0x60 PUSH1 0x44 DUP3 ADD MSTORE PUSH1 0x17 PUSH1 0x64 DUP3 ADD MSTORE PUSH32 0x566F74696E672073686F756C6420626520636C6F736564000000000000000000 PUSH1 0x84 DUP3 ADD MSTORE PUSH20 0x0 SWAP1 PUSH4 0x767392B3 SWAP1 PUSH1 0xA4 ADD PUSH2 0x64B JUMP JUMPDEST PUSH1 0x6 DUP1 SLOAD PUSH2 0x22DD SWAP1 PUSH2 0x33DE JUMP JUMPDEST PUSH1 0xB SLOAD PUSH1 0xFF AND ISZERO PUSH2 0x2409 JUMPI PUSH1 0x40 MLOAD PUSH3 0x461BCD PUSH1 0xE5 SHL DUP2 MSTORE PUSH1 0x4 ADD PUSH2 0x753 SWAP1 PUSH2 0x3264 JUMP JUMPDEST PUSH1 0x5 SLOAD PUSH1 0x1 PUSH1 0x1 PUSH1 0xA0 SHL SUB AND CALLER EQ PUSH2 0x2433 JUMPI PUSH1 0x40 MLOAD PUSH3 0x461BCD PUSH1 0xE5 SHL DUP2 MSTORE PUSH1 0x4 ADD PUSH2 0x753 SWAP1 PUSH2 0x3294 JUMP JUMPDEST PUSH1 0x1 PUSH1 0x9 SLOAD PUSH2 0x100 SWAP1 DIV PUSH1 0xFF AND PUSH1 0x2 DUP2 GT ISZERO PUSH2 0x2451 JUMPI PUSH2 0x2451 PUSH2 0x3471 JUMP JUMPDEST EQ PUSH2 0x2495 JUMPI PUSH1 0x40 MLOAD PUSH3 0x461BCD PUSH1 0xE5 SHL DUP2 MSTORE PUSH1 0x20 PUSH1 0x4 DUP3 ADD MSTORE PUSH1 0x14 PUSH1 0x24 DUP3 ADD MSTORE PUSH20 0x2737BA1034B7103B37BA34B73390383430B9B297 PUSH1 0x61 SHL PUSH1 0x44 DUP3 ADD MSTORE PUSH1 0x64 ADD PUSH2 0x753 JUMP JUMPDEST PUSH2 0x72B PUSH2 0x292F JUMP JUMPDEST PUSH1 0x40 MLOAD PUSH4 0x781A38A3 PUSH1 0xE0 SHL DUP2 MSTORE PUSH1 0x20 PUSH1 0x4 DUP3 ADD MSTORE PUSH1 0xE PUSH1 0x24 DUP3 ADD MSTORE PUSH14 0x436F757274796172642043616665 PUSH1 0x90 SHL PUSH1 0x44 DUP3 ADD MSTORE ADDRESS SWAP1 PUSH4 0x781A38A3 SWAP1 PUSH1 0x64 ADD PUSH1 0x20 PUSH1 0x40 MLOAD DUP1 DUP4 SUB DUP2 PUSH1 0x0 DUP8 DUP1 EXTCODESIZE ISZERO DUP1 ISZERO PUSH2 0x24F4 JUMPI PUSH1 0x0 DUP1 REVERT JUMPDEST POP GAS CALL SWAP3 POP POP POP DUP1 ISZERO PUSH2 0x2524 JUMPI POP PUSH1 0x40 DUP1 MLOAD PUSH1 0x1F RETURNDATASIZE SWAP1 DUP2 ADD PUSH1 0x1F NOT AND DUP3 ADD SWAP1 SWAP3 MSTORE PUSH2 0x2521 SWAP2 DUP2 ADD SWAP1 PUSH2 0x2CC3 JUMP JUMPDEST PUSH1 0x1 JUMPDEST PUSH2 0x2587 JUMPI PUSH2 0x2530 PUSH2 0x349D JUMP JUMPDEST DUP1 PUSH4 0x8C379A0 EQ ISZERO PUSH2 0x5E9 JUMPI POP PUSH2 0x2545 PUSH2 0x34B9 JUMP JUMPDEST DUP1 PUSH2 0x2550 JUMPI POP PUSH2 0x5EB JUMP JUMPDEST PUSH1 0x40 MLOAD PUSH4 0x7461658B PUSH1 0xE1 SHL DUP2 MSTORE PUSH20 0x0 SWAP1 PUSH4 0xE8C2CB16 SWAP1 PUSH2 0x595 SWAP1 DUP5 SWAP1 PUSH1 0x4 ADD PUSH2 0x2FDE JUMP JUMPDEST PUSH1 0x40 DUP1 MLOAD PUSH4 0x39DF137F PUSH1 0xE0 SHL DUP2 MSTORE PUSH1 0x0 PUSH1 0x4 DUP3 ADD MSTORE PUSH1 0x24 DUP2 ADD SWAP2 SWAP1 SWAP2 MSTORE PUSH1 0x25 PUSH1 0x44 DUP3 ADD MSTORE PUSH32 0x53686F756C64206E6F7420616C6C6F77206475706C6963617465207265737461 PUSH1 0x64 DUP3 ADD MSTORE PUSH5 0x1D5C985B9D PUSH1 0xDA SHL PUSH1 0x84 DUP3 ADD MSTORE PUSH20 0x0 SWAP1 PUSH4 0x39DF137F SWAP1 PUSH1 0xA4 ADD PUSH2 0x595 JUMP JUMPDEST PUSH2 0x260D PUSH1 0x64 PUSH2 0x120B JUMP JUMPDEST PUSH1 0x9 SLOAD PUSH20 0x0 SWAP1 PUSH4 0xABCD7960 SWAP1 PUSH2 0x100 SWAP1 DIV PUSH1 0xFF AND PUSH1 0x2 DUP2 GT ISZERO PUSH2 0x2645 JUMPI PUSH2 0x2645 PUSH2 0x3471 JUMP JUMPDEST PUSH1 0x1 PUSH1 0x40 MLOAD PUSH1 0x1 PUSH1 0x1 PUSH1 0xE0 SHL SUB NOT PUSH1 0xE0 DUP6 SWAP1 SHL AND DUP2 MSTORE PUSH1 0x4 DUP2 ADD SWAP3 SWAP1 SWAP3 MSTORE PUSH1 0x24 DUP3 ADD MSTORE PUSH1 0x60 PUSH1 0x44 DUP3 ADD MSTORE PUSH1 0x19 PUSH1 0x64 DUP3 ADD MSTORE PUSH32 0x53686F756C6420626520696E20766F74696E6720706861736500000000000000 PUSH1 0x84 DUP3 ADD MSTORE PUSH1 0xA4 ADD PUSH1 0x20 PUSH1 0x40 MLOAD DUP1 DUP4 SUB DUP2 DUP7 DUP1 EXTCODESIZE ISZERO DUP1 ISZERO PUSH2 0x26B7 JUMPI PUSH1 0x0 DUP1 REVERT JUMPDEST POP GAS DELEGATECALL ISZERO DUP1 ISZERO PUSH2 0x26CB JUMPI RETURNDATASIZE PUSH1 0x0 DUP1 RETURNDATACOPY RETURNDATASIZE PUSH1 0x0 REVERT JUMPDEST POP POP POP POP PUSH1 0x40 MLOAD RETURNDATASIZE PUSH1 0x1F NOT PUSH1 0x1F DUP3 ADD AND DUP3 ADD DUP1 PUSH1 0x40 MSTORE POP DUP2 ADD SWAP1 PUSH2 0x26EF SWAP2 SWAP1 PUSH2 0x2C53 JUMP JUMPDEST POP PUSH1 0x9 SLOAD PUSH1 0x40 MLOAD PUSH4 0x767392B3 PUSH1 0xE0 SHL DUP2 MSTORE PUSH1 0xFF SWAP1 SWAP2 AND ISZERO ISZERO PUSH1 0x4 DUP3 ADD MSTORE PUSH1 0x1 PUSH1 0x24 DUP3 ADD MSTORE PUSH1 0x60 PUSH1 0x44 DUP3 ADD MSTORE PUSH1 0x15 PUSH1 0x64 DUP3 ADD MSTORE PUSH21 0x2B37BA34B7339039B437BAB6321031329037B832B7 PUSH1 0x59 SHL PUSH1 0x84 DUP3 ADD MSTORE PUSH20 0x0 SWAP1 PUSH4 0x767392B3 SWAP1 PUSH1 0xA4 ADD PUSH2 0x64B JUMP JUMPDEST PUSH1 0xD DUP1 SLOAD PUSH1 0x40 DUP1 MLOAD PUSH4 0x16C637A1 PUSH1 0xE1 SHL DUP2 MSTORE PUSH1 0x1 PUSH1 0x1 PUSH1 0xA0 SHL SUB SWAP1 SWAP3 AND PUSH1 0x4 DUP4 ADD MSTORE PUSH1 0x24 DUP3 ADD MSTORE PUSH1 0x44 DUP2 ADD SWAP2 SWAP1 SWAP2 MSTORE PUSH13 0x416E6F7468657220416C696365 PUSH1 0x98 SHL PUSH1 0x64 DUP3 ADD MSTORE ADDRESS SWAP1 PUSH4 0x2D8C6F42 SWAP1 PUSH1 0x84 ADD PUSH1 0x20 PUSH1 0x40 MLOAD DUP1 DUP4 SUB DUP2 PUSH1 0x0 DUP8 DUP1 EXTCODESIZE ISZERO DUP1 ISZERO PUSH2 0x27CD JUMPI PUSH1 0x0 DUP1 REVERT JUMPDEST POP GAS CALL SWAP3 POP POP POP DUP1 ISZERO PUSH2 0x27FD JUMPI POP PUSH1 0x40 DUP1 MLOAD PUSH1 0x1F RETURNDATASIZE SWAP1 DUP2 ADD PUSH1 0x1F NOT AND DUP3 ADD SWAP1 SWAP3 MSTORE PUSH2 0x27FA SWAP2 DUP2 ADD SWAP1 PUSH2 0x2CC3 JUMP JUMPDEST PUSH1 0x1 JUMPDEST PUSH2 0x2860 JUMPI PUSH2 0x2809 PUSH2 0x349D JUMP JUMPDEST DUP1 PUSH4 0x8C379A0 EQ ISZERO PUSH2 0x5E9 JUMPI POP PUSH2 0x281E PUSH2 0x34B9 JUMP JUMPDEST DUP1 PUSH2 0x2829 JUMPI POP PUSH2 0x5EB JUMP JUMPDEST PUSH1 0x40 MLOAD PUSH4 0x7461658B PUSH1 0xE1 SHL DUP2 MSTORE PUSH20 0x0 SWAP1 PUSH4 0xE8C2CB16 SWAP1 PUSH2 0x595 SWAP1 DUP5 SWAP1 PUSH1 0x4 ADD PUSH2 0x2E49 JUMP JUMPDEST PUSH1 0x40 DUP1 MLOAD PUSH4 0x39DF137F PUSH1 0xE0 SHL DUP2 MSTORE PUSH1 0x0 PUSH1 0x4 DUP3 ADD MSTORE PUSH1 0x24 DUP2 ADD SWAP2 SWAP1 SWAP2 MSTORE PUSH1 0x21 PUSH1 0x44 DUP3 ADD MSTORE PUSH32 0x53686F756C64206E6F7420616C6C6F77206475706C696361746520667269656E PUSH1 0x64 DUP3 ADD MSTORE PUSH1 0x19 PUSH1 0xFA SHL PUSH1 0x84 DUP3 ADD MSTORE PUSH20 0x0 SWAP1 PUSH4 0x39DF137F SWAP1 PUSH1 0xA4 ADD PUSH2 0x595 JUMP JUMPDEST PUSH1 0x5 SLOAD PUSH1 0x1 PUSH1 0x1 PUSH1 0xA0 SHL SUB AND CALLER EQ PUSH2 0x2902 JUMPI PUSH1 0x40 MLOAD PUSH3 0x461BCD PUSH1 0xE5 SHL DUP2 MSTORE PUSH1 0x4 ADD PUSH2 0x753 SWAP1 PUSH2 0x3294 JUMP JUMPDEST PUSH1 0xB DUP1 SLOAD PUSH1 0xFF NOT SWAP1 DUP2 AND PUSH1 0x1 OR SWAP1 SWAP2 SSTORE PUSH1 0x9 DUP1 SLOAD SWAP2 DUP3 AND DUP2 SSTORE PUSH1 0x2 SWAP2 PUSH2 0xFFFF NOT AND PUSH2 0x100 DUP4 JUMPDEST MUL OR SWAP1 SSTORE POP JUMP JUMPDEST PUSH1 0x4 SLOAD ISZERO PUSH2 0x293F JUMPI PUSH2 0x293F PUSH2 0x295C JUMP JUMPDEST PUSH1 0x9 DUP1 SLOAD PUSH1 0xFF NOT DUP2 AND DUP3 SSTORE PUSH1 0x2 SWAP2 SWAP1 PUSH2 0xFFFF NOT AND PUSH2 0x100 DUP4 PUSH2 0x2928 JUMP JUMPDEST PUSH1 0x0 DUP1 PUSH1 0x1 JUMPDEST PUSH1 0x4 SLOAD DUP2 GT PUSH2 0x2A13 JUMPI PUSH1 0x0 DUP2 DUP2 MSTORE PUSH1 0x7 PUSH1 0x20 SWAP1 DUP2 MSTORE PUSH1 0x40 DUP1 DUP4 KECCAK256 PUSH1 0x1 SWAP1 DUP2 ADD SLOAD DUP5 MSTORE PUSH1 0x8 SWAP1 SWAP3 MSTORE SWAP1 SWAP2 KECCAK256 SLOAD ISZERO PUSH2 0x29BE JUMPI PUSH1 0x0 DUP3 DUP2 MSTORE PUSH1 0x7 PUSH1 0x20 SWAP1 DUP2 MSTORE PUSH1 0x40 DUP1 DUP4 KECCAK256 PUSH1 0x1 ADD SLOAD DUP4 MSTORE PUSH1 0x8 SWAP1 SWAP2 MSTORE SWAP1 KECCAK256 SLOAD PUSH2 0x29BB SWAP1 DUP3 PUSH2 0x3378 JUMP JUMPDEST SWAP1 POP JUMPDEST PUSH1 0x0 DUP3 DUP2 MSTORE PUSH1 0x7 PUSH1 0x20 SWAP1 DUP2 MSTORE PUSH1 0x40 DUP1 DUP4 KECCAK256 PUSH1 0x1 ADD SLOAD DUP4 MSTORE PUSH1 0x8 SWAP1 SWAP2 MSTORE SWAP1 KECCAK256 DUP2 SWAP1 SSTORE DUP4 DUP2 GT ISZERO PUSH2 0x2A00 JUMPI PUSH1 0x0 DUP3 DUP2 MSTORE PUSH1 0x7 PUSH1 0x20 MSTORE PUSH1 0x40 SWAP1 KECCAK256 PUSH1 0x1 ADD SLOAD SWAP1 SWAP4 POP SWAP2 POP DUP3 JUMPDEST POP DUP1 PUSH2 0x2A0B DUP2 PUSH2 0x3440 JUMP JUMPDEST SWAP2 POP POP PUSH2 0x2962 JUMP JUMPDEST POP PUSH1 0x0 DUP2 DUP2 MSTORE PUSH1 0x20 DUP2 SWAP1 MSTORE PUSH1 0x40 SWAP1 KECCAK256 DUP1 SLOAD PUSH1 0x6 SWAP2 SWAP1 PUSH2 0x2A31 SWAP1 PUSH2 0x33DE JUMP JUMPDEST PUSH2 0x2A3C SWAP3 SWAP2 SWAP1 PUSH2 0x2AC5 JUMP JUMPDEST POP POP POP JUMP JUMPDEST DUP3 DUP1 SLOAD PUSH2 0x2A4D SWAP1 PUSH2 0x33DE JUMP JUMPDEST SWAP1 PUSH1 0x0 MSTORE PUSH1 0x20 PUSH1 0x0 KECCAK256 SWAP1 PUSH1 0x1F ADD PUSH1 0x20 SWAP1 DIV DUP2 ADD SWAP3 DUP3 PUSH2 0x2A6F JUMPI PUSH1 0x0 DUP6 SSTORE PUSH2 0x2AB5 JUMP JUMPDEST DUP3 PUSH1 0x1F LT PUSH2 0x2A88 JUMPI DUP1 MLOAD PUSH1 0xFF NOT AND DUP4 DUP1 ADD OR DUP6 SSTORE PUSH2 0x2AB5 JUMP JUMPDEST DUP3 DUP1 ADD PUSH1 0x1 ADD DUP6 SSTORE DUP3 ISZERO PUSH2 0x2AB5 JUMPI SWAP2 DUP3 ADD JUMPDEST DUP3 DUP2 GT ISZERO PUSH2 0x2AB5 JUMPI DUP3 MLOAD DUP3 SSTORE SWAP2 PUSH1 0x20 ADD SWAP2 SWAP1 PUSH1 0x1 ADD SWAP1 PUSH2 0x2A9A JUMP JUMPDEST POP PUSH2 0x2AC1 SWAP3 SWAP2 POP PUSH2 0x2B40 JUMP JUMPDEST POP SWAP1 JUMP JUMPDEST DUP3 DUP1 SLOAD PUSH2 0x2AD1 SWAP1 PUSH2 0x33DE JUMP JUMPDEST SWAP1 PUSH1 0x0 MSTORE PUSH1 0x20 PUSH1 0x0 KECCAK256 SWAP1 PUSH1 0x1F ADD PUSH1 0x20 SWAP1 DIV DUP2 ADD SWAP3 DUP3 PUSH2 0x2AF3 JUMPI PUSH1 0x0 DUP6 SSTORE PUSH2 0x2AB5 JUMP JUMPDEST DUP3 PUSH1 0x1F LT PUSH2 0x2B04 JUMPI DUP1 SLOAD DUP6 SSTORE PUSH2 0x2AB5 JUMP JUMPDEST DUP3 DUP1 ADD PUSH1 0x1 ADD DUP6 SSTORE DUP3 ISZERO PUSH2 0x2AB5 JUMPI PUSH1 0x0 MSTORE PUSH1 0x20 PUSH1 0x0 KECCAK256 SWAP2 PUSH1 0x1F ADD PUSH1 0x20 SWAP1 DIV DUP3 ADD JUMPDEST DUP3 DUP2 GT ISZERO PUSH2 0x2AB5 JUMPI DUP3 SLOAD DUP3 SSTORE SWAP2 PUSH1 0x1 ADD SWAP2 SWAP1 PUSH1 0x1 ADD SWAP1 PUSH2 0x2B25 JUMP JUMPDEST JUMPDEST DUP1 DUP3 GT ISZERO PUSH2 0x2AC1 JUMPI PUSH1 0x0 DUP2 SSTORE PUSH1 0x1 ADD PUSH2 0x2B41 JUMP JUMPDEST PUSH1 0x0 DUP3 PUSH1 0x1F DUP4 ADD SLT PUSH2 0x2B66 JUMPI PUSH1 0x0 DUP1 REVERT JUMPDEST DUP2 CALLDATALOAD PUSH8 0xFFFFFFFFFFFFFFFF DUP2 GT ISZERO PUSH2 0x2B80 JUMPI PUSH2 0x2B80 PUSH2 0x3487 JUMP JUMPDEST PUSH1 0x40 MLOAD PUSH2 0x2B97 PUSH1 0x1F DUP4 ADD PUSH1 0x1F NOT AND PUSH1 0x20 ADD DUP3 PUSH2 0x3413 JUMP JUMPDEST DUP2 DUP2 MSTORE DUP5 PUSH1 0x20 DUP4 DUP7 ADD ADD GT ISZERO PUSH2 0x2BAC JUMPI PUSH1 0x0 DUP1 REVERT JUMPDEST DUP2 PUSH1 0x20 DUP6 ADD PUSH1 0x20 DUP4 ADD CALLDATACOPY PUSH1 0x0 SWAP2 DUP2 ADD PUSH1 0x20 ADD SWAP2 SWAP1 SWAP2 MSTORE SWAP4 SWAP3 POP POP POP JUMP JUMPDEST PUSH1 0x0 PUSH1 0x20 DUP3 DUP5 SUB SLT ISZERO PUSH2 0x2BDB JUMPI PUSH1 0x0 DUP1 REVERT JUMPDEST DUP2 CALLDATALOAD PUSH2 0x1652 DUP2 PUSH2 0x3563 JUMP JUMPDEST PUSH1 0x0 PUSH1 0x20 DUP3 DUP5 SUB SLT ISZERO PUSH2 0x2BF8 JUMPI PUSH1 0x0 DUP1 REVERT JUMPDEST DUP2 MLOAD PUSH2 0x1652 DUP2 PUSH2 0x3563 JUMP JUMPDEST PUSH1 0x0 DUP1 PUSH1 0x40 DUP4 DUP6 SUB SLT ISZERO PUSH2 0x2C16 JUMPI PUSH1 0x0 DUP1 REVERT JUMPDEST DUP3 CALLDATALOAD PUSH2 0x2C21 DUP2 PUSH2 0x3563 JUMP JUMPDEST SWAP2 POP PUSH1 0x20 DUP4 ADD CALLDATALOAD PUSH8 0xFFFFFFFFFFFFFFFF DUP2 GT ISZERO PUSH2 0x2C3D JUMPI PUSH1 0x0 DUP1 REVERT JUMPDEST PUSH2 0x2C49 DUP6 DUP3 DUP7 ADD PUSH2 0x2B55 JUMP JUMPDEST SWAP2 POP POP SWAP3 POP SWAP3 SWAP1 POP JUMP JUMPDEST PUSH1 0x0 PUSH1 0x20 DUP3 DUP5 SUB SLT ISZERO PUSH2 0x2C65 JUMPI PUSH1 0x0 DUP1 REVERT JUMPDEST DUP2 MLOAD DUP1 ISZERO ISZERO DUP2 EQ PUSH2 0x1652 JUMPI PUSH1 0x0 DUP1 REVERT JUMPDEST PUSH1 0x0 PUSH1 0x20 DUP3 DUP5 SUB SLT ISZERO PUSH2 0x2C87 JUMPI PUSH1 0x0 DUP1 REVERT JUMPDEST DUP2 CALLDATALOAD PUSH8 0xFFFFFFFFFFFFFFFF DUP2 GT ISZERO PUSH2 0x2C9E JUMPI PUSH1 0x0 DUP1 REVERT JUMPDEST PUSH2 0x1203 DUP5 DUP3 DUP6 ADD PUSH2 0x2B55 JUMP JUMPDEST PUSH1 0x0 PUSH1 0x20 DUP3 DUP5 SUB SLT ISZERO PUSH2 0x2CBC JUMPI PUSH1 0x0 DUP1 REVERT JUMPDEST POP CALLDATALOAD SWAP2 SWAP1 POP JUMP JUMPDEST PUSH1 0x0 PUSH1 0x20 DUP3 DUP5 SUB SLT ISZERO PUSH2 0x2CD5 JUMPI PUSH1 0x0 DUP1 REVERT JUMPDEST POP MLOAD SWAP2 SWAP1 POP JUMP JUMPDEST PUSH1 0x0 DUP2 MLOAD DUP1 DUP5 MSTORE PUSH2 0x2CF4 DUP2 PUSH1 0x20 DUP7 ADD PUSH1 0x20 DUP7 ADD PUSH2 0x33B2 JUMP JUMPDEST PUSH1 0x1F ADD PUSH1 0x1F NOT AND SWAP3 SWAP1 SWAP3 ADD PUSH1 0x20 ADD SWAP3 SWAP2 POP POP JUMP JUMPDEST PUSH1 0x23 DUP2 MSTORE PUSH32 0x43616E206F6E6C7920626520657865637574656420627920746865206D616E61 PUSH1 0x20 DUP3 ADD MSTORE PUSH3 0x33B2B9 PUSH1 0xE9 SHL PUSH1 0x40 DUP3 ADD MSTORE PUSH1 0x60 ADD SWAP1 JUMP JUMPDEST PUSH1 0x24 DUP2 MSTORE PUSH32 0x416374696F6E206E6F7420616C6C6F77656420696E2063757272656E74207068 PUSH1 0x20 DUP3 ADD MSTORE PUSH4 0x30B9B297 PUSH1 0xE1 SHL PUSH1 0x40 DUP3 ADD MSTORE PUSH1 0x60 ADD SWAP1 JUMP JUMPDEST PUSH1 0x0 DUP3 MLOAD PUSH2 0x2D93 DUP2 DUP5 PUSH1 0x20 DUP8 ADD PUSH2 0x33B2 JUMP JUMPDEST SWAP2 SWAP1 SWAP2 ADD SWAP3 SWAP2 POP POP JUMP JUMPDEST DUP3 ISZERO ISZERO DUP2 MSTORE DUP2 ISZERO ISZERO PUSH1 0x20 DUP3 ADD MSTORE PUSH1 0x60 PUSH1 0x40 DUP3 ADD MSTORE PUSH1 0x0 PUSH2 0x1203 PUSH1 0x60 DUP4 ADD PUSH1 0x1D DUP2 MSTORE PUSH32 0x4D6574686F6420657865637574696F6E20646964206E6F74206661696C000000 PUSH1 0x20 DUP3 ADD MSTORE PUSH1 0x40 ADD SWAP1 JUMP JUMPDEST PUSH1 0x20 DUP2 ADD PUSH1 0x3 DUP4 LT PUSH2 0x2E0C JUMPI PUSH4 0x4E487B71 PUSH1 0xE0 SHL PUSH1 0x0 MSTORE PUSH1 0x21 PUSH1 0x4 MSTORE PUSH1 0x24 PUSH1 0x0 REVERT JUMPDEST SWAP2 SWAP1 MSTORE SWAP1 JUMP JUMPDEST PUSH1 0x20 DUP2 MSTORE PUSH1 0x0 PUSH2 0x1652 PUSH1 0x20 DUP4 ADD DUP5 PUSH2 0x2CDC JUMP JUMPDEST PUSH1 0x40 DUP2 MSTORE PUSH1 0x0 PUSH2 0x2E38 PUSH1 0x40 DUP4 ADD DUP6 PUSH2 0x2CDC JUMP JUMPDEST SWAP1 POP DUP3 ISZERO ISZERO PUSH1 0x20 DUP4 ADD MSTORE SWAP4 SWAP3 POP POP POP JUMP JUMPDEST PUSH1 0x60 DUP2 MSTORE PUSH1 0x0 PUSH2 0x2E5C PUSH1 0x60 DUP4 ADD DUP5 PUSH2 0x2CDC JUMP JUMPDEST DUP3 DUP2 SUB PUSH1 0x20 DUP5 ADD MSTORE PUSH2 0x2E91 DUP2 PUSH1 0x16 DUP2 MSTORE PUSH22 0x233934B2B7321030B63932B0B23C9032BC34B9BA3997 PUSH1 0x51 SHL PUSH1 0x20 DUP3 ADD MSTORE PUSH1 0x40 ADD SWAP1 JUMP JUMPDEST DUP4 DUP2 SUB PUSH1 0x40 SWAP5 DUP6 ADD MSTORE PUSH1 0x29 DUP2 MSTORE PUSH32 0x53686F756C64206661696C2077697468206475706C696361746520667269656E PUSH1 0x20 DUP3 ADD MSTORE PUSH9 0x64206D657373616765 PUSH1 0xB8 SHL SWAP4 DUP2 ADD SWAP4 SWAP1 SWAP4 MSTORE POP POP PUSH1 0x60 ADD SWAP2 SWAP1 POP JUMP JUMPDEST PUSH1 0x60 DUP2 MSTORE PUSH1 0x0 PUSH2 0x2EF5 PUSH1 0x60 DUP4 ADD DUP5 PUSH2 0x2CDC JUMP JUMPDEST DUP3 DUP2 SUB PUSH1 0x20 DUP5 ADD MSTORE PUSH2 0x2F06 DUP2 PUSH2 0x2D08 JUMP JUMPDEST SWAP1 POP DUP3 DUP2 SUB PUSH1 0x40 DUP5 ADD MSTORE PUSH2 0x1203 DUP2 PUSH1 0x1D DUP2 MSTORE PUSH32 0x4661696C6564207769746820756E657870656374656420726561736F6E000000 PUSH1 0x20 DUP3 ADD MSTORE PUSH1 0x40 ADD SWAP1 JUMP JUMPDEST PUSH1 0x60 DUP2 MSTORE PUSH1 0x0 PUSH2 0x2F57 PUSH1 0x60 DUP4 ADD DUP5 PUSH2 0x2CDC JUMP JUMPDEST DUP3 DUP2 SUB PUSH1 0x20 DUP5 ADD MSTORE PUSH2 0x2F06 DUP2 PUSH2 0x2D44 JUMP JUMPDEST PUSH1 0x60 DUP2 MSTORE PUSH1 0x0 PUSH2 0x2F7B PUSH1 0x60 DUP4 ADD DUP5 PUSH2 0x2CDC JUMP JUMPDEST DUP3 DUP2 SUB PUSH1 0x20 DUP5 ADD MSTORE PUSH2 0x2F8C DUP2 PUSH2 0x2D44 JUMP JUMPDEST DUP4 DUP2 SUB PUSH1 0x40 SWAP5 DUP6 ADD MSTORE PUSH1 0x2A DUP2 MSTORE PUSH32 0x53686F756C64206661696C207769746820706861736520726573747269637469 PUSH1 0x20 DUP3 ADD MSTORE PUSH10 0x6F6E206D657373616765 PUSH1 0xB0 SHL SWAP4 DUP2 ADD SWAP4 SWAP1 SWAP4 MSTORE POP POP PUSH1 0x60 ADD SWAP2 SWAP1 POP JUMP JUMPDEST PUSH1 0x60 DUP2 MSTORE PUSH1 0x0 PUSH2 0x2FF1 PUSH1 0x60 DUP4 ADD DUP5 PUSH2 0x2CDC JUMP JUMPDEST DUP3 DUP2 SUB PUSH1 0x20 DUP5 ADD MSTORE PUSH2 0x302D DUP2 PUSH1 0x1A DUP2 MSTORE PUSH32 0x52657374617572616E7420616C7265616479206578697374732E000000000000 PUSH1 0x20 DUP3 ADD MSTORE PUSH1 0x40 ADD SWAP1 JUMP JUMPDEST DUP4 DUP2 SUB PUSH1 0x40 SWAP5 DUP6 ADD MSTORE PUSH1 0x2D DUP2 MSTORE PUSH32 0x53686F756C64206661696C2077697468206475706C6963617465207265737461 PUSH1 0x20 DUP3 ADD MSTORE PUSH13 0x7572616E74206D657373616765 PUSH1 0x98 SHL SWAP4 DUP2 ADD SWAP4 SWAP1 SWAP4 MSTORE POP POP PUSH1 0x60 ADD SWAP2 SWAP1 POP JUMP JUMPDEST PUSH1 0x60 DUP2 MSTORE PUSH1 0x0 PUSH2 0x3095 PUSH1 0x60 DUP4 ADD DUP5 PUSH2 0x2CDC JUMP JUMPDEST DUP3 DUP2 SUB PUSH1 0x20 DUP5 ADD MSTORE PUSH2 0x30D1 DUP2 PUSH1 0x20 DUP1 DUP3 MSTORE PUSH32 0x596F7520617265206E6F742061207265676973746572656420667269656E642E SWAP1 DUP3 ADD MSTORE PUSH1 0x40 ADD SWAP1 JUMP JUMPDEST DUP4 DUP2 SUB PUSH1 0x40 SWAP5 DUP6 ADD MSTORE PUSH1 0x27 DUP2 MSTORE PUSH32 0x53686F756C64206661696C2077697468206E6F74207265676973746572656420 PUSH1 0x20 DUP3 ADD MSTORE PUSH7 0x6D657373616765 PUSH1 0xC8 SHL SWAP4 DUP2 ADD SWAP4 SWAP1 SWAP4 MSTORE POP POP PUSH1 0x60 ADD SWAP2 SWAP1 POP JUMP JUMPDEST PUSH1 0x60 DUP2 MSTORE PUSH1 0x0 DUP1 DUP4 SLOAD DUP2 PUSH1 0x1 DUP3 DUP2 SHR SWAP2 POP DUP1 DUP4 AND DUP1 PUSH2 0x3140 JUMPI PUSH1 0x7F DUP4 AND SWAP3 POP JUMPDEST PUSH1 0x20 DUP1 DUP5 LT DUP3 EQ ISZERO PUSH2 0x3160 JUMPI PUSH4 0x4E487B71 PUSH1 0xE0 SHL DUP7 MSTORE PUSH1 0x22 PUSH1 0x4 MSTORE PUSH1 0x24 DUP7 REVERT JUMPDEST PUSH1 0x60 DUP9 ADD DUP5 SWAP1 MSTORE PUSH1 0x80 DUP9 ADD DUP3 DUP1 ISZERO PUSH2 0x317F JUMPI PUSH1 0x1 DUP2 EQ PUSH2 0x3190 JUMPI PUSH2 0x31BB JUMP JUMPDEST PUSH1 0xFF NOT DUP8 AND DUP3 MSTORE DUP3 DUP3 ADD SWAP8 POP PUSH2 0x31BB JUMP JUMPDEST PUSH1 0x0 DUP12 DUP2 MSTORE PUSH1 0x20 SWAP1 KECCAK256 PUSH1 0x0 JUMPDEST DUP8 DUP2 LT ISZERO PUSH2 0x31B5 JUMPI DUP2 SLOAD DUP5 DUP3 ADD MSTORE SWAP1 DUP7 ADD SWAP1 DUP5 ADD PUSH2 0x319C JUMP JUMPDEST DUP4 ADD SWAP9 POP POP JUMPDEST POP POP DUP8 DUP7 SUB SWAP1 DUP9 ADD MSTORE POP POP PUSH1 0x8 DUP4 MSTORE POP POP PUSH8 0x556E692043616665 PUSH1 0xC0 SHL PUSH1 0x20 DUP3 ADD MSTORE PUSH1 0x40 DUP2 ADD SWAP1 POP DUP3 DUP2 SUB PUSH1 0x40 DUP5 ADD MSTORE PUSH2 0x1203 DUP2 PUSH1 0x26 DUP2 MSTORE PUSH32 0x53656C65637465642072657374617572616E742073686F756C6420626520556E PUSH1 0x20 DUP3 ADD MSTORE PUSH6 0x692043616665 PUSH1 0xD0 SHL PUSH1 0x40 DUP3 ADD MSTORE PUSH1 0x60 ADD SWAP1 JUMP JUMPDEST PUSH1 0x20 DUP2 MSTORE PUSH1 0x0 PUSH2 0x1EF3 PUSH1 0x20 DUP4 ADD PUSH1 0x16 DUP2 MSTORE PUSH22 0x233934B2B7321030B63932B0B23C9032BC34B9BA3997 PUSH1 0x51 SHL PUSH1 0x20 DUP3 ADD MSTORE PUSH1 0x40 ADD SWAP1 JUMP JUMPDEST PUSH1 0x20 DUP1 DUP3 MSTORE PUSH1 0x16 SWAP1 DUP3 ADD MSTORE PUSH22 0x21B7B73A3930B1BA1034B99039B43ABA103237BBB717 PUSH1 0x51 SHL PUSH1 0x40 DUP3 ADD MSTORE PUSH1 0x60 ADD SWAP1 JUMP JUMPDEST PUSH1 0x20 DUP2 MSTORE PUSH1 0x0 PUSH2 0x1EF3 PUSH1 0x20 DUP4 ADD PUSH2 0x2D08 JUMP JUMPDEST PUSH1 0x20 DUP2 MSTORE PUSH1 0x0 PUSH2 0x1EF3 PUSH1 0x20 DUP4 ADD PUSH2 0x2D44 JUMP JUMPDEST PUSH1 0x20 DUP2 MSTORE PUSH1 0x0 PUSH2 0x1EF3 PUSH1 0x20 DUP4 ADD PUSH1 0x1A DUP2 MSTORE PUSH32 0x52657374617572616E7420616C7265616479206578697374732E000000000000 PUSH1 0x20 DUP3 ADD MSTORE PUSH1 0x40 ADD SWAP1 JUMP JUMPDEST PUSH1 0x20 DUP1 DUP3 MSTORE DUP2 DUP2 ADD MSTORE PUSH32 0x596F7520617265206E6F742061207265676973746572656420667269656E642E PUSH1 0x40 DUP3 ADD MSTORE PUSH1 0x0 PUSH1 0x60 DUP3 ADD PUSH2 0x1EF3 JUMP JUMPDEST DUP3 DUP2 MSTORE DUP2 PUSH1 0x20 DUP3 ADD MSTORE PUSH1 0x60 PUSH1 0x40 DUP3 ADD MSTORE PUSH1 0x0 PUSH2 0x1203 PUSH1 0x60 DUP4 ADD PUSH1 0x1D DUP2 MSTORE PUSH32 0x4D6574686F6420657865637574696F6E20646964206E6F74206661696C000000 PUSH1 0x20 DUP3 ADD MSTORE PUSH1 0x40 ADD SWAP1 JUMP JUMPDEST PUSH1 0x0 DUP3 NOT DUP3 GT ISZERO PUSH2 0x338B JUMPI PUSH2 0x338B PUSH2 0x345B JUMP JUMPDEST POP ADD SWAP1 JUMP JUMPDEST PUSH1 0x0 DUP3 PUSH2 0x33AD JUMPI PUSH4 0x4E487B71 PUSH1 0xE0 SHL PUSH1 0x0 MSTORE PUSH1 0x12 PUSH1 0x4 MSTORE PUSH1 0x24 PUSH1 0x0 REVERT JUMPDEST POP DIV SWAP1 JUMP JUMPDEST PUSH1 0x0 JUMPDEST DUP4 DUP2 LT ISZERO PUSH2 0x33CD JUMPI DUP2 DUP2 ADD MLOAD DUP4 DUP3 ADD MSTORE PUSH1 0x20 ADD PUSH2 0x33B5 JUMP JUMPDEST DUP4 DUP2 GT ISZERO PUSH2 0xFFF JUMPI POP POP PUSH1 0x0 SWAP2 ADD MSTORE JUMP JUMPDEST PUSH1 0x1 DUP2 DUP2 SHR SWAP1 DUP3 AND DUP1 PUSH2 0x33F2 JUMPI PUSH1 0x7F DUP3 AND SWAP2 POP JUMPDEST PUSH1 0x20 DUP3 LT DUP2 EQ ISZERO PUSH2 0x9C6 JUMPI PUSH4 0x4E487B71 PUSH1 0xE0 SHL PUSH1 0x0 MSTORE PUSH1 0x22 PUSH1 0x4 MSTORE PUSH1 0x24 PUSH1 0x0 REVERT JUMPDEST PUSH1 0x1F DUP3 ADD PUSH1 0x1F NOT AND DUP2 ADD PUSH8 0xFFFFFFFFFFFFFFFF DUP2 GT DUP3 DUP3 LT OR ISZERO PUSH2 0x3439 JUMPI PUSH2 0x3439 PUSH2 0x3487 JUMP JUMPDEST PUSH1 0x40 MSTORE POP POP JUMP JUMPDEST PUSH1 0x0 PUSH1 0x0 NOT DUP3 EQ ISZERO PUSH2 0x3454 JUMPI PUSH2 0x3454 PUSH2 0x345B JUMP JUMPDEST POP PUSH1 0x1 ADD SWAP1 JUMP JUMPDEST PUSH4 0x4E487B71 PUSH1 0xE0 SHL PUSH1 0x0 MSTORE PUSH1 0x11 PUSH1 0x4 MSTORE PUSH1 0x24 PUSH1 0x0 REVERT JUMPDEST PUSH4 0x4E487B71 PUSH1 0xE0 SHL PUSH1 0x0 MSTORE PUSH1 0x21 PUSH1 0x4 MSTORE PUSH1 0x24 PUSH1 0x0 REVERT JUMPDEST PUSH4 0x4E487B71 PUSH1 0xE0 SHL PUSH1 0x0 MSTORE PUSH1 0x41 PUSH1 0x4 MSTORE PUSH1 0x24 PUSH1 0x0 REVERT JUMPDEST PUSH1 0x0 PUSH1 0x3 RETURNDATASIZE GT ISZERO PUSH2 0x34B6 JUMPI PUSH1 0x4 PUSH1 0x0 DUP1 RETURNDATACOPY POP PUSH1 0x0 MLOAD PUSH1 0xE0 SHR JUMPDEST SWAP1 JUMP JUMPDEST PUSH1 0x0 PUSH1 0x44 RETURNDATASIZE LT ISZERO PUSH2 0x34C7 JUMPI SWAP1 JUMP JUMPDEST PUSH1 0x40 MLOAD PUSH1 0x3 NOT RETURNDATASIZE DUP2 ADD PUSH1 0x4 DUP4 RETURNDATACOPY DUP2 MLOAD RETURNDATASIZE PUSH8 0xFFFFFFFFFFFFFFFF DUP2 PUSH1 0x24 DUP5 ADD GT DUP2 DUP5 GT OR ISZERO PUSH2 0x34F7 JUMPI POP POP POP POP POP SWAP1 JUMP JUMPDEST DUP3 DUP6 ADD SWAP2 POP DUP2 MLOAD DUP2 DUP2 GT ISZERO PUSH2 0x350F JUMPI POP POP POP POP POP POP SWAP1 JUMP JUMPDEST DUP5 RETURNDATASIZE DUP8 ADD ADD PUSH1 0x20 DUP3 DUP6 ADD ADD GT ISZERO PUSH2 0x3529 JUMPI POP POP POP POP POP POP SWAP1 JUMP JUMPDEST PUSH2 0x3538 PUSH1 0x20 DUP3 DUP7 ADD ADD DUP8 PUSH2 0x3413 JUMP JUMPDEST POP SWAP1 SWAP6 SWAP5 POP POP POP POP POP JUMP JUMPDEST PUSH1 0x0 DUP1 PUSH1 0x23 RETURNDATASIZE GT ISZERO PUSH2 0x355F JUMPI PUSH1 0x20 PUSH1 0x4 PUSH1 0x0 RETURNDATACOPY POP POP PUSH1 0x0 MLOAD PUSH1 0x1 SWAP1 JUMPDEST SWAP1 SWAP2 JUMP JUMPDEST PUSH1 0x1 PUSH1 0x1 PUSH1 0xA0 SHL SUB DUP2 AND DUP2 EQ PUSH2 0x69B JUMPI PUSH1 0x0 DUP1 REVERT INVALID LOG2 PUSH5 0x6970667358 0x22 SLT KECCAK256 PUSH12 0xF2D7F9A312A6C9B25C7038E7 RETURNDATASIZE 0xD6 SWAP16 0x2F RETURNDATASIZE 0xB6 SWAP11 0xBE 0xCD DUP4 PUSH18 0xDF4D6C40844495E764736F6C634300080500 CALLER "
		},
		"gasEstimates": {
			"creation": {
				"codeDepositCost": "2748400",
				"executionCost": "infinite",
				"totalCost": "infinite"
			},
			"external": {
				"_addFriend(address,string)": "infinite",
				"_addRestaurant(string)": "infinite",
				"addFriend(address,string)": "infinite",
				"addRestaurant(string)": "infinite",
				"beforeAll()": "infinite",
				"currentPhase()": "2409",
				"doVote(uint256)": "infinite",
				"endBlock()": "2364",
				"endVoting()": "infinite",
				"friends(address)": "infinite",
				"isShutdown()": "2421",
				"lunchVenueTest()": "infinite",
				"manager()": "2449",
				"managerTest()": "infinite",
				"numFriends()": "2385",
				"numRestaurants()": "2362",
				"numVotes()": "2362",
				"restaurants(uint256)": "infinite",
				"setFriend()": "infinite",
				"setFriendFailure()": "infinite",
				"setRestaurant()": "infinite",
				"setRestaurantFailure()": "infinite",
				"shutdown()": "73002",
				"startVoting(uint256)": "57370",
				"startVotingPhase()": "infinite",
				"testDuplicateFriend()": "infinite",
				"testDuplicateRestaurant()": "infinite",
				"testDuplicateVoting()": "infinite",
				"testPhaseRestriction()": "infinite",
				"vote()": "infinite",
				"vote2()": "infinite",
				"vote3()": "infinite",
				"voteAfterClosedFailure()": "infinite",
				"voteAs(uint256)": "infinite",
				"voteFailure()": "infinite",
				"voteOpen()": "2356",
				"voteOpenTest()": "infinite",
				"votedRestaurant()": "infinite",
				"votes(uint256)": "4670"
			}
		},
		"methodIdentifiers": {
			"_addFriend(address,string)": "2d8c6f42",
			"_addRestaurant(string)": "781a38a3",
			"addFriend(address,string)": "3b9f708d",
			"addRestaurant(string)": "6d77bd3e",
			"beforeAll()": "7fea0d4b",
			"currentPhase()": "055ad42e",
			"doVote(uint256)": "124258c6",
			"endBlock()": "083c6323",
			"endVoting()": "c3403ddf",
			"friends(address)": "1ddabf7a",
			"isShutdown()": "bf86d690",
			"lunchVenueTest()": "a8267245",
			"manager()": "481c6a75",
			"managerTest()": "947aea86",
			"numFriends()": "47098f36",
			"numRestaurants()": "b798867f",
			"numVotes()": "a3bef4d7",
			"restaurants(uint256)": "ad5461d8",
			"setFriend()": "848b4427",
			"setFriendFailure()": "77440e06",
			"setRestaurant()": "12a4591a",
			"setRestaurantFailure()": "512a6fbb",
			"shutdown()": "fc0e74d1",
			"startVoting(uint256)": "3d2f5bda",
			"startVotingPhase()": "cb43284e",
			"testDuplicateFriend()": "d012f7ea",
			"testDuplicateRestaurant()": "c9648f6e",
			"testDuplicateVoting()": "2b5a9467",
			"testPhaseRestriction()": "0b0f5dd7",
			"vote()": "632a9a52",
			"vote2()": "a24a4e88",
			"vote3()": "2955fea3",
			"voteAfterClosedFailure()": "a5627cf0",
			"voteAs(uint256)": "8f43f134",
			"voteFailure()": "a9a4070c",
			"voteOpen()": "788d3851",
			"voteOpenTest()": "bbb97ded",
			"votedRestaurant()": "c1c16efc",
			"votes(uint256)": "5df81330"
		}
	},
	"abi": [
		{
			"inputs": [
				{
					"internalType": "address",
					"name": "friendAddress",
					"type": "address"
				},
				{
					"internalType": "string",
					"name": "name",
					"type": "string"
				}
			],
			"name": "_addFriend",
			"outputs": [
				{
					"internalType": "uint256",
					"name": "",
					"type": "uint256"
				}
			],
			"stateMutability": "nonpayable",
			"type": "function"
		},
		{
			"inputs": [
				{
					"internalType": "string",
					"name": "name",
					"type": "string"
				}
			],
			"name": "_addRestaurant",
			"outputs": [
				{
					"internalType": "uint256",
					"name": "",
					"type": "uint256"
				}
			],
			"stateMutability": "nonpayable",
			"type": "function"
		},
		{
			"inputs": [
				{
					"internalType": "address",
					"name": "friendAddress",
					"type": "address"
				},
				{
					"internalType": "string",
					"name": "name",
					"type": "string"
				}
			],
			"name": "addFriend",
			"outputs": [
				{
					"internalType": "uint256",
					"name": "",
					"type": "uint256"
				}
			],
			"stateMutability": "nonpayable",
			"type": "function"
		},
		{
			"inputs": [
				{
					"internalType": "string",
					"name": "name",
					"type": "string"
				}
			],
			"name": "addRestaurant",
			"outputs": [
				{
					"internalType": "uint256",
					"name": "",
					"type": "uint256"
				}
			],
			"stateMutability": "nonpayable",
			"type": "function"
		},
		{
			"inputs": [],
			"name": "beforeAll",
			"outputs": [],
			"stateMutability": "nonpayable",
			"type": "function"
		},
		{
			"inputs": [],
			"name": "currentPhase",
			"outputs": [
				{
					"internalType": "enum LunchVenue_updated.Phase",
					"name": "",
					"type": "uint8"
				}
			],
			"stateMutability": "view",
			"type": "function"
		},
		{
			"inputs": [
				{
					"internalType": "uint256",
					"name": "restaurant",
					"type": "uint256"
				}
			],
			"name": "doVote",
			"outputs": [
				{
					"internalType": "bool",
					"name": "validVote",
					"type": "bool"
				}
			],
			"stateMutability": "nonpayable",
			"type": "function"
		},
		{
			"inputs": [],
			"name": "endBlock",
			"outputs": [
				{
					"internalType": "uint256",
					"name": "",
					"type": "uint256"
				}
			],
			"stateMutability": "view",
			"type": "function"
		},
		{
			"inputs": [],
			"name": "endVoting",
			"outputs": [],
			"stateMutability": "nonpayable",
			"type": "function"
		},
		{
			"inputs": [
				{
					"internalType": "address",
					"name": "",
					"type": "address"
				}
			],
			"name": "friends",
			"outputs": [
				{
					"internalType": "string",
					"name": "name",
					"type": "string"
				},
				{
					"internalType": "bool",
					"name": "voted",
					"type": "bool"
				}
			],
			"stateMutability": "view",
			"type": "function"
		},
		{
			"inputs": [],
			"name": "isShutdown",
			"outputs": [
				{
					"internalType": "bool",
					"name": "",
					"type": "bool"
				}
			],
			"stateMutability": "view",
			"type": "function"
		},
		{
			"inputs": [],
			"name": "lunchVenueTest",
			"outputs": [],
			"stateMutability": "nonpayable",
			"type": "function"
		},
		{
			"inputs": [],
			"name": "manager",
			"outputs": [
				{
					"internalType": "address",
					"name": "",
					"type": "address"
				}
			],
			"stateMutability": "view",
			"type": "function"
		},
		{
			"inputs": [],
			"name": "managerTest",
			"outputs": [],
			"stateMutability": "nonpayable",
			"type": "function"
		},
		{
			"inputs": [],
			"name": "numFriends",
			"outputs": [
				{
					"internalType": "uint256",
					"name": "",
					"type": "uint256"
				}
			],
			"stateMutability": "view",
			"type": "function"
		},
		{
			"inputs": [],
			"name": "numRestaurants",
			"outputs": [
				{
					"internalType": "uint256",
					"name": "",
					"type": "uint256"
				}
			],
			"stateMutability": "view",
			"type": "function"
		},
		{
			"inputs": [],
			"name": "numVotes",
			"outputs": [
				{
					"internalType": "uint256",
					"name": "",
					"type": "uint256"
				}
			],
			"stateMutability": "view",
			"type": "function"
		},
		{
			"inputs": [
				{
					"internalType": "uint256",
					"name": "",
					"type": "uint256"
				}
			],
			"name": "restaurants",
			"outputs": [
				{
					"internalType": "string",
					"name": "",
					"type": "string"
				}
			],
			"stateMutability": "view",
			"type": "function"
		},
		{
			"inputs": [],
			"name": "setFriend",
			"outputs": [],
			"stateMutability": "nonpayable",
			"type": "function"
		},
		{
			"inputs": [],
			"name": "setFriendFailure",
			"outputs": [],
			"stateMutability": "nonpayable",
			"type": "function"
		},
		{
			"inputs": [],
			"name": "setRestaurant",
			"outputs": [],
			"stateMutability": "nonpayable",
			"type": "function"
		},
		{
			"inputs": [],
			"name": "setRestaurantFailure",
			"outputs": [],
			"stateMutability": "nonpayable",
			"type": "function"
		},
		{
			"inputs": [],
			"name": "shutdown",
			"outputs": [],
			"stateMutability": "nonpayable",
			"type": "function"
		},
		{
			"inputs": [
				{
					"internalType": "uint256",
					"name": "blocksUntilEnd",
					"type": "uint256"
				}
			],
			"name": "startVoting",
			"outputs": [],
			"stateMutability": "nonpayable",
			"type": "function"
		},
		{
			"inputs": [],
			"name": "startVotingPhase",
			"outputs": [],
			"stateMutability": "nonpayable",
			"type": "function"
		},
		{
			"inputs": [],
			"name": "testDuplicateFriend",
			"outputs": [],
			"stateMutability": "nonpayable",
			"type": "function"
		},
		{
			"inputs": [],
			"name": "testDuplicateRestaurant",
			"outputs": [],
			"stateMutability": "nonpayable",
			"type": "function"
		},
		{
			"inputs": [],
			"name": "testDuplicateVoting",
			"outputs": [],
			"stateMutability": "nonpayable",
			"type": "function"
		},
		{
			"inputs": [],
			"name": "testPhaseRestriction",
			"outputs": [],
			"stateMutability": "nonpayable",
			"type": "function"
		},
		{
			"inputs": [],
			"name": "vote",
			"outputs": [],
			"stateMutability": "nonpayable",
			"type": "function"
		},
		{
			"inputs": [],
			"name": "vote2",
			"outputs": [],
			"stateMutability": "nonpayable",
			"type": "function"
		},
		{
			"inputs": [],
			"name": "vote3",
			"outputs": [],
			"stateMutability": "nonpayable",
			"type": "function"
		},
		{
			"inputs": [],
			"name": "voteAfterClosedFailure",
			"outputs": [],
			"stateMutability": "nonpayable",
			"type": "function"
		},
		{
			"inputs": [
				{
					"internalType": "uint256",
					"name": "restaurant",
					"type": "uint256"
				}
			],
			"name": "voteAs",
			"outputs": [
				{
					"internalType": "bool",
					"name": "",
					"type": "bool"
				}
			],
			"stateMutability": "nonpayable",
			"type": "function"
		},
		{
			"inputs": [],
			"name": "voteFailure",
			"outputs": [],
			"stateMutability": "nonpayable",
			"type": "function"
		},
		{
			"inputs": [],
			"name": "voteOpen",
			"outputs": [
				{
					"internalType": "bool",
					"name": "",
					"type": "bool"
				}
			],
			"stateMutability": "view",
			"type": "function"
		},
		{
			"inputs": [],
			"name": "voteOpenTest",
			"outputs": [],
			"stateMutability": "nonpayable",
			"type": "function"
		},
		{
			"inputs": [],
			"name": "votedRestaurant",
			"outputs": [
				{
					"internalType": "string",
					"name": "",
					"type": "string"
				}
			],
			"stateMutability": "view",
			"type": "function"
		},
		{
			"inputs": [
				{
					"internalType": "uint256",
					"name": "",
					"type": "uint256"
				}
			],
			"name": "votes",
			"outputs": [
				{
					"internalType": "address",
					"name": "voterAddress",
					"type": "address"
				},
				{
					"internalType": "uint256",
					"name": "restaurant",
					"type": "uint256"
				}
			],
			"stateMutability": "view",
			"type": "function"
		}
	]
}