{
	"data": {
		"bytecode": {
			"linkReferences": {
				"remix_accounts.sol": {
					"TestsAccounts": [
						{
							"length": 20,
							"start": 5174
						},
						{
							"length": 20,
							"start": 5337
						},
						{
							"length": 20,
							"start": 5500
						},
						{
							"length": 20,
							"start": 5663
						},
						{
							"length": 20,
							"start": 5825
						}
					]
				},
				"remix_tests.sol": {
					"Assert": [
						{
							"length": 20,
							"start": 2107
						},
						{
							"length": 20,
							"start": 2342
						},
						{
							"length": 20,
							"start": 2741
						},
						{
							"length": 20,
							"start": 3973
						},
						{
							"length": 20,
							"start": 4213
						},
						{
							"length": 20,
							"start": 4359
						},
						{
							"length": 20,
							"start": 4408
						},
						{
							"length": 20,
							"start": 4782
						},
						{
							"length": 20,
							"start": 6001
						},
						{
							"length": 20,
							"start": 6239
						},
						{
							"length": 20,
							"start": 6481
						},
						{
							"length": 20,
							"start": 6719
						},
						{
							"length": 20,
							"start": 6954
						},
						{
							"length": 20,
							"start": 6990
						},
						{
							"length": 20,
							"start": 7188
						},
						{
							"length": 20,
							"start": 7368
						},
						{
							"length": 20,
							"start": 7417
						},
						{
							"length": 20,
							"start": 7475
						},
						{
							"length": 20,
							"start": 7518
						},
						{
							"length": 20,
							"start": 7890
						}
					]
				}
			},
			"object": "600060028190556003819055600481905560a0604081905260808290526200002b916006919062000067565b506009805461ffff19169055600b805460ff191690553480156200004e57600080fd5b50600580546001600160a01b031916331790556200014a565b82805462000075906200010d565b90600052602060002090601f016020900481019282620000995760008555620000e4565b82601f10620000b457805160ff1916838001178555620000e4565b82800160010185558215620000e4579182015b82811115620000e4578251825591602001919060010190620000c7565b50620000f2929150620000f6565b5090565b5b80821115620000f25760008155600101620000f7565b600181811c908216806200012257607f821691505b602082108114156200014457634e487b7160e01b600052602260045260246000fd5b50919050565b61287d806200015a6000396000f3fe608060405234801561001057600080fd5b50600436106102065760003560e01c8063788d38511161011a578063a8267245116100ad578063bbb97ded1161007c578063bbb97ded1461041f578063bf86d69014610427578063c1c16efc14610434578063c3403ddf1461043c578063fc0e74d11461044457600080fd5b8063a8267245146103e6578063a9a4070c146103ee578063ad5461d8146103f6578063b798867f1461041657600080fd5b8063947aea86116100e9578063947aea86146103c5578063a24a4e88146103cd578063a3bef4d7146103d5578063a5627cf0146103de57600080fd5b8063788d3851146103955780637fea0d4b146103a2578063848b4427146103aa5780638f43f134146103b257600080fd5b80633d2f5bda1161019d5780635df813301161016c5780635df8133014610315578063632a9a52146102985780636d77bd3e1461036757806377440e061461037a578063781a38a31461038257600080fd5b80633d2f5bda146102c657806347098f36146102d9578063481c6a75146102e2578063512a6fbb1461030d57600080fd5b80631ddabf7a116101d95780631ddabf7a146102775780632955fea3146102985780632d8c6f42146102a05780633b9f708d146102b357600080fd5b8063055ad42e1461020b578063083c632314610233578063124258c61461024a57806312a4591a1461026d575b600080fd5b60095461021d90610100900460ff1681565b60405161022a919061236f565b60405180910390f35b61023c600a5481565b60405190815260200161022a565b61025d610258366004612230565b61044c565b604051901515815260200161022a565b6102756106df565b005b61028a61028536600461214f565b6108b2565b60405161022a9291906123aa565b610275610959565b61023c6102ae366004612189565b6109d4565b61023c6102c1366004612189565b610b65565b6102756102d4366004612230565b610c03565b61023c60035481565b6005546102f5906001600160a01b031681565b6040516001600160a01b03909116815260200161022a565b610275610d6c565b610348610323366004612230565b600760205260009081526040902080546001909101546001600160a01b039091169082565b604080516001600160a01b03909316835260208301919091520161022a565b61023c6103753660046121fb565b61100b565b6102756110a7565b61023c6103903660046121fb565b61117f565b60095461025d9060ff1681565b6102756112c6565b6102756115f6565b61025d6103c0366004612230565b611966565b610275611977565b6102756119f2565b61023c60045481565b610275611a16565b610275611bca565b610275611c02565b610409610404366004612230565b611c85565b60405161022a9190612397565b61023c60025481565b610275611d1f565b600b5461025d9060ff1681565b610409611d9a565b610275611da7565b610275611e5e565b600b5460009060ff161561047b5760405162461bcd60e51b815260040161047290612562565b60405180910390fd5b600180600954610100900460ff16600281111561049a5761049a612740565b146104b75760405162461bcd60e51b8152600401610472906125a4565b60095460ff1615156001146104de5760405162461bcd60e51b8152600401610472906125e8565b600083815260208190526040902080546104f7906126ad565b151590506105475760405162461bcd60e51b815260206004820152601a60248201527f52657374617572616e7420646f6573206e6f742065786973742e0000000000006044820152606401610472565b600a5443111561056257610559611eb5565b600091506106d9565b336000908152600160205260409020805461057c906126ad565b151590506105cc5760405162461bcd60e51b815260206004820181905260248201527f596f7520617265206e6f742061207265676973746572656420667269656e642e6044820152606401610472565b336000908152600160208190526040909120015460ff16156106305760405162461bcd60e51b815260206004820152601760248201527f596f75206861766520616c726561647920766f7465642e0000000000000000006044820152606401610472565b3360008181526001602081815260408084208301805460ff19168417905580518082019091529384528301869052600480549195506007929182906106749061270f565b91829055508152602080820192909252604001600020825181546001600160a01b0319166001600160a01b039091161781559101516001909101556003546106be9060029061265b565b6106c9906001612643565b600454106106d9576106d9611eb5565b50919050565b73__$acbfb1c35000d78352310b16a054a6b106$__63abcd79606107286040518060400160405280600e81526020016d436f75727479617264204361666560901b81525061100b565b6040516001600160e01b031960e084901b16815260048101919091526001602482015260606044820152601460648201527353686f756c6420626520657175616c20746f203160601b608482015260a40160206040518083038186803b15801561079157600080fd5b505af41580156107a5573d6000803e3d6000fd5b505050506040513d601f19601f820116820180604052508101906107c991906121d9565b5073__$acbfb1c35000d78352310b16a054a6b106$__63abcd796061080d60405180604001604052806008815260200167556e69204361666560c01b81525061100b565b6040516001600160e01b031960e084901b16815260048101919091526002602482015260606044820152601460648201527329b437bab6321031329032b8bab0b6103a37901960611b608482015260a4015b60206040518083038186803b15801561087757600080fd5b505af415801561088b573d6000803e3d6000fd5b505050506040513d601f19601f820116820180604052508101906108af91906121d9565b50565b6001602052600090815260409020805481906108cd906126ad565b80601f01602080910402602001604051908101604052809291908181526020018280546108f9906126ad565b80156109465780601f1061091b57610100808354040283529160200191610946565b820191906000526020600020905b81548152906001019060200180831161092957829003601f168201915b5050506001909301549192505060ff1682565b73__$acbfb1c35000d78352310b16a054a6b106$__6339df137f61097d600261044c565b604080516001600160e01b031960e085901b16815291151560048301526024820152601c60448201527f566f74696e6720726573756c742073686f756c64206265207472756500000000606482015260840161085f565b600b5460009060ff16156109fa5760405162461bcd60e51b815260040161047290612562565b600080600954610100900460ff166002811115610a1957610a19612740565b14610a365760405162461bcd60e51b8152600401610472906125a4565b6001600160a01b03841660009081526001602052604090208054610a59906126ad565b159050610aa15760405162461bcd60e51b8152602060048201526016602482015275233934b2b7321030b63932b0b23c9032bc34b9ba399760511b6044820152606401610472565b6000835111610aea5760405162461bcd60e51b81526020600482015260156024820152742730b6b29031b0b73737ba1031329032b6b83a3c9760591b6044820152606401610472565b604080518082018252600060208083018290528683526001600160a01b0388168252600181529290208151805192938493610b289284920190611fc7565b50602091909101516001909101805460ff191691151591909117905560038054906000610b548361270f565b909155505060035495945050505050565b600b5460009060ff1615610b8b5760405162461bcd60e51b815260040161047290612562565b6005546001600160a01b03163314610bb55760405162461bcd60e51b815260040161047290612592565b600080600954610100900460ff166002811115610bd457610bd4612740565b14610bf15760405162461bcd60e51b8152600401610472906125a4565b610bfb84846109d4565b949350505050565b600b5460ff1615610c265760405162461bcd60e51b815260040161047290612562565b6005546001600160a01b03163314610c505760405162461bcd60e51b815260040161047290612592565b600080600954610100900460ff166002811115610c6f57610c6f612740565b14610c8c5760405162461bcd60e51b8152600401610472906125a4565b600160025411610cee5760405162461bcd60e51b815260206004820152602760248201527f4174206c656173742074776f2072657374617572616e7473206d7573742062656044820152661030b23232b21760c91b6064820152608401610472565b600160035411610d4c5760405162461bcd60e51b815260206004820152602360248201527f4174206c656173742074776f20667269656e6473206d7573742062652061646460448201526232b21760e91b6064820152608401610472565b610d568243612643565b600a5550506009805461ffff1916610101179055565b6040516336bbde9f60e11b815260206004820152600b60248201526a41746f6d6963204361666560a81b60448201523090636d77bd3e90606401602060405180830381600087803b158015610dc057600080fd5b505af1925050508015610df0575060408051601f3d908101601f19168201909252610ded91810190612249565b60015b610fcf57610dfc61276c565b806308c379a01415610ea75750610e11612788565b80610e1c5750610f3d565b604051637461658b60e11b815273__$acbfb1c35000d78352310b16a054a6b106$__9063e8c2cb1690610e539084906004016123ce565b60206040518083038186803b158015610e6b57600080fd5b505af4158015610e7f573d6000803e3d6000fd5b505050506040513d601f19601f82011682018060405250810190610ea391906121d9565b5050565b634e487b711415610f3d57610eba612812565b90610ec55750610f3d565b604080516339df137f60e01b8152600060048201526024810191909152602160448201527f4661696c656420756e65787065637465642077697468206572726f7220636f646064820152606560f81b608482015273__$acbfb1c35000d78352310b16a054a6b106$__906339df137f9060a401610e53565b3d808015610f67576040519150601f19603f3d011682016040523d82523d6000602084013e610f6c565b606091505b50604080516339df137f60e01b8152600060048201526024810191909152601160448201527011985a5b1959081d5b995e1c1958dd1959607a1b606482015273__$acbfb1c35000d78352310b16a054a6b106$__906339df137f90608401610e53565b604051632b080af160e11b815273__$acbfb1c35000d78352310b16a054a6b106$__9063561015e290610e539084906003906004016125fa565b565b600b5460009060ff16156110315760405162461bcd60e51b815260040161047290612562565b6005546001600160a01b0316331461105b5760405162461bcd60e51b815260040161047290612592565b600080600954610100900460ff16600281111561107a5761107a612740565b146110975760405162461bcd60e51b8152600401610472906125a4565b6110a08361117f565b9392505050565b60115460408051633b9f708d60e01b81526001600160a01b0390921660048301526024820152600760448201526644616e69656c7360c81b60648201523090633b9f708d90608401602060405180830381600087803b15801561110957600080fd5b505af1925050508015611139575060408051601f3d908101601f1916820190925261113691810190612249565b60015b61114557610dfc61276c565b604051632b080af160e11b815273__$acbfb1c35000d78352310b16a054a6b106$__9063561015e290610e539084906005906004016125fa565b600b5460009060ff16156111a55760405162461bcd60e51b815260040161047290612562565b600080600954610100900460ff1660028111156111c4576111c4612740565b146111e15760405162461bcd60e51b8152600401610472906125a4565b6000836040516020016111f49190612306565b60408051601f1981840301815291815281516020928301206000818152600c90935291205490915060ff161561126c5760405162461bcd60e51b815260206004820152601a60248201527f52657374617572616e7420616c7265616479206578697374732e0000000000006044820152606401610472565b6002805490600061127c8361270f565b909155505060025460009081526020818152604090912085516112a192870190611fc7565b506000908152600c60205260409020805460ff19166001179055600254915050919050565b60405163ce88b14560e01b81526000600482015273__$1068a87eb54ed04c4e435de35b2ebf536f$__9063ce88b1459060240160206040518083038186803b15801561131157600080fd5b505af4158015611325573d6000803e3d6000fd5b505050506040513d601f19601f82011682018060405250810190611349919061216c565b600d80546001600160a01b0319166001600160a01b039290921691909117905560405163ce88b14560e01b81526001600482015273__$1068a87eb54ed04c4e435de35b2ebf536f$__9063ce88b1459060240160206040518083038186803b1580156113b457600080fd5b505af41580156113c8573d6000803e3d6000fd5b505050506040513d601f19601f820116820180604052508101906113ec919061216c565b600e80546001600160a01b0319166001600160a01b039290921691909117905560405163ce88b14560e01b81526002600482015273__$1068a87eb54ed04c4e435de35b2ebf536f$__9063ce88b1459060240160206040518083038186803b15801561145757600080fd5b505af415801561146b573d6000803e3d6000fd5b505050506040513d601f19601f8201168201806040525081019061148f919061216c565b600f80546001600160a01b0319166001600160a01b039290921691909117905560405163ce88b14560e01b81526003600482015273__$1068a87eb54ed04c4e435de35b2ebf536f$__9063ce88b1459060240160206040518083038186803b1580156114fa57600080fd5b505af415801561150e573d6000803e3d6000fd5b505050506040513d601f19601f82011682018060405250810190611532919061216c565b601080546001600160a01b0319166001600160a01b039290921691909117905560405163ce88b14560e01b815260048082015273__$1068a87eb54ed04c4e435de35b2ebf536f$__9063ce88b1459060240160206040518083038186803b15801561159c57600080fd5b505af41580156115b0573d6000803e3d6000fd5b505050506040513d601f19601f820116820180604052508101906115d4919061216c565b601180546001600160a01b0319166001600160a01b0392909216919091179055565b600d54604080518082019091526005815264416c69636560d81b602082015273__$acbfb1c35000d78352310b16a054a6b106$__9163abcd796091611644916001600160a01b031690610b65565b6040516001600160e01b031960e084901b16815260048101919091526001602482015260606044820152601460648201527353686f756c6420626520657175616c20746f203160601b608482015260a40160206040518083038186803b1580156116ad57600080fd5b505af41580156116c1573d6000803e3d6000fd5b505050506040513d601f19601f820116820180604052508101906116e591906121d9565b50600e546040805180820190915260038152622137b160e91b602082015273__$acbfb1c35000d78352310b16a054a6b106$__9163abcd796091611732916001600160a01b031690610b65565b6040516001600160e01b031960e084901b16815260048101919091526002602482015260606044820152601460648201527329b437bab6321031329032b8bab0b6103a37901960611b608482015260a40160206040518083038186803b15801561179b57600080fd5b505af41580156117af573d6000803e3d6000fd5b505050506040513d601f19601f820116820180604052508101906117d391906121d9565b50600f54604080518082019091526007815266436861726c696560c81b602082015273__$acbfb1c35000d78352310b16a054a6b106$__9163abcd796091611824916001600160a01b031690610b65565b6040516001600160e01b031960e084901b16815260048101919091526003602482015260606044820152601460648201527353686f756c6420626520657175616c20746f203360601b608482015260a40160206040518083038186803b15801561188d57600080fd5b505af41580156118a1573d6000803e3d6000fd5b505050506040513d601f19601f820116820180604052508101906118c591906121d9565b5060105460408051808201909152600381526245766560e81b602082015273__$acbfb1c35000d78352310b16a054a6b106$__9163abcd796091611912916001600160a01b031690610b65565b60046040518363ffffffff1660e01b815260040161085f92919091825260208201526060604082018190526014908201527314da1bdd5b1908189948195c5d585b081d1bc80d60621b608082015260a00190565b60006119718261044c565b92915050565b600554600d54604051635fdd2eeb60e11b81526001600160a01b0392831660048201529116602482015260606044820152601660648201527504d616e616765722073686f756c6420626520616363360541b608482015273__$acbfb1c35000d78352310b16a054a6b106$__9063bfba5dd69060a40161085f565b73__$acbfb1c35000d78352310b16a054a6b106$__6339df137f61097d600161044c565b6040516309212c6360e11b815260016004820152309063124258c690602401602060405180830381600087803b158015611a4f57600080fd5b505af1925050508015611a7f575060408051601f3d908101601f19168201909252611a7c918101906121d9565b60015b611b9057611a8b61276c565b806308c379a01415611ae25750611aa0612788565b80611aab5750611afc565b604051637461658b60e11b815273__$acbfb1c35000d78352310b16a054a6b106$__9063e8c2cb1690610e53908490600401612430565b634e487b711415611afc57611af5612812565b90610ec557505b3d808015611b26576040519150601f19603f3d011682016040523d82523d6000602084013e611b2b565b606091505b50604080516339df137f60e01b815260006004820152602481019190915260136044820152724661696c656420756e65787065637465646c7960681b606482015273__$acbfb1c35000d78352310b16a054a6b106$__906339df137f90608401610e53565b60405163767392b360e01b815273__$acbfb1c35000d78352310b16a054a6b106$__9063767392b390610e53908490600190600401612322565b604051637461658b60e11b815273__$acbfb1c35000d78352310b16a054a6b106$__9063e8c2cb169061085f90600690600401612454565b73__$acbfb1c35000d78352310b16a054a6b106$__63767392b3611c26600161044c565b6040516001600160e01b031960e084901b16815290151560048201526000602482015260606044820152601d60648201527f566f74696e6720726573756c742073686f756c642062652066616c7365000000608482015260a40161085f565b60006020819052908152604090208054611c9e906126ad565b80601f0160208091040260200160405190810160405280929190818152602001828054611cca906126ad565b8015611d175780601f10611cec57610100808354040283529160200191611d17565b820191906000526020600020905b815481529060010190602001808311611cfa57829003601f168201915b505050505081565b60095460405163767392b360e01b815260ff909116151560048201526000602482015260606044820152601760648201527f566f74696e672073686f756c6420626520636c6f736564000000000000000000608482015273__$acbfb1c35000d78352310b16a054a6b106$__9063767392b39060a40161085f565b60068054611c9e906126ad565b600b5460ff1615611dca5760405162461bcd60e51b815260040161047290612562565b6005546001600160a01b03163314611df45760405162461bcd60e51b815260040161047290612592565b6001600954610100900460ff166002811115611e1257611e12612740565b14611e565760405162461bcd60e51b81526020600482015260146024820152732737ba1034b7103b37ba34b73390383430b9b29760611b6044820152606401610472565b611009611eb5565b6005546001600160a01b03163314611e885760405162461bcd60e51b815260040161047290612592565b600b805460ff1990811660011790915560098054918216815560029161ffff1916610100835b0217905550565b60045415611ec557611ec5611ee2565b6009805460ff19811682556002919061ffff191661010083611eae565b60008060015b6004548111611f99576000818152600760209081526040808320600190810154845260089092529091205415611f445760008281526007602090815260408083206001015483526008909152902054611f419082612643565b90505b60008281526007602090815260408083206001015483526008909152902081905583811115611f86576000828152600760205260409020600101549093509150825b5080611f918161270f565b915050611ee8565b506000818152602081905260409020805460069190611fb7906126ad565b611fc292919061204b565b505050565b828054611fd3906126ad565b90600052602060002090601f016020900481019282611ff5576000855561203b565b82601f1061200e57805160ff191683800117855561203b565b8280016001018555821561203b579182015b8281111561203b578251825591602001919060010190612020565b506120479291506120c6565b5090565b828054612057906126ad565b90600052602060002090601f016020900481019282612079576000855561203b565b82601f1061208a578054855561203b565b8280016001018555821561203b57600052602060002091601f016020900482015b8281111561203b5782548255916001019190600101906120ab565b5b8082111561204757600081556001016120c7565b600082601f8301126120ec57600080fd5b813567ffffffffffffffff81111561210657612106612756565b60405161211d601f8301601f1916602001826126e2565b81815284602083860101111561213257600080fd5b816020850160208301376000918101602001919091529392505050565b60006020828403121561216157600080fd5b81356110a081612832565b60006020828403121561217e57600080fd5b81516110a081612832565b6000806040838503121561219c57600080fd5b82356121a781612832565b9150602083013567ffffffffffffffff8111156121c357600080fd5b6121cf858286016120db565b9150509250929050565b6000602082840312156121eb57600080fd5b815180151581146110a057600080fd5b60006020828403121561220d57600080fd5b813567ffffffffffffffff81111561222457600080fd5b610bfb848285016120db565b60006020828403121561224257600080fd5b5035919050565b60006020828403121561225b57600080fd5b5051919050565b6000815180845261227a81602086016020860161267d565b601f01601f19169290920160200192915050565b602381527f43616e206f6e6c7920626520657865637574656420627920746865206d616e6160208201526233b2b960e91b604082015260600190565b602381527f43616e20766f7465206f6e6c79207768696c6520766f74696e67206973206f7060208201526232b71760e91b604082015260600190565b6000825161231881846020870161267d565b9190910192915050565b82151581528115156020820152606060408201526000610bfb60608301601d81527f4d6574686f6420657865637574696f6e20646964206e6f74206661696c000000602082015260400190565b602081016003831061239157634e487b7160e01b600052602160045260246000fd5b91905290565b6020815260006110a06020830184612262565b6040815260006123bd6040830185612262565b905082151560208301529392505050565b6060815260006123e16060830184612262565b82810360208401526123f28161228e565b90508281036040840152610bfb81601d81527f4661696c6564207769746820756e657870656374656420726561736f6e000000602082015260400190565b6060815260006124436060830184612262565b82810360208401526123f2816122ca565b60608152600080835481600182811c91508083168061247457607f831692505b602080841082141561249457634e487b7160e01b86526022600452602486fd5b60608801849052608088018280156124b357600181146124c4576124ef565b60ff198716825282820197506124ef565b60008b81526020902060005b878110156124e9578154848201529086019084016124d0565b83019850505b505087860390880152505060088352505067556e69204361666560c01b60208201526040810190508281036040840152610bfb81602681527f53656c65637465642072657374617572616e742073686f756c6420626520556e60208201526569204361666560d01b604082015260600190565b60208082526016908201527521b7b73a3930b1ba1034b99039b43aba103237bbb71760511b604082015260600190565b6020815260006119716020830161228e565b60208082526024908201527f416374696f6e206e6f7420616c6c6f77656420696e2063757272656e7420706860408201526330b9b29760e11b606082015260800190565b602081526000611971602083016122ca565b828152816020820152606060408201526000610bfb60608301601d81527f4d6574686f6420657865637574696f6e20646964206e6f74206661696c000000602082015260400190565b600082198211156126565761265661272a565b500190565b60008261267857634e487b7160e01b600052601260045260246000fd5b500490565b60005b83811015612698578181015183820152602001612680565b838111156126a7576000848401525b50505050565b600181811c908216806126c157607f821691505b602082108114156106d957634e487b7160e01b600052602260045260246000fd5b601f8201601f1916810167ffffffffffffffff8111828210171561270857612708612756565b6040525050565b60006000198214156127235761272361272a565b5060010190565b634e487b7160e01b600052601160045260246000fd5b634e487b7160e01b600052602160045260246000fd5b634e487b7160e01b600052604160045260246000fd5b600060033d11156127855760046000803e5060005160e01c5b90565b600060443d10156127965790565b6040516003193d81016004833e81513d67ffffffffffffffff81602484011181841117156127c657505050505090565b82850191508151818111156127de5750505050505090565b843d87010160208285010111156127f85750505050505090565b612807602082860101876126e2565b509095945050505050565b60008060233d111561282e576020600460003e50506000516001905b9091565b6001600160a01b03811681146108af57600080fdfea2646970667358221220233c17e5e4a050d2115b81b377a5db787ea4d9171318a4efcbb4ccd48bbf826b64736f6c63430008050033",
			"opcodes": "PUSH1 0x0 PUSH1 0x2 DUP2 SWAP1 SSTORE PUSH1 0x3 DUP2 SWAP1 SSTORE PUSH1 0x4 DUP2 SWAP1 SSTORE PUSH1 0xA0 PUSH1 0x40 DUP2 SWAP1 MSTORE PUSH1 0x80 DUP3 SWAP1 MSTORE PUSH3 0x2B SWAP2 PUSH1 0x6 SWAP2 SWAP1 PUSH3 0x67 JUMP JUMPDEST POP PUSH1 0x9 DUP1 SLOAD PUSH2 0xFFFF NOT AND SWAP1 SSTORE PUSH1 0xB DUP1 SLOAD PUSH1 0xFF NOT AND SWAP1 SSTORE CALLVALUE DUP1 ISZERO PUSH3 0x4E JUMPI PUSH1 0x0 DUP1 REVERT JUMPDEST POP PUSH1 0x5 DUP1 SLOAD PUSH1 0x1 PUSH1 0x1 PUSH1 0xA0 SHL SUB NOT AND CALLER OR SWAP1 SSTORE PUSH3 0x14A JUMP JUMPDEST DUP3 DUP1 SLOAD PUSH3 0x75 SWAP1 PUSH3 0x10D JUMP JUMPDEST SWAP1 PUSH1 0x0 MSTORE PUSH1 0x20 PUSH1 0x0 KECCAK256 SWAP1 PUSH1 0x1F ADD PUSH1 0x20 SWAP1 DIV DUP2 ADD SWAP3 DUP3 PUSH3 0x99 JUMPI PUSH1 0x0 DUP6 SSTORE PUSH3 0xE4 JUMP JUMPDEST DUP3 PUSH1 0x1F LT PUSH3 0xB4 JUMPI DUP1 MLOAD PUSH1 0xFF NOT AND DUP4 DUP1 ADD OR DUP6 SSTORE PUSH3 0xE4 JUMP JUMPDEST DUP3 DUP1 ADD PUSH1 0x1 ADD DUP6 SSTORE DUP3 ISZERO PUSH3 0xE4 JUMPI SWAP2 DUP3 ADD JUMPDEST DUP3 DUP2 GT ISZERO PUSH3 0xE4 JUMPI DUP3 MLOAD DUP3 SSTORE SWAP2 PUSH1 0x20 ADD SWAP2 SWAP1 PUSH1 0x1 ADD SWAP1 PUSH3 0xC7 JUMP JUMPDEST POP PUSH3 0xF2 SWAP3 SWAP2 POP PUSH3 0xF6 JUMP JUMPDEST POP SWAP1 JUMP JUMPDEST JUMPDEST DUP1 DUP3 GT ISZERO PUSH3 0xF2 JUMPI PUSH1 0x0 DUP2 SSTORE PUSH1 0x1 ADD PUSH3 0xF7 JUMP JUMPDEST PUSH1 0x1 DUP2 DUP2 SHR SWAP1 DUP3 AND DUP1 PUSH3 0x122 JUMPI PUSH1 0x7F DUP3 AND SWAP2 POP JUMPDEST PUSH1 0x20 DUP3 LT DUP2 EQ ISZERO PUSH3 0x144 JUMPI PUSH4 0x4E487B71 PUSH1 0xE0 SHL PUSH1 0x0 MSTORE PUSH1 0x22 PUSH1 0x4 MSTORE PUSH1 0x24 PUSH1 0x0 REVERT JUMPDEST POP SWAP2 SWAP1 POP JUMP JUMPDEST PUSH2 0x287D DUP1 PUSH3 0x15A PUSH1 0x0 CODECOPY PUSH1 0x0 RETURN INVALID PUSH1 0x80 PUSH1 0x40 MSTORE CALLVALUE DUP1 ISZERO PUSH2 0x10 JUMPI PUSH1 0x0 DUP1 REVERT JUMPDEST POP PUSH1 0x4 CALLDATASIZE LT PUSH2 0x206 JUMPI PUSH1 0x0 CALLDATALOAD PUSH1 0xE0 SHR DUP1 PUSH4 0x788D3851 GT PUSH2 0x11A JUMPI DUP1 PUSH4 0xA8267245 GT PUSH2 0xAD JUMPI DUP1 PUSH4 0xBBB97DED GT PUSH2 0x7C JUMPI DUP1 PUSH4 0xBBB97DED EQ PUSH2 0x41F JUMPI DUP1 PUSH4 0xBF86D690 EQ PUSH2 0x427 JUMPI DUP1 PUSH4 0xC1C16EFC EQ PUSH2 0x434 JUMPI DUP1 PUSH4 0xC3403DDF EQ PUSH2 0x43C JUMPI DUP1 PUSH4 0xFC0E74D1 EQ PUSH2 0x444 JUMPI PUSH1 0x0 DUP1 REVERT JUMPDEST DUP1 PUSH4 0xA8267245 EQ PUSH2 0x3E6 JUMPI DUP1 PUSH4 0xA9A4070C EQ PUSH2 0x3EE JUMPI DUP1 PUSH4 0xAD5461D8 EQ PUSH2 0x3F6 JUMPI DUP1 PUSH4 0xB798867F EQ PUSH2 0x416 JUMPI PUSH1 0x0 DUP1 REVERT JUMPDEST DUP1 PUSH4 0x947AEA86 GT PUSH2 0xE9 JUMPI DUP1 PUSH4 0x947AEA86 EQ PUSH2 0x3C5 JUMPI DUP1 PUSH4 0xA24A4E88 EQ PUSH2 0x3CD JUMPI DUP1 PUSH4 0xA3BEF4D7 EQ PUSH2 0x3D5 JUMPI DUP1 PUSH4 0xA5627CF0 EQ PUSH2 0x3DE JUMPI PUSH1 0x0 DUP1 REVERT JUMPDEST DUP1 PUSH4 0x788D3851 EQ PUSH2 0x395 JUMPI DUP1 PUSH4 0x7FEA0D4B EQ PUSH2 0x3A2 JUMPI DUP1 PUSH4 0x848B4427 EQ PUSH2 0x3AA JUMPI DUP1 PUSH4 0x8F43F134 EQ PUSH2 0x3B2 JUMPI PUSH1 0x0 DUP1 REVERT JUMPDEST DUP1 PUSH4 0x3D2F5BDA GT PUSH2 0x19D JUMPI DUP1 PUSH4 0x5DF81330 GT PUSH2 0x16C JUMPI DUP1 PUSH4 0x5DF81330 EQ PUSH2 0x315 JUMPI DUP1 PUSH4 0x632A9A52 EQ PUSH2 0x298 JUMPI DUP1 PUSH4 0x6D77BD3E EQ PUSH2 0x367 JUMPI DUP1 PUSH4 0x77440E06 EQ PUSH2 0x37A JUMPI DUP1 PUSH4 0x781A38A3 EQ PUSH2 0x382 JUMPI PUSH1 0x0 DUP1 REVERT JUMPDEST DUP1 PUSH4 0x3D2F5BDA EQ PUSH2 0x2C6 JUMPI DUP1 PUSH4 0x47098F36 EQ PUSH2 0x2D9 JUMPI DUP1 PUSH4 0x481C6A75 EQ PUSH2 0x2E2 JUMPI DUP1 PUSH4 0x512A6FBB EQ PUSH2 0x30D JUMPI PUSH1 0x0 DUP1 REVERT JUMPDEST DUP1 PUSH4 0x1DDABF7A GT PUSH2 0x1D9 JUMPI DUP1 PUSH4 0x1DDABF7A EQ PUSH2 0x277 JUMPI DUP1 PUSH4 0x2955FEA3 EQ PUSH2 0x298 JUMPI DUP1 PUSH4 0x2D8C6F42 EQ PUSH2 0x2A0 JUMPI DUP1 PUSH4 0x3B9F708D EQ PUSH2 0x2B3 JUMPI PUSH1 0x0 DUP1 REVERT JUMPDEST DUP1 PUSH4 0x55AD42E EQ PUSH2 0x20B JUMPI DUP1 PUSH4 0x83C6323 EQ PUSH2 0x233 JUMPI DUP1 PUSH4 0x124258C6 EQ PUSH2 0x24A JUMPI DUP1 PUSH4 0x12A4591A EQ PUSH2 0x26D JUMPI JUMPDEST PUSH1 0x0 DUP1 REVERT JUMPDEST PUSH1 0x9 SLOAD PUSH2 0x21D SWAP1 PUSH2 0x100 SWAP1 DIV PUSH1 0xFF AND DUP2 JUMP JUMPDEST PUSH1 0x40 MLOAD PUSH2 0x22A SWAP2 SWAP1 PUSH2 0x236F JUMP JUMPDEST PUSH1 0x40 MLOAD DUP1 SWAP2 SUB SWAP1 RETURN JUMPDEST PUSH2 0x23C PUSH1 0xA SLOAD DUP2 JUMP JUMPDEST PUSH1 0x40 MLOAD SWAP1 DUP2 MSTORE PUSH1 0x20 ADD PUSH2 0x22A JUMP JUMPDEST PUSH2 0x25D PUSH2 0x258 CALLDATASIZE PUSH1 0x4 PUSH2 0x2230 JUMP JUMPDEST PUSH2 0x44C JUMP JUMPDEST PUSH1 0x40 MLOAD SWAP1 ISZERO ISZERO DUP2 MSTORE PUSH1 0x20 ADD PUSH2 0x22A JUMP JUMPDEST PUSH2 0x275 PUSH2 0x6DF JUMP JUMPDEST STOP JUMPDEST PUSH2 0x28A PUSH2 0x285 CALLDATASIZE PUSH1 0x4 PUSH2 0x214F JUMP JUMPDEST PUSH2 0x8B2 JUMP JUMPDEST PUSH1 0x40 MLOAD PUSH2 0x22A SWAP3 SWAP2 SWAP1 PUSH2 0x23AA JUMP JUMPDEST PUSH2 0x275 PUSH2 0x959 JUMP JUMPDEST PUSH2 0x23C PUSH2 0x2AE CALLDATASIZE PUSH1 0x4 PUSH2 0x2189 JUMP JUMPDEST PUSH2 0x9D4 JUMP JUMPDEST PUSH2 0x23C PUSH2 0x2C1 CALLDATASIZE PUSH1 0x4 PUSH2 0x2189 JUMP JUMPDEST PUSH2 0xB65 JUMP JUMPDEST PUSH2 0x275 PUSH2 0x2D4 CALLDATASIZE PUSH1 0x4 PUSH2 0x2230 JUMP JUMPDEST PUSH2 0xC03 JUMP JUMPDEST PUSH2 0x23C PUSH1 0x3 SLOAD DUP2 JUMP JUMPDEST PUSH1 0x5 SLOAD PUSH2 0x2F5 SWAP1 PUSH1 0x1 PUSH1 0x1 PUSH1 0xA0 SHL SUB AND DUP2 JUMP JUMPDEST PUSH1 0x40 MLOAD PUSH1 0x1 PUSH1 0x1 PUSH1 0xA0 SHL SUB SWAP1 SWAP2 AND DUP2 MSTORE PUSH1 0x20 ADD PUSH2 0x22A JUMP JUMPDEST PUSH2 0x275 PUSH2 0xD6C JUMP JUMPDEST PUSH2 0x348 PUSH2 0x323 CALLDATASIZE PUSH1 0x4 PUSH2 0x2230 JUMP JUMPDEST PUSH1 0x7 PUSH1 0x20 MSTORE PUSH1 0x0 SWAP1 DUP2 MSTORE PUSH1 0x40 SWAP1 KECCAK256 DUP1 SLOAD PUSH1 0x1 SWAP1 SWAP2 ADD SLOAD PUSH1 0x1 PUSH1 0x1 PUSH1 0xA0 SHL SUB SWAP1 SWAP2 AND SWAP1 DUP3 JUMP JUMPDEST PUSH1 0x40 DUP1 MLOAD PUSH1 0x1 PUSH1 0x1 PUSH1 0xA0 SHL SUB SWAP1 SWAP4 AND DUP4 MSTORE PUSH1 0x20 DUP4 ADD SWAP2 SWAP1 SWAP2 MSTORE ADD PUSH2 0x22A JUMP JUMPDEST PUSH2 0x23C PUSH2 0x375 CALLDATASIZE PUSH1 0x4 PUSH2 0x21FB JUMP JUMPDEST PUSH2 0x100B JUMP JUMPDEST PUSH2 0x275 PUSH2 0x10A7 JUMP JUMPDEST PUSH2 0x23C PUSH2 0x390 CALLDATASIZE PUSH1 0x4 PUSH2 0x21FB JUMP JUMPDEST PUSH2 0x117F JUMP JUMPDEST PUSH1 0x9 SLOAD PUSH2 0x25D SWAP1 PUSH1 0xFF AND DUP2 JUMP JUMPDEST PUSH2 0x275 PUSH2 0x12C6 JUMP JUMPDEST PUSH2 0x275 PUSH2 0x15F6 JUMP JUMPDEST PUSH2 0x25D PUSH2 0x3C0 CALLDATASIZE PUSH1 0x4 PUSH2 0x2230 JUMP JUMPDEST PUSH2 0x1966 JUMP JUMPDEST PUSH2 0x275 PUSH2 0x1977 JUMP JUMPDEST PUSH2 0x275 PUSH2 0x19F2 JUMP JUMPDEST PUSH2 0x23C PUSH1 0x4 SLOAD DUP2 JUMP JUMPDEST PUSH2 0x275 PUSH2 0x1A16 JUMP JUMPDEST PUSH2 0x275 PUSH2 0x1BCA JUMP JUMPDEST PUSH2 0x275 PUSH2 0x1C02 JUMP JUMPDEST PUSH2 0x409 PUSH2 0x404 CALLDATASIZE PUSH1 0x4 PUSH2 0x2230 JUMP JUMPDEST PUSH2 0x1C85 JUMP JUMPDEST PUSH1 0x40 MLOAD PUSH2 0x22A SWAP2 SWAP1 PUSH2 0x2397 JUMP JUMPDEST PUSH2 0x23C PUSH1 0x2 SLOAD DUP2 JUMP JUMPDEST PUSH2 0x275 PUSH2 0x1D1F JUMP JUMPDEST PUSH1 0xB SLOAD PUSH2 0x25D SWAP1 PUSH1 0xFF AND DUP2 JUMP JUMPDEST PUSH2 0x409 PUSH2 0x1D9A JUMP JUMPDEST PUSH2 0x275 PUSH2 0x1DA7 JUMP JUMPDEST PUSH2 0x275 PUSH2 0x1E5E JUMP JUMPDEST PUSH1 0xB SLOAD PUSH1 0x0 SWAP1 PUSH1 0xFF AND ISZERO PUSH2 0x47B JUMPI PUSH1 0x40 MLOAD PUSH3 0x461BCD PUSH1 0xE5 SHL DUP2 MSTORE PUSH1 0x4 ADD PUSH2 0x472 SWAP1 PUSH2 0x2562 JUMP JUMPDEST PUSH1 0x40 MLOAD DUP1 SWAP2 SUB SWAP1 REVERT JUMPDEST PUSH1 0x1 DUP1 PUSH1 0x9 SLOAD PUSH2 0x100 SWAP1 DIV PUSH1 0xFF AND PUSH1 0x2 DUP2 GT ISZERO PUSH2 0x49A JUMPI PUSH2 0x49A PUSH2 0x2740 JUMP JUMPDEST EQ PUSH2 0x4B7 JUMPI PUSH1 0x40 MLOAD PUSH3 0x461BCD PUSH1 0xE5 SHL DUP2 MSTORE PUSH1 0x4 ADD PUSH2 0x472 SWAP1 PUSH2 0x25A4 JUMP JUMPDEST PUSH1 0x9 SLOAD PUSH1 0xFF AND ISZERO ISZERO PUSH1 0x1 EQ PUSH2 0x4DE JUMPI PUSH1 0x40 MLOAD PUSH3 0x461BCD PUSH1 0xE5 SHL DUP2 MSTORE PUSH1 0x4 ADD PUSH2 0x472 SWAP1 PUSH2 0x25E8 JUMP JUMPDEST PUSH1 0x0 DUP4 DUP2 MSTORE PUSH1 0x20 DUP2 SWAP1 MSTORE PUSH1 0x40 SWAP1 KECCAK256 DUP1 SLOAD PUSH2 0x4F7 SWAP1 PUSH2 0x26AD JUMP JUMPDEST ISZERO ISZERO SWAP1 POP PUSH2 0x547 JUMPI PUSH1 0x40 MLOAD PUSH3 0x461BCD PUSH1 0xE5 SHL DUP2 MSTORE PUSH1 0x20 PUSH1 0x4 DUP3 ADD MSTORE PUSH1 0x1A PUSH1 0x24 DUP3 ADD MSTORE PUSH32 0x52657374617572616E7420646F6573206E6F742065786973742E000000000000 PUSH1 0x44 DUP3 ADD MSTORE PUSH1 0x64 ADD PUSH2 0x472 JUMP JUMPDEST PUSH1 0xA SLOAD NUMBER GT ISZERO PUSH2 0x562 JUMPI PUSH2 0x559 PUSH2 0x1EB5 JUMP JUMPDEST PUSH1 0x0 SWAP2 POP PUSH2 0x6D9 JUMP JUMPDEST CALLER PUSH1 0x0 SWAP1 DUP2 MSTORE PUSH1 0x1 PUSH1 0x20 MSTORE PUSH1 0x40 SWAP1 KECCAK256 DUP1 SLOAD PUSH2 0x57C SWAP1 PUSH2 0x26AD JUMP JUMPDEST ISZERO ISZERO SWAP1 POP PUSH2 0x5CC JUMPI PUSH1 0x40 MLOAD PUSH3 0x461BCD PUSH1 0xE5 SHL DUP2 MSTORE PUSH1 0x20 PUSH1 0x4 DUP3 ADD DUP2 SWAP1 MSTORE PUSH1 0x24 DUP3 ADD MSTORE PUSH32 0x596F7520617265206E6F742061207265676973746572656420667269656E642E PUSH1 0x44 DUP3 ADD MSTORE PUSH1 0x64 ADD PUSH2 0x472 JUMP JUMPDEST CALLER PUSH1 0x0 SWAP1 DUP2 MSTORE PUSH1 0x1 PUSH1 0x20 DUP2 SWAP1 MSTORE PUSH1 0x40 SWAP1 SWAP2 KECCAK256 ADD SLOAD PUSH1 0xFF AND ISZERO PUSH2 0x630 JUMPI PUSH1 0x40 MLOAD PUSH3 0x461BCD PUSH1 0xE5 SHL DUP2 MSTORE PUSH1 0x20 PUSH1 0x4 DUP3 ADD MSTORE PUSH1 0x17 PUSH1 0x24 DUP3 ADD MSTORE PUSH32 0x596F75206861766520616C726561647920766F7465642E000000000000000000 PUSH1 0x44 DUP3 ADD MSTORE PUSH1 0x64 ADD PUSH2 0x472 JUMP JUMPDEST CALLER PUSH1 0x0 DUP2 DUP2 MSTORE PUSH1 0x1 PUSH1 0x20 DUP2 DUP2 MSTORE PUSH1 0x40 DUP1 DUP5 KECCAK256 DUP4 ADD DUP1 SLOAD PUSH1 0xFF NOT AND DUP5 OR SWAP1 SSTORE DUP1 MLOAD DUP1 DUP3 ADD SWAP1 SWAP2 MSTORE SWAP4 DUP5 MSTORE DUP4 ADD DUP7 SWAP1 MSTORE PUSH1 0x4 DUP1 SLOAD SWAP2 SWAP6 POP PUSH1 0x7 SWAP3 SWAP2 DUP3 SWAP1 PUSH2 0x674 SWAP1 PUSH2 0x270F JUMP JUMPDEST SWAP2 DUP3 SWAP1 SSTORE POP DUP2 MSTORE PUSH1 0x20 DUP1 DUP3 ADD SWAP3 SWAP1 SWAP3 MSTORE PUSH1 0x40 ADD PUSH1 0x0 KECCAK256 DUP3 MLOAD DUP2 SLOAD PUSH1 0x1 PUSH1 0x1 PUSH1 0xA0 SHL SUB NOT AND PUSH1 0x1 PUSH1 0x1 PUSH1 0xA0 SHL SUB SWAP1 SWAP2 AND OR DUP2 SSTORE SWAP2 ADD MLOAD PUSH1 0x1 SWAP1 SWAP2 ADD SSTORE PUSH1 0x3 SLOAD PUSH2 0x6BE SWAP1 PUSH1 0x2 SWAP1 PUSH2 0x265B JUMP JUMPDEST PUSH2 0x6C9 SWAP1 PUSH1 0x1 PUSH2 0x2643 JUMP JUMPDEST PUSH1 0x4 SLOAD LT PUSH2 0x6D9 JUMPI PUSH2 0x6D9 PUSH2 0x1EB5 JUMP JUMPDEST POP SWAP2 SWAP1 POP JUMP JUMPDEST PUSH20 0x0 PUSH4 0xABCD7960 PUSH2 0x728 PUSH1 0x40 MLOAD DUP1 PUSH1 0x40 ADD PUSH1 0x40 MSTORE DUP1 PUSH1 0xE DUP2 MSTORE PUSH1 0x20 ADD PUSH14 0x436F757274796172642043616665 PUSH1 0x90 SHL DUP2 MSTORE POP PUSH2 0x100B JUMP JUMPDEST PUSH1 0x40 MLOAD PUSH1 0x1 PUSH1 0x1 PUSH1 0xE0 SHL SUB NOT PUSH1 0xE0 DUP5 SWAP1 SHL AND DUP2 MSTORE PUSH1 0x4 DUP2 ADD SWAP2 SWAP1 SWAP2 MSTORE PUSH1 0x1 PUSH1 0x24 DUP3 ADD MSTORE PUSH1 0x60 PUSH1 0x44 DUP3 ADD MSTORE PUSH1 0x14 PUSH1 0x64 DUP3 ADD MSTORE PUSH20 0x53686F756C6420626520657175616C20746F2031 PUSH1 0x60 SHL PUSH1 0x84 DUP3 ADD MSTORE PUSH1 0xA4 ADD PUSH1 0x20 PUSH1 0x40 MLOAD DUP1 DUP4 SUB DUP2 DUP7 DUP1 EXTCODESIZE ISZERO DUP1 ISZERO PUSH2 0x791 JUMPI PUSH1 0x0 DUP1 REVERT JUMPDEST POP GAS DELEGATECALL ISZERO DUP1 ISZERO PUSH2 0x7A5 JUMPI RETURNDATASIZE PUSH1 0x0 DUP1 RETURNDATACOPY RETURNDATASIZE PUSH1 0x0 REVERT JUMPDEST POP POP POP POP PUSH1 0x40 MLOAD RETURNDATASIZE PUSH1 0x1F NOT PUSH1 0x1F DUP3 ADD AND DUP3 ADD DUP1 PUSH1 0x40 MSTORE POP DUP2 ADD SWAP1 PUSH2 0x7C9 SWAP2 SWAP1 PUSH2 0x21D9 JUMP JUMPDEST POP PUSH20 0x0 PUSH4 0xABCD7960 PUSH2 0x80D PUSH1 0x40 MLOAD DUP1 PUSH1 0x40 ADD PUSH1 0x40 MSTORE DUP1 PUSH1 0x8 DUP2 MSTORE PUSH1 0x20 ADD PUSH8 0x556E692043616665 PUSH1 0xC0 SHL DUP2 MSTORE POP PUSH2 0x100B JUMP JUMPDEST PUSH1 0x40 MLOAD PUSH1 0x1 PUSH1 0x1 PUSH1 0xE0 SHL SUB NOT PUSH1 0xE0 DUP5 SWAP1 SHL AND DUP2 MSTORE PUSH1 0x4 DUP2 ADD SWAP2 SWAP1 SWAP2 MSTORE PUSH1 0x2 PUSH1 0x24 DUP3 ADD MSTORE PUSH1 0x60 PUSH1 0x44 DUP3 ADD MSTORE PUSH1 0x14 PUSH1 0x64 DUP3 ADD MSTORE PUSH20 0x29B437BAB6321031329032B8BAB0B6103A379019 PUSH1 0x61 SHL PUSH1 0x84 DUP3 ADD MSTORE PUSH1 0xA4 ADD JUMPDEST PUSH1 0x20 PUSH1 0x40 MLOAD DUP1 DUP4 SUB DUP2 DUP7 DUP1 EXTCODESIZE ISZERO DUP1 ISZERO PUSH2 0x877 JUMPI PUSH1 0x0 DUP1 REVERT JUMPDEST POP GAS DELEGATECALL ISZERO DUP1 ISZERO PUSH2 0x88B JUMPI RETURNDATASIZE PUSH1 0x0 DUP1 RETURNDATACOPY RETURNDATASIZE PUSH1 0x0 REVERT JUMPDEST POP POP POP POP PUSH1 0x40 MLOAD RETURNDATASIZE PUSH1 0x1F NOT PUSH1 0x1F DUP3 ADD AND DUP3 ADD DUP1 PUSH1 0x40 MSTORE POP DUP2 ADD SWAP1 PUSH2 0x8AF SWAP2 SWAP1 PUSH2 0x21D9 JUMP JUMPDEST POP JUMP JUMPDEST PUSH1 0x1 PUSH1 0x20 MSTORE PUSH1 0x0 SWAP1 DUP2 MSTORE PUSH1 0x40 SWAP1 KECCAK256 DUP1 SLOAD DUP2 SWAP1 PUSH2 0x8CD SWAP1 PUSH2 0x26AD JUMP JUMPDEST DUP1 PUSH1 0x1F ADD PUSH1 0x20 DUP1 SWAP2 DIV MUL PUSH1 0x20 ADD PUSH1 0x40 MLOAD SWAP1 DUP2 ADD PUSH1 0x40 MSTORE DUP1 SWAP3 SWAP2 SWAP1 DUP2 DUP2 MSTORE PUSH1 0x20 ADD DUP3 DUP1 SLOAD PUSH2 0x8F9 SWAP1 PUSH2 0x26AD JUMP JUMPDEST DUP1 ISZERO PUSH2 0x946 JUMPI DUP1 PUSH1 0x1F LT PUSH2 0x91B JUMPI PUSH2 0x100 DUP1 DUP4 SLOAD DIV MUL DUP4 MSTORE SWAP2 PUSH1 0x20 ADD SWAP2 PUSH2 0x946 JUMP JUMPDEST DUP3 ADD SWAP2 SWAP1 PUSH1 0x0 MSTORE PUSH1 0x20 PUSH1 0x0 KECCAK256 SWAP1 JUMPDEST DUP2 SLOAD DUP2 MSTORE SWAP1 PUSH1 0x1 ADD SWAP1 PUSH1 0x20 ADD DUP1 DUP4 GT PUSH2 0x929 JUMPI DUP3 SWAP1 SUB PUSH1 0x1F AND DUP3 ADD SWAP2 JUMPDEST POP POP POP PUSH1 0x1 SWAP1 SWAP4 ADD SLOAD SWAP2 SWAP3 POP POP PUSH1 0xFF AND DUP3 JUMP JUMPDEST PUSH20 0x0 PUSH4 0x39DF137F PUSH2 0x97D PUSH1 0x2 PUSH2 0x44C JUMP JUMPDEST PUSH1 0x40 DUP1 MLOAD PUSH1 0x1 PUSH1 0x1 PUSH1 0xE0 SHL SUB NOT PUSH1 0xE0 DUP6 SWAP1 SHL AND DUP2 MSTORE SWAP2 ISZERO ISZERO PUSH1 0x4 DUP4 ADD MSTORE PUSH1 0x24 DUP3 ADD MSTORE PUSH1 0x1C PUSH1 0x44 DUP3 ADD MSTORE PUSH32 0x566F74696E6720726573756C742073686F756C64206265207472756500000000 PUSH1 0x64 DUP3 ADD MSTORE PUSH1 0x84 ADD PUSH2 0x85F JUMP JUMPDEST PUSH1 0xB SLOAD PUSH1 0x0 SWAP1 PUSH1 0xFF AND ISZERO PUSH2 0x9FA JUMPI PUSH1 0x40 MLOAD PUSH3 0x461BCD PUSH1 0xE5 SHL DUP2 MSTORE PUSH1 0x4 ADD PUSH2 0x472 SWAP1 PUSH2 0x2562 JUMP JUMPDEST PUSH1 0x0 DUP1 PUSH1 0x9 SLOAD PUSH2 0x100 SWAP1 DIV PUSH1 0xFF AND PUSH1 0x2 DUP2 GT ISZERO PUSH2 0xA19 JUMPI PUSH2 0xA19 PUSH2 0x2740 JUMP JUMPDEST EQ PUSH2 0xA36 JUMPI PUSH1 0x40 MLOAD PUSH3 0x461BCD PUSH1 0xE5 SHL DUP2 MSTORE PUSH1 0x4 ADD PUSH2 0x472 SWAP1 PUSH2 0x25A4 JUMP JUMPDEST PUSH1 0x1 PUSH1 0x1 PUSH1 0xA0 SHL SUB DUP5 AND PUSH1 0x0 SWAP1 DUP2 MSTORE PUSH1 0x1 PUSH1 0x20 MSTORE PUSH1 0x40 SWAP1 KECCAK256 DUP1 SLOAD PUSH2 0xA59 SWAP1 PUSH2 0x26AD JUMP JUMPDEST ISZERO SWAP1 POP PUSH2 0xAA1 JUMPI PUSH1 0x40 MLOAD PUSH3 0x461BCD PUSH1 0xE5 SHL DUP2 MSTORE PUSH1 0x20 PUSH1 0x4 DUP3 ADD MSTORE PUSH1 0x16 PUSH1 0x24 DUP3 ADD MSTORE PUSH22 0x233934B2B7321030B63932B0B23C9032BC34B9BA3997 PUSH1 0x51 SHL PUSH1 0x44 DUP3 ADD MSTORE PUSH1 0x64 ADD PUSH2 0x472 JUMP JUMPDEST PUSH1 0x0 DUP4 MLOAD GT PUSH2 0xAEA JUMPI PUSH1 0x40 MLOAD PUSH3 0x461BCD PUSH1 0xE5 SHL DUP2 MSTORE PUSH1 0x20 PUSH1 0x4 DUP3 ADD MSTORE PUSH1 0x15 PUSH1 0x24 DUP3 ADD MSTORE PUSH21 0x2730B6B29031B0B73737BA1031329032B6B83A3C97 PUSH1 0x59 SHL PUSH1 0x44 DUP3 ADD MSTORE PUSH1 0x64 ADD PUSH2 0x472 JUMP JUMPDEST PUSH1 0x40 DUP1 MLOAD DUP1 DUP3 ADD DUP3 MSTORE PUSH1 0x0 PUSH1 0x20 DUP1 DUP4 ADD DUP3 SWAP1 MSTORE DUP7 DUP4 MSTORE PUSH1 0x1 PUSH1 0x1 PUSH1 0xA0 SHL SUB DUP9 AND DUP3 MSTORE PUSH1 0x1 DUP2 MSTORE SWAP3 SWAP1 KECCAK256 DUP2 MLOAD DUP1 MLOAD SWAP3 SWAP4 DUP5 SWAP4 PUSH2 0xB28 SWAP3 DUP5 SWAP3 ADD SWAP1 PUSH2 0x1FC7 JUMP JUMPDEST POP PUSH1 0x20 SWAP2 SWAP1 SWAP2 ADD MLOAD PUSH1 0x1 SWAP1 SWAP2 ADD DUP1 SLOAD PUSH1 0xFF NOT AND SWAP2 ISZERO ISZERO SWAP2 SWAP1 SWAP2 OR SWAP1 SSTORE PUSH1 0x3 DUP1 SLOAD SWAP1 PUSH1 0x0 PUSH2 0xB54 DUP4 PUSH2 0x270F JUMP JUMPDEST SWAP1 SWAP2 SSTORE POP POP PUSH1 0x3 SLOAD SWAP6 SWAP5 POP POP POP POP POP JUMP JUMPDEST PUSH1 0xB SLOAD PUSH1 0x0 SWAP1 PUSH1 0xFF AND ISZERO PUSH2 0xB8B JUMPI PUSH1 0x40 MLOAD PUSH3 0x461BCD PUSH1 0xE5 SHL DUP2 MSTORE PUSH1 0x4 ADD PUSH2 0x472 SWAP1 PUSH2 0x2562 JUMP JUMPDEST PUSH1 0x5 SLOAD PUSH1 0x1 PUSH1 0x1 PUSH1 0xA0 SHL SUB AND CALLER EQ PUSH2 0xBB5 JUMPI PUSH1 0x40 MLOAD PUSH3 0x461BCD PUSH1 0xE5 SHL DUP2 MSTORE PUSH1 0x4 ADD PUSH2 0x472 SWAP1 PUSH2 0x2592 JUMP JUMPDEST PUSH1 0x0 DUP1 PUSH1 0x9 SLOAD PUSH2 0x100 SWAP1 DIV PUSH1 0xFF AND PUSH1 0x2 DUP2 GT ISZERO PUSH2 0xBD4 JUMPI PUSH2 0xBD4 PUSH2 0x2740 JUMP JUMPDEST EQ PUSH2 0xBF1 JUMPI PUSH1 0x40 MLOAD PUSH3 0x461BCD PUSH1 0xE5 SHL DUP2 MSTORE PUSH1 0x4 ADD PUSH2 0x472 SWAP1 PUSH2 0x25A4 JUMP JUMPDEST PUSH2 0xBFB DUP5 DUP5 PUSH2 0x9D4 JUMP JUMPDEST SWAP5 SWAP4 POP POP POP POP JUMP JUMPDEST PUSH1 0xB SLOAD PUSH1 0xFF AND ISZERO PUSH2 0xC26 JUMPI PUSH1 0x40 MLOAD PUSH3 0x461BCD PUSH1 0xE5 SHL DUP2 MSTORE PUSH1 0x4 ADD PUSH2 0x472 SWAP1 PUSH2 0x2562 JUMP JUMPDEST PUSH1 0x5 SLOAD PUSH1 0x1 PUSH1 0x1 PUSH1 0xA0 SHL SUB AND CALLER EQ PUSH2 0xC50 JUMPI PUSH1 0x40 MLOAD PUSH3 0x461BCD PUSH1 0xE5 SHL DUP2 MSTORE PUSH1 0x4 ADD PUSH2 0x472 SWAP1 PUSH2 0x2592 JUMP JUMPDEST PUSH1 0x0 DUP1 PUSH1 0x9 SLOAD PUSH2 0x100 SWAP1 DIV PUSH1 0xFF AND PUSH1 0x2 DUP2 GT ISZERO PUSH2 0xC6F JUMPI PUSH2 0xC6F PUSH2 0x2740 JUMP JUMPDEST EQ PUSH2 0xC8C JUMPI PUSH1 0x40 MLOAD PUSH3 0x461BCD PUSH1 0xE5 SHL DUP2 MSTORE PUSH1 0x4 ADD PUSH2 0x472 SWAP1 PUSH2 0x25A4 JUMP JUMPDEST PUSH1 0x1 PUSH1 0x2 SLOAD GT PUSH2 0xCEE JUMPI PUSH1 0x40 MLOAD PUSH3 0x461BCD PUSH1 0xE5 SHL DUP2 MSTORE PUSH1 0x20 PUSH1 0x4 DUP3 ADD MSTORE PUSH1 0x27 PUSH1 0x24 DUP3 ADD MSTORE PUSH32 0x4174206C656173742074776F2072657374617572616E7473206D757374206265 PUSH1 0x44 DUP3 ADD MSTORE PUSH7 0x1030B23232B217 PUSH1 0xC9 SHL PUSH1 0x64 DUP3 ADD MSTORE PUSH1 0x84 ADD PUSH2 0x472 JUMP JUMPDEST PUSH1 0x1 PUSH1 0x3 SLOAD GT PUSH2 0xD4C JUMPI PUSH1 0x40 MLOAD PUSH3 0x461BCD PUSH1 0xE5 SHL DUP2 MSTORE PUSH1 0x20 PUSH1 0x4 DUP3 ADD MSTORE PUSH1 0x23 PUSH1 0x24 DUP3 ADD MSTORE PUSH32 0x4174206C656173742074776F20667269656E6473206D75737420626520616464 PUSH1 0x44 DUP3 ADD MSTORE PUSH3 0x32B217 PUSH1 0xE9 SHL PUSH1 0x64 DUP3 ADD MSTORE PUSH1 0x84 ADD PUSH2 0x472 JUMP JUMPDEST PUSH2 0xD56 DUP3 NUMBER PUSH2 0x2643 JUMP JUMPDEST PUSH1 0xA SSTORE POP POP PUSH1 0x9 DUP1 SLOAD PUSH2 0xFFFF NOT AND PUSH2 0x101 OR SWAP1 SSTORE JUMP JUMPDEST PUSH1 0x40 MLOAD PUSH4 0x36BBDE9F PUSH1 0xE1 SHL DUP2 MSTORE PUSH1 0x20 PUSH1 0x4 DUP3 ADD MSTORE PUSH1 0xB PUSH1 0x24 DUP3 ADD MSTORE PUSH11 0x41746F6D69632043616665 PUSH1 0xA8 SHL PUSH1 0x44 DUP3 ADD MSTORE ADDRESS SWAP1 PUSH4 0x6D77BD3E SWAP1 PUSH1 0x64 ADD PUSH1 0x20 PUSH1 0x40 MLOAD DUP1 DUP4 SUB DUP2 PUSH1 0x0 DUP8 DUP1 EXTCODESIZE ISZERO DUP1 ISZERO PUSH2 0xDC0 JUMPI PUSH1 0x0 DUP1 REVERT JUMPDEST POP GAS CALL SWAP3 POP POP POP DUP1 ISZERO PUSH2 0xDF0 JUMPI POP PUSH1 0x40 DUP1 MLOAD PUSH1 0x1F RETURNDATASIZE SWAP1 DUP2 ADD PUSH1 0x1F NOT AND DUP3 ADD SWAP1 SWAP3 MSTORE PUSH2 0xDED SWAP2 DUP2 ADD SWAP1 PUSH2 0x2249 JUMP JUMPDEST PUSH1 0x1 JUMPDEST PUSH2 0xFCF JUMPI PUSH2 0xDFC PUSH2 0x276C JUMP JUMPDEST DUP1 PUSH4 0x8C379A0 EQ ISZERO PUSH2 0xEA7 JUMPI POP PUSH2 0xE11 PUSH2 0x2788 JUMP JUMPDEST DUP1 PUSH2 0xE1C JUMPI POP PUSH2 0xF3D JUMP JUMPDEST PUSH1 0x40 MLOAD PUSH4 0x7461658B PUSH1 0xE1 SHL DUP2 MSTORE PUSH20 0x0 SWAP1 PUSH4 0xE8C2CB16 SWAP1 PUSH2 0xE53 SWAP1 DUP5 SWAP1 PUSH1 0x4 ADD PUSH2 0x23CE JUMP JUMPDEST PUSH1 0x20 PUSH1 0x40 MLOAD DUP1 DUP4 SUB DUP2 DUP7 DUP1 EXTCODESIZE ISZERO DUP1 ISZERO PUSH2 0xE6B JUMPI PUSH1 0x0 DUP1 REVERT JUMPDEST POP GAS DELEGATECALL ISZERO DUP1 ISZERO PUSH2 0xE7F JUMPI RETURNDATASIZE PUSH1 0x0 DUP1 RETURNDATACOPY RETURNDATASIZE PUSH1 0x0 REVERT JUMPDEST POP POP POP POP PUSH1 0x40 MLOAD RETURNDATASIZE PUSH1 0x1F NOT PUSH1 0x1F DUP3 ADD AND DUP3 ADD DUP1 PUSH1 0x40 MSTORE POP DUP2 ADD SWAP1 PUSH2 0xEA3 SWAP2 SWAP1 PUSH2 0x21D9 JUMP JUMPDEST POP POP JUMP JUMPDEST PUSH4 0x4E487B71 EQ ISZERO PUSH2 0xF3D JUMPI PUSH2 0xEBA PUSH2 0x2812 JUMP JUMPDEST SWAP1 PUSH2 0xEC5 JUMPI POP PUSH2 0xF3D JUMP JUMPDEST PUSH1 0x40 DUP1 MLOAD PUSH4 0x39DF137F PUSH1 0xE0 SHL DUP2 MSTORE PUSH1 0x0 PUSH1 0x4 DUP3 ADD MSTORE PUSH1 0x24 DUP2 ADD SWAP2 SWAP1 SWAP2 MSTORE PUSH1 0x21 PUSH1 0x44 DUP3 ADD MSTORE PUSH32 0x4661696C656420756E65787065637465642077697468206572726F7220636F64 PUSH1 0x64 DUP3 ADD MSTORE PUSH1 0x65 PUSH1 0xF8 SHL PUSH1 0x84 DUP3 ADD MSTORE PUSH20 0x0 SWAP1 PUSH4 0x39DF137F SWAP1 PUSH1 0xA4 ADD PUSH2 0xE53 JUMP JUMPDEST RETURNDATASIZE DUP1 DUP1 ISZERO PUSH2 0xF67 JUMPI PUSH1 0x40 MLOAD SWAP2 POP PUSH1 0x1F NOT PUSH1 0x3F RETURNDATASIZE ADD AND DUP3 ADD PUSH1 0x40 MSTORE RETURNDATASIZE DUP3 MSTORE RETURNDATASIZE PUSH1 0x0 PUSH1 0x20 DUP5 ADD RETURNDATACOPY PUSH2 0xF6C JUMP JUMPDEST PUSH1 0x60 SWAP2 POP JUMPDEST POP PUSH1 0x40 DUP1 MLOAD PUSH4 0x39DF137F PUSH1 0xE0 SHL DUP2 MSTORE PUSH1 0x0 PUSH1 0x4 DUP3 ADD MSTORE PUSH1 0x24 DUP2 ADD SWAP2 SWAP1 SWAP2 MSTORE PUSH1 0x11 PUSH1 0x44 DUP3 ADD MSTORE PUSH17 0x11985A5B1959081D5B995E1C1958DD1959 PUSH1 0x7A SHL PUSH1 0x64 DUP3 ADD MSTORE PUSH20 0x0 SWAP1 PUSH4 0x39DF137F SWAP1 PUSH1 0x84 ADD PUSH2 0xE53 JUMP JUMPDEST PUSH1 0x40 MLOAD PUSH4 0x2B080AF1 PUSH1 0xE1 SHL DUP2 MSTORE PUSH20 0x0 SWAP1 PUSH4 0x561015E2 SWAP1 PUSH2 0xE53 SWAP1 DUP5 SWAP1 PUSH1 0x3 SWAP1 PUSH1 0x4 ADD PUSH2 0x25FA JUMP JUMPDEST JUMP JUMPDEST PUSH1 0xB SLOAD PUSH1 0x0 SWAP1 PUSH1 0xFF AND ISZERO PUSH2 0x1031 JUMPI PUSH1 0x40 MLOAD PUSH3 0x461BCD PUSH1 0xE5 SHL DUP2 MSTORE PUSH1 0x4 ADD PUSH2 0x472 SWAP1 PUSH2 0x2562 JUMP JUMPDEST PUSH1 0x5 SLOAD PUSH1 0x1 PUSH1 0x1 PUSH1 0xA0 SHL SUB AND CALLER EQ PUSH2 0x105B JUMPI PUSH1 0x40 MLOAD PUSH3 0x461BCD PUSH1 0xE5 SHL DUP2 MSTORE PUSH1 0x4 ADD PUSH2 0x472 SWAP1 PUSH2 0x2592 JUMP JUMPDEST PUSH1 0x0 DUP1 PUSH1 0x9 SLOAD PUSH2 0x100 SWAP1 DIV PUSH1 0xFF AND PUSH1 0x2 DUP2 GT ISZERO PUSH2 0x107A JUMPI PUSH2 0x107A PUSH2 0x2740 JUMP JUMPDEST EQ PUSH2 0x1097 JUMPI PUSH1 0x40 MLOAD PUSH3 0x461BCD PUSH1 0xE5 SHL DUP2 MSTORE PUSH1 0x4 ADD PUSH2 0x472 SWAP1 PUSH2 0x25A4 JUMP JUMPDEST PUSH2 0x10A0 DUP4 PUSH2 0x117F JUMP JUMPDEST SWAP4 SWAP3 POP POP POP JUMP JUMPDEST PUSH1 0x11 SLOAD PUSH1 0x40 DUP1 MLOAD PUSH4 0x3B9F708D PUSH1 0xE0 SHL DUP2 MSTORE PUSH1 0x1 PUSH1 0x1 PUSH1 0xA0 SHL SUB SWAP1 SWAP3 AND PUSH1 0x4 DUP4 ADD MSTORE PUSH1 0x24 DUP3 ADD MSTORE PUSH1 0x7 PUSH1 0x44 DUP3 ADD MSTORE PUSH7 0x44616E69656C73 PUSH1 0xC8 SHL PUSH1 0x64 DUP3 ADD MSTORE ADDRESS SWAP1 PUSH4 0x3B9F708D SWAP1 PUSH1 0x84 ADD PUSH1 0x20 PUSH1 0x40 MLOAD DUP1 DUP4 SUB DUP2 PUSH1 0x0 DUP8 DUP1 EXTCODESIZE ISZERO DUP1 ISZERO PUSH2 0x1109 JUMPI PUSH1 0x0 DUP1 REVERT JUMPDEST POP GAS CALL SWAP3 POP POP POP DUP1 ISZERO PUSH2 0x1139 JUMPI POP PUSH1 0x40 DUP1 MLOAD PUSH1 0x1F RETURNDATASIZE SWAP1 DUP2 ADD PUSH1 0x1F NOT AND DUP3 ADD SWAP1 SWAP3 MSTORE PUSH2 0x1136 SWAP2 DUP2 ADD SWAP1 PUSH2 0x2249 JUMP JUMPDEST PUSH1 0x1 JUMPDEST PUSH2 0x1145 JUMPI PUSH2 0xDFC PUSH2 0x276C JUMP JUMPDEST PUSH1 0x40 MLOAD PUSH4 0x2B080AF1 PUSH1 0xE1 SHL DUP2 MSTORE PUSH20 0x0 SWAP1 PUSH4 0x561015E2 SWAP1 PUSH2 0xE53 SWAP1 DUP5 SWAP1 PUSH1 0x5 SWAP1 PUSH1 0x4 ADD PUSH2 0x25FA JUMP JUMPDEST PUSH1 0xB SLOAD PUSH1 0x0 SWAP1 PUSH1 0xFF AND ISZERO PUSH2 0x11A5 JUMPI PUSH1 0x40 MLOAD PUSH3 0x461BCD PUSH1 0xE5 SHL DUP2 MSTORE PUSH1 0x4 ADD PUSH2 0x472 SWAP1 PUSH2 0x2562 JUMP JUMPDEST PUSH1 0x0 DUP1 PUSH1 0x9 SLOAD PUSH2 0x100 SWAP1 DIV PUSH1 0xFF AND PUSH1 0x2 DUP2 GT ISZERO PUSH2 0x11C4 JUMPI PUSH2 0x11C4 PUSH2 0x2740 JUMP JUMPDEST EQ PUSH2 0x11E1 JUMPI PUSH1 0x40 MLOAD PUSH3 0x461BCD PUSH1 0xE5 SHL DUP2 MSTORE PUSH1 0x4 ADD PUSH2 0x472 SWAP1 PUSH2 0x25A4 JUMP JUMPDEST PUSH1 0x0 DUP4 PUSH1 0x40 MLOAD PUSH1 0x20 ADD PUSH2 0x11F4 SWAP2 SWAP1 PUSH2 0x2306 JUMP JUMPDEST PUSH1 0x40 DUP1 MLOAD PUSH1 0x1F NOT DUP2 DUP5 SUB ADD DUP2 MSTORE SWAP2 DUP2 MSTORE DUP2 MLOAD PUSH1 0x20 SWAP3 DUP4 ADD KECCAK256 PUSH1 0x0 DUP2 DUP2 MSTORE PUSH1 0xC SWAP1 SWAP4 MSTORE SWAP2 KECCAK256 SLOAD SWAP1 SWAP2 POP PUSH1 0xFF AND ISZERO PUSH2 0x126C JUMPI PUSH1 0x40 MLOAD PUSH3 0x461BCD PUSH1 0xE5 SHL DUP2 MSTORE PUSH1 0x20 PUSH1 0x4 DUP3 ADD MSTORE PUSH1 0x1A PUSH1 0x24 DUP3 ADD MSTORE PUSH32 0x52657374617572616E7420616C7265616479206578697374732E000000000000 PUSH1 0x44 DUP3 ADD MSTORE PUSH1 0x64 ADD PUSH2 0x472 JUMP JUMPDEST PUSH1 0x2 DUP1 SLOAD SWAP1 PUSH1 0x0 PUSH2 0x127C DUP4 PUSH2 0x270F JUMP JUMPDEST SWAP1 SWAP2 SSTORE POP POP PUSH1 0x2 SLOAD PUSH1 0x0 SWAP1 DUP2 MSTORE PUSH1 0x20 DUP2 DUP2 MSTORE PUSH1 0x40 SWAP1 SWAP2 KECCAK256 DUP6 MLOAD PUSH2 0x12A1 SWAP3 DUP8 ADD SWAP1 PUSH2 0x1FC7 JUMP JUMPDEST POP PUSH1 0x0 SWAP1 DUP2 MSTORE PUSH1 0xC PUSH1 0x20 MSTORE PUSH1 0x40 SWAP1 KECCAK256 DUP1 SLOAD PUSH1 0xFF NOT AND PUSH1 0x1 OR SWAP1 SSTORE PUSH1 0x2 SLOAD SWAP2 POP POP SWAP2 SWAP1 POP JUMP JUMPDEST PUSH1 0x40 MLOAD PUSH4 0xCE88B145 PUSH1 0xE0 SHL DUP2 MSTORE PUSH1 0x0 PUSH1 0x4 DUP3 ADD MSTORE PUSH20 0x0 SWAP1 PUSH4 0xCE88B145 SWAP1 PUSH1 0x24 ADD PUSH1 0x20 PUSH1 0x40 MLOAD DUP1 DUP4 SUB DUP2 DUP7 DUP1 EXTCODESIZE ISZERO DUP1 ISZERO PUSH2 0x1311 JUMPI PUSH1 0x0 DUP1 REVERT JUMPDEST POP GAS DELEGATECALL ISZERO DUP1 ISZERO PUSH2 0x1325 JUMPI RETURNDATASIZE PUSH1 0x0 DUP1 RETURNDATACOPY RETURNDATASIZE PUSH1 0x0 REVERT JUMPDEST POP POP POP POP PUSH1 0x40 MLOAD RETURNDATASIZE PUSH1 0x1F NOT PUSH1 0x1F DUP3 ADD AND DUP3 ADD DUP1 PUSH1 0x40 MSTORE POP DUP2 ADD SWAP1 PUSH2 0x1349 SWAP2 SWAP1 PUSH2 0x216C JUMP JUMPDEST PUSH1 0xD DUP1 SLOAD PUSH1 0x1 PUSH1 0x1 PUSH1 0xA0 SHL SUB NOT AND PUSH1 0x1 PUSH1 0x1 PUSH1 0xA0 SHL SUB SWAP3 SWAP1 SWAP3 AND SWAP2 SWAP1 SWAP2 OR SWAP1 SSTORE PUSH1 0x40 MLOAD PUSH4 0xCE88B145 PUSH1 0xE0 SHL DUP2 MSTORE PUSH1 0x1 PUSH1 0x4 DUP3 ADD MSTORE PUSH20 0x0 SWAP1 PUSH4 0xCE88B145 SWAP1 PUSH1 0x24 ADD PUSH1 0x20 PUSH1 0x40 MLOAD DUP1 DUP4 SUB DUP2 DUP7 DUP1 EXTCODESIZE ISZERO DUP1 ISZERO PUSH2 0x13B4 JUMPI PUSH1 0x0 DUP1 REVERT JUMPDEST POP GAS DELEGATECALL ISZERO DUP1 ISZERO PUSH2 0x13C8 JUMPI RETURNDATASIZE PUSH1 0x0 DUP1 RETURNDATACOPY RETURNDATASIZE PUSH1 0x0 REVERT JUMPDEST POP POP POP POP PUSH1 0x40 MLOAD RETURNDATASIZE PUSH1 0x1F NOT PUSH1 0x1F DUP3 ADD AND DUP3 ADD DUP1 PUSH1 0x40 MSTORE POP DUP2 ADD SWAP1 PUSH2 0x13EC SWAP2 SWAP1 PUSH2 0x216C JUMP JUMPDEST PUSH1 0xE DUP1 SLOAD PUSH1 0x1 PUSH1 0x1 PUSH1 0xA0 SHL SUB NOT AND PUSH1 0x1 PUSH1 0x1 PUSH1 0xA0 SHL SUB SWAP3 SWAP1 SWAP3 AND SWAP2 SWAP1 SWAP2 OR SWAP1 SSTORE PUSH1 0x40 MLOAD PUSH4 0xCE88B145 PUSH1 0xE0 SHL DUP2 MSTORE PUSH1 0x2 PUSH1 0x4 DUP3 ADD MSTORE PUSH20 0x0 SWAP1 PUSH4 0xCE88B145 SWAP1 PUSH1 0x24 ADD PUSH1 0x20 PUSH1 0x40 MLOAD DUP1 DUP4 SUB DUP2 DUP7 DUP1 EXTCODESIZE ISZERO DUP1 ISZERO PUSH2 0x1457 JUMPI PUSH1 0x0 DUP1 REVERT JUMPDEST POP GAS DELEGATECALL ISZERO DUP1 ISZERO PUSH2 0x146B JUMPI RETURNDATASIZE PUSH1 0x0 DUP1 RETURNDATACOPY RETURNDATASIZE PUSH1 0x0 REVERT JUMPDEST POP POP POP POP PUSH1 0x40 MLOAD RETURNDATASIZE PUSH1 0x1F NOT PUSH1 0x1F DUP3 ADD AND DUP3 ADD DUP1 PUSH1 0x40 MSTORE POP DUP2 ADD SWAP1 PUSH2 0x148F SWAP2 SWAP1 PUSH2 0x216C JUMP JUMPDEST PUSH1 0xF DUP1 SLOAD PUSH1 0x1 PUSH1 0x1 PUSH1 0xA0 SHL SUB NOT AND PUSH1 0x1 PUSH1 0x1 PUSH1 0xA0 SHL SUB SWAP3 SWAP1 SWAP3 AND SWAP2 SWAP1 SWAP2 OR SWAP1 SSTORE PUSH1 0x40 MLOAD PUSH4 0xCE88B145 PUSH1 0xE0 SHL DUP2 MSTORE PUSH1 0x3 PUSH1 0x4 DUP3 ADD MSTORE PUSH20 0x0 SWAP1 PUSH4 0xCE88B145 SWAP1 PUSH1 0x24 ADD PUSH1 0x20 PUSH1 0x40 MLOAD DUP1 DUP4 SUB DUP2 DUP7 DUP1 EXTCODESIZE ISZERO DUP1 ISZERO PUSH2 0x14FA JUMPI PUSH1 0x0 DUP1 REVERT JUMPDEST POP GAS DELEGATECALL ISZERO DUP1 ISZERO PUSH2 0x150E JUMPI RETURNDATASIZE PUSH1 0x0 DUP1 RETURNDATACOPY RETURNDATASIZE PUSH1 0x0 REVERT JUMPDEST POP POP POP POP PUSH1 0x40 MLOAD RETURNDATASIZE PUSH1 0x1F NOT PUSH1 0x1F DUP3 ADD AND DUP3 ADD DUP1 PUSH1 0x40 MSTORE POP DUP2 ADD SWAP1 PUSH2 0x1532 SWAP2 SWAP1 PUSH2 0x216C JUMP JUMPDEST PUSH1 0x10 DUP1 SLOAD PUSH1 0x1 PUSH1 0x1 PUSH1 0xA0 SHL SUB NOT AND PUSH1 0x1 PUSH1 0x1 PUSH1 0xA0 SHL SUB SWAP3 SWAP1 SWAP3 AND SWAP2 SWAP1 SWAP2 OR SWAP1 SSTORE PUSH1 0x40 MLOAD PUSH4 0xCE88B145 PUSH1 0xE0 SHL DUP2 MSTORE PUSH1 0x4 DUP1 DUP3 ADD MSTORE PUSH20 0x0 SWAP1 PUSH4 0xCE88B145 SWAP1 PUSH1 0x24 ADD PUSH1 0x20 PUSH1 0x40 MLOAD DUP1 DUP4 SUB DUP2 DUP7 DUP1 EXTCODESIZE ISZERO DUP1 ISZERO PUSH2 0x159C JUMPI PUSH1 0x0 DUP1 REVERT JUMPDEST POP GAS DELEGATECALL ISZERO DUP1 ISZERO PUSH2 0x15B0 JUMPI RETURNDATASIZE PUSH1 0x0 DUP1 RETURNDATACOPY RETURNDATASIZE PUSH1 0x0 REVERT JUMPDEST POP POP POP POP PUSH1 0x40 MLOAD RETURNDATASIZE PUSH1 0x1F NOT PUSH1 0x1F DUP3 ADD AND DUP3 ADD DUP1 PUSH1 0x40 MSTORE POP DUP2 ADD SWAP1 PUSH2 0x15D4 SWAP2 SWAP1 PUSH2 0x216C JUMP JUMPDEST PUSH1 0x11 DUP1 SLOAD PUSH1 0x1 PUSH1 0x1 PUSH1 0xA0 SHL SUB NOT AND PUSH1 0x1 PUSH1 0x1 PUSH1 0xA0 SHL SUB SWAP3 SWAP1 SWAP3 AND SWAP2 SWAP1 SWAP2 OR SWAP1 SSTORE JUMP JUMPDEST PUSH1 0xD SLOAD PUSH1 0x40 DUP1 MLOAD DUP1 DUP3 ADD SWAP1 SWAP2 MSTORE PUSH1 0x5 DUP2 MSTORE PUSH5 0x416C696365 PUSH1 0xD8 SHL PUSH1 0x20 DUP3 ADD MSTORE PUSH20 0x0 SWAP2 PUSH4 0xABCD7960 SWAP2 PUSH2 0x1644 SWAP2 PUSH1 0x1 PUSH1 0x1 PUSH1 0xA0 SHL SUB AND SWAP1 PUSH2 0xB65 JUMP JUMPDEST PUSH1 0x40 MLOAD PUSH1 0x1 PUSH1 0x1 PUSH1 0xE0 SHL SUB NOT PUSH1 0xE0 DUP5 SWAP1 SHL AND DUP2 MSTORE PUSH1 0x4 DUP2 ADD SWAP2 SWAP1 SWAP2 MSTORE PUSH1 0x1 PUSH1 0x24 DUP3 ADD MSTORE PUSH1 0x60 PUSH1 0x44 DUP3 ADD MSTORE PUSH1 0x14 PUSH1 0x64 DUP3 ADD MSTORE PUSH20 0x53686F756C6420626520657175616C20746F2031 PUSH1 0x60 SHL PUSH1 0x84 DUP3 ADD MSTORE PUSH1 0xA4 ADD PUSH1 0x20 PUSH1 0x40 MLOAD DUP1 DUP4 SUB DUP2 DUP7 DUP1 EXTCODESIZE ISZERO DUP1 ISZERO PUSH2 0x16AD JUMPI PUSH1 0x0 DUP1 REVERT JUMPDEST POP GAS DELEGATECALL ISZERO DUP1 ISZERO PUSH2 0x16C1 JUMPI RETURNDATASIZE PUSH1 0x0 DUP1 RETURNDATACOPY RETURNDATASIZE PUSH1 0x0 REVERT JUMPDEST POP POP POP POP PUSH1 0x40 MLOAD RETURNDATASIZE PUSH1 0x1F NOT PUSH1 0x1F DUP3 ADD AND DUP3 ADD DUP1 PUSH1 0x40 MSTORE POP DUP2 ADD SWAP1 PUSH2 0x16E5 SWAP2 SWAP1 PUSH2 0x21D9 JUMP JUMPDEST POP PUSH1 0xE SLOAD PUSH1 0x40 DUP1 MLOAD DUP1 DUP3 ADD SWAP1 SWAP2 MSTORE PUSH1 0x3 DUP2 MSTORE PUSH3 0x2137B1 PUSH1 0xE9 SHL PUSH1 0x20 DUP3 ADD MSTORE PUSH20 0x0 SWAP2 PUSH4 0xABCD7960 SWAP2 PUSH2 0x1732 SWAP2 PUSH1 0x1 PUSH1 0x1 PUSH1 0xA0 SHL SUB AND SWAP1 PUSH2 0xB65 JUMP JUMPDEST PUSH1 0x40 MLOAD PUSH1 0x1 PUSH1 0x1 PUSH1 0xE0 SHL SUB NOT PUSH1 0xE0 DUP5 SWAP1 SHL AND DUP2 MSTORE PUSH1 0x4 DUP2 ADD SWAP2 SWAP1 SWAP2 MSTORE PUSH1 0x2 PUSH1 0x24 DUP3 ADD MSTORE PUSH1 0x60 PUSH1 0x44 DUP3 ADD MSTORE PUSH1 0x14 PUSH1 0x64 DUP3 ADD MSTORE PUSH20 0x29B437BAB6321031329032B8BAB0B6103A379019 PUSH1 0x61 SHL PUSH1 0x84 DUP3 ADD MSTORE PUSH1 0xA4 ADD PUSH1 0x20 PUSH1 0x40 MLOAD DUP1 DUP4 SUB DUP2 DUP7 DUP1 EXTCODESIZE ISZERO DUP1 ISZERO PUSH2 0x179B JUMPI PUSH1 0x0 DUP1 REVERT JUMPDEST POP GAS DELEGATECALL ISZERO DUP1 ISZERO PUSH2 0x17AF JUMPI RETURNDATASIZE PUSH1 0x0 DUP1 RETURNDATACOPY RETURNDATASIZE PUSH1 0x0 REVERT JUMPDEST POP POP POP POP PUSH1 0x40 MLOAD RETURNDATASIZE PUSH1 0x1F NOT PUSH1 0x1F DUP3 ADD AND DUP3 ADD DUP1 PUSH1 0x40 MSTORE POP DUP2 ADD SWAP1 PUSH2 0x17D3 SWAP2 SWAP1 PUSH2 0x21D9 JUMP JUMPDEST POP PUSH1 0xF SLOAD PUSH1 0x40 DUP1 MLOAD DUP1 DUP3 ADD SWAP1 SWAP2 MSTORE PUSH1 0x7 DUP2 MSTORE PUSH7 0x436861726C6965 PUSH1 0xC8 SHL PUSH1 0x20 DUP3 ADD MSTORE PUSH20 0x0 SWAP2 PUSH4 0xABCD7960 SWAP2 PUSH2 0x1824 SWAP2 PUSH1 0x1 PUSH1 0x1 PUSH1 0xA0 SHL SUB AND SWAP1 PUSH2 0xB65 JUMP JUMPDEST PUSH1 0x40 MLOAD PUSH1 0x1 PUSH1 0x1 PUSH1 0xE0 SHL SUB NOT PUSH1 0xE0 DUP5 SWAP1 SHL AND DUP2 MSTORE PUSH1 0x4 DUP2 ADD SWAP2 SWAP1 SWAP2 MSTORE PUSH1 0x3 PUSH1 0x24 DUP3 ADD MSTORE PUSH1 0x60 PUSH1 0x44 DUP3 ADD MSTORE PUSH1 0x14 PUSH1 0x64 DUP3 ADD MSTORE PUSH20 0x53686F756C6420626520657175616C20746F2033 PUSH1 0x60 SHL PUSH1 0x84 DUP3 ADD MSTORE PUSH1 0xA4 ADD PUSH1 0x20 PUSH1 0x40 MLOAD DUP1 DUP4 SUB DUP2 DUP7 DUP1 EXTCODESIZE ISZERO DUP1 ISZERO PUSH2 0x188D JUMPI PUSH1 0x0 DUP1 REVERT JUMPDEST POP GAS DELEGATECALL ISZERO DUP1 ISZERO PUSH2 0x18A1 JUMPI RETURNDATASIZE PUSH1 0x0 DUP1 RETURNDATACOPY RETURNDATASIZE PUSH1 0x0 REVERT JUMPDEST POP POP POP POP PUSH1 0x40 MLOAD RETURNDATASIZE PUSH1 0x1F NOT PUSH1 0x1F DUP3 ADD AND DUP3 ADD DUP1 PUSH1 0x40 MSTORE POP DUP2 ADD SWAP1 PUSH2 0x18C5 SWAP2 SWAP1 PUSH2 0x21D9 JUMP JUMPDEST POP PUSH1 0x10 SLOAD PUSH1 0x40 DUP1 MLOAD DUP1 DUP3 ADD SWAP1 SWAP2 MSTORE PUSH1 0x3 DUP2 MSTORE PUSH3 0x457665 PUSH1 0xE8 SHL PUSH1 0x20 DUP3 ADD MSTORE PUSH20 0x0 SWAP2 PUSH4 0xABCD7960 SWAP2 PUSH2 0x1912 SWAP2 PUSH1 0x1 PUSH1 0x1 PUSH1 0xA0 SHL SUB AND SWAP1 PUSH2 0xB65 JUMP JUMPDEST PUSH1 0x4 PUSH1 0x40 MLOAD DUP4 PUSH4 0xFFFFFFFF AND PUSH1 0xE0 SHL DUP2 MSTORE PUSH1 0x4 ADD PUSH2 0x85F SWAP3 SWAP2 SWAP1 SWAP2 DUP3 MSTORE PUSH1 0x20 DUP3 ADD MSTORE PUSH1 0x60 PUSH1 0x40 DUP3 ADD DUP2 SWAP1 MSTORE PUSH1 0x14 SWAP1 DUP3 ADD MSTORE PUSH20 0x14DA1BDD5B1908189948195C5D585B081D1BC80D PUSH1 0x62 SHL PUSH1 0x80 DUP3 ADD MSTORE PUSH1 0xA0 ADD SWAP1 JUMP JUMPDEST PUSH1 0x0 PUSH2 0x1971 DUP3 PUSH2 0x44C JUMP JUMPDEST SWAP3 SWAP2 POP POP JUMP JUMPDEST PUSH1 0x5 SLOAD PUSH1 0xD SLOAD PUSH1 0x40 MLOAD PUSH4 0x5FDD2EEB PUSH1 0xE1 SHL DUP2 MSTORE PUSH1 0x1 PUSH1 0x1 PUSH1 0xA0 SHL SUB SWAP3 DUP4 AND PUSH1 0x4 DUP3 ADD MSTORE SWAP2 AND PUSH1 0x24 DUP3 ADD MSTORE PUSH1 0x60 PUSH1 0x44 DUP3 ADD MSTORE PUSH1 0x16 PUSH1 0x64 DUP3 ADD MSTORE PUSH22 0x4D616E616765722073686F756C64206265206163633 PUSH1 0x54 SHL PUSH1 0x84 DUP3 ADD MSTORE PUSH20 0x0 SWAP1 PUSH4 0xBFBA5DD6 SWAP1 PUSH1 0xA4 ADD PUSH2 0x85F JUMP JUMPDEST PUSH20 0x0 PUSH4 0x39DF137F PUSH2 0x97D PUSH1 0x1 PUSH2 0x44C JUMP JUMPDEST PUSH1 0x40 MLOAD PUSH4 0x9212C63 PUSH1 0xE1 SHL DUP2 MSTORE PUSH1 0x1 PUSH1 0x4 DUP3 ADD MSTORE ADDRESS SWAP1 PUSH4 0x124258C6 SWAP1 PUSH1 0x24 ADD PUSH1 0x20 PUSH1 0x40 MLOAD DUP1 DUP4 SUB DUP2 PUSH1 0x0 DUP8 DUP1 EXTCODESIZE ISZERO DUP1 ISZERO PUSH2 0x1A4F JUMPI PUSH1 0x0 DUP1 REVERT JUMPDEST POP GAS CALL SWAP3 POP POP POP DUP1 ISZERO PUSH2 0x1A7F JUMPI POP PUSH1 0x40 DUP1 MLOAD PUSH1 0x1F RETURNDATASIZE SWAP1 DUP2 ADD PUSH1 0x1F NOT AND DUP3 ADD SWAP1 SWAP3 MSTORE PUSH2 0x1A7C SWAP2 DUP2 ADD SWAP1 PUSH2 0x21D9 JUMP JUMPDEST PUSH1 0x1 JUMPDEST PUSH2 0x1B90 JUMPI PUSH2 0x1A8B PUSH2 0x276C JUMP JUMPDEST DUP1 PUSH4 0x8C379A0 EQ ISZERO PUSH2 0x1AE2 JUMPI POP PUSH2 0x1AA0 PUSH2 0x2788 JUMP JUMPDEST DUP1 PUSH2 0x1AAB JUMPI POP PUSH2 0x1AFC JUMP JUMPDEST PUSH1 0x40 MLOAD PUSH4 0x7461658B PUSH1 0xE1 SHL DUP2 MSTORE PUSH20 0x0 SWAP1 PUSH4 0xE8C2CB16 SWAP1 PUSH2 0xE53 SWAP1 DUP5 SWAP1 PUSH1 0x4 ADD PUSH2 0x2430 JUMP JUMPDEST PUSH4 0x4E487B71 EQ ISZERO PUSH2 0x1AFC JUMPI PUSH2 0x1AF5 PUSH2 0x2812 JUMP JUMPDEST SWAP1 PUSH2 0xEC5 JUMPI POP JUMPDEST RETURNDATASIZE DUP1 DUP1 ISZERO PUSH2 0x1B26 JUMPI PUSH1 0x40 MLOAD SWAP2 POP PUSH1 0x1F NOT PUSH1 0x3F RETURNDATASIZE ADD AND DUP3 ADD PUSH1 0x40 MSTORE RETURNDATASIZE DUP3 MSTORE RETURNDATASIZE PUSH1 0x0 PUSH1 0x20 DUP5 ADD RETURNDATACOPY PUSH2 0x1B2B JUMP JUMPDEST PUSH1 0x60 SWAP2 POP JUMPDEST POP PUSH1 0x40 DUP1 MLOAD PUSH4 0x39DF137F PUSH1 0xE0 SHL DUP2 MSTORE PUSH1 0x0 PUSH1 0x4 DUP3 ADD MSTORE PUSH1 0x24 DUP2 ADD SWAP2 SWAP1 SWAP2 MSTORE PUSH1 0x13 PUSH1 0x44 DUP3 ADD MSTORE PUSH19 0x4661696C656420756E65787065637465646C79 PUSH1 0x68 SHL PUSH1 0x64 DUP3 ADD MSTORE PUSH20 0x0 SWAP1 PUSH4 0x39DF137F SWAP1 PUSH1 0x84 ADD PUSH2 0xE53 JUMP JUMPDEST PUSH1 0x40 MLOAD PUSH4 0x767392B3 PUSH1 0xE0 SHL DUP2 MSTORE PUSH20 0x0 SWAP1 PUSH4 0x767392B3 SWAP1 PUSH2 0xE53 SWAP1 DUP5 SWAP1 PUSH1 0x1 SWAP1 PUSH1 0x4 ADD PUSH2 0x2322 JUMP JUMPDEST PUSH1 0x40 MLOAD PUSH4 0x7461658B PUSH1 0xE1 SHL DUP2 MSTORE PUSH20 0x0 SWAP1 PUSH4 0xE8C2CB16 SWAP1 PUSH2 0x85F SWAP1 PUSH1 0x6 SWAP1 PUSH1 0x4 ADD PUSH2 0x2454 JUMP JUMPDEST PUSH20 0x0 PUSH4 0x767392B3 PUSH2 0x1C26 PUSH1 0x1 PUSH2 0x44C JUMP JUMPDEST PUSH1 0x40 MLOAD PUSH1 0x1 PUSH1 0x1 PUSH1 0xE0 SHL SUB NOT PUSH1 0xE0 DUP5 SWAP1 SHL AND DUP2 MSTORE SWAP1 ISZERO ISZERO PUSH1 0x4 DUP3 ADD MSTORE PUSH1 0x0 PUSH1 0x24 DUP3 ADD MSTORE PUSH1 0x60 PUSH1 0x44 DUP3 ADD MSTORE PUSH1 0x1D PUSH1 0x64 DUP3 ADD MSTORE PUSH32 0x566F74696E6720726573756C742073686F756C642062652066616C7365000000 PUSH1 0x84 DUP3 ADD MSTORE PUSH1 0xA4 ADD PUSH2 0x85F JUMP JUMPDEST PUSH1 0x0 PUSH1 0x20 DUP2 SWAP1 MSTORE SWAP1 DUP2 MSTORE PUSH1 0x40 SWAP1 KECCAK256 DUP1 SLOAD PUSH2 0x1C9E SWAP1 PUSH2 0x26AD JUMP JUMPDEST DUP1 PUSH1 0x1F ADD PUSH1 0x20 DUP1 SWAP2 DIV MUL PUSH1 0x20 ADD PUSH1 0x40 MLOAD SWAP1 DUP2 ADD PUSH1 0x40 MSTORE DUP1 SWAP3 SWAP2 SWAP1 DUP2 DUP2 MSTORE PUSH1 0x20 ADD DUP3 DUP1 SLOAD PUSH2 0x1CCA SWAP1 PUSH2 0x26AD JUMP JUMPDEST DUP1 ISZERO PUSH2 0x1D17 JUMPI DUP1 PUSH1 0x1F LT PUSH2 0x1CEC JUMPI PUSH2 0x100 DUP1 DUP4 SLOAD DIV MUL DUP4 MSTORE SWAP2 PUSH1 0x20 ADD SWAP2 PUSH2 0x1D17 JUMP JUMPDEST DUP3 ADD SWAP2 SWAP1 PUSH1 0x0 MSTORE PUSH1 0x20 PUSH1 0x0 KECCAK256 SWAP1 JUMPDEST DUP2 SLOAD DUP2 MSTORE SWAP1 PUSH1 0x1 ADD SWAP1 PUSH1 0x20 ADD DUP1 DUP4 GT PUSH2 0x1CFA JUMPI DUP3 SWAP1 SUB PUSH1 0x1F AND DUP3 ADD SWAP2 JUMPDEST POP POP POP POP POP DUP2 JUMP JUMPDEST PUSH1 0x9 SLOAD PUSH1 0x40 MLOAD PUSH4 0x767392B3 PUSH1 0xE0 SHL DUP2 MSTORE PUSH1 0xFF SWAP1 SWAP2 AND ISZERO ISZERO PUSH1 0x4 DUP3 ADD MSTORE PUSH1 0x0 PUSH1 0x24 DUP3 ADD MSTORE PUSH1 0x60 PUSH1 0x44 DUP3 ADD MSTORE PUSH1 0x17 PUSH1 0x64 DUP3 ADD MSTORE PUSH32 0x566F74696E672073686F756C6420626520636C6F736564000000000000000000 PUSH1 0x84 DUP3 ADD MSTORE PUSH20 0x0 SWAP1 PUSH4 0x767392B3 SWAP1 PUSH1 0xA4 ADD PUSH2 0x85F JUMP JUMPDEST PUSH1 0x6 DUP1 SLOAD PUSH2 0x1C9E SWAP1 PUSH2 0x26AD JUMP JUMPDEST PUSH1 0xB SLOAD PUSH1 0xFF AND ISZERO PUSH2 0x1DCA JUMPI PUSH1 0x40 MLOAD PUSH3 0x461BCD PUSH1 0xE5 SHL DUP2 MSTORE PUSH1 0x4 ADD PUSH2 0x472 SWAP1 PUSH2 0x2562 JUMP JUMPDEST PUSH1 0x5 SLOAD PUSH1 0x1 PUSH1 0x1 PUSH1 0xA0 SHL SUB AND CALLER EQ PUSH2 0x1DF4 JUMPI PUSH1 0x40 MLOAD PUSH3 0x461BCD PUSH1 0xE5 SHL DUP2 MSTORE PUSH1 0x4 ADD PUSH2 0x472 SWAP1 PUSH2 0x2592 JUMP JUMPDEST PUSH1 0x1 PUSH1 0x9 SLOAD PUSH2 0x100 SWAP1 DIV PUSH1 0xFF AND PUSH1 0x2 DUP2 GT ISZERO PUSH2 0x1E12 JUMPI PUSH2 0x1E12 PUSH2 0x2740 JUMP JUMPDEST EQ PUSH2 0x1E56 JUMPI PUSH1 0x40 MLOAD PUSH3 0x461BCD PUSH1 0xE5 SHL DUP2 MSTORE PUSH1 0x20 PUSH1 0x4 DUP3 ADD MSTORE PUSH1 0x14 PUSH1 0x24 DUP3 ADD MSTORE PUSH20 0x2737BA1034B7103B37BA34B73390383430B9B297 PUSH1 0x61 SHL PUSH1 0x44 DUP3 ADD MSTORE PUSH1 0x64 ADD PUSH2 0x472 JUMP JUMPDEST PUSH2 0x1009 PUSH2 0x1EB5 JUMP JUMPDEST PUSH1 0x5 SLOAD PUSH1 0x1 PUSH1 0x1 PUSH1 0xA0 SHL SUB AND CALLER EQ PUSH2 0x1E88 JUMPI PUSH1 0x40 MLOAD PUSH3 0x461BCD PUSH1 0xE5 SHL DUP2 MSTORE PUSH1 0x4 ADD PUSH2 0x472 SWAP1 PUSH2 0x2592 JUMP JUMPDEST PUSH1 0xB DUP1 SLOAD PUSH1 0xFF NOT SWAP1 DUP2 AND PUSH1 0x1 OR SWAP1 SWAP2 SSTORE PUSH1 0x9 DUP1 SLOAD SWAP2 DUP3 AND DUP2 SSTORE PUSH1 0x2 SWAP2 PUSH2 0xFFFF NOT AND PUSH2 0x100 DUP4 JUMPDEST MUL OR SWAP1 SSTORE POP JUMP JUMPDEST PUSH1 0x4 SLOAD ISZERO PUSH2 0x1EC5 JUMPI PUSH2 0x1EC5 PUSH2 0x1EE2 JUMP JUMPDEST PUSH1 0x9 DUP1 SLOAD PUSH1 0xFF NOT DUP2 AND DUP3 SSTORE PUSH1 0x2 SWAP2 SWAP1 PUSH2 0xFFFF NOT AND PUSH2 0x100 DUP4 PUSH2 0x1EAE JUMP JUMPDEST PUSH1 0x0 DUP1 PUSH1 0x1 JUMPDEST PUSH1 0x4 SLOAD DUP2 GT PUSH2 0x1F99 JUMPI PUSH1 0x0 DUP2 DUP2 MSTORE PUSH1 0x7 PUSH1 0x20 SWAP1 DUP2 MSTORE PUSH1 0x40 DUP1 DUP4 KECCAK256 PUSH1 0x1 SWAP1 DUP2 ADD SLOAD DUP5 MSTORE PUSH1 0x8 SWAP1 SWAP3 MSTORE SWAP1 SWAP2 KECCAK256 SLOAD ISZERO PUSH2 0x1F44 JUMPI PUSH1 0x0 DUP3 DUP2 MSTORE PUSH1 0x7 PUSH1 0x20 SWAP1 DUP2 MSTORE PUSH1 0x40 DUP1 DUP4 KECCAK256 PUSH1 0x1 ADD SLOAD DUP4 MSTORE PUSH1 0x8 SWAP1 SWAP2 MSTORE SWAP1 KECCAK256 SLOAD PUSH2 0x1F41 SWAP1 DUP3 PUSH2 0x2643 JUMP JUMPDEST SWAP1 POP JUMPDEST PUSH1 0x0 DUP3 DUP2 MSTORE PUSH1 0x7 PUSH1 0x20 SWAP1 DUP2 MSTORE PUSH1 0x40 DUP1 DUP4 KECCAK256 PUSH1 0x1 ADD SLOAD DUP4 MSTORE PUSH1 0x8 SWAP1 SWAP2 MSTORE SWAP1 KECCAK256 DUP2 SWAP1 SSTORE DUP4 DUP2 GT ISZERO PUSH2 0x1F86 JUMPI PUSH1 0x0 DUP3 DUP2 MSTORE PUSH1 0x7 PUSH1 0x20 MSTORE PUSH1 0x40 SWAP1 KECCAK256 PUSH1 0x1 ADD SLOAD SWAP1 SWAP4 POP SWAP2 POP DUP3 JUMPDEST POP DUP1 PUSH2 0x1F91 DUP2 PUSH2 0x270F JUMP JUMPDEST SWAP2 POP POP PUSH2 0x1EE8 JUMP JUMPDEST POP PUSH1 0x0 DUP2 DUP2 MSTORE PUSH1 0x20 DUP2 SWAP1 MSTORE PUSH1 0x40 SWAP1 KECCAK256 DUP1 SLOAD PUSH1 0x6 SWAP2 SWAP1 PUSH2 0x1FB7 SWAP1 PUSH2 0x26AD JUMP JUMPDEST PUSH2 0x1FC2 SWAP3 SWAP2 SWAP1 PUSH2 0x204B JUMP JUMPDEST POP POP POP JUMP JUMPDEST DUP3 DUP1 SLOAD PUSH2 0x1FD3 SWAP1 PUSH2 0x26AD JUMP JUMPDEST SWAP1 PUSH1 0x0 MSTORE PUSH1 0x20 PUSH1 0x0 KECCAK256 SWAP1 PUSH1 0x1F ADD PUSH1 0x20 SWAP1 DIV DUP2 ADD SWAP3 DUP3 PUSH2 0x1FF5 JUMPI PUSH1 0x0 DUP6 SSTORE PUSH2 0x203B JUMP JUMPDEST DUP3 PUSH1 0x1F LT PUSH2 0x200E JUMPI DUP1 MLOAD PUSH1 0xFF NOT AND DUP4 DUP1 ADD OR DUP6 SSTORE PUSH2 0x203B JUMP JUMPDEST DUP3 DUP1 ADD PUSH1 0x1 ADD DUP6 SSTORE DUP3 ISZERO PUSH2 0x203B JUMPI SWAP2 DUP3 ADD JUMPDEST DUP3 DUP2 GT ISZERO PUSH2 0x203B JUMPI DUP3 MLOAD DUP3 SSTORE SWAP2 PUSH1 0x20 ADD SWAP2 SWAP1 PUSH1 0x1 ADD SWAP1 PUSH2 0x2020 JUMP JUMPDEST POP PUSH2 0x2047 SWAP3 SWAP2 POP PUSH2 0x20C6 JUMP JUMPDEST POP SWAP1 JUMP JUMPDEST DUP3 DUP1 SLOAD PUSH2 0x2057 SWAP1 PUSH2 0x26AD JUMP JUMPDEST SWAP1 PUSH1 0x0 MSTORE PUSH1 0x20 PUSH1 0x0 KECCAK256 SWAP1 PUSH1 0x1F ADD PUSH1 0x20 SWAP1 DIV DUP2 ADD SWAP3 DUP3 PUSH2 0x2079 JUMPI PUSH1 0x0 DUP6 SSTORE PUSH2 0x203B JUMP JUMPDEST DUP3 PUSH1 0x1F LT PUSH2 0x208A JUMPI DUP1 SLOAD DUP6 SSTORE PUSH2 0x203B JUMP JUMPDEST DUP3 DUP1 ADD PUSH1 0x1 ADD DUP6 SSTORE DUP3 ISZERO PUSH2 0x203B JUMPI PUSH1 0x0 MSTORE PUSH1 0x20 PUSH1 0x0 KECCAK256 SWAP2 PUSH1 0x1F ADD PUSH1 0x20 SWAP1 DIV DUP3 ADD JUMPDEST DUP3 DUP2 GT ISZERO PUSH2 0x203B JUMPI DUP3 SLOAD DUP3 SSTORE SWAP2 PUSH1 0x1 ADD SWAP2 SWAP1 PUSH1 0x1 ADD SWAP1 PUSH2 0x20AB JUMP JUMPDEST JUMPDEST DUP1 DUP3 GT ISZERO PUSH2 0x2047 JUMPI PUSH1 0x0 DUP2 SSTORE PUSH1 0x1 ADD PUSH2 0x20C7 JUMP JUMPDEST PUSH1 0x0 DUP3 PUSH1 0x1F DUP4 ADD SLT PUSH2 0x20EC JUMPI PUSH1 0x0 DUP1 REVERT JUMPDEST DUP2 CALLDATALOAD PUSH8 0xFFFFFFFFFFFFFFFF DUP2 GT ISZERO PUSH2 0x2106 JUMPI PUSH2 0x2106 PUSH2 0x2756 JUMP JUMPDEST PUSH1 0x40 MLOAD PUSH2 0x211D PUSH1 0x1F DUP4 ADD PUSH1 0x1F NOT AND PUSH1 0x20 ADD DUP3 PUSH2 0x26E2 JUMP JUMPDEST DUP2 DUP2 MSTORE DUP5 PUSH1 0x20 DUP4 DUP7 ADD ADD GT ISZERO PUSH2 0x2132 JUMPI PUSH1 0x0 DUP1 REVERT JUMPDEST DUP2 PUSH1 0x20 DUP6 ADD PUSH1 0x20 DUP4 ADD CALLDATACOPY PUSH1 0x0 SWAP2 DUP2 ADD PUSH1 0x20 ADD SWAP2 SWAP1 SWAP2 MSTORE SWAP4 SWAP3 POP POP POP JUMP JUMPDEST PUSH1 0x0 PUSH1 0x20 DUP3 DUP5 SUB SLT ISZERO PUSH2 0x2161 JUMPI PUSH1 0x0 DUP1 REVERT JUMPDEST DUP2 CALLDATALOAD PUSH2 0x10A0 DUP2 PUSH2 0x2832 JUMP JUMPDEST PUSH1 0x0 PUSH1 0x20 DUP3 DUP5 SUB SLT ISZERO PUSH2 0x217E JUMPI PUSH1 0x0 DUP1 REVERT JUMPDEST DUP2 MLOAD PUSH2 0x10A0 DUP2 PUSH2 0x2832 JUMP JUMPDEST PUSH1 0x0 DUP1 PUSH1 0x40 DUP4 DUP6 SUB SLT ISZERO PUSH2 0x219C JUMPI PUSH1 0x0 DUP1 REVERT JUMPDEST DUP3 CALLDATALOAD PUSH2 0x21A7 DUP2 PUSH2 0x2832 JUMP JUMPDEST SWAP2 POP PUSH1 0x20 DUP4 ADD CALLDATALOAD PUSH8 0xFFFFFFFFFFFFFFFF DUP2 GT ISZERO PUSH2 0x21C3 JUMPI PUSH1 0x0 DUP1 REVERT JUMPDEST PUSH2 0x21CF DUP6 DUP3 DUP7 ADD PUSH2 0x20DB JUMP JUMPDEST SWAP2 POP POP SWAP3 POP SWAP3 SWAP1 POP JUMP JUMPDEST PUSH1 0x0 PUSH1 0x20 DUP3 DUP5 SUB SLT ISZERO PUSH2 0x21EB JUMPI PUSH1 0x0 DUP1 REVERT JUMPDEST DUP2 MLOAD DUP1 ISZERO ISZERO DUP2 EQ PUSH2 0x10A0 JUMPI PUSH1 0x0 DUP1 REVERT JUMPDEST PUSH1 0x0 PUSH1 0x20 DUP3 DUP5 SUB SLT ISZERO PUSH2 0x220D JUMPI PUSH1 0x0 DUP1 REVERT JUMPDEST DUP2 CALLDATALOAD PUSH8 0xFFFFFFFFFFFFFFFF DUP2 GT ISZERO PUSH2 0x2224 JUMPI PUSH1 0x0 DUP1 REVERT JUMPDEST PUSH2 0xBFB DUP5 DUP3 DUP6 ADD PUSH2 0x20DB JUMP JUMPDEST PUSH1 0x0 PUSH1 0x20 DUP3 DUP5 SUB SLT ISZERO PUSH2 0x2242 JUMPI PUSH1 0x0 DUP1 REVERT JUMPDEST POP CALLDATALOAD SWAP2 SWAP1 POP JUMP JUMPDEST PUSH1 0x0 PUSH1 0x20 DUP3 DUP5 SUB SLT ISZERO PUSH2 0x225B JUMPI PUSH1 0x0 DUP1 REVERT JUMPDEST POP MLOAD SWAP2 SWAP1 POP JUMP JUMPDEST PUSH1 0x0 DUP2 MLOAD DUP1 DUP5 MSTORE PUSH2 0x227A DUP2 PUSH1 0x20 DUP7 ADD PUSH1 0x20 DUP7 ADD PUSH2 0x267D JUMP JUMPDEST PUSH1 0x1F ADD PUSH1 0x1F NOT AND SWAP3 SWAP1 SWAP3 ADD PUSH1 0x20 ADD SWAP3 SWAP2 POP POP JUMP JUMPDEST PUSH1 0x23 DUP2 MSTORE PUSH32 0x43616E206F6E6C7920626520657865637574656420627920746865206D616E61 PUSH1 0x20 DUP3 ADD MSTORE PUSH3 0x33B2B9 PUSH1 0xE9 SHL PUSH1 0x40 DUP3 ADD MSTORE PUSH1 0x60 ADD SWAP1 JUMP JUMPDEST PUSH1 0x23 DUP2 MSTORE PUSH32 0x43616E20766F7465206F6E6C79207768696C6520766F74696E67206973206F70 PUSH1 0x20 DUP3 ADD MSTORE PUSH3 0x32B717 PUSH1 0xE9 SHL PUSH1 0x40 DUP3 ADD MSTORE PUSH1 0x60 ADD SWAP1 JUMP JUMPDEST PUSH1 0x0 DUP3 MLOAD PUSH2 0x2318 DUP2 DUP5 PUSH1 0x20 DUP8 ADD PUSH2 0x267D JUMP JUMPDEST SWAP2 SWAP1 SWAP2 ADD SWAP3 SWAP2 POP POP JUMP JUMPDEST DUP3 ISZERO ISZERO DUP2 MSTORE DUP2 ISZERO ISZERO PUSH1 0x20 DUP3 ADD MSTORE PUSH1 0x60 PUSH1 0x40 DUP3 ADD MSTORE PUSH1 0x0 PUSH2 0xBFB PUSH1 0x60 DUP4 ADD PUSH1 0x1D DUP2 MSTORE PUSH32 0x4D6574686F6420657865637574696F6E20646964206E6F74206661696C000000 PUSH1 0x20 DUP3 ADD MSTORE PUSH1 0x40 ADD SWAP1 JUMP JUMPDEST PUSH1 0x20 DUP2 ADD PUSH1 0x3 DUP4 LT PUSH2 0x2391 JUMPI PUSH4 0x4E487B71 PUSH1 0xE0 SHL PUSH1 0x0 MSTORE PUSH1 0x21 PUSH1 0x4 MSTORE PUSH1 0x24 PUSH1 0x0 REVERT JUMPDEST SWAP2 SWAP1 MSTORE SWAP1 JUMP JUMPDEST PUSH1 0x20 DUP2 MSTORE PUSH1 0x0 PUSH2 0x10A0 PUSH1 0x20 DUP4 ADD DUP5 PUSH2 0x2262 JUMP JUMPDEST PUSH1 0x40 DUP2 MSTORE PUSH1 0x0 PUSH2 0x23BD PUSH1 0x40 DUP4 ADD DUP6 PUSH2 0x2262 JUMP JUMPDEST SWAP1 POP DUP3 ISZERO ISZERO PUSH1 0x20 DUP4 ADD MSTORE SWAP4 SWAP3 POP POP POP JUMP JUMPDEST PUSH1 0x60 DUP2 MSTORE PUSH1 0x0 PUSH2 0x23E1 PUSH1 0x60 DUP4 ADD DUP5 PUSH2 0x2262 JUMP JUMPDEST DUP3 DUP2 SUB PUSH1 0x20 DUP5 ADD MSTORE PUSH2 0x23F2 DUP2 PUSH2 0x228E JUMP JUMPDEST SWAP1 POP DUP3 DUP2 SUB PUSH1 0x40 DUP5 ADD MSTORE PUSH2 0xBFB DUP2 PUSH1 0x1D DUP2 MSTORE PUSH32 0x4661696C6564207769746820756E657870656374656420726561736F6E000000 PUSH1 0x20 DUP3 ADD MSTORE PUSH1 0x40 ADD SWAP1 JUMP JUMPDEST PUSH1 0x60 DUP2 MSTORE PUSH1 0x0 PUSH2 0x2443 PUSH1 0x60 DUP4 ADD DUP5 PUSH2 0x2262 JUMP JUMPDEST DUP3 DUP2 SUB PUSH1 0x20 DUP5 ADD MSTORE PUSH2 0x23F2 DUP2 PUSH2 0x22CA JUMP JUMPDEST PUSH1 0x60 DUP2 MSTORE PUSH1 0x0 DUP1 DUP4 SLOAD DUP2 PUSH1 0x1 DUP3 DUP2 SHR SWAP2 POP DUP1 DUP4 AND DUP1 PUSH2 0x2474 JUMPI PUSH1 0x7F DUP4 AND SWAP3 POP JUMPDEST PUSH1 0x20 DUP1 DUP5 LT DUP3 EQ ISZERO PUSH2 0x2494 JUMPI PUSH4 0x4E487B71 PUSH1 0xE0 SHL DUP7 MSTORE PUSH1 0x22 PUSH1 0x4 MSTORE PUSH1 0x24 DUP7 REVERT JUMPDEST PUSH1 0x60 DUP9 ADD DUP5 SWAP1 MSTORE PUSH1 0x80 DUP9 ADD DUP3 DUP1 ISZERO PUSH2 0x24B3 JUMPI PUSH1 0x1 DUP2 EQ PUSH2 0x24C4 JUMPI PUSH2 0x24EF JUMP JUMPDEST PUSH1 0xFF NOT DUP8 AND DUP3 MSTORE DUP3 DUP3 ADD SWAP8 POP PUSH2 0x24EF JUMP JUMPDEST PUSH1 0x0 DUP12 DUP2 MSTORE PUSH1 0x20 SWAP1 KECCAK256 PUSH1 0x0 JUMPDEST DUP8 DUP2 LT ISZERO PUSH2 0x24E9 JUMPI DUP2 SLOAD DUP5 DUP3 ADD MSTORE SWAP1 DUP7 ADD SWAP1 DUP5 ADD PUSH2 0x24D0 JUMP JUMPDEST DUP4 ADD SWAP9 POP POP JUMPDEST POP POP DUP8 DUP7 SUB SWAP1 DUP9 ADD MSTORE POP POP PUSH1 0x8 DUP4 MSTORE POP POP PUSH8 0x556E692043616665 PUSH1 0xC0 SHL PUSH1 0x20 DUP3 ADD MSTORE PUSH1 0x40 DUP2 ADD SWAP1 POP DUP3 DUP2 SUB PUSH1 0x40 DUP5 ADD MSTORE PUSH2 0xBFB DUP2 PUSH1 0x26 DUP2 MSTORE PUSH32 0x53656C65637465642072657374617572616E742073686F756C6420626520556E PUSH1 0x20 DUP3 ADD MSTORE PUSH6 0x692043616665 PUSH1 0xD0 SHL PUSH1 0x40 DUP3 ADD MSTORE PUSH1 0x60 ADD SWAP1 JUMP JUMPDEST PUSH1 0x20 DUP1 DUP3 MSTORE PUSH1 0x16 SWAP1 DUP3 ADD MSTORE PUSH22 0x21B7B73A3930B1BA1034B99039B43ABA103237BBB717 PUSH1 0x51 SHL PUSH1 0x40 DUP3 ADD MSTORE PUSH1 0x60 ADD SWAP1 JUMP JUMPDEST PUSH1 0x20 DUP2 MSTORE PUSH1 0x0 PUSH2 0x1971 PUSH1 0x20 DUP4 ADD PUSH2 0x228E JUMP JUMPDEST PUSH1 0x20 DUP1 DUP3 MSTORE PUSH1 0x24 SWAP1 DUP3 ADD MSTORE PUSH32 0x416374696F6E206E6F7420616C6C6F77656420696E2063757272656E74207068 PUSH1 0x40 DUP3 ADD MSTORE PUSH4 0x30B9B297 PUSH1 0xE1 SHL PUSH1 0x60 DUP3 ADD MSTORE PUSH1 0x80 ADD SWAP1 JUMP JUMPDEST PUSH1 0x20 DUP2 MSTORE PUSH1 0x0 PUSH2 0x1971 PUSH1 0x20 DUP4 ADD PUSH2 0x22CA JUMP JUMPDEST DUP3 DUP2 MSTORE DUP2 PUSH1 0x20 DUP3 ADD MSTORE PUSH1 0x60 PUSH1 0x40 DUP3 ADD MSTORE PUSH1 0x0 PUSH2 0xBFB PUSH1 0x60 DUP4 ADD PUSH1 0x1D DUP2 MSTORE PUSH32 0x4D6574686F6420657865637574696F6E20646964206E6F74206661696C000000 PUSH1 0x20 DUP3 ADD MSTORE PUSH1 0x40 ADD SWAP1 JUMP JUMPDEST PUSH1 0x0 DUP3 NOT DUP3 GT ISZERO PUSH2 0x2656 JUMPI PUSH2 0x2656 PUSH2 0x272A JUMP JUMPDEST POP ADD SWAP1 JUMP JUMPDEST PUSH1 0x0 DUP3 PUSH2 0x2678 JUMPI PUSH4 0x4E487B71 PUSH1 0xE0 SHL PUSH1 0x0 MSTORE PUSH1 0x12 PUSH1 0x4 MSTORE PUSH1 0x24 PUSH1 0x0 REVERT JUMPDEST POP DIV SWAP1 JUMP JUMPDEST PUSH1 0x0 JUMPDEST DUP4 DUP2 LT ISZERO PUSH2 0x2698 JUMPI DUP2 DUP2 ADD MLOAD DUP4 DUP3 ADD MSTORE PUSH1 0x20 ADD PUSH2 0x2680 JUMP JUMPDEST DUP4 DUP2 GT ISZERO PUSH2 0x26A7 JUMPI PUSH1 0x0 DUP5 DUP5 ADD MSTORE JUMPDEST POP POP POP POP JUMP JUMPDEST PUSH1 0x1 DUP2 DUP2 SHR SWAP1 DUP3 AND DUP1 PUSH2 0x26C1 JUMPI PUSH1 0x7F DUP3 AND SWAP2 POP JUMPDEST PUSH1 0x20 DUP3 LT DUP2 EQ ISZERO PUSH2 0x6D9 JUMPI PUSH4 0x4E487B71 PUSH1 0xE0 SHL PUSH1 0x0 MSTORE PUSH1 0x22 PUSH1 0x4 MSTORE PUSH1 0x24 PUSH1 0x0 REVERT JUMPDEST PUSH1 0x1F DUP3 ADD PUSH1 0x1F NOT AND DUP2 ADD PUSH8 0xFFFFFFFFFFFFFFFF DUP2 GT DUP3 DUP3 LT OR ISZERO PUSH2 0x2708 JUMPI PUSH2 0x2708 PUSH2 0x2756 JUMP JUMPDEST PUSH1 0x40 MSTORE POP POP JUMP JUMPDEST PUSH1 0x0 PUSH1 0x0 NOT DUP3 EQ ISZERO PUSH2 0x2723 JUMPI PUSH2 0x2723 PUSH2 0x272A JUMP JUMPDEST POP PUSH1 0x1 ADD SWAP1 JUMP JUMPDEST PUSH4 0x4E487B71 PUSH1 0xE0 SHL PUSH1 0x0 MSTORE PUSH1 0x11 PUSH1 0x4 MSTORE PUSH1 0x24 PUSH1 0x0 REVERT JUMPDEST PUSH4 0x4E487B71 PUSH1 0xE0 SHL PUSH1 0x0 MSTORE PUSH1 0x21 PUSH1 0x4 MSTORE PUSH1 0x24 PUSH1 0x0 REVERT JUMPDEST PUSH4 0x4E487B71 PUSH1 0xE0 SHL PUSH1 0x0 MSTORE PUSH1 0x41 PUSH1 0x4 MSTORE PUSH1 0x24 PUSH1 0x0 REVERT JUMPDEST PUSH1 0x0 PUSH1 0x3 RETURNDATASIZE GT ISZERO PUSH2 0x2785 JUMPI PUSH1 0x4 PUSH1 0x0 DUP1 RETURNDATACOPY POP PUSH1 0x0 MLOAD PUSH1 0xE0 SHR JUMPDEST SWAP1 JUMP JUMPDEST PUSH1 0x0 PUSH1 0x44 RETURNDATASIZE LT ISZERO PUSH2 0x2796 JUMPI SWAP1 JUMP JUMPDEST PUSH1 0x40 MLOAD PUSH1 0x3 NOT RETURNDATASIZE DUP2 ADD PUSH1 0x4 DUP4 RETURNDATACOPY DUP2 MLOAD RETURNDATASIZE PUSH8 0xFFFFFFFFFFFFFFFF DUP2 PUSH1 0x24 DUP5 ADD GT DUP2 DUP5 GT OR ISZERO PUSH2 0x27C6 JUMPI POP POP POP POP POP SWAP1 JUMP JUMPDEST DUP3 DUP6 ADD SWAP2 POP DUP2 MLOAD DUP2 DUP2 GT ISZERO PUSH2 0x27DE JUMPI POP POP POP POP POP POP SWAP1 JUMP JUMPDEST DUP5 RETURNDATASIZE DUP8 ADD ADD PUSH1 0x20 DUP3 DUP6 ADD ADD GT ISZERO PUSH2 0x27F8 JUMPI POP POP POP POP POP POP SWAP1 JUMP JUMPDEST PUSH2 0x2807 PUSH1 0x20 DUP3 DUP7 ADD ADD DUP8 PUSH2 0x26E2 JUMP JUMPDEST POP SWAP1 SWAP6 SWAP5 POP POP POP POP POP JUMP JUMPDEST PUSH1 0x0 DUP1 PUSH1 0x23 RETURNDATASIZE GT ISZERO PUSH2 0x282E JUMPI PUSH1 0x20 PUSH1 0x4 PUSH1 0x0 RETURNDATACOPY POP POP PUSH1 0x0 MLOAD PUSH1 0x1 SWAP1 JUMPDEST SWAP1 SWAP2 JUMP JUMPDEST PUSH1 0x1 PUSH1 0x1 PUSH1 0xA0 SHL SUB DUP2 AND DUP2 EQ PUSH2 0x8AF JUMPI PUSH1 0x0 DUP1 REVERT INVALID LOG2 PUSH5 0x6970667358 0x22 SLT KECCAK256 0x23 EXTCODECOPY OR 0xE5 0xE4 LOG0 POP 0xD2 GT JUMPDEST DUP2 0xB3 PUSH24 0xA5DB787EA4D9171318A4EFCBB4CCD48BBF826B64736F6C63 NUMBER STOP ADDMOD SDIV STOP CALLER "
		},
		"gasEstimates": {
			"creation": {
				"codeDepositCost": "2073000",
				"executionCost": "infinite",
				"totalCost": "infinite"
			},
			"external": {
				"_addFriend(address,string)": "infinite",
				"_addRestaurant(string)": "infinite",
				"addFriend(address,string)": "infinite",
				"addRestaurant(string)": "infinite",
				"beforeAll()": "infinite",
				"currentPhase()": "2409",
				"doVote(uint256)": "infinite",
				"endBlock()": "2364",
				"endVoting()": "infinite",
				"friends(address)": "infinite",
				"isShutdown()": "2376",
				"lunchVenueTest()": "infinite",
				"manager()": "2427",
				"managerTest()": "infinite",
				"numFriends()": "2363",
				"numRestaurants()": "2406",
				"numVotes()": "2384",
				"restaurants(uint256)": "infinite",
				"setFriend()": "infinite",
				"setFriendFailure()": "infinite",
				"setRestaurant()": "infinite",
				"setRestaurantFailure()": "infinite",
				"shutdown()": "73002",
				"startVoting(uint256)": "57348",
				"vote()": "infinite",
				"vote2()": "infinite",
				"vote3()": "infinite",
				"voteAfterClosedFailure()": "infinite",
				"voteAs(uint256)": "infinite",
				"voteFailure()": "infinite",
				"voteOpen()": "2356",
				"voteOpenTest()": "infinite",
				"votedRestaurant()": "infinite",
				"votes(uint256)": "4670"
			}
		},
		"methodIdentifiers": {
			"_addFriend(address,string)": "2d8c6f42",
			"_addRestaurant(string)": "781a38a3",
			"addFriend(address,string)": "3b9f708d",
			"addRestaurant(string)": "6d77bd3e",
			"beforeAll()": "7fea0d4b",
			"currentPhase()": "055ad42e",
			"doVote(uint256)": "124258c6",
			"endBlock()": "083c6323",
			"endVoting()": "c3403ddf",
			"friends(address)": "1ddabf7a",
			"isShutdown()": "bf86d690",
			"lunchVenueTest()": "a8267245",
			"manager()": "481c6a75",
			"managerTest()": "947aea86",
			"numFriends()": "47098f36",
			"numRestaurants()": "b798867f",
			"numVotes()": "a3bef4d7",
			"restaurants(uint256)": "ad5461d8",
			"setFriend()": "848b4427",
			"setFriendFailure()": "77440e06",
			"setRestaurant()": "12a4591a",
			"setRestaurantFailure()": "512a6fbb",
			"shutdown()": "fc0e74d1",
			"startVoting(uint256)": "3d2f5bda",
			"vote()": "632a9a52",
			"vote2()": "a24a4e88",
			"vote3()": "2955fea3",
			"voteAfterClosedFailure()": "a5627cf0",
			"voteAs(uint256)": "8f43f134",
			"voteFailure()": "a9a4070c",
			"voteOpen()": "788d3851",
			"voteOpenTest()": "bbb97ded",
			"votedRestaurant()": "c1c16efc",
			"votes(uint256)": "5df81330"
		}
	},
	"abi": [
		{
			"inputs": [
				{
					"internalType": "address",
					"name": "friendAddress",
					"type": "address"
				},
				{
					"internalType": "string",
					"name": "name",
					"type": "string"
				}
			],
			"name": "_addFriend",
			"outputs": [
				{
					"internalType": "uint256",
					"name": "",
					"type": "uint256"
				}
			],
			"stateMutability": "nonpayable",
			"type": "function"
		},
		{
			"inputs": [
				{
					"internalType": "string",
					"name": "name",
					"type": "string"
				}
			],
			"name": "_addRestaurant",
			"outputs": [
				{
					"internalType": "uint256",
					"name": "",
					"type": "uint256"
				}
			],
			"stateMutability": "nonpayable",
			"type": "function"
		},
		{
			"inputs": [
				{
					"internalType": "address",
					"name": "friendAddress",
					"type": "address"
				},
				{
					"internalType": "string",
					"name": "name",
					"type": "string"
				}
			],
			"name": "addFriend",
			"outputs": [
				{
					"internalType": "uint256",
					"name": "",
					"type": "uint256"
				}
			],
			"stateMutability": "nonpayable",
			"type": "function"
		},
		{
			"inputs": [
				{
					"internalType": "string",
					"name": "name",
					"type": "string"
				}
			],
			"name": "addRestaurant",
			"outputs": [
				{
					"internalType": "uint256",
					"name": "",
					"type": "uint256"
				}
			],
			"stateMutability": "nonpayable",
			"type": "function"
		},
		{
			"inputs": [],
			"name": "beforeAll",
			"outputs": [],
			"stateMutability": "nonpayable",
			"type": "function"
		},
		{
			"inputs": [],
			"name": "currentPhase",
			"outputs": [
				{
					"internalType": "enum LunchVenue.Phase",
					"name": "",
					"type": "uint8"
				}
			],
			"stateMutability": "view",
			"type": "function"
		},
		{
			"inputs": [
				{
					"internalType": "uint256",
					"name": "restaurant",
					"type": "uint256"
				}
			],
			"name": "doVote",
			"outputs": [
				{
					"internalType": "bool",
					"name": "validVote",
					"type": "bool"
				}
			],
			"stateMutability": "nonpayable",
			"type": "function"
		},
		{
			"inputs": [],
			"name": "endBlock",
			"outputs": [
				{
					"internalType": "uint256",
					"name": "",
					"type": "uint256"
				}
			],
			"stateMutability": "view",
			"type": "function"
		},
		{
			"inputs": [],
			"name": "endVoting",
			"outputs": [],
			"stateMutability": "nonpayable",
			"type": "function"
		},
		{
			"inputs": [
				{
					"internalType": "address",
					"name": "",
					"type": "address"
				}
			],
			"name": "friends",
			"outputs": [
				{
					"internalType": "string",
					"name": "name",
					"type": "string"
				},
				{
					"internalType": "bool",
					"name": "voted",
					"type": "bool"
				}
			],
			"stateMutability": "view",
			"type": "function"
		},
		{
			"inputs": [],
			"name": "isShutdown",
			"outputs": [
				{
					"internalType": "bool",
					"name": "",
					"type": "bool"
				}
			],
			"stateMutability": "view",
			"type": "function"
		},
		{
			"inputs": [],
			"name": "lunchVenueTest",
			"outputs": [],
			"stateMutability": "nonpayable",
			"type": "function"
		},
		{
			"inputs": [],
			"name": "manager",
			"outputs": [
				{
					"internalType": "address",
					"name": "",
					"type": "address"
				}
			],
			"stateMutability": "view",
			"type": "function"
		},
		{
			"inputs": [],
			"name": "managerTest",
			"outputs": [],
			"stateMutability": "nonpayable",
			"type": "function"
		},
		{
			"inputs": [],
			"name": "numFriends",
			"outputs": [
				{
					"internalType": "uint256",
					"name": "",
					"type": "uint256"
				}
			],
			"stateMutability": "view",
			"type": "function"
		},
		{
			"inputs": [],
			"name": "numRestaurants",
			"outputs": [
				{
					"internalType": "uint256",
					"name": "",
					"type": "uint256"
				}
			],
			"stateMutability": "view",
			"type": "function"
		},
		{
			"inputs": [],
			"name": "numVotes",
			"outputs": [
				{
					"internalType": "uint256",
					"name": "",
					"type": "uint256"
				}
			],
			"stateMutability": "view",
			"type": "function"
		},
		{
			"inputs": [
				{
					"internalType": "uint256",
					"name": "",
					"type": "uint256"
				}
			],
			"name": "restaurants",
			"outputs": [
				{
					"internalType": "string",
					"name": "",
					"type": "string"
				}
			],
			"stateMutability": "view",
			"type": "function"
		},
		{
			"inputs": [],
			"name": "setFriend",
			"outputs": [],
			"stateMutability": "nonpayable",
			"type": "function"
		},
		{
			"inputs": [],
			"name": "setFriendFailure",
			"outputs": [],
			"stateMutability": "nonpayable",
			"type": "function"
		},
		{
			"inputs": [],
			"name": "setRestaurant",
			"outputs": [],
			"stateMutability": "nonpayable",
			"type": "function"
		},
		{
			"inputs": [],
			"name": "setRestaurantFailure",
			"outputs": [],
			"stateMutability": "nonpayable",
			"type": "function"
		},
		{
			"inputs": [],
			"name": "shutdown",
			"outputs": [],
			"stateMutability": "nonpayable",
			"type": "function"
		},
		{
			"inputs": [
				{
					"internalType": "uint256",
					"name": "blocksUntilEnd",
					"type": "uint256"
				}
			],
			"name": "startVoting",
			"outputs": [],
			"stateMutability": "nonpayable",
			"type": "function"
		},
		{
			"inputs": [],
			"name": "vote",
			"outputs": [],
			"stateMutability": "nonpayable",
			"type": "function"
		},
		{
			"inputs": [],
			"name": "vote2",
			"outputs": [],
			"stateMutability": "nonpayable",
			"type": "function"
		},
		{
			"inputs": [],
			"name": "vote3",
			"outputs": [],
			"stateMutability": "nonpayable",
			"type": "function"
		},
		{
			"inputs": [],
			"name": "voteAfterClosedFailure",
			"outputs": [],
			"stateMutability": "nonpayable",
			"type": "function"
		},
		{
			"inputs": [
				{
					"internalType": "uint256",
					"name": "restaurant",
					"type": "uint256"
				}
			],
			"name": "voteAs",
			"outputs": [
				{
					"internalType": "bool",
					"name": "",
					"type": "bool"
				}
			],
			"stateMutability": "nonpayable",
			"type": "function"
		},
		{
			"inputs": [],
			"name": "voteFailure",
			"outputs": [],
			"stateMutability": "nonpayable",
			"type": "function"
		},
		{
			"inputs": [],
			"name": "voteOpen",
			"outputs": [
				{
					"internalType": "bool",
					"name": "",
					"type": "bool"
				}
			],
			"stateMutability": "view",
			"type": "function"
		},
		{
			"inputs": [],
			"name": "voteOpenTest",
			"outputs": [],
			"stateMutability": "nonpayable",
			"type": "function"
		},
		{
			"inputs": [],
			"name": "votedRestaurant",
			"outputs": [
				{
					"internalType": "string",
					"name": "",
					"type": "string"
				}
			],
			"stateMutability": "view",
			"type": "function"
		},
		{
			"inputs": [
				{
					"internalType": "uint256",
					"name": "",
					"type": "uint256"
				}
			],
			"name": "votes",
			"outputs": [
				{
					"internalType": "address",
					"name": "voterAddress",
					"type": "address"
				},
				{
					"internalType": "uint256",
					"name": "restaurant",
					"type": "uint256"
				}
			],
			"stateMutability": "view",
			"type": "function"
		}
	]
}