{
	"contracts/LunchVenue_updated.sol": {
		"LunchVenue_updated": {
			"abi": [
				{
					"inputs": [],
					"stateMutability": "nonpayable",
					"type": "constructor"
				},
				{
					"inputs": [
						{
							"internalType": "address",
							"name": "friendAddress",
							"type": "address"
						},
						{
							"internalType": "string",
							"name": "name",
							"type": "string"
						}
					],
					"name": "_addFriend",
					"outputs": [
						{
							"internalType": "uint256",
							"name": "",
							"type": "uint256"
						}
					],
					"stateMutability": "nonpayable",
					"type": "function"
				},
				{
					"inputs": [
						{
							"internalType": "string",
							"name": "name",
							"type": "string"
						}
					],
					"name": "_addRestaurant",
					"outputs": [
						{
							"internalType": "uint256",
							"name": "",
							"type": "uint256"
						}
					],
					"stateMutability": "nonpayable",
					"type": "function"
				},
				{
					"inputs": [
						{
							"internalType": "address",
							"name": "friendAddress",
							"type": "address"
						},
						{
							"internalType": "string",
							"name": "name",
							"type": "string"
						}
					],
					"name": "addFriend",
					"outputs": [
						{
							"internalType": "uint256",
							"name": "",
							"type": "uint256"
						}
					],
					"stateMutability": "nonpayable",
					"type": "function"
				},
				{
					"inputs": [
						{
							"internalType": "string",
							"name": "name",
							"type": "string"
						}
					],
					"name": "addRestaurant",
					"outputs": [
						{
							"internalType": "uint256",
							"name": "",
							"type": "uint256"
						}
					],
					"stateMutability": "nonpayable",
					"type": "function"
				},
				{
					"inputs": [],
					"name": "currentPhase",
					"outputs": [
						{
							"internalType": "enum LunchVenue_updated.Phase",
							"name": "",
							"type": "uint8"
						}
					],
					"stateMutability": "view",
					"type": "function"
				},
				{
					"inputs": [
						{
							"internalType": "uint256",
							"name": "restaurant",
							"type": "uint256"
						}
					],
					"name": "doVote",
					"outputs": [
						{
							"internalType": "bool",
							"name": "validVote",
							"type": "bool"
						}
					],
					"stateMutability": "nonpayable",
					"type": "function"
				},
				{
					"inputs": [],
					"name": "endBlock",
					"outputs": [
						{
							"internalType": "uint256",
							"name": "",
							"type": "uint256"
						}
					],
					"stateMutability": "view",
					"type": "function"
				},
				{
					"inputs": [],
					"name": "endVoting",
					"outputs": [],
					"stateMutability": "nonpayable",
					"type": "function"
				},
				{
					"inputs": [
						{
							"internalType": "address",
							"name": "",
							"type": "address"
						}
					],
					"name": "friends",
					"outputs": [
						{
							"internalType": "string",
							"name": "name",
							"type": "string"
						},
						{
							"internalType": "bool",
							"name": "voted",
							"type": "bool"
						}
					],
					"stateMutability": "view",
					"type": "function"
				},
				{
					"inputs": [],
					"name": "isShutdown",
					"outputs": [
						{
							"internalType": "bool",
							"name": "",
							"type": "bool"
						}
					],
					"stateMutability": "view",
					"type": "function"
				},
				{
					"inputs": [],
					"name": "manager",
					"outputs": [
						{
							"internalType": "address",
							"name": "",
							"type": "address"
						}
					],
					"stateMutability": "view",
					"type": "function"
				},
				{
					"inputs": [],
					"name": "numFriends",
					"outputs": [
						{
							"internalType": "uint256",
							"name": "",
							"type": "uint256"
						}
					],
					"stateMutability": "view",
					"type": "function"
				},
				{
					"inputs": [],
					"name": "numRestaurants",
					"outputs": [
						{
							"internalType": "uint256",
							"name": "",
							"type": "uint256"
						}
					],
					"stateMutability": "view",
					"type": "function"
				},
				{
					"inputs": [],
					"name": "numVotes",
					"outputs": [
						{
							"internalType": "uint256",
							"name": "",
							"type": "uint256"
						}
					],
					"stateMutability": "view",
					"type": "function"
				},
				{
					"inputs": [
						{
							"internalType": "uint256",
							"name": "",
							"type": "uint256"
						}
					],
					"name": "restaurants",
					"outputs": [
						{
							"internalType": "string",
							"name": "",
							"type": "string"
						}
					],
					"stateMutability": "view",
					"type": "function"
				},
				{
					"inputs": [],
					"name": "shutdown",
					"outputs": [],
					"stateMutability": "nonpayable",
					"type": "function"
				},
				{
					"inputs": [
						{
							"internalType": "uint256",
							"name": "blocksUntilEnd",
							"type": "uint256"
						}
					],
					"name": "startVoting",
					"outputs": [],
					"stateMutability": "nonpayable",
					"type": "function"
				},
				{
					"inputs": [
						{
							"internalType": "uint256",
							"name": "restaurant",
							"type": "uint256"
						}
					],
					"name": "voteAs",
					"outputs": [
						{
							"internalType": "bool",
							"name": "",
							"type": "bool"
						}
					],
					"stateMutability": "nonpayable",
					"type": "function"
				},
				{
					"inputs": [],
					"name": "voteOpen",
					"outputs": [
						{
							"internalType": "bool",
							"name": "",
							"type": "bool"
						}
					],
					"stateMutability": "view",
					"type": "function"
				},
				{
					"inputs": [],
					"name": "votedRestaurant",
					"outputs": [
						{
							"internalType": "string",
							"name": "",
							"type": "string"
						}
					],
					"stateMutability": "view",
					"type": "function"
				},
				{
					"inputs": [
						{
							"internalType": "uint256",
							"name": "",
							"type": "uint256"
						}
					],
					"name": "votes",
					"outputs": [
						{
							"internalType": "address",
							"name": "voterAddress",
							"type": "address"
						},
						{
							"internalType": "uint256",
							"name": "restaurant",
							"type": "uint256"
						}
					],
					"stateMutability": "view",
					"type": "function"
				}
			],
			"devdoc": {
				"kind": "dev",
				"methods": {
					"_addFriend(address,string)": {
						"custom:testing": "Exposes the internal logic of addFriend for unit testing. Because try/catch only works on external function calls, this public wrapper allows us to test revert messages.  It is guarded by the same modifiers as addFriend except restricted, so functionality remains unchanged and safe. This function is not meant for production use."
					},
					"_addRestaurant(string)": {
						"custom:testing": "Exposes the internal logic of addRestaurant for unit testing. Because try/catch only works on external function calls, this public wrapper allows us to test revert messages. It is guarded by the same modifiers as addRestaurant except restricted, so functionality remains unchanged and safe. This function is not meant for production use."
					},
					"addFriend(address,string)": {
						"details": "wraps _addFriend for clearer testability and separation of access logicprevents duplication of friends",
						"params": {
							"friendAddress": "Friend's account/address",
							"name": "Friend's name"
						},
						"returns": {
							"_0": "Number of friends added so far"
						}
					},
					"addRestaurant(string)": {
						"details": "wraps _addRestaurant for clearer testability and separation of access logicprevents duplication of restaurants by checking name hash",
						"params": {
							"name": "Restaurant name"
						},
						"returns": {
							"_0": "Number of restaurants added so far"
						}
					},
					"constructor": {
						"details": "Set manager when contract starts"
					},
					"doVote(uint256)": {
						"details": "Prevents duplicate votes and enforces timeout",
						"params": {
							"restaurant": "Restaurant number being voted"
						},
						"returns": {
							"validVote": "Is the vote valid? A valid vote should be from a registered  friend to a registered restaurant"
						}
					},
					"endVoting()": {
						"details": "Can be called by manager or automatically when timeout reached"
					},
					"shutdown()": {
						"details": "Only manager can shutdown, prevents all future interactions"
					},
					"startVoting(uint256)": {
						"details": "Only manager can start voting and set timeout",
						"params": {
							"blocksUntilEnd": "Number of blocks until voting ends"
						}
					},
					"voteAs(uint256)": {
						"details": "Proxy to call doVote from within the contract using a different external context. Primarily used to simulate external calls in testing environments. This function is not meant for production use."
					}
				},
				"version": 1
			},
			"evm": {
				"assembly": "    /* \"contracts/LunchVenue_updated.sol\":3331:3332  0 */\n  0x00\n    /* \"contracts/LunchVenue_updated.sol\":3302:3332  uint public numRestaurants = 0 */\n  0x02\n  dup2\n  swap1\n  sstore\n    /* \"contracts/LunchVenue_updated.sol\":3338:3364  uint public numFriends = 0 */\n  0x03\n  dup2\n  swap1\n  sstore\n    /* \"contracts/LunchVenue_updated.sol\":3370:3394  uint public numVotes = 0 */\n  0x04\n  dup2\n  swap1\n  sstore\n    /* \"contracts/LunchVenue_updated.sol\":3428:3462  string public votedRestaurant = \"\" */\n  0xa0\n    /* \"contracts/LunchVenue_updated.sol\":3016:12522  contract LunchVenue_updated{... */\n  0x40\n    /* \"contracts/LunchVenue_updated.sol\":3428:3462  string public votedRestaurant = \"\" */\n  dup2\n  swap1\n  mstore\n    /* \"contracts/LunchVenue_updated.sol\":3016:12522  contract LunchVenue_updated{... */\n  0x80\n    /* \"contracts/LunchVenue_updated.sol\":3428:3462  string public votedRestaurant = \"\" */\n  dup3\n  swap1\n  mstore\n  tag_1\n  swap2\n  0x06\n  swap2\n  swap1\n  tag_2\n  jump\t// in\ntag_1:\n  pop\n    /* \"contracts/LunchVenue_updated.sol\":3555:3583  bool public voteOpen = false */\n  0x09\n  dup1\n  sload\n  not(0xffff)\n    /* \"contracts/LunchVenue_updated.sol\":3735:3774  Phase public currentPhase = Phase.Setup */\n  and\n  swap1\n  sstore\n    /* \"contracts/LunchVenue_updated.sol\":3913:3943  bool public isShutdown = false */\n  0x0b\n  dup1\n  sload\n  not(0xff)\n  and\n  swap1\n  sstore\n    /* \"contracts/LunchVenue_updated.sol\":4171:4223  constructor () {... */\n  callvalue\n  dup1\n  iszero\n  tag_6\n  jumpi\n  0x00\n  dup1\n  revert\ntag_6:\n  pop\n    /* \"contracts/LunchVenue_updated.sol\":4196:4203  manager */\n  0x05\n    /* \"contracts/LunchVenue_updated.sol\":4196:4216  manager = msg.sender */\n  dup1\n  sload\n  not(sub(shl(0xa0, 0x01), 0x01))\n  and\n    /* \"contracts/LunchVenue_updated.sol\":4206:4216  msg.sender */\n  caller\n    /* \"contracts/LunchVenue_updated.sol\":4196:4216  manager = msg.sender */\n  or\n  swap1\n  sstore\n    /* \"contracts/LunchVenue_updated.sol\":3016:12522  contract LunchVenue_updated{... */\n  jump(tag_21)\ntag_2:\n  dup3\n  dup1\n  sload\n  tag_10\n  swap1\n  tag_11\n  jump\t// in\ntag_10:\n  swap1\n  0x00\n  mstore\n  keccak256(0x00, 0x20)\n  swap1\n  0x1f\n  add\n  0x20\n  swap1\n  div\n  dup2\n  add\n  swap3\n  dup3\n  tag_13\n  jumpi\n  0x00\n  dup6\n  sstore\n  jump(tag_16)\ntag_13:\n  dup3\n  0x1f\n  lt\n  tag_14\n  jumpi\n  dup1\n  mload\n  not(0xff)\n  and\n  dup4\n  dup1\n  add\n  or\n  dup6\n  sstore\n  jump(tag_16)\ntag_14:\n  dup3\n  dup1\n  add\n  0x01\n  add\n  dup6\n  sstore\n  dup3\n  iszero\n  tag_16\n  jumpi\n  swap2\n  dup3\n  add\ntag_15:\n  dup3\n  dup2\n  gt\n  iszero\n  tag_16\n  jumpi\n  dup3\n  mload\n  dup3\n  sstore\n  swap2\n  0x20\n  add\n  swap2\n  swap1\n  0x01\n  add\n  swap1\n  jump(tag_15)\ntag_16:\n  pop\n  tag_17\n  swap3\n  swap2\n  pop\n  tag_18\n  jump\t// in\ntag_17:\n  pop\n  swap1\n  jump\t// out\ntag_18:\ntag_19:\n  dup1\n  dup3\n  gt\n  iszero\n  tag_17\n  jumpi\n  0x00\n  dup2\n  sstore\n  0x01\n  add\n  jump(tag_19)\n    /* \"#utility.yul\":14:394   */\ntag_11:\n    /* \"#utility.yul\":93:94   */\n  0x01\n    /* \"#utility.yul\":89:101   */\n  dup2\n  dup2\n  shr\n  swap1\n    /* \"#utility.yul\":136:148   */\n  dup3\n  and\n  dup1\n    /* \"#utility.yul\":157:159   */\n  tag_23\n  jumpi\n    /* \"#utility.yul\":211:215   */\n  0x7f\n    /* \"#utility.yul\":203:209   */\n  dup3\n    /* \"#utility.yul\":199:216   */\n  and\n    /* \"#utility.yul\":189:216   */\n  swap2\n  pop\n    /* \"#utility.yul\":157:159   */\ntag_23:\n    /* \"#utility.yul\":264:266   */\n  0x20\n    /* \"#utility.yul\":256:262   */\n  dup3\n    /* \"#utility.yul\":253:267   */\n  lt\n    /* \"#utility.yul\":233:251   */\n  dup2\n    /* \"#utility.yul\":230:268   */\n  eq\n    /* \"#utility.yul\":227:229   */\n  iszero\n  tag_24\n  jumpi\n    /* \"#utility.yul\":310:320   */\n  0x4e487b71\n    /* \"#utility.yul\":305:308   */\n  0xe0\n    /* \"#utility.yul\":301:321   */\n  shl\n    /* \"#utility.yul\":298:299   */\n  0x00\n    /* \"#utility.yul\":291:322   */\n  mstore\n    /* \"#utility.yul\":345:349   */\n  0x22\n    /* \"#utility.yul\":342:343   */\n  0x04\n    /* \"#utility.yul\":335:350   */\n  mstore\n    /* \"#utility.yul\":373:377   */\n  0x24\n    /* \"#utility.yul\":370:371   */\n  0x00\n    /* \"#utility.yul\":363:378   */\n  revert\n    /* \"#utility.yul\":227:229   */\ntag_24:\n  pop\n    /* \"#utility.yul\":69:394   */\n  swap2\n  swap1\n  pop\n  jump\t// out\n    /* \"#utility.yul\":431:526   */\ntag_21:\n    /* \"contracts/LunchVenue_updated.sol\":3016:12522  contract LunchVenue_updated{... */\n  dataSize(sub_0)\n  dup1\n  dataOffset(sub_0)\n  0x00\n  codecopy\n  0x00\n  return\nstop\n\nsub_0: assembly {\n        /* \"contracts/LunchVenue_updated.sol\":3016:12522  contract LunchVenue_updated{... */\n      mstore(0x40, 0x80)\n      callvalue\n      dup1\n      iszero\n      tag_1\n      jumpi\n      0x00\n      dup1\n      revert\n    tag_1:\n      pop\n      jumpi(tag_2, lt(calldatasize, 0x04))\n      shr(0xe0, calldataload(0x00))\n      dup1\n      0x6d77bd3e\n      gt\n      tag_24\n      jumpi\n      dup1\n      0xad5461d8\n      gt\n      tag_25\n      jumpi\n      dup1\n      0xad5461d8\n      eq\n      tag_18\n      jumpi\n      dup1\n      0xb798867f\n      eq\n      tag_19\n      jumpi\n      dup1\n      0xbf86d690\n      eq\n      tag_20\n      jumpi\n      dup1\n      0xc1c16efc\n      eq\n      tag_21\n      jumpi\n      dup1\n      0xc3403ddf\n      eq\n      tag_22\n      jumpi\n      dup1\n      0xfc0e74d1\n      eq\n      tag_23\n      jumpi\n      0x00\n      dup1\n      revert\n    tag_25:\n      dup1\n      0x6d77bd3e\n      eq\n      tag_13\n      jumpi\n      dup1\n      0x781a38a3\n      eq\n      tag_14\n      jumpi\n      dup1\n      0x788d3851\n      eq\n      tag_15\n      jumpi\n      dup1\n      0x8f43f134\n      eq\n      tag_16\n      jumpi\n      dup1\n      0xa3bef4d7\n      eq\n      tag_17\n      jumpi\n      0x00\n      dup1\n      revert\n    tag_24:\n      dup1\n      0x3b9f708d\n      gt\n      tag_26\n      jumpi\n      dup1\n      0x3b9f708d\n      eq\n      tag_8\n      jumpi\n      dup1\n      0x3d2f5bda\n      eq\n      tag_9\n      jumpi\n      dup1\n      0x47098f36\n      eq\n      tag_10\n      jumpi\n      dup1\n      0x481c6a75\n      eq\n      tag_11\n      jumpi\n      dup1\n      0x5df81330\n      eq\n      tag_12\n      jumpi\n      0x00\n      dup1\n      revert\n    tag_26:\n      dup1\n      0x055ad42e\n      eq\n      tag_3\n      jumpi\n      dup1\n      0x083c6323\n      eq\n      tag_4\n      jumpi\n      dup1\n      0x124258c6\n      eq\n      tag_5\n      jumpi\n      dup1\n      0x1ddabf7a\n      eq\n      tag_6\n      jumpi\n      dup1\n      0x2d8c6f42\n      eq\n      tag_7\n      jumpi\n    tag_2:\n      0x00\n      dup1\n      revert\n        /* \"contracts/LunchVenue_updated.sol\":3735:3774  Phase public currentPhase = Phase.Setup */\n    tag_3:\n      sload(0x09)\n      tag_27\n      swap1\n      0x0100\n      swap1\n      div\n      0xff\n      and\n      dup2\n      jump\n    tag_27:\n      mload(0x40)\n      tag_29\n      swap2\n      swap1\n      tag_30\n      jump\t// in\n    tag_29:\n      mload(0x40)\n      dup1\n      swap2\n      sub\n      swap1\n      return\n        /* \"contracts/LunchVenue_updated.sol\":3824:3844  uint public endBlock */\n    tag_4:\n      tag_31\n      sload(0x0a)\n      dup2\n      jump\n    tag_31:\n      mload(0x40)\n        /* \"#utility.yul\":9110:9135   */\n      swap1\n      dup2\n      mstore\n        /* \"#utility.yul\":9098:9100   */\n      0x20\n        /* \"#utility.yul\":9083:9101   */\n      add\n        /* \"contracts/LunchVenue_updated.sol\":3824:3844  uint public endBlock */\n      tag_29\n        /* \"#utility.yul\":9065:9141   */\n      jump\n        /* \"contracts/LunchVenue_updated.sol\":9186:10345  function doVote(uint restaurant) public contractActive onlyDuring(Phase.Voting) votingOpen returns (bool validVote) {... */\n    tag_5:\n      tag_35\n      tag_36\n      calldatasize\n      0x04\n      tag_37\n      jump\t// in\n    tag_36:\n      tag_38\n      jump\t// in\n    tag_35:\n      mload(0x40)\n        /* \"#utility.yul\":3216:3230   */\n      swap1\n      iszero\n        /* \"#utility.yul\":3209:3231   */\n      iszero\n        /* \"#utility.yul\":3191:3232   */\n      dup2\n      mstore\n        /* \"#utility.yul\":3179:3181   */\n      0x20\n        /* \"#utility.yul\":3164:3182   */\n      add\n        /* \"contracts/LunchVenue_updated.sol\":9186:10345  function doVote(uint restaurant) public contractActive onlyDuring(Phase.Voting) votingOpen returns (bool validVote) {... */\n      tag_29\n        /* \"#utility.yul\":3146:3238   */\n      jump\n        /* \"contracts/LunchVenue_updated.sol\":3255:3296  mapping(address => Friend) public friends */\n    tag_6:\n      tag_41\n      tag_42\n      calldatasize\n      0x04\n      tag_43\n      jump\t// in\n    tag_42:\n      tag_44\n      jump\t// in\n    tag_41:\n      mload(0x40)\n      tag_29\n      swap3\n      swap2\n      swap1\n      tag_46\n      jump\t// in\n        /* \"contracts/LunchVenue_updated.sol\":6548:7091  function _addFriend(address friendAddress, string memory name) public contractActive onlyDuring(Phase.Setup) returns (uint) {... */\n    tag_7:\n      tag_31\n      tag_48\n      calldatasize\n      0x04\n      tag_49\n      jump\t// in\n    tag_48:\n      tag_50\n      jump\t// in\n        /* \"contracts/LunchVenue_updated.sol\":5967:6156  function addFriend(address friendAddress, string memory name) public contractActive restricted onlyDuring(Phase.Setup) returns (uint) {... */\n    tag_8:\n      tag_31\n      tag_53\n      calldatasize\n      0x04\n      tag_49\n      jump\t// in\n    tag_53:\n      tag_54\n      jump\t// in\n        /* \"contracts/LunchVenue_updated.sol\":7284:7794  function startVoting(uint blocksUntilEnd) public contractActive restricted onlyDuring(Phase.Setup) {... */\n    tag_9:\n      tag_56\n      tag_57\n      calldatasize\n      0x04\n      tag_37\n      jump\t// in\n    tag_57:\n      tag_58\n      jump\t// in\n    tag_56:\n      stop\n        /* \"contracts/LunchVenue_updated.sol\":3338:3364  uint public numFriends = 0 */\n    tag_10:\n      tag_31\n      sload(0x03)\n      dup2\n      jump\n        /* \"contracts/LunchVenue_updated.sol\":3400:3422  address public manager */\n    tag_11:\n      sload(0x05)\n      tag_62\n      swap1\n      sub(shl(0xa0, 0x01), 0x01)\n      and\n      dup2\n      jump\n    tag_62:\n      mload(0x40)\n      sub(shl(0xa0, 0x01), 0x01)\n        /* \"#utility.yul\":2728:2760   */\n      swap1\n      swap2\n      and\n        /* \"#utility.yul\":2710:2761   */\n      dup2\n      mstore\n        /* \"#utility.yul\":2698:2700   */\n      0x20\n        /* \"#utility.yul\":2683:2701   */\n      add\n        /* \"contracts/LunchVenue_updated.sol\":3400:3422  address public manager */\n      tag_29\n        /* \"#utility.yul\":2665:2767   */\n      jump\n        /* \"contracts/LunchVenue_updated.sol\":3469:3504  mapping (uint => Vote) public votes */\n    tag_12:\n      tag_66\n      tag_67\n      calldatasize\n      0x04\n      tag_37\n      jump\t// in\n    tag_67:\n      mstore(0x20, 0x07)\n      0x00\n      swap1\n      dup2\n      mstore\n      0x40\n      swap1\n      keccak256\n      dup1\n      sload\n      0x01\n      swap1\n      swap2\n      add\n      sload\n      sub(shl(0xa0, 0x01), 0x01)\n      swap1\n      swap2\n      and\n      swap1\n      dup3\n      jump\n    tag_66:\n      0x40\n      dup1\n      mload\n      sub(shl(0xa0, 0x01), 0x01)\n        /* \"#utility.yul\":2964:2996   */\n      swap1\n      swap4\n      and\n        /* \"#utility.yul\":2946:2997   */\n      dup4\n      mstore\n        /* \"#utility.yul\":3028:3030   */\n      0x20\n        /* \"#utility.yul\":3013:3031   */\n      dup4\n      add\n        /* \"#utility.yul\":3006:3040   */\n      swap2\n      swap1\n      swap2\n      mstore\n        /* \"#utility.yul\":2919:2937   */\n      add\n        /* \"contracts/LunchVenue_updated.sol\":3469:3504  mapping (uint => Vote) public votes */\n      tag_29\n        /* \"#utility.yul\":2901:3046   */\n      jump\n        /* \"contracts/LunchVenue_updated.sol\":4555:4714  function addRestaurant(string memory name) public contractActive restricted onlyDuring(Phase.Setup) returns (uint) {... */\n    tag_13:\n      tag_31\n      tag_72\n      calldatasize\n      0x04\n      tag_73\n      jump\t// in\n    tag_72:\n      tag_74\n      jump\t// in\n        /* \"contracts/LunchVenue_updated.sol\":5113:5608  function _addRestaurant(string memory name) public contractActive onlyDuring(Phase.Setup) returns (uint) {... */\n    tag_14:\n      tag_31\n      tag_77\n      calldatasize\n      0x04\n      tag_73\n      jump\t// in\n    tag_77:\n      tag_78\n      jump\t// in\n        /* \"contracts/LunchVenue_updated.sol\":3555:3583  bool public voteOpen = false */\n    tag_15:\n      sload(0x09)\n      tag_35\n      swap1\n      0xff\n      and\n      dup2\n      jump\n        /* \"contracts/LunchVenue_updated.sol\":10585:10682  function voteAs(uint restaurant) public returns (bool) {... */\n    tag_16:\n      tag_35\n      tag_84\n      calldatasize\n      0x04\n      tag_37\n      jump\t// in\n    tag_84:\n      tag_85\n      jump\t// in\n        /* \"contracts/LunchVenue_updated.sol\":3370:3394  uint public numVotes = 0 */\n    tag_17:\n      tag_31\n      sload(0x04)\n      dup2\n      jump\n        /* \"contracts/LunchVenue_updated.sol\":3206:3249  mapping (uint => string) public restaurants */\n    tag_18:\n      tag_90\n      tag_91\n      calldatasize\n      0x04\n      tag_37\n      jump\t// in\n    tag_91:\n      tag_92\n      jump\t// in\n    tag_90:\n      mload(0x40)\n      tag_29\n      swap2\n      swap1\n      tag_94\n      jump\t// in\n        /* \"contracts/LunchVenue_updated.sol\":3302:3332  uint public numRestaurants = 0 */\n    tag_19:\n      tag_31\n      sload(0x02)\n      dup2\n      jump\n        /* \"contracts/LunchVenue_updated.sol\":3913:3943  bool public isShutdown = false */\n    tag_20:\n      sload(0x0b)\n      tag_35\n      swap1\n      0xff\n      and\n      dup2\n      jump\n        /* \"contracts/LunchVenue_updated.sol\":3428:3462  string public votedRestaurant = \"\" */\n    tag_21:\n      tag_90\n      tag_102\n      jump\t// in\n        /* \"contracts/LunchVenue_updated.sol\":8629:8880  function endVoting() public contractActive restricted {... */\n    tag_22:\n      tag_56\n      tag_105\n      jump\t// in\n        /* \"contracts/LunchVenue_updated.sol\":11576:11772  function shutdown() public restricted {... */\n    tag_23:\n      tag_56\n      tag_107\n      jump\t// in\n        /* \"contracts/LunchVenue_updated.sol\":9186:10345  function doVote(uint restaurant) public contractActive onlyDuring(Phase.Voting) votingOpen returns (bool validVote) {... */\n    tag_38:\n        /* \"contracts/LunchVenue_updated.sol\":12465:12475  isShutdown */\n      sload(0x0b)\n        /* \"contracts/LunchVenue_updated.sol\":9286:9300  bool validVote */\n      0x00\n      swap1\n        /* \"contracts/LunchVenue_updated.sol\":12465:12475  isShutdown */\n      0xff\n      and\n        /* \"contracts/LunchVenue_updated.sol\":12464:12475  !isShutdown */\n      iszero\n        /* \"contracts/LunchVenue_updated.sol\":12456:12502  require(!isShutdown, \"Contract is shut down.\") */\n      tag_109\n      jumpi\n      mload(0x40)\n      shl(0xe5, 0x461bcd)\n      dup2\n      mstore\n      0x04\n      add\n      tag_110\n      swap1\n      tag_111\n      jump\t// in\n    tag_110:\n      mload(0x40)\n      dup1\n      swap2\n      sub\n      swap1\n      revert\n    tag_109:\n        /* \"contracts/LunchVenue_updated.sol\":9252:9264  Phase.Voting */\n      0x01\n      dup1\n        /* \"contracts/LunchVenue_updated.sol\":12264:12276  currentPhase */\n      sload(0x09)\n      0x0100\n      swap1\n      div\n      0xff\n      and\n        /* \"contracts/LunchVenue_updated.sol\":12264:12285  currentPhase == phase */\n      0x02\n      dup2\n      gt\n      iszero\n      tag_117\n      jumpi\n      tag_117\n      tag_115\n      jump\t// in\n    tag_117:\n      eq\n        /* \"contracts/LunchVenue_updated.sol\":12256:12326  require(currentPhase == phase, \"Action not allowed in current phase.\") */\n      tag_118\n      jumpi\n      mload(0x40)\n      shl(0xe5, 0x461bcd)\n      dup2\n      mstore\n      0x04\n      add\n      tag_110\n      swap1\n      tag_120\n      jump\t// in\n    tag_118:\n        /* \"contracts/LunchVenue_updated.sol\":12070:12078  voteOpen */\n      and(0xff, sload(0x09))\n        /* \"contracts/LunchVenue_updated.sol\":12070:12086  voteOpen == true */\n      iszero\n      iszero\n        /* \"contracts/LunchVenue_updated.sol\":12070:12078  voteOpen */\n      0x01\n        /* \"contracts/LunchVenue_updated.sol\":12070:12086  voteOpen == true */\n      eq\n        /* \"contracts/LunchVenue_updated.sol\":12062:12126  require(voteOpen == true, \"Can vote only while voting is open.\") */\n      tag_122\n      jumpi\n      mload(0x40)\n      shl(0xe5, 0x461bcd)\n      dup2\n      mstore\n        /* \"#utility.yul\":8052:8054   */\n      0x20\n        /* \"contracts/LunchVenue_updated.sol\":12062:12126  require(voteOpen == true, \"Can vote only while voting is open.\") */\n      0x04\n      dup3\n      add\n        /* \"#utility.yul\":8034:8055   */\n      mstore\n        /* \"#utility.yul\":8091:8093   */\n      0x23\n        /* \"#utility.yul\":8071:8089   */\n      0x24\n      dup3\n      add\n        /* \"#utility.yul\":8064:8094   */\n      mstore\n        /* \"#utility.yul\":8130:8164   */\n      0x43616e20766f7465206f6e6c79207768696c6520766f74696e67206973206f70\n        /* \"#utility.yul\":8110:8128   */\n      0x44\n      dup3\n      add\n        /* \"#utility.yul\":8103:8165   */\n      mstore\n      shl(0xe9, 0x32b717)\n        /* \"#utility.yul\":8181:8199   */\n      0x64\n      dup3\n      add\n        /* \"#utility.yul\":8174:8207   */\n      mstore\n        /* \"#utility.yul\":8224:8243   */\n      0x84\n      add\n        /* \"contracts/LunchVenue_updated.sol\":12062:12126  require(voteOpen == true, \"Can vote only while voting is open.\") */\n      tag_110\n        /* \"#utility.yul\":8024:8249   */\n      jump\n        /* \"contracts/LunchVenue_updated.sol\":12062:12126  require(voteOpen == true, \"Can vote only while voting is open.\") */\n    tag_122:\n        /* \"contracts/LunchVenue_updated.sol\":9361:9372  restaurants */\n      0x00\n        /* \"contracts/LunchVenue_updated.sol\":9361:9384  restaurants[restaurant] */\n      dup4\n      dup2\n      mstore\n      0x20\n      dup2\n      swap1\n      mstore\n      0x40\n      swap1\n      keccak256\n        /* \"contracts/LunchVenue_updated.sol\":9355:9392  bytes(restaurants[restaurant]).length */\n      dup1\n      sload\n      tag_126\n      swap1\n      tag_127\n      jump\t// in\n    tag_126:\n        /* \"contracts/LunchVenue_updated.sol\":9355:9397  bytes(restaurants[restaurant]).length != 0 */\n      iszero\n      iszero\n      swap1\n      pop\n        /* \"contracts/LunchVenue_updated.sol\":9347:9428  require(bytes(restaurants[restaurant]).length != 0, \"Restaurant does not exist.\") */\n      tag_128\n      jumpi\n      mload(0x40)\n      shl(0xe5, 0x461bcd)\n      dup2\n      mstore\n        /* \"#utility.yul\":4317:4319   */\n      0x20\n        /* \"contracts/LunchVenue_updated.sol\":9347:9428  require(bytes(restaurants[restaurant]).length != 0, \"Restaurant does not exist.\") */\n      0x04\n      dup3\n      add\n        /* \"#utility.yul\":4299:4320   */\n      mstore\n        /* \"#utility.yul\":4356:4358   */\n      0x1a\n        /* \"#utility.yul\":4336:4354   */\n      0x24\n      dup3\n      add\n        /* \"#utility.yul\":4329:4359   */\n      mstore\n        /* \"#utility.yul\":4395:4423   */\n      0x52657374617572616e7420646f6573206e6f742065786973742e000000000000\n        /* \"#utility.yul\":4375:4393   */\n      0x44\n      dup3\n      add\n        /* \"#utility.yul\":4368:4424   */\n      mstore\n        /* \"#utility.yul\":4441:4459   */\n      0x64\n      add\n        /* \"contracts/LunchVenue_updated.sol\":9347:9428  require(bytes(restaurants[restaurant]).length != 0, \"Restaurant does not exist.\") */\n      tag_110\n        /* \"#utility.yul\":4289:4465   */\n      jump\n        /* \"contracts/LunchVenue_updated.sol\":9347:9428  require(bytes(restaurants[restaurant]).length != 0, \"Restaurant does not exist.\") */\n    tag_128:\n        /* \"contracts/LunchVenue_updated.sol\":9526:9534  endBlock */\n      sload(0x0a)\n        /* \"contracts/LunchVenue_updated.sol\":9511:9523  block.number */\n      number\n        /* \"contracts/LunchVenue_updated.sol\":9511:9534  block.number > endBlock */\n      gt\n        /* \"contracts/LunchVenue_updated.sol\":9507:9599  if (block.number > endBlock) {... */\n      iszero\n      tag_131\n      jumpi\n        /* \"contracts/LunchVenue_updated.sol\":9550:9562  _endVoting() */\n      tag_132\n        /* \"contracts/LunchVenue_updated.sol\":9550:9560  _endVoting */\n      tag_133\n        /* \"contracts/LunchVenue_updated.sol\":9550:9562  _endVoting() */\n      jump\t// in\n    tag_132:\n        /* \"contracts/LunchVenue_updated.sol\":9583:9588  false */\n      0x00\n        /* \"contracts/LunchVenue_updated.sol\":9576:9588  return false */\n      swap2\n      pop\n      jump(tag_148)\n        /* \"contracts/LunchVenue_updated.sol\":9507:9599  if (block.number > endBlock) {... */\n    tag_131:\n        /* \"contracts/LunchVenue_updated.sol\":9666:9676  msg.sender */\n      caller\n        /* \"contracts/LunchVenue_updated.sol\":9658:9677  friends[msg.sender] */\n      0x00\n      swap1\n      dup2\n      mstore\n        /* \"contracts/LunchVenue_updated.sol\":9658:9665  friends */\n      0x01\n        /* \"contracts/LunchVenue_updated.sol\":9658:9677  friends[msg.sender] */\n      0x20\n      mstore\n      0x40\n      swap1\n      keccak256\n        /* \"contracts/LunchVenue_updated.sol\":9652:9690  bytes(friends[msg.sender].name).length */\n      dup1\n      sload\n      tag_134\n      swap1\n      tag_127\n      jump\t// in\n    tag_134:\n        /* \"contracts/LunchVenue_updated.sol\":9652:9695  bytes(friends[msg.sender].name).length == 0 */\n      iszero\n        /* \"contracts/LunchVenue_updated.sol\":9648:9849  if (bytes(friends[msg.sender].name).length == 0) {... */\n      iszero\n      swap1\n      pop\n      tag_135\n      jumpi\n        /* \"contracts/LunchVenue_updated.sol\":9796:9838  revert(\"You are not a registered friend.\") */\n      mload(0x40)\n      shl(0xe5, 0x461bcd)\n      dup2\n      mstore\n        /* \"#utility.yul\":8805:8807   */\n      0x20\n        /* \"contracts/LunchVenue_updated.sol\":9796:9838  revert(\"You are not a registered friend.\") */\n      0x04\n      dup3\n      add\n        /* \"#utility.yul\":8787:8808   */\n      dup2\n      swap1\n      mstore\n        /* \"#utility.yul\":8824:8842   */\n      0x24\n      dup3\n      add\n        /* \"#utility.yul\":8817:8847   */\n      mstore\n        /* \"#utility.yul\":8883:8917   */\n      0x596f7520617265206e6f742061207265676973746572656420667269656e642e\n        /* \"#utility.yul\":8863:8881   */\n      0x44\n      dup3\n      add\n        /* \"#utility.yul\":8856:8918   */\n      mstore\n        /* \"#utility.yul\":8935:8953   */\n      0x64\n      add\n        /* \"contracts/LunchVenue_updated.sol\":9796:9838  revert(\"You are not a registered friend.\") */\n      tag_110\n        /* \"#utility.yul\":8777:8959   */\n      jump\n        /* \"contracts/LunchVenue_updated.sol\":9648:9849  if (bytes(friends[msg.sender].name).length == 0) {... */\n    tag_135:\n        /* \"contracts/LunchVenue_updated.sol\":9912:9922  msg.sender */\n      caller\n        /* \"contracts/LunchVenue_updated.sol\":9904:9923  friends[msg.sender] */\n      0x00\n      swap1\n      dup2\n      mstore\n        /* \"contracts/LunchVenue_updated.sol\":9904:9911  friends */\n      0x01\n        /* \"contracts/LunchVenue_updated.sol\":9904:9923  friends[msg.sender] */\n      0x20\n      dup2\n      swap1\n      mstore\n      0x40\n      swap1\n      swap2\n      keccak256\n        /* \"contracts/LunchVenue_updated.sol\":9904:9929  friends[msg.sender].voted */\n      add\n      sload\n      0xff\n      and\n        /* \"contracts/LunchVenue_updated.sol\":9900:9989  if (friends[msg.sender].voted) {... */\n      iszero\n      tag_138\n      jumpi\n        /* \"contracts/LunchVenue_updated.sol\":9945:9978  revert(\"You have already voted.\") */\n      mload(0x40)\n      shl(0xe5, 0x461bcd)\n      dup2\n      mstore\n        /* \"#utility.yul\":4672:4674   */\n      0x20\n        /* \"contracts/LunchVenue_updated.sol\":9945:9978  revert(\"You have already voted.\") */\n      0x04\n      dup3\n      add\n        /* \"#utility.yul\":4654:4675   */\n      mstore\n        /* \"#utility.yul\":4711:4713   */\n      0x17\n        /* \"#utility.yul\":4691:4709   */\n      0x24\n      dup3\n      add\n        /* \"#utility.yul\":4684:4714   */\n      mstore\n        /* \"#utility.yul\":4750:4775   */\n      0x596f75206861766520616c726561647920766f7465642e000000000000000000\n        /* \"#utility.yul\":4730:4748   */\n      0x44\n      dup3\n      add\n        /* \"#utility.yul\":4723:4776   */\n      mstore\n        /* \"#utility.yul\":4793:4811   */\n      0x64\n      add\n        /* \"contracts/LunchVenue_updated.sol\":9945:9978  revert(\"You have already voted.\") */\n      tag_110\n        /* \"#utility.yul\":4644:4817   */\n      jump\n        /* \"contracts/LunchVenue_updated.sol\":9900:9989  if (friends[msg.sender].voted) {... */\n    tag_138:\n        /* \"contracts/LunchVenue_updated.sol\":10076:10086  msg.sender */\n      caller\n        /* \"contracts/LunchVenue_updated.sol\":10068:10087  friends[msg.sender] */\n      0x00\n      dup2\n      dup2\n      mstore\n        /* \"contracts/LunchVenue_updated.sol\":10054:10058  true */\n      0x01\n        /* \"contracts/LunchVenue_updated.sol\":10068:10087  friends[msg.sender] */\n      0x20\n      dup2\n      dup2\n      mstore\n      0x40\n      dup1\n      dup5\n      keccak256\n        /* \"contracts/LunchVenue_updated.sol\":10068:10093  friends[msg.sender].voted */\n      dup4\n      add\n        /* \"contracts/LunchVenue_updated.sol\":10068:10100  friends[msg.sender].voted = true */\n      dup1\n      sload\n      not(0xff)\n      and\n      dup5\n      or\n      swap1\n      sstore\n        /* \"contracts/LunchVenue_updated.sol\":10130:10158  Vote(msg.sender, restaurant) */\n      dup1\n      mload\n      dup1\n      dup3\n      add\n      swap1\n      swap2\n      mstore\n      swap4\n      dup5\n      mstore\n      dup4\n      add\n      dup7\n      swap1\n      mstore\n        /* \"contracts/LunchVenue_updated.sol\":10118:10126  numVotes */\n      0x04\n        /* \"contracts/LunchVenue_updated.sol\":10116:10126  ++numVotes */\n      dup1\n      sload\n        /* \"contracts/LunchVenue_updated.sol\":10054:10058  true */\n      swap2\n      swap6\n      pop\n        /* \"contracts/LunchVenue_updated.sol\":10110:10115  votes */\n      0x07\n      swap3\n        /* \"contracts/LunchVenue_updated.sol\":10068:10087  friends[msg.sender] */\n      swap2\n      dup3\n      swap1\n        /* \"contracts/LunchVenue_updated.sol\":10116:10126  ++numVotes */\n      tag_141\n      swap1\n      tag_142\n      jump\t// in\n    tag_141:\n      swap2\n      dup3\n      swap1\n      sstore\n      pop\n        /* \"contracts/LunchVenue_updated.sol\":10110:10127  votes[++numVotes] */\n      dup2\n      mstore\n      0x20\n      dup1\n      dup3\n      add\n      swap3\n      swap1\n      swap3\n      mstore\n      0x40\n      add\n      0x00\n      keccak256\n        /* \"contracts/LunchVenue_updated.sol\":10110:10158  votes[++numVotes] = Vote(msg.sender, restaurant) */\n      dup3\n      mload\n      dup2\n      sload\n      not(sub(shl(0xa0, 0x01), 0x01))\n      and\n      sub(shl(0xa0, 0x01), 0x01)\n      swap1\n      swap2\n      and\n      or\n      dup2\n      sstore\n      swap2\n      add\n      mload\n      0x01\n      swap1\n      swap2\n      add\n      sstore\n        /* \"contracts/LunchVenue_updated.sol\":10185:10195  numFriends */\n      sload(0x03)\n        /* \"contracts/LunchVenue_updated.sol\":10185:10199  numFriends / 2 */\n      tag_143\n      swap1\n        /* \"contracts/LunchVenue_updated.sol\":10198:10199  2 */\n      0x02\n      swap1\n        /* \"contracts/LunchVenue_updated.sol\":10185:10199  numFriends / 2 */\n      tag_144\n      jump\t// in\n    tag_143:\n        /* \"contracts/LunchVenue_updated.sol\":10185:10203  numFriends / 2 + 1 */\n      tag_145\n      swap1\n        /* \"contracts/LunchVenue_updated.sol\":10202:10203  1 */\n      0x01\n        /* \"contracts/LunchVenue_updated.sol\":10185:10203  numFriends / 2 + 1 */\n      tag_146\n      jump\t// in\n    tag_145:\n        /* \"contracts/LunchVenue_updated.sol\":10173:10181  numVotes */\n      sload(0x04)\n        /* \"contracts/LunchVenue_updated.sol\":10173:10203  numVotes >= numFriends / 2 + 1 */\n      lt\n        /* \"contracts/LunchVenue_updated.sol\":10169:10312  if (numVotes >= numFriends / 2 + 1) {... */\n      tag_148\n      jumpi\n        /* \"contracts/LunchVenue_updated.sol\":10289:10301  _endVoting() */\n      tag_148\n        /* \"contracts/LunchVenue_updated.sol\":10289:10299  _endVoting */\n      tag_133\n        /* \"contracts/LunchVenue_updated.sol\":10289:10301  _endVoting() */\n      jump\t// in\n    tag_148:\n        /* \"contracts/LunchVenue_updated.sol\":12512:12513  _ */\n      pop\n        /* \"contracts/LunchVenue_updated.sol\":9186:10345  function doVote(uint restaurant) public contractActive onlyDuring(Phase.Voting) votingOpen returns (bool validVote) {... */\n      swap2\n      swap1\n      pop\n      jump\t// out\n        /* \"contracts/LunchVenue_updated.sol\":3255:3296  mapping(address => Friend) public friends */\n    tag_44:\n      mstore(0x20, 0x01)\n      0x00\n      swap1\n      dup2\n      mstore\n      0x40\n      swap1\n      keccak256\n      dup1\n      sload\n      dup2\n      swap1\n      tag_149\n      swap1\n      tag_127\n      jump\t// in\n    tag_149:\n      dup1\n      0x1f\n      add\n      0x20\n      dup1\n      swap2\n      div\n      mul\n      0x20\n      add\n      mload(0x40)\n      swap1\n      dup2\n      add\n      0x40\n      mstore\n      dup1\n      swap3\n      swap2\n      swap1\n      dup2\n      dup2\n      mstore\n      0x20\n      add\n      dup3\n      dup1\n      sload\n      tag_150\n      swap1\n      tag_127\n      jump\t// in\n    tag_150:\n      dup1\n      iszero\n      tag_151\n      jumpi\n      dup1\n      0x1f\n      lt\n      tag_152\n      jumpi\n      0x0100\n      dup1\n      dup4\n      sload\n      div\n      mul\n      dup4\n      mstore\n      swap2\n      0x20\n      add\n      swap2\n      jump(tag_151)\n    tag_152:\n      dup3\n      add\n      swap2\n      swap1\n      0x00\n      mstore\n      keccak256(0x00, 0x20)\n      swap1\n    tag_153:\n      dup2\n      sload\n      dup2\n      mstore\n      swap1\n      0x01\n      add\n      swap1\n      0x20\n      add\n      dup1\n      dup4\n      gt\n      tag_153\n      jumpi\n      dup3\n      swap1\n      sub\n      0x1f\n      and\n      dup3\n      add\n      swap2\n    tag_151:\n      pop\n      pop\n      pop\n      0x01\n      swap1\n      swap4\n      add\n      sload\n      swap2\n      swap3\n      pop\n      pop\n      0xff\n      and\n      dup3\n      jump\t// out\n        /* \"contracts/LunchVenue_updated.sol\":6548:7091  function _addFriend(address friendAddress, string memory name) public contractActive onlyDuring(Phase.Setup) returns (uint) {... */\n    tag_50:\n        /* \"contracts/LunchVenue_updated.sol\":12465:12475  isShutdown */\n      sload(0x0b)\n        /* \"contracts/LunchVenue_updated.sol\":6666:6670  uint */\n      0x00\n      swap1\n        /* \"contracts/LunchVenue_updated.sol\":12465:12475  isShutdown */\n      0xff\n      and\n        /* \"contracts/LunchVenue_updated.sol\":12464:12475  !isShutdown */\n      iszero\n        /* \"contracts/LunchVenue_updated.sol\":12456:12502  require(!isShutdown, \"Contract is shut down.\") */\n      tag_155\n      jumpi\n      mload(0x40)\n      shl(0xe5, 0x461bcd)\n      dup2\n      mstore\n      0x04\n      add\n      tag_110\n      swap1\n      tag_111\n      jump\t// in\n    tag_155:\n        /* \"contracts/LunchVenue_updated.sol\":6644:6655  Phase.Setup */\n      0x00\n      dup1\n        /* \"contracts/LunchVenue_updated.sol\":12264:12276  currentPhase */\n      sload(0x09)\n      0x0100\n      swap1\n      div\n      0xff\n      and\n        /* \"contracts/LunchVenue_updated.sol\":12264:12285  currentPhase == phase */\n      0x02\n      dup2\n      gt\n      iszero\n      tag_161\n      jumpi\n      tag_161\n      tag_115\n      jump\t// in\n    tag_161:\n      eq\n        /* \"contracts/LunchVenue_updated.sol\":12256:12326  require(currentPhase == phase, \"Action not allowed in current phase.\") */\n      tag_162\n      jumpi\n      mload(0x40)\n      shl(0xe5, 0x461bcd)\n      dup2\n      mstore\n      0x04\n      add\n      tag_110\n      swap1\n      tag_120\n      jump\t// in\n    tag_162:\n      sub(shl(0xa0, 0x01), 0x01)\n        /* \"contracts/LunchVenue_updated.sol\":6792:6814  friends[friendAddress] */\n      dup5\n      and\n      0x00\n      swap1\n      dup2\n      mstore\n        /* \"contracts/LunchVenue_updated.sol\":6792:6799  friends */\n      0x01\n        /* \"contracts/LunchVenue_updated.sol\":6792:6814  friends[friendAddress] */\n      0x20\n      mstore\n      0x40\n      swap1\n      keccak256\n        /* \"contracts/LunchVenue_updated.sol\":6786:6827  bytes(friends[friendAddress].name).length */\n      dup1\n      sload\n      tag_165\n      swap1\n      tag_127\n      jump\t// in\n    tag_165:\n        /* \"contracts/LunchVenue_updated.sol\":6786:6832  bytes(friends[friendAddress].name).length == 0 */\n      iszero\n      swap1\n      pop\n        /* \"contracts/LunchVenue_updated.sol\":6778:6859  require(bytes(friends[friendAddress].name).length == 0, \"Friend already exists.\") */\n      tag_166\n      jumpi\n      mload(0x40)\n      shl(0xe5, 0x461bcd)\n      dup2\n      mstore\n        /* \"#utility.yul\":5432:5434   */\n      0x20\n        /* \"contracts/LunchVenue_updated.sol\":6778:6859  require(bytes(friends[friendAddress].name).length == 0, \"Friend already exists.\") */\n      0x04\n      dup3\n      add\n        /* \"#utility.yul\":5414:5435   */\n      mstore\n        /* \"#utility.yul\":5471:5473   */\n      0x16\n        /* \"#utility.yul\":5451:5469   */\n      0x24\n      dup3\n      add\n        /* \"#utility.yul\":5444:5474   */\n      mstore\n      shl(0x51, 0x233934b2b7321030b63932b0b23c9032bc34b9ba3997)\n        /* \"#utility.yul\":5490:5508   */\n      0x44\n      dup3\n      add\n        /* \"#utility.yul\":5483:5535   */\n      mstore\n        /* \"#utility.yul\":5552:5570   */\n      0x64\n      add\n        /* \"contracts/LunchVenue_updated.sol\":6778:6859  require(bytes(friends[friendAddress].name).length == 0, \"Friend already exists.\") */\n      tag_110\n        /* \"#utility.yul\":5404:5576   */\n      jump\n        /* \"contracts/LunchVenue_updated.sol\":6778:6859  require(bytes(friends[friendAddress].name).length == 0, \"Friend already exists.\") */\n    tag_166:\n        /* \"contracts/LunchVenue_updated.sol\":6898:6899  0 */\n      0x00\n        /* \"contracts/LunchVenue_updated.sol\":6883:6887  name */\n      dup4\n        /* \"contracts/LunchVenue_updated.sol\":6877:6895  bytes(name).length */\n      mload\n        /* \"contracts/LunchVenue_updated.sol\":6877:6899  bytes(name).length > 0 */\n      gt\n        /* \"contracts/LunchVenue_updated.sol\":6869:6925  require(bytes(name).length > 0, \"Name cannot be empty.\") */\n      tag_169\n      jumpi\n      mload(0x40)\n      shl(0xe5, 0x461bcd)\n      dup2\n      mstore\n        /* \"#utility.yul\":7702:7704   */\n      0x20\n        /* \"contracts/LunchVenue_updated.sol\":6869:6925  require(bytes(name).length > 0, \"Name cannot be empty.\") */\n      0x04\n      dup3\n      add\n        /* \"#utility.yul\":7684:7705   */\n      mstore\n        /* \"#utility.yul\":7741:7743   */\n      0x15\n        /* \"#utility.yul\":7721:7739   */\n      0x24\n      dup3\n      add\n        /* \"#utility.yul\":7714:7744   */\n      mstore\n      shl(0x59, 0x2730b6b29031b0b73737ba1031329032b6b83a3c97)\n        /* \"#utility.yul\":7760:7778   */\n      0x44\n      dup3\n      add\n        /* \"#utility.yul\":7753:7804   */\n      mstore\n        /* \"#utility.yul\":7821:7839   */\n      0x64\n      add\n        /* \"contracts/LunchVenue_updated.sol\":6869:6925  require(bytes(name).length > 0, \"Name cannot be empty.\") */\n      tag_110\n        /* \"#utility.yul\":7674:7845   */\n      jump\n        /* \"contracts/LunchVenue_updated.sol\":6869:6925  require(bytes(name).length > 0, \"Name cannot be empty.\") */\n    tag_169:\n      0x40\n      dup1\n      mload\n      dup1\n      dup3\n      add\n      dup3\n      mstore\n      0x00\n      0x20\n      dup1\n      dup4\n      add\n      dup3\n      swap1\n      mstore\n        /* \"contracts/LunchVenue_updated.sol\":6961:6974  f.name = name */\n      dup7\n      dup4\n      mstore\n      sub(shl(0xa0, 0x01), 0x01)\n        /* \"contracts/LunchVenue_updated.sol\":7009:7031  friends[friendAddress] */\n      dup9\n      and\n      dup3\n      mstore\n        /* \"contracts/LunchVenue_updated.sol\":6984:6999  f.voted = false */\n      0x01\n        /* \"contracts/LunchVenue_updated.sol\":7009:7031  friends[friendAddress] */\n      dup2\n      mstore\n      swap3\n      swap1\n      keccak256\n        /* \"contracts/LunchVenue_updated.sol\":7009:7035  friends[friendAddress] = f */\n      dup2\n      mload\n      dup1\n      mload\n      swap3\n      swap4\n      dup5\n      swap4\n      tag_174\n      swap3\n        /* \"contracts/LunchVenue_updated.sol\":7009:7031  friends[friendAddress] */\n      dup5\n      swap3\n        /* \"contracts/LunchVenue_updated.sol\":7009:7035  friends[friendAddress] = f */\n      add\n      swap1\n      tag_175\n      jump\t// in\n    tag_174:\n      pop\n      0x20\n      swap2\n      swap1\n      swap2\n      add\n      mload\n      0x01\n      swap1\n      swap2\n      add\n      dup1\n      sload\n      not(0xff)\n      and\n      swap2\n      iszero\n      iszero\n      swap2\n      swap1\n      swap2\n      or\n      swap1\n      sstore\n        /* \"contracts/LunchVenue_updated.sol\":7045:7055  numFriends */\n      0x03\n        /* \"contracts/LunchVenue_updated.sol\":7045:7057  numFriends++ */\n      dup1\n      sload\n      swap1\n      0x00\n      tag_176\n      dup4\n      tag_142\n      jump\t// in\n    tag_176:\n      swap1\n      swap2\n      sstore\n      pop\n      pop\n        /* \"contracts/LunchVenue_updated.sol\":7074:7084  numFriends */\n      sload(0x03)\n      swap6\n        /* \"contracts/LunchVenue_updated.sol\":6548:7091  function _addFriend(address friendAddress, string memory name) public contractActive onlyDuring(Phase.Setup) returns (uint) {... */\n      swap5\n      pop\n      pop\n      pop\n      pop\n      pop\n      jump\t// out\n        /* \"contracts/LunchVenue_updated.sol\":5967:6156  function addFriend(address friendAddress, string memory name) public contractActive restricted onlyDuring(Phase.Setup) returns (uint) {... */\n    tag_54:\n        /* \"contracts/LunchVenue_updated.sol\":12465:12475  isShutdown */\n      sload(0x0b)\n        /* \"contracts/LunchVenue_updated.sol\":6095:6099  uint */\n      0x00\n      swap1\n        /* \"contracts/LunchVenue_updated.sol\":12465:12475  isShutdown */\n      0xff\n      and\n        /* \"contracts/LunchVenue_updated.sol\":12464:12475  !isShutdown */\n      iszero\n        /* \"contracts/LunchVenue_updated.sol\":12456:12502  require(!isShutdown, \"Contract is shut down.\") */\n      tag_178\n      jumpi\n      mload(0x40)\n      shl(0xe5, 0x461bcd)\n      dup2\n      mstore\n      0x04\n      add\n      tag_110\n      swap1\n      tag_111\n      jump\t// in\n    tag_178:\n        /* \"contracts/LunchVenue_updated.sol\":11893:11900  manager */\n      and(sub(shl(0xa0, 0x01), 0x01), sload(0x05))\n        /* \"contracts/LunchVenue_updated.sol\":11879:11889  msg.sender */\n      caller\n        /* \"contracts/LunchVenue_updated.sol\":11879:11900  msg.sender == manager */\n      eq\n        /* \"contracts/LunchVenue_updated.sol\":11870:11940  require (msg.sender == manager, \"Can only be executed by the manager\") */\n      tag_181\n      jumpi\n      mload(0x40)\n      shl(0xe5, 0x461bcd)\n      dup2\n      mstore\n      0x04\n      add\n      tag_110\n      swap1\n      tag_183\n      jump\t// in\n    tag_181:\n        /* \"contracts/LunchVenue_updated.sol\":6073:6084  Phase.Setup */\n      0x00\n      dup1\n        /* \"contracts/LunchVenue_updated.sol\":12264:12276  currentPhase */\n      sload(0x09)\n      0x0100\n      swap1\n      div\n      0xff\n      and\n        /* \"contracts/LunchVenue_updated.sol\":12264:12285  currentPhase == phase */\n      0x02\n      dup2\n      gt\n      iszero\n      tag_188\n      jumpi\n      tag_188\n      tag_115\n      jump\t// in\n    tag_188:\n      eq\n        /* \"contracts/LunchVenue_updated.sol\":12256:12326  require(currentPhase == phase, \"Action not allowed in current phase.\") */\n      tag_189\n      jumpi\n      mload(0x40)\n      shl(0xe5, 0x461bcd)\n      dup2\n      mstore\n      0x04\n      add\n      tag_110\n      swap1\n      tag_120\n      jump\t// in\n    tag_189:\n        /* \"contracts/LunchVenue_updated.sol\":6118:6149  _addFriend(friendAddress, name) */\n      tag_192\n        /* \"contracts/LunchVenue_updated.sol\":6129:6142  friendAddress */\n      dup5\n        /* \"contracts/LunchVenue_updated.sol\":6144:6148  name */\n      dup5\n        /* \"contracts/LunchVenue_updated.sol\":6118:6128  _addFriend */\n      tag_50\n        /* \"contracts/LunchVenue_updated.sol\":6118:6149  _addFriend(friendAddress, name) */\n      jump\t// in\n    tag_192:\n        /* \"contracts/LunchVenue_updated.sol\":6111:6149  return _addFriend(friendAddress, name) */\n      swap5\n        /* \"contracts/LunchVenue_updated.sol\":5967:6156  function addFriend(address friendAddress, string memory name) public contractActive restricted onlyDuring(Phase.Setup) returns (uint) {... */\n      swap4\n      pop\n      pop\n      pop\n      pop\n      jump\t// out\n        /* \"contracts/LunchVenue_updated.sol\":7284:7794  function startVoting(uint blocksUntilEnd) public contractActive restricted onlyDuring(Phase.Setup) {... */\n    tag_58:\n        /* \"contracts/LunchVenue_updated.sol\":12465:12475  isShutdown */\n      and(0xff, sload(0x0b))\n        /* \"contracts/LunchVenue_updated.sol\":12464:12475  !isShutdown */\n      iszero\n        /* \"contracts/LunchVenue_updated.sol\":12456:12502  require(!isShutdown, \"Contract is shut down.\") */\n      tag_194\n      jumpi\n      mload(0x40)\n      shl(0xe5, 0x461bcd)\n      dup2\n      mstore\n      0x04\n      add\n      tag_110\n      swap1\n      tag_111\n      jump\t// in\n    tag_194:\n        /* \"contracts/LunchVenue_updated.sol\":11893:11900  manager */\n      and(sub(shl(0xa0, 0x01), 0x01), sload(0x05))\n        /* \"contracts/LunchVenue_updated.sol\":11879:11889  msg.sender */\n      caller\n        /* \"contracts/LunchVenue_updated.sol\":11879:11900  msg.sender == manager */\n      eq\n        /* \"contracts/LunchVenue_updated.sol\":11870:11940  require (msg.sender == manager, \"Can only be executed by the manager\") */\n      tag_197\n      jumpi\n      mload(0x40)\n      shl(0xe5, 0x461bcd)\n      dup2\n      mstore\n      0x04\n      add\n      tag_110\n      swap1\n      tag_183\n      jump\t// in\n    tag_197:\n        /* \"contracts/LunchVenue_updated.sol\":7370:7381  Phase.Setup */\n      0x00\n      dup1\n        /* \"contracts/LunchVenue_updated.sol\":12264:12276  currentPhase */\n      sload(0x09)\n      0x0100\n      swap1\n      div\n      0xff\n      and\n        /* \"contracts/LunchVenue_updated.sol\":12264:12285  currentPhase == phase */\n      0x02\n      dup2\n      gt\n      iszero\n      tag_203\n      jumpi\n      tag_203\n      tag_115\n      jump\t// in\n    tag_203:\n      eq\n        /* \"contracts/LunchVenue_updated.sol\":12256:12326  require(currentPhase == phase, \"Action not allowed in current phase.\") */\n      tag_204\n      jumpi\n      mload(0x40)\n      shl(0xe5, 0x461bcd)\n      dup2\n      mstore\n      0x04\n      add\n      tag_110\n      swap1\n      tag_120\n      jump\t// in\n    tag_204:\n        /* \"contracts/LunchVenue_updated.sol\":7486:7487  1 */\n      0x01\n        /* \"contracts/LunchVenue_updated.sol\":7469:7483  numRestaurants */\n      sload(0x02)\n        /* \"contracts/LunchVenue_updated.sol\":7469:7487  numRestaurants > 1 */\n      gt\n        /* \"contracts/LunchVenue_updated.sol\":7461:7531  require(numRestaurants > 1, \"At least two restaurants must be added.\") */\n      tag_207\n      jumpi\n      mload(0x40)\n      shl(0xe5, 0x461bcd)\n      dup2\n      mstore\n        /* \"#utility.yul\":5024:5026   */\n      0x20\n        /* \"contracts/LunchVenue_updated.sol\":7461:7531  require(numRestaurants > 1, \"At least two restaurants must be added.\") */\n      0x04\n      dup3\n      add\n        /* \"#utility.yul\":5006:5027   */\n      mstore\n        /* \"#utility.yul\":5063:5065   */\n      0x27\n        /* \"#utility.yul\":5043:5061   */\n      0x24\n      dup3\n      add\n        /* \"#utility.yul\":5036:5066   */\n      mstore\n        /* \"#utility.yul\":5102:5136   */\n      0x4174206c656173742074776f2072657374617572616e7473206d757374206265\n        /* \"#utility.yul\":5082:5100   */\n      0x44\n      dup3\n      add\n        /* \"#utility.yul\":5075:5137   */\n      mstore\n      shl(0xc9, 0x1030b23232b217)\n        /* \"#utility.yul\":5153:5171   */\n      0x64\n      dup3\n      add\n        /* \"#utility.yul\":5146:5183   */\n      mstore\n        /* \"#utility.yul\":5200:5219   */\n      0x84\n      add\n        /* \"contracts/LunchVenue_updated.sol\":7461:7531  require(numRestaurants > 1, \"At least two restaurants must be added.\") */\n      tag_110\n        /* \"#utility.yul\":4996:5225   */\n      jump\n        /* \"contracts/LunchVenue_updated.sol\":7461:7531  require(numRestaurants > 1, \"At least two restaurants must be added.\") */\n    tag_207:\n        /* \"contracts/LunchVenue_updated.sol\":7562:7563  1 */\n      0x01\n        /* \"contracts/LunchVenue_updated.sol\":7549:7559  numFriends */\n      sload(0x03)\n        /* \"contracts/LunchVenue_updated.sol\":7549:7563  numFriends > 1 */\n      gt\n        /* \"contracts/LunchVenue_updated.sol\":7541:7603  require(numFriends > 1, \"At least two friends must be added.\") */\n      tag_210\n      jumpi\n      mload(0x40)\n      shl(0xe5, 0x461bcd)\n      dup2\n      mstore\n        /* \"#utility.yul\":6538:6540   */\n      0x20\n        /* \"contracts/LunchVenue_updated.sol\":7541:7603  require(numFriends > 1, \"At least two friends must be added.\") */\n      0x04\n      dup3\n      add\n        /* \"#utility.yul\":6520:6541   */\n      mstore\n        /* \"#utility.yul\":6577:6579   */\n      0x23\n        /* \"#utility.yul\":6557:6575   */\n      0x24\n      dup3\n      add\n        /* \"#utility.yul\":6550:6580   */\n      mstore\n        /* \"#utility.yul\":6616:6650   */\n      0x4174206c656173742074776f20667269656e6473206d75737420626520616464\n        /* \"#utility.yul\":6596:6614   */\n      0x44\n      dup3\n      add\n        /* \"#utility.yul\":6589:6651   */\n      mstore\n      shl(0xe9, 0x32b217)\n        /* \"#utility.yul\":6667:6685   */\n      0x64\n      dup3\n      add\n        /* \"#utility.yul\":6660:6693   */\n      mstore\n        /* \"#utility.yul\":6710:6729   */\n      0x84\n      add\n        /* \"contracts/LunchVenue_updated.sol\":7541:7603  require(numFriends > 1, \"At least two friends must be added.\") */\n      tag_110\n        /* \"#utility.yul\":6510:6735   */\n      jump\n        /* \"contracts/LunchVenue_updated.sol\":7541:7603  require(numFriends > 1, \"At least two friends must be added.\") */\n    tag_210:\n        /* \"contracts/LunchVenue_updated.sol\":7696:7725  block.number + blocksUntilEnd */\n      tag_213\n        /* \"contracts/LunchVenue_updated.sol\":7711:7725  blocksUntilEnd */\n      dup3\n        /* \"contracts/LunchVenue_updated.sol\":7696:7708  block.number */\n      number\n        /* \"contracts/LunchVenue_updated.sol\":7696:7725  block.number + blocksUntilEnd */\n      tag_146\n      jump\t// in\n    tag_213:\n        /* \"contracts/LunchVenue_updated.sol\":7685:7693  endBlock */\n      0x0a\n        /* \"contracts/LunchVenue_updated.sol\":7685:7725  endBlock = block.number + blocksUntilEnd */\n      sstore\n      pop\n      pop\n        /* \"contracts/LunchVenue_updated.sol\":7735:7747  currentPhase */\n      0x09\n        /* \"contracts/LunchVenue_updated.sol\":7735:7762  currentPhase = Phase.Voting */\n      dup1\n      sload\n      not(0xffff)\n        /* \"contracts/LunchVenue_updated.sol\":7772:7787  voteOpen = true */\n      and\n      0x0101\n      or\n      swap1\n      sstore\n        /* \"contracts/LunchVenue_updated.sol\":7284:7794  function startVoting(uint blocksUntilEnd) public contractActive restricted onlyDuring(Phase.Setup) {... */\n      jump\t// out\n        /* \"contracts/LunchVenue_updated.sol\":4555:4714  function addRestaurant(string memory name) public contractActive restricted onlyDuring(Phase.Setup) returns (uint) {... */\n    tag_74:\n        /* \"contracts/LunchVenue_updated.sol\":12465:12475  isShutdown */\n      sload(0x0b)\n        /* \"contracts/LunchVenue_updated.sol\":4664:4668  uint */\n      0x00\n      swap1\n        /* \"contracts/LunchVenue_updated.sol\":12465:12475  isShutdown */\n      0xff\n      and\n        /* \"contracts/LunchVenue_updated.sol\":12464:12475  !isShutdown */\n      iszero\n        /* \"contracts/LunchVenue_updated.sol\":12456:12502  require(!isShutdown, \"Contract is shut down.\") */\n      tag_217\n      jumpi\n      mload(0x40)\n      shl(0xe5, 0x461bcd)\n      dup2\n      mstore\n      0x04\n      add\n      tag_110\n      swap1\n      tag_111\n      jump\t// in\n    tag_217:\n        /* \"contracts/LunchVenue_updated.sol\":11893:11900  manager */\n      and(sub(shl(0xa0, 0x01), 0x01), sload(0x05))\n        /* \"contracts/LunchVenue_updated.sol\":11879:11889  msg.sender */\n      caller\n        /* \"contracts/LunchVenue_updated.sol\":11879:11900  msg.sender == manager */\n      eq\n        /* \"contracts/LunchVenue_updated.sol\":11870:11940  require (msg.sender == manager, \"Can only be executed by the manager\") */\n      tag_220\n      jumpi\n      mload(0x40)\n      shl(0xe5, 0x461bcd)\n      dup2\n      mstore\n      0x04\n      add\n      tag_110\n      swap1\n      tag_183\n      jump\t// in\n    tag_220:\n        /* \"contracts/LunchVenue_updated.sol\":4642:4653  Phase.Setup */\n      0x00\n      dup1\n        /* \"contracts/LunchVenue_updated.sol\":12264:12276  currentPhase */\n      sload(0x09)\n      0x0100\n      swap1\n      div\n      0xff\n      and\n        /* \"contracts/LunchVenue_updated.sol\":12264:12285  currentPhase == phase */\n      0x02\n      dup2\n      gt\n      iszero\n      tag_226\n      jumpi\n      tag_226\n      tag_115\n      jump\t// in\n    tag_226:\n      eq\n        /* \"contracts/LunchVenue_updated.sol\":12256:12326  require(currentPhase == phase, \"Action not allowed in current phase.\") */\n      tag_227\n      jumpi\n      mload(0x40)\n      shl(0xe5, 0x461bcd)\n      dup2\n      mstore\n      0x04\n      add\n      tag_110\n      swap1\n      tag_120\n      jump\t// in\n    tag_227:\n        /* \"contracts/LunchVenue_updated.sol\":4687:4707  _addRestaurant(name) */\n      tag_230\n        /* \"contracts/LunchVenue_updated.sol\":4702:4706  name */\n      dup4\n        /* \"contracts/LunchVenue_updated.sol\":4687:4701  _addRestaurant */\n      tag_78\n        /* \"contracts/LunchVenue_updated.sol\":4687:4707  _addRestaurant(name) */\n      jump\t// in\n    tag_230:\n        /* \"contracts/LunchVenue_updated.sol\":4680:4707  return _addRestaurant(name) */\n      swap4\n        /* \"contracts/LunchVenue_updated.sol\":4555:4714  function addRestaurant(string memory name) public contractActive restricted onlyDuring(Phase.Setup) returns (uint) {... */\n      swap3\n      pop\n      pop\n      pop\n      jump\t// out\n        /* \"contracts/LunchVenue_updated.sol\":5113:5608  function _addRestaurant(string memory name) public contractActive onlyDuring(Phase.Setup) returns (uint) {... */\n    tag_78:\n        /* \"contracts/LunchVenue_updated.sol\":12465:12475  isShutdown */\n      sload(0x0b)\n        /* \"contracts/LunchVenue_updated.sol\":5212:5216  uint */\n      0x00\n      swap1\n        /* \"contracts/LunchVenue_updated.sol\":12465:12475  isShutdown */\n      0xff\n      and\n        /* \"contracts/LunchVenue_updated.sol\":12464:12475  !isShutdown */\n      iszero\n        /* \"contracts/LunchVenue_updated.sol\":12456:12502  require(!isShutdown, \"Contract is shut down.\") */\n      tag_232\n      jumpi\n      mload(0x40)\n      shl(0xe5, 0x461bcd)\n      dup2\n      mstore\n      0x04\n      add\n      tag_110\n      swap1\n      tag_111\n      jump\t// in\n    tag_232:\n        /* \"contracts/LunchVenue_updated.sol\":5190:5201  Phase.Setup */\n      0x00\n      dup1\n        /* \"contracts/LunchVenue_updated.sol\":12264:12276  currentPhase */\n      sload(0x09)\n      0x0100\n      swap1\n      div\n      0xff\n      and\n        /* \"contracts/LunchVenue_updated.sol\":12264:12285  currentPhase == phase */\n      0x02\n      dup2\n      gt\n      iszero\n      tag_238\n      jumpi\n      tag_238\n      tag_115\n      jump\t// in\n    tag_238:\n      eq\n        /* \"contracts/LunchVenue_updated.sol\":12256:12326  require(currentPhase == phase, \"Action not allowed in current phase.\") */\n      tag_239\n      jumpi\n      mload(0x40)\n      shl(0xe5, 0x461bcd)\n      dup2\n      mstore\n      0x04\n      add\n      tag_110\n      swap1\n      tag_120\n      jump\t// in\n    tag_239:\n        /* \"contracts/LunchVenue_updated.sol\":5281:5297  bytes32 nameHash */\n      0x00\n        /* \"contracts/LunchVenue_updated.sol\":5327:5331  name */\n      dup4\n        /* \"contracts/LunchVenue_updated.sol\":5310:5332  abi.encodePacked(name) */\n      add(0x20, mload(0x40))\n      tag_242\n      swap2\n      swap1\n      tag_243\n      jump\t// in\n    tag_242:\n      0x40\n      dup1\n      mload\n      not(0x1f)\n      dup2\n      dup5\n      sub\n      add\n      dup2\n      mstore\n      swap2\n      dup2\n      mstore\n        /* \"contracts/LunchVenue_updated.sol\":5300:5333  keccak256(abi.encodePacked(name)) */\n      dup2\n      mload\n        /* \"contracts/LunchVenue_updated.sol\":5310:5332  abi.encodePacked(name) */\n      0x20\n        /* \"contracts/LunchVenue_updated.sol\":5300:5333  keccak256(abi.encodePacked(name)) */\n      swap3\n      dup4\n      add\n      keccak256\n        /* \"contracts/LunchVenue_updated.sol\":5352:5378  restaurantExists[nameHash] */\n      0x00\n      dup2\n      dup2\n      mstore\n        /* \"contracts/LunchVenue_updated.sol\":5352:5368  restaurantExists */\n      0x0c\n        /* \"contracts/LunchVenue_updated.sol\":5352:5378  restaurantExists[nameHash] */\n      swap1\n      swap4\n      mstore\n      swap2\n      keccak256\n      sload\n        /* \"contracts/LunchVenue_updated.sol\":5300:5333  keccak256(abi.encodePacked(name)) */\n      swap1\n      swap2\n      pop\n        /* \"contracts/LunchVenue_updated.sol\":5352:5378  restaurantExists[nameHash] */\n      0xff\n      and\n        /* \"contracts/LunchVenue_updated.sol\":5351:5378  !restaurantExists[nameHash] */\n      iszero\n        /* \"contracts/LunchVenue_updated.sol\":5343:5409  require(!restaurantExists[nameHash], \"Restaurant already exists.\") */\n      tag_244\n      jumpi\n      mload(0x40)\n      shl(0xe5, 0x461bcd)\n      dup2\n      mstore\n        /* \"#utility.yul\":7347:7349   */\n      0x20\n        /* \"contracts/LunchVenue_updated.sol\":5343:5409  require(!restaurantExists[nameHash], \"Restaurant already exists.\") */\n      0x04\n      dup3\n      add\n        /* \"#utility.yul\":7329:7350   */\n      mstore\n        /* \"#utility.yul\":7386:7388   */\n      0x1a\n        /* \"#utility.yul\":7366:7384   */\n      0x24\n      dup3\n      add\n        /* \"#utility.yul\":7359:7389   */\n      mstore\n        /* \"#utility.yul\":7425:7453   */\n      0x52657374617572616e7420616c7265616479206578697374732e000000000000\n        /* \"#utility.yul\":7405:7423   */\n      0x44\n      dup3\n      add\n        /* \"#utility.yul\":7398:7454   */\n      mstore\n        /* \"#utility.yul\":7471:7489   */\n      0x64\n      add\n        /* \"contracts/LunchVenue_updated.sol\":5343:5409  require(!restaurantExists[nameHash], \"Restaurant already exists.\") */\n      tag_110\n        /* \"#utility.yul\":7319:7495   */\n      jump\n        /* \"contracts/LunchVenue_updated.sol\":5343:5409  require(!restaurantExists[nameHash], \"Restaurant already exists.\") */\n    tag_244:\n        /* \"contracts/LunchVenue_updated.sol\":5420:5434  numRestaurants */\n      0x02\n        /* \"contracts/LunchVenue_updated.sol\":5420:5436  numRestaurants++ */\n      dup1\n      sload\n      swap1\n        /* \"contracts/LunchVenue_updated.sol\":5420:5434  numRestaurants */\n      0x00\n        /* \"contracts/LunchVenue_updated.sol\":5420:5436  numRestaurants++ */\n      tag_247\n      dup4\n      tag_142\n      jump\t// in\n    tag_247:\n      swap1\n      swap2\n      sstore\n      pop\n      pop\n        /* \"contracts/LunchVenue_updated.sol\":5458:5472  numRestaurants */\n      sload(0x02)\n        /* \"contracts/LunchVenue_updated.sol\":5446:5457  restaurants */\n      0x00\n        /* \"contracts/LunchVenue_updated.sol\":5446:5473  restaurants[numRestaurants] */\n      swap1\n      dup2\n      mstore\n      0x20\n      dup2\n      dup2\n      mstore\n      0x40\n      swap1\n      swap2\n      keccak256\n        /* \"contracts/LunchVenue_updated.sol\":5446:5480  restaurants[numRestaurants] = name */\n      dup6\n      mload\n      tag_248\n      swap3\n      dup8\n      add\n      swap1\n      tag_175\n      jump\t// in\n    tag_248:\n      pop\n        /* \"contracts/LunchVenue_updated.sol\":5537:5563  restaurantExists[nameHash] */\n      0x00\n      swap1\n      dup2\n      mstore\n        /* \"contracts/LunchVenue_updated.sol\":5537:5553  restaurantExists */\n      0x0c\n        /* \"contracts/LunchVenue_updated.sol\":5537:5563  restaurantExists[nameHash] */\n      0x20\n      mstore\n      0x40\n      swap1\n      keccak256\n        /* \"contracts/LunchVenue_updated.sol\":5537:5570  restaurantExists[nameHash] = true */\n      dup1\n      sload\n      not(0xff)\n      and\n        /* \"contracts/LunchVenue_updated.sol\":5566:5570  true */\n      0x01\n        /* \"contracts/LunchVenue_updated.sol\":5537:5570  restaurantExists[nameHash] = true */\n      or\n      swap1\n      sstore\n        /* \"contracts/LunchVenue_updated.sol\":5587:5601  numRestaurants */\n      sload(0x02)\n      swap2\n      pop\n        /* \"contracts/LunchVenue_updated.sol\":12512:12513  _ */\n      pop\n        /* \"contracts/LunchVenue_updated.sol\":5113:5608  function _addRestaurant(string memory name) public contractActive onlyDuring(Phase.Setup) returns (uint) {... */\n      swap2\n      swap1\n      pop\n      jump\t// out\n        /* \"contracts/LunchVenue_updated.sol\":10585:10682  function voteAs(uint restaurant) public returns (bool) {... */\n    tag_85:\n        /* \"contracts/LunchVenue_updated.sol\":10634:10638  bool */\n      0x00\n        /* \"contracts/LunchVenue_updated.sol\":10657:10675  doVote(restaurant) */\n      tag_250\n        /* \"contracts/LunchVenue_updated.sol\":10664:10674  restaurant */\n      dup3\n        /* \"contracts/LunchVenue_updated.sol\":10657:10663  doVote */\n      tag_38\n        /* \"contracts/LunchVenue_updated.sol\":10657:10675  doVote(restaurant) */\n      jump\t// in\n    tag_250:\n        /* \"contracts/LunchVenue_updated.sol\":10650:10675  return doVote(restaurant) */\n      swap3\n        /* \"contracts/LunchVenue_updated.sol\":10585:10682  function voteAs(uint restaurant) public returns (bool) {... */\n      swap2\n      pop\n      pop\n      jump\t// out\n        /* \"contracts/LunchVenue_updated.sol\":3206:3249  mapping (uint => string) public restaurants */\n    tag_92:\n      0x00\n      0x20\n      dup2\n      swap1\n      mstore\n      swap1\n      dup2\n      mstore\n      0x40\n      swap1\n      keccak256\n      dup1\n      sload\n      tag_251\n      swap1\n      tag_127\n      jump\t// in\n    tag_251:\n      dup1\n      0x1f\n      add\n      0x20\n      dup1\n      swap2\n      div\n      mul\n      0x20\n      add\n      mload(0x40)\n      swap1\n      dup2\n      add\n      0x40\n      mstore\n      dup1\n      swap3\n      swap2\n      swap1\n      dup2\n      dup2\n      mstore\n      0x20\n      add\n      dup3\n      dup1\n      sload\n      tag_252\n      swap1\n      tag_127\n      jump\t// in\n    tag_252:\n      dup1\n      iszero\n      tag_253\n      jumpi\n      dup1\n      0x1f\n      lt\n      tag_254\n      jumpi\n      0x0100\n      dup1\n      dup4\n      sload\n      div\n      mul\n      dup4\n      mstore\n      swap2\n      0x20\n      add\n      swap2\n      jump(tag_253)\n    tag_254:\n      dup3\n      add\n      swap2\n      swap1\n      0x00\n      mstore\n      keccak256(0x00, 0x20)\n      swap1\n    tag_255:\n      dup2\n      sload\n      dup2\n      mstore\n      swap1\n      0x01\n      add\n      swap1\n      0x20\n      add\n      dup1\n      dup4\n      gt\n      tag_255\n      jumpi\n      dup3\n      swap1\n      sub\n      0x1f\n      and\n      dup3\n      add\n      swap2\n    tag_253:\n      pop\n      pop\n      pop\n      pop\n      pop\n      dup2\n      jump\t// out\n        /* \"contracts/LunchVenue_updated.sol\":3428:3462  string public votedRestaurant = \"\" */\n    tag_102:\n      0x06\n      dup1\n      sload\n      tag_251\n      swap1\n      tag_127\n      jump\t// in\n        /* \"contracts/LunchVenue_updated.sol\":8629:8880  function endVoting() public contractActive restricted {... */\n    tag_105:\n        /* \"contracts/LunchVenue_updated.sol\":12465:12475  isShutdown */\n      and(0xff, sload(0x0b))\n        /* \"contracts/LunchVenue_updated.sol\":12464:12475  !isShutdown */\n      iszero\n        /* \"contracts/LunchVenue_updated.sol\":12456:12502  require(!isShutdown, \"Contract is shut down.\") */\n      tag_262\n      jumpi\n      mload(0x40)\n      shl(0xe5, 0x461bcd)\n      dup2\n      mstore\n      0x04\n      add\n      tag_110\n      swap1\n      tag_111\n      jump\t// in\n    tag_262:\n        /* \"contracts/LunchVenue_updated.sol\":11893:11900  manager */\n      and(sub(shl(0xa0, 0x01), 0x01), sload(0x05))\n        /* \"contracts/LunchVenue_updated.sol\":11879:11889  msg.sender */\n      caller\n        /* \"contracts/LunchVenue_updated.sol\":11879:11900  msg.sender == manager */\n      eq\n        /* \"contracts/LunchVenue_updated.sol\":11870:11940  require (msg.sender == manager, \"Can only be executed by the manager\") */\n      tag_265\n      jumpi\n      mload(0x40)\n      shl(0xe5, 0x461bcd)\n      dup2\n      mstore\n      0x04\n      add\n      tag_110\n      swap1\n      tag_183\n      jump\t// in\n    tag_265:\n        /* \"contracts/LunchVenue_updated.sol\":8759:8771  Phase.Voting */\n      0x01\n        /* \"contracts/LunchVenue_updated.sol\":8743:8755  currentPhase */\n      sload(0x09)\n      0x0100\n      swap1\n      div\n      0xff\n      and\n        /* \"contracts/LunchVenue_updated.sol\":8743:8771  currentPhase == Phase.Voting */\n      0x02\n      dup2\n      gt\n      iszero\n      tag_271\n      jumpi\n      tag_271\n      tag_115\n      jump\t// in\n    tag_271:\n      eq\n        /* \"contracts/LunchVenue_updated.sol\":8735:8796  require(currentPhase == Phase.Voting, \"Not in voting phase.\") */\n      tag_272\n      jumpi\n      mload(0x40)\n      shl(0xe5, 0x461bcd)\n      dup2\n      mstore\n        /* \"#utility.yul\":8456:8458   */\n      0x20\n        /* \"contracts/LunchVenue_updated.sol\":8735:8796  require(currentPhase == Phase.Voting, \"Not in voting phase.\") */\n      0x04\n      dup3\n      add\n        /* \"#utility.yul\":8438:8459   */\n      mstore\n        /* \"#utility.yul\":8495:8497   */\n      0x14\n        /* \"#utility.yul\":8475:8493   */\n      0x24\n      dup3\n      add\n        /* \"#utility.yul\":8468:8498   */\n      mstore\n      shl(0x61, 0x2737ba1034b7103b37ba34b73390383430b9b297)\n        /* \"#utility.yul\":8514:8532   */\n      0x44\n      dup3\n      add\n        /* \"#utility.yul\":8507:8557   */\n      mstore\n        /* \"#utility.yul\":8574:8592   */\n      0x64\n      add\n        /* \"contracts/LunchVenue_updated.sol\":8735:8796  require(currentPhase == Phase.Voting, \"Not in voting phase.\") */\n      tag_110\n        /* \"#utility.yul\":8428:8598   */\n      jump\n        /* \"contracts/LunchVenue_updated.sol\":8735:8796  require(currentPhase == Phase.Voting, \"Not in voting phase.\") */\n    tag_272:\n        /* \"contracts/LunchVenue_updated.sol\":8861:8873  _endVoting() */\n      tag_275\n        /* \"contracts/LunchVenue_updated.sol\":8861:8871  _endVoting */\n      tag_133\n        /* \"contracts/LunchVenue_updated.sol\":8861:8873  _endVoting() */\n      jump\t// in\n    tag_275:\n        /* \"contracts/LunchVenue_updated.sol\":8629:8880  function endVoting() public contractActive restricted {... */\n      jump\t// out\n        /* \"contracts/LunchVenue_updated.sol\":11576:11772  function shutdown() public restricted {... */\n    tag_107:\n        /* \"contracts/LunchVenue_updated.sol\":11893:11900  manager */\n      and(sub(shl(0xa0, 0x01), 0x01), sload(0x05))\n        /* \"contracts/LunchVenue_updated.sol\":11879:11889  msg.sender */\n      caller\n        /* \"contracts/LunchVenue_updated.sol\":11879:11900  msg.sender == manager */\n      eq\n        /* \"contracts/LunchVenue_updated.sol\":11870:11940  require (msg.sender == manager, \"Can only be executed by the manager\") */\n      tag_277\n      jumpi\n      mload(0x40)\n      shl(0xe5, 0x461bcd)\n      dup2\n      mstore\n      0x04\n      add\n      tag_110\n      swap1\n      tag_183\n      jump\t// in\n    tag_277:\n        /* \"contracts/LunchVenue_updated.sol\":11686:11696  isShutdown */\n      0x0b\n        /* \"contracts/LunchVenue_updated.sol\":11686:11703  isShutdown = true */\n      dup1\n      sload\n      not(0xff)\n      swap1\n      dup2\n      and\n        /* \"contracts/LunchVenue_updated.sol\":11699:11703  true */\n      0x01\n        /* \"contracts/LunchVenue_updated.sol\":11686:11703  isShutdown = true */\n      or\n      swap1\n      swap2\n      sstore\n        /* \"contracts/LunchVenue_updated.sol\":11713:11721  voteOpen */\n      0x09\n        /* \"contracts/LunchVenue_updated.sol\":11713:11729  voteOpen = false */\n      dup1\n      sload\n      swap2\n      dup3\n      and\n      dup2\n      sstore\n      0x02\n      swap2\n      not(0xffff)\n        /* \"contracts/LunchVenue_updated.sol\":11739:11765  currentPhase = Phase.Ended */\n      and\n        /* \"contracts/LunchVenue_updated.sol\":11686:11703  isShutdown = true */\n      0x0100\n      dup4\n        /* \"contracts/LunchVenue_updated.sol\":11739:11765  currentPhase = Phase.Ended */\n    tag_281:\n      mul\n      or\n      swap1\n      sstore\n      pop\n        /* \"contracts/LunchVenue_updated.sol\":11576:11772  function shutdown() public restricted {... */\n      jump\t// out\n        /* \"contracts/LunchVenue_updated.sol\":8228:8465  function _endVoting() internal {... */\n    tag_133:\n        /* \"contracts/LunchVenue_updated.sol\":8302:8310  numVotes */\n      sload(0x04)\n        /* \"contracts/LunchVenue_updated.sol\":8302:8314  numVotes > 0 */\n      iszero\n        /* \"contracts/LunchVenue_updated.sol\":8298:8354  if (numVotes > 0) {... */\n      tag_284\n      jumpi\n        /* \"contracts/LunchVenue_updated.sol\":8330:8343  finalResult() */\n      tag_284\n        /* \"contracts/LunchVenue_updated.sol\":8330:8341  finalResult */\n      tag_285\n        /* \"contracts/LunchVenue_updated.sol\":8330:8343  finalResult() */\n      jump\t// in\n    tag_284:\n        /* \"contracts/LunchVenue_updated.sol\":8397:8405  voteOpen */\n      0x09\n        /* \"contracts/LunchVenue_updated.sol\":8397:8413  voteOpen = false */\n      dup1\n      sload\n      not(0xff)\n      dup2\n      and\n      dup3\n      sstore\n        /* \"contracts/LunchVenue_updated.sol\":8438:8449  Phase.Ended */\n      0x02\n      swap2\n        /* \"contracts/LunchVenue_updated.sol\":8397:8405  voteOpen */\n      swap1\n      not(0xffff)\n        /* \"contracts/LunchVenue_updated.sol\":8423:8449  currentPhase = Phase.Ended */\n      and\n        /* \"contracts/LunchVenue_updated.sol\":8397:8413  voteOpen = false */\n      0x0100\n        /* \"contracts/LunchVenue_updated.sol\":8438:8449  Phase.Ended */\n      dup4\n        /* \"contracts/LunchVenue_updated.sol\":8423:8449  currentPhase = Phase.Ended */\n      jump(tag_281)\n        /* \"contracts/LunchVenue_updated.sol\":10836:11441  function finalResult() private{... */\n    tag_285:\n        /* \"contracts/LunchVenue_updated.sol\":10876:10893  uint highestVotes */\n      0x00\n      dup1\n        /* \"contracts/LunchVenue_updated.sol\":10966:10967  1 */\n      0x01\n        /* \"contracts/LunchVenue_updated.sol\":10952:11377  for (uint i = 1; i <= numVotes; i++){... */\n    tag_289:\n        /* \"contracts/LunchVenue_updated.sol\":10974:10982  numVotes */\n      sload(0x04)\n        /* \"contracts/LunchVenue_updated.sol\":10969:10970  i */\n      dup2\n        /* \"contracts/LunchVenue_updated.sol\":10969:10982  i <= numVotes */\n      gt\n        /* \"contracts/LunchVenue_updated.sol\":10952:11377  for (uint i = 1; i <= numVotes; i++){... */\n      tag_290\n      jumpi\n        /* \"contracts/LunchVenue_updated.sol\":11002:11016  uint voteCount */\n      0x00\n        /* \"contracts/LunchVenue_updated.sol\":11046:11054  votes[i] */\n      dup2\n      dup2\n      mstore\n        /* \"contracts/LunchVenue_updated.sol\":11046:11051  votes */\n      0x07\n        /* \"contracts/LunchVenue_updated.sol\":11046:11054  votes[i] */\n      0x20\n      swap1\n      dup2\n      mstore\n      0x40\n      dup1\n      dup4\n      keccak256\n        /* \"contracts/LunchVenue_updated.sol\":11019:11020  1 */\n      0x01\n        /* \"contracts/LunchVenue_updated.sol\":11046:11065  votes[i].restaurant */\n      swap1\n      dup2\n      add\n      sload\n        /* \"contracts/LunchVenue_updated.sol\":11037:11066  _results[votes[i].restaurant] */\n      dup5\n      mstore\n        /* \"contracts/LunchVenue_updated.sol\":11037:11045  _results */\n      0x08\n        /* \"contracts/LunchVenue_updated.sol\":11037:11066  _results[votes[i].restaurant] */\n      swap1\n      swap3\n      mstore\n      swap1\n      swap2\n      keccak256\n      sload\n        /* \"contracts/LunchVenue_updated.sol\":11037:11070  _results[votes[i].restaurant] > 0 */\n      iszero\n        /* \"contracts/LunchVenue_updated.sol\":11034:11147  if(_results[votes[i].restaurant] > 0) {... */\n      tag_292\n      jumpi\n        /* \"contracts/LunchVenue_updated.sol\":11103:11132  _results[votes[i].restaurant] */\n      0x00\n        /* \"contracts/LunchVenue_updated.sol\":11112:11120  votes[i] */\n      dup3\n      dup2\n      mstore\n        /* \"contracts/LunchVenue_updated.sol\":11112:11117  votes */\n      0x07\n        /* \"contracts/LunchVenue_updated.sol\":11112:11120  votes[i] */\n      0x20\n      swap1\n      dup2\n      mstore\n      0x40\n      dup1\n      dup4\n      keccak256\n        /* \"contracts/LunchVenue_updated.sol\":11112:11131  votes[i].restaurant */\n      0x01\n      add\n      sload\n        /* \"contracts/LunchVenue_updated.sol\":11103:11132  _results[votes[i].restaurant] */\n      dup4\n      mstore\n        /* \"contracts/LunchVenue_updated.sol\":11103:11111  _results */\n      0x08\n        /* \"contracts/LunchVenue_updated.sol\":11103:11132  _results[votes[i].restaurant] */\n      swap1\n      swap2\n      mstore\n      swap1\n      keccak256\n      sload\n        /* \"contracts/LunchVenue_updated.sol\":11090:11132  voteCount += _results[votes[i].restaurant] */\n      tag_293\n      swap1\n      dup3\n      tag_146\n      jump\t// in\n    tag_293:\n      swap1\n      pop\n        /* \"contracts/LunchVenue_updated.sol\":11034:11147  if(_results[votes[i].restaurant] > 0) {... */\n    tag_292:\n        /* \"contracts/LunchVenue_updated.sol\":11160:11189  _results[votes[i].restaurant] */\n      0x00\n        /* \"contracts/LunchVenue_updated.sol\":11169:11177  votes[i] */\n      dup3\n      dup2\n      mstore\n        /* \"contracts/LunchVenue_updated.sol\":11169:11174  votes */\n      0x07\n        /* \"contracts/LunchVenue_updated.sol\":11169:11177  votes[i] */\n      0x20\n      swap1\n      dup2\n      mstore\n      0x40\n      dup1\n      dup4\n      keccak256\n        /* \"contracts/LunchVenue_updated.sol\":11169:11188  votes[i].restaurant */\n      0x01\n      add\n      sload\n        /* \"contracts/LunchVenue_updated.sol\":11160:11189  _results[votes[i].restaurant] */\n      dup4\n      mstore\n        /* \"contracts/LunchVenue_updated.sol\":11160:11168  _results */\n      0x08\n        /* \"contracts/LunchVenue_updated.sol\":11160:11189  _results[votes[i].restaurant] */\n      swap1\n      swap2\n      mstore\n      swap1\n      keccak256\n        /* \"contracts/LunchVenue_updated.sol\":11160:11201  _results[votes[i].restaurant] = voteCount */\n      dup2\n      swap1\n      sstore\n        /* \"contracts/LunchVenue_updated.sol\":11228:11252  voteCount > highestVotes */\n      dup4\n      dup2\n      gt\n        /* \"contracts/LunchVenue_updated.sol\":11224:11367  if (voteCount > highestVotes){... */\n      iszero\n      tag_294\n      jumpi\n        /* \"contracts/LunchVenue_updated.sol\":11333:11341  votes[i] */\n      0x00\n      dup3\n      dup2\n      mstore\n        /* \"contracts/LunchVenue_updated.sol\":11333:11338  votes */\n      0x07\n        /* \"contracts/LunchVenue_updated.sol\":11333:11341  votes[i] */\n      0x20\n      mstore\n      0x40\n      swap1\n      keccak256\n        /* \"contracts/LunchVenue_updated.sol\":11333:11352  votes[i].restaurant */\n      0x01\n      add\n      sload\n        /* \"contracts/LunchVenue_updated.sol\":11286:11295  voteCount */\n      swap1\n      swap4\n      pop\n        /* \"contracts/LunchVenue_updated.sol\":11333:11352  votes[i].restaurant */\n      swap2\n      pop\n        /* \"contracts/LunchVenue_updated.sol\":11286:11295  voteCount */\n      dup3\n        /* \"contracts/LunchVenue_updated.sol\":11224:11367  if (voteCount > highestVotes){... */\n    tag_294:\n      pop\n        /* \"contracts/LunchVenue_updated.sol\":10984:10987  i++ */\n      dup1\n      tag_295\n      dup2\n      tag_142\n      jump\t// in\n    tag_295:\n      swap2\n      pop\n      pop\n        /* \"contracts/LunchVenue_updated.sol\":10952:11377  for (uint i = 1; i <= numVotes; i++){... */\n      jump(tag_289)\n    tag_290:\n      pop\n        /* \"contracts/LunchVenue_updated.sol\":11404:11415  restaurants */\n      0x00\n        /* \"contracts/LunchVenue_updated.sol\":11404:11434  restaurants[highestRestaurant] */\n      dup2\n      dup2\n      mstore\n      0x20\n      dup2\n      swap1\n      mstore\n      0x40\n      swap1\n      keccak256\n        /* \"contracts/LunchVenue_updated.sol\":11386:11434  votedRestaurant = restaurants[highestRestaurant] */\n      dup1\n      sload\n        /* \"contracts/LunchVenue_updated.sol\":11386:11401  votedRestaurant */\n      0x06\n      swap2\n        /* \"contracts/LunchVenue_updated.sol\":11404:11434  restaurants[highestRestaurant] */\n      swap1\n        /* \"contracts/LunchVenue_updated.sol\":11386:11434  votedRestaurant = restaurants[highestRestaurant] */\n      tag_296\n      swap1\n      tag_127\n      jump\t// in\n    tag_296:\n      tag_297\n      swap3\n      swap2\n      swap1\n      tag_298\n      jump\t// in\n    tag_297:\n      pop\n        /* \"contracts/LunchVenue_updated.sol\":10866:11441  {... */\n      pop\n      pop\n        /* \"contracts/LunchVenue_updated.sol\":10836:11441  function finalResult() private{... */\n      jump\t// out\n    tag_175:\n      dup3\n      dup1\n      sload\n      tag_299\n      swap1\n      tag_127\n      jump\t// in\n    tag_299:\n      swap1\n      0x00\n      mstore\n      keccak256(0x00, 0x20)\n      swap1\n      0x1f\n      add\n      0x20\n      swap1\n      div\n      dup2\n      add\n      swap3\n      dup3\n      tag_301\n      jumpi\n      0x00\n      dup6\n      sstore\n      jump(tag_304)\n    tag_301:\n      dup3\n      0x1f\n      lt\n      tag_302\n      jumpi\n      dup1\n      mload\n      not(0xff)\n      and\n      dup4\n      dup1\n      add\n      or\n      dup6\n      sstore\n      jump(tag_304)\n    tag_302:\n      dup3\n      dup1\n      add\n      0x01\n      add\n      dup6\n      sstore\n      dup3\n      iszero\n      tag_304\n      jumpi\n      swap2\n      dup3\n      add\n    tag_303:\n      dup3\n      dup2\n      gt\n      iszero\n      tag_304\n      jumpi\n      dup3\n      mload\n      dup3\n      sstore\n      swap2\n      0x20\n      add\n      swap2\n      swap1\n      0x01\n      add\n      swap1\n      jump(tag_303)\n    tag_304:\n      pop\n      tag_305\n      swap3\n      swap2\n      pop\n      tag_306\n      jump\t// in\n    tag_305:\n      pop\n      swap1\n      jump\t// out\n    tag_298:\n      dup3\n      dup1\n      sload\n      tag_307\n      swap1\n      tag_127\n      jump\t// in\n    tag_307:\n      swap1\n      0x00\n      mstore\n      keccak256(0x00, 0x20)\n      swap1\n      0x1f\n      add\n      0x20\n      swap1\n      div\n      dup2\n      add\n      swap3\n      dup3\n      tag_309\n      jumpi\n      0x00\n      dup6\n      sstore\n      jump(tag_304)\n    tag_309:\n      dup3\n      0x1f\n      lt\n      tag_310\n      jumpi\n      dup1\n      sload\n      dup6\n      sstore\n      jump(tag_304)\n    tag_310:\n      dup3\n      dup1\n      add\n      0x01\n      add\n      dup6\n      sstore\n      dup3\n      iszero\n      tag_304\n      jumpi\n      0x00\n      mstore\n      keccak256(0x00, 0x20)\n      swap2\n      0x1f\n      add\n      0x20\n      swap1\n      div\n      dup3\n      add\n    tag_311:\n      dup3\n      dup2\n      gt\n      iszero\n      tag_304\n      jumpi\n      dup3\n      sload\n      dup3\n      sstore\n      swap2\n      0x01\n      add\n      swap2\n      swap1\n      0x01\n      add\n      swap1\n      jump(tag_311)\n    tag_306:\n    tag_314:\n      dup1\n      dup3\n      gt\n      iszero\n      tag_305\n      jumpi\n      0x00\n      dup2\n      sstore\n      0x01\n      add\n      jump(tag_314)\n        /* \"#utility.yul\":14:187   */\n    tag_317:\n        /* \"#utility.yul\":82:102   */\n      dup1\n      calldataload\n      sub(shl(0xa0, 0x01), 0x01)\n        /* \"#utility.yul\":131:162   */\n      dup2\n      and\n        /* \"#utility.yul\":121:163   */\n      dup2\n      eq\n        /* \"#utility.yul\":111:113   */\n      tag_319\n      jumpi\n        /* \"#utility.yul\":177:178   */\n      0x00\n        /* \"#utility.yul\":174:175   */\n      dup1\n        /* \"#utility.yul\":167:179   */\n      revert\n        /* \"#utility.yul\":111:113   */\n    tag_319:\n        /* \"#utility.yul\":63:187   */\n      swap2\n      swap1\n      pop\n      jump\t// out\n        /* \"#utility.yul\":192:911   */\n    tag_320:\n        /* \"#utility.yul\":235:240   */\n      0x00\n        /* \"#utility.yul\":288:291   */\n      dup3\n        /* \"#utility.yul\":281:285   */\n      0x1f\n        /* \"#utility.yul\":273:279   */\n      dup4\n        /* \"#utility.yul\":269:286   */\n      add\n        /* \"#utility.yul\":265:292   */\n      slt\n        /* \"#utility.yul\":255:257   */\n      tag_322\n      jumpi\n        /* \"#utility.yul\":306:307   */\n      0x00\n        /* \"#utility.yul\":303:304   */\n      dup1\n        /* \"#utility.yul\":296:308   */\n      revert\n        /* \"#utility.yul\":255:257   */\n    tag_322:\n        /* \"#utility.yul\":342:348   */\n      dup2\n        /* \"#utility.yul\":329:349   */\n      calldataload\n        /* \"#utility.yul\":368:386   */\n      0xffffffffffffffff\n        /* \"#utility.yul\":405:407   */\n      dup1\n        /* \"#utility.yul\":401:403   */\n      dup3\n        /* \"#utility.yul\":398:408   */\n      gt\n        /* \"#utility.yul\":395:397   */\n      iszero\n      tag_324\n      jumpi\n        /* \"#utility.yul\":411:429   */\n      tag_324\n      tag_325\n      jump\t// in\n    tag_324:\n        /* \"#utility.yul\":486:488   */\n      0x40\n        /* \"#utility.yul\":480:489   */\n      mload\n        /* \"#utility.yul\":454:456   */\n      0x1f\n        /* \"#utility.yul\":540:553   */\n      dup4\n      add\n      not(0x1f)\n        /* \"#utility.yul\":536:558   */\n      swap1\n      dup2\n      and\n        /* \"#utility.yul\":560:562   */\n      0x3f\n        /* \"#utility.yul\":532:563   */\n      add\n        /* \"#utility.yul\":528:568   */\n      and\n        /* \"#utility.yul\":516:569   */\n      dup2\n      add\n      swap1\n        /* \"#utility.yul\":584:602   */\n      dup3\n      dup3\n      gt\n        /* \"#utility.yul\":604:626   */\n      dup2\n      dup4\n      lt\n        /* \"#utility.yul\":581:627   */\n      or\n        /* \"#utility.yul\":578:580   */\n      iszero\n      tag_327\n      jumpi\n        /* \"#utility.yul\":630:648   */\n      tag_327\n      tag_325\n      jump\t// in\n    tag_327:\n        /* \"#utility.yul\":670:680   */\n      dup2\n        /* \"#utility.yul\":666:668   */\n      0x40\n        /* \"#utility.yul\":659:681   */\n      mstore\n        /* \"#utility.yul\":705:707   */\n      dup4\n        /* \"#utility.yul\":697:703   */\n      dup2\n        /* \"#utility.yul\":690:708   */\n      mstore\n        /* \"#utility.yul\":751:754   */\n      dup7\n        /* \"#utility.yul\":744:748   */\n      0x20\n        /* \"#utility.yul\":739:741   */\n      dup6\n        /* \"#utility.yul\":731:737   */\n      dup9\n        /* \"#utility.yul\":727:742   */\n      add\n        /* \"#utility.yul\":723:749   */\n      add\n        /* \"#utility.yul\":720:755   */\n      gt\n        /* \"#utility.yul\":717:719   */\n      iszero\n      tag_328\n      jumpi\n        /* \"#utility.yul\":768:769   */\n      0x00\n        /* \"#utility.yul\":765:766   */\n      dup1\n        /* \"#utility.yul\":758:770   */\n      revert\n        /* \"#utility.yul\":717:719   */\n    tag_328:\n        /* \"#utility.yul\":832:834   */\n      dup4\n        /* \"#utility.yul\":825:829   */\n      0x20\n        /* \"#utility.yul\":817:823   */\n      dup8\n        /* \"#utility.yul\":813:830   */\n      add\n        /* \"#utility.yul\":806:810   */\n      0x20\n        /* \"#utility.yul\":798:804   */\n      dup4\n        /* \"#utility.yul\":794:811   */\n      add\n        /* \"#utility.yul\":781:835   */\n      calldatacopy\n        /* \"#utility.yul\":879:880   */\n      0x00\n        /* \"#utility.yul\":872:876   */\n      0x20\n        /* \"#utility.yul\":867:869   */\n      dup6\n        /* \"#utility.yul\":859:865   */\n      dup4\n        /* \"#utility.yul\":855:870   */\n      add\n        /* \"#utility.yul\":851:877   */\n      add\n        /* \"#utility.yul\":844:881   */\n      mstore\n        /* \"#utility.yul\":899:905   */\n      dup1\n        /* \"#utility.yul\":890:905   */\n      swap5\n      pop\n      pop\n      pop\n      pop\n      pop\n        /* \"#utility.yul\":245:911   */\n      swap3\n      swap2\n      pop\n      pop\n      jump\t// out\n        /* \"#utility.yul\":916:1102   */\n    tag_43:\n        /* \"#utility.yul\":975:981   */\n      0x00\n        /* \"#utility.yul\":1028:1030   */\n      0x20\n        /* \"#utility.yul\":1016:1025   */\n      dup3\n        /* \"#utility.yul\":1007:1014   */\n      dup5\n        /* \"#utility.yul\":1003:1026   */\n      sub\n        /* \"#utility.yul\":999:1031   */\n      slt\n        /* \"#utility.yul\":996:998   */\n      iszero\n      tag_330\n      jumpi\n        /* \"#utility.yul\":1044:1045   */\n      0x00\n        /* \"#utility.yul\":1041:1042   */\n      dup1\n        /* \"#utility.yul\":1034:1046   */\n      revert\n        /* \"#utility.yul\":996:998   */\n    tag_330:\n        /* \"#utility.yul\":1067:1096   */\n      tag_230\n        /* \"#utility.yul\":1086:1095   */\n      dup3\n        /* \"#utility.yul\":1067:1096   */\n      tag_317\n      jump\t// in\n        /* \"#utility.yul\":1107:1503   */\n    tag_49:\n        /* \"#utility.yul\":1185:1191   */\n      0x00\n        /* \"#utility.yul\":1193:1199   */\n      dup1\n        /* \"#utility.yul\":1246:1248   */\n      0x40\n        /* \"#utility.yul\":1234:1243   */\n      dup4\n        /* \"#utility.yul\":1225:1232   */\n      dup6\n        /* \"#utility.yul\":1221:1244   */\n      sub\n        /* \"#utility.yul\":1217:1249   */\n      slt\n        /* \"#utility.yul\":1214:1216   */\n      iszero\n      tag_333\n      jumpi\n        /* \"#utility.yul\":1262:1263   */\n      0x00\n        /* \"#utility.yul\":1259:1260   */\n      dup1\n        /* \"#utility.yul\":1252:1264   */\n      revert\n        /* \"#utility.yul\":1214:1216   */\n    tag_333:\n        /* \"#utility.yul\":1285:1314   */\n      tag_334\n        /* \"#utility.yul\":1304:1313   */\n      dup4\n        /* \"#utility.yul\":1285:1314   */\n      tag_317\n      jump\t// in\n    tag_334:\n        /* \"#utility.yul\":1275:1314   */\n      swap2\n      pop\n        /* \"#utility.yul\":1365:1367   */\n      0x20\n        /* \"#utility.yul\":1354:1363   */\n      dup4\n        /* \"#utility.yul\":1350:1368   */\n      add\n        /* \"#utility.yul\":1337:1369   */\n      calldataload\n        /* \"#utility.yul\":1392:1410   */\n      0xffffffffffffffff\n        /* \"#utility.yul\":1384:1390   */\n      dup2\n        /* \"#utility.yul\":1381:1411   */\n      gt\n        /* \"#utility.yul\":1378:1380   */\n      iszero\n      tag_335\n      jumpi\n        /* \"#utility.yul\":1424:1425   */\n      0x00\n        /* \"#utility.yul\":1421:1422   */\n      dup1\n        /* \"#utility.yul\":1414:1426   */\n      revert\n        /* \"#utility.yul\":1378:1380   */\n    tag_335:\n        /* \"#utility.yul\":1447:1497   */\n      tag_336\n        /* \"#utility.yul\":1489:1496   */\n      dup6\n        /* \"#utility.yul\":1480:1486   */\n      dup3\n        /* \"#utility.yul\":1469:1478   */\n      dup7\n        /* \"#utility.yul\":1465:1487   */\n      add\n        /* \"#utility.yul\":1447:1497   */\n      tag_320\n      jump\t// in\n    tag_336:\n        /* \"#utility.yul\":1437:1497   */\n      swap2\n      pop\n      pop\n        /* \"#utility.yul\":1204:1503   */\n      swap3\n      pop\n      swap3\n      swap1\n      pop\n      jump\t// out\n        /* \"#utility.yul\":1508:1830   */\n    tag_73:\n        /* \"#utility.yul\":1577:1583   */\n      0x00\n        /* \"#utility.yul\":1630:1632   */\n      0x20\n        /* \"#utility.yul\":1618:1627   */\n      dup3\n        /* \"#utility.yul\":1609:1616   */\n      dup5\n        /* \"#utility.yul\":1605:1628   */\n      sub\n        /* \"#utility.yul\":1601:1633   */\n      slt\n        /* \"#utility.yul\":1598:1600   */\n      iszero\n      tag_338\n      jumpi\n        /* \"#utility.yul\":1646:1647   */\n      0x00\n        /* \"#utility.yul\":1643:1644   */\n      dup1\n        /* \"#utility.yul\":1636:1648   */\n      revert\n        /* \"#utility.yul\":1598:1600   */\n    tag_338:\n        /* \"#utility.yul\":1686:1695   */\n      dup2\n        /* \"#utility.yul\":1673:1696   */\n      calldataload\n        /* \"#utility.yul\":1719:1737   */\n      0xffffffffffffffff\n        /* \"#utility.yul\":1711:1717   */\n      dup2\n        /* \"#utility.yul\":1708:1738   */\n      gt\n        /* \"#utility.yul\":1705:1707   */\n      iszero\n      tag_339\n      jumpi\n        /* \"#utility.yul\":1751:1752   */\n      0x00\n        /* \"#utility.yul\":1748:1749   */\n      dup1\n        /* \"#utility.yul\":1741:1753   */\n      revert\n        /* \"#utility.yul\":1705:1707   */\n    tag_339:\n        /* \"#utility.yul\":1774:1824   */\n      tag_192\n        /* \"#utility.yul\":1816:1823   */\n      dup5\n        /* \"#utility.yul\":1807:1813   */\n      dup3\n        /* \"#utility.yul\":1796:1805   */\n      dup6\n        /* \"#utility.yul\":1792:1814   */\n      add\n        /* \"#utility.yul\":1774:1824   */\n      tag_320\n      jump\t// in\n        /* \"#utility.yul\":1835:2015   */\n    tag_37:\n        /* \"#utility.yul\":1894:1900   */\n      0x00\n        /* \"#utility.yul\":1947:1949   */\n      0x20\n        /* \"#utility.yul\":1935:1944   */\n      dup3\n        /* \"#utility.yul\":1926:1933   */\n      dup5\n        /* \"#utility.yul\":1922:1945   */\n      sub\n        /* \"#utility.yul\":1918:1950   */\n      slt\n        /* \"#utility.yul\":1915:1917   */\n      iszero\n      tag_342\n      jumpi\n        /* \"#utility.yul\":1963:1964   */\n      0x00\n        /* \"#utility.yul\":1960:1961   */\n      dup1\n        /* \"#utility.yul\":1953:1965   */\n      revert\n        /* \"#utility.yul\":1915:1917   */\n    tag_342:\n      pop\n        /* \"#utility.yul\":1986:2009   */\n      calldataload\n      swap2\n        /* \"#utility.yul\":1905:2015   */\n      swap1\n      pop\n      jump\t// out\n        /* \"#utility.yul\":2020:2278   */\n    tag_343:\n        /* \"#utility.yul\":2062:2065   */\n      0x00\n        /* \"#utility.yul\":2100:2105   */\n      dup2\n        /* \"#utility.yul\":2094:2106   */\n      mload\n        /* \"#utility.yul\":2127:2133   */\n      dup1\n        /* \"#utility.yul\":2122:2125   */\n      dup5\n        /* \"#utility.yul\":2115:2134   */\n      mstore\n        /* \"#utility.yul\":2143:2206   */\n      tag_345\n        /* \"#utility.yul\":2199:2205   */\n      dup2\n        /* \"#utility.yul\":2192:2196   */\n      0x20\n        /* \"#utility.yul\":2187:2190   */\n      dup7\n        /* \"#utility.yul\":2183:2197   */\n      add\n        /* \"#utility.yul\":2176:2180   */\n      0x20\n        /* \"#utility.yul\":2169:2174   */\n      dup7\n        /* \"#utility.yul\":2165:2181   */\n      add\n        /* \"#utility.yul\":2143:2206   */\n      tag_346\n      jump\t// in\n    tag_345:\n        /* \"#utility.yul\":2260:2262   */\n      0x1f\n        /* \"#utility.yul\":2239:2254   */\n      add\n      not(0x1f)\n        /* \"#utility.yul\":2235:2264   */\n      and\n        /* \"#utility.yul\":2226:2265   */\n      swap3\n      swap1\n      swap3\n      add\n        /* \"#utility.yul\":2267:2271   */\n      0x20\n        /* \"#utility.yul\":2222:2272   */\n      add\n      swap3\n        /* \"#utility.yul\":2070:2278   */\n      swap2\n      pop\n      pop\n      jump\t// out\n        /* \"#utility.yul\":2283:2559   */\n    tag_243:\n        /* \"#utility.yul\":2414:2417   */\n      0x00\n        /* \"#utility.yul\":2452:2458   */\n      dup3\n        /* \"#utility.yul\":2446:2459   */\n      mload\n        /* \"#utility.yul\":2468:2521   */\n      tag_348\n        /* \"#utility.yul\":2514:2520   */\n      dup2\n        /* \"#utility.yul\":2509:2512   */\n      dup5\n        /* \"#utility.yul\":2502:2506   */\n      0x20\n        /* \"#utility.yul\":2494:2500   */\n      dup8\n        /* \"#utility.yul\":2490:2507   */\n      add\n        /* \"#utility.yul\":2468:2521   */\n      tag_346\n      jump\t// in\n    tag_348:\n        /* \"#utility.yul\":2537:2553   */\n      swap2\n      swap1\n      swap2\n      add\n      swap3\n        /* \"#utility.yul\":2422:2559   */\n      swap2\n      pop\n      pop\n      jump\t// out\n        /* \"#utility.yul\":3243:3579   */\n    tag_30:\n        /* \"#utility.yul\":3383:3385   */\n      0x20\n        /* \"#utility.yul\":3368:3386   */\n      dup2\n      add\n        /* \"#utility.yul\":3416:3417   */\n      0x03\n        /* \"#utility.yul\":3405:3418   */\n      dup4\n      lt\n        /* \"#utility.yul\":3395:3397   */\n      tag_353\n      jumpi\n        /* \"#utility.yul\":3461:3471   */\n      0x4e487b71\n        /* \"#utility.yul\":3456:3459   */\n      0xe0\n        /* \"#utility.yul\":3452:3472   */\n      shl\n        /* \"#utility.yul\":3449:3450   */\n      0x00\n        /* \"#utility.yul\":3442:3473   */\n      mstore\n        /* \"#utility.yul\":3496:3500   */\n      0x21\n        /* \"#utility.yul\":3493:3494   */\n      0x04\n        /* \"#utility.yul\":3486:3501   */\n      mstore\n        /* \"#utility.yul\":3524:3528   */\n      0x24\n        /* \"#utility.yul\":3521:3522   */\n      0x00\n        /* \"#utility.yul\":3514:3529   */\n      revert\n        /* \"#utility.yul\":3395:3397   */\n    tag_353:\n        /* \"#utility.yul\":3548:3573   */\n      swap2\n      swap1\n      mstore\n        /* \"#utility.yul\":3350:3579   */\n      swap1\n      jump\t// out\n        /* \"#utility.yul\":3584:3804   */\n    tag_94:\n        /* \"#utility.yul\":3733:3735   */\n      0x20\n        /* \"#utility.yul\":3722:3731   */\n      dup2\n        /* \"#utility.yul\":3715:3736   */\n      mstore\n        /* \"#utility.yul\":3696:3700   */\n      0x00\n        /* \"#utility.yul\":3753:3798   */\n      tag_230\n        /* \"#utility.yul\":3794:3796   */\n      0x20\n        /* \"#utility.yul\":3783:3792   */\n      dup4\n        /* \"#utility.yul\":3779:3797   */\n      add\n        /* \"#utility.yul\":3771:3777   */\n      dup5\n        /* \"#utility.yul\":3753:3798   */\n      tag_343\n      jump\t// in\n        /* \"#utility.yul\":3809:4110   */\n    tag_46:\n        /* \"#utility.yul\":3980:3982   */\n      0x40\n        /* \"#utility.yul\":3969:3978   */\n      dup2\n        /* \"#utility.yul\":3962:3983   */\n      mstore\n        /* \"#utility.yul\":3943:3947   */\n      0x00\n        /* \"#utility.yul\":4000:4045   */\n      tag_357\n        /* \"#utility.yul\":4041:4043   */\n      0x40\n        /* \"#utility.yul\":4030:4039   */\n      dup4\n        /* \"#utility.yul\":4026:4044   */\n      add\n        /* \"#utility.yul\":4018:4024   */\n      dup6\n        /* \"#utility.yul\":4000:4045   */\n      tag_343\n      jump\t// in\n    tag_357:\n        /* \"#utility.yul\":3992:4045   */\n      swap1\n      pop\n        /* \"#utility.yul\":4095:4101   */\n      dup3\n        /* \"#utility.yul\":4088:4102   */\n      iszero\n        /* \"#utility.yul\":4081:4103   */\n      iszero\n        /* \"#utility.yul\":4076:4078   */\n      0x20\n        /* \"#utility.yul\":4065:4074   */\n      dup4\n        /* \"#utility.yul\":4061:4079   */\n      add\n        /* \"#utility.yul\":4054:4104   */\n      mstore\n        /* \"#utility.yul\":3952:4110   */\n      swap4\n      swap3\n      pop\n      pop\n      pop\n      jump\t// out\n        /* \"#utility.yul\":5581:5927   */\n    tag_111:\n        /* \"#utility.yul\":5783:5785   */\n      0x20\n        /* \"#utility.yul\":5765:5786   */\n      dup1\n      dup3\n      mstore\n        /* \"#utility.yul\":5822:5824   */\n      0x16\n        /* \"#utility.yul\":5802:5820   */\n      swap1\n      dup3\n      add\n        /* \"#utility.yul\":5795:5825   */\n      mstore\n      shl(0x51, 0x21b7b73a3930b1ba1034b99039b43aba103237bbb717)\n        /* \"#utility.yul\":5856:5858   */\n      0x40\n        /* \"#utility.yul\":5841:5859   */\n      dup3\n      add\n        /* \"#utility.yul\":5834:5886   */\n      mstore\n        /* \"#utility.yul\":5918:5920   */\n      0x60\n        /* \"#utility.yul\":5903:5921   */\n      add\n      swap1\n        /* \"#utility.yul\":5755:5927   */\n      jump\t// out\n        /* \"#utility.yul\":5932:6331   */\n    tag_183:\n        /* \"#utility.yul\":6134:6136   */\n      0x20\n        /* \"#utility.yul\":6116:6137   */\n      dup1\n      dup3\n      mstore\n        /* \"#utility.yul\":6173:6175   */\n      0x23\n        /* \"#utility.yul\":6153:6171   */\n      swap1\n      dup3\n      add\n        /* \"#utility.yul\":6146:6176   */\n      mstore\n        /* \"#utility.yul\":6212:6246   */\n      0x43616e206f6e6c7920626520657865637574656420627920746865206d616e61\n        /* \"#utility.yul\":6207:6209   */\n      0x40\n        /* \"#utility.yul\":6192:6210   */\n      dup3\n      add\n        /* \"#utility.yul\":6185:6247   */\n      mstore\n      shl(0xe9, 0x33b2b9)\n        /* \"#utility.yul\":6278:6280   */\n      0x60\n        /* \"#utility.yul\":6263:6281   */\n      dup3\n      add\n        /* \"#utility.yul\":6256:6289   */\n      mstore\n        /* \"#utility.yul\":6321:6324   */\n      0x80\n        /* \"#utility.yul\":6306:6325   */\n      add\n      swap1\n        /* \"#utility.yul\":6106:6331   */\n      jump\t// out\n        /* \"#utility.yul\":6740:7140   */\n    tag_120:\n        /* \"#utility.yul\":6942:6944   */\n      0x20\n        /* \"#utility.yul\":6924:6945   */\n      dup1\n      dup3\n      mstore\n        /* \"#utility.yul\":6981:6983   */\n      0x24\n        /* \"#utility.yul\":6961:6979   */\n      swap1\n      dup3\n      add\n        /* \"#utility.yul\":6954:6984   */\n      mstore\n        /* \"#utility.yul\":7020:7054   */\n      0x416374696f6e206e6f7420616c6c6f77656420696e2063757272656e74207068\n        /* \"#utility.yul\":7015:7017   */\n      0x40\n        /* \"#utility.yul\":7000:7018   */\n      dup3\n      add\n        /* \"#utility.yul\":6993:7055   */\n      mstore\n      shl(0xe1, 0x30b9b297)\n        /* \"#utility.yul\":7086:7088   */\n      0x60\n        /* \"#utility.yul\":7071:7089   */\n      dup3\n      add\n        /* \"#utility.yul\":7064:7098   */\n      mstore\n        /* \"#utility.yul\":7130:7133   */\n      0x80\n        /* \"#utility.yul\":7115:7134   */\n      add\n      swap1\n        /* \"#utility.yul\":6914:7140   */\n      jump\t// out\n        /* \"#utility.yul\":9146:9274   */\n    tag_146:\n        /* \"#utility.yul\":9186:9189   */\n      0x00\n        /* \"#utility.yul\":9217:9218   */\n      dup3\n        /* \"#utility.yul\":9213:9219   */\n      not\n        /* \"#utility.yul\":9210:9211   */\n      dup3\n        /* \"#utility.yul\":9207:9220   */\n      gt\n        /* \"#utility.yul\":9204:9206   */\n      iszero\n      tag_374\n      jumpi\n        /* \"#utility.yul\":9223:9241   */\n      tag_374\n      tag_375\n      jump\t// in\n    tag_374:\n      pop\n        /* \"#utility.yul\":9259:9268   */\n      add\n      swap1\n        /* \"#utility.yul\":9194:9274   */\n      jump\t// out\n        /* \"#utility.yul\":9279:9496   */\n    tag_144:\n        /* \"#utility.yul\":9319:9320   */\n      0x00\n        /* \"#utility.yul\":9345:9346   */\n      dup3\n        /* \"#utility.yul\":9335:9337   */\n      tag_377\n      jumpi\n        /* \"#utility.yul\":9389:9399   */\n      0x4e487b71\n        /* \"#utility.yul\":9384:9387   */\n      0xe0\n        /* \"#utility.yul\":9380:9400   */\n      shl\n        /* \"#utility.yul\":9377:9378   */\n      0x00\n        /* \"#utility.yul\":9370:9401   */\n      mstore\n        /* \"#utility.yul\":9424:9428   */\n      0x12\n        /* \"#utility.yul\":9421:9422   */\n      0x04\n        /* \"#utility.yul\":9414:9429   */\n      mstore\n        /* \"#utility.yul\":9452:9456   */\n      0x24\n        /* \"#utility.yul\":9449:9450   */\n      0x00\n        /* \"#utility.yul\":9442:9457   */\n      revert\n        /* \"#utility.yul\":9335:9337   */\n    tag_377:\n      pop\n        /* \"#utility.yul\":9481:9490   */\n      div\n      swap1\n        /* \"#utility.yul\":9325:9496   */\n      jump\t// out\n        /* \"#utility.yul\":9501:9759   */\n    tag_346:\n        /* \"#utility.yul\":9573:9574   */\n      0x00\n        /* \"#utility.yul\":9583:9696   */\n    tag_379:\n        /* \"#utility.yul\":9597:9603   */\n      dup4\n        /* \"#utility.yul\":9594:9595   */\n      dup2\n        /* \"#utility.yul\":9591:9604   */\n      lt\n        /* \"#utility.yul\":9583:9696   */\n      iszero\n      tag_381\n      jumpi\n        /* \"#utility.yul\":9673:9684   */\n      dup2\n      dup2\n      add\n        /* \"#utility.yul\":9667:9685   */\n      mload\n        /* \"#utility.yul\":9654:9665   */\n      dup4\n      dup3\n      add\n        /* \"#utility.yul\":9647:9686   */\n      mstore\n        /* \"#utility.yul\":9619:9621   */\n      0x20\n        /* \"#utility.yul\":9612:9622   */\n      add\n        /* \"#utility.yul\":9583:9696   */\n      jump(tag_379)\n    tag_381:\n        /* \"#utility.yul\":9714:9720   */\n      dup4\n        /* \"#utility.yul\":9711:9712   */\n      dup2\n        /* \"#utility.yul\":9708:9721   */\n      gt\n        /* \"#utility.yul\":9705:9707   */\n      iszero\n      tag_382\n      jumpi\n        /* \"#utility.yul\":9749:9750   */\n      0x00\n        /* \"#utility.yul\":9740:9746   */\n      dup5\n        /* \"#utility.yul\":9735:9738   */\n      dup5\n        /* \"#utility.yul\":9731:9747   */\n      add\n        /* \"#utility.yul\":9724:9751   */\n      mstore\n        /* \"#utility.yul\":9705:9707   */\n    tag_382:\n      pop\n        /* \"#utility.yul\":9554:9759   */\n      pop\n      pop\n      pop\n      jump\t// out\n        /* \"#utility.yul\":9764:10144   */\n    tag_127:\n        /* \"#utility.yul\":9843:9844   */\n      0x01\n        /* \"#utility.yul\":9839:9851   */\n      dup2\n      dup2\n      shr\n      swap1\n        /* \"#utility.yul\":9886:9898   */\n      dup3\n      and\n      dup1\n        /* \"#utility.yul\":9907:9909   */\n      tag_384\n      jumpi\n        /* \"#utility.yul\":9961:9965   */\n      0x7f\n        /* \"#utility.yul\":9953:9959   */\n      dup3\n        /* \"#utility.yul\":9949:9966   */\n      and\n        /* \"#utility.yul\":9939:9966   */\n      swap2\n      pop\n        /* \"#utility.yul\":9907:9909   */\n    tag_384:\n        /* \"#utility.yul\":10014:10016   */\n      0x20\n        /* \"#utility.yul\":10006:10012   */\n      dup3\n        /* \"#utility.yul\":10003:10017   */\n      lt\n        /* \"#utility.yul\":9983:10001   */\n      dup2\n        /* \"#utility.yul\":9980:10018   */\n      eq\n        /* \"#utility.yul\":9977:9979   */\n      iszero\n      tag_148\n      jumpi\n        /* \"#utility.yul\":10060:10070   */\n      0x4e487b71\n        /* \"#utility.yul\":10055:10058   */\n      0xe0\n        /* \"#utility.yul\":10051:10071   */\n      shl\n        /* \"#utility.yul\":10048:10049   */\n      0x00\n        /* \"#utility.yul\":10041:10072   */\n      mstore\n        /* \"#utility.yul\":10095:10099   */\n      0x22\n        /* \"#utility.yul\":10092:10093   */\n      0x04\n        /* \"#utility.yul\":10085:10100   */\n      mstore\n        /* \"#utility.yul\":10123:10127   */\n      0x24\n        /* \"#utility.yul\":10120:10121   */\n      0x00\n        /* \"#utility.yul\":10113:10128   */\n      revert\n        /* \"#utility.yul\":10149:10284   */\n    tag_142:\n        /* \"#utility.yul\":10188:10191   */\n      0x00\n      not(0x00)\n        /* \"#utility.yul\":10209:10226   */\n      dup3\n      eq\n        /* \"#utility.yul\":10206:10208   */\n      iszero\n      tag_388\n      jumpi\n        /* \"#utility.yul\":10229:10247   */\n      tag_388\n      tag_375\n      jump\t// in\n    tag_388:\n      pop\n        /* \"#utility.yul\":10276:10277   */\n      0x01\n        /* \"#utility.yul\":10265:10278   */\n      add\n      swap1\n        /* \"#utility.yul\":10196:10284   */\n      jump\t// out\n        /* \"#utility.yul\":10289:10416   */\n    tag_375:\n        /* \"#utility.yul\":10350:10360   */\n      0x4e487b71\n        /* \"#utility.yul\":10345:10348   */\n      0xe0\n        /* \"#utility.yul\":10341:10361   */\n      shl\n        /* \"#utility.yul\":10338:10339   */\n      0x00\n        /* \"#utility.yul\":10331:10362   */\n      mstore\n        /* \"#utility.yul\":10381:10385   */\n      0x11\n        /* \"#utility.yul\":10378:10379   */\n      0x04\n        /* \"#utility.yul\":10371:10386   */\n      mstore\n        /* \"#utility.yul\":10405:10409   */\n      0x24\n        /* \"#utility.yul\":10402:10403   */\n      0x00\n        /* \"#utility.yul\":10395:10410   */\n      revert\n        /* \"#utility.yul\":10421:10548   */\n    tag_115:\n        /* \"#utility.yul\":10482:10492   */\n      0x4e487b71\n        /* \"#utility.yul\":10477:10480   */\n      0xe0\n        /* \"#utility.yul\":10473:10493   */\n      shl\n        /* \"#utility.yul\":10470:10471   */\n      0x00\n        /* \"#utility.yul\":10463:10494   */\n      mstore\n        /* \"#utility.yul\":10513:10517   */\n      0x21\n        /* \"#utility.yul\":10510:10511   */\n      0x04\n        /* \"#utility.yul\":10503:10518   */\n      mstore\n        /* \"#utility.yul\":10537:10541   */\n      0x24\n        /* \"#utility.yul\":10534:10535   */\n      0x00\n        /* \"#utility.yul\":10527:10542   */\n      revert\n        /* \"#utility.yul\":10553:10680   */\n    tag_325:\n        /* \"#utility.yul\":10614:10624   */\n      0x4e487b71\n        /* \"#utility.yul\":10609:10612   */\n      0xe0\n        /* \"#utility.yul\":10605:10625   */\n      shl\n        /* \"#utility.yul\":10602:10603   */\n      0x00\n        /* \"#utility.yul\":10595:10626   */\n      mstore\n        /* \"#utility.yul\":10645:10649   */\n      0x41\n        /* \"#utility.yul\":10642:10643   */\n      0x04\n        /* \"#utility.yul\":10635:10650   */\n      mstore\n        /* \"#utility.yul\":10669:10673   */\n      0x24\n        /* \"#utility.yul\":10666:10667   */\n      0x00\n        /* \"#utility.yul\":10659:10674   */\n      revert\n\n    auxdata: 0xa26469706673582212207ed7510c2cd54f83b54e0bef28ee30910866d4952086a970061c53cb3eba131e64736f6c63430008050033\n}\n",
				"bytecode": {
					"linkReferences": {},
					"object": "600060028190556003819055600481905560a0604081905260808290526200002b916006919062000067565b506009805461ffff19169055600b805460ff191690553480156200004e57600080fd5b50600580546001600160a01b031916331790556200014a565b82805462000075906200010d565b90600052602060002090601f016020900481019282620000995760008555620000e4565b82601f10620000b457805160ff1916838001178555620000e4565b82800160010185558215620000e4579182015b82811115620000e4578251825591602001919060010190620000c7565b50620000f2929150620000f6565b5090565b5b80821115620000f25760008155600101620000f7565b600181811c908216806200012257607f821691505b602082108114156200014457634e487b7160e01b600052602260045260246000fd5b50919050565b6113ec806200015a6000396000f3fe608060405234801561001057600080fd5b50600436106101375760003560e01c80636d77bd3e116100b8578063ad5461d81161007c578063ad5461d8146102cf578063b798867f146102ef578063bf86d690146102f8578063c1c16efc14610305578063c3403ddf1461030d578063fc0e74d11461031557600080fd5b80636d77bd3e14610280578063781a38a314610293578063788d3851146102a65780638f43f134146102b3578063a3bef4d7146102c657600080fd5b80633b9f708d116100ff5780633b9f708d146101d25780633d2f5bda146101e557806347098f36146101fa578063481c6a75146102035780635df813301461022e57600080fd5b8063055ad42e1461013c578063083c632314610164578063124258c61461017b5780631ddabf7a1461019e5780632d8c6f42146101bf575b600080fd5b60095461014e90610100900460ff1681565b60405161015b91906111a4565b60405180910390f35b61016d600a5481565b60405190815260200161015b565b61018e610189366004611143565b61031d565b604051901515815260200161015b565b6101b16101ac3660046110a5565b6105ec565b60405161015b9291906111df565b61016d6101cd3660046110c0565b610693565b61016d6101e03660046110c0565b610824565b6101f86101f3366004611143565b6108c2565b005b61016d60035481565b600554610216906001600160a01b031681565b6040516001600160a01b03909116815260200161015b565b61026161023c366004611143565b600760205260009081526040902080546001909101546001600160a01b039091169082565b604080516001600160a01b03909316835260208301919091520161015b565b61016d61028e36600461110e565b610a2b565b61016d6102a136600461110e565b610ac7565b60095461018e9060ff1681565b61018e6102c1366004611143565b610c0e565b61016d60045481565b6102e26102dd366004611143565b610c1f565b60405161015b91906111cc565b61016d60025481565b600b5461018e9060ff1681565b6102e2610cb9565b6101f8610cc6565b6101f8610d7f565b600b5460009060ff161561034c5760405162461bcd60e51b815260040161034390611203565b60405180910390fd5b600180600954610100900460ff16600281111561036b5761036b61138a565b146103885760405162461bcd60e51b815260040161034390611276565b60095460ff1615156001146103eb5760405162461bcd60e51b815260206004820152602360248201527f43616e20766f7465206f6e6c79207768696c6520766f74696e67206973206f7060448201526232b71760e91b6064820152608401610343565b6000838152602081905260409020805461040490611324565b151590506104545760405162461bcd60e51b815260206004820152601a60248201527f52657374617572616e7420646f6573206e6f742065786973742e0000000000006044820152606401610343565b600a5443111561046f57610466610dd6565b600091506105e6565b336000908152600160205260409020805461048990611324565b151590506104d95760405162461bcd60e51b815260206004820181905260248201527f596f7520617265206e6f742061207265676973746572656420667269656e642e6044820152606401610343565b336000908152600160208190526040909120015460ff161561053d5760405162461bcd60e51b815260206004820152601760248201527f596f75206861766520616c726561647920766f7465642e0000000000000000006044820152606401610343565b3360008181526001602081815260408084208301805460ff191684179055805180820190915293845283018690526004805491955060079291829061058190611359565b91829055508152602080820192909252604001600020825181546001600160a01b0319166001600160a01b039091161781559101516001909101556003546105cb906002906112d2565b6105d69060016112ba565b600454106105e6576105e6610dd6565b50919050565b60016020526000908152604090208054819061060790611324565b80601f016020809104026020016040519081016040528092919081815260200182805461063390611324565b80156106805780601f1061065557610100808354040283529160200191610680565b820191906000526020600020905b81548152906001019060200180831161066357829003601f168201915b5050506001909301549192505060ff1682565b600b5460009060ff16156106b95760405162461bcd60e51b815260040161034390611203565b600080600954610100900460ff1660028111156106d8576106d861138a565b146106f55760405162461bcd60e51b815260040161034390611276565b6001600160a01b0384166000908152600160205260409020805461071890611324565b1590506107605760405162461bcd60e51b8152602060048201526016602482015275233934b2b7321030b63932b0b23c9032bc34b9ba399760511b6044820152606401610343565b60008351116107a95760405162461bcd60e51b81526020600482015260156024820152742730b6b29031b0b73737ba1031329032b6b83a3c9760591b6044820152606401610343565b604080518082018252600060208083018290528683526001600160a01b03881682526001815292902081518051929384936107e79284920190610ee8565b50602091909101516001909101805460ff19169115159190911790556003805490600061081383611359565b909155505060035495945050505050565b600b5460009060ff161561084a5760405162461bcd60e51b815260040161034390611203565b6005546001600160a01b031633146108745760405162461bcd60e51b815260040161034390611233565b600080600954610100900460ff1660028111156108935761089361138a565b146108b05760405162461bcd60e51b815260040161034390611276565b6108ba8484610693565b949350505050565b600b5460ff16156108e55760405162461bcd60e51b815260040161034390611203565b6005546001600160a01b0316331461090f5760405162461bcd60e51b815260040161034390611233565b600080600954610100900460ff16600281111561092e5761092e61138a565b1461094b5760405162461bcd60e51b815260040161034390611276565b6001600254116109ad5760405162461bcd60e51b815260206004820152602760248201527f4174206c656173742074776f2072657374617572616e7473206d7573742062656044820152661030b23232b21760c91b6064820152608401610343565b600160035411610a0b5760405162461bcd60e51b815260206004820152602360248201527f4174206c656173742074776f20667269656e6473206d7573742062652061646460448201526232b21760e91b6064820152608401610343565b610a1582436112ba565b600a5550506009805461ffff1916610101179055565b600b5460009060ff1615610a515760405162461bcd60e51b815260040161034390611203565b6005546001600160a01b03163314610a7b5760405162461bcd60e51b815260040161034390611233565b600080600954610100900460ff166002811115610a9a57610a9a61138a565b14610ab75760405162461bcd60e51b815260040161034390611276565b610ac083610ac7565b9392505050565b600b5460009060ff1615610aed5760405162461bcd60e51b815260040161034390611203565b600080600954610100900460ff166002811115610b0c57610b0c61138a565b14610b295760405162461bcd60e51b815260040161034390611276565b600083604051602001610b3c9190611188565b60408051601f1981840301815291815281516020928301206000818152600c90935291205490915060ff1615610bb45760405162461bcd60e51b815260206004820152601a60248201527f52657374617572616e7420616c7265616479206578697374732e0000000000006044820152606401610343565b60028054906000610bc483611359565b90915550506002546000908152602081815260409091208551610be992870190610ee8565b506000908152600c60205260409020805460ff19166001179055600254915050919050565b6000610c198261031d565b92915050565b60006020819052908152604090208054610c3890611324565b80601f0160208091040260200160405190810160405280929190818152602001828054610c6490611324565b8015610cb15780601f10610c8657610100808354040283529160200191610cb1565b820191906000526020600020905b815481529060010190602001808311610c9457829003601f168201915b505050505081565b60068054610c3890611324565b600b5460ff1615610ce95760405162461bcd60e51b815260040161034390611203565b6005546001600160a01b03163314610d135760405162461bcd60e51b815260040161034390611233565b6001600954610100900460ff166002811115610d3157610d3161138a565b14610d755760405162461bcd60e51b81526020600482015260146024820152732737ba1034b7103b37ba34b73390383430b9b29760611b6044820152606401610343565b610d7d610dd6565b565b6005546001600160a01b03163314610da95760405162461bcd60e51b815260040161034390611233565b600b805460ff1990811660011790915560098054918216815560029161ffff1916610100835b0217905550565b60045415610de657610de6610e03565b6009805460ff19811682556002919061ffff191661010083610dcf565b60008060015b6004548111610eba576000818152600760209081526040808320600190810154845260089092529091205415610e655760008281526007602090815260408083206001015483526008909152902054610e6290826112ba565b90505b60008281526007602090815260408083206001015483526008909152902081905583811115610ea7576000828152600760205260409020600101549093509150825b5080610eb281611359565b915050610e09565b506000818152602081905260409020805460069190610ed890611324565b610ee3929190610f6c565b505050565b828054610ef490611324565b90600052602060002090601f016020900481019282610f165760008555610f5c565b82601f10610f2f57805160ff1916838001178555610f5c565b82800160010185558215610f5c579182015b82811115610f5c578251825591602001919060010190610f41565b50610f68929150610fe7565b5090565b828054610f7890611324565b90600052602060002090601f016020900481019282610f9a5760008555610f5c565b82601f10610fab5780548555610f5c565b82800160010185558215610f5c57600052602060002091601f016020900482015b82811115610f5c578254825591600101919060010190610fcc565b5b80821115610f685760008155600101610fe8565b80356001600160a01b038116811461101357600080fd5b919050565b600082601f83011261102957600080fd5b813567ffffffffffffffff80821115611044576110446113a0565b604051601f8301601f19908116603f0116810190828211818310171561106c5761106c6113a0565b8160405283815286602085880101111561108557600080fd5b836020870160208301376000602085830101528094505050505092915050565b6000602082840312156110b757600080fd5b610ac082610ffc565b600080604083850312156110d357600080fd5b6110dc83610ffc565b9150602083013567ffffffffffffffff8111156110f857600080fd5b61110485828601611018565b9150509250929050565b60006020828403121561112057600080fd5b813567ffffffffffffffff81111561113757600080fd5b6108ba84828501611018565b60006020828403121561115557600080fd5b5035919050565b600081518084526111748160208601602086016112f4565b601f01601f19169290920160200192915050565b6000825161119a8184602087016112f4565b9190910192915050565b60208101600383106111c657634e487b7160e01b600052602160045260246000fd5b91905290565b602081526000610ac0602083018461115c565b6040815260006111f2604083018561115c565b905082151560208301529392505050565b60208082526016908201527521b7b73a3930b1ba1034b99039b43aba103237bbb71760511b604082015260600190565b60208082526023908201527f43616e206f6e6c7920626520657865637574656420627920746865206d616e6160408201526233b2b960e91b606082015260800190565b60208082526024908201527f416374696f6e206e6f7420616c6c6f77656420696e2063757272656e7420706860408201526330b9b29760e11b606082015260800190565b600082198211156112cd576112cd611374565b500190565b6000826112ef57634e487b7160e01b600052601260045260246000fd5b500490565b60005b8381101561130f5781810151838201526020016112f7565b8381111561131e576000848401525b50505050565b600181811c9082168061133857607f821691505b602082108114156105e657634e487b7160e01b600052602260045260246000fd5b600060001982141561136d5761136d611374565b5060010190565b634e487b7160e01b600052601160045260246000fd5b634e487b7160e01b600052602160045260246000fd5b634e487b7160e01b600052604160045260246000fdfea26469706673582212207ed7510c2cd54f83b54e0bef28ee30910866d4952086a970061c53cb3eba131e64736f6c63430008050033",
					"opcodes": "PUSH1 0x0 PUSH1 0x2 DUP2 SWAP1 SSTORE PUSH1 0x3 DUP2 SWAP1 SSTORE PUSH1 0x4 DUP2 SWAP1 SSTORE PUSH1 0xA0 PUSH1 0x40 DUP2 SWAP1 MSTORE PUSH1 0x80 DUP3 SWAP1 MSTORE PUSH3 0x2B SWAP2 PUSH1 0x6 SWAP2 SWAP1 PUSH3 0x67 JUMP JUMPDEST POP PUSH1 0x9 DUP1 SLOAD PUSH2 0xFFFF NOT AND SWAP1 SSTORE PUSH1 0xB DUP1 SLOAD PUSH1 0xFF NOT AND SWAP1 SSTORE CALLVALUE DUP1 ISZERO PUSH3 0x4E JUMPI PUSH1 0x0 DUP1 REVERT JUMPDEST POP PUSH1 0x5 DUP1 SLOAD PUSH1 0x1 PUSH1 0x1 PUSH1 0xA0 SHL SUB NOT AND CALLER OR SWAP1 SSTORE PUSH3 0x14A JUMP JUMPDEST DUP3 DUP1 SLOAD PUSH3 0x75 SWAP1 PUSH3 0x10D JUMP JUMPDEST SWAP1 PUSH1 0x0 MSTORE PUSH1 0x20 PUSH1 0x0 KECCAK256 SWAP1 PUSH1 0x1F ADD PUSH1 0x20 SWAP1 DIV DUP2 ADD SWAP3 DUP3 PUSH3 0x99 JUMPI PUSH1 0x0 DUP6 SSTORE PUSH3 0xE4 JUMP JUMPDEST DUP3 PUSH1 0x1F LT PUSH3 0xB4 JUMPI DUP1 MLOAD PUSH1 0xFF NOT AND DUP4 DUP1 ADD OR DUP6 SSTORE PUSH3 0xE4 JUMP JUMPDEST DUP3 DUP1 ADD PUSH1 0x1 ADD DUP6 SSTORE DUP3 ISZERO PUSH3 0xE4 JUMPI SWAP2 DUP3 ADD JUMPDEST DUP3 DUP2 GT ISZERO PUSH3 0xE4 JUMPI DUP3 MLOAD DUP3 SSTORE SWAP2 PUSH1 0x20 ADD SWAP2 SWAP1 PUSH1 0x1 ADD SWAP1 PUSH3 0xC7 JUMP JUMPDEST POP PUSH3 0xF2 SWAP3 SWAP2 POP PUSH3 0xF6 JUMP JUMPDEST POP SWAP1 JUMP JUMPDEST JUMPDEST DUP1 DUP3 GT ISZERO PUSH3 0xF2 JUMPI PUSH1 0x0 DUP2 SSTORE PUSH1 0x1 ADD PUSH3 0xF7 JUMP JUMPDEST PUSH1 0x1 DUP2 DUP2 SHR SWAP1 DUP3 AND DUP1 PUSH3 0x122 JUMPI PUSH1 0x7F DUP3 AND SWAP2 POP JUMPDEST PUSH1 0x20 DUP3 LT DUP2 EQ ISZERO PUSH3 0x144 JUMPI PUSH4 0x4E487B71 PUSH1 0xE0 SHL PUSH1 0x0 MSTORE PUSH1 0x22 PUSH1 0x4 MSTORE PUSH1 0x24 PUSH1 0x0 REVERT JUMPDEST POP SWAP2 SWAP1 POP JUMP JUMPDEST PUSH2 0x13EC DUP1 PUSH3 0x15A PUSH1 0x0 CODECOPY PUSH1 0x0 RETURN INVALID PUSH1 0x80 PUSH1 0x40 MSTORE CALLVALUE DUP1 ISZERO PUSH2 0x10 JUMPI PUSH1 0x0 DUP1 REVERT JUMPDEST POP PUSH1 0x4 CALLDATASIZE LT PUSH2 0x137 JUMPI PUSH1 0x0 CALLDATALOAD PUSH1 0xE0 SHR DUP1 PUSH4 0x6D77BD3E GT PUSH2 0xB8 JUMPI DUP1 PUSH4 0xAD5461D8 GT PUSH2 0x7C JUMPI DUP1 PUSH4 0xAD5461D8 EQ PUSH2 0x2CF JUMPI DUP1 PUSH4 0xB798867F EQ PUSH2 0x2EF JUMPI DUP1 PUSH4 0xBF86D690 EQ PUSH2 0x2F8 JUMPI DUP1 PUSH4 0xC1C16EFC EQ PUSH2 0x305 JUMPI DUP1 PUSH4 0xC3403DDF EQ PUSH2 0x30D JUMPI DUP1 PUSH4 0xFC0E74D1 EQ PUSH2 0x315 JUMPI PUSH1 0x0 DUP1 REVERT JUMPDEST DUP1 PUSH4 0x6D77BD3E EQ PUSH2 0x280 JUMPI DUP1 PUSH4 0x781A38A3 EQ PUSH2 0x293 JUMPI DUP1 PUSH4 0x788D3851 EQ PUSH2 0x2A6 JUMPI DUP1 PUSH4 0x8F43F134 EQ PUSH2 0x2B3 JUMPI DUP1 PUSH4 0xA3BEF4D7 EQ PUSH2 0x2C6 JUMPI PUSH1 0x0 DUP1 REVERT JUMPDEST DUP1 PUSH4 0x3B9F708D GT PUSH2 0xFF JUMPI DUP1 PUSH4 0x3B9F708D EQ PUSH2 0x1D2 JUMPI DUP1 PUSH4 0x3D2F5BDA EQ PUSH2 0x1E5 JUMPI DUP1 PUSH4 0x47098F36 EQ PUSH2 0x1FA JUMPI DUP1 PUSH4 0x481C6A75 EQ PUSH2 0x203 JUMPI DUP1 PUSH4 0x5DF81330 EQ PUSH2 0x22E JUMPI PUSH1 0x0 DUP1 REVERT JUMPDEST DUP1 PUSH4 0x55AD42E EQ PUSH2 0x13C JUMPI DUP1 PUSH4 0x83C6323 EQ PUSH2 0x164 JUMPI DUP1 PUSH4 0x124258C6 EQ PUSH2 0x17B JUMPI DUP1 PUSH4 0x1DDABF7A EQ PUSH2 0x19E JUMPI DUP1 PUSH4 0x2D8C6F42 EQ PUSH2 0x1BF JUMPI JUMPDEST PUSH1 0x0 DUP1 REVERT JUMPDEST PUSH1 0x9 SLOAD PUSH2 0x14E SWAP1 PUSH2 0x100 SWAP1 DIV PUSH1 0xFF AND DUP2 JUMP JUMPDEST PUSH1 0x40 MLOAD PUSH2 0x15B SWAP2 SWAP1 PUSH2 0x11A4 JUMP JUMPDEST PUSH1 0x40 MLOAD DUP1 SWAP2 SUB SWAP1 RETURN JUMPDEST PUSH2 0x16D PUSH1 0xA SLOAD DUP2 JUMP JUMPDEST PUSH1 0x40 MLOAD SWAP1 DUP2 MSTORE PUSH1 0x20 ADD PUSH2 0x15B JUMP JUMPDEST PUSH2 0x18E PUSH2 0x189 CALLDATASIZE PUSH1 0x4 PUSH2 0x1143 JUMP JUMPDEST PUSH2 0x31D JUMP JUMPDEST PUSH1 0x40 MLOAD SWAP1 ISZERO ISZERO DUP2 MSTORE PUSH1 0x20 ADD PUSH2 0x15B JUMP JUMPDEST PUSH2 0x1B1 PUSH2 0x1AC CALLDATASIZE PUSH1 0x4 PUSH2 0x10A5 JUMP JUMPDEST PUSH2 0x5EC JUMP JUMPDEST PUSH1 0x40 MLOAD PUSH2 0x15B SWAP3 SWAP2 SWAP1 PUSH2 0x11DF JUMP JUMPDEST PUSH2 0x16D PUSH2 0x1CD CALLDATASIZE PUSH1 0x4 PUSH2 0x10C0 JUMP JUMPDEST PUSH2 0x693 JUMP JUMPDEST PUSH2 0x16D PUSH2 0x1E0 CALLDATASIZE PUSH1 0x4 PUSH2 0x10C0 JUMP JUMPDEST PUSH2 0x824 JUMP JUMPDEST PUSH2 0x1F8 PUSH2 0x1F3 CALLDATASIZE PUSH1 0x4 PUSH2 0x1143 JUMP JUMPDEST PUSH2 0x8C2 JUMP JUMPDEST STOP JUMPDEST PUSH2 0x16D PUSH1 0x3 SLOAD DUP2 JUMP JUMPDEST PUSH1 0x5 SLOAD PUSH2 0x216 SWAP1 PUSH1 0x1 PUSH1 0x1 PUSH1 0xA0 SHL SUB AND DUP2 JUMP JUMPDEST PUSH1 0x40 MLOAD PUSH1 0x1 PUSH1 0x1 PUSH1 0xA0 SHL SUB SWAP1 SWAP2 AND DUP2 MSTORE PUSH1 0x20 ADD PUSH2 0x15B JUMP JUMPDEST PUSH2 0x261 PUSH2 0x23C CALLDATASIZE PUSH1 0x4 PUSH2 0x1143 JUMP JUMPDEST PUSH1 0x7 PUSH1 0x20 MSTORE PUSH1 0x0 SWAP1 DUP2 MSTORE PUSH1 0x40 SWAP1 KECCAK256 DUP1 SLOAD PUSH1 0x1 SWAP1 SWAP2 ADD SLOAD PUSH1 0x1 PUSH1 0x1 PUSH1 0xA0 SHL SUB SWAP1 SWAP2 AND SWAP1 DUP3 JUMP JUMPDEST PUSH1 0x40 DUP1 MLOAD PUSH1 0x1 PUSH1 0x1 PUSH1 0xA0 SHL SUB SWAP1 SWAP4 AND DUP4 MSTORE PUSH1 0x20 DUP4 ADD SWAP2 SWAP1 SWAP2 MSTORE ADD PUSH2 0x15B JUMP JUMPDEST PUSH2 0x16D PUSH2 0x28E CALLDATASIZE PUSH1 0x4 PUSH2 0x110E JUMP JUMPDEST PUSH2 0xA2B JUMP JUMPDEST PUSH2 0x16D PUSH2 0x2A1 CALLDATASIZE PUSH1 0x4 PUSH2 0x110E JUMP JUMPDEST PUSH2 0xAC7 JUMP JUMPDEST PUSH1 0x9 SLOAD PUSH2 0x18E SWAP1 PUSH1 0xFF AND DUP2 JUMP JUMPDEST PUSH2 0x18E PUSH2 0x2C1 CALLDATASIZE PUSH1 0x4 PUSH2 0x1143 JUMP JUMPDEST PUSH2 0xC0E JUMP JUMPDEST PUSH2 0x16D PUSH1 0x4 SLOAD DUP2 JUMP JUMPDEST PUSH2 0x2E2 PUSH2 0x2DD CALLDATASIZE PUSH1 0x4 PUSH2 0x1143 JUMP JUMPDEST PUSH2 0xC1F JUMP JUMPDEST PUSH1 0x40 MLOAD PUSH2 0x15B SWAP2 SWAP1 PUSH2 0x11CC JUMP JUMPDEST PUSH2 0x16D PUSH1 0x2 SLOAD DUP2 JUMP JUMPDEST PUSH1 0xB SLOAD PUSH2 0x18E SWAP1 PUSH1 0xFF AND DUP2 JUMP JUMPDEST PUSH2 0x2E2 PUSH2 0xCB9 JUMP JUMPDEST PUSH2 0x1F8 PUSH2 0xCC6 JUMP JUMPDEST PUSH2 0x1F8 PUSH2 0xD7F JUMP JUMPDEST PUSH1 0xB SLOAD PUSH1 0x0 SWAP1 PUSH1 0xFF AND ISZERO PUSH2 0x34C JUMPI PUSH1 0x40 MLOAD PUSH3 0x461BCD PUSH1 0xE5 SHL DUP2 MSTORE PUSH1 0x4 ADD PUSH2 0x343 SWAP1 PUSH2 0x1203 JUMP JUMPDEST PUSH1 0x40 MLOAD DUP1 SWAP2 SUB SWAP1 REVERT JUMPDEST PUSH1 0x1 DUP1 PUSH1 0x9 SLOAD PUSH2 0x100 SWAP1 DIV PUSH1 0xFF AND PUSH1 0x2 DUP2 GT ISZERO PUSH2 0x36B JUMPI PUSH2 0x36B PUSH2 0x138A JUMP JUMPDEST EQ PUSH2 0x388 JUMPI PUSH1 0x40 MLOAD PUSH3 0x461BCD PUSH1 0xE5 SHL DUP2 MSTORE PUSH1 0x4 ADD PUSH2 0x343 SWAP1 PUSH2 0x1276 JUMP JUMPDEST PUSH1 0x9 SLOAD PUSH1 0xFF AND ISZERO ISZERO PUSH1 0x1 EQ PUSH2 0x3EB JUMPI PUSH1 0x40 MLOAD PUSH3 0x461BCD PUSH1 0xE5 SHL DUP2 MSTORE PUSH1 0x20 PUSH1 0x4 DUP3 ADD MSTORE PUSH1 0x23 PUSH1 0x24 DUP3 ADD MSTORE PUSH32 0x43616E20766F7465206F6E6C79207768696C6520766F74696E67206973206F70 PUSH1 0x44 DUP3 ADD MSTORE PUSH3 0x32B717 PUSH1 0xE9 SHL PUSH1 0x64 DUP3 ADD MSTORE PUSH1 0x84 ADD PUSH2 0x343 JUMP JUMPDEST PUSH1 0x0 DUP4 DUP2 MSTORE PUSH1 0x20 DUP2 SWAP1 MSTORE PUSH1 0x40 SWAP1 KECCAK256 DUP1 SLOAD PUSH2 0x404 SWAP1 PUSH2 0x1324 JUMP JUMPDEST ISZERO ISZERO SWAP1 POP PUSH2 0x454 JUMPI PUSH1 0x40 MLOAD PUSH3 0x461BCD PUSH1 0xE5 SHL DUP2 MSTORE PUSH1 0x20 PUSH1 0x4 DUP3 ADD MSTORE PUSH1 0x1A PUSH1 0x24 DUP3 ADD MSTORE PUSH32 0x52657374617572616E7420646F6573206E6F742065786973742E000000000000 PUSH1 0x44 DUP3 ADD MSTORE PUSH1 0x64 ADD PUSH2 0x343 JUMP JUMPDEST PUSH1 0xA SLOAD NUMBER GT ISZERO PUSH2 0x46F JUMPI PUSH2 0x466 PUSH2 0xDD6 JUMP JUMPDEST PUSH1 0x0 SWAP2 POP PUSH2 0x5E6 JUMP JUMPDEST CALLER PUSH1 0x0 SWAP1 DUP2 MSTORE PUSH1 0x1 PUSH1 0x20 MSTORE PUSH1 0x40 SWAP1 KECCAK256 DUP1 SLOAD PUSH2 0x489 SWAP1 PUSH2 0x1324 JUMP JUMPDEST ISZERO ISZERO SWAP1 POP PUSH2 0x4D9 JUMPI PUSH1 0x40 MLOAD PUSH3 0x461BCD PUSH1 0xE5 SHL DUP2 MSTORE PUSH1 0x20 PUSH1 0x4 DUP3 ADD DUP2 SWAP1 MSTORE PUSH1 0x24 DUP3 ADD MSTORE PUSH32 0x596F7520617265206E6F742061207265676973746572656420667269656E642E PUSH1 0x44 DUP3 ADD MSTORE PUSH1 0x64 ADD PUSH2 0x343 JUMP JUMPDEST CALLER PUSH1 0x0 SWAP1 DUP2 MSTORE PUSH1 0x1 PUSH1 0x20 DUP2 SWAP1 MSTORE PUSH1 0x40 SWAP1 SWAP2 KECCAK256 ADD SLOAD PUSH1 0xFF AND ISZERO PUSH2 0x53D JUMPI PUSH1 0x40 MLOAD PUSH3 0x461BCD PUSH1 0xE5 SHL DUP2 MSTORE PUSH1 0x20 PUSH1 0x4 DUP3 ADD MSTORE PUSH1 0x17 PUSH1 0x24 DUP3 ADD MSTORE PUSH32 0x596F75206861766520616C726561647920766F7465642E000000000000000000 PUSH1 0x44 DUP3 ADD MSTORE PUSH1 0x64 ADD PUSH2 0x343 JUMP JUMPDEST CALLER PUSH1 0x0 DUP2 DUP2 MSTORE PUSH1 0x1 PUSH1 0x20 DUP2 DUP2 MSTORE PUSH1 0x40 DUP1 DUP5 KECCAK256 DUP4 ADD DUP1 SLOAD PUSH1 0xFF NOT AND DUP5 OR SWAP1 SSTORE DUP1 MLOAD DUP1 DUP3 ADD SWAP1 SWAP2 MSTORE SWAP4 DUP5 MSTORE DUP4 ADD DUP7 SWAP1 MSTORE PUSH1 0x4 DUP1 SLOAD SWAP2 SWAP6 POP PUSH1 0x7 SWAP3 SWAP2 DUP3 SWAP1 PUSH2 0x581 SWAP1 PUSH2 0x1359 JUMP JUMPDEST SWAP2 DUP3 SWAP1 SSTORE POP DUP2 MSTORE PUSH1 0x20 DUP1 DUP3 ADD SWAP3 SWAP1 SWAP3 MSTORE PUSH1 0x40 ADD PUSH1 0x0 KECCAK256 DUP3 MLOAD DUP2 SLOAD PUSH1 0x1 PUSH1 0x1 PUSH1 0xA0 SHL SUB NOT AND PUSH1 0x1 PUSH1 0x1 PUSH1 0xA0 SHL SUB SWAP1 SWAP2 AND OR DUP2 SSTORE SWAP2 ADD MLOAD PUSH1 0x1 SWAP1 SWAP2 ADD SSTORE PUSH1 0x3 SLOAD PUSH2 0x5CB SWAP1 PUSH1 0x2 SWAP1 PUSH2 0x12D2 JUMP JUMPDEST PUSH2 0x5D6 SWAP1 PUSH1 0x1 PUSH2 0x12BA JUMP JUMPDEST PUSH1 0x4 SLOAD LT PUSH2 0x5E6 JUMPI PUSH2 0x5E6 PUSH2 0xDD6 JUMP JUMPDEST POP SWAP2 SWAP1 POP JUMP JUMPDEST PUSH1 0x1 PUSH1 0x20 MSTORE PUSH1 0x0 SWAP1 DUP2 MSTORE PUSH1 0x40 SWAP1 KECCAK256 DUP1 SLOAD DUP2 SWAP1 PUSH2 0x607 SWAP1 PUSH2 0x1324 JUMP JUMPDEST DUP1 PUSH1 0x1F ADD PUSH1 0x20 DUP1 SWAP2 DIV MUL PUSH1 0x20 ADD PUSH1 0x40 MLOAD SWAP1 DUP2 ADD PUSH1 0x40 MSTORE DUP1 SWAP3 SWAP2 SWAP1 DUP2 DUP2 MSTORE PUSH1 0x20 ADD DUP3 DUP1 SLOAD PUSH2 0x633 SWAP1 PUSH2 0x1324 JUMP JUMPDEST DUP1 ISZERO PUSH2 0x680 JUMPI DUP1 PUSH1 0x1F LT PUSH2 0x655 JUMPI PUSH2 0x100 DUP1 DUP4 SLOAD DIV MUL DUP4 MSTORE SWAP2 PUSH1 0x20 ADD SWAP2 PUSH2 0x680 JUMP JUMPDEST DUP3 ADD SWAP2 SWAP1 PUSH1 0x0 MSTORE PUSH1 0x20 PUSH1 0x0 KECCAK256 SWAP1 JUMPDEST DUP2 SLOAD DUP2 MSTORE SWAP1 PUSH1 0x1 ADD SWAP1 PUSH1 0x20 ADD DUP1 DUP4 GT PUSH2 0x663 JUMPI DUP3 SWAP1 SUB PUSH1 0x1F AND DUP3 ADD SWAP2 JUMPDEST POP POP POP PUSH1 0x1 SWAP1 SWAP4 ADD SLOAD SWAP2 SWAP3 POP POP PUSH1 0xFF AND DUP3 JUMP JUMPDEST PUSH1 0xB SLOAD PUSH1 0x0 SWAP1 PUSH1 0xFF AND ISZERO PUSH2 0x6B9 JUMPI PUSH1 0x40 MLOAD PUSH3 0x461BCD PUSH1 0xE5 SHL DUP2 MSTORE PUSH1 0x4 ADD PUSH2 0x343 SWAP1 PUSH2 0x1203 JUMP JUMPDEST PUSH1 0x0 DUP1 PUSH1 0x9 SLOAD PUSH2 0x100 SWAP1 DIV PUSH1 0xFF AND PUSH1 0x2 DUP2 GT ISZERO PUSH2 0x6D8 JUMPI PUSH2 0x6D8 PUSH2 0x138A JUMP JUMPDEST EQ PUSH2 0x6F5 JUMPI PUSH1 0x40 MLOAD PUSH3 0x461BCD PUSH1 0xE5 SHL DUP2 MSTORE PUSH1 0x4 ADD PUSH2 0x343 SWAP1 PUSH2 0x1276 JUMP JUMPDEST PUSH1 0x1 PUSH1 0x1 PUSH1 0xA0 SHL SUB DUP5 AND PUSH1 0x0 SWAP1 DUP2 MSTORE PUSH1 0x1 PUSH1 0x20 MSTORE PUSH1 0x40 SWAP1 KECCAK256 DUP1 SLOAD PUSH2 0x718 SWAP1 PUSH2 0x1324 JUMP JUMPDEST ISZERO SWAP1 POP PUSH2 0x760 JUMPI PUSH1 0x40 MLOAD PUSH3 0x461BCD PUSH1 0xE5 SHL DUP2 MSTORE PUSH1 0x20 PUSH1 0x4 DUP3 ADD MSTORE PUSH1 0x16 PUSH1 0x24 DUP3 ADD MSTORE PUSH22 0x233934B2B7321030B63932B0B23C9032BC34B9BA3997 PUSH1 0x51 SHL PUSH1 0x44 DUP3 ADD MSTORE PUSH1 0x64 ADD PUSH2 0x343 JUMP JUMPDEST PUSH1 0x0 DUP4 MLOAD GT PUSH2 0x7A9 JUMPI PUSH1 0x40 MLOAD PUSH3 0x461BCD PUSH1 0xE5 SHL DUP2 MSTORE PUSH1 0x20 PUSH1 0x4 DUP3 ADD MSTORE PUSH1 0x15 PUSH1 0x24 DUP3 ADD MSTORE PUSH21 0x2730B6B29031B0B73737BA1031329032B6B83A3C97 PUSH1 0x59 SHL PUSH1 0x44 DUP3 ADD MSTORE PUSH1 0x64 ADD PUSH2 0x343 JUMP JUMPDEST PUSH1 0x40 DUP1 MLOAD DUP1 DUP3 ADD DUP3 MSTORE PUSH1 0x0 PUSH1 0x20 DUP1 DUP4 ADD DUP3 SWAP1 MSTORE DUP7 DUP4 MSTORE PUSH1 0x1 PUSH1 0x1 PUSH1 0xA0 SHL SUB DUP9 AND DUP3 MSTORE PUSH1 0x1 DUP2 MSTORE SWAP3 SWAP1 KECCAK256 DUP2 MLOAD DUP1 MLOAD SWAP3 SWAP4 DUP5 SWAP4 PUSH2 0x7E7 SWAP3 DUP5 SWAP3 ADD SWAP1 PUSH2 0xEE8 JUMP JUMPDEST POP PUSH1 0x20 SWAP2 SWAP1 SWAP2 ADD MLOAD PUSH1 0x1 SWAP1 SWAP2 ADD DUP1 SLOAD PUSH1 0xFF NOT AND SWAP2 ISZERO ISZERO SWAP2 SWAP1 SWAP2 OR SWAP1 SSTORE PUSH1 0x3 DUP1 SLOAD SWAP1 PUSH1 0x0 PUSH2 0x813 DUP4 PUSH2 0x1359 JUMP JUMPDEST SWAP1 SWAP2 SSTORE POP POP PUSH1 0x3 SLOAD SWAP6 SWAP5 POP POP POP POP POP JUMP JUMPDEST PUSH1 0xB SLOAD PUSH1 0x0 SWAP1 PUSH1 0xFF AND ISZERO PUSH2 0x84A JUMPI PUSH1 0x40 MLOAD PUSH3 0x461BCD PUSH1 0xE5 SHL DUP2 MSTORE PUSH1 0x4 ADD PUSH2 0x343 SWAP1 PUSH2 0x1203 JUMP JUMPDEST PUSH1 0x5 SLOAD PUSH1 0x1 PUSH1 0x1 PUSH1 0xA0 SHL SUB AND CALLER EQ PUSH2 0x874 JUMPI PUSH1 0x40 MLOAD PUSH3 0x461BCD PUSH1 0xE5 SHL DUP2 MSTORE PUSH1 0x4 ADD PUSH2 0x343 SWAP1 PUSH2 0x1233 JUMP JUMPDEST PUSH1 0x0 DUP1 PUSH1 0x9 SLOAD PUSH2 0x100 SWAP1 DIV PUSH1 0xFF AND PUSH1 0x2 DUP2 GT ISZERO PUSH2 0x893 JUMPI PUSH2 0x893 PUSH2 0x138A JUMP JUMPDEST EQ PUSH2 0x8B0 JUMPI PUSH1 0x40 MLOAD PUSH3 0x461BCD PUSH1 0xE5 SHL DUP2 MSTORE PUSH1 0x4 ADD PUSH2 0x343 SWAP1 PUSH2 0x1276 JUMP JUMPDEST PUSH2 0x8BA DUP5 DUP5 PUSH2 0x693 JUMP JUMPDEST SWAP5 SWAP4 POP POP POP POP JUMP JUMPDEST PUSH1 0xB SLOAD PUSH1 0xFF AND ISZERO PUSH2 0x8E5 JUMPI PUSH1 0x40 MLOAD PUSH3 0x461BCD PUSH1 0xE5 SHL DUP2 MSTORE PUSH1 0x4 ADD PUSH2 0x343 SWAP1 PUSH2 0x1203 JUMP JUMPDEST PUSH1 0x5 SLOAD PUSH1 0x1 PUSH1 0x1 PUSH1 0xA0 SHL SUB AND CALLER EQ PUSH2 0x90F JUMPI PUSH1 0x40 MLOAD PUSH3 0x461BCD PUSH1 0xE5 SHL DUP2 MSTORE PUSH1 0x4 ADD PUSH2 0x343 SWAP1 PUSH2 0x1233 JUMP JUMPDEST PUSH1 0x0 DUP1 PUSH1 0x9 SLOAD PUSH2 0x100 SWAP1 DIV PUSH1 0xFF AND PUSH1 0x2 DUP2 GT ISZERO PUSH2 0x92E JUMPI PUSH2 0x92E PUSH2 0x138A JUMP JUMPDEST EQ PUSH2 0x94B JUMPI PUSH1 0x40 MLOAD PUSH3 0x461BCD PUSH1 0xE5 SHL DUP2 MSTORE PUSH1 0x4 ADD PUSH2 0x343 SWAP1 PUSH2 0x1276 JUMP JUMPDEST PUSH1 0x1 PUSH1 0x2 SLOAD GT PUSH2 0x9AD JUMPI PUSH1 0x40 MLOAD PUSH3 0x461BCD PUSH1 0xE5 SHL DUP2 MSTORE PUSH1 0x20 PUSH1 0x4 DUP3 ADD MSTORE PUSH1 0x27 PUSH1 0x24 DUP3 ADD MSTORE PUSH32 0x4174206C656173742074776F2072657374617572616E7473206D757374206265 PUSH1 0x44 DUP3 ADD MSTORE PUSH7 0x1030B23232B217 PUSH1 0xC9 SHL PUSH1 0x64 DUP3 ADD MSTORE PUSH1 0x84 ADD PUSH2 0x343 JUMP JUMPDEST PUSH1 0x1 PUSH1 0x3 SLOAD GT PUSH2 0xA0B JUMPI PUSH1 0x40 MLOAD PUSH3 0x461BCD PUSH1 0xE5 SHL DUP2 MSTORE PUSH1 0x20 PUSH1 0x4 DUP3 ADD MSTORE PUSH1 0x23 PUSH1 0x24 DUP3 ADD MSTORE PUSH32 0x4174206C656173742074776F20667269656E6473206D75737420626520616464 PUSH1 0x44 DUP3 ADD MSTORE PUSH3 0x32B217 PUSH1 0xE9 SHL PUSH1 0x64 DUP3 ADD MSTORE PUSH1 0x84 ADD PUSH2 0x343 JUMP JUMPDEST PUSH2 0xA15 DUP3 NUMBER PUSH2 0x12BA JUMP JUMPDEST PUSH1 0xA SSTORE POP POP PUSH1 0x9 DUP1 SLOAD PUSH2 0xFFFF NOT AND PUSH2 0x101 OR SWAP1 SSTORE JUMP JUMPDEST PUSH1 0xB SLOAD PUSH1 0x0 SWAP1 PUSH1 0xFF AND ISZERO PUSH2 0xA51 JUMPI PUSH1 0x40 MLOAD PUSH3 0x461BCD PUSH1 0xE5 SHL DUP2 MSTORE PUSH1 0x4 ADD PUSH2 0x343 SWAP1 PUSH2 0x1203 JUMP JUMPDEST PUSH1 0x5 SLOAD PUSH1 0x1 PUSH1 0x1 PUSH1 0xA0 SHL SUB AND CALLER EQ PUSH2 0xA7B JUMPI PUSH1 0x40 MLOAD PUSH3 0x461BCD PUSH1 0xE5 SHL DUP2 MSTORE PUSH1 0x4 ADD PUSH2 0x343 SWAP1 PUSH2 0x1233 JUMP JUMPDEST PUSH1 0x0 DUP1 PUSH1 0x9 SLOAD PUSH2 0x100 SWAP1 DIV PUSH1 0xFF AND PUSH1 0x2 DUP2 GT ISZERO PUSH2 0xA9A JUMPI PUSH2 0xA9A PUSH2 0x138A JUMP JUMPDEST EQ PUSH2 0xAB7 JUMPI PUSH1 0x40 MLOAD PUSH3 0x461BCD PUSH1 0xE5 SHL DUP2 MSTORE PUSH1 0x4 ADD PUSH2 0x343 SWAP1 PUSH2 0x1276 JUMP JUMPDEST PUSH2 0xAC0 DUP4 PUSH2 0xAC7 JUMP JUMPDEST SWAP4 SWAP3 POP POP POP JUMP JUMPDEST PUSH1 0xB SLOAD PUSH1 0x0 SWAP1 PUSH1 0xFF AND ISZERO PUSH2 0xAED JUMPI PUSH1 0x40 MLOAD PUSH3 0x461BCD PUSH1 0xE5 SHL DUP2 MSTORE PUSH1 0x4 ADD PUSH2 0x343 SWAP1 PUSH2 0x1203 JUMP JUMPDEST PUSH1 0x0 DUP1 PUSH1 0x9 SLOAD PUSH2 0x100 SWAP1 DIV PUSH1 0xFF AND PUSH1 0x2 DUP2 GT ISZERO PUSH2 0xB0C JUMPI PUSH2 0xB0C PUSH2 0x138A JUMP JUMPDEST EQ PUSH2 0xB29 JUMPI PUSH1 0x40 MLOAD PUSH3 0x461BCD PUSH1 0xE5 SHL DUP2 MSTORE PUSH1 0x4 ADD PUSH2 0x343 SWAP1 PUSH2 0x1276 JUMP JUMPDEST PUSH1 0x0 DUP4 PUSH1 0x40 MLOAD PUSH1 0x20 ADD PUSH2 0xB3C SWAP2 SWAP1 PUSH2 0x1188 JUMP JUMPDEST PUSH1 0x40 DUP1 MLOAD PUSH1 0x1F NOT DUP2 DUP5 SUB ADD DUP2 MSTORE SWAP2 DUP2 MSTORE DUP2 MLOAD PUSH1 0x20 SWAP3 DUP4 ADD KECCAK256 PUSH1 0x0 DUP2 DUP2 MSTORE PUSH1 0xC SWAP1 SWAP4 MSTORE SWAP2 KECCAK256 SLOAD SWAP1 SWAP2 POP PUSH1 0xFF AND ISZERO PUSH2 0xBB4 JUMPI PUSH1 0x40 MLOAD PUSH3 0x461BCD PUSH1 0xE5 SHL DUP2 MSTORE PUSH1 0x20 PUSH1 0x4 DUP3 ADD MSTORE PUSH1 0x1A PUSH1 0x24 DUP3 ADD MSTORE PUSH32 0x52657374617572616E7420616C7265616479206578697374732E000000000000 PUSH1 0x44 DUP3 ADD MSTORE PUSH1 0x64 ADD PUSH2 0x343 JUMP JUMPDEST PUSH1 0x2 DUP1 SLOAD SWAP1 PUSH1 0x0 PUSH2 0xBC4 DUP4 PUSH2 0x1359 JUMP JUMPDEST SWAP1 SWAP2 SSTORE POP POP PUSH1 0x2 SLOAD PUSH1 0x0 SWAP1 DUP2 MSTORE PUSH1 0x20 DUP2 DUP2 MSTORE PUSH1 0x40 SWAP1 SWAP2 KECCAK256 DUP6 MLOAD PUSH2 0xBE9 SWAP3 DUP8 ADD SWAP1 PUSH2 0xEE8 JUMP JUMPDEST POP PUSH1 0x0 SWAP1 DUP2 MSTORE PUSH1 0xC PUSH1 0x20 MSTORE PUSH1 0x40 SWAP1 KECCAK256 DUP1 SLOAD PUSH1 0xFF NOT AND PUSH1 0x1 OR SWAP1 SSTORE PUSH1 0x2 SLOAD SWAP2 POP POP SWAP2 SWAP1 POP JUMP JUMPDEST PUSH1 0x0 PUSH2 0xC19 DUP3 PUSH2 0x31D JUMP JUMPDEST SWAP3 SWAP2 POP POP JUMP JUMPDEST PUSH1 0x0 PUSH1 0x20 DUP2 SWAP1 MSTORE SWAP1 DUP2 MSTORE PUSH1 0x40 SWAP1 KECCAK256 DUP1 SLOAD PUSH2 0xC38 SWAP1 PUSH2 0x1324 JUMP JUMPDEST DUP1 PUSH1 0x1F ADD PUSH1 0x20 DUP1 SWAP2 DIV MUL PUSH1 0x20 ADD PUSH1 0x40 MLOAD SWAP1 DUP2 ADD PUSH1 0x40 MSTORE DUP1 SWAP3 SWAP2 SWAP1 DUP2 DUP2 MSTORE PUSH1 0x20 ADD DUP3 DUP1 SLOAD PUSH2 0xC64 SWAP1 PUSH2 0x1324 JUMP JUMPDEST DUP1 ISZERO PUSH2 0xCB1 JUMPI DUP1 PUSH1 0x1F LT PUSH2 0xC86 JUMPI PUSH2 0x100 DUP1 DUP4 SLOAD DIV MUL DUP4 MSTORE SWAP2 PUSH1 0x20 ADD SWAP2 PUSH2 0xCB1 JUMP JUMPDEST DUP3 ADD SWAP2 SWAP1 PUSH1 0x0 MSTORE PUSH1 0x20 PUSH1 0x0 KECCAK256 SWAP1 JUMPDEST DUP2 SLOAD DUP2 MSTORE SWAP1 PUSH1 0x1 ADD SWAP1 PUSH1 0x20 ADD DUP1 DUP4 GT PUSH2 0xC94 JUMPI DUP3 SWAP1 SUB PUSH1 0x1F AND DUP3 ADD SWAP2 JUMPDEST POP POP POP POP POP DUP2 JUMP JUMPDEST PUSH1 0x6 DUP1 SLOAD PUSH2 0xC38 SWAP1 PUSH2 0x1324 JUMP JUMPDEST PUSH1 0xB SLOAD PUSH1 0xFF AND ISZERO PUSH2 0xCE9 JUMPI PUSH1 0x40 MLOAD PUSH3 0x461BCD PUSH1 0xE5 SHL DUP2 MSTORE PUSH1 0x4 ADD PUSH2 0x343 SWAP1 PUSH2 0x1203 JUMP JUMPDEST PUSH1 0x5 SLOAD PUSH1 0x1 PUSH1 0x1 PUSH1 0xA0 SHL SUB AND CALLER EQ PUSH2 0xD13 JUMPI PUSH1 0x40 MLOAD PUSH3 0x461BCD PUSH1 0xE5 SHL DUP2 MSTORE PUSH1 0x4 ADD PUSH2 0x343 SWAP1 PUSH2 0x1233 JUMP JUMPDEST PUSH1 0x1 PUSH1 0x9 SLOAD PUSH2 0x100 SWAP1 DIV PUSH1 0xFF AND PUSH1 0x2 DUP2 GT ISZERO PUSH2 0xD31 JUMPI PUSH2 0xD31 PUSH2 0x138A JUMP JUMPDEST EQ PUSH2 0xD75 JUMPI PUSH1 0x40 MLOAD PUSH3 0x461BCD PUSH1 0xE5 SHL DUP2 MSTORE PUSH1 0x20 PUSH1 0x4 DUP3 ADD MSTORE PUSH1 0x14 PUSH1 0x24 DUP3 ADD MSTORE PUSH20 0x2737BA1034B7103B37BA34B73390383430B9B297 PUSH1 0x61 SHL PUSH1 0x44 DUP3 ADD MSTORE PUSH1 0x64 ADD PUSH2 0x343 JUMP JUMPDEST PUSH2 0xD7D PUSH2 0xDD6 JUMP JUMPDEST JUMP JUMPDEST PUSH1 0x5 SLOAD PUSH1 0x1 PUSH1 0x1 PUSH1 0xA0 SHL SUB AND CALLER EQ PUSH2 0xDA9 JUMPI PUSH1 0x40 MLOAD PUSH3 0x461BCD PUSH1 0xE5 SHL DUP2 MSTORE PUSH1 0x4 ADD PUSH2 0x343 SWAP1 PUSH2 0x1233 JUMP JUMPDEST PUSH1 0xB DUP1 SLOAD PUSH1 0xFF NOT SWAP1 DUP2 AND PUSH1 0x1 OR SWAP1 SWAP2 SSTORE PUSH1 0x9 DUP1 SLOAD SWAP2 DUP3 AND DUP2 SSTORE PUSH1 0x2 SWAP2 PUSH2 0xFFFF NOT AND PUSH2 0x100 DUP4 JUMPDEST MUL OR SWAP1 SSTORE POP JUMP JUMPDEST PUSH1 0x4 SLOAD ISZERO PUSH2 0xDE6 JUMPI PUSH2 0xDE6 PUSH2 0xE03 JUMP JUMPDEST PUSH1 0x9 DUP1 SLOAD PUSH1 0xFF NOT DUP2 AND DUP3 SSTORE PUSH1 0x2 SWAP2 SWAP1 PUSH2 0xFFFF NOT AND PUSH2 0x100 DUP4 PUSH2 0xDCF JUMP JUMPDEST PUSH1 0x0 DUP1 PUSH1 0x1 JUMPDEST PUSH1 0x4 SLOAD DUP2 GT PUSH2 0xEBA JUMPI PUSH1 0x0 DUP2 DUP2 MSTORE PUSH1 0x7 PUSH1 0x20 SWAP1 DUP2 MSTORE PUSH1 0x40 DUP1 DUP4 KECCAK256 PUSH1 0x1 SWAP1 DUP2 ADD SLOAD DUP5 MSTORE PUSH1 0x8 SWAP1 SWAP3 MSTORE SWAP1 SWAP2 KECCAK256 SLOAD ISZERO PUSH2 0xE65 JUMPI PUSH1 0x0 DUP3 DUP2 MSTORE PUSH1 0x7 PUSH1 0x20 SWAP1 DUP2 MSTORE PUSH1 0x40 DUP1 DUP4 KECCAK256 PUSH1 0x1 ADD SLOAD DUP4 MSTORE PUSH1 0x8 SWAP1 SWAP2 MSTORE SWAP1 KECCAK256 SLOAD PUSH2 0xE62 SWAP1 DUP3 PUSH2 0x12BA JUMP JUMPDEST SWAP1 POP JUMPDEST PUSH1 0x0 DUP3 DUP2 MSTORE PUSH1 0x7 PUSH1 0x20 SWAP1 DUP2 MSTORE PUSH1 0x40 DUP1 DUP4 KECCAK256 PUSH1 0x1 ADD SLOAD DUP4 MSTORE PUSH1 0x8 SWAP1 SWAP2 MSTORE SWAP1 KECCAK256 DUP2 SWAP1 SSTORE DUP4 DUP2 GT ISZERO PUSH2 0xEA7 JUMPI PUSH1 0x0 DUP3 DUP2 MSTORE PUSH1 0x7 PUSH1 0x20 MSTORE PUSH1 0x40 SWAP1 KECCAK256 PUSH1 0x1 ADD SLOAD SWAP1 SWAP4 POP SWAP2 POP DUP3 JUMPDEST POP DUP1 PUSH2 0xEB2 DUP2 PUSH2 0x1359 JUMP JUMPDEST SWAP2 POP POP PUSH2 0xE09 JUMP JUMPDEST POP PUSH1 0x0 DUP2 DUP2 MSTORE PUSH1 0x20 DUP2 SWAP1 MSTORE PUSH1 0x40 SWAP1 KECCAK256 DUP1 SLOAD PUSH1 0x6 SWAP2 SWAP1 PUSH2 0xED8 SWAP1 PUSH2 0x1324 JUMP JUMPDEST PUSH2 0xEE3 SWAP3 SWAP2 SWAP1 PUSH2 0xF6C JUMP JUMPDEST POP POP POP JUMP JUMPDEST DUP3 DUP1 SLOAD PUSH2 0xEF4 SWAP1 PUSH2 0x1324 JUMP JUMPDEST SWAP1 PUSH1 0x0 MSTORE PUSH1 0x20 PUSH1 0x0 KECCAK256 SWAP1 PUSH1 0x1F ADD PUSH1 0x20 SWAP1 DIV DUP2 ADD SWAP3 DUP3 PUSH2 0xF16 JUMPI PUSH1 0x0 DUP6 SSTORE PUSH2 0xF5C JUMP JUMPDEST DUP3 PUSH1 0x1F LT PUSH2 0xF2F JUMPI DUP1 MLOAD PUSH1 0xFF NOT AND DUP4 DUP1 ADD OR DUP6 SSTORE PUSH2 0xF5C JUMP JUMPDEST DUP3 DUP1 ADD PUSH1 0x1 ADD DUP6 SSTORE DUP3 ISZERO PUSH2 0xF5C JUMPI SWAP2 DUP3 ADD JUMPDEST DUP3 DUP2 GT ISZERO PUSH2 0xF5C JUMPI DUP3 MLOAD DUP3 SSTORE SWAP2 PUSH1 0x20 ADD SWAP2 SWAP1 PUSH1 0x1 ADD SWAP1 PUSH2 0xF41 JUMP JUMPDEST POP PUSH2 0xF68 SWAP3 SWAP2 POP PUSH2 0xFE7 JUMP JUMPDEST POP SWAP1 JUMP JUMPDEST DUP3 DUP1 SLOAD PUSH2 0xF78 SWAP1 PUSH2 0x1324 JUMP JUMPDEST SWAP1 PUSH1 0x0 MSTORE PUSH1 0x20 PUSH1 0x0 KECCAK256 SWAP1 PUSH1 0x1F ADD PUSH1 0x20 SWAP1 DIV DUP2 ADD SWAP3 DUP3 PUSH2 0xF9A JUMPI PUSH1 0x0 DUP6 SSTORE PUSH2 0xF5C JUMP JUMPDEST DUP3 PUSH1 0x1F LT PUSH2 0xFAB JUMPI DUP1 SLOAD DUP6 SSTORE PUSH2 0xF5C JUMP JUMPDEST DUP3 DUP1 ADD PUSH1 0x1 ADD DUP6 SSTORE DUP3 ISZERO PUSH2 0xF5C JUMPI PUSH1 0x0 MSTORE PUSH1 0x20 PUSH1 0x0 KECCAK256 SWAP2 PUSH1 0x1F ADD PUSH1 0x20 SWAP1 DIV DUP3 ADD JUMPDEST DUP3 DUP2 GT ISZERO PUSH2 0xF5C JUMPI DUP3 SLOAD DUP3 SSTORE SWAP2 PUSH1 0x1 ADD SWAP2 SWAP1 PUSH1 0x1 ADD SWAP1 PUSH2 0xFCC JUMP JUMPDEST JUMPDEST DUP1 DUP3 GT ISZERO PUSH2 0xF68 JUMPI PUSH1 0x0 DUP2 SSTORE PUSH1 0x1 ADD PUSH2 0xFE8 JUMP JUMPDEST DUP1 CALLDATALOAD PUSH1 0x1 PUSH1 0x1 PUSH1 0xA0 SHL SUB DUP2 AND DUP2 EQ PUSH2 0x1013 JUMPI PUSH1 0x0 DUP1 REVERT JUMPDEST SWAP2 SWAP1 POP JUMP JUMPDEST PUSH1 0x0 DUP3 PUSH1 0x1F DUP4 ADD SLT PUSH2 0x1029 JUMPI PUSH1 0x0 DUP1 REVERT JUMPDEST DUP2 CALLDATALOAD PUSH8 0xFFFFFFFFFFFFFFFF DUP1 DUP3 GT ISZERO PUSH2 0x1044 JUMPI PUSH2 0x1044 PUSH2 0x13A0 JUMP JUMPDEST PUSH1 0x40 MLOAD PUSH1 0x1F DUP4 ADD PUSH1 0x1F NOT SWAP1 DUP2 AND PUSH1 0x3F ADD AND DUP2 ADD SWAP1 DUP3 DUP3 GT DUP2 DUP4 LT OR ISZERO PUSH2 0x106C JUMPI PUSH2 0x106C PUSH2 0x13A0 JUMP JUMPDEST DUP2 PUSH1 0x40 MSTORE DUP4 DUP2 MSTORE DUP7 PUSH1 0x20 DUP6 DUP9 ADD ADD GT ISZERO PUSH2 0x1085 JUMPI PUSH1 0x0 DUP1 REVERT JUMPDEST DUP4 PUSH1 0x20 DUP8 ADD PUSH1 0x20 DUP4 ADD CALLDATACOPY PUSH1 0x0 PUSH1 0x20 DUP6 DUP4 ADD ADD MSTORE DUP1 SWAP5 POP POP POP POP POP SWAP3 SWAP2 POP POP JUMP JUMPDEST PUSH1 0x0 PUSH1 0x20 DUP3 DUP5 SUB SLT ISZERO PUSH2 0x10B7 JUMPI PUSH1 0x0 DUP1 REVERT JUMPDEST PUSH2 0xAC0 DUP3 PUSH2 0xFFC JUMP JUMPDEST PUSH1 0x0 DUP1 PUSH1 0x40 DUP4 DUP6 SUB SLT ISZERO PUSH2 0x10D3 JUMPI PUSH1 0x0 DUP1 REVERT JUMPDEST PUSH2 0x10DC DUP4 PUSH2 0xFFC JUMP JUMPDEST SWAP2 POP PUSH1 0x20 DUP4 ADD CALLDATALOAD PUSH8 0xFFFFFFFFFFFFFFFF DUP2 GT ISZERO PUSH2 0x10F8 JUMPI PUSH1 0x0 DUP1 REVERT JUMPDEST PUSH2 0x1104 DUP6 DUP3 DUP7 ADD PUSH2 0x1018 JUMP JUMPDEST SWAP2 POP POP SWAP3 POP SWAP3 SWAP1 POP JUMP JUMPDEST PUSH1 0x0 PUSH1 0x20 DUP3 DUP5 SUB SLT ISZERO PUSH2 0x1120 JUMPI PUSH1 0x0 DUP1 REVERT JUMPDEST DUP2 CALLDATALOAD PUSH8 0xFFFFFFFFFFFFFFFF DUP2 GT ISZERO PUSH2 0x1137 JUMPI PUSH1 0x0 DUP1 REVERT JUMPDEST PUSH2 0x8BA DUP5 DUP3 DUP6 ADD PUSH2 0x1018 JUMP JUMPDEST PUSH1 0x0 PUSH1 0x20 DUP3 DUP5 SUB SLT ISZERO PUSH2 0x1155 JUMPI PUSH1 0x0 DUP1 REVERT JUMPDEST POP CALLDATALOAD SWAP2 SWAP1 POP JUMP JUMPDEST PUSH1 0x0 DUP2 MLOAD DUP1 DUP5 MSTORE PUSH2 0x1174 DUP2 PUSH1 0x20 DUP7 ADD PUSH1 0x20 DUP7 ADD PUSH2 0x12F4 JUMP JUMPDEST PUSH1 0x1F ADD PUSH1 0x1F NOT AND SWAP3 SWAP1 SWAP3 ADD PUSH1 0x20 ADD SWAP3 SWAP2 POP POP JUMP JUMPDEST PUSH1 0x0 DUP3 MLOAD PUSH2 0x119A DUP2 DUP5 PUSH1 0x20 DUP8 ADD PUSH2 0x12F4 JUMP JUMPDEST SWAP2 SWAP1 SWAP2 ADD SWAP3 SWAP2 POP POP JUMP JUMPDEST PUSH1 0x20 DUP2 ADD PUSH1 0x3 DUP4 LT PUSH2 0x11C6 JUMPI PUSH4 0x4E487B71 PUSH1 0xE0 SHL PUSH1 0x0 MSTORE PUSH1 0x21 PUSH1 0x4 MSTORE PUSH1 0x24 PUSH1 0x0 REVERT JUMPDEST SWAP2 SWAP1 MSTORE SWAP1 JUMP JUMPDEST PUSH1 0x20 DUP2 MSTORE PUSH1 0x0 PUSH2 0xAC0 PUSH1 0x20 DUP4 ADD DUP5 PUSH2 0x115C JUMP JUMPDEST PUSH1 0x40 DUP2 MSTORE PUSH1 0x0 PUSH2 0x11F2 PUSH1 0x40 DUP4 ADD DUP6 PUSH2 0x115C JUMP JUMPDEST SWAP1 POP DUP3 ISZERO ISZERO PUSH1 0x20 DUP4 ADD MSTORE SWAP4 SWAP3 POP POP POP JUMP JUMPDEST PUSH1 0x20 DUP1 DUP3 MSTORE PUSH1 0x16 SWAP1 DUP3 ADD MSTORE PUSH22 0x21B7B73A3930B1BA1034B99039B43ABA103237BBB717 PUSH1 0x51 SHL PUSH1 0x40 DUP3 ADD MSTORE PUSH1 0x60 ADD SWAP1 JUMP JUMPDEST PUSH1 0x20 DUP1 DUP3 MSTORE PUSH1 0x23 SWAP1 DUP3 ADD MSTORE PUSH32 0x43616E206F6E6C7920626520657865637574656420627920746865206D616E61 PUSH1 0x40 DUP3 ADD MSTORE PUSH3 0x33B2B9 PUSH1 0xE9 SHL PUSH1 0x60 DUP3 ADD MSTORE PUSH1 0x80 ADD SWAP1 JUMP JUMPDEST PUSH1 0x20 DUP1 DUP3 MSTORE PUSH1 0x24 SWAP1 DUP3 ADD MSTORE PUSH32 0x416374696F6E206E6F7420616C6C6F77656420696E2063757272656E74207068 PUSH1 0x40 DUP3 ADD MSTORE PUSH4 0x30B9B297 PUSH1 0xE1 SHL PUSH1 0x60 DUP3 ADD MSTORE PUSH1 0x80 ADD SWAP1 JUMP JUMPDEST PUSH1 0x0 DUP3 NOT DUP3 GT ISZERO PUSH2 0x12CD JUMPI PUSH2 0x12CD PUSH2 0x1374 JUMP JUMPDEST POP ADD SWAP1 JUMP JUMPDEST PUSH1 0x0 DUP3 PUSH2 0x12EF JUMPI PUSH4 0x4E487B71 PUSH1 0xE0 SHL PUSH1 0x0 MSTORE PUSH1 0x12 PUSH1 0x4 MSTORE PUSH1 0x24 PUSH1 0x0 REVERT JUMPDEST POP DIV SWAP1 JUMP JUMPDEST PUSH1 0x0 JUMPDEST DUP4 DUP2 LT ISZERO PUSH2 0x130F JUMPI DUP2 DUP2 ADD MLOAD DUP4 DUP3 ADD MSTORE PUSH1 0x20 ADD PUSH2 0x12F7 JUMP JUMPDEST DUP4 DUP2 GT ISZERO PUSH2 0x131E JUMPI PUSH1 0x0 DUP5 DUP5 ADD MSTORE JUMPDEST POP POP POP POP JUMP JUMPDEST PUSH1 0x1 DUP2 DUP2 SHR SWAP1 DUP3 AND DUP1 PUSH2 0x1338 JUMPI PUSH1 0x7F DUP3 AND SWAP2 POP JUMPDEST PUSH1 0x20 DUP3 LT DUP2 EQ ISZERO PUSH2 0x5E6 JUMPI PUSH4 0x4E487B71 PUSH1 0xE0 SHL PUSH1 0x0 MSTORE PUSH1 0x22 PUSH1 0x4 MSTORE PUSH1 0x24 PUSH1 0x0 REVERT JUMPDEST PUSH1 0x0 PUSH1 0x0 NOT DUP3 EQ ISZERO PUSH2 0x136D JUMPI PUSH2 0x136D PUSH2 0x1374 JUMP JUMPDEST POP PUSH1 0x1 ADD SWAP1 JUMP JUMPDEST PUSH4 0x4E487B71 PUSH1 0xE0 SHL PUSH1 0x0 MSTORE PUSH1 0x11 PUSH1 0x4 MSTORE PUSH1 0x24 PUSH1 0x0 REVERT JUMPDEST PUSH4 0x4E487B71 PUSH1 0xE0 SHL PUSH1 0x0 MSTORE PUSH1 0x21 PUSH1 0x4 MSTORE PUSH1 0x24 PUSH1 0x0 REVERT JUMPDEST PUSH4 0x4E487B71 PUSH1 0xE0 SHL PUSH1 0x0 MSTORE PUSH1 0x41 PUSH1 0x4 MSTORE PUSH1 0x24 PUSH1 0x0 REVERT INVALID LOG2 PUSH5 0x6970667358 0x22 SLT KECCAK256 PUSH31 0xD7510C2CD54F83B54E0BEF28EE30910866D4952086A970061C53CB3EBA131E PUSH5 0x736F6C6343 STOP ADDMOD SDIV STOP CALLER "
				},
				"gasEstimates": {
					"creation": {
						"codeDepositCost": "1020000",
						"executionCost": "infinite",
						"totalCost": "infinite"
					},
					"external": {
						"_addFriend(address,string)": "infinite",
						"_addRestaurant(string)": "infinite",
						"addFriend(address,string)": "infinite",
						"addRestaurant(string)": "infinite",
						"currentPhase()": "2386",
						"doVote(uint256)": "infinite",
						"endBlock()": "2341",
						"endVoting()": "infinite",
						"friends(address)": "infinite",
						"isShutdown()": "2376",
						"manager()": "2426",
						"numFriends()": "2362",
						"numRestaurants()": "2339",
						"numVotes()": "2406",
						"restaurants(uint256)": "infinite",
						"shutdown()": "73002",
						"startVoting(uint256)": "57347",
						"voteAs(uint256)": "infinite",
						"voteOpen()": "2377",
						"votedRestaurant()": "infinite",
						"votes(uint256)": "4736"
					},
					"internal": {
						"_endVoting()": "infinite",
						"finalResult()": "infinite"
					}
				},
				"methodIdentifiers": {
					"_addFriend(address,string)": "2d8c6f42",
					"_addRestaurant(string)": "781a38a3",
					"addFriend(address,string)": "3b9f708d",
					"addRestaurant(string)": "6d77bd3e",
					"currentPhase()": "055ad42e",
					"doVote(uint256)": "124258c6",
					"endBlock()": "083c6323",
					"endVoting()": "c3403ddf",
					"friends(address)": "1ddabf7a",
					"isShutdown()": "bf86d690",
					"manager()": "481c6a75",
					"numFriends()": "47098f36",
					"numRestaurants()": "b798867f",
					"numVotes()": "a3bef4d7",
					"restaurants(uint256)": "ad5461d8",
					"shutdown()": "fc0e74d1",
					"startVoting(uint256)": "3d2f5bda",
					"voteAs(uint256)": "8f43f134",
					"voteOpen()": "788d3851",
					"votedRestaurant()": "c1c16efc",
					"votes(uint256)": "5df81330"
				}
			},
			"storageLayout": {
				"storage": [
					{
						"astId": 16,
						"contract": "contracts/LunchVenue_updated.sol:LunchVenue_updated",
						"label": "restaurants",
						"offset": 0,
						"slot": "0",
						"type": "t_mapping(t_uint256,t_string_storage)"
					},
					{
						"astId": 21,
						"contract": "contracts/LunchVenue_updated.sol:LunchVenue_updated",
						"label": "friends",
						"offset": 0,
						"slot": "1",
						"type": "t_mapping(t_address,t_struct(Friend)7_storage)"
					},
					{
						"astId": 24,
						"contract": "contracts/LunchVenue_updated.sol:LunchVenue_updated",
						"label": "numRestaurants",
						"offset": 0,
						"slot": "2",
						"type": "t_uint256"
					},
					{
						"astId": 27,
						"contract": "contracts/LunchVenue_updated.sol:LunchVenue_updated",
						"label": "numFriends",
						"offset": 0,
						"slot": "3",
						"type": "t_uint256"
					},
					{
						"astId": 30,
						"contract": "contracts/LunchVenue_updated.sol:LunchVenue_updated",
						"label": "numVotes",
						"offset": 0,
						"slot": "4",
						"type": "t_uint256"
					},
					{
						"astId": 32,
						"contract": "contracts/LunchVenue_updated.sol:LunchVenue_updated",
						"label": "manager",
						"offset": 0,
						"slot": "5",
						"type": "t_address"
					},
					{
						"astId": 35,
						"contract": "contracts/LunchVenue_updated.sol:LunchVenue_updated",
						"label": "votedRestaurant",
						"offset": 0,
						"slot": "6",
						"type": "t_string_storage"
					},
					{
						"astId": 40,
						"contract": "contracts/LunchVenue_updated.sol:LunchVenue_updated",
						"label": "votes",
						"offset": 0,
						"slot": "7",
						"type": "t_mapping(t_uint256,t_struct(Vote)12_storage)"
					},
					{
						"astId": 44,
						"contract": "contracts/LunchVenue_updated.sol:LunchVenue_updated",
						"label": "_results",
						"offset": 0,
						"slot": "8",
						"type": "t_mapping(t_uint256,t_uint256)"
					},
					{
						"astId": 47,
						"contract": "contracts/LunchVenue_updated.sol:LunchVenue_updated",
						"label": "voteOpen",
						"offset": 0,
						"slot": "9",
						"type": "t_bool"
					},
					{
						"astId": 56,
						"contract": "contracts/LunchVenue_updated.sol:LunchVenue_updated",
						"label": "currentPhase",
						"offset": 1,
						"slot": "9",
						"type": "t_enum(Phase)51"
					},
					{
						"astId": 58,
						"contract": "contracts/LunchVenue_updated.sol:LunchVenue_updated",
						"label": "endBlock",
						"offset": 0,
						"slot": "10",
						"type": "t_uint256"
					},
					{
						"astId": 61,
						"contract": "contracts/LunchVenue_updated.sol:LunchVenue_updated",
						"label": "isShutdown",
						"offset": 0,
						"slot": "11",
						"type": "t_bool"
					},
					{
						"astId": 65,
						"contract": "contracts/LunchVenue_updated.sol:LunchVenue_updated",
						"label": "restaurantExists",
						"offset": 0,
						"slot": "12",
						"type": "t_mapping(t_bytes32,t_bool)"
					}
				],
				"types": {
					"t_address": {
						"encoding": "inplace",
						"label": "address",
						"numberOfBytes": "20"
					},
					"t_bool": {
						"encoding": "inplace",
						"label": "bool",
						"numberOfBytes": "1"
					},
					"t_bytes32": {
						"encoding": "inplace",
						"label": "bytes32",
						"numberOfBytes": "32"
					},
					"t_enum(Phase)51": {
						"encoding": "inplace",
						"label": "enum LunchVenue_updated.Phase",
						"numberOfBytes": "1"
					},
					"t_mapping(t_address,t_struct(Friend)7_storage)": {
						"encoding": "mapping",
						"key": "t_address",
						"label": "mapping(address => struct LunchVenue_updated.Friend)",
						"numberOfBytes": "32",
						"value": "t_struct(Friend)7_storage"
					},
					"t_mapping(t_bytes32,t_bool)": {
						"encoding": "mapping",
						"key": "t_bytes32",
						"label": "mapping(bytes32 => bool)",
						"numberOfBytes": "32",
						"value": "t_bool"
					},
					"t_mapping(t_uint256,t_string_storage)": {
						"encoding": "mapping",
						"key": "t_uint256",
						"label": "mapping(uint256 => string)",
						"numberOfBytes": "32",
						"value": "t_string_storage"
					},
					"t_mapping(t_uint256,t_struct(Vote)12_storage)": {
						"encoding": "mapping",
						"key": "t_uint256",
						"label": "mapping(uint256 => struct LunchVenue_updated.Vote)",
						"numberOfBytes": "32",
						"value": "t_struct(Vote)12_storage"
					},
					"t_mapping(t_uint256,t_uint256)": {
						"encoding": "mapping",
						"key": "t_uint256",
						"label": "mapping(uint256 => uint256)",
						"numberOfBytes": "32",
						"value": "t_uint256"
					},
					"t_string_storage": {
						"encoding": "bytes",
						"label": "string",
						"numberOfBytes": "32"
					},
					"t_struct(Friend)7_storage": {
						"encoding": "inplace",
						"label": "struct LunchVenue_updated.Friend",
						"members": [
							{
								"astId": 4,
								"contract": "contracts/LunchVenue_updated.sol:LunchVenue_updated",
								"label": "name",
								"offset": 0,
								"slot": "0",
								"type": "t_string_storage"
							},
							{
								"astId": 6,
								"contract": "contracts/LunchVenue_updated.sol:LunchVenue_updated",
								"label": "voted",
								"offset": 0,
								"slot": "1",
								"type": "t_bool"
							}
						],
						"numberOfBytes": "64"
					},
					"t_struct(Vote)12_storage": {
						"encoding": "inplace",
						"label": "struct LunchVenue_updated.Vote",
						"members": [
							{
								"astId": 9,
								"contract": "contracts/LunchVenue_updated.sol:LunchVenue_updated",
								"label": "voterAddress",
								"offset": 0,
								"slot": "0",
								"type": "t_address"
							},
							{
								"astId": 11,
								"contract": "contracts/LunchVenue_updated.sol:LunchVenue_updated",
								"label": "restaurant",
								"offset": 0,
								"slot": "1",
								"type": "t_uint256"
							}
						],
						"numberOfBytes": "64"
					},
					"t_uint256": {
						"encoding": "inplace",
						"label": "uint256",
						"numberOfBytes": "32"
					}
				}
			},
			"userdoc": {
				"kind": "user",
				"methods": {
					"addFriend(address,string)": {
						"notice": "Public interface for adding a new friend to voter list"
					},
					"addRestaurant(string)": {
						"notice": "Public interface for adding a new restaurant"
					},
					"doVote(uint256)": {
						"notice": "Vote for a restaurant"
					},
					"endVoting()": {
						"notice": "Force end voting (for timeout or manager decision)"
					},
					"shutdown()": {
						"notice": "Shutdown the contract"
					},
					"startVoting(uint256)": {
						"notice": "Start the voting phase"
					}
				},
				"notice": "Testing Strategy - To enable catching revert reasons during testing, certain logic functions (e.g., addFriend/addRestaurant)    are wrapped in externally callable functions (_addFriend/_addRestaurant) with identical protections.   This allows precise unit testing without exposing functionality in production deployments.",
				"version": 1
			}
		}
	}
}