{
	"contracts/LunchVenue.sol": {
		"LunchVenue": {
			"abi": [
				{
					"inputs": [],
					"stateMutability": "nonpayable",
					"type": "constructor"
				},
				{
					"inputs": [
						{
							"internalType": "address",
							"name": "friendAddress",
							"type": "address"
						},
						{
							"internalType": "string",
							"name": "name",
							"type": "string"
						}
					],
					"name": "addFriend",
					"outputs": [
						{
							"internalType": "uint256",
							"name": "",
							"type": "uint256"
						}
					],
					"stateMutability": "nonpayable",
					"type": "function"
				},
				{
					"inputs": [
						{
							"internalType": "string",
							"name": "name",
							"type": "string"
						}
					],
					"name": "addRestaurant",
					"outputs": [
						{
							"internalType": "uint256",
							"name": "",
							"type": "uint256"
						}
					],
					"stateMutability": "nonpayable",
					"type": "function"
				},
				{
					"inputs": [],
					"name": "currentPhase",
					"outputs": [
						{
							"internalType": "enum LunchVenue.Phase",
							"name": "",
							"type": "uint8"
						}
					],
					"stateMutability": "view",
					"type": "function"
				},
				{
					"inputs": [
						{
							"internalType": "uint256",
							"name": "restaurant",
							"type": "uint256"
						}
					],
					"name": "doVote",
					"outputs": [
						{
							"internalType": "bool",
							"name": "validVote",
							"type": "bool"
						}
					],
					"stateMutability": "nonpayable",
					"type": "function"
				},
				{
					"inputs": [],
					"name": "endBlock",
					"outputs": [
						{
							"internalType": "uint256",
							"name": "",
							"type": "uint256"
						}
					],
					"stateMutability": "view",
					"type": "function"
				},
				{
					"inputs": [],
					"name": "endVoting",
					"outputs": [],
					"stateMutability": "nonpayable",
					"type": "function"
				},
				{
					"inputs": [
						{
							"internalType": "address",
							"name": "",
							"type": "address"
						}
					],
					"name": "friends",
					"outputs": [
						{
							"internalType": "string",
							"name": "name",
							"type": "string"
						},
						{
							"internalType": "bool",
							"name": "voted",
							"type": "bool"
						}
					],
					"stateMutability": "view",
					"type": "function"
				},
				{
					"inputs": [],
					"name": "isShutdown",
					"outputs": [
						{
							"internalType": "bool",
							"name": "",
							"type": "bool"
						}
					],
					"stateMutability": "view",
					"type": "function"
				},
				{
					"inputs": [],
					"name": "manager",
					"outputs": [
						{
							"internalType": "address",
							"name": "",
							"type": "address"
						}
					],
					"stateMutability": "view",
					"type": "function"
				},
				{
					"inputs": [],
					"name": "numFriends",
					"outputs": [
						{
							"internalType": "uint256",
							"name": "",
							"type": "uint256"
						}
					],
					"stateMutability": "view",
					"type": "function"
				},
				{
					"inputs": [],
					"name": "numRestaurants",
					"outputs": [
						{
							"internalType": "uint256",
							"name": "",
							"type": "uint256"
						}
					],
					"stateMutability": "view",
					"type": "function"
				},
				{
					"inputs": [],
					"name": "numVotes",
					"outputs": [
						{
							"internalType": "uint256",
							"name": "",
							"type": "uint256"
						}
					],
					"stateMutability": "view",
					"type": "function"
				},
				{
					"inputs": [
						{
							"internalType": "uint256",
							"name": "",
							"type": "uint256"
						}
					],
					"name": "restaurants",
					"outputs": [
						{
							"internalType": "string",
							"name": "",
							"type": "string"
						}
					],
					"stateMutability": "view",
					"type": "function"
				},
				{
					"inputs": [],
					"name": "shutdown",
					"outputs": [],
					"stateMutability": "nonpayable",
					"type": "function"
				},
				{
					"inputs": [
						{
							"internalType": "uint256",
							"name": "blocksUntilEnd",
							"type": "uint256"
						}
					],
					"name": "startVoting",
					"outputs": [],
					"stateMutability": "nonpayable",
					"type": "function"
				},
				{
					"inputs": [],
					"name": "voteOpen",
					"outputs": [
						{
							"internalType": "bool",
							"name": "",
							"type": "bool"
						}
					],
					"stateMutability": "view",
					"type": "function"
				},
				{
					"inputs": [],
					"name": "votedRestaurant",
					"outputs": [
						{
							"internalType": "string",
							"name": "",
							"type": "string"
						}
					],
					"stateMutability": "view",
					"type": "function"
				},
				{
					"inputs": [
						{
							"internalType": "uint256",
							"name": "",
							"type": "uint256"
						}
					],
					"name": "votes",
					"outputs": [
						{
							"internalType": "address",
							"name": "voterAddress",
							"type": "address"
						},
						{
							"internalType": "uint256",
							"name": "restaurant",
							"type": "uint256"
						}
					],
					"stateMutability": "view",
					"type": "function"
				}
			],
			"devdoc": {
				"kind": "dev",
				"methods": {
					"addFriend(address,string)": {
						"details": "Prevents duplication of friends",
						"params": {
							"friendAddress": "Friend's account/address",
							"name": "Friend's name"
						},
						"returns": {
							"_0": "Number of friends added so far"
						}
					},
					"addRestaurant(string)": {
						"details": "Prevents duplication of restaurants by checking name hash",
						"params": {
							"name": "Restaurant name"
						},
						"returns": {
							"_0": "Number of restaurants added so far"
						}
					},
					"constructor": {
						"details": "Set manager when contract starts"
					},
					"doVote(uint256)": {
						"details": "Prevents duplicate votes and enforces timeout",
						"params": {
							"restaurant": "Restaurant number being voted"
						},
						"returns": {
							"validVote": "Is the vote valid? A valid vote should be from a registered  friend to a registered restaurant"
						}
					},
					"endVoting()": {
						"details": "Can be called by manager or automatically when timeout reached"
					},
					"shutdown()": {
						"details": "Only manager can shutdown, prevents all future interactions"
					},
					"startVoting(uint256)": {
						"details": "Only manager can start voting and set timeout",
						"params": {
							"blocksUntilEnd": "Number of blocks until voting ends"
						}
					}
				},
				"version": 1
			},
			"evm": {
				"assembly": "    /* \"contracts/LunchVenue.sol\":2980:2981  0 */\n  0x00\n    /* \"contracts/LunchVenue.sol\":2951:2981  uint public numRestaurants = 0 */\n  0x02\n  dup2\n  swap1\n  sstore\n    /* \"contracts/LunchVenue.sol\":2987:3013  uint public numFriends = 0 */\n  0x03\n  dup2\n  swap1\n  sstore\n    /* \"contracts/LunchVenue.sol\":3019:3043  uint public numVotes = 0 */\n  0x04\n  dup2\n  swap1\n  sstore\n    /* \"contracts/LunchVenue.sol\":3077:3111  string public votedRestaurant = \"\" */\n  0xa0\n    /* \"contracts/LunchVenue.sol\":2673:10474  contract LunchVenue{... */\n  0x40\n    /* \"contracts/LunchVenue.sol\":3077:3111  string public votedRestaurant = \"\" */\n  dup2\n  swap1\n  mstore\n    /* \"contracts/LunchVenue.sol\":2673:10474  contract LunchVenue{... */\n  0x80\n    /* \"contracts/LunchVenue.sol\":3077:3111  string public votedRestaurant = \"\" */\n  dup3\n  swap1\n  mstore\n  tag_1\n  swap2\n  0x06\n  swap2\n  swap1\n  tag_2\n  jump\t// in\ntag_1:\n  pop\n    /* \"contracts/LunchVenue.sol\":3204:3232  bool public voteOpen = false */\n  0x09\n  dup1\n  sload\n  not(0xffff)\n    /* \"contracts/LunchVenue.sol\":3384:3423  Phase public currentPhase = Phase.Setup */\n  and\n  swap1\n  sstore\n    /* \"contracts/LunchVenue.sol\":3562:3592  bool public isShutdown = false */\n  0x0b\n  dup1\n  sload\n  not(0xff)\n  and\n  swap1\n  sstore\n    /* \"contracts/LunchVenue.sol\":3820:3872  constructor () {... */\n  callvalue\n  dup1\n  iszero\n  tag_6\n  jumpi\n  0x00\n  dup1\n  revert\ntag_6:\n  pop\n    /* \"contracts/LunchVenue.sol\":3845:3852  manager */\n  0x05\n    /* \"contracts/LunchVenue.sol\":3845:3865  manager = msg.sender */\n  dup1\n  sload\n  not(sub(shl(0xa0, 0x01), 0x01))\n  and\n    /* \"contracts/LunchVenue.sol\":3855:3865  msg.sender */\n  caller\n    /* \"contracts/LunchVenue.sol\":3845:3865  manager = msg.sender */\n  or\n  swap1\n  sstore\n    /* \"contracts/LunchVenue.sol\":2673:10474  contract LunchVenue{... */\n  jump(tag_21)\ntag_2:\n  dup3\n  dup1\n  sload\n  tag_10\n  swap1\n  tag_11\n  jump\t// in\ntag_10:\n  swap1\n  0x00\n  mstore\n  keccak256(0x00, 0x20)\n  swap1\n  0x1f\n  add\n  0x20\n  swap1\n  div\n  dup2\n  add\n  swap3\n  dup3\n  tag_13\n  jumpi\n  0x00\n  dup6\n  sstore\n  jump(tag_16)\ntag_13:\n  dup3\n  0x1f\n  lt\n  tag_14\n  jumpi\n  dup1\n  mload\n  not(0xff)\n  and\n  dup4\n  dup1\n  add\n  or\n  dup6\n  sstore\n  jump(tag_16)\ntag_14:\n  dup3\n  dup1\n  add\n  0x01\n  add\n  dup6\n  sstore\n  dup3\n  iszero\n  tag_16\n  jumpi\n  swap2\n  dup3\n  add\ntag_15:\n  dup3\n  dup2\n  gt\n  iszero\n  tag_16\n  jumpi\n  dup3\n  mload\n  dup3\n  sstore\n  swap2\n  0x20\n  add\n  swap2\n  swap1\n  0x01\n  add\n  swap1\n  jump(tag_15)\ntag_16:\n  pop\n  tag_17\n  swap3\n  swap2\n  pop\n  tag_18\n  jump\t// in\ntag_17:\n  pop\n  swap1\n  jump\t// out\ntag_18:\ntag_19:\n  dup1\n  dup3\n  gt\n  iszero\n  tag_17\n  jumpi\n  0x00\n  dup2\n  sstore\n  0x01\n  add\n  jump(tag_19)\n    /* \"#utility.yul\":14:394   */\ntag_11:\n    /* \"#utility.yul\":93:94   */\n  0x01\n    /* \"#utility.yul\":89:101   */\n  dup2\n  dup2\n  shr\n  swap1\n    /* \"#utility.yul\":136:148   */\n  dup3\n  and\n  dup1\n    /* \"#utility.yul\":157:159   */\n  tag_23\n  jumpi\n    /* \"#utility.yul\":211:215   */\n  0x7f\n    /* \"#utility.yul\":203:209   */\n  dup3\n    /* \"#utility.yul\":199:216   */\n  and\n    /* \"#utility.yul\":189:216   */\n  swap2\n  pop\n    /* \"#utility.yul\":157:159   */\ntag_23:\n    /* \"#utility.yul\":264:266   */\n  0x20\n    /* \"#utility.yul\":256:262   */\n  dup3\n    /* \"#utility.yul\":253:267   */\n  lt\n    /* \"#utility.yul\":233:251   */\n  dup2\n    /* \"#utility.yul\":230:268   */\n  eq\n    /* \"#utility.yul\":227:229   */\n  iszero\n  tag_24\n  jumpi\n    /* \"#utility.yul\":310:320   */\n  0x4e487b71\n    /* \"#utility.yul\":305:308   */\n  0xe0\n    /* \"#utility.yul\":301:321   */\n  shl\n    /* \"#utility.yul\":298:299   */\n  0x00\n    /* \"#utility.yul\":291:322   */\n  mstore\n    /* \"#utility.yul\":345:349   */\n  0x22\n    /* \"#utility.yul\":342:343   */\n  0x04\n    /* \"#utility.yul\":335:350   */\n  mstore\n    /* \"#utility.yul\":373:377   */\n  0x24\n    /* \"#utility.yul\":370:371   */\n  0x00\n    /* \"#utility.yul\":363:378   */\n  revert\n    /* \"#utility.yul\":227:229   */\ntag_24:\n  pop\n    /* \"#utility.yul\":69:394   */\n  swap2\n  swap1\n  pop\n  jump\t// out\n    /* \"#utility.yul\":431:526   */\ntag_21:\n    /* \"contracts/LunchVenue.sol\":2673:10474  contract LunchVenue{... */\n  dataSize(sub_0)\n  dup1\n  dataOffset(sub_0)\n  0x00\n  codecopy\n  0x00\n  return\nstop\n\nsub_0: assembly {\n        /* \"contracts/LunchVenue.sol\":2673:10474  contract LunchVenue{... */\n      mstore(0x40, 0x80)\n      callvalue\n      dup1\n      iszero\n      tag_1\n      jumpi\n      0x00\n      dup1\n      revert\n    tag_1:\n      pop\n      jumpi(tag_2, lt(calldatasize, 0x04))\n      shr(0xe0, calldataload(0x00))\n      dup1\n      0x6d77bd3e\n      gt\n      tag_21\n      jumpi\n      dup1\n      0xb798867f\n      gt\n      tag_22\n      jumpi\n      dup1\n      0xb798867f\n      eq\n      tag_16\n      jumpi\n      dup1\n      0xbf86d690\n      eq\n      tag_17\n      jumpi\n      dup1\n      0xc1c16efc\n      eq\n      tag_18\n      jumpi\n      dup1\n      0xc3403ddf\n      eq\n      tag_19\n      jumpi\n      dup1\n      0xfc0e74d1\n      eq\n      tag_20\n      jumpi\n      0x00\n      dup1\n      revert\n    tag_22:\n      dup1\n      0x6d77bd3e\n      eq\n      tag_12\n      jumpi\n      dup1\n      0x788d3851\n      eq\n      tag_13\n      jumpi\n      dup1\n      0xa3bef4d7\n      eq\n      tag_14\n      jumpi\n      dup1\n      0xad5461d8\n      eq\n      tag_15\n      jumpi\n      0x00\n      dup1\n      revert\n    tag_21:\n      dup1\n      0x3b9f708d\n      gt\n      tag_23\n      jumpi\n      dup1\n      0x3b9f708d\n      eq\n      tag_7\n      jumpi\n      dup1\n      0x3d2f5bda\n      eq\n      tag_8\n      jumpi\n      dup1\n      0x47098f36\n      eq\n      tag_9\n      jumpi\n      dup1\n      0x481c6a75\n      eq\n      tag_10\n      jumpi\n      dup1\n      0x5df81330\n      eq\n      tag_11\n      jumpi\n      0x00\n      dup1\n      revert\n    tag_23:\n      dup1\n      0x055ad42e\n      eq\n      tag_3\n      jumpi\n      dup1\n      0x083c6323\n      eq\n      tag_4\n      jumpi\n      dup1\n      0x124258c6\n      eq\n      tag_5\n      jumpi\n      dup1\n      0x1ddabf7a\n      eq\n      tag_6\n      jumpi\n    tag_2:\n      0x00\n      dup1\n      revert\n        /* \"contracts/LunchVenue.sol\":3384:3423  Phase public currentPhase = Phase.Setup */\n    tag_3:\n      sload(0x09)\n      tag_24\n      swap1\n      0x0100\n      swap1\n      div\n      0xff\n      and\n      dup2\n      jump\n    tag_24:\n      mload(0x40)\n      tag_26\n      swap2\n      swap1\n      tag_27\n      jump\t// in\n    tag_26:\n      mload(0x40)\n      dup1\n      swap2\n      sub\n      swap1\n      return\n        /* \"contracts/LunchVenue.sol\":3473:3493  uint public endBlock */\n    tag_4:\n      tag_28\n      sload(0x0a)\n      dup2\n      jump\n    tag_28:\n      mload(0x40)\n        /* \"#utility.yul\":9110:9135   */\n      swap1\n      dup2\n      mstore\n        /* \"#utility.yul\":9098:9100   */\n      0x20\n        /* \"#utility.yul\":9083:9101   */\n      add\n        /* \"contracts/LunchVenue.sol\":3473:3493  uint public endBlock */\n      tag_26\n        /* \"#utility.yul\":9065:9141   */\n      jump\n        /* \"contracts/LunchVenue.sol\":7494:8634  function doVote(uint restaurant) public contractActive onlyDuring(Phase.Voting) votingOpen returns (bool validVote){... */\n    tag_5:\n      tag_32\n      tag_33\n      calldatasize\n      0x04\n      tag_34\n      jump\t// in\n    tag_33:\n      tag_35\n      jump\t// in\n    tag_32:\n      mload(0x40)\n        /* \"#utility.yul\":3216:3230   */\n      swap1\n      iszero\n        /* \"#utility.yul\":3209:3231   */\n      iszero\n        /* \"#utility.yul\":3191:3232   */\n      dup2\n      mstore\n        /* \"#utility.yul\":3179:3181   */\n      0x20\n        /* \"#utility.yul\":3164:3182   */\n      add\n        /* \"contracts/LunchVenue.sol\":7494:8634  function doVote(uint restaurant) public contractActive onlyDuring(Phase.Voting) votingOpen returns (bool validVote){... */\n      tag_26\n        /* \"#utility.yul\":3146:3238   */\n      jump\n        /* \"contracts/LunchVenue.sol\":2904:2945  mapping(address => Friend) public friends */\n    tag_6:\n      tag_38\n      tag_39\n      calldatasize\n      0x04\n      tag_40\n      jump\t// in\n    tag_39:\n      tag_41\n      jump\t// in\n    tag_38:\n      mload(0x40)\n      tag_26\n      swap3\n      swap2\n      swap1\n      tag_43\n      jump\t// in\n        /* \"contracts/LunchVenue.sol\":4847:5399  function addFriend(address friendAddress, string memory name) public restricted contractActive onlyDuring(Phase.Setup) returns (uint){... */\n    tag_7:\n      tag_28\n      tag_45\n      calldatasize\n      0x04\n      tag_46\n      jump\t// in\n    tag_45:\n      tag_47\n      jump\t// in\n        /* \"contracts/LunchVenue.sol\":5592:6102  function startVoting(uint blocksUntilEnd) public restricted contractActive onlyDuring(Phase.Setup) {... */\n    tag_8:\n      tag_49\n      tag_50\n      calldatasize\n      0x04\n      tag_34\n      jump\t// in\n    tag_50:\n      tag_51\n      jump\t// in\n    tag_49:\n      stop\n        /* \"contracts/LunchVenue.sol\":2987:3013  uint public numFriends = 0 */\n    tag_9:\n      tag_28\n      sload(0x03)\n      dup2\n      jump\n        /* \"contracts/LunchVenue.sol\":3049:3071  address public manager */\n    tag_10:\n      sload(0x05)\n      tag_55\n      swap1\n      sub(shl(0xa0, 0x01), 0x01)\n      and\n      dup2\n      jump\n    tag_55:\n      mload(0x40)\n      sub(shl(0xa0, 0x01), 0x01)\n        /* \"#utility.yul\":2728:2760   */\n      swap1\n      swap2\n      and\n        /* \"#utility.yul\":2710:2761   */\n      dup2\n      mstore\n        /* \"#utility.yul\":2698:2700   */\n      0x20\n        /* \"#utility.yul\":2683:2701   */\n      add\n        /* \"contracts/LunchVenue.sol\":3049:3071  address public manager */\n      tag_26\n        /* \"#utility.yul\":2665:2767   */\n      jump\n        /* \"contracts/LunchVenue.sol\":3118:3153  mapping (uint => Vote) public votes */\n    tag_11:\n      tag_59\n      tag_60\n      calldatasize\n      0x04\n      tag_34\n      jump\t// in\n    tag_60:\n      mstore(0x20, 0x07)\n      0x00\n      swap1\n      dup2\n      mstore\n      0x40\n      swap1\n      keccak256\n      dup1\n      sload\n      0x01\n      swap1\n      swap2\n      add\n      sload\n      sub(shl(0xa0, 0x01), 0x01)\n      swap1\n      swap2\n      and\n      swap1\n      dup3\n      jump\n    tag_59:\n      0x40\n      dup1\n      mload\n      sub(shl(0xa0, 0x01), 0x01)\n        /* \"#utility.yul\":2964:2996   */\n      swap1\n      swap4\n      and\n        /* \"#utility.yul\":2946:2997   */\n      dup4\n      mstore\n        /* \"#utility.yul\":3028:3030   */\n      0x20\n        /* \"#utility.yul\":3013:3031   */\n      dup4\n      add\n        /* \"#utility.yul\":3006:3040   */\n      swap2\n      swap1\n      swap2\n      mstore\n        /* \"#utility.yul\":2919:2937   */\n      add\n        /* \"contracts/LunchVenue.sol\":3118:3153  mapping (uint => Vote) public votes */\n      tag_26\n        /* \"#utility.yul\":2901:3046   */\n      jump\n        /* \"contracts/LunchVenue.sol\":4092:4596  function addRestaurant(string memory name) public restricted contractActive onlyDuring(Phase.Setup) returns (uint){... */\n    tag_12:\n      tag_28\n      tag_65\n      calldatasize\n      0x04\n      tag_66\n      jump\t// in\n    tag_65:\n      tag_67\n      jump\t// in\n        /* \"contracts/LunchVenue.sol\":3204:3232  bool public voteOpen = false */\n    tag_13:\n      sload(0x09)\n      tag_32\n      swap1\n      0xff\n      and\n      dup2\n      jump\n        /* \"contracts/LunchVenue.sol\":3019:3043  uint public numVotes = 0 */\n    tag_14:\n      tag_28\n      sload(0x04)\n      dup2\n      jump\n        /* \"contracts/LunchVenue.sol\":2855:2898  mapping (uint => string) public restaurants */\n    tag_15:\n      tag_75\n      tag_76\n      calldatasize\n      0x04\n      tag_34\n      jump\t// in\n    tag_76:\n      tag_77\n      jump\t// in\n    tag_75:\n      mload(0x40)\n      tag_26\n      swap2\n      swap1\n      tag_79\n      jump\t// in\n        /* \"contracts/LunchVenue.sol\":2951:2981  uint public numRestaurants = 0 */\n    tag_16:\n      tag_28\n      sload(0x02)\n      dup2\n      jump\n        /* \"contracts/LunchVenue.sol\":3562:3592  bool public isShutdown = false */\n    tag_17:\n      sload(0x0b)\n      tag_32\n      swap1\n      0xff\n      and\n      dup2\n      jump\n        /* \"contracts/LunchVenue.sol\":3077:3111  string public votedRestaurant = \"\" */\n    tag_18:\n      tag_75\n      tag_87\n      jump\t// in\n        /* \"contracts/LunchVenue.sol\":6937:7188  function endVoting() public restricted contractActive {... */\n    tag_19:\n      tag_49\n      tag_90\n      jump\t// in\n        /* \"contracts/LunchVenue.sol\":9528:9724  function shutdown() public restricted {... */\n    tag_20:\n      tag_49\n      tag_92\n      jump\t// in\n        /* \"contracts/LunchVenue.sol\":7494:8634  function doVote(uint restaurant) public contractActive onlyDuring(Phase.Voting) votingOpen returns (bool validVote){... */\n    tag_35:\n        /* \"contracts/LunchVenue.sol\":10417:10427  isShutdown */\n      sload(0x0b)\n        /* \"contracts/LunchVenue.sol\":7594:7608  bool validVote */\n      0x00\n      swap1\n        /* \"contracts/LunchVenue.sol\":10417:10427  isShutdown */\n      0xff\n      and\n        /* \"contracts/LunchVenue.sol\":10416:10427  !isShutdown */\n      iszero\n        /* \"contracts/LunchVenue.sol\":10408:10454  require(!isShutdown, \"Contract is shut down.\") */\n      tag_94\n      jumpi\n      mload(0x40)\n      shl(0xe5, 0x461bcd)\n      dup2\n      mstore\n      0x04\n      add\n      tag_95\n      swap1\n      tag_96\n      jump\t// in\n    tag_95:\n      mload(0x40)\n      dup1\n      swap2\n      sub\n      swap1\n      revert\n    tag_94:\n        /* \"contracts/LunchVenue.sol\":7560:7572  Phase.Voting */\n      0x01\n      dup1\n        /* \"contracts/LunchVenue.sol\":10216:10228  currentPhase */\n      sload(0x09)\n      0x0100\n      swap1\n      div\n      0xff\n      and\n        /* \"contracts/LunchVenue.sol\":10216:10237  currentPhase == phase */\n      0x02\n      dup2\n      gt\n      iszero\n      tag_102\n      jumpi\n      tag_102\n      tag_100\n      jump\t// in\n    tag_102:\n      eq\n        /* \"contracts/LunchVenue.sol\":10208:10278  require(currentPhase == phase, \"Action not allowed in current phase.\") */\n      tag_103\n      jumpi\n      mload(0x40)\n      shl(0xe5, 0x461bcd)\n      dup2\n      mstore\n      0x04\n      add\n      tag_95\n      swap1\n      tag_105\n      jump\t// in\n    tag_103:\n        /* \"contracts/LunchVenue.sol\":10022:10030  voteOpen */\n      and(0xff, sload(0x09))\n        /* \"contracts/LunchVenue.sol\":10022:10038  voteOpen == true */\n      iszero\n      iszero\n        /* \"contracts/LunchVenue.sol\":10022:10030  voteOpen */\n      0x01\n        /* \"contracts/LunchVenue.sol\":10022:10038  voteOpen == true */\n      eq\n        /* \"contracts/LunchVenue.sol\":10014:10078  require(voteOpen == true, \"Can vote only while voting is open.\") */\n      tag_107\n      jumpi\n      mload(0x40)\n      shl(0xe5, 0x461bcd)\n      dup2\n      mstore\n        /* \"#utility.yul\":8052:8054   */\n      0x20\n        /* \"contracts/LunchVenue.sol\":10014:10078  require(voteOpen == true, \"Can vote only while voting is open.\") */\n      0x04\n      dup3\n      add\n        /* \"#utility.yul\":8034:8055   */\n      mstore\n        /* \"#utility.yul\":8091:8093   */\n      0x23\n        /* \"#utility.yul\":8071:8089   */\n      0x24\n      dup3\n      add\n        /* \"#utility.yul\":8064:8094   */\n      mstore\n        /* \"#utility.yul\":8130:8164   */\n      0x43616e20766f7465206f6e6c79207768696c6520766f74696e67206973206f70\n        /* \"#utility.yul\":8110:8128   */\n      0x44\n      dup3\n      add\n        /* \"#utility.yul\":8103:8165   */\n      mstore\n      shl(0xe9, 0x32b717)\n        /* \"#utility.yul\":8181:8199   */\n      0x64\n      dup3\n      add\n        /* \"#utility.yul\":8174:8207   */\n      mstore\n        /* \"#utility.yul\":8224:8243   */\n      0x84\n      add\n        /* \"contracts/LunchVenue.sol\":10014:10078  require(voteOpen == true, \"Can vote only while voting is open.\") */\n      tag_95\n        /* \"#utility.yul\":8024:8249   */\n      jump\n        /* \"contracts/LunchVenue.sol\":10014:10078  require(voteOpen == true, \"Can vote only while voting is open.\") */\n    tag_107:\n        /* \"contracts/LunchVenue.sol\":7668:7679  restaurants */\n      0x00\n        /* \"contracts/LunchVenue.sol\":7668:7691  restaurants[restaurant] */\n      dup4\n      dup2\n      mstore\n      0x20\n      dup2\n      swap1\n      mstore\n      0x40\n      swap1\n      keccak256\n        /* \"contracts/LunchVenue.sol\":7662:7699  bytes(restaurants[restaurant]).length */\n      dup1\n      sload\n      tag_111\n      swap1\n      tag_112\n      jump\t// in\n    tag_111:\n        /* \"contracts/LunchVenue.sol\":7662:7704  bytes(restaurants[restaurant]).length != 0 */\n      iszero\n      iszero\n      swap1\n      pop\n        /* \"contracts/LunchVenue.sol\":7654:7735  require(bytes(restaurants[restaurant]).length != 0, \"Restaurant does not exist.\") */\n      tag_113\n      jumpi\n      mload(0x40)\n      shl(0xe5, 0x461bcd)\n      dup2\n      mstore\n        /* \"#utility.yul\":4317:4319   */\n      0x20\n        /* \"contracts/LunchVenue.sol\":7654:7735  require(bytes(restaurants[restaurant]).length != 0, \"Restaurant does not exist.\") */\n      0x04\n      dup3\n      add\n        /* \"#utility.yul\":4299:4320   */\n      mstore\n        /* \"#utility.yul\":4356:4358   */\n      0x1a\n        /* \"#utility.yul\":4336:4354   */\n      0x24\n      dup3\n      add\n        /* \"#utility.yul\":4329:4359   */\n      mstore\n        /* \"#utility.yul\":4395:4423   */\n      0x52657374617572616e7420646f6573206e6f742065786973742e000000000000\n        /* \"#utility.yul\":4375:4393   */\n      0x44\n      dup3\n      add\n        /* \"#utility.yul\":4368:4424   */\n      mstore\n        /* \"#utility.yul\":4441:4459   */\n      0x64\n      add\n        /* \"contracts/LunchVenue.sol\":7654:7735  require(bytes(restaurants[restaurant]).length != 0, \"Restaurant does not exist.\") */\n      tag_95\n        /* \"#utility.yul\":4289:4465   */\n      jump\n        /* \"contracts/LunchVenue.sol\":7654:7735  require(bytes(restaurants[restaurant]).length != 0, \"Restaurant does not exist.\") */\n    tag_113:\n        /* \"contracts/LunchVenue.sol\":7833:7841  endBlock */\n      sload(0x0a)\n        /* \"contracts/LunchVenue.sol\":7818:7830  block.number */\n      number\n        /* \"contracts/LunchVenue.sol\":7818:7841  block.number > endBlock */\n      gt\n        /* \"contracts/LunchVenue.sol\":7814:7977  if (block.number > endBlock) {... */\n      iszero\n      tag_116\n      jumpi\n        /* \"contracts/LunchVenue.sol\":7928:7940  _endVoting() */\n      tag_117\n        /* \"contracts/LunchVenue.sol\":7928:7938  _endVoting */\n      tag_118\n        /* \"contracts/LunchVenue.sol\":7928:7940  _endVoting() */\n      jump\t// in\n    tag_117:\n        /* \"contracts/LunchVenue.sol\":7961:7966  false */\n      0x00\n        /* \"contracts/LunchVenue.sol\":7954:7966  return false */\n      swap2\n      pop\n      jump(tag_110)\n        /* \"contracts/LunchVenue.sol\":7814:7977  if (block.number > endBlock) {... */\n    tag_116:\n        /* \"contracts/LunchVenue.sol\":8069:8079  msg.sender */\n      caller\n        /* \"contracts/LunchVenue.sol\":8061:8080  friends[msg.sender] */\n      0x00\n      swap1\n      dup2\n      mstore\n        /* \"contracts/LunchVenue.sol\":8061:8068  friends */\n      0x01\n        /* \"contracts/LunchVenue.sol\":8061:8080  friends[msg.sender] */\n      0x20\n      mstore\n      0x40\n      swap1\n      keccak256\n        /* \"contracts/LunchVenue.sol\":8055:8093  bytes(friends[msg.sender].name).length */\n      dup1\n      sload\n      tag_119\n      swap1\n      tag_112\n      jump\t// in\n    tag_119:\n        /* \"contracts/LunchVenue.sol\":8055:8098  bytes(friends[msg.sender].name).length != 0 */\n      iszero\n      iszero\n      swap1\n      pop\n        /* \"contracts/LunchVenue.sol\":8047:8135  require(bytes(friends[msg.sender].name).length != 0, \"You are not a registered friend.\") */\n      tag_120\n      jumpi\n      mload(0x40)\n      shl(0xe5, 0x461bcd)\n      dup2\n      mstore\n        /* \"#utility.yul\":8805:8807   */\n      0x20\n        /* \"contracts/LunchVenue.sol\":8047:8135  require(bytes(friends[msg.sender].name).length != 0, \"You are not a registered friend.\") */\n      0x04\n      dup3\n      add\n        /* \"#utility.yul\":8787:8808   */\n      dup2\n      swap1\n      mstore\n        /* \"#utility.yul\":8824:8842   */\n      0x24\n      dup3\n      add\n        /* \"#utility.yul\":8817:8847   */\n      mstore\n        /* \"#utility.yul\":8883:8917   */\n      0x596f7520617265206e6f742061207265676973746572656420667269656e642e\n        /* \"#utility.yul\":8863:8881   */\n      0x44\n      dup3\n      add\n        /* \"#utility.yul\":8856:8918   */\n      mstore\n        /* \"#utility.yul\":8935:8953   */\n      0x64\n      add\n        /* \"contracts/LunchVenue.sol\":8047:8135  require(bytes(friends[msg.sender].name).length != 0, \"You are not a registered friend.\") */\n      tag_95\n        /* \"#utility.yul\":8777:8959   */\n      jump\n        /* \"contracts/LunchVenue.sol\":8047:8135  require(bytes(friends[msg.sender].name).length != 0, \"You are not a registered friend.\") */\n    tag_120:\n        /* \"contracts/LunchVenue.sol\":8162:8172  msg.sender */\n      caller\n        /* \"contracts/LunchVenue.sol\":8154:8173  friends[msg.sender] */\n      0x00\n      swap1\n      dup2\n      mstore\n        /* \"contracts/LunchVenue.sol\":8154:8161  friends */\n      0x01\n        /* \"contracts/LunchVenue.sol\":8154:8173  friends[msg.sender] */\n      0x20\n      dup2\n      swap1\n      mstore\n      0x40\n      swap1\n      swap2\n      keccak256\n        /* \"contracts/LunchVenue.sol\":8154:8179  friends[msg.sender].voted */\n      add\n      sload\n      0xff\n      and\n        /* \"contracts/LunchVenue.sol\":8153:8179  !friends[msg.sender].voted */\n      iszero\n        /* \"contracts/LunchVenue.sol\":8145:8207  require(!friends[msg.sender].voted, \"You have already voted.\") */\n      tag_123\n      jumpi\n      mload(0x40)\n      shl(0xe5, 0x461bcd)\n      dup2\n      mstore\n        /* \"#utility.yul\":4672:4674   */\n      0x20\n        /* \"contracts/LunchVenue.sol\":8145:8207  require(!friends[msg.sender].voted, \"You have already voted.\") */\n      0x04\n      dup3\n      add\n        /* \"#utility.yul\":4654:4675   */\n      mstore\n        /* \"#utility.yul\":4711:4713   */\n      0x17\n        /* \"#utility.yul\":4691:4709   */\n      0x24\n      dup3\n      add\n        /* \"#utility.yul\":4684:4714   */\n      mstore\n        /* \"#utility.yul\":4750:4775   */\n      0x596f75206861766520616c726561647920766f7465642e000000000000000000\n        /* \"#utility.yul\":4730:4748   */\n      0x44\n      dup3\n      add\n        /* \"#utility.yul\":4723:4776   */\n      mstore\n        /* \"#utility.yul\":4793:4811   */\n      0x64\n      add\n        /* \"contracts/LunchVenue.sol\":8145:8207  require(!friends[msg.sender].voted, \"You have already voted.\") */\n      tag_95\n        /* \"#utility.yul\":4644:4817   */\n      jump\n        /* \"contracts/LunchVenue.sol\":8145:8207  require(!friends[msg.sender].voted, \"You have already voted.\") */\n    tag_123:\n        /* \"contracts/LunchVenue.sol\":8307:8317  msg.sender */\n      caller\n        /* \"contracts/LunchVenue.sol\":8299:8318  friends[msg.sender] */\n      0x00\n      dup2\n      dup2\n      mstore\n        /* \"contracts/LunchVenue.sol\":8285:8289  true */\n      0x01\n        /* \"contracts/LunchVenue.sol\":8299:8318  friends[msg.sender] */\n      0x20\n      dup2\n      dup2\n      mstore\n      0x40\n      dup1\n      dup5\n      keccak256\n        /* \"contracts/LunchVenue.sol\":8299:8324  friends[msg.sender].voted */\n      dup4\n      add\n        /* \"contracts/LunchVenue.sol\":8299:8331  friends[msg.sender].voted = true */\n      dup1\n      sload\n      not(0xff)\n      and\n      dup5\n      or\n      swap1\n      sstore\n      dup1\n      mload\n      dup1\n      dup3\n      add\n      swap1\n      swap2\n      mstore\n        /* \"contracts/LunchVenue.sol\":8364:8391  v.voterAddress = msg.sender */\n      swap4\n      dup5\n      mstore\n      dup4\n      add\n        /* \"contracts/LunchVenue.sol\":8401:8426  v.restaurant = restaurant */\n      dup7\n      swap1\n      mstore\n        /* \"contracts/LunchVenue.sol\":8436:8444  numVotes */\n      0x04\n        /* \"contracts/LunchVenue.sol\":8436:8446  numVotes++ */\n      dup1\n      sload\n        /* \"contracts/LunchVenue.sol\":8285:8289  true */\n      swap2\n      swap6\n      pop\n        /* \"contracts/LunchVenue.sol\":8436:8446  numVotes++ */\n      swap1\n      swap2\n      tag_128\n      dup4\n      tag_129\n      jump\t// in\n    tag_128:\n      swap1\n      swap2\n      sstore\n      pop\n      pop\n        /* \"contracts/LunchVenue.sol\":8462:8470  numVotes */\n      sload(0x04)\n        /* \"contracts/LunchVenue.sol\":8456:8471  votes[numVotes] */\n      0x00\n      swap1\n      dup2\n      mstore\n        /* \"contracts/LunchVenue.sol\":8456:8461  votes */\n      0x07\n        /* \"contracts/LunchVenue.sol\":8456:8471  votes[numVotes] */\n      0x20\n      swap1\n      dup2\n      mstore\n      0x40\n      swap1\n      swap2\n      keccak256\n        /* \"contracts/LunchVenue.sol\":8456:8475  votes[numVotes] = v */\n      dup3\n      mload\n      dup2\n      sload\n      not(sub(shl(0xa0, 0x01), 0x01))\n      and\n      sub(shl(0xa0, 0x01), 0x01)\n      swap1\n      swap2\n      and\n      or\n      dup2\n      sstore\n      swap1\n      dup3\n      add\n      mload\n      0x01\n      swap1\n      swap2\n      add\n      sstore\n        /* \"contracts/LunchVenue.sol\":8510:8520  numFriends */\n      sload(0x03)\n        /* \"contracts/LunchVenue.sol\":8510:8522  numFriends/2 */\n      tag_130\n      swap1\n        /* \"contracts/LunchVenue.sol\":8521:8522  2 */\n      0x02\n      swap1\n        /* \"contracts/LunchVenue.sol\":8510:8522  numFriends/2 */\n      tag_131\n      jump\t// in\n    tag_130:\n        /* \"contracts/LunchVenue.sol\":8510:8526  numFriends/2 + 1 */\n      tag_132\n      swap1\n        /* \"contracts/LunchVenue.sol\":8525:8526  1 */\n      0x01\n        /* \"contracts/LunchVenue.sol\":8510:8526  numFriends/2 + 1 */\n      tag_133\n      jump\t// in\n    tag_132:\n        /* \"contracts/LunchVenue.sol\":8498:8506  numVotes */\n      sload(0x04)\n        /* \"contracts/LunchVenue.sol\":8498:8526  numVotes >= numFriends/2 + 1 */\n      lt\n        /* \"contracts/LunchVenue.sol\":8494:8602  if (numVotes >= numFriends/2 + 1) {... */\n      tag_135\n      jumpi\n        /* \"contracts/LunchVenue.sol\":8579:8591  _endVoting() */\n      tag_135\n        /* \"contracts/LunchVenue.sol\":8579:8589  _endVoting */\n      tag_118\n        /* \"contracts/LunchVenue.sol\":8579:8591  _endVoting() */\n      jump\t// in\n    tag_135:\n        /* \"contracts/LunchVenue.sol\":8611:8627  return validVote */\n      pop\n        /* \"contracts/LunchVenue.sol\":10088:10089  _ */\n    tag_110:\n        /* \"contracts/LunchVenue.sol\":10464:10465  _ */\n      pop\n        /* \"contracts/LunchVenue.sol\":7494:8634  function doVote(uint restaurant) public contractActive onlyDuring(Phase.Voting) votingOpen returns (bool validVote){... */\n      swap2\n      swap1\n      pop\n      jump\t// out\n        /* \"contracts/LunchVenue.sol\":2904:2945  mapping(address => Friend) public friends */\n    tag_41:\n      mstore(0x20, 0x01)\n      0x00\n      swap1\n      dup2\n      mstore\n      0x40\n      swap1\n      keccak256\n      dup1\n      sload\n      dup2\n      swap1\n      tag_136\n      swap1\n      tag_112\n      jump\t// in\n    tag_136:\n      dup1\n      0x1f\n      add\n      0x20\n      dup1\n      swap2\n      div\n      mul\n      0x20\n      add\n      mload(0x40)\n      swap1\n      dup2\n      add\n      0x40\n      mstore\n      dup1\n      swap3\n      swap2\n      swap1\n      dup2\n      dup2\n      mstore\n      0x20\n      add\n      dup3\n      dup1\n      sload\n      tag_137\n      swap1\n      tag_112\n      jump\t// in\n    tag_137:\n      dup1\n      iszero\n      tag_138\n      jumpi\n      dup1\n      0x1f\n      lt\n      tag_139\n      jumpi\n      0x0100\n      dup1\n      dup4\n      sload\n      div\n      mul\n      dup4\n      mstore\n      swap2\n      0x20\n      add\n      swap2\n      jump(tag_138)\n    tag_139:\n      dup3\n      add\n      swap2\n      swap1\n      0x00\n      mstore\n      keccak256(0x00, 0x20)\n      swap1\n    tag_140:\n      dup2\n      sload\n      dup2\n      mstore\n      swap1\n      0x01\n      add\n      swap1\n      0x20\n      add\n      dup1\n      dup4\n      gt\n      tag_140\n      jumpi\n      dup3\n      swap1\n      sub\n      0x1f\n      and\n      dup3\n      add\n      swap2\n    tag_138:\n      pop\n      pop\n      pop\n      0x01\n      swap1\n      swap4\n      add\n      sload\n      swap2\n      swap3\n      pop\n      pop\n      0xff\n      and\n      dup3\n      jump\t// out\n        /* \"contracts/LunchVenue.sol\":4847:5399  function addFriend(address friendAddress, string memory name) public restricted contractActive onlyDuring(Phase.Setup) returns (uint){... */\n    tag_47:\n        /* \"contracts/LunchVenue.sol\":9845:9852  manager */\n      sload(0x05)\n        /* \"contracts/LunchVenue.sol\":4975:4979  uint */\n      0x00\n      swap1\n      sub(shl(0xa0, 0x01), 0x01)\n        /* \"contracts/LunchVenue.sol\":9845:9852  manager */\n      and\n        /* \"contracts/LunchVenue.sol\":9831:9841  msg.sender */\n      caller\n        /* \"contracts/LunchVenue.sol\":9831:9852  msg.sender == manager */\n      eq\n        /* \"contracts/LunchVenue.sol\":9822:9892  require (msg.sender == manager, \"Can only be executed by the manager\") */\n      tag_142\n      jumpi\n      mload(0x40)\n      shl(0xe5, 0x461bcd)\n      dup2\n      mstore\n      0x04\n      add\n      tag_95\n      swap1\n      tag_144\n      jump\t// in\n    tag_142:\n        /* \"contracts/LunchVenue.sol\":10417:10427  isShutdown */\n      and(0xff, sload(0x0b))\n        /* \"contracts/LunchVenue.sol\":10416:10427  !isShutdown */\n      iszero\n        /* \"contracts/LunchVenue.sol\":10408:10454  require(!isShutdown, \"Contract is shut down.\") */\n      tag_146\n      jumpi\n      mload(0x40)\n      shl(0xe5, 0x461bcd)\n      dup2\n      mstore\n      0x04\n      add\n      tag_95\n      swap1\n      tag_96\n      jump\t// in\n    tag_146:\n        /* \"contracts/LunchVenue.sol\":4953:4964  Phase.Setup */\n      0x00\n      dup1\n        /* \"contracts/LunchVenue.sol\":10216:10228  currentPhase */\n      sload(0x09)\n      0x0100\n      swap1\n      div\n      0xff\n      and\n        /* \"contracts/LunchVenue.sol\":10216:10237  currentPhase == phase */\n      0x02\n      dup2\n      gt\n      iszero\n      tag_152\n      jumpi\n      tag_152\n      tag_100\n      jump\t// in\n    tag_152:\n      eq\n        /* \"contracts/LunchVenue.sol\":10208:10278  require(currentPhase == phase, \"Action not allowed in current phase.\") */\n      tag_153\n      jumpi\n      mload(0x40)\n      shl(0xe5, 0x461bcd)\n      dup2\n      mstore\n      0x04\n      add\n      tag_95\n      swap1\n      tag_105\n      jump\t// in\n    tag_153:\n      sub(shl(0xa0, 0x01), 0x01)\n        /* \"contracts/LunchVenue.sol\":5100:5122  friends[friendAddress] */\n      dup5\n      and\n      0x00\n      swap1\n      dup2\n      mstore\n        /* \"contracts/LunchVenue.sol\":5100:5107  friends */\n      0x01\n        /* \"contracts/LunchVenue.sol\":5100:5122  friends[friendAddress] */\n      0x20\n      mstore\n      0x40\n      swap1\n      keccak256\n        /* \"contracts/LunchVenue.sol\":5094:5135  bytes(friends[friendAddress].name).length */\n      dup1\n      sload\n      tag_156\n      swap1\n      tag_112\n      jump\t// in\n    tag_156:\n        /* \"contracts/LunchVenue.sol\":5094:5140  bytes(friends[friendAddress].name).length == 0 */\n      iszero\n      swap1\n      pop\n        /* \"contracts/LunchVenue.sol\":5086:5167  require(bytes(friends[friendAddress].name).length == 0, \"Friend already exists.\") */\n      tag_157\n      jumpi\n      mload(0x40)\n      shl(0xe5, 0x461bcd)\n      dup2\n      mstore\n        /* \"#utility.yul\":5432:5434   */\n      0x20\n        /* \"contracts/LunchVenue.sol\":5086:5167  require(bytes(friends[friendAddress].name).length == 0, \"Friend already exists.\") */\n      0x04\n      dup3\n      add\n        /* \"#utility.yul\":5414:5435   */\n      mstore\n        /* \"#utility.yul\":5471:5473   */\n      0x16\n        /* \"#utility.yul\":5451:5469   */\n      0x24\n      dup3\n      add\n        /* \"#utility.yul\":5444:5474   */\n      mstore\n      shl(0x51, 0x233934b2b7321030b63932b0b23c9032bc34b9ba3997)\n        /* \"#utility.yul\":5490:5508   */\n      0x44\n      dup3\n      add\n        /* \"#utility.yul\":5483:5535   */\n      mstore\n        /* \"#utility.yul\":5552:5570   */\n      0x64\n      add\n        /* \"contracts/LunchVenue.sol\":5086:5167  require(bytes(friends[friendAddress].name).length == 0, \"Friend already exists.\") */\n      tag_95\n        /* \"#utility.yul\":5404:5576   */\n      jump\n        /* \"contracts/LunchVenue.sol\":5086:5167  require(bytes(friends[friendAddress].name).length == 0, \"Friend already exists.\") */\n    tag_157:\n        /* \"contracts/LunchVenue.sol\":5206:5207  0 */\n      0x00\n        /* \"contracts/LunchVenue.sol\":5191:5195  name */\n      dup4\n        /* \"contracts/LunchVenue.sol\":5185:5203  bytes(name).length */\n      mload\n        /* \"contracts/LunchVenue.sol\":5185:5207  bytes(name).length > 0 */\n      gt\n        /* \"contracts/LunchVenue.sol\":5177:5233  require(bytes(name).length > 0, \"Name cannot be empty.\") */\n      tag_160\n      jumpi\n      mload(0x40)\n      shl(0xe5, 0x461bcd)\n      dup2\n      mstore\n        /* \"#utility.yul\":7702:7704   */\n      0x20\n        /* \"contracts/LunchVenue.sol\":5177:5233  require(bytes(name).length > 0, \"Name cannot be empty.\") */\n      0x04\n      dup3\n      add\n        /* \"#utility.yul\":7684:7705   */\n      mstore\n        /* \"#utility.yul\":7741:7743   */\n      0x15\n        /* \"#utility.yul\":7721:7739   */\n      0x24\n      dup3\n      add\n        /* \"#utility.yul\":7714:7744   */\n      mstore\n      shl(0x59, 0x2730b6b29031b0b73737ba1031329032b6b83a3c97)\n        /* \"#utility.yul\":7760:7778   */\n      0x44\n      dup3\n      add\n        /* \"#utility.yul\":7753:7804   */\n      mstore\n        /* \"#utility.yul\":7821:7839   */\n      0x64\n      add\n        /* \"contracts/LunchVenue.sol\":5177:5233  require(bytes(name).length > 0, \"Name cannot be empty.\") */\n      tag_95\n        /* \"#utility.yul\":7674:7845   */\n      jump\n        /* \"contracts/LunchVenue.sol\":5177:5233  require(bytes(name).length > 0, \"Name cannot be empty.\") */\n    tag_160:\n      0x40\n      dup1\n      mload\n      dup1\n      dup3\n      add\n      dup3\n      mstore\n      0x00\n      0x20\n      dup1\n      dup4\n      add\n      dup3\n      swap1\n      mstore\n        /* \"contracts/LunchVenue.sol\":5269:5282  f.name = name */\n      dup7\n      dup4\n      mstore\n      sub(shl(0xa0, 0x01), 0x01)\n        /* \"contracts/LunchVenue.sol\":5317:5339  friends[friendAddress] */\n      dup9\n      and\n      dup3\n      mstore\n        /* \"contracts/LunchVenue.sol\":5292:5307  f.voted = false */\n      0x01\n        /* \"contracts/LunchVenue.sol\":5317:5339  friends[friendAddress] */\n      dup2\n      mstore\n      swap3\n      swap1\n      keccak256\n        /* \"contracts/LunchVenue.sol\":5317:5343  friends[friendAddress] = f */\n      dup2\n      mload\n      dup1\n      mload\n      swap3\n      swap4\n      dup5\n      swap4\n      tag_165\n      swap3\n        /* \"contracts/LunchVenue.sol\":5317:5339  friends[friendAddress] */\n      dup5\n      swap3\n        /* \"contracts/LunchVenue.sol\":5317:5343  friends[friendAddress] = f */\n      add\n      swap1\n      tag_166\n      jump\t// in\n    tag_165:\n      pop\n      0x20\n      swap2\n      swap1\n      swap2\n      add\n      mload\n      0x01\n      swap1\n      swap2\n      add\n      dup1\n      sload\n      not(0xff)\n      and\n      swap2\n      iszero\n      iszero\n      swap2\n      swap1\n      swap2\n      or\n      swap1\n      sstore\n        /* \"contracts/LunchVenue.sol\":5353:5363  numFriends */\n      0x03\n        /* \"contracts/LunchVenue.sol\":5353:5365  numFriends++ */\n      dup1\n      sload\n      swap1\n      0x00\n      tag_167\n      dup4\n      tag_129\n      jump\t// in\n    tag_167:\n      swap1\n      swap2\n      sstore\n      pop\n      pop\n        /* \"contracts/LunchVenue.sol\":5382:5392  numFriends */\n      sload(0x03)\n      swap6\n        /* \"contracts/LunchVenue.sol\":4847:5399  function addFriend(address friendAddress, string memory name) public restricted contractActive onlyDuring(Phase.Setup) returns (uint){... */\n      swap5\n      pop\n      pop\n      pop\n      pop\n      pop\n      jump\t// out\n        /* \"contracts/LunchVenue.sol\":5592:6102  function startVoting(uint blocksUntilEnd) public restricted contractActive onlyDuring(Phase.Setup) {... */\n    tag_51:\n        /* \"contracts/LunchVenue.sol\":9845:9852  manager */\n      and(sub(shl(0xa0, 0x01), 0x01), sload(0x05))\n        /* \"contracts/LunchVenue.sol\":9831:9841  msg.sender */\n      caller\n        /* \"contracts/LunchVenue.sol\":9831:9852  msg.sender == manager */\n      eq\n        /* \"contracts/LunchVenue.sol\":9822:9892  require (msg.sender == manager, \"Can only be executed by the manager\") */\n      tag_169\n      jumpi\n      mload(0x40)\n      shl(0xe5, 0x461bcd)\n      dup2\n      mstore\n      0x04\n      add\n      tag_95\n      swap1\n      tag_144\n      jump\t// in\n    tag_169:\n        /* \"contracts/LunchVenue.sol\":10417:10427  isShutdown */\n      and(0xff, sload(0x0b))\n        /* \"contracts/LunchVenue.sol\":10416:10427  !isShutdown */\n      iszero\n        /* \"contracts/LunchVenue.sol\":10408:10454  require(!isShutdown, \"Contract is shut down.\") */\n      tag_172\n      jumpi\n      mload(0x40)\n      shl(0xe5, 0x461bcd)\n      dup2\n      mstore\n      0x04\n      add\n      tag_95\n      swap1\n      tag_96\n      jump\t// in\n    tag_172:\n        /* \"contracts/LunchVenue.sol\":5678:5689  Phase.Setup */\n      0x00\n      dup1\n        /* \"contracts/LunchVenue.sol\":10216:10228  currentPhase */\n      sload(0x09)\n      0x0100\n      swap1\n      div\n      0xff\n      and\n        /* \"contracts/LunchVenue.sol\":10216:10237  currentPhase == phase */\n      0x02\n      dup2\n      gt\n      iszero\n      tag_178\n      jumpi\n      tag_178\n      tag_100\n      jump\t// in\n    tag_178:\n      eq\n        /* \"contracts/LunchVenue.sol\":10208:10278  require(currentPhase == phase, \"Action not allowed in current phase.\") */\n      tag_179\n      jumpi\n      mload(0x40)\n      shl(0xe5, 0x461bcd)\n      dup2\n      mstore\n      0x04\n      add\n      tag_95\n      swap1\n      tag_105\n      jump\t// in\n    tag_179:\n        /* \"contracts/LunchVenue.sol\":5794:5795  1 */\n      0x01\n        /* \"contracts/LunchVenue.sol\":5777:5791  numRestaurants */\n      sload(0x02)\n        /* \"contracts/LunchVenue.sol\":5777:5795  numRestaurants > 1 */\n      gt\n        /* \"contracts/LunchVenue.sol\":5769:5839  require(numRestaurants > 1, \"At least two restaurants must be added.\") */\n      tag_182\n      jumpi\n      mload(0x40)\n      shl(0xe5, 0x461bcd)\n      dup2\n      mstore\n        /* \"#utility.yul\":5024:5026   */\n      0x20\n        /* \"contracts/LunchVenue.sol\":5769:5839  require(numRestaurants > 1, \"At least two restaurants must be added.\") */\n      0x04\n      dup3\n      add\n        /* \"#utility.yul\":5006:5027   */\n      mstore\n        /* \"#utility.yul\":5063:5065   */\n      0x27\n        /* \"#utility.yul\":5043:5061   */\n      0x24\n      dup3\n      add\n        /* \"#utility.yul\":5036:5066   */\n      mstore\n        /* \"#utility.yul\":5102:5136   */\n      0x4174206c656173742074776f2072657374617572616e7473206d757374206265\n        /* \"#utility.yul\":5082:5100   */\n      0x44\n      dup3\n      add\n        /* \"#utility.yul\":5075:5137   */\n      mstore\n      shl(0xc9, 0x1030b23232b217)\n        /* \"#utility.yul\":5153:5171   */\n      0x64\n      dup3\n      add\n        /* \"#utility.yul\":5146:5183   */\n      mstore\n        /* \"#utility.yul\":5200:5219   */\n      0x84\n      add\n        /* \"contracts/LunchVenue.sol\":5769:5839  require(numRestaurants > 1, \"At least two restaurants must be added.\") */\n      tag_95\n        /* \"#utility.yul\":4996:5225   */\n      jump\n        /* \"contracts/LunchVenue.sol\":5769:5839  require(numRestaurants > 1, \"At least two restaurants must be added.\") */\n    tag_182:\n        /* \"contracts/LunchVenue.sol\":5870:5871  1 */\n      0x01\n        /* \"contracts/LunchVenue.sol\":5857:5867  numFriends */\n      sload(0x03)\n        /* \"contracts/LunchVenue.sol\":5857:5871  numFriends > 1 */\n      gt\n        /* \"contracts/LunchVenue.sol\":5849:5911  require(numFriends > 1, \"At least two friends must be added.\") */\n      tag_185\n      jumpi\n      mload(0x40)\n      shl(0xe5, 0x461bcd)\n      dup2\n      mstore\n        /* \"#utility.yul\":6538:6540   */\n      0x20\n        /* \"contracts/LunchVenue.sol\":5849:5911  require(numFriends > 1, \"At least two friends must be added.\") */\n      0x04\n      dup3\n      add\n        /* \"#utility.yul\":6520:6541   */\n      mstore\n        /* \"#utility.yul\":6577:6579   */\n      0x23\n        /* \"#utility.yul\":6557:6575   */\n      0x24\n      dup3\n      add\n        /* \"#utility.yul\":6550:6580   */\n      mstore\n        /* \"#utility.yul\":6616:6650   */\n      0x4174206c656173742074776f20667269656e6473206d75737420626520616464\n        /* \"#utility.yul\":6596:6614   */\n      0x44\n      dup3\n      add\n        /* \"#utility.yul\":6589:6651   */\n      mstore\n      shl(0xe9, 0x32b217)\n        /* \"#utility.yul\":6667:6685   */\n      0x64\n      dup3\n      add\n        /* \"#utility.yul\":6660:6693   */\n      mstore\n        /* \"#utility.yul\":6710:6729   */\n      0x84\n      add\n        /* \"contracts/LunchVenue.sol\":5849:5911  require(numFriends > 1, \"At least two friends must be added.\") */\n      tag_95\n        /* \"#utility.yul\":6510:6735   */\n      jump\n        /* \"contracts/LunchVenue.sol\":5849:5911  require(numFriends > 1, \"At least two friends must be added.\") */\n    tag_185:\n        /* \"contracts/LunchVenue.sol\":6004:6033  block.number + blocksUntilEnd */\n      tag_188\n        /* \"contracts/LunchVenue.sol\":6019:6033  blocksUntilEnd */\n      dup3\n        /* \"contracts/LunchVenue.sol\":6004:6016  block.number */\n      number\n        /* \"contracts/LunchVenue.sol\":6004:6033  block.number + blocksUntilEnd */\n      tag_133\n      jump\t// in\n    tag_188:\n        /* \"contracts/LunchVenue.sol\":5993:6001  endBlock */\n      0x0a\n        /* \"contracts/LunchVenue.sol\":5993:6033  endBlock = block.number + blocksUntilEnd */\n      sstore\n      pop\n      pop\n        /* \"contracts/LunchVenue.sol\":6043:6055  currentPhase */\n      0x09\n        /* \"contracts/LunchVenue.sol\":6043:6070  currentPhase = Phase.Voting */\n      dup1\n      sload\n      not(0xffff)\n        /* \"contracts/LunchVenue.sol\":6080:6095  voteOpen = true */\n      and\n      0x0101\n      or\n      swap1\n      sstore\n        /* \"contracts/LunchVenue.sol\":5592:6102  function startVoting(uint blocksUntilEnd) public restricted contractActive onlyDuring(Phase.Setup) {... */\n      jump\t// out\n        /* \"contracts/LunchVenue.sol\":4092:4596  function addRestaurant(string memory name) public restricted contractActive onlyDuring(Phase.Setup) returns (uint){... */\n    tag_67:\n        /* \"contracts/LunchVenue.sol\":9845:9852  manager */\n      sload(0x05)\n        /* \"contracts/LunchVenue.sol\":4201:4205  uint */\n      0x00\n      swap1\n      sub(shl(0xa0, 0x01), 0x01)\n        /* \"contracts/LunchVenue.sol\":9845:9852  manager */\n      and\n        /* \"contracts/LunchVenue.sol\":9831:9841  msg.sender */\n      caller\n        /* \"contracts/LunchVenue.sol\":9831:9852  msg.sender == manager */\n      eq\n        /* \"contracts/LunchVenue.sol\":9822:9892  require (msg.sender == manager, \"Can only be executed by the manager\") */\n      tag_192\n      jumpi\n      mload(0x40)\n      shl(0xe5, 0x461bcd)\n      dup2\n      mstore\n      0x04\n      add\n      tag_95\n      swap1\n      tag_144\n      jump\t// in\n    tag_192:\n        /* \"contracts/LunchVenue.sol\":10417:10427  isShutdown */\n      and(0xff, sload(0x0b))\n        /* \"contracts/LunchVenue.sol\":10416:10427  !isShutdown */\n      iszero\n        /* \"contracts/LunchVenue.sol\":10408:10454  require(!isShutdown, \"Contract is shut down.\") */\n      tag_195\n      jumpi\n      mload(0x40)\n      shl(0xe5, 0x461bcd)\n      dup2\n      mstore\n      0x04\n      add\n      tag_95\n      swap1\n      tag_96\n      jump\t// in\n    tag_195:\n        /* \"contracts/LunchVenue.sol\":4179:4190  Phase.Setup */\n      0x00\n      dup1\n        /* \"contracts/LunchVenue.sol\":10216:10228  currentPhase */\n      sload(0x09)\n      0x0100\n      swap1\n      div\n      0xff\n      and\n        /* \"contracts/LunchVenue.sol\":10216:10237  currentPhase == phase */\n      0x02\n      dup2\n      gt\n      iszero\n      tag_201\n      jumpi\n      tag_201\n      tag_100\n      jump\t// in\n    tag_201:\n      eq\n        /* \"contracts/LunchVenue.sol\":10208:10278  require(currentPhase == phase, \"Action not allowed in current phase.\") */\n      tag_202\n      jumpi\n      mload(0x40)\n      shl(0xe5, 0x461bcd)\n      dup2\n      mstore\n      0x04\n      add\n      tag_95\n      swap1\n      tag_105\n      jump\t// in\n    tag_202:\n        /* \"contracts/LunchVenue.sol\":4269:4285  bytes32 nameHash */\n      0x00\n        /* \"contracts/LunchVenue.sol\":4315:4319  name */\n      dup4\n        /* \"contracts/LunchVenue.sol\":4298:4320  abi.encodePacked(name) */\n      add(0x20, mload(0x40))\n      tag_205\n      swap2\n      swap1\n      tag_206\n      jump\t// in\n    tag_205:\n      0x40\n      dup1\n      mload\n      not(0x1f)\n      dup2\n      dup5\n      sub\n      add\n      dup2\n      mstore\n      swap2\n      dup2\n      mstore\n        /* \"contracts/LunchVenue.sol\":4288:4321  keccak256(abi.encodePacked(name)) */\n      dup2\n      mload\n        /* \"contracts/LunchVenue.sol\":4298:4320  abi.encodePacked(name) */\n      0x20\n        /* \"contracts/LunchVenue.sol\":4288:4321  keccak256(abi.encodePacked(name)) */\n      swap3\n      dup4\n      add\n      keccak256\n        /* \"contracts/LunchVenue.sol\":4340:4366  restaurantExists[nameHash] */\n      0x00\n      dup2\n      dup2\n      mstore\n        /* \"contracts/LunchVenue.sol\":4340:4356  restaurantExists */\n      0x0c\n        /* \"contracts/LunchVenue.sol\":4340:4366  restaurantExists[nameHash] */\n      swap1\n      swap4\n      mstore\n      swap2\n      keccak256\n      sload\n        /* \"contracts/LunchVenue.sol\":4288:4321  keccak256(abi.encodePacked(name)) */\n      swap1\n      swap2\n      pop\n        /* \"contracts/LunchVenue.sol\":4340:4366  restaurantExists[nameHash] */\n      0xff\n      and\n        /* \"contracts/LunchVenue.sol\":4339:4366  !restaurantExists[nameHash] */\n      iszero\n        /* \"contracts/LunchVenue.sol\":4331:4397  require(!restaurantExists[nameHash], \"Restaurant already exists.\") */\n      tag_207\n      jumpi\n      mload(0x40)\n      shl(0xe5, 0x461bcd)\n      dup2\n      mstore\n        /* \"#utility.yul\":7347:7349   */\n      0x20\n        /* \"contracts/LunchVenue.sol\":4331:4397  require(!restaurantExists[nameHash], \"Restaurant already exists.\") */\n      0x04\n      dup3\n      add\n        /* \"#utility.yul\":7329:7350   */\n      mstore\n        /* \"#utility.yul\":7386:7388   */\n      0x1a\n        /* \"#utility.yul\":7366:7384   */\n      0x24\n      dup3\n      add\n        /* \"#utility.yul\":7359:7389   */\n      mstore\n        /* \"#utility.yul\":7425:7453   */\n      0x52657374617572616e7420616c7265616479206578697374732e000000000000\n        /* \"#utility.yul\":7405:7423   */\n      0x44\n      dup3\n      add\n        /* \"#utility.yul\":7398:7454   */\n      mstore\n        /* \"#utility.yul\":7471:7489   */\n      0x64\n      add\n        /* \"contracts/LunchVenue.sol\":4331:4397  require(!restaurantExists[nameHash], \"Restaurant already exists.\") */\n      tag_95\n        /* \"#utility.yul\":7319:7495   */\n      jump\n        /* \"contracts/LunchVenue.sol\":4331:4397  require(!restaurantExists[nameHash], \"Restaurant already exists.\") */\n    tag_207:\n        /* \"contracts/LunchVenue.sol\":4408:4422  numRestaurants */\n      0x02\n        /* \"contracts/LunchVenue.sol\":4408:4424  numRestaurants++ */\n      dup1\n      sload\n      swap1\n        /* \"contracts/LunchVenue.sol\":4408:4422  numRestaurants */\n      0x00\n        /* \"contracts/LunchVenue.sol\":4408:4424  numRestaurants++ */\n      tag_210\n      dup4\n      tag_129\n      jump\t// in\n    tag_210:\n      swap1\n      swap2\n      sstore\n      pop\n      pop\n        /* \"contracts/LunchVenue.sol\":4446:4460  numRestaurants */\n      sload(0x02)\n        /* \"contracts/LunchVenue.sol\":4434:4445  restaurants */\n      0x00\n        /* \"contracts/LunchVenue.sol\":4434:4461  restaurants[numRestaurants] */\n      swap1\n      dup2\n      mstore\n      0x20\n      dup2\n      dup2\n      mstore\n      0x40\n      swap1\n      swap2\n      keccak256\n        /* \"contracts/LunchVenue.sol\":4434:4468  restaurants[numRestaurants] = name */\n      dup6\n      mload\n      tag_211\n      swap3\n      dup8\n      add\n      swap1\n      tag_166\n      jump\t// in\n    tag_211:\n      pop\n        /* \"contracts/LunchVenue.sol\":4525:4551  restaurantExists[nameHash] */\n      0x00\n      swap1\n      dup2\n      mstore\n        /* \"contracts/LunchVenue.sol\":4525:4541  restaurantExists */\n      0x0c\n        /* \"contracts/LunchVenue.sol\":4525:4551  restaurantExists[nameHash] */\n      0x20\n      mstore\n      0x40\n      swap1\n      keccak256\n        /* \"contracts/LunchVenue.sol\":4525:4558  restaurantExists[nameHash] = true */\n      dup1\n      sload\n      not(0xff)\n      and\n        /* \"contracts/LunchVenue.sol\":4554:4558  true */\n      0x01\n        /* \"contracts/LunchVenue.sol\":4525:4558  restaurantExists[nameHash] = true */\n      or\n      swap1\n      sstore\n        /* \"contracts/LunchVenue.sol\":4575:4589  numRestaurants */\n      sload(0x02)\n      swap2\n      pop\n        /* \"contracts/LunchVenue.sol\":10464:10465  _ */\n      pop\n        /* \"contracts/LunchVenue.sol\":4092:4596  function addRestaurant(string memory name) public restricted contractActive onlyDuring(Phase.Setup) returns (uint){... */\n      swap2\n      swap1\n      pop\n      jump\t// out\n        /* \"contracts/LunchVenue.sol\":2855:2898  mapping (uint => string) public restaurants */\n    tag_77:\n      0x00\n      0x20\n      dup2\n      swap1\n      mstore\n      swap1\n      dup2\n      mstore\n      0x40\n      swap1\n      keccak256\n      dup1\n      sload\n      tag_212\n      swap1\n      tag_112\n      jump\t// in\n    tag_212:\n      dup1\n      0x1f\n      add\n      0x20\n      dup1\n      swap2\n      div\n      mul\n      0x20\n      add\n      mload(0x40)\n      swap1\n      dup2\n      add\n      0x40\n      mstore\n      dup1\n      swap3\n      swap2\n      swap1\n      dup2\n      dup2\n      mstore\n      0x20\n      add\n      dup3\n      dup1\n      sload\n      tag_213\n      swap1\n      tag_112\n      jump\t// in\n    tag_213:\n      dup1\n      iszero\n      tag_214\n      jumpi\n      dup1\n      0x1f\n      lt\n      tag_215\n      jumpi\n      0x0100\n      dup1\n      dup4\n      sload\n      div\n      mul\n      dup4\n      mstore\n      swap2\n      0x20\n      add\n      swap2\n      jump(tag_214)\n    tag_215:\n      dup3\n      add\n      swap2\n      swap1\n      0x00\n      mstore\n      keccak256(0x00, 0x20)\n      swap1\n    tag_216:\n      dup2\n      sload\n      dup2\n      mstore\n      swap1\n      0x01\n      add\n      swap1\n      0x20\n      add\n      dup1\n      dup4\n      gt\n      tag_216\n      jumpi\n      dup3\n      swap1\n      sub\n      0x1f\n      and\n      dup3\n      add\n      swap2\n    tag_214:\n      pop\n      pop\n      pop\n      pop\n      pop\n      dup2\n      jump\t// out\n        /* \"contracts/LunchVenue.sol\":3077:3111  string public votedRestaurant = \"\" */\n    tag_87:\n      0x06\n      dup1\n      sload\n      tag_212\n      swap1\n      tag_112\n      jump\t// in\n        /* \"contracts/LunchVenue.sol\":6937:7188  function endVoting() public restricted contractActive {... */\n    tag_90:\n        /* \"contracts/LunchVenue.sol\":9845:9852  manager */\n      and(sub(shl(0xa0, 0x01), 0x01), sload(0x05))\n        /* \"contracts/LunchVenue.sol\":9831:9841  msg.sender */\n      caller\n        /* \"contracts/LunchVenue.sol\":9831:9852  msg.sender == manager */\n      eq\n        /* \"contracts/LunchVenue.sol\":9822:9892  require (msg.sender == manager, \"Can only be executed by the manager\") */\n      tag_223\n      jumpi\n      mload(0x40)\n      shl(0xe5, 0x461bcd)\n      dup2\n      mstore\n      0x04\n      add\n      tag_95\n      swap1\n      tag_144\n      jump\t// in\n    tag_223:\n        /* \"contracts/LunchVenue.sol\":10417:10427  isShutdown */\n      and(0xff, sload(0x0b))\n        /* \"contracts/LunchVenue.sol\":10416:10427  !isShutdown */\n      iszero\n        /* \"contracts/LunchVenue.sol\":10408:10454  require(!isShutdown, \"Contract is shut down.\") */\n      tag_226\n      jumpi\n      mload(0x40)\n      shl(0xe5, 0x461bcd)\n      dup2\n      mstore\n      0x04\n      add\n      tag_95\n      swap1\n      tag_96\n      jump\t// in\n    tag_226:\n        /* \"contracts/LunchVenue.sol\":7067:7079  Phase.Voting */\n      0x01\n        /* \"contracts/LunchVenue.sol\":7051:7063  currentPhase */\n      sload(0x09)\n      0x0100\n      swap1\n      div\n      0xff\n      and\n        /* \"contracts/LunchVenue.sol\":7051:7079  currentPhase == Phase.Voting */\n      0x02\n      dup2\n      gt\n      iszero\n      tag_232\n      jumpi\n      tag_232\n      tag_100\n      jump\t// in\n    tag_232:\n      eq\n        /* \"contracts/LunchVenue.sol\":7043:7104  require(currentPhase == Phase.Voting, \"Not in voting phase.\") */\n      tag_233\n      jumpi\n      mload(0x40)\n      shl(0xe5, 0x461bcd)\n      dup2\n      mstore\n        /* \"#utility.yul\":8456:8458   */\n      0x20\n        /* \"contracts/LunchVenue.sol\":7043:7104  require(currentPhase == Phase.Voting, \"Not in voting phase.\") */\n      0x04\n      dup3\n      add\n        /* \"#utility.yul\":8438:8459   */\n      mstore\n        /* \"#utility.yul\":8495:8497   */\n      0x14\n        /* \"#utility.yul\":8475:8493   */\n      0x24\n      dup3\n      add\n        /* \"#utility.yul\":8468:8498   */\n      mstore\n      shl(0x61, 0x2737ba1034b7103b37ba34b73390383430b9b297)\n        /* \"#utility.yul\":8514:8532   */\n      0x44\n      dup3\n      add\n        /* \"#utility.yul\":8507:8557   */\n      mstore\n        /* \"#utility.yul\":8574:8592   */\n      0x64\n      add\n        /* \"contracts/LunchVenue.sol\":7043:7104  require(currentPhase == Phase.Voting, \"Not in voting phase.\") */\n      tag_95\n        /* \"#utility.yul\":8428:8598   */\n      jump\n        /* \"contracts/LunchVenue.sol\":7043:7104  require(currentPhase == Phase.Voting, \"Not in voting phase.\") */\n    tag_233:\n        /* \"contracts/LunchVenue.sol\":7169:7181  _endVoting() */\n      tag_236\n        /* \"contracts/LunchVenue.sol\":7169:7179  _endVoting */\n      tag_118\n        /* \"contracts/LunchVenue.sol\":7169:7181  _endVoting() */\n      jump\t// in\n    tag_236:\n        /* \"contracts/LunchVenue.sol\":6937:7188  function endVoting() public restricted contractActive {... */\n      jump\t// out\n        /* \"contracts/LunchVenue.sol\":9528:9724  function shutdown() public restricted {... */\n    tag_92:\n        /* \"contracts/LunchVenue.sol\":9845:9852  manager */\n      and(sub(shl(0xa0, 0x01), 0x01), sload(0x05))\n        /* \"contracts/LunchVenue.sol\":9831:9841  msg.sender */\n      caller\n        /* \"contracts/LunchVenue.sol\":9831:9852  msg.sender == manager */\n      eq\n        /* \"contracts/LunchVenue.sol\":9822:9892  require (msg.sender == manager, \"Can only be executed by the manager\") */\n      tag_238\n      jumpi\n      mload(0x40)\n      shl(0xe5, 0x461bcd)\n      dup2\n      mstore\n      0x04\n      add\n      tag_95\n      swap1\n      tag_144\n      jump\t// in\n    tag_238:\n        /* \"contracts/LunchVenue.sol\":9638:9648  isShutdown */\n      0x0b\n        /* \"contracts/LunchVenue.sol\":9638:9655  isShutdown = true */\n      dup1\n      sload\n      not(0xff)\n      swap1\n      dup2\n      and\n        /* \"contracts/LunchVenue.sol\":9651:9655  true */\n      0x01\n        /* \"contracts/LunchVenue.sol\":9638:9655  isShutdown = true */\n      or\n      swap1\n      swap2\n      sstore\n        /* \"contracts/LunchVenue.sol\":9665:9673  voteOpen */\n      0x09\n        /* \"contracts/LunchVenue.sol\":9665:9681  voteOpen = false */\n      dup1\n      sload\n      swap2\n      dup3\n      and\n      dup2\n      sstore\n      0x02\n      swap2\n      not(0xffff)\n        /* \"contracts/LunchVenue.sol\":9691:9717  currentPhase = Phase.Ended */\n      and\n        /* \"contracts/LunchVenue.sol\":9638:9655  isShutdown = true */\n      0x0100\n      dup4\n        /* \"contracts/LunchVenue.sol\":9691:9717  currentPhase = Phase.Ended */\n    tag_242:\n      mul\n      or\n      swap1\n      sstore\n      pop\n        /* \"contracts/LunchVenue.sol\":9528:9724  function shutdown() public restricted {... */\n      jump\t// out\n        /* \"contracts/LunchVenue.sol\":6536:6773  function _endVoting() internal {... */\n    tag_118:\n        /* \"contracts/LunchVenue.sol\":6610:6618  numVotes */\n      sload(0x04)\n        /* \"contracts/LunchVenue.sol\":6610:6622  numVotes > 0 */\n      iszero\n        /* \"contracts/LunchVenue.sol\":6606:6662  if (numVotes > 0) {... */\n      tag_245\n      jumpi\n        /* \"contracts/LunchVenue.sol\":6638:6651  finalResult() */\n      tag_245\n        /* \"contracts/LunchVenue.sol\":6638:6649  finalResult */\n      tag_246\n        /* \"contracts/LunchVenue.sol\":6638:6651  finalResult() */\n      jump\t// in\n    tag_245:\n        /* \"contracts/LunchVenue.sol\":6705:6713  voteOpen */\n      0x09\n        /* \"contracts/LunchVenue.sol\":6705:6721  voteOpen = false */\n      dup1\n      sload\n      not(0xff)\n      dup2\n      and\n      dup3\n      sstore\n        /* \"contracts/LunchVenue.sol\":6746:6757  Phase.Ended */\n      0x02\n      swap2\n        /* \"contracts/LunchVenue.sol\":6705:6713  voteOpen */\n      swap1\n      not(0xffff)\n        /* \"contracts/LunchVenue.sol\":6731:6757  currentPhase = Phase.Ended */\n      and\n        /* \"contracts/LunchVenue.sol\":6705:6721  voteOpen = false */\n      0x0100\n        /* \"contracts/LunchVenue.sol\":6746:6757  Phase.Ended */\n      dup4\n        /* \"contracts/LunchVenue.sol\":6731:6757  currentPhase = Phase.Ended */\n      jump(tag_242)\n        /* \"contracts/LunchVenue.sol\":8788:9393  function finalResult() private{... */\n    tag_246:\n        /* \"contracts/LunchVenue.sol\":8828:8845  uint highestVotes */\n      0x00\n      dup1\n        /* \"contracts/LunchVenue.sol\":8918:8919  1 */\n      0x01\n        /* \"contracts/LunchVenue.sol\":8904:9329  for (uint i = 1; i <= numVotes; i++){... */\n    tag_250:\n        /* \"contracts/LunchVenue.sol\":8926:8934  numVotes */\n      sload(0x04)\n        /* \"contracts/LunchVenue.sol\":8921:8922  i */\n      dup2\n        /* \"contracts/LunchVenue.sol\":8921:8934  i <= numVotes */\n      gt\n        /* \"contracts/LunchVenue.sol\":8904:9329  for (uint i = 1; i <= numVotes; i++){... */\n      tag_251\n      jumpi\n        /* \"contracts/LunchVenue.sol\":8954:8968  uint voteCount */\n      0x00\n        /* \"contracts/LunchVenue.sol\":8998:9006  votes[i] */\n      dup2\n      dup2\n      mstore\n        /* \"contracts/LunchVenue.sol\":8998:9003  votes */\n      0x07\n        /* \"contracts/LunchVenue.sol\":8998:9006  votes[i] */\n      0x20\n      swap1\n      dup2\n      mstore\n      0x40\n      dup1\n      dup4\n      keccak256\n        /* \"contracts/LunchVenue.sol\":8971:8972  1 */\n      0x01\n        /* \"contracts/LunchVenue.sol\":8998:9017  votes[i].restaurant */\n      swap1\n      dup2\n      add\n      sload\n        /* \"contracts/LunchVenue.sol\":8989:9018  _results[votes[i].restaurant] */\n      dup5\n      mstore\n        /* \"contracts/LunchVenue.sol\":8989:8997  _results */\n      0x08\n        /* \"contracts/LunchVenue.sol\":8989:9018  _results[votes[i].restaurant] */\n      swap1\n      swap3\n      mstore\n      swap1\n      swap2\n      keccak256\n      sload\n        /* \"contracts/LunchVenue.sol\":8989:9022  _results[votes[i].restaurant] > 0 */\n      iszero\n        /* \"contracts/LunchVenue.sol\":8986:9099  if(_results[votes[i].restaurant] > 0) {... */\n      tag_253\n      jumpi\n        /* \"contracts/LunchVenue.sol\":9055:9084  _results[votes[i].restaurant] */\n      0x00\n        /* \"contracts/LunchVenue.sol\":9064:9072  votes[i] */\n      dup3\n      dup2\n      mstore\n        /* \"contracts/LunchVenue.sol\":9064:9069  votes */\n      0x07\n        /* \"contracts/LunchVenue.sol\":9064:9072  votes[i] */\n      0x20\n      swap1\n      dup2\n      mstore\n      0x40\n      dup1\n      dup4\n      keccak256\n        /* \"contracts/LunchVenue.sol\":9064:9083  votes[i].restaurant */\n      0x01\n      add\n      sload\n        /* \"contracts/LunchVenue.sol\":9055:9084  _results[votes[i].restaurant] */\n      dup4\n      mstore\n        /* \"contracts/LunchVenue.sol\":9055:9063  _results */\n      0x08\n        /* \"contracts/LunchVenue.sol\":9055:9084  _results[votes[i].restaurant] */\n      swap1\n      swap2\n      mstore\n      swap1\n      keccak256\n      sload\n        /* \"contracts/LunchVenue.sol\":9042:9084  voteCount += _results[votes[i].restaurant] */\n      tag_254\n      swap1\n      dup3\n      tag_133\n      jump\t// in\n    tag_254:\n      swap1\n      pop\n        /* \"contracts/LunchVenue.sol\":8986:9099  if(_results[votes[i].restaurant] > 0) {... */\n    tag_253:\n        /* \"contracts/LunchVenue.sol\":9112:9141  _results[votes[i].restaurant] */\n      0x00\n        /* \"contracts/LunchVenue.sol\":9121:9129  votes[i] */\n      dup3\n      dup2\n      mstore\n        /* \"contracts/LunchVenue.sol\":9121:9126  votes */\n      0x07\n        /* \"contracts/LunchVenue.sol\":9121:9129  votes[i] */\n      0x20\n      swap1\n      dup2\n      mstore\n      0x40\n      dup1\n      dup4\n      keccak256\n        /* \"contracts/LunchVenue.sol\":9121:9140  votes[i].restaurant */\n      0x01\n      add\n      sload\n        /* \"contracts/LunchVenue.sol\":9112:9141  _results[votes[i].restaurant] */\n      dup4\n      mstore\n        /* \"contracts/LunchVenue.sol\":9112:9120  _results */\n      0x08\n        /* \"contracts/LunchVenue.sol\":9112:9141  _results[votes[i].restaurant] */\n      swap1\n      swap2\n      mstore\n      swap1\n      keccak256\n        /* \"contracts/LunchVenue.sol\":9112:9153  _results[votes[i].restaurant] = voteCount */\n      dup2\n      swap1\n      sstore\n        /* \"contracts/LunchVenue.sol\":9180:9204  voteCount > highestVotes */\n      dup4\n      dup2\n      gt\n        /* \"contracts/LunchVenue.sol\":9176:9319  if (voteCount > highestVotes){... */\n      iszero\n      tag_255\n      jumpi\n        /* \"contracts/LunchVenue.sol\":9285:9293  votes[i] */\n      0x00\n      dup3\n      dup2\n      mstore\n        /* \"contracts/LunchVenue.sol\":9285:9290  votes */\n      0x07\n        /* \"contracts/LunchVenue.sol\":9285:9293  votes[i] */\n      0x20\n      mstore\n      0x40\n      swap1\n      keccak256\n        /* \"contracts/LunchVenue.sol\":9285:9304  votes[i].restaurant */\n      0x01\n      add\n      sload\n        /* \"contracts/LunchVenue.sol\":9238:9247  voteCount */\n      swap1\n      swap4\n      pop\n        /* \"contracts/LunchVenue.sol\":9285:9304  votes[i].restaurant */\n      swap2\n      pop\n        /* \"contracts/LunchVenue.sol\":9238:9247  voteCount */\n      dup3\n        /* \"contracts/LunchVenue.sol\":9176:9319  if (voteCount > highestVotes){... */\n    tag_255:\n      pop\n        /* \"contracts/LunchVenue.sol\":8936:8939  i++ */\n      dup1\n      tag_256\n      dup2\n      tag_129\n      jump\t// in\n    tag_256:\n      swap2\n      pop\n      pop\n        /* \"contracts/LunchVenue.sol\":8904:9329  for (uint i = 1; i <= numVotes; i++){... */\n      jump(tag_250)\n    tag_251:\n      pop\n        /* \"contracts/LunchVenue.sol\":9356:9367  restaurants */\n      0x00\n        /* \"contracts/LunchVenue.sol\":9356:9386  restaurants[highestRestaurant] */\n      dup2\n      dup2\n      mstore\n      0x20\n      dup2\n      swap1\n      mstore\n      0x40\n      swap1\n      keccak256\n        /* \"contracts/LunchVenue.sol\":9338:9386  votedRestaurant = restaurants[highestRestaurant] */\n      dup1\n      sload\n        /* \"contracts/LunchVenue.sol\":9338:9353  votedRestaurant */\n      0x06\n      swap2\n        /* \"contracts/LunchVenue.sol\":9356:9386  restaurants[highestRestaurant] */\n      swap1\n        /* \"contracts/LunchVenue.sol\":9338:9386  votedRestaurant = restaurants[highestRestaurant] */\n      tag_257\n      swap1\n      tag_112\n      jump\t// in\n    tag_257:\n      tag_258\n      swap3\n      swap2\n      swap1\n      tag_259\n      jump\t// in\n    tag_258:\n      pop\n        /* \"contracts/LunchVenue.sol\":8818:9393  {... */\n      pop\n      pop\n        /* \"contracts/LunchVenue.sol\":8788:9393  function finalResult() private{... */\n      jump\t// out\n    tag_166:\n      dup3\n      dup1\n      sload\n      tag_260\n      swap1\n      tag_112\n      jump\t// in\n    tag_260:\n      swap1\n      0x00\n      mstore\n      keccak256(0x00, 0x20)\n      swap1\n      0x1f\n      add\n      0x20\n      swap1\n      div\n      dup2\n      add\n      swap3\n      dup3\n      tag_262\n      jumpi\n      0x00\n      dup6\n      sstore\n      jump(tag_265)\n    tag_262:\n      dup3\n      0x1f\n      lt\n      tag_263\n      jumpi\n      dup1\n      mload\n      not(0xff)\n      and\n      dup4\n      dup1\n      add\n      or\n      dup6\n      sstore\n      jump(tag_265)\n    tag_263:\n      dup3\n      dup1\n      add\n      0x01\n      add\n      dup6\n      sstore\n      dup3\n      iszero\n      tag_265\n      jumpi\n      swap2\n      dup3\n      add\n    tag_264:\n      dup3\n      dup2\n      gt\n      iszero\n      tag_265\n      jumpi\n      dup3\n      mload\n      dup3\n      sstore\n      swap2\n      0x20\n      add\n      swap2\n      swap1\n      0x01\n      add\n      swap1\n      jump(tag_264)\n    tag_265:\n      pop\n      tag_266\n      swap3\n      swap2\n      pop\n      tag_267\n      jump\t// in\n    tag_266:\n      pop\n      swap1\n      jump\t// out\n    tag_259:\n      dup3\n      dup1\n      sload\n      tag_268\n      swap1\n      tag_112\n      jump\t// in\n    tag_268:\n      swap1\n      0x00\n      mstore\n      keccak256(0x00, 0x20)\n      swap1\n      0x1f\n      add\n      0x20\n      swap1\n      div\n      dup2\n      add\n      swap3\n      dup3\n      tag_270\n      jumpi\n      0x00\n      dup6\n      sstore\n      jump(tag_265)\n    tag_270:\n      dup3\n      0x1f\n      lt\n      tag_271\n      jumpi\n      dup1\n      sload\n      dup6\n      sstore\n      jump(tag_265)\n    tag_271:\n      dup3\n      dup1\n      add\n      0x01\n      add\n      dup6\n      sstore\n      dup3\n      iszero\n      tag_265\n      jumpi\n      0x00\n      mstore\n      keccak256(0x00, 0x20)\n      swap2\n      0x1f\n      add\n      0x20\n      swap1\n      div\n      dup3\n      add\n    tag_272:\n      dup3\n      dup2\n      gt\n      iszero\n      tag_265\n      jumpi\n      dup3\n      sload\n      dup3\n      sstore\n      swap2\n      0x01\n      add\n      swap2\n      swap1\n      0x01\n      add\n      swap1\n      jump(tag_272)\n    tag_267:\n    tag_275:\n      dup1\n      dup3\n      gt\n      iszero\n      tag_266\n      jumpi\n      0x00\n      dup2\n      sstore\n      0x01\n      add\n      jump(tag_275)\n        /* \"#utility.yul\":14:187   */\n    tag_278:\n        /* \"#utility.yul\":82:102   */\n      dup1\n      calldataload\n      sub(shl(0xa0, 0x01), 0x01)\n        /* \"#utility.yul\":131:162   */\n      dup2\n      and\n        /* \"#utility.yul\":121:163   */\n      dup2\n      eq\n        /* \"#utility.yul\":111:113   */\n      tag_280\n      jumpi\n        /* \"#utility.yul\":177:178   */\n      0x00\n        /* \"#utility.yul\":174:175   */\n      dup1\n        /* \"#utility.yul\":167:179   */\n      revert\n        /* \"#utility.yul\":111:113   */\n    tag_280:\n        /* \"#utility.yul\":63:187   */\n      swap2\n      swap1\n      pop\n      jump\t// out\n        /* \"#utility.yul\":192:911   */\n    tag_281:\n        /* \"#utility.yul\":235:240   */\n      0x00\n        /* \"#utility.yul\":288:291   */\n      dup3\n        /* \"#utility.yul\":281:285   */\n      0x1f\n        /* \"#utility.yul\":273:279   */\n      dup4\n        /* \"#utility.yul\":269:286   */\n      add\n        /* \"#utility.yul\":265:292   */\n      slt\n        /* \"#utility.yul\":255:257   */\n      tag_283\n      jumpi\n        /* \"#utility.yul\":306:307   */\n      0x00\n        /* \"#utility.yul\":303:304   */\n      dup1\n        /* \"#utility.yul\":296:308   */\n      revert\n        /* \"#utility.yul\":255:257   */\n    tag_283:\n        /* \"#utility.yul\":342:348   */\n      dup2\n        /* \"#utility.yul\":329:349   */\n      calldataload\n        /* \"#utility.yul\":368:386   */\n      0xffffffffffffffff\n        /* \"#utility.yul\":405:407   */\n      dup1\n        /* \"#utility.yul\":401:403   */\n      dup3\n        /* \"#utility.yul\":398:408   */\n      gt\n        /* \"#utility.yul\":395:397   */\n      iszero\n      tag_285\n      jumpi\n        /* \"#utility.yul\":411:429   */\n      tag_285\n      tag_286\n      jump\t// in\n    tag_285:\n        /* \"#utility.yul\":486:488   */\n      0x40\n        /* \"#utility.yul\":480:489   */\n      mload\n        /* \"#utility.yul\":454:456   */\n      0x1f\n        /* \"#utility.yul\":540:553   */\n      dup4\n      add\n      not(0x1f)\n        /* \"#utility.yul\":536:558   */\n      swap1\n      dup2\n      and\n        /* \"#utility.yul\":560:562   */\n      0x3f\n        /* \"#utility.yul\":532:563   */\n      add\n        /* \"#utility.yul\":528:568   */\n      and\n        /* \"#utility.yul\":516:569   */\n      dup2\n      add\n      swap1\n        /* \"#utility.yul\":584:602   */\n      dup3\n      dup3\n      gt\n        /* \"#utility.yul\":604:626   */\n      dup2\n      dup4\n      lt\n        /* \"#utility.yul\":581:627   */\n      or\n        /* \"#utility.yul\":578:580   */\n      iszero\n      tag_288\n      jumpi\n        /* \"#utility.yul\":630:648   */\n      tag_288\n      tag_286\n      jump\t// in\n    tag_288:\n        /* \"#utility.yul\":670:680   */\n      dup2\n        /* \"#utility.yul\":666:668   */\n      0x40\n        /* \"#utility.yul\":659:681   */\n      mstore\n        /* \"#utility.yul\":705:707   */\n      dup4\n        /* \"#utility.yul\":697:703   */\n      dup2\n        /* \"#utility.yul\":690:708   */\n      mstore\n        /* \"#utility.yul\":751:754   */\n      dup7\n        /* \"#utility.yul\":744:748   */\n      0x20\n        /* \"#utility.yul\":739:741   */\n      dup6\n        /* \"#utility.yul\":731:737   */\n      dup9\n        /* \"#utility.yul\":727:742   */\n      add\n        /* \"#utility.yul\":723:749   */\n      add\n        /* \"#utility.yul\":720:755   */\n      gt\n        /* \"#utility.yul\":717:719   */\n      iszero\n      tag_289\n      jumpi\n        /* \"#utility.yul\":768:769   */\n      0x00\n        /* \"#utility.yul\":765:766   */\n      dup1\n        /* \"#utility.yul\":758:770   */\n      revert\n        /* \"#utility.yul\":717:719   */\n    tag_289:\n        /* \"#utility.yul\":832:834   */\n      dup4\n        /* \"#utility.yul\":825:829   */\n      0x20\n        /* \"#utility.yul\":817:823   */\n      dup8\n        /* \"#utility.yul\":813:830   */\n      add\n        /* \"#utility.yul\":806:810   */\n      0x20\n        /* \"#utility.yul\":798:804   */\n      dup4\n        /* \"#utility.yul\":794:811   */\n      add\n        /* \"#utility.yul\":781:835   */\n      calldatacopy\n        /* \"#utility.yul\":879:880   */\n      0x00\n        /* \"#utility.yul\":872:876   */\n      0x20\n        /* \"#utility.yul\":867:869   */\n      dup6\n        /* \"#utility.yul\":859:865   */\n      dup4\n        /* \"#utility.yul\":855:870   */\n      add\n        /* \"#utility.yul\":851:877   */\n      add\n        /* \"#utility.yul\":844:881   */\n      mstore\n        /* \"#utility.yul\":899:905   */\n      dup1\n        /* \"#utility.yul\":890:905   */\n      swap5\n      pop\n      pop\n      pop\n      pop\n      pop\n        /* \"#utility.yul\":245:911   */\n      swap3\n      swap2\n      pop\n      pop\n      jump\t// out\n        /* \"#utility.yul\":916:1102   */\n    tag_40:\n        /* \"#utility.yul\":975:981   */\n      0x00\n        /* \"#utility.yul\":1028:1030   */\n      0x20\n        /* \"#utility.yul\":1016:1025   */\n      dup3\n        /* \"#utility.yul\":1007:1014   */\n      dup5\n        /* \"#utility.yul\":1003:1026   */\n      sub\n        /* \"#utility.yul\":999:1031   */\n      slt\n        /* \"#utility.yul\":996:998   */\n      iszero\n      tag_291\n      jumpi\n        /* \"#utility.yul\":1044:1045   */\n      0x00\n        /* \"#utility.yul\":1041:1042   */\n      dup1\n        /* \"#utility.yul\":1034:1046   */\n      revert\n        /* \"#utility.yul\":996:998   */\n    tag_291:\n        /* \"#utility.yul\":1067:1096   */\n      tag_292\n        /* \"#utility.yul\":1086:1095   */\n      dup3\n        /* \"#utility.yul\":1067:1096   */\n      tag_278\n      jump\t// in\n    tag_292:\n        /* \"#utility.yul\":1057:1096   */\n      swap4\n        /* \"#utility.yul\":986:1102   */\n      swap3\n      pop\n      pop\n      pop\n      jump\t// out\n        /* \"#utility.yul\":1107:1503   */\n    tag_46:\n        /* \"#utility.yul\":1185:1191   */\n      0x00\n        /* \"#utility.yul\":1193:1199   */\n      dup1\n        /* \"#utility.yul\":1246:1248   */\n      0x40\n        /* \"#utility.yul\":1234:1243   */\n      dup4\n        /* \"#utility.yul\":1225:1232   */\n      dup6\n        /* \"#utility.yul\":1221:1244   */\n      sub\n        /* \"#utility.yul\":1217:1249   */\n      slt\n        /* \"#utility.yul\":1214:1216   */\n      iszero\n      tag_294\n      jumpi\n        /* \"#utility.yul\":1262:1263   */\n      0x00\n        /* \"#utility.yul\":1259:1260   */\n      dup1\n        /* \"#utility.yul\":1252:1264   */\n      revert\n        /* \"#utility.yul\":1214:1216   */\n    tag_294:\n        /* \"#utility.yul\":1285:1314   */\n      tag_295\n        /* \"#utility.yul\":1304:1313   */\n      dup4\n        /* \"#utility.yul\":1285:1314   */\n      tag_278\n      jump\t// in\n    tag_295:\n        /* \"#utility.yul\":1275:1314   */\n      swap2\n      pop\n        /* \"#utility.yul\":1365:1367   */\n      0x20\n        /* \"#utility.yul\":1354:1363   */\n      dup4\n        /* \"#utility.yul\":1350:1368   */\n      add\n        /* \"#utility.yul\":1337:1369   */\n      calldataload\n        /* \"#utility.yul\":1392:1410   */\n      0xffffffffffffffff\n        /* \"#utility.yul\":1384:1390   */\n      dup2\n        /* \"#utility.yul\":1381:1411   */\n      gt\n        /* \"#utility.yul\":1378:1380   */\n      iszero\n      tag_296\n      jumpi\n        /* \"#utility.yul\":1424:1425   */\n      0x00\n        /* \"#utility.yul\":1421:1422   */\n      dup1\n        /* \"#utility.yul\":1414:1426   */\n      revert\n        /* \"#utility.yul\":1378:1380   */\n    tag_296:\n        /* \"#utility.yul\":1447:1497   */\n      tag_297\n        /* \"#utility.yul\":1489:1496   */\n      dup6\n        /* \"#utility.yul\":1480:1486   */\n      dup3\n        /* \"#utility.yul\":1469:1478   */\n      dup7\n        /* \"#utility.yul\":1465:1487   */\n      add\n        /* \"#utility.yul\":1447:1497   */\n      tag_281\n      jump\t// in\n    tag_297:\n        /* \"#utility.yul\":1437:1497   */\n      swap2\n      pop\n      pop\n        /* \"#utility.yul\":1204:1503   */\n      swap3\n      pop\n      swap3\n      swap1\n      pop\n      jump\t// out\n        /* \"#utility.yul\":1508:1830   */\n    tag_66:\n        /* \"#utility.yul\":1577:1583   */\n      0x00\n        /* \"#utility.yul\":1630:1632   */\n      0x20\n        /* \"#utility.yul\":1618:1627   */\n      dup3\n        /* \"#utility.yul\":1609:1616   */\n      dup5\n        /* \"#utility.yul\":1605:1628   */\n      sub\n        /* \"#utility.yul\":1601:1633   */\n      slt\n        /* \"#utility.yul\":1598:1600   */\n      iszero\n      tag_299\n      jumpi\n        /* \"#utility.yul\":1646:1647   */\n      0x00\n        /* \"#utility.yul\":1643:1644   */\n      dup1\n        /* \"#utility.yul\":1636:1648   */\n      revert\n        /* \"#utility.yul\":1598:1600   */\n    tag_299:\n        /* \"#utility.yul\":1686:1695   */\n      dup2\n        /* \"#utility.yul\":1673:1696   */\n      calldataload\n        /* \"#utility.yul\":1719:1737   */\n      0xffffffffffffffff\n        /* \"#utility.yul\":1711:1717   */\n      dup2\n        /* \"#utility.yul\":1708:1738   */\n      gt\n        /* \"#utility.yul\":1705:1707   */\n      iszero\n      tag_300\n      jumpi\n        /* \"#utility.yul\":1751:1752   */\n      0x00\n        /* \"#utility.yul\":1748:1749   */\n      dup1\n        /* \"#utility.yul\":1741:1753   */\n      revert\n        /* \"#utility.yul\":1705:1707   */\n    tag_300:\n        /* \"#utility.yul\":1774:1824   */\n      tag_301\n        /* \"#utility.yul\":1816:1823   */\n      dup5\n        /* \"#utility.yul\":1807:1813   */\n      dup3\n        /* \"#utility.yul\":1796:1805   */\n      dup6\n        /* \"#utility.yul\":1792:1814   */\n      add\n        /* \"#utility.yul\":1774:1824   */\n      tag_281\n      jump\t// in\n    tag_301:\n        /* \"#utility.yul\":1764:1824   */\n      swap5\n        /* \"#utility.yul\":1588:1830   */\n      swap4\n      pop\n      pop\n      pop\n      pop\n      jump\t// out\n        /* \"#utility.yul\":1835:2015   */\n    tag_34:\n        /* \"#utility.yul\":1894:1900   */\n      0x00\n        /* \"#utility.yul\":1947:1949   */\n      0x20\n        /* \"#utility.yul\":1935:1944   */\n      dup3\n        /* \"#utility.yul\":1926:1933   */\n      dup5\n        /* \"#utility.yul\":1922:1945   */\n      sub\n        /* \"#utility.yul\":1918:1950   */\n      slt\n        /* \"#utility.yul\":1915:1917   */\n      iszero\n      tag_303\n      jumpi\n        /* \"#utility.yul\":1963:1964   */\n      0x00\n        /* \"#utility.yul\":1960:1961   */\n      dup1\n        /* \"#utility.yul\":1953:1965   */\n      revert\n        /* \"#utility.yul\":1915:1917   */\n    tag_303:\n      pop\n        /* \"#utility.yul\":1986:2009   */\n      calldataload\n      swap2\n        /* \"#utility.yul\":1905:2015   */\n      swap1\n      pop\n      jump\t// out\n        /* \"#utility.yul\":2020:2278   */\n    tag_304:\n        /* \"#utility.yul\":2062:2065   */\n      0x00\n        /* \"#utility.yul\":2100:2105   */\n      dup2\n        /* \"#utility.yul\":2094:2106   */\n      mload\n        /* \"#utility.yul\":2127:2133   */\n      dup1\n        /* \"#utility.yul\":2122:2125   */\n      dup5\n        /* \"#utility.yul\":2115:2134   */\n      mstore\n        /* \"#utility.yul\":2143:2206   */\n      tag_306\n        /* \"#utility.yul\":2199:2205   */\n      dup2\n        /* \"#utility.yul\":2192:2196   */\n      0x20\n        /* \"#utility.yul\":2187:2190   */\n      dup7\n        /* \"#utility.yul\":2183:2197   */\n      add\n        /* \"#utility.yul\":2176:2180   */\n      0x20\n        /* \"#utility.yul\":2169:2174   */\n      dup7\n        /* \"#utility.yul\":2165:2181   */\n      add\n        /* \"#utility.yul\":2143:2206   */\n      tag_307\n      jump\t// in\n    tag_306:\n        /* \"#utility.yul\":2260:2262   */\n      0x1f\n        /* \"#utility.yul\":2239:2254   */\n      add\n      not(0x1f)\n        /* \"#utility.yul\":2235:2264   */\n      and\n        /* \"#utility.yul\":2226:2265   */\n      swap3\n      swap1\n      swap3\n      add\n        /* \"#utility.yul\":2267:2271   */\n      0x20\n        /* \"#utility.yul\":2222:2272   */\n      add\n      swap3\n        /* \"#utility.yul\":2070:2278   */\n      swap2\n      pop\n      pop\n      jump\t// out\n        /* \"#utility.yul\":2283:2559   */\n    tag_206:\n        /* \"#utility.yul\":2414:2417   */\n      0x00\n        /* \"#utility.yul\":2452:2458   */\n      dup3\n        /* \"#utility.yul\":2446:2459   */\n      mload\n        /* \"#utility.yul\":2468:2521   */\n      tag_309\n        /* \"#utility.yul\":2514:2520   */\n      dup2\n        /* \"#utility.yul\":2509:2512   */\n      dup5\n        /* \"#utility.yul\":2502:2506   */\n      0x20\n        /* \"#utility.yul\":2494:2500   */\n      dup8\n        /* \"#utility.yul\":2490:2507   */\n      add\n        /* \"#utility.yul\":2468:2521   */\n      tag_307\n      jump\t// in\n    tag_309:\n        /* \"#utility.yul\":2537:2553   */\n      swap2\n      swap1\n      swap2\n      add\n      swap3\n        /* \"#utility.yul\":2422:2559   */\n      swap2\n      pop\n      pop\n      jump\t// out\n        /* \"#utility.yul\":3243:3579   */\n    tag_27:\n        /* \"#utility.yul\":3383:3385   */\n      0x20\n        /* \"#utility.yul\":3368:3386   */\n      dup2\n      add\n        /* \"#utility.yul\":3416:3417   */\n      0x03\n        /* \"#utility.yul\":3405:3418   */\n      dup4\n      lt\n        /* \"#utility.yul\":3395:3397   */\n      tag_314\n      jumpi\n        /* \"#utility.yul\":3461:3471   */\n      0x4e487b71\n        /* \"#utility.yul\":3456:3459   */\n      0xe0\n        /* \"#utility.yul\":3452:3472   */\n      shl\n        /* \"#utility.yul\":3449:3450   */\n      0x00\n        /* \"#utility.yul\":3442:3473   */\n      mstore\n        /* \"#utility.yul\":3496:3500   */\n      0x21\n        /* \"#utility.yul\":3493:3494   */\n      0x04\n        /* \"#utility.yul\":3486:3501   */\n      mstore\n        /* \"#utility.yul\":3524:3528   */\n      0x24\n        /* \"#utility.yul\":3521:3522   */\n      0x00\n        /* \"#utility.yul\":3514:3529   */\n      revert\n        /* \"#utility.yul\":3395:3397   */\n    tag_314:\n        /* \"#utility.yul\":3548:3573   */\n      swap2\n      swap1\n      mstore\n        /* \"#utility.yul\":3350:3579   */\n      swap1\n      jump\t// out\n        /* \"#utility.yul\":3584:3804   */\n    tag_79:\n        /* \"#utility.yul\":3733:3735   */\n      0x20\n        /* \"#utility.yul\":3722:3731   */\n      dup2\n        /* \"#utility.yul\":3715:3736   */\n      mstore\n        /* \"#utility.yul\":3696:3700   */\n      0x00\n        /* \"#utility.yul\":3753:3798   */\n      tag_292\n        /* \"#utility.yul\":3794:3796   */\n      0x20\n        /* \"#utility.yul\":3783:3792   */\n      dup4\n        /* \"#utility.yul\":3779:3797   */\n      add\n        /* \"#utility.yul\":3771:3777   */\n      dup5\n        /* \"#utility.yul\":3753:3798   */\n      tag_304\n      jump\t// in\n        /* \"#utility.yul\":3809:4110   */\n    tag_43:\n        /* \"#utility.yul\":3980:3982   */\n      0x40\n        /* \"#utility.yul\":3969:3978   */\n      dup2\n        /* \"#utility.yul\":3962:3983   */\n      mstore\n        /* \"#utility.yul\":3943:3947   */\n      0x00\n        /* \"#utility.yul\":4000:4045   */\n      tag_318\n        /* \"#utility.yul\":4041:4043   */\n      0x40\n        /* \"#utility.yul\":4030:4039   */\n      dup4\n        /* \"#utility.yul\":4026:4044   */\n      add\n        /* \"#utility.yul\":4018:4024   */\n      dup6\n        /* \"#utility.yul\":4000:4045   */\n      tag_304\n      jump\t// in\n    tag_318:\n        /* \"#utility.yul\":3992:4045   */\n      swap1\n      pop\n        /* \"#utility.yul\":4095:4101   */\n      dup3\n        /* \"#utility.yul\":4088:4102   */\n      iszero\n        /* \"#utility.yul\":4081:4103   */\n      iszero\n        /* \"#utility.yul\":4076:4078   */\n      0x20\n        /* \"#utility.yul\":4065:4074   */\n      dup4\n        /* \"#utility.yul\":4061:4079   */\n      add\n        /* \"#utility.yul\":4054:4104   */\n      mstore\n        /* \"#utility.yul\":3952:4110   */\n      swap4\n      swap3\n      pop\n      pop\n      pop\n      jump\t// out\n        /* \"#utility.yul\":5581:5927   */\n    tag_96:\n        /* \"#utility.yul\":5783:5785   */\n      0x20\n        /* \"#utility.yul\":5765:5786   */\n      dup1\n      dup3\n      mstore\n        /* \"#utility.yul\":5822:5824   */\n      0x16\n        /* \"#utility.yul\":5802:5820   */\n      swap1\n      dup3\n      add\n        /* \"#utility.yul\":5795:5825   */\n      mstore\n      shl(0x51, 0x21b7b73a3930b1ba1034b99039b43aba103237bbb717)\n        /* \"#utility.yul\":5856:5858   */\n      0x40\n        /* \"#utility.yul\":5841:5859   */\n      dup3\n      add\n        /* \"#utility.yul\":5834:5886   */\n      mstore\n        /* \"#utility.yul\":5918:5920   */\n      0x60\n        /* \"#utility.yul\":5903:5921   */\n      add\n      swap1\n        /* \"#utility.yul\":5755:5927   */\n      jump\t// out\n        /* \"#utility.yul\":5932:6331   */\n    tag_144:\n        /* \"#utility.yul\":6134:6136   */\n      0x20\n        /* \"#utility.yul\":6116:6137   */\n      dup1\n      dup3\n      mstore\n        /* \"#utility.yul\":6173:6175   */\n      0x23\n        /* \"#utility.yul\":6153:6171   */\n      swap1\n      dup3\n      add\n        /* \"#utility.yul\":6146:6176   */\n      mstore\n        /* \"#utility.yul\":6212:6246   */\n      0x43616e206f6e6c7920626520657865637574656420627920746865206d616e61\n        /* \"#utility.yul\":6207:6209   */\n      0x40\n        /* \"#utility.yul\":6192:6210   */\n      dup3\n      add\n        /* \"#utility.yul\":6185:6247   */\n      mstore\n      shl(0xe9, 0x33b2b9)\n        /* \"#utility.yul\":6278:6280   */\n      0x60\n        /* \"#utility.yul\":6263:6281   */\n      dup3\n      add\n        /* \"#utility.yul\":6256:6289   */\n      mstore\n        /* \"#utility.yul\":6321:6324   */\n      0x80\n        /* \"#utility.yul\":6306:6325   */\n      add\n      swap1\n        /* \"#utility.yul\":6106:6331   */\n      jump\t// out\n        /* \"#utility.yul\":6740:7140   */\n    tag_105:\n        /* \"#utility.yul\":6942:6944   */\n      0x20\n        /* \"#utility.yul\":6924:6945   */\n      dup1\n      dup3\n      mstore\n        /* \"#utility.yul\":6981:6983   */\n      0x24\n        /* \"#utility.yul\":6961:6979   */\n      swap1\n      dup3\n      add\n        /* \"#utility.yul\":6954:6984   */\n      mstore\n        /* \"#utility.yul\":7020:7054   */\n      0x416374696f6e206e6f7420616c6c6f77656420696e2063757272656e74207068\n        /* \"#utility.yul\":7015:7017   */\n      0x40\n        /* \"#utility.yul\":7000:7018   */\n      dup3\n      add\n        /* \"#utility.yul\":6993:7055   */\n      mstore\n      shl(0xe1, 0x30b9b297)\n        /* \"#utility.yul\":7086:7088   */\n      0x60\n        /* \"#utility.yul\":7071:7089   */\n      dup3\n      add\n        /* \"#utility.yul\":7064:7098   */\n      mstore\n        /* \"#utility.yul\":7130:7133   */\n      0x80\n        /* \"#utility.yul\":7115:7134   */\n      add\n      swap1\n        /* \"#utility.yul\":6914:7140   */\n      jump\t// out\n        /* \"#utility.yul\":9146:9274   */\n    tag_133:\n        /* \"#utility.yul\":9186:9189   */\n      0x00\n        /* \"#utility.yul\":9217:9218   */\n      dup3\n        /* \"#utility.yul\":9213:9219   */\n      not\n        /* \"#utility.yul\":9210:9211   */\n      dup3\n        /* \"#utility.yul\":9207:9220   */\n      gt\n        /* \"#utility.yul\":9204:9206   */\n      iszero\n      tag_335\n      jumpi\n        /* \"#utility.yul\":9223:9241   */\n      tag_335\n      tag_336\n      jump\t// in\n    tag_335:\n      pop\n        /* \"#utility.yul\":9259:9268   */\n      add\n      swap1\n        /* \"#utility.yul\":9194:9274   */\n      jump\t// out\n        /* \"#utility.yul\":9279:9496   */\n    tag_131:\n        /* \"#utility.yul\":9319:9320   */\n      0x00\n        /* \"#utility.yul\":9345:9346   */\n      dup3\n        /* \"#utility.yul\":9335:9337   */\n      tag_338\n      jumpi\n        /* \"#utility.yul\":9389:9399   */\n      0x4e487b71\n        /* \"#utility.yul\":9384:9387   */\n      0xe0\n        /* \"#utility.yul\":9380:9400   */\n      shl\n        /* \"#utility.yul\":9377:9378   */\n      0x00\n        /* \"#utility.yul\":9370:9401   */\n      mstore\n        /* \"#utility.yul\":9424:9428   */\n      0x12\n        /* \"#utility.yul\":9421:9422   */\n      0x04\n        /* \"#utility.yul\":9414:9429   */\n      mstore\n        /* \"#utility.yul\":9452:9456   */\n      0x24\n        /* \"#utility.yul\":9449:9450   */\n      0x00\n        /* \"#utility.yul\":9442:9457   */\n      revert\n        /* \"#utility.yul\":9335:9337   */\n    tag_338:\n      pop\n        /* \"#utility.yul\":9481:9490   */\n      div\n      swap1\n        /* \"#utility.yul\":9325:9496   */\n      jump\t// out\n        /* \"#utility.yul\":9501:9759   */\n    tag_307:\n        /* \"#utility.yul\":9573:9574   */\n      0x00\n        /* \"#utility.yul\":9583:9696   */\n    tag_340:\n        /* \"#utility.yul\":9597:9603   */\n      dup4\n        /* \"#utility.yul\":9594:9595   */\n      dup2\n        /* \"#utility.yul\":9591:9604   */\n      lt\n        /* \"#utility.yul\":9583:9696   */\n      iszero\n      tag_342\n      jumpi\n        /* \"#utility.yul\":9673:9684   */\n      dup2\n      dup2\n      add\n        /* \"#utility.yul\":9667:9685   */\n      mload\n        /* \"#utility.yul\":9654:9665   */\n      dup4\n      dup3\n      add\n        /* \"#utility.yul\":9647:9686   */\n      mstore\n        /* \"#utility.yul\":9619:9621   */\n      0x20\n        /* \"#utility.yul\":9612:9622   */\n      add\n        /* \"#utility.yul\":9583:9696   */\n      jump(tag_340)\n    tag_342:\n        /* \"#utility.yul\":9714:9720   */\n      dup4\n        /* \"#utility.yul\":9711:9712   */\n      dup2\n        /* \"#utility.yul\":9708:9721   */\n      gt\n        /* \"#utility.yul\":9705:9707   */\n      iszero\n      tag_343\n      jumpi\n        /* \"#utility.yul\":9749:9750   */\n      0x00\n        /* \"#utility.yul\":9740:9746   */\n      dup5\n        /* \"#utility.yul\":9735:9738   */\n      dup5\n        /* \"#utility.yul\":9731:9747   */\n      add\n        /* \"#utility.yul\":9724:9751   */\n      mstore\n        /* \"#utility.yul\":9705:9707   */\n    tag_343:\n      pop\n        /* \"#utility.yul\":9554:9759   */\n      pop\n      pop\n      pop\n      jump\t// out\n        /* \"#utility.yul\":9764:10144   */\n    tag_112:\n        /* \"#utility.yul\":9843:9844   */\n      0x01\n        /* \"#utility.yul\":9839:9851   */\n      dup2\n      dup2\n      shr\n      swap1\n        /* \"#utility.yul\":9886:9898   */\n      dup3\n      and\n      dup1\n        /* \"#utility.yul\":9907:9909   */\n      tag_345\n      jumpi\n        /* \"#utility.yul\":9961:9965   */\n      0x7f\n        /* \"#utility.yul\":9953:9959   */\n      dup3\n        /* \"#utility.yul\":9949:9966   */\n      and\n        /* \"#utility.yul\":9939:9966   */\n      swap2\n      pop\n        /* \"#utility.yul\":9907:9909   */\n    tag_345:\n        /* \"#utility.yul\":10014:10016   */\n      0x20\n        /* \"#utility.yul\":10006:10012   */\n      dup3\n        /* \"#utility.yul\":10003:10017   */\n      lt\n        /* \"#utility.yul\":9983:10001   */\n      dup2\n        /* \"#utility.yul\":9980:10018   */\n      eq\n        /* \"#utility.yul\":9977:9979   */\n      iszero\n      tag_110\n      jumpi\n        /* \"#utility.yul\":10060:10070   */\n      0x4e487b71\n        /* \"#utility.yul\":10055:10058   */\n      0xe0\n        /* \"#utility.yul\":10051:10071   */\n      shl\n        /* \"#utility.yul\":10048:10049   */\n      0x00\n        /* \"#utility.yul\":10041:10072   */\n      mstore\n        /* \"#utility.yul\":10095:10099   */\n      0x22\n        /* \"#utility.yul\":10092:10093   */\n      0x04\n        /* \"#utility.yul\":10085:10100   */\n      mstore\n        /* \"#utility.yul\":10123:10127   */\n      0x24\n        /* \"#utility.yul\":10120:10121   */\n      0x00\n        /* \"#utility.yul\":10113:10128   */\n      revert\n        /* \"#utility.yul\":10149:10284   */\n    tag_129:\n        /* \"#utility.yul\":10188:10191   */\n      0x00\n      not(0x00)\n        /* \"#utility.yul\":10209:10226   */\n      dup3\n      eq\n        /* \"#utility.yul\":10206:10208   */\n      iszero\n      tag_349\n      jumpi\n        /* \"#utility.yul\":10229:10247   */\n      tag_349\n      tag_336\n      jump\t// in\n    tag_349:\n      pop\n        /* \"#utility.yul\":10276:10277   */\n      0x01\n        /* \"#utility.yul\":10265:10278   */\n      add\n      swap1\n        /* \"#utility.yul\":10196:10284   */\n      jump\t// out\n        /* \"#utility.yul\":10289:10416   */\n    tag_336:\n        /* \"#utility.yul\":10350:10360   */\n      0x4e487b71\n        /* \"#utility.yul\":10345:10348   */\n      0xe0\n        /* \"#utility.yul\":10341:10361   */\n      shl\n        /* \"#utility.yul\":10338:10339   */\n      0x00\n        /* \"#utility.yul\":10331:10362   */\n      mstore\n        /* \"#utility.yul\":10381:10385   */\n      0x11\n        /* \"#utility.yul\":10378:10379   */\n      0x04\n        /* \"#utility.yul\":10371:10386   */\n      mstore\n        /* \"#utility.yul\":10405:10409   */\n      0x24\n        /* \"#utility.yul\":10402:10403   */\n      0x00\n        /* \"#utility.yul\":10395:10410   */\n      revert\n        /* \"#utility.yul\":10421:10548   */\n    tag_100:\n        /* \"#utility.yul\":10482:10492   */\n      0x4e487b71\n        /* \"#utility.yul\":10477:10480   */\n      0xe0\n        /* \"#utility.yul\":10473:10493   */\n      shl\n        /* \"#utility.yul\":10470:10471   */\n      0x00\n        /* \"#utility.yul\":10463:10494   */\n      mstore\n        /* \"#utility.yul\":10513:10517   */\n      0x21\n        /* \"#utility.yul\":10510:10511   */\n      0x04\n        /* \"#utility.yul\":10503:10518   */\n      mstore\n        /* \"#utility.yul\":10537:10541   */\n      0x24\n        /* \"#utility.yul\":10534:10535   */\n      0x00\n        /* \"#utility.yul\":10527:10542   */\n      revert\n        /* \"#utility.yul\":10553:10680   */\n    tag_286:\n        /* \"#utility.yul\":10614:10624   */\n      0x4e487b71\n        /* \"#utility.yul\":10609:10612   */\n      0xe0\n        /* \"#utility.yul\":10605:10625   */\n      shl\n        /* \"#utility.yul\":10602:10603   */\n      0x00\n        /* \"#utility.yul\":10595:10626   */\n      mstore\n        /* \"#utility.yul\":10645:10649   */\n      0x41\n        /* \"#utility.yul\":10642:10643   */\n      0x04\n        /* \"#utility.yul\":10635:10650   */\n      mstore\n        /* \"#utility.yul\":10669:10673   */\n      0x24\n        /* \"#utility.yul\":10666:10667   */\n      0x00\n        /* \"#utility.yul\":10659:10674   */\n      revert\n\n    auxdata: 0xa2646970667358221220e87eafcad11d27799087c6d1206876e055d6b36c6c9cb4e695f703d4543032fb64736f6c63430008050033\n}\n",
				"bytecode": {
					"linkReferences": {},
					"object": "600060028190556003819055600481905560a0604081905260808290526200002b916006919062000067565b506009805461ffff19169055600b805460ff191690553480156200004e57600080fd5b50600580546001600160a01b031916331790556200014a565b82805462000075906200010d565b90600052602060002090601f016020900481019282620000995760008555620000e4565b82601f10620000b457805160ff1916838001178555620000e4565b82800160010185558215620000e4579182015b82811115620000e4578251825591602001919060010190620000c7565b50620000f2929150620000f6565b5090565b5b80821115620000f25760008155600101620000f7565b600181811c908216806200012257607f821691505b602082108114156200014457634e487b7160e01b600052602260045260246000fd5b50919050565b6112ac806200015a6000396000f3fe608060405234801561001057600080fd5b50600436106101165760003560e01c80636d77bd3e116100a2578063b798867f11610071578063b798867f14610295578063bf86d6901461029e578063c1c16efc146102ab578063c3403ddf146102b3578063fc0e74d1146102bb57600080fd5b80636d77bd3e1461024c578063788d38511461025f578063a3bef4d71461026c578063ad5461d81461027557600080fd5b80633b9f708d116100e95780633b9f708d1461019e5780633d2f5bda146101b157806347098f36146101c6578063481c6a75146101cf5780635df81330146101fa57600080fd5b8063055ad42e1461011b578063083c632314610143578063124258c61461015a5780631ddabf7a1461017d575b600080fd5b60095461012d90610100900460ff1681565b60405161013a9190611064565b60405180910390f35b61014c600a5481565b60405190815260200161013a565b61016d610168366004611003565b6102c3565b604051901515815260200161013a565b61019061018b366004610f56565b610594565b60405161013a92919061109f565b61014c6101ac366004610f78565b61063b565b6101c46101bf366004611003565b6107f6565b005b61014c60035481565b6005546101e2906001600160a01b031681565b6040516001600160a01b03909116815260200161013a565b61022d610208366004611003565b600760205260009081526040902080546001909101546001600160a01b039091169082565b604080516001600160a01b03909316835260208301919091520161013a565b61014c61025a366004610fc6565b61095f565b60095461016d9060ff1681565b61014c60045481565b610288610283366004611003565b610ad0565b60405161013a919061108c565b61014c60025481565b600b5461016d9060ff1681565b610288610b6a565b6101c4610b77565b6101c4610c30565b600b5460009060ff16156102f25760405162461bcd60e51b81526004016102e9906110c3565b60405180910390fd5b600180600954610100900460ff1660028111156103115761031161124a565b1461032e5760405162461bcd60e51b81526004016102e990611136565b60095460ff1615156001146103915760405162461bcd60e51b815260206004820152602360248201527f43616e20766f7465206f6e6c79207768696c6520766f74696e67206973206f7060448201526232b71760e91b60648201526084016102e9565b600083815260208190526040902080546103aa906111e4565b151590506103fa5760405162461bcd60e51b815260206004820152601a60248201527f52657374617572616e7420646f6573206e6f742065786973742e00000000000060448201526064016102e9565b600a544311156104155761040c610c87565b6000915061058e565b336000908152600160205260409020805461042f906111e4565b1515905061047f5760405162461bcd60e51b815260206004820181905260248201527f596f7520617265206e6f742061207265676973746572656420667269656e642e60448201526064016102e9565b336000908152600160208190526040909120015460ff16156104e35760405162461bcd60e51b815260206004820152601760248201527f596f75206861766520616c726561647920766f7465642e00000000000000000060448201526064016102e9565b3360008181526001602081815260408084208301805460ff1916841790558051808201909152938452830186905260048054919550909161052383611219565b90915550506004546000908152600760209081526040909120825181546001600160a01b0319166001600160a01b039091161781559082015160019091015560035461057190600290611192565b61057c90600161117a565b6004541061058c5761058c610c87565b505b50919050565b6001602052600090815260409020805481906105af906111e4565b80601f01602080910402602001604051908101604052809291908181526020018280546105db906111e4565b80156106285780601f106105fd57610100808354040283529160200191610628565b820191906000526020600020905b81548152906001019060200180831161060b57829003601f168201915b5050506001909301549192505060ff1682565b6005546000906001600160a01b031633146106685760405162461bcd60e51b81526004016102e9906110f3565b600b5460ff161561068b5760405162461bcd60e51b81526004016102e9906110c3565b600080600954610100900460ff1660028111156106aa576106aa61124a565b146106c75760405162461bcd60e51b81526004016102e990611136565b6001600160a01b038416600090815260016020526040902080546106ea906111e4565b1590506107325760405162461bcd60e51b8152602060048201526016602482015275233934b2b7321030b63932b0b23c9032bc34b9ba399760511b60448201526064016102e9565b600083511161077b5760405162461bcd60e51b81526020600482015260156024820152742730b6b29031b0b73737ba1031329032b6b83a3c9760591b60448201526064016102e9565b604080518082018252600060208083018290528683526001600160a01b03881682526001815292902081518051929384936107b99284920190610d99565b50602091909101516001909101805460ff1916911515919091179055600380549060006107e583611219565b909155505060035495945050505050565b6005546001600160a01b031633146108205760405162461bcd60e51b81526004016102e9906110f3565b600b5460ff16156108435760405162461bcd60e51b81526004016102e9906110c3565b600080600954610100900460ff1660028111156108625761086261124a565b1461087f5760405162461bcd60e51b81526004016102e990611136565b6001600254116108e15760405162461bcd60e51b815260206004820152602760248201527f4174206c656173742074776f2072657374617572616e7473206d7573742062656044820152661030b23232b21760c91b60648201526084016102e9565b60016003541161093f5760405162461bcd60e51b815260206004820152602360248201527f4174206c656173742074776f20667269656e6473206d7573742062652061646460448201526232b21760e91b60648201526084016102e9565b610949824361117a565b600a5550506009805461ffff1916610101179055565b6005546000906001600160a01b0316331461098c5760405162461bcd60e51b81526004016102e9906110f3565b600b5460ff16156109af5760405162461bcd60e51b81526004016102e9906110c3565b600080600954610100900460ff1660028111156109ce576109ce61124a565b146109eb5760405162461bcd60e51b81526004016102e990611136565b6000836040516020016109fe9190611048565b60408051601f1981840301815291815281516020928301206000818152600c90935291205490915060ff1615610a765760405162461bcd60e51b815260206004820152601a60248201527f52657374617572616e7420616c7265616479206578697374732e00000000000060448201526064016102e9565b60028054906000610a8683611219565b90915550506002546000908152602081815260409091208551610aab92870190610d99565b506000908152600c60205260409020805460ff19166001179055600254915050919050565b60006020819052908152604090208054610ae9906111e4565b80601f0160208091040260200160405190810160405280929190818152602001828054610b15906111e4565b8015610b625780601f10610b3757610100808354040283529160200191610b62565b820191906000526020600020905b815481529060010190602001808311610b4557829003601f168201915b505050505081565b60068054610ae9906111e4565b6005546001600160a01b03163314610ba15760405162461bcd60e51b81526004016102e9906110f3565b600b5460ff1615610bc45760405162461bcd60e51b81526004016102e9906110c3565b6001600954610100900460ff166002811115610be257610be261124a565b14610c265760405162461bcd60e51b81526020600482015260146024820152732737ba1034b7103b37ba34b73390383430b9b29760611b60448201526064016102e9565b610c2e610c87565b565b6005546001600160a01b03163314610c5a5760405162461bcd60e51b81526004016102e9906110f3565b600b805460ff1990811660011790915560098054918216815560029161ffff1916610100835b0217905550565b60045415610c9757610c97610cb4565b6009805460ff19811682556002919061ffff191661010083610c80565b60008060015b6004548111610d6b576000818152600760209081526040808320600190810154845260089092529091205415610d165760008281526007602090815260408083206001015483526008909152902054610d13908261117a565b90505b60008281526007602090815260408083206001015483526008909152902081905583811115610d58576000828152600760205260409020600101549093509150825b5080610d6381611219565b915050610cba565b506000818152602081905260409020805460069190610d89906111e4565b610d94929190610e1d565b505050565b828054610da5906111e4565b90600052602060002090601f016020900481019282610dc75760008555610e0d565b82601f10610de057805160ff1916838001178555610e0d565b82800160010185558215610e0d579182015b82811115610e0d578251825591602001919060010190610df2565b50610e19929150610e98565b5090565b828054610e29906111e4565b90600052602060002090601f016020900481019282610e4b5760008555610e0d565b82601f10610e5c5780548555610e0d565b82800160010185558215610e0d57600052602060002091601f016020900482015b82811115610e0d578254825591600101919060010190610e7d565b5b80821115610e195760008155600101610e99565b80356001600160a01b0381168114610ec457600080fd5b919050565b600082601f830112610eda57600080fd5b813567ffffffffffffffff80821115610ef557610ef5611260565b604051601f8301601f19908116603f01168101908282118183101715610f1d57610f1d611260565b81604052838152866020858801011115610f3657600080fd5b836020870160208301376000602085830101528094505050505092915050565b600060208284031215610f6857600080fd5b610f7182610ead565b9392505050565b60008060408385031215610f8b57600080fd5b610f9483610ead565b9150602083013567ffffffffffffffff811115610fb057600080fd5b610fbc85828601610ec9565b9150509250929050565b600060208284031215610fd857600080fd5b813567ffffffffffffffff811115610fef57600080fd5b610ffb84828501610ec9565b949350505050565b60006020828403121561101557600080fd5b5035919050565b600081518084526110348160208601602086016111b4565b601f01601f19169290920160200192915050565b6000825161105a8184602087016111b4565b9190910192915050565b602081016003831061108657634e487b7160e01b600052602160045260246000fd5b91905290565b602081526000610f71602083018461101c565b6040815260006110b2604083018561101c565b905082151560208301529392505050565b60208082526016908201527521b7b73a3930b1ba1034b99039b43aba103237bbb71760511b604082015260600190565b60208082526023908201527f43616e206f6e6c7920626520657865637574656420627920746865206d616e6160408201526233b2b960e91b606082015260800190565b60208082526024908201527f416374696f6e206e6f7420616c6c6f77656420696e2063757272656e7420706860408201526330b9b29760e11b606082015260800190565b6000821982111561118d5761118d611234565b500190565b6000826111af57634e487b7160e01b600052601260045260246000fd5b500490565b60005b838110156111cf5781810151838201526020016111b7565b838111156111de576000848401525b50505050565b600181811c908216806111f857607f821691505b6020821081141561058e57634e487b7160e01b600052602260045260246000fd5b600060001982141561122d5761122d611234565b5060010190565b634e487b7160e01b600052601160045260246000fd5b634e487b7160e01b600052602160045260246000fd5b634e487b7160e01b600052604160045260246000fdfea2646970667358221220e87eafcad11d27799087c6d1206876e055d6b36c6c9cb4e695f703d4543032fb64736f6c63430008050033",
					"opcodes": "PUSH1 0x0 PUSH1 0x2 DUP2 SWAP1 SSTORE PUSH1 0x3 DUP2 SWAP1 SSTORE PUSH1 0x4 DUP2 SWAP1 SSTORE PUSH1 0xA0 PUSH1 0x40 DUP2 SWAP1 MSTORE PUSH1 0x80 DUP3 SWAP1 MSTORE PUSH3 0x2B SWAP2 PUSH1 0x6 SWAP2 SWAP1 PUSH3 0x67 JUMP JUMPDEST POP PUSH1 0x9 DUP1 SLOAD PUSH2 0xFFFF NOT AND SWAP1 SSTORE PUSH1 0xB DUP1 SLOAD PUSH1 0xFF NOT AND SWAP1 SSTORE CALLVALUE DUP1 ISZERO PUSH3 0x4E JUMPI PUSH1 0x0 DUP1 REVERT JUMPDEST POP PUSH1 0x5 DUP1 SLOAD PUSH1 0x1 PUSH1 0x1 PUSH1 0xA0 SHL SUB NOT AND CALLER OR SWAP1 SSTORE PUSH3 0x14A JUMP JUMPDEST DUP3 DUP1 SLOAD PUSH3 0x75 SWAP1 PUSH3 0x10D JUMP JUMPDEST SWAP1 PUSH1 0x0 MSTORE PUSH1 0x20 PUSH1 0x0 KECCAK256 SWAP1 PUSH1 0x1F ADD PUSH1 0x20 SWAP1 DIV DUP2 ADD SWAP3 DUP3 PUSH3 0x99 JUMPI PUSH1 0x0 DUP6 SSTORE PUSH3 0xE4 JUMP JUMPDEST DUP3 PUSH1 0x1F LT PUSH3 0xB4 JUMPI DUP1 MLOAD PUSH1 0xFF NOT AND DUP4 DUP1 ADD OR DUP6 SSTORE PUSH3 0xE4 JUMP JUMPDEST DUP3 DUP1 ADD PUSH1 0x1 ADD DUP6 SSTORE DUP3 ISZERO PUSH3 0xE4 JUMPI SWAP2 DUP3 ADD JUMPDEST DUP3 DUP2 GT ISZERO PUSH3 0xE4 JUMPI DUP3 MLOAD DUP3 SSTORE SWAP2 PUSH1 0x20 ADD SWAP2 SWAP1 PUSH1 0x1 ADD SWAP1 PUSH3 0xC7 JUMP JUMPDEST POP PUSH3 0xF2 SWAP3 SWAP2 POP PUSH3 0xF6 JUMP JUMPDEST POP SWAP1 JUMP JUMPDEST JUMPDEST DUP1 DUP3 GT ISZERO PUSH3 0xF2 JUMPI PUSH1 0x0 DUP2 SSTORE PUSH1 0x1 ADD PUSH3 0xF7 JUMP JUMPDEST PUSH1 0x1 DUP2 DUP2 SHR SWAP1 DUP3 AND DUP1 PUSH3 0x122 JUMPI PUSH1 0x7F DUP3 AND SWAP2 POP JUMPDEST PUSH1 0x20 DUP3 LT DUP2 EQ ISZERO PUSH3 0x144 JUMPI PUSH4 0x4E487B71 PUSH1 0xE0 SHL PUSH1 0x0 MSTORE PUSH1 0x22 PUSH1 0x4 MSTORE PUSH1 0x24 PUSH1 0x0 REVERT JUMPDEST POP SWAP2 SWAP1 POP JUMP JUMPDEST PUSH2 0x12AC DUP1 PUSH3 0x15A PUSH1 0x0 CODECOPY PUSH1 0x0 RETURN INVALID PUSH1 0x80 PUSH1 0x40 MSTORE CALLVALUE DUP1 ISZERO PUSH2 0x10 JUMPI PUSH1 0x0 DUP1 REVERT JUMPDEST POP PUSH1 0x4 CALLDATASIZE LT PUSH2 0x116 JUMPI PUSH1 0x0 CALLDATALOAD PUSH1 0xE0 SHR DUP1 PUSH4 0x6D77BD3E GT PUSH2 0xA2 JUMPI DUP1 PUSH4 0xB798867F GT PUSH2 0x71 JUMPI DUP1 PUSH4 0xB798867F EQ PUSH2 0x295 JUMPI DUP1 PUSH4 0xBF86D690 EQ PUSH2 0x29E JUMPI DUP1 PUSH4 0xC1C16EFC EQ PUSH2 0x2AB JUMPI DUP1 PUSH4 0xC3403DDF EQ PUSH2 0x2B3 JUMPI DUP1 PUSH4 0xFC0E74D1 EQ PUSH2 0x2BB JUMPI PUSH1 0x0 DUP1 REVERT JUMPDEST DUP1 PUSH4 0x6D77BD3E EQ PUSH2 0x24C JUMPI DUP1 PUSH4 0x788D3851 EQ PUSH2 0x25F JUMPI DUP1 PUSH4 0xA3BEF4D7 EQ PUSH2 0x26C JUMPI DUP1 PUSH4 0xAD5461D8 EQ PUSH2 0x275 JUMPI PUSH1 0x0 DUP1 REVERT JUMPDEST DUP1 PUSH4 0x3B9F708D GT PUSH2 0xE9 JUMPI DUP1 PUSH4 0x3B9F708D EQ PUSH2 0x19E JUMPI DUP1 PUSH4 0x3D2F5BDA EQ PUSH2 0x1B1 JUMPI DUP1 PUSH4 0x47098F36 EQ PUSH2 0x1C6 JUMPI DUP1 PUSH4 0x481C6A75 EQ PUSH2 0x1CF JUMPI DUP1 PUSH4 0x5DF81330 EQ PUSH2 0x1FA JUMPI PUSH1 0x0 DUP1 REVERT JUMPDEST DUP1 PUSH4 0x55AD42E EQ PUSH2 0x11B JUMPI DUP1 PUSH4 0x83C6323 EQ PUSH2 0x143 JUMPI DUP1 PUSH4 0x124258C6 EQ PUSH2 0x15A JUMPI DUP1 PUSH4 0x1DDABF7A EQ PUSH2 0x17D JUMPI JUMPDEST PUSH1 0x0 DUP1 REVERT JUMPDEST PUSH1 0x9 SLOAD PUSH2 0x12D SWAP1 PUSH2 0x100 SWAP1 DIV PUSH1 0xFF AND DUP2 JUMP JUMPDEST PUSH1 0x40 MLOAD PUSH2 0x13A SWAP2 SWAP1 PUSH2 0x1064 JUMP JUMPDEST PUSH1 0x40 MLOAD DUP1 SWAP2 SUB SWAP1 RETURN JUMPDEST PUSH2 0x14C PUSH1 0xA SLOAD DUP2 JUMP JUMPDEST PUSH1 0x40 MLOAD SWAP1 DUP2 MSTORE PUSH1 0x20 ADD PUSH2 0x13A JUMP JUMPDEST PUSH2 0x16D PUSH2 0x168 CALLDATASIZE PUSH1 0x4 PUSH2 0x1003 JUMP JUMPDEST PUSH2 0x2C3 JUMP JUMPDEST PUSH1 0x40 MLOAD SWAP1 ISZERO ISZERO DUP2 MSTORE PUSH1 0x20 ADD PUSH2 0x13A JUMP JUMPDEST PUSH2 0x190 PUSH2 0x18B CALLDATASIZE PUSH1 0x4 PUSH2 0xF56 JUMP JUMPDEST PUSH2 0x594 JUMP JUMPDEST PUSH1 0x40 MLOAD PUSH2 0x13A SWAP3 SWAP2 SWAP1 PUSH2 0x109F JUMP JUMPDEST PUSH2 0x14C PUSH2 0x1AC CALLDATASIZE PUSH1 0x4 PUSH2 0xF78 JUMP JUMPDEST PUSH2 0x63B JUMP JUMPDEST PUSH2 0x1C4 PUSH2 0x1BF CALLDATASIZE PUSH1 0x4 PUSH2 0x1003 JUMP JUMPDEST PUSH2 0x7F6 JUMP JUMPDEST STOP JUMPDEST PUSH2 0x14C PUSH1 0x3 SLOAD DUP2 JUMP JUMPDEST PUSH1 0x5 SLOAD PUSH2 0x1E2 SWAP1 PUSH1 0x1 PUSH1 0x1 PUSH1 0xA0 SHL SUB AND DUP2 JUMP JUMPDEST PUSH1 0x40 MLOAD PUSH1 0x1 PUSH1 0x1 PUSH1 0xA0 SHL SUB SWAP1 SWAP2 AND DUP2 MSTORE PUSH1 0x20 ADD PUSH2 0x13A JUMP JUMPDEST PUSH2 0x22D PUSH2 0x208 CALLDATASIZE PUSH1 0x4 PUSH2 0x1003 JUMP JUMPDEST PUSH1 0x7 PUSH1 0x20 MSTORE PUSH1 0x0 SWAP1 DUP2 MSTORE PUSH1 0x40 SWAP1 KECCAK256 DUP1 SLOAD PUSH1 0x1 SWAP1 SWAP2 ADD SLOAD PUSH1 0x1 PUSH1 0x1 PUSH1 0xA0 SHL SUB SWAP1 SWAP2 AND SWAP1 DUP3 JUMP JUMPDEST PUSH1 0x40 DUP1 MLOAD PUSH1 0x1 PUSH1 0x1 PUSH1 0xA0 SHL SUB SWAP1 SWAP4 AND DUP4 MSTORE PUSH1 0x20 DUP4 ADD SWAP2 SWAP1 SWAP2 MSTORE ADD PUSH2 0x13A JUMP JUMPDEST PUSH2 0x14C PUSH2 0x25A CALLDATASIZE PUSH1 0x4 PUSH2 0xFC6 JUMP JUMPDEST PUSH2 0x95F JUMP JUMPDEST PUSH1 0x9 SLOAD PUSH2 0x16D SWAP1 PUSH1 0xFF AND DUP2 JUMP JUMPDEST PUSH2 0x14C PUSH1 0x4 SLOAD DUP2 JUMP JUMPDEST PUSH2 0x288 PUSH2 0x283 CALLDATASIZE PUSH1 0x4 PUSH2 0x1003 JUMP JUMPDEST PUSH2 0xAD0 JUMP JUMPDEST PUSH1 0x40 MLOAD PUSH2 0x13A SWAP2 SWAP1 PUSH2 0x108C JUMP JUMPDEST PUSH2 0x14C PUSH1 0x2 SLOAD DUP2 JUMP JUMPDEST PUSH1 0xB SLOAD PUSH2 0x16D SWAP1 PUSH1 0xFF AND DUP2 JUMP JUMPDEST PUSH2 0x288 PUSH2 0xB6A JUMP JUMPDEST PUSH2 0x1C4 PUSH2 0xB77 JUMP JUMPDEST PUSH2 0x1C4 PUSH2 0xC30 JUMP JUMPDEST PUSH1 0xB SLOAD PUSH1 0x0 SWAP1 PUSH1 0xFF AND ISZERO PUSH2 0x2F2 JUMPI PUSH1 0x40 MLOAD PUSH3 0x461BCD PUSH1 0xE5 SHL DUP2 MSTORE PUSH1 0x4 ADD PUSH2 0x2E9 SWAP1 PUSH2 0x10C3 JUMP JUMPDEST PUSH1 0x40 MLOAD DUP1 SWAP2 SUB SWAP1 REVERT JUMPDEST PUSH1 0x1 DUP1 PUSH1 0x9 SLOAD PUSH2 0x100 SWAP1 DIV PUSH1 0xFF AND PUSH1 0x2 DUP2 GT ISZERO PUSH2 0x311 JUMPI PUSH2 0x311 PUSH2 0x124A JUMP JUMPDEST EQ PUSH2 0x32E JUMPI PUSH1 0x40 MLOAD PUSH3 0x461BCD PUSH1 0xE5 SHL DUP2 MSTORE PUSH1 0x4 ADD PUSH2 0x2E9 SWAP1 PUSH2 0x1136 JUMP JUMPDEST PUSH1 0x9 SLOAD PUSH1 0xFF AND ISZERO ISZERO PUSH1 0x1 EQ PUSH2 0x391 JUMPI PUSH1 0x40 MLOAD PUSH3 0x461BCD PUSH1 0xE5 SHL DUP2 MSTORE PUSH1 0x20 PUSH1 0x4 DUP3 ADD MSTORE PUSH1 0x23 PUSH1 0x24 DUP3 ADD MSTORE PUSH32 0x43616E20766F7465206F6E6C79207768696C6520766F74696E67206973206F70 PUSH1 0x44 DUP3 ADD MSTORE PUSH3 0x32B717 PUSH1 0xE9 SHL PUSH1 0x64 DUP3 ADD MSTORE PUSH1 0x84 ADD PUSH2 0x2E9 JUMP JUMPDEST PUSH1 0x0 DUP4 DUP2 MSTORE PUSH1 0x20 DUP2 SWAP1 MSTORE PUSH1 0x40 SWAP1 KECCAK256 DUP1 SLOAD PUSH2 0x3AA SWAP1 PUSH2 0x11E4 JUMP JUMPDEST ISZERO ISZERO SWAP1 POP PUSH2 0x3FA JUMPI PUSH1 0x40 MLOAD PUSH3 0x461BCD PUSH1 0xE5 SHL DUP2 MSTORE PUSH1 0x20 PUSH1 0x4 DUP3 ADD MSTORE PUSH1 0x1A PUSH1 0x24 DUP3 ADD MSTORE PUSH32 0x52657374617572616E7420646F6573206E6F742065786973742E000000000000 PUSH1 0x44 DUP3 ADD MSTORE PUSH1 0x64 ADD PUSH2 0x2E9 JUMP JUMPDEST PUSH1 0xA SLOAD NUMBER GT ISZERO PUSH2 0x415 JUMPI PUSH2 0x40C PUSH2 0xC87 JUMP JUMPDEST PUSH1 0x0 SWAP2 POP PUSH2 0x58E JUMP JUMPDEST CALLER PUSH1 0x0 SWAP1 DUP2 MSTORE PUSH1 0x1 PUSH1 0x20 MSTORE PUSH1 0x40 SWAP1 KECCAK256 DUP1 SLOAD PUSH2 0x42F SWAP1 PUSH2 0x11E4 JUMP JUMPDEST ISZERO ISZERO SWAP1 POP PUSH2 0x47F JUMPI PUSH1 0x40 MLOAD PUSH3 0x461BCD PUSH1 0xE5 SHL DUP2 MSTORE PUSH1 0x20 PUSH1 0x4 DUP3 ADD DUP2 SWAP1 MSTORE PUSH1 0x24 DUP3 ADD MSTORE PUSH32 0x596F7520617265206E6F742061207265676973746572656420667269656E642E PUSH1 0x44 DUP3 ADD MSTORE PUSH1 0x64 ADD PUSH2 0x2E9 JUMP JUMPDEST CALLER PUSH1 0x0 SWAP1 DUP2 MSTORE PUSH1 0x1 PUSH1 0x20 DUP2 SWAP1 MSTORE PUSH1 0x40 SWAP1 SWAP2 KECCAK256 ADD SLOAD PUSH1 0xFF AND ISZERO PUSH2 0x4E3 JUMPI PUSH1 0x40 MLOAD PUSH3 0x461BCD PUSH1 0xE5 SHL DUP2 MSTORE PUSH1 0x20 PUSH1 0x4 DUP3 ADD MSTORE PUSH1 0x17 PUSH1 0x24 DUP3 ADD MSTORE PUSH32 0x596F75206861766520616C726561647920766F7465642E000000000000000000 PUSH1 0x44 DUP3 ADD MSTORE PUSH1 0x64 ADD PUSH2 0x2E9 JUMP JUMPDEST CALLER PUSH1 0x0 DUP2 DUP2 MSTORE PUSH1 0x1 PUSH1 0x20 DUP2 DUP2 MSTORE PUSH1 0x40 DUP1 DUP5 KECCAK256 DUP4 ADD DUP1 SLOAD PUSH1 0xFF NOT AND DUP5 OR SWAP1 SSTORE DUP1 MLOAD DUP1 DUP3 ADD SWAP1 SWAP2 MSTORE SWAP4 DUP5 MSTORE DUP4 ADD DUP7 SWAP1 MSTORE PUSH1 0x4 DUP1 SLOAD SWAP2 SWAP6 POP SWAP1 SWAP2 PUSH2 0x523 DUP4 PUSH2 0x1219 JUMP JUMPDEST SWAP1 SWAP2 SSTORE POP POP PUSH1 0x4 SLOAD PUSH1 0x0 SWAP1 DUP2 MSTORE PUSH1 0x7 PUSH1 0x20 SWAP1 DUP2 MSTORE PUSH1 0x40 SWAP1 SWAP2 KECCAK256 DUP3 MLOAD DUP2 SLOAD PUSH1 0x1 PUSH1 0x1 PUSH1 0xA0 SHL SUB NOT AND PUSH1 0x1 PUSH1 0x1 PUSH1 0xA0 SHL SUB SWAP1 SWAP2 AND OR DUP2 SSTORE SWAP1 DUP3 ADD MLOAD PUSH1 0x1 SWAP1 SWAP2 ADD SSTORE PUSH1 0x3 SLOAD PUSH2 0x571 SWAP1 PUSH1 0x2 SWAP1 PUSH2 0x1192 JUMP JUMPDEST PUSH2 0x57C SWAP1 PUSH1 0x1 PUSH2 0x117A JUMP JUMPDEST PUSH1 0x4 SLOAD LT PUSH2 0x58C JUMPI PUSH2 0x58C PUSH2 0xC87 JUMP JUMPDEST POP JUMPDEST POP SWAP2 SWAP1 POP JUMP JUMPDEST PUSH1 0x1 PUSH1 0x20 MSTORE PUSH1 0x0 SWAP1 DUP2 MSTORE PUSH1 0x40 SWAP1 KECCAK256 DUP1 SLOAD DUP2 SWAP1 PUSH2 0x5AF SWAP1 PUSH2 0x11E4 JUMP JUMPDEST DUP1 PUSH1 0x1F ADD PUSH1 0x20 DUP1 SWAP2 DIV MUL PUSH1 0x20 ADD PUSH1 0x40 MLOAD SWAP1 DUP2 ADD PUSH1 0x40 MSTORE DUP1 SWAP3 SWAP2 SWAP1 DUP2 DUP2 MSTORE PUSH1 0x20 ADD DUP3 DUP1 SLOAD PUSH2 0x5DB SWAP1 PUSH2 0x11E4 JUMP JUMPDEST DUP1 ISZERO PUSH2 0x628 JUMPI DUP1 PUSH1 0x1F LT PUSH2 0x5FD JUMPI PUSH2 0x100 DUP1 DUP4 SLOAD DIV MUL DUP4 MSTORE SWAP2 PUSH1 0x20 ADD SWAP2 PUSH2 0x628 JUMP JUMPDEST DUP3 ADD SWAP2 SWAP1 PUSH1 0x0 MSTORE PUSH1 0x20 PUSH1 0x0 KECCAK256 SWAP1 JUMPDEST DUP2 SLOAD DUP2 MSTORE SWAP1 PUSH1 0x1 ADD SWAP1 PUSH1 0x20 ADD DUP1 DUP4 GT PUSH2 0x60B JUMPI DUP3 SWAP1 SUB PUSH1 0x1F AND DUP3 ADD SWAP2 JUMPDEST POP POP POP PUSH1 0x1 SWAP1 SWAP4 ADD SLOAD SWAP2 SWAP3 POP POP PUSH1 0xFF AND DUP3 JUMP JUMPDEST PUSH1 0x5 SLOAD PUSH1 0x0 SWAP1 PUSH1 0x1 PUSH1 0x1 PUSH1 0xA0 SHL SUB AND CALLER EQ PUSH2 0x668 JUMPI PUSH1 0x40 MLOAD PUSH3 0x461BCD PUSH1 0xE5 SHL DUP2 MSTORE PUSH1 0x4 ADD PUSH2 0x2E9 SWAP1 PUSH2 0x10F3 JUMP JUMPDEST PUSH1 0xB SLOAD PUSH1 0xFF AND ISZERO PUSH2 0x68B JUMPI PUSH1 0x40 MLOAD PUSH3 0x461BCD PUSH1 0xE5 SHL DUP2 MSTORE PUSH1 0x4 ADD PUSH2 0x2E9 SWAP1 PUSH2 0x10C3 JUMP JUMPDEST PUSH1 0x0 DUP1 PUSH1 0x9 SLOAD PUSH2 0x100 SWAP1 DIV PUSH1 0xFF AND PUSH1 0x2 DUP2 GT ISZERO PUSH2 0x6AA JUMPI PUSH2 0x6AA PUSH2 0x124A JUMP JUMPDEST EQ PUSH2 0x6C7 JUMPI PUSH1 0x40 MLOAD PUSH3 0x461BCD PUSH1 0xE5 SHL DUP2 MSTORE PUSH1 0x4 ADD PUSH2 0x2E9 SWAP1 PUSH2 0x1136 JUMP JUMPDEST PUSH1 0x1 PUSH1 0x1 PUSH1 0xA0 SHL SUB DUP5 AND PUSH1 0x0 SWAP1 DUP2 MSTORE PUSH1 0x1 PUSH1 0x20 MSTORE PUSH1 0x40 SWAP1 KECCAK256 DUP1 SLOAD PUSH2 0x6EA SWAP1 PUSH2 0x11E4 JUMP JUMPDEST ISZERO SWAP1 POP PUSH2 0x732 JUMPI PUSH1 0x40 MLOAD PUSH3 0x461BCD PUSH1 0xE5 SHL DUP2 MSTORE PUSH1 0x20 PUSH1 0x4 DUP3 ADD MSTORE PUSH1 0x16 PUSH1 0x24 DUP3 ADD MSTORE PUSH22 0x233934B2B7321030B63932B0B23C9032BC34B9BA3997 PUSH1 0x51 SHL PUSH1 0x44 DUP3 ADD MSTORE PUSH1 0x64 ADD PUSH2 0x2E9 JUMP JUMPDEST PUSH1 0x0 DUP4 MLOAD GT PUSH2 0x77B JUMPI PUSH1 0x40 MLOAD PUSH3 0x461BCD PUSH1 0xE5 SHL DUP2 MSTORE PUSH1 0x20 PUSH1 0x4 DUP3 ADD MSTORE PUSH1 0x15 PUSH1 0x24 DUP3 ADD MSTORE PUSH21 0x2730B6B29031B0B73737BA1031329032B6B83A3C97 PUSH1 0x59 SHL PUSH1 0x44 DUP3 ADD MSTORE PUSH1 0x64 ADD PUSH2 0x2E9 JUMP JUMPDEST PUSH1 0x40 DUP1 MLOAD DUP1 DUP3 ADD DUP3 MSTORE PUSH1 0x0 PUSH1 0x20 DUP1 DUP4 ADD DUP3 SWAP1 MSTORE DUP7 DUP4 MSTORE PUSH1 0x1 PUSH1 0x1 PUSH1 0xA0 SHL SUB DUP9 AND DUP3 MSTORE PUSH1 0x1 DUP2 MSTORE SWAP3 SWAP1 KECCAK256 DUP2 MLOAD DUP1 MLOAD SWAP3 SWAP4 DUP5 SWAP4 PUSH2 0x7B9 SWAP3 DUP5 SWAP3 ADD SWAP1 PUSH2 0xD99 JUMP JUMPDEST POP PUSH1 0x20 SWAP2 SWAP1 SWAP2 ADD MLOAD PUSH1 0x1 SWAP1 SWAP2 ADD DUP1 SLOAD PUSH1 0xFF NOT AND SWAP2 ISZERO ISZERO SWAP2 SWAP1 SWAP2 OR SWAP1 SSTORE PUSH1 0x3 DUP1 SLOAD SWAP1 PUSH1 0x0 PUSH2 0x7E5 DUP4 PUSH2 0x1219 JUMP JUMPDEST SWAP1 SWAP2 SSTORE POP POP PUSH1 0x3 SLOAD SWAP6 SWAP5 POP POP POP POP POP JUMP JUMPDEST PUSH1 0x5 SLOAD PUSH1 0x1 PUSH1 0x1 PUSH1 0xA0 SHL SUB AND CALLER EQ PUSH2 0x820 JUMPI PUSH1 0x40 MLOAD PUSH3 0x461BCD PUSH1 0xE5 SHL DUP2 MSTORE PUSH1 0x4 ADD PUSH2 0x2E9 SWAP1 PUSH2 0x10F3 JUMP JUMPDEST PUSH1 0xB SLOAD PUSH1 0xFF AND ISZERO PUSH2 0x843 JUMPI PUSH1 0x40 MLOAD PUSH3 0x461BCD PUSH1 0xE5 SHL DUP2 MSTORE PUSH1 0x4 ADD PUSH2 0x2E9 SWAP1 PUSH2 0x10C3 JUMP JUMPDEST PUSH1 0x0 DUP1 PUSH1 0x9 SLOAD PUSH2 0x100 SWAP1 DIV PUSH1 0xFF AND PUSH1 0x2 DUP2 GT ISZERO PUSH2 0x862 JUMPI PUSH2 0x862 PUSH2 0x124A JUMP JUMPDEST EQ PUSH2 0x87F JUMPI PUSH1 0x40 MLOAD PUSH3 0x461BCD PUSH1 0xE5 SHL DUP2 MSTORE PUSH1 0x4 ADD PUSH2 0x2E9 SWAP1 PUSH2 0x1136 JUMP JUMPDEST PUSH1 0x1 PUSH1 0x2 SLOAD GT PUSH2 0x8E1 JUMPI PUSH1 0x40 MLOAD PUSH3 0x461BCD PUSH1 0xE5 SHL DUP2 MSTORE PUSH1 0x20 PUSH1 0x4 DUP3 ADD MSTORE PUSH1 0x27 PUSH1 0x24 DUP3 ADD MSTORE PUSH32 0x4174206C656173742074776F2072657374617572616E7473206D757374206265 PUSH1 0x44 DUP3 ADD MSTORE PUSH7 0x1030B23232B217 PUSH1 0xC9 SHL PUSH1 0x64 DUP3 ADD MSTORE PUSH1 0x84 ADD PUSH2 0x2E9 JUMP JUMPDEST PUSH1 0x1 PUSH1 0x3 SLOAD GT PUSH2 0x93F JUMPI PUSH1 0x40 MLOAD PUSH3 0x461BCD PUSH1 0xE5 SHL DUP2 MSTORE PUSH1 0x20 PUSH1 0x4 DUP3 ADD MSTORE PUSH1 0x23 PUSH1 0x24 DUP3 ADD MSTORE PUSH32 0x4174206C656173742074776F20667269656E6473206D75737420626520616464 PUSH1 0x44 DUP3 ADD MSTORE PUSH3 0x32B217 PUSH1 0xE9 SHL PUSH1 0x64 DUP3 ADD MSTORE PUSH1 0x84 ADD PUSH2 0x2E9 JUMP JUMPDEST PUSH2 0x949 DUP3 NUMBER PUSH2 0x117A JUMP JUMPDEST PUSH1 0xA SSTORE POP POP PUSH1 0x9 DUP1 SLOAD PUSH2 0xFFFF NOT AND PUSH2 0x101 OR SWAP1 SSTORE JUMP JUMPDEST PUSH1 0x5 SLOAD PUSH1 0x0 SWAP1 PUSH1 0x1 PUSH1 0x1 PUSH1 0xA0 SHL SUB AND CALLER EQ PUSH2 0x98C JUMPI PUSH1 0x40 MLOAD PUSH3 0x461BCD PUSH1 0xE5 SHL DUP2 MSTORE PUSH1 0x4 ADD PUSH2 0x2E9 SWAP1 PUSH2 0x10F3 JUMP JUMPDEST PUSH1 0xB SLOAD PUSH1 0xFF AND ISZERO PUSH2 0x9AF JUMPI PUSH1 0x40 MLOAD PUSH3 0x461BCD PUSH1 0xE5 SHL DUP2 MSTORE PUSH1 0x4 ADD PUSH2 0x2E9 SWAP1 PUSH2 0x10C3 JUMP JUMPDEST PUSH1 0x0 DUP1 PUSH1 0x9 SLOAD PUSH2 0x100 SWAP1 DIV PUSH1 0xFF AND PUSH1 0x2 DUP2 GT ISZERO PUSH2 0x9CE JUMPI PUSH2 0x9CE PUSH2 0x124A JUMP JUMPDEST EQ PUSH2 0x9EB JUMPI PUSH1 0x40 MLOAD PUSH3 0x461BCD PUSH1 0xE5 SHL DUP2 MSTORE PUSH1 0x4 ADD PUSH2 0x2E9 SWAP1 PUSH2 0x1136 JUMP JUMPDEST PUSH1 0x0 DUP4 PUSH1 0x40 MLOAD PUSH1 0x20 ADD PUSH2 0x9FE SWAP2 SWAP1 PUSH2 0x1048 JUMP JUMPDEST PUSH1 0x40 DUP1 MLOAD PUSH1 0x1F NOT DUP2 DUP5 SUB ADD DUP2 MSTORE SWAP2 DUP2 MSTORE DUP2 MLOAD PUSH1 0x20 SWAP3 DUP4 ADD KECCAK256 PUSH1 0x0 DUP2 DUP2 MSTORE PUSH1 0xC SWAP1 SWAP4 MSTORE SWAP2 KECCAK256 SLOAD SWAP1 SWAP2 POP PUSH1 0xFF AND ISZERO PUSH2 0xA76 JUMPI PUSH1 0x40 MLOAD PUSH3 0x461BCD PUSH1 0xE5 SHL DUP2 MSTORE PUSH1 0x20 PUSH1 0x4 DUP3 ADD MSTORE PUSH1 0x1A PUSH1 0x24 DUP3 ADD MSTORE PUSH32 0x52657374617572616E7420616C7265616479206578697374732E000000000000 PUSH1 0x44 DUP3 ADD MSTORE PUSH1 0x64 ADD PUSH2 0x2E9 JUMP JUMPDEST PUSH1 0x2 DUP1 SLOAD SWAP1 PUSH1 0x0 PUSH2 0xA86 DUP4 PUSH2 0x1219 JUMP JUMPDEST SWAP1 SWAP2 SSTORE POP POP PUSH1 0x2 SLOAD PUSH1 0x0 SWAP1 DUP2 MSTORE PUSH1 0x20 DUP2 DUP2 MSTORE PUSH1 0x40 SWAP1 SWAP2 KECCAK256 DUP6 MLOAD PUSH2 0xAAB SWAP3 DUP8 ADD SWAP1 PUSH2 0xD99 JUMP JUMPDEST POP PUSH1 0x0 SWAP1 DUP2 MSTORE PUSH1 0xC PUSH1 0x20 MSTORE PUSH1 0x40 SWAP1 KECCAK256 DUP1 SLOAD PUSH1 0xFF NOT AND PUSH1 0x1 OR SWAP1 SSTORE PUSH1 0x2 SLOAD SWAP2 POP POP SWAP2 SWAP1 POP JUMP JUMPDEST PUSH1 0x0 PUSH1 0x20 DUP2 SWAP1 MSTORE SWAP1 DUP2 MSTORE PUSH1 0x40 SWAP1 KECCAK256 DUP1 SLOAD PUSH2 0xAE9 SWAP1 PUSH2 0x11E4 JUMP JUMPDEST DUP1 PUSH1 0x1F ADD PUSH1 0x20 DUP1 SWAP2 DIV MUL PUSH1 0x20 ADD PUSH1 0x40 MLOAD SWAP1 DUP2 ADD PUSH1 0x40 MSTORE DUP1 SWAP3 SWAP2 SWAP1 DUP2 DUP2 MSTORE PUSH1 0x20 ADD DUP3 DUP1 SLOAD PUSH2 0xB15 SWAP1 PUSH2 0x11E4 JUMP JUMPDEST DUP1 ISZERO PUSH2 0xB62 JUMPI DUP1 PUSH1 0x1F LT PUSH2 0xB37 JUMPI PUSH2 0x100 DUP1 DUP4 SLOAD DIV MUL DUP4 MSTORE SWAP2 PUSH1 0x20 ADD SWAP2 PUSH2 0xB62 JUMP JUMPDEST DUP3 ADD SWAP2 SWAP1 PUSH1 0x0 MSTORE PUSH1 0x20 PUSH1 0x0 KECCAK256 SWAP1 JUMPDEST DUP2 SLOAD DUP2 MSTORE SWAP1 PUSH1 0x1 ADD SWAP1 PUSH1 0x20 ADD DUP1 DUP4 GT PUSH2 0xB45 JUMPI DUP3 SWAP1 SUB PUSH1 0x1F AND DUP3 ADD SWAP2 JUMPDEST POP POP POP POP POP DUP2 JUMP JUMPDEST PUSH1 0x6 DUP1 SLOAD PUSH2 0xAE9 SWAP1 PUSH2 0x11E4 JUMP JUMPDEST PUSH1 0x5 SLOAD PUSH1 0x1 PUSH1 0x1 PUSH1 0xA0 SHL SUB AND CALLER EQ PUSH2 0xBA1 JUMPI PUSH1 0x40 MLOAD PUSH3 0x461BCD PUSH1 0xE5 SHL DUP2 MSTORE PUSH1 0x4 ADD PUSH2 0x2E9 SWAP1 PUSH2 0x10F3 JUMP JUMPDEST PUSH1 0xB SLOAD PUSH1 0xFF AND ISZERO PUSH2 0xBC4 JUMPI PUSH1 0x40 MLOAD PUSH3 0x461BCD PUSH1 0xE5 SHL DUP2 MSTORE PUSH1 0x4 ADD PUSH2 0x2E9 SWAP1 PUSH2 0x10C3 JUMP JUMPDEST PUSH1 0x1 PUSH1 0x9 SLOAD PUSH2 0x100 SWAP1 DIV PUSH1 0xFF AND PUSH1 0x2 DUP2 GT ISZERO PUSH2 0xBE2 JUMPI PUSH2 0xBE2 PUSH2 0x124A JUMP JUMPDEST EQ PUSH2 0xC26 JUMPI PUSH1 0x40 MLOAD PUSH3 0x461BCD PUSH1 0xE5 SHL DUP2 MSTORE PUSH1 0x20 PUSH1 0x4 DUP3 ADD MSTORE PUSH1 0x14 PUSH1 0x24 DUP3 ADD MSTORE PUSH20 0x2737BA1034B7103B37BA34B73390383430B9B297 PUSH1 0x61 SHL PUSH1 0x44 DUP3 ADD MSTORE PUSH1 0x64 ADD PUSH2 0x2E9 JUMP JUMPDEST PUSH2 0xC2E PUSH2 0xC87 JUMP JUMPDEST JUMP JUMPDEST PUSH1 0x5 SLOAD PUSH1 0x1 PUSH1 0x1 PUSH1 0xA0 SHL SUB AND CALLER EQ PUSH2 0xC5A JUMPI PUSH1 0x40 MLOAD PUSH3 0x461BCD PUSH1 0xE5 SHL DUP2 MSTORE PUSH1 0x4 ADD PUSH2 0x2E9 SWAP1 PUSH2 0x10F3 JUMP JUMPDEST PUSH1 0xB DUP1 SLOAD PUSH1 0xFF NOT SWAP1 DUP2 AND PUSH1 0x1 OR SWAP1 SWAP2 SSTORE PUSH1 0x9 DUP1 SLOAD SWAP2 DUP3 AND DUP2 SSTORE PUSH1 0x2 SWAP2 PUSH2 0xFFFF NOT AND PUSH2 0x100 DUP4 JUMPDEST MUL OR SWAP1 SSTORE POP JUMP JUMPDEST PUSH1 0x4 SLOAD ISZERO PUSH2 0xC97 JUMPI PUSH2 0xC97 PUSH2 0xCB4 JUMP JUMPDEST PUSH1 0x9 DUP1 SLOAD PUSH1 0xFF NOT DUP2 AND DUP3 SSTORE PUSH1 0x2 SWAP2 SWAP1 PUSH2 0xFFFF NOT AND PUSH2 0x100 DUP4 PUSH2 0xC80 JUMP JUMPDEST PUSH1 0x0 DUP1 PUSH1 0x1 JUMPDEST PUSH1 0x4 SLOAD DUP2 GT PUSH2 0xD6B JUMPI PUSH1 0x0 DUP2 DUP2 MSTORE PUSH1 0x7 PUSH1 0x20 SWAP1 DUP2 MSTORE PUSH1 0x40 DUP1 DUP4 KECCAK256 PUSH1 0x1 SWAP1 DUP2 ADD SLOAD DUP5 MSTORE PUSH1 0x8 SWAP1 SWAP3 MSTORE SWAP1 SWAP2 KECCAK256 SLOAD ISZERO PUSH2 0xD16 JUMPI PUSH1 0x0 DUP3 DUP2 MSTORE PUSH1 0x7 PUSH1 0x20 SWAP1 DUP2 MSTORE PUSH1 0x40 DUP1 DUP4 KECCAK256 PUSH1 0x1 ADD SLOAD DUP4 MSTORE PUSH1 0x8 SWAP1 SWAP2 MSTORE SWAP1 KECCAK256 SLOAD PUSH2 0xD13 SWAP1 DUP3 PUSH2 0x117A JUMP JUMPDEST SWAP1 POP JUMPDEST PUSH1 0x0 DUP3 DUP2 MSTORE PUSH1 0x7 PUSH1 0x20 SWAP1 DUP2 MSTORE PUSH1 0x40 DUP1 DUP4 KECCAK256 PUSH1 0x1 ADD SLOAD DUP4 MSTORE PUSH1 0x8 SWAP1 SWAP2 MSTORE SWAP1 KECCAK256 DUP2 SWAP1 SSTORE DUP4 DUP2 GT ISZERO PUSH2 0xD58 JUMPI PUSH1 0x0 DUP3 DUP2 MSTORE PUSH1 0x7 PUSH1 0x20 MSTORE PUSH1 0x40 SWAP1 KECCAK256 PUSH1 0x1 ADD SLOAD SWAP1 SWAP4 POP SWAP2 POP DUP3 JUMPDEST POP DUP1 PUSH2 0xD63 DUP2 PUSH2 0x1219 JUMP JUMPDEST SWAP2 POP POP PUSH2 0xCBA JUMP JUMPDEST POP PUSH1 0x0 DUP2 DUP2 MSTORE PUSH1 0x20 DUP2 SWAP1 MSTORE PUSH1 0x40 SWAP1 KECCAK256 DUP1 SLOAD PUSH1 0x6 SWAP2 SWAP1 PUSH2 0xD89 SWAP1 PUSH2 0x11E4 JUMP JUMPDEST PUSH2 0xD94 SWAP3 SWAP2 SWAP1 PUSH2 0xE1D JUMP JUMPDEST POP POP POP JUMP JUMPDEST DUP3 DUP1 SLOAD PUSH2 0xDA5 SWAP1 PUSH2 0x11E4 JUMP JUMPDEST SWAP1 PUSH1 0x0 MSTORE PUSH1 0x20 PUSH1 0x0 KECCAK256 SWAP1 PUSH1 0x1F ADD PUSH1 0x20 SWAP1 DIV DUP2 ADD SWAP3 DUP3 PUSH2 0xDC7 JUMPI PUSH1 0x0 DUP6 SSTORE PUSH2 0xE0D JUMP JUMPDEST DUP3 PUSH1 0x1F LT PUSH2 0xDE0 JUMPI DUP1 MLOAD PUSH1 0xFF NOT AND DUP4 DUP1 ADD OR DUP6 SSTORE PUSH2 0xE0D JUMP JUMPDEST DUP3 DUP1 ADD PUSH1 0x1 ADD DUP6 SSTORE DUP3 ISZERO PUSH2 0xE0D JUMPI SWAP2 DUP3 ADD JUMPDEST DUP3 DUP2 GT ISZERO PUSH2 0xE0D JUMPI DUP3 MLOAD DUP3 SSTORE SWAP2 PUSH1 0x20 ADD SWAP2 SWAP1 PUSH1 0x1 ADD SWAP1 PUSH2 0xDF2 JUMP JUMPDEST POP PUSH2 0xE19 SWAP3 SWAP2 POP PUSH2 0xE98 JUMP JUMPDEST POP SWAP1 JUMP JUMPDEST DUP3 DUP1 SLOAD PUSH2 0xE29 SWAP1 PUSH2 0x11E4 JUMP JUMPDEST SWAP1 PUSH1 0x0 MSTORE PUSH1 0x20 PUSH1 0x0 KECCAK256 SWAP1 PUSH1 0x1F ADD PUSH1 0x20 SWAP1 DIV DUP2 ADD SWAP3 DUP3 PUSH2 0xE4B JUMPI PUSH1 0x0 DUP6 SSTORE PUSH2 0xE0D JUMP JUMPDEST DUP3 PUSH1 0x1F LT PUSH2 0xE5C JUMPI DUP1 SLOAD DUP6 SSTORE PUSH2 0xE0D JUMP JUMPDEST DUP3 DUP1 ADD PUSH1 0x1 ADD DUP6 SSTORE DUP3 ISZERO PUSH2 0xE0D JUMPI PUSH1 0x0 MSTORE PUSH1 0x20 PUSH1 0x0 KECCAK256 SWAP2 PUSH1 0x1F ADD PUSH1 0x20 SWAP1 DIV DUP3 ADD JUMPDEST DUP3 DUP2 GT ISZERO PUSH2 0xE0D JUMPI DUP3 SLOAD DUP3 SSTORE SWAP2 PUSH1 0x1 ADD SWAP2 SWAP1 PUSH1 0x1 ADD SWAP1 PUSH2 0xE7D JUMP JUMPDEST JUMPDEST DUP1 DUP3 GT ISZERO PUSH2 0xE19 JUMPI PUSH1 0x0 DUP2 SSTORE PUSH1 0x1 ADD PUSH2 0xE99 JUMP JUMPDEST DUP1 CALLDATALOAD PUSH1 0x1 PUSH1 0x1 PUSH1 0xA0 SHL SUB DUP2 AND DUP2 EQ PUSH2 0xEC4 JUMPI PUSH1 0x0 DUP1 REVERT JUMPDEST SWAP2 SWAP1 POP JUMP JUMPDEST PUSH1 0x0 DUP3 PUSH1 0x1F DUP4 ADD SLT PUSH2 0xEDA JUMPI PUSH1 0x0 DUP1 REVERT JUMPDEST DUP2 CALLDATALOAD PUSH8 0xFFFFFFFFFFFFFFFF DUP1 DUP3 GT ISZERO PUSH2 0xEF5 JUMPI PUSH2 0xEF5 PUSH2 0x1260 JUMP JUMPDEST PUSH1 0x40 MLOAD PUSH1 0x1F DUP4 ADD PUSH1 0x1F NOT SWAP1 DUP2 AND PUSH1 0x3F ADD AND DUP2 ADD SWAP1 DUP3 DUP3 GT DUP2 DUP4 LT OR ISZERO PUSH2 0xF1D JUMPI PUSH2 0xF1D PUSH2 0x1260 JUMP JUMPDEST DUP2 PUSH1 0x40 MSTORE DUP4 DUP2 MSTORE DUP7 PUSH1 0x20 DUP6 DUP9 ADD ADD GT ISZERO PUSH2 0xF36 JUMPI PUSH1 0x0 DUP1 REVERT JUMPDEST DUP4 PUSH1 0x20 DUP8 ADD PUSH1 0x20 DUP4 ADD CALLDATACOPY PUSH1 0x0 PUSH1 0x20 DUP6 DUP4 ADD ADD MSTORE DUP1 SWAP5 POP POP POP POP POP SWAP3 SWAP2 POP POP JUMP JUMPDEST PUSH1 0x0 PUSH1 0x20 DUP3 DUP5 SUB SLT ISZERO PUSH2 0xF68 JUMPI PUSH1 0x0 DUP1 REVERT JUMPDEST PUSH2 0xF71 DUP3 PUSH2 0xEAD JUMP JUMPDEST SWAP4 SWAP3 POP POP POP JUMP JUMPDEST PUSH1 0x0 DUP1 PUSH1 0x40 DUP4 DUP6 SUB SLT ISZERO PUSH2 0xF8B JUMPI PUSH1 0x0 DUP1 REVERT JUMPDEST PUSH2 0xF94 DUP4 PUSH2 0xEAD JUMP JUMPDEST SWAP2 POP PUSH1 0x20 DUP4 ADD CALLDATALOAD PUSH8 0xFFFFFFFFFFFFFFFF DUP2 GT ISZERO PUSH2 0xFB0 JUMPI PUSH1 0x0 DUP1 REVERT JUMPDEST PUSH2 0xFBC DUP6 DUP3 DUP7 ADD PUSH2 0xEC9 JUMP JUMPDEST SWAP2 POP POP SWAP3 POP SWAP3 SWAP1 POP JUMP JUMPDEST PUSH1 0x0 PUSH1 0x20 DUP3 DUP5 SUB SLT ISZERO PUSH2 0xFD8 JUMPI PUSH1 0x0 DUP1 REVERT JUMPDEST DUP2 CALLDATALOAD PUSH8 0xFFFFFFFFFFFFFFFF DUP2 GT ISZERO PUSH2 0xFEF JUMPI PUSH1 0x0 DUP1 REVERT JUMPDEST PUSH2 0xFFB DUP5 DUP3 DUP6 ADD PUSH2 0xEC9 JUMP JUMPDEST SWAP5 SWAP4 POP POP POP POP JUMP JUMPDEST PUSH1 0x0 PUSH1 0x20 DUP3 DUP5 SUB SLT ISZERO PUSH2 0x1015 JUMPI PUSH1 0x0 DUP1 REVERT JUMPDEST POP CALLDATALOAD SWAP2 SWAP1 POP JUMP JUMPDEST PUSH1 0x0 DUP2 MLOAD DUP1 DUP5 MSTORE PUSH2 0x1034 DUP2 PUSH1 0x20 DUP7 ADD PUSH1 0x20 DUP7 ADD PUSH2 0x11B4 JUMP JUMPDEST PUSH1 0x1F ADD PUSH1 0x1F NOT AND SWAP3 SWAP1 SWAP3 ADD PUSH1 0x20 ADD SWAP3 SWAP2 POP POP JUMP JUMPDEST PUSH1 0x0 DUP3 MLOAD PUSH2 0x105A DUP2 DUP5 PUSH1 0x20 DUP8 ADD PUSH2 0x11B4 JUMP JUMPDEST SWAP2 SWAP1 SWAP2 ADD SWAP3 SWAP2 POP POP JUMP JUMPDEST PUSH1 0x20 DUP2 ADD PUSH1 0x3 DUP4 LT PUSH2 0x1086 JUMPI PUSH4 0x4E487B71 PUSH1 0xE0 SHL PUSH1 0x0 MSTORE PUSH1 0x21 PUSH1 0x4 MSTORE PUSH1 0x24 PUSH1 0x0 REVERT JUMPDEST SWAP2 SWAP1 MSTORE SWAP1 JUMP JUMPDEST PUSH1 0x20 DUP2 MSTORE PUSH1 0x0 PUSH2 0xF71 PUSH1 0x20 DUP4 ADD DUP5 PUSH2 0x101C JUMP JUMPDEST PUSH1 0x40 DUP2 MSTORE PUSH1 0x0 PUSH2 0x10B2 PUSH1 0x40 DUP4 ADD DUP6 PUSH2 0x101C JUMP JUMPDEST SWAP1 POP DUP3 ISZERO ISZERO PUSH1 0x20 DUP4 ADD MSTORE SWAP4 SWAP3 POP POP POP JUMP JUMPDEST PUSH1 0x20 DUP1 DUP3 MSTORE PUSH1 0x16 SWAP1 DUP3 ADD MSTORE PUSH22 0x21B7B73A3930B1BA1034B99039B43ABA103237BBB717 PUSH1 0x51 SHL PUSH1 0x40 DUP3 ADD MSTORE PUSH1 0x60 ADD SWAP1 JUMP JUMPDEST PUSH1 0x20 DUP1 DUP3 MSTORE PUSH1 0x23 SWAP1 DUP3 ADD MSTORE PUSH32 0x43616E206F6E6C7920626520657865637574656420627920746865206D616E61 PUSH1 0x40 DUP3 ADD MSTORE PUSH3 0x33B2B9 PUSH1 0xE9 SHL PUSH1 0x60 DUP3 ADD MSTORE PUSH1 0x80 ADD SWAP1 JUMP JUMPDEST PUSH1 0x20 DUP1 DUP3 MSTORE PUSH1 0x24 SWAP1 DUP3 ADD MSTORE PUSH32 0x416374696F6E206E6F7420616C6C6F77656420696E2063757272656E74207068 PUSH1 0x40 DUP3 ADD MSTORE PUSH4 0x30B9B297 PUSH1 0xE1 SHL PUSH1 0x60 DUP3 ADD MSTORE PUSH1 0x80 ADD SWAP1 JUMP JUMPDEST PUSH1 0x0 DUP3 NOT DUP3 GT ISZERO PUSH2 0x118D JUMPI PUSH2 0x118D PUSH2 0x1234 JUMP JUMPDEST POP ADD SWAP1 JUMP JUMPDEST PUSH1 0x0 DUP3 PUSH2 0x11AF JUMPI PUSH4 0x4E487B71 PUSH1 0xE0 SHL PUSH1 0x0 MSTORE PUSH1 0x12 PUSH1 0x4 MSTORE PUSH1 0x24 PUSH1 0x0 REVERT JUMPDEST POP DIV SWAP1 JUMP JUMPDEST PUSH1 0x0 JUMPDEST DUP4 DUP2 LT ISZERO PUSH2 0x11CF JUMPI DUP2 DUP2 ADD MLOAD DUP4 DUP3 ADD MSTORE PUSH1 0x20 ADD PUSH2 0x11B7 JUMP JUMPDEST DUP4 DUP2 GT ISZERO PUSH2 0x11DE JUMPI PUSH1 0x0 DUP5 DUP5 ADD MSTORE JUMPDEST POP POP POP POP JUMP JUMPDEST PUSH1 0x1 DUP2 DUP2 SHR SWAP1 DUP3 AND DUP1 PUSH2 0x11F8 JUMPI PUSH1 0x7F DUP3 AND SWAP2 POP JUMPDEST PUSH1 0x20 DUP3 LT DUP2 EQ ISZERO PUSH2 0x58E JUMPI PUSH4 0x4E487B71 PUSH1 0xE0 SHL PUSH1 0x0 MSTORE PUSH1 0x22 PUSH1 0x4 MSTORE PUSH1 0x24 PUSH1 0x0 REVERT JUMPDEST PUSH1 0x0 PUSH1 0x0 NOT DUP3 EQ ISZERO PUSH2 0x122D JUMPI PUSH2 0x122D PUSH2 0x1234 JUMP JUMPDEST POP PUSH1 0x1 ADD SWAP1 JUMP JUMPDEST PUSH4 0x4E487B71 PUSH1 0xE0 SHL PUSH1 0x0 MSTORE PUSH1 0x11 PUSH1 0x4 MSTORE PUSH1 0x24 PUSH1 0x0 REVERT JUMPDEST PUSH4 0x4E487B71 PUSH1 0xE0 SHL PUSH1 0x0 MSTORE PUSH1 0x21 PUSH1 0x4 MSTORE PUSH1 0x24 PUSH1 0x0 REVERT JUMPDEST PUSH4 0x4E487B71 PUSH1 0xE0 SHL PUSH1 0x0 MSTORE PUSH1 0x41 PUSH1 0x4 MSTORE PUSH1 0x24 PUSH1 0x0 REVERT INVALID LOG2 PUSH5 0x6970667358 0x22 SLT KECCAK256 0xE8 PUSH31 0xAFCAD11D27799087C6D1206876E055D6B36C6C9CB4E695F703D4543032FB64 PUSH20 0x6F6C634300080500330000000000000000000000 "
				},
				"gasEstimates": {
					"creation": {
						"codeDepositCost": "956000",
						"executionCost": "infinite",
						"totalCost": "infinite"
					},
					"external": {
						"addFriend(address,string)": "infinite",
						"addRestaurant(string)": "infinite",
						"currentPhase()": "2386",
						"doVote(uint256)": "infinite",
						"endBlock()": "2341",
						"endVoting()": "infinite",
						"friends(address)": "infinite",
						"isShutdown()": "2354",
						"manager()": "2426",
						"numFriends()": "2362",
						"numRestaurants()": "2317",
						"numVotes()": "2362",
						"restaurants(uint256)": "infinite",
						"shutdown()": "72980",
						"startVoting(uint256)": "57347",
						"voteOpen()": "2355",
						"votedRestaurant()": "infinite",
						"votes(uint256)": "4736"
					},
					"internal": {
						"_endVoting()": "infinite",
						"finalResult()": "infinite"
					}
				},
				"methodIdentifiers": {
					"addFriend(address,string)": "3b9f708d",
					"addRestaurant(string)": "6d77bd3e",
					"currentPhase()": "055ad42e",
					"doVote(uint256)": "124258c6",
					"endBlock()": "083c6323",
					"endVoting()": "c3403ddf",
					"friends(address)": "1ddabf7a",
					"isShutdown()": "bf86d690",
					"manager()": "481c6a75",
					"numFriends()": "47098f36",
					"numRestaurants()": "b798867f",
					"numVotes()": "a3bef4d7",
					"restaurants(uint256)": "ad5461d8",
					"shutdown()": "fc0e74d1",
					"startVoting(uint256)": "3d2f5bda",
					"voteOpen()": "788d3851",
					"votedRestaurant()": "c1c16efc",
					"votes(uint256)": "5df81330"
				}
			},
			"storageLayout": {
				"storage": [
					{
						"astId": 16,
						"contract": "contracts/LunchVenue.sol:LunchVenue",
						"label": "restaurants",
						"offset": 0,
						"slot": "0",
						"type": "t_mapping(t_uint256,t_string_storage)"
					},
					{
						"astId": 21,
						"contract": "contracts/LunchVenue.sol:LunchVenue",
						"label": "friends",
						"offset": 0,
						"slot": "1",
						"type": "t_mapping(t_address,t_struct(Friend)7_storage)"
					},
					{
						"astId": 24,
						"contract": "contracts/LunchVenue.sol:LunchVenue",
						"label": "numRestaurants",
						"offset": 0,
						"slot": "2",
						"type": "t_uint256"
					},
					{
						"astId": 27,
						"contract": "contracts/LunchVenue.sol:LunchVenue",
						"label": "numFriends",
						"offset": 0,
						"slot": "3",
						"type": "t_uint256"
					},
					{
						"astId": 30,
						"contract": "contracts/LunchVenue.sol:LunchVenue",
						"label": "numVotes",
						"offset": 0,
						"slot": "4",
						"type": "t_uint256"
					},
					{
						"astId": 32,
						"contract": "contracts/LunchVenue.sol:LunchVenue",
						"label": "manager",
						"offset": 0,
						"slot": "5",
						"type": "t_address"
					},
					{
						"astId": 35,
						"contract": "contracts/LunchVenue.sol:LunchVenue",
						"label": "votedRestaurant",
						"offset": 0,
						"slot": "6",
						"type": "t_string_storage"
					},
					{
						"astId": 40,
						"contract": "contracts/LunchVenue.sol:LunchVenue",
						"label": "votes",
						"offset": 0,
						"slot": "7",
						"type": "t_mapping(t_uint256,t_struct(Vote)12_storage)"
					},
					{
						"astId": 44,
						"contract": "contracts/LunchVenue.sol:LunchVenue",
						"label": "_results",
						"offset": 0,
						"slot": "8",
						"type": "t_mapping(t_uint256,t_uint256)"
					},
					{
						"astId": 47,
						"contract": "contracts/LunchVenue.sol:LunchVenue",
						"label": "voteOpen",
						"offset": 0,
						"slot": "9",
						"type": "t_bool"
					},
					{
						"astId": 56,
						"contract": "contracts/LunchVenue.sol:LunchVenue",
						"label": "currentPhase",
						"offset": 1,
						"slot": "9",
						"type": "t_enum(Phase)51"
					},
					{
						"astId": 58,
						"contract": "contracts/LunchVenue.sol:LunchVenue",
						"label": "endBlock",
						"offset": 0,
						"slot": "10",
						"type": "t_uint256"
					},
					{
						"astId": 61,
						"contract": "contracts/LunchVenue.sol:LunchVenue",
						"label": "isShutdown",
						"offset": 0,
						"slot": "11",
						"type": "t_bool"
					},
					{
						"astId": 65,
						"contract": "contracts/LunchVenue.sol:LunchVenue",
						"label": "restaurantExists",
						"offset": 0,
						"slot": "12",
						"type": "t_mapping(t_bytes32,t_bool)"
					}
				],
				"types": {
					"t_address": {
						"encoding": "inplace",
						"label": "address",
						"numberOfBytes": "20"
					},
					"t_bool": {
						"encoding": "inplace",
						"label": "bool",
						"numberOfBytes": "1"
					},
					"t_bytes32": {
						"encoding": "inplace",
						"label": "bytes32",
						"numberOfBytes": "32"
					},
					"t_enum(Phase)51": {
						"encoding": "inplace",
						"label": "enum LunchVenue.Phase",
						"numberOfBytes": "1"
					},
					"t_mapping(t_address,t_struct(Friend)7_storage)": {
						"encoding": "mapping",
						"key": "t_address",
						"label": "mapping(address => struct LunchVenue.Friend)",
						"numberOfBytes": "32",
						"value": "t_struct(Friend)7_storage"
					},
					"t_mapping(t_bytes32,t_bool)": {
						"encoding": "mapping",
						"key": "t_bytes32",
						"label": "mapping(bytes32 => bool)",
						"numberOfBytes": "32",
						"value": "t_bool"
					},
					"t_mapping(t_uint256,t_string_storage)": {
						"encoding": "mapping",
						"key": "t_uint256",
						"label": "mapping(uint256 => string)",
						"numberOfBytes": "32",
						"value": "t_string_storage"
					},
					"t_mapping(t_uint256,t_struct(Vote)12_storage)": {
						"encoding": "mapping",
						"key": "t_uint256",
						"label": "mapping(uint256 => struct LunchVenue.Vote)",
						"numberOfBytes": "32",
						"value": "t_struct(Vote)12_storage"
					},
					"t_mapping(t_uint256,t_uint256)": {
						"encoding": "mapping",
						"key": "t_uint256",
						"label": "mapping(uint256 => uint256)",
						"numberOfBytes": "32",
						"value": "t_uint256"
					},
					"t_string_storage": {
						"encoding": "bytes",
						"label": "string",
						"numberOfBytes": "32"
					},
					"t_struct(Friend)7_storage": {
						"encoding": "inplace",
						"label": "struct LunchVenue.Friend",
						"members": [
							{
								"astId": 4,
								"contract": "contracts/LunchVenue.sol:LunchVenue",
								"label": "name",
								"offset": 0,
								"slot": "0",
								"type": "t_string_storage"
							},
							{
								"astId": 6,
								"contract": "contracts/LunchVenue.sol:LunchVenue",
								"label": "voted",
								"offset": 0,
								"slot": "1",
								"type": "t_bool"
							}
						],
						"numberOfBytes": "64"
					},
					"t_struct(Vote)12_storage": {
						"encoding": "inplace",
						"label": "struct LunchVenue.Vote",
						"members": [
							{
								"astId": 9,
								"contract": "contracts/LunchVenue.sol:LunchVenue",
								"label": "voterAddress",
								"offset": 0,
								"slot": "0",
								"type": "t_address"
							},
							{
								"astId": 11,
								"contract": "contracts/LunchVenue.sol:LunchVenue",
								"label": "restaurant",
								"offset": 0,
								"slot": "1",
								"type": "t_uint256"
							}
						],
						"numberOfBytes": "64"
					},
					"t_uint256": {
						"encoding": "inplace",
						"label": "uint256",
						"numberOfBytes": "32"
					}
				}
			},
			"userdoc": {
				"kind": "user",
				"methods": {
					"addFriend(address,string)": {
						"notice": "Add a new friend to voter list"
					},
					"addRestaurant(string)": {
						"notice": "Add a new restaurant"
					},
					"doVote(uint256)": {
						"notice": "Vote for a restaurant"
					},
					"endVoting()": {
						"notice": "Force end voting (for timeout or manager decision)"
					},
					"shutdown()": {
						"notice": "Shutdown the contract"
					},
					"startVoting(uint256)": {
						"notice": "Start the voting phase"
					}
				},
				"notice": "Solutions To 5 Weaknesses Chosen  1 (Duplicate Votes) - Added a check in doVote() using:     require(!friends[msg.sender].voted, \"You have already voted.\"); - Added bool data to a friend that get updated after a successful vote. - This ensures friends cannot vote more than once.  2 (Duplicate Friends and Restaurants) - Added a check in addFriend() to ensure the address has no associated name:     require(bytes(friends[friendAddress].name).length == 0, \"Friend already exists.\"); - Added a check in addFriend() that ensures non empty names. - This avoids a Remix bug that allows friends to be added without a name. - Added restaurantExists that maps a restaurants hash to a bool if the restaurant exists. - Added a check in addRestaurant that ensures restaurantExists is not true, which is the default if it has never been mapped:     bytes32 nameHash = keccak256(abi.encodePacked(name));     require(!restaurantExists[nameHash], \"Restaurant already exists.\"); - Added mapping in addRestaurant() to ensure their default false is toggled to true. - This ensures that neither users are unique to their address and restaurants are unique to their name.  3 (Contract Phases) - Added an enum Phase to manage contract state. - Added currentPhase to track the phase. - Added onlyDuring(phase) modifier to restrict functions like addFriend, addRestaurant, and doVote. - This ensures friends/restaurants can only be added in the setup phase, and voting only occurs in the voting phase.  4 (Timeout Functionality) - Added endBlock to track when voting ends. - Added startVoting(blocksUntilEnd) which sets endBlock to block.number + blocksUntilEnd. - Edited doVote() to check if block.number > endBlock, calling _endVoting() if true and gracefully exits. - This ensures that the voting phase will timeout after a set amount of blocks that the manager chooses. - As there is no automatic execution in Solidity, this is the closest possible method. - Added endVoting() which calls _endVoting. - This gives managers the ability to automatically end the voting phase.  5 (Shutdown Functionality) - Added a bool isShutdown to disable the contract. - Added a contractActive modifier to guard all public functions. - Added shutdown() which progresses the contract to the final stage without calculating results. - This ensures that managers have the ability to disable the contract.",
				"version": 1
			}
		}
	}
}