{
	"contracts/LunchVenue.sol": {
		"LunchVenue": {
			"abi": [
				{
					"inputs": [],
					"stateMutability": "nonpayable",
					"type": "constructor"
				},
				{
					"inputs": [
						{
							"internalType": "address",
							"name": "friendAddress",
							"type": "address"
						},
						{
							"internalType": "string",
							"name": "name",
							"type": "string"
						}
					],
					"name": "addFriend",
					"outputs": [
						{
							"internalType": "uint256",
							"name": "",
							"type": "uint256"
						}
					],
					"stateMutability": "nonpayable",
					"type": "function"
				},
				{
					"inputs": [
						{
							"internalType": "string",
							"name": "name",
							"type": "string"
						}
					],
					"name": "addRestaurant",
					"outputs": [
						{
							"internalType": "uint256",
							"name": "",
							"type": "uint256"
						}
					],
					"stateMutability": "nonpayable",
					"type": "function"
				},
				{
					"inputs": [],
					"name": "currentPhase",
					"outputs": [
						{
							"internalType": "enum LunchVenue.Phase",
							"name": "",
							"type": "uint8"
						}
					],
					"stateMutability": "view",
					"type": "function"
				},
				{
					"inputs": [
						{
							"internalType": "uint256",
							"name": "restaurant",
							"type": "uint256"
						}
					],
					"name": "doVote",
					"outputs": [
						{
							"internalType": "bool",
							"name": "validVote",
							"type": "bool"
						}
					],
					"stateMutability": "nonpayable",
					"type": "function"
				},
				{
					"inputs": [],
					"name": "endBlock",
					"outputs": [
						{
							"internalType": "uint256",
							"name": "",
							"type": "uint256"
						}
					],
					"stateMutability": "view",
					"type": "function"
				},
				{
					"inputs": [],
					"name": "endVoting",
					"outputs": [],
					"stateMutability": "nonpayable",
					"type": "function"
				},
				{
					"inputs": [
						{
							"internalType": "address",
							"name": "",
							"type": "address"
						}
					],
					"name": "friends",
					"outputs": [
						{
							"internalType": "string",
							"name": "name",
							"type": "string"
						},
						{
							"internalType": "bool",
							"name": "voted",
							"type": "bool"
						}
					],
					"stateMutability": "view",
					"type": "function"
				},
				{
					"inputs": [
						{
							"internalType": "uint256",
							"name": "restaurantId",
							"type": "uint256"
						}
					],
					"name": "getVoteCount",
					"outputs": [
						{
							"internalType": "uint256",
							"name": "voteCount",
							"type": "uint256"
						}
					],
					"stateMutability": "view",
					"type": "function"
				},
				{
					"inputs": [],
					"name": "isShutdown",
					"outputs": [
						{
							"internalType": "bool",
							"name": "",
							"type": "bool"
						}
					],
					"stateMutability": "view",
					"type": "function"
				},
				{
					"inputs": [],
					"name": "manager",
					"outputs": [
						{
							"internalType": "address",
							"name": "",
							"type": "address"
						}
					],
					"stateMutability": "view",
					"type": "function"
				},
				{
					"inputs": [],
					"name": "numFriends",
					"outputs": [
						{
							"internalType": "uint256",
							"name": "",
							"type": "uint256"
						}
					],
					"stateMutability": "view",
					"type": "function"
				},
				{
					"inputs": [],
					"name": "numRestaurants",
					"outputs": [
						{
							"internalType": "uint256",
							"name": "",
							"type": "uint256"
						}
					],
					"stateMutability": "view",
					"type": "function"
				},
				{
					"inputs": [],
					"name": "numVotes",
					"outputs": [
						{
							"internalType": "uint256",
							"name": "",
							"type": "uint256"
						}
					],
					"stateMutability": "view",
					"type": "function"
				},
				{
					"inputs": [
						{
							"internalType": "uint256",
							"name": "",
							"type": "uint256"
						}
					],
					"name": "restaurants",
					"outputs": [
						{
							"internalType": "string",
							"name": "",
							"type": "string"
						}
					],
					"stateMutability": "view",
					"type": "function"
				},
				{
					"inputs": [],
					"name": "shutdown",
					"outputs": [],
					"stateMutability": "nonpayable",
					"type": "function"
				},
				{
					"inputs": [
						{
							"internalType": "uint256",
							"name": "blocksUntilEnd",
							"type": "uint256"
						}
					],
					"name": "startVoting",
					"outputs": [],
					"stateMutability": "nonpayable",
					"type": "function"
				},
				{
					"inputs": [],
					"name": "voteOpen",
					"outputs": [
						{
							"internalType": "bool",
							"name": "",
							"type": "bool"
						}
					],
					"stateMutability": "view",
					"type": "function"
				},
				{
					"inputs": [],
					"name": "votedRestaurant",
					"outputs": [
						{
							"internalType": "string",
							"name": "",
							"type": "string"
						}
					],
					"stateMutability": "view",
					"type": "function"
				},
				{
					"inputs": [
						{
							"internalType": "uint256",
							"name": "",
							"type": "uint256"
						}
					],
					"name": "votes",
					"outputs": [
						{
							"internalType": "address",
							"name": "voterAddress",
							"type": "address"
						},
						{
							"internalType": "uint256",
							"name": "restaurant",
							"type": "uint256"
						}
					],
					"stateMutability": "view",
					"type": "function"
				}
			],
			"devdoc": {
				"author": "Dilum Bandara, CSIRO's Data61 (Upgraded Version)",
				"kind": "dev",
				"methods": {
					"addFriend(address,string)": {
						"details": "Prevents duplication of friends",
						"params": {
							"friendAddress": "Friend's account/address",
							"name": "Friend's name"
						},
						"returns": {
							"_0": "Number of friends added so far"
						}
					},
					"addRestaurant(string)": {
						"details": "Prevents duplication of restaurants by checking name hash",
						"params": {
							"name": "Restaurant name"
						},
						"returns": {
							"_0": "Number of restaurants added so far"
						}
					},
					"constructor": {
						"details": "Set manager when contract starts"
					},
					"doVote(uint256)": {
						"details": "Prevents duplicate votes and enforces timeout",
						"params": {
							"restaurant": "Restaurant number being voted"
						},
						"returns": {
							"validVote": "Is the vote valid? A valid vote should be from a registered  friend to a registered restaurant"
						}
					},
					"endVoting()": {
						"details": "Can be called by manager or automatically when timeout reached"
					},
					"getVoteCount(uint256)": {
						"params": {
							"restaurantId": "The restaurant ID to check"
						},
						"returns": {
							"voteCount": "Number of votes for the restaurant"
						}
					},
					"shutdown()": {
						"details": "Only manager can shutdown, prevents all future interactions"
					},
					"startVoting(uint256)": {
						"details": "Only manager can start voting and set timeout",
						"params": {
							"blocksUntilEnd": "Number of blocks until voting ends"
						}
					}
				},
				"title": "Contract to agree on the lunch venue",
				"version": 1
			},
			"evm": {
				"assembly": "    /* \"contracts/LunchVenue.sol\":483:484  0 */\n  0x00\n    /* \"contracts/LunchVenue.sol\":454:484  uint public numRestaurants = 0 */\n  0x02\n  dup2\n  swap1\n  sstore\n    /* \"contracts/LunchVenue.sol\":490:516  uint public numFriends = 0 */\n  0x03\n  dup2\n  swap1\n  sstore\n    /* \"contracts/LunchVenue.sol\":522:546  uint public numVotes = 0 */\n  0x04\n  dup2\n  swap1\n  sstore\n    /* \"contracts/LunchVenue.sol\":580:614  string public votedRestaurant = \"\" */\n  0xa0\n    /* \"contracts/LunchVenue.sol\":176:7515  contract LunchVenue{... */\n  0x40\n    /* \"contracts/LunchVenue.sol\":580:614  string public votedRestaurant = \"\" */\n  dup2\n  swap1\n  mstore\n    /* \"contracts/LunchVenue.sol\":176:7515  contract LunchVenue{... */\n  0x80\n    /* \"contracts/LunchVenue.sol\":580:614  string public votedRestaurant = \"\" */\n  dup3\n  swap1\n  mstore\n  tag_1\n  swap2\n  0x06\n  swap2\n  swap1\n  tag_2\n  jump\t// in\ntag_1:\n  pop\n    /* \"contracts/LunchVenue.sol\":707:734  bool public voteOpen = true */\n  0x09\n  dup1\n  sload\n  not(0xffff)\n    /* \"contracts/LunchVenue.sol\":818:857  Phase public currentPhase = Phase.Setup */\n  and\n    /* \"contracts/LunchVenue.sol\":730:734  true */\n  0x01\n    /* \"contracts/LunchVenue.sol\":818:857  Phase public currentPhase = Phase.Setup */\n  or\n  swap1\n  sstore\n    /* \"contracts/LunchVenue.sol\":996:1026  bool public isShutdown = false */\n  0x0b\n  dup1\n  sload\n  not(0xff)\n  and\n  swap1\n  sstore\n    /* \"contracts/LunchVenue.sol\":1254:1306  constructor () {... */\n  callvalue\n  dup1\n  iszero\n  tag_6\n  jumpi\n  0x00\n  dup1\n  revert\ntag_6:\n  pop\n    /* \"contracts/LunchVenue.sol\":1279:1286  manager */\n  0x05\n    /* \"contracts/LunchVenue.sol\":1279:1299  manager = msg.sender */\n  dup1\n  sload\n  not(sub(shl(0xa0, 0x01), 0x01))\n  and\n    /* \"contracts/LunchVenue.sol\":1289:1299  msg.sender */\n  caller\n    /* \"contracts/LunchVenue.sol\":1279:1299  manager = msg.sender */\n  or\n  swap1\n  sstore\n    /* \"contracts/LunchVenue.sol\":176:7515  contract LunchVenue{... */\n  jump(tag_21)\ntag_2:\n  dup3\n  dup1\n  sload\n  tag_10\n  swap1\n  tag_11\n  jump\t// in\ntag_10:\n  swap1\n  0x00\n  mstore\n  keccak256(0x00, 0x20)\n  swap1\n  0x1f\n  add\n  0x20\n  swap1\n  div\n  dup2\n  add\n  swap3\n  dup3\n  tag_13\n  jumpi\n  0x00\n  dup6\n  sstore\n  jump(tag_16)\ntag_13:\n  dup3\n  0x1f\n  lt\n  tag_14\n  jumpi\n  dup1\n  mload\n  not(0xff)\n  and\n  dup4\n  dup1\n  add\n  or\n  dup6\n  sstore\n  jump(tag_16)\ntag_14:\n  dup3\n  dup1\n  add\n  0x01\n  add\n  dup6\n  sstore\n  dup3\n  iszero\n  tag_16\n  jumpi\n  swap2\n  dup3\n  add\ntag_15:\n  dup3\n  dup2\n  gt\n  iszero\n  tag_16\n  jumpi\n  dup3\n  mload\n  dup3\n  sstore\n  swap2\n  0x20\n  add\n  swap2\n  swap1\n  0x01\n  add\n  swap1\n  jump(tag_15)\ntag_16:\n  pop\n  tag_17\n  swap3\n  swap2\n  pop\n  tag_18\n  jump\t// in\ntag_17:\n  pop\n  swap1\n  jump\t// out\ntag_18:\ntag_19:\n  dup1\n  dup3\n  gt\n  iszero\n  tag_17\n  jumpi\n  0x00\n  dup2\n  sstore\n  0x01\n  add\n  jump(tag_19)\n    /* \"#utility.yul\":14:394   */\ntag_11:\n    /* \"#utility.yul\":93:94   */\n  0x01\n    /* \"#utility.yul\":89:101   */\n  dup2\n  dup2\n  shr\n  swap1\n    /* \"#utility.yul\":136:148   */\n  dup3\n  and\n  dup1\n    /* \"#utility.yul\":157:159   */\n  tag_23\n  jumpi\n    /* \"#utility.yul\":211:215   */\n  0x7f\n    /* \"#utility.yul\":203:209   */\n  dup3\n    /* \"#utility.yul\":199:216   */\n  and\n    /* \"#utility.yul\":189:216   */\n  swap2\n  pop\n    /* \"#utility.yul\":157:159   */\ntag_23:\n    /* \"#utility.yul\":264:266   */\n  0x20\n    /* \"#utility.yul\":256:262   */\n  dup3\n    /* \"#utility.yul\":253:267   */\n  lt\n    /* \"#utility.yul\":233:251   */\n  dup2\n    /* \"#utility.yul\":230:268   */\n  eq\n    /* \"#utility.yul\":227:229   */\n  iszero\n  tag_24\n  jumpi\n    /* \"#utility.yul\":310:320   */\n  0x4e487b71\n    /* \"#utility.yul\":305:308   */\n  0xe0\n    /* \"#utility.yul\":301:321   */\n  shl\n    /* \"#utility.yul\":298:299   */\n  0x00\n    /* \"#utility.yul\":291:322   */\n  mstore\n    /* \"#utility.yul\":345:349   */\n  0x22\n    /* \"#utility.yul\":342:343   */\n  0x04\n    /* \"#utility.yul\":335:350   */\n  mstore\n    /* \"#utility.yul\":373:377   */\n  0x24\n    /* \"#utility.yul\":370:371   */\n  0x00\n    /* \"#utility.yul\":363:378   */\n  revert\n    /* \"#utility.yul\":227:229   */\ntag_24:\n  pop\n    /* \"#utility.yul\":69:394   */\n  swap2\n  swap1\n  pop\n  jump\t// out\n    /* \"#utility.yul\":431:526   */\ntag_21:\n    /* \"contracts/LunchVenue.sol\":176:7515  contract LunchVenue{... */\n  dataSize(sub_0)\n  dup1\n  dataOffset(sub_0)\n  0x00\n  codecopy\n  0x00\n  return\nstop\n\nsub_0: assembly {\n        /* \"contracts/LunchVenue.sol\":176:7515  contract LunchVenue{... */\n      mstore(0x40, 0x80)\n      callvalue\n      dup1\n      iszero\n      tag_1\n      jumpi\n      0x00\n      dup1\n      revert\n    tag_1:\n      pop\n      jumpi(tag_2, lt(calldatasize, 0x04))\n      shr(0xe0, calldataload(0x00))\n      dup1\n      0x6d77bd3e\n      gt\n      tag_22\n      jumpi\n      dup1\n      0xb798867f\n      gt\n      tag_23\n      jumpi\n      dup1\n      0xb798867f\n      eq\n      tag_17\n      jumpi\n      dup1\n      0xbf86d690\n      eq\n      tag_18\n      jumpi\n      dup1\n      0xc1c16efc\n      eq\n      tag_19\n      jumpi\n      dup1\n      0xc3403ddf\n      eq\n      tag_20\n      jumpi\n      dup1\n      0xfc0e74d1\n      eq\n      tag_21\n      jumpi\n      0x00\n      dup1\n      revert\n    tag_23:\n      dup1\n      0x6d77bd3e\n      eq\n      tag_12\n      jumpi\n      dup1\n      0x788d3851\n      eq\n      tag_13\n      jumpi\n      dup1\n      0xa3bef4d7\n      eq\n      tag_14\n      jumpi\n      dup1\n      0xad5461d8\n      eq\n      tag_15\n      jumpi\n      dup1\n      0xb2c2f2e8\n      eq\n      tag_16\n      jumpi\n      0x00\n      dup1\n      revert\n    tag_22:\n      dup1\n      0x3b9f708d\n      gt\n      tag_24\n      jumpi\n      dup1\n      0x3b9f708d\n      eq\n      tag_7\n      jumpi\n      dup1\n      0x3d2f5bda\n      eq\n      tag_8\n      jumpi\n      dup1\n      0x47098f36\n      eq\n      tag_9\n      jumpi\n      dup1\n      0x481c6a75\n      eq\n      tag_10\n      jumpi\n      dup1\n      0x5df81330\n      eq\n      tag_11\n      jumpi\n      0x00\n      dup1\n      revert\n    tag_24:\n      dup1\n      0x055ad42e\n      eq\n      tag_3\n      jumpi\n      dup1\n      0x083c6323\n      eq\n      tag_4\n      jumpi\n      dup1\n      0x124258c6\n      eq\n      tag_5\n      jumpi\n      dup1\n      0x1ddabf7a\n      eq\n      tag_6\n      jumpi\n    tag_2:\n      0x00\n      dup1\n      revert\n        /* \"contracts/LunchVenue.sol\":818:857  Phase public currentPhase = Phase.Setup */\n    tag_3:\n      sload(0x09)\n      tag_25\n      swap1\n      0x0100\n      swap1\n      div\n      0xff\n      and\n      dup2\n      jump\n    tag_25:\n      mload(0x40)\n      tag_27\n      swap2\n      swap1\n      tag_28\n      jump\t// in\n    tag_27:\n      mload(0x40)\n      dup1\n      swap2\n      sub\n      swap1\n      return\n        /* \"contracts/LunchVenue.sol\":907:927  uint public endBlock */\n    tag_4:\n      tag_29\n      sload(0x0a)\n      dup2\n      jump\n    tag_29:\n      mload(0x40)\n        /* \"#utility.yul\":9107:9132   */\n      swap1\n      dup2\n      mstore\n        /* \"#utility.yul\":9095:9097   */\n      0x20\n        /* \"#utility.yul\":9080:9098   */\n      add\n        /* \"contracts/LunchVenue.sol\":907:927  uint public endBlock */\n      tag_27\n        /* \"#utility.yul\":9062:9138   */\n      jump\n        /* \"contracts/LunchVenue.sol\":3756:4689  function doVote(uint restaurant) public contractActive onlyDuring(Phase.Voting) votingOpen returns (bool validVote){... */\n    tag_5:\n      tag_33\n      tag_34\n      calldatasize\n      0x04\n      tag_35\n      jump\t// in\n    tag_34:\n      tag_36\n      jump\t// in\n    tag_33:\n      mload(0x40)\n        /* \"#utility.yul\":3216:3230   */\n      swap1\n      iszero\n        /* \"#utility.yul\":3209:3231   */\n      iszero\n        /* \"#utility.yul\":3191:3232   */\n      dup2\n      mstore\n        /* \"#utility.yul\":3179:3181   */\n      0x20\n        /* \"#utility.yul\":3164:3182   */\n      add\n        /* \"contracts/LunchVenue.sol\":3756:4689  function doVote(uint restaurant) public contractActive onlyDuring(Phase.Voting) votingOpen returns (bool validVote){... */\n      tag_27\n        /* \"#utility.yul\":3146:3238   */\n      jump\n        /* \"contracts/LunchVenue.sol\":407:448  mapping(address => Friend) public friends */\n    tag_6:\n      tag_39\n      tag_40\n      calldatasize\n      0x04\n      tag_41\n      jump\t// in\n    tag_40:\n      tag_42\n      jump\t// in\n    tag_39:\n      mload(0x40)\n      tag_27\n      swap3\n      swap2\n      swap1\n      tag_44\n      jump\t// in\n        /* \"contracts/LunchVenue.sol\":2281:2745  function addFriend(address friendAddress, string memory name) public restricted contractActive onlyDuring(Phase.Setup) returns (uint){... */\n    tag_7:\n      tag_29\n      tag_46\n      calldatasize\n      0x04\n      tag_47\n      jump\t// in\n    tag_46:\n      tag_48\n      jump\t// in\n        /* \"contracts/LunchVenue.sol\":2938:3446  function startVoting(uint blocksUntilEnd) public restricted contractActive onlyDuring(Phase.Setup) {... */\n    tag_8:\n      tag_50\n      tag_51\n      calldatasize\n      0x04\n      tag_35\n      jump\t// in\n    tag_51:\n      tag_52\n      jump\t// in\n    tag_50:\n      stop\n        /* \"contracts/LunchVenue.sol\":490:516  uint public numFriends = 0 */\n    tag_9:\n      tag_29\n      sload(0x03)\n      dup2\n      jump\n        /* \"contracts/LunchVenue.sol\":552:574  address public manager */\n    tag_10:\n      sload(0x05)\n      tag_56\n      swap1\n      sub(shl(0xa0, 0x01), 0x01)\n      and\n      dup2\n      jump\n    tag_56:\n      mload(0x40)\n      sub(shl(0xa0, 0x01), 0x01)\n        /* \"#utility.yul\":2728:2760   */\n      swap1\n      swap2\n      and\n        /* \"#utility.yul\":2710:2761   */\n      dup2\n      mstore\n        /* \"#utility.yul\":2698:2700   */\n      0x20\n        /* \"#utility.yul\":2683:2701   */\n      add\n        /* \"contracts/LunchVenue.sol\":552:574  address public manager */\n      tag_27\n        /* \"#utility.yul\":2665:2767   */\n      jump\n        /* \"contracts/LunchVenue.sol\":621:656  mapping (uint => Vote) public votes */\n    tag_11:\n      tag_60\n      tag_61\n      calldatasize\n      0x04\n      tag_35\n      jump\t// in\n    tag_61:\n      mstore(0x20, 0x07)\n      0x00\n      swap1\n      dup2\n      mstore\n      0x40\n      swap1\n      keccak256\n      dup1\n      sload\n      0x01\n      swap1\n      swap2\n      add\n      sload\n      sub(shl(0xa0, 0x01), 0x01)\n      swap1\n      swap2\n      and\n      swap1\n      dup3\n      jump\n    tag_60:\n      0x40\n      dup1\n      mload\n      sub(shl(0xa0, 0x01), 0x01)\n        /* \"#utility.yul\":2964:2996   */\n      swap1\n      swap4\n      and\n        /* \"#utility.yul\":2946:2997   */\n      dup4\n      mstore\n        /* \"#utility.yul\":3028:3030   */\n      0x20\n        /* \"#utility.yul\":3013:3031   */\n      dup4\n      add\n        /* \"#utility.yul\":3006:3040   */\n      swap2\n      swap1\n      swap2\n      mstore\n        /* \"#utility.yul\":2919:2937   */\n      add\n        /* \"contracts/LunchVenue.sol\":621:656  mapping (uint => Vote) public votes */\n      tag_27\n        /* \"#utility.yul\":2901:3046   */\n      jump\n        /* \"contracts/LunchVenue.sol\":1526:2030  function addRestaurant(string memory name) public restricted contractActive onlyDuring(Phase.Setup) returns (uint){... */\n    tag_12:\n      tag_29\n      tag_66\n      calldatasize\n      0x04\n      tag_67\n      jump\t// in\n    tag_66:\n      tag_68\n      jump\t// in\n        /* \"contracts/LunchVenue.sol\":707:734  bool public voteOpen = true */\n    tag_13:\n      sload(0x09)\n      tag_33\n      swap1\n      0xff\n      and\n      dup2\n      jump\n        /* \"contracts/LunchVenue.sol\":522:546  uint public numVotes = 0 */\n    tag_14:\n      tag_29\n      sload(0x04)\n      dup2\n      jump\n        /* \"contracts/LunchVenue.sol\":358:401  mapping (uint => string) public restaurants */\n    tag_15:\n      tag_76\n      tag_77\n      calldatasize\n      0x04\n      tag_35\n      jump\t// in\n    tag_77:\n      tag_78\n      jump\t// in\n    tag_76:\n      mload(0x40)\n      tag_27\n      swap2\n      swap1\n      tag_80\n      jump\t// in\n        /* \"contracts/LunchVenue.sol\":6633:6757  function getVoteCount(uint restaurantId) public view returns (uint voteCount) {... */\n    tag_16:\n      tag_29\n      tag_82\n      calldatasize\n      0x04\n      tag_35\n      jump\t// in\n    tag_82:\n        /* \"contracts/LunchVenue.sol\":6695:6709  uint voteCount */\n      0x00\n        /* \"contracts/LunchVenue.sol\":6728:6750  _results[restaurantId] */\n      swap1\n      dup2\n      mstore\n        /* \"contracts/LunchVenue.sol\":6728:6736  _results */\n      0x08\n        /* \"contracts/LunchVenue.sol\":6728:6750  _results[restaurantId] */\n      0x20\n      mstore\n      0x40\n      swap1\n      keccak256\n      sload\n      swap1\n        /* \"contracts/LunchVenue.sol\":6633:6757  function getVoteCount(uint restaurantId) public view returns (uint voteCount) {... */\n      jump\n        /* \"contracts/LunchVenue.sol\":454:484  uint public numRestaurants = 0 */\n    tag_17:\n      tag_29\n      sload(0x02)\n      dup2\n      jump\n        /* \"contracts/LunchVenue.sol\":996:1026  bool public isShutdown = false */\n    tag_18:\n      sload(0x0b)\n      tag_33\n      swap1\n      0xff\n      and\n      dup2\n      jump\n        /* \"contracts/LunchVenue.sol\":580:614  string public votedRestaurant = \"\" */\n    tag_19:\n      tag_76\n      tag_92\n      jump\t// in\n        /* \"contracts/LunchVenue.sol\":4853:5257  function endVoting() public restricted contractActive {... */\n    tag_20:\n      tag_50\n      tag_95\n      jump\t// in\n        /* \"contracts/LunchVenue.sol\":6258:6438  function shutdown() public restricted {... */\n    tag_21:\n      tag_50\n      tag_97\n      jump\t// in\n        /* \"contracts/LunchVenue.sol\":3756:4689  function doVote(uint restaurant) public contractActive onlyDuring(Phase.Voting) votingOpen returns (bool validVote){... */\n    tag_36:\n        /* \"contracts/LunchVenue.sol\":7458:7468  isShutdown */\n      sload(0x0b)\n        /* \"contracts/LunchVenue.sol\":3856:3870  bool validVote */\n      0x00\n      swap1\n        /* \"contracts/LunchVenue.sol\":7458:7468  isShutdown */\n      0xff\n      and\n        /* \"contracts/LunchVenue.sol\":7457:7468  !isShutdown */\n      iszero\n        /* \"contracts/LunchVenue.sol\":7449:7495  require(!isShutdown, \"Contract is shut down.\") */\n      tag_99\n      jumpi\n      mload(0x40)\n      shl(0xe5, 0x461bcd)\n      dup2\n      mstore\n      0x04\n      add\n      tag_100\n      swap1\n      tag_101\n      jump\t// in\n    tag_100:\n      mload(0x40)\n      dup1\n      swap2\n      sub\n      swap1\n      revert\n    tag_99:\n        /* \"contracts/LunchVenue.sol\":3822:3834  Phase.Voting */\n      0x01\n      dup1\n        /* \"contracts/LunchVenue.sol\":7248:7260  currentPhase */\n      sload(0x09)\n      0x0100\n      swap1\n      div\n      0xff\n      and\n        /* \"contracts/LunchVenue.sol\":7248:7269  currentPhase == phase */\n      0x02\n      dup2\n      gt\n      iszero\n      tag_107\n      jumpi\n      tag_107\n      tag_105\n      jump\t// in\n    tag_107:\n      eq\n        /* \"contracts/LunchVenue.sol\":7240:7310  require(currentPhase == phase, \"Action not allowed in current phase.\") */\n      tag_108\n      jumpi\n      mload(0x40)\n      shl(0xe5, 0x461bcd)\n      dup2\n      mstore\n      0x04\n      add\n      tag_100\n      swap1\n      tag_110\n      jump\t// in\n    tag_108:\n        /* \"contracts/LunchVenue.sol\":7055:7063  voteOpen */\n      and(0xff, sload(0x09))\n        /* \"contracts/LunchVenue.sol\":7055:7071  voteOpen == true */\n      iszero\n      iszero\n        /* \"contracts/LunchVenue.sol\":7055:7063  voteOpen */\n      0x01\n        /* \"contracts/LunchVenue.sol\":7055:7071  voteOpen == true */\n      eq\n        /* \"contracts/LunchVenue.sol\":7047:7111  require(voteOpen == true, \"Can vote only while voting is open.\") */\n      tag_112\n      jumpi\n      mload(0x40)\n      shl(0xe5, 0x461bcd)\n      dup2\n      mstore\n        /* \"#utility.yul\":8049:8051   */\n      0x20\n        /* \"contracts/LunchVenue.sol\":7047:7111  require(voteOpen == true, \"Can vote only while voting is open.\") */\n      0x04\n      dup3\n      add\n        /* \"#utility.yul\":8031:8052   */\n      mstore\n        /* \"#utility.yul\":8088:8090   */\n      0x23\n        /* \"#utility.yul\":8068:8086   */\n      0x24\n      dup3\n      add\n        /* \"#utility.yul\":8061:8091   */\n      mstore\n        /* \"#utility.yul\":8127:8161   */\n      0x43616e20766f7465206f6e6c79207768696c6520766f74696e67206973206f70\n        /* \"#utility.yul\":8107:8125   */\n      0x44\n      dup3\n      add\n        /* \"#utility.yul\":8100:8162   */\n      mstore\n      shl(0xe9, 0x32b717)\n        /* \"#utility.yul\":8178:8196   */\n      0x64\n      dup3\n      add\n        /* \"#utility.yul\":8171:8204   */\n      mstore\n        /* \"#utility.yul\":8221:8240   */\n      0x84\n      add\n        /* \"contracts/LunchVenue.sol\":7047:7111  require(voteOpen == true, \"Can vote only while voting is open.\") */\n      tag_100\n        /* \"#utility.yul\":8021:8246   */\n      jump\n        /* \"contracts/LunchVenue.sol\":7047:7111  require(voteOpen == true, \"Can vote only while voting is open.\") */\n    tag_112:\n        /* \"contracts/LunchVenue.sol\":4004:4012  endBlock */\n      sload(0x0a)\n        /* \"contracts/LunchVenue.sol\":3988:4000  block.number */\n      number\n        /* \"contracts/LunchVenue.sol\":3988:4012  block.number <= endBlock */\n      gt\n      iszero\n        /* \"contracts/LunchVenue.sol\":3980:4037  require(block.number <= endBlock, \"Voting period ended.\") */\n      tag_116\n      jumpi\n      mload(0x40)\n      shl(0xe5, 0x461bcd)\n      dup2\n      mstore\n        /* \"#utility.yul\":5375:5377   */\n      0x20\n        /* \"contracts/LunchVenue.sol\":3980:4037  require(block.number <= endBlock, \"Voting period ended.\") */\n      0x04\n      dup3\n      add\n        /* \"#utility.yul\":5357:5378   */\n      mstore\n        /* \"#utility.yul\":5414:5416   */\n      0x14\n        /* \"#utility.yul\":5394:5412   */\n      0x24\n      dup3\n      add\n        /* \"#utility.yul\":5387:5417   */\n      mstore\n      shl(0x61, 0x2b37ba34b733903832b934b7b21032b73232b217)\n        /* \"#utility.yul\":5433:5451   */\n      0x44\n      dup3\n      add\n        /* \"#utility.yul\":5426:5476   */\n      mstore\n        /* \"#utility.yul\":5493:5511   */\n      0x64\n      add\n        /* \"contracts/LunchVenue.sol\":3980:4037  require(block.number <= endBlock, \"Voting period ended.\") */\n      tag_100\n        /* \"#utility.yul\":5347:5517   */\n      jump\n        /* \"contracts/LunchVenue.sol\":3980:4037  require(block.number <= endBlock, \"Voting period ended.\") */\n    tag_116:\n        /* \"contracts/LunchVenue.sol\":4069:4079  msg.sender */\n      caller\n        /* \"contracts/LunchVenue.sol\":4061:4080  friends[msg.sender] */\n      0x00\n      swap1\n      dup2\n      mstore\n        /* \"contracts/LunchVenue.sol\":4061:4068  friends */\n      0x01\n        /* \"contracts/LunchVenue.sol\":4061:4080  friends[msg.sender] */\n      0x20\n      mstore\n      0x40\n      swap1\n      keccak256\n        /* \"contracts/LunchVenue.sol\":4055:4093  bytes(friends[msg.sender].name).length */\n      dup1\n      sload\n      tag_119\n      swap1\n      tag_120\n      jump\t// in\n    tag_119:\n        /* \"contracts/LunchVenue.sol\":4055:4098  bytes(friends[msg.sender].name).length != 0 */\n      iszero\n      iszero\n      swap1\n      pop\n        /* \"contracts/LunchVenue.sol\":4047:4135  require(bytes(friends[msg.sender].name).length != 0, \"You are not a registered friend.\") */\n      tag_121\n      jumpi\n      mload(0x40)\n      shl(0xe5, 0x461bcd)\n      dup2\n      mstore\n        /* \"#utility.yul\":8802:8804   */\n      0x20\n        /* \"contracts/LunchVenue.sol\":4047:4135  require(bytes(friends[msg.sender].name).length != 0, \"You are not a registered friend.\") */\n      0x04\n      dup3\n      add\n        /* \"#utility.yul\":8784:8805   */\n      dup2\n      swap1\n      mstore\n        /* \"#utility.yul\":8821:8839   */\n      0x24\n      dup3\n      add\n        /* \"#utility.yul\":8814:8844   */\n      mstore\n        /* \"#utility.yul\":8880:8914   */\n      0x596f7520617265206e6f742061207265676973746572656420667269656e642e\n        /* \"#utility.yul\":8860:8878   */\n      0x44\n      dup3\n      add\n        /* \"#utility.yul\":8853:8915   */\n      mstore\n        /* \"#utility.yul\":8932:8950   */\n      0x64\n      add\n        /* \"contracts/LunchVenue.sol\":4047:4135  require(bytes(friends[msg.sender].name).length != 0, \"You are not a registered friend.\") */\n      tag_100\n        /* \"#utility.yul\":8774:8956   */\n      jump\n        /* \"contracts/LunchVenue.sol\":4047:4135  require(bytes(friends[msg.sender].name).length != 0, \"You are not a registered friend.\") */\n    tag_121:\n        /* \"contracts/LunchVenue.sol\":4162:4172  msg.sender */\n      caller\n        /* \"contracts/LunchVenue.sol\":4154:4173  friends[msg.sender] */\n      0x00\n      swap1\n      dup2\n      mstore\n        /* \"contracts/LunchVenue.sol\":4154:4161  friends */\n      0x01\n        /* \"contracts/LunchVenue.sol\":4154:4173  friends[msg.sender] */\n      0x20\n      dup2\n      swap1\n      mstore\n      0x40\n      swap1\n      swap2\n      keccak256\n        /* \"contracts/LunchVenue.sol\":4154:4179  friends[msg.sender].voted */\n      add\n      sload\n      0xff\n      and\n        /* \"contracts/LunchVenue.sol\":4153:4179  !friends[msg.sender].voted */\n      iszero\n        /* \"contracts/LunchVenue.sol\":4145:4207  require(!friends[msg.sender].voted, \"You have already voted.\") */\n      tag_124\n      jumpi\n      mload(0x40)\n      shl(0xe5, 0x461bcd)\n      dup2\n      mstore\n        /* \"#utility.yul\":4672:4674   */\n      0x20\n        /* \"contracts/LunchVenue.sol\":4145:4207  require(!friends[msg.sender].voted, \"You have already voted.\") */\n      0x04\n      dup3\n      add\n        /* \"#utility.yul\":4654:4675   */\n      mstore\n        /* \"#utility.yul\":4711:4713   */\n      0x17\n        /* \"#utility.yul\":4691:4709   */\n      0x24\n      dup3\n      add\n        /* \"#utility.yul\":4684:4714   */\n      mstore\n        /* \"#utility.yul\":4750:4775   */\n      0x596f75206861766520616c726561647920766f7465642e000000000000000000\n        /* \"#utility.yul\":4730:4748   */\n      0x44\n      dup3\n      add\n        /* \"#utility.yul\":4723:4776   */\n      mstore\n        /* \"#utility.yul\":4793:4811   */\n      0x64\n      add\n        /* \"contracts/LunchVenue.sol\":4145:4207  require(!friends[msg.sender].voted, \"You have already voted.\") */\n      tag_100\n        /* \"#utility.yul\":4644:4817   */\n      jump\n        /* \"contracts/LunchVenue.sol\":4145:4207  require(!friends[msg.sender].voted, \"You have already voted.\") */\n    tag_124:\n        /* \"contracts/LunchVenue.sol\":4231:4242  restaurants */\n      0x00\n        /* \"contracts/LunchVenue.sol\":4231:4254  restaurants[restaurant] */\n      dup4\n      dup2\n      mstore\n      0x20\n      dup2\n      swap1\n      mstore\n      0x40\n      swap1\n      keccak256\n        /* \"contracts/LunchVenue.sol\":4225:4262  bytes(restaurants[restaurant]).length */\n      dup1\n      sload\n      tag_127\n      swap1\n      tag_120\n      jump\t// in\n    tag_127:\n        /* \"contracts/LunchVenue.sol\":4225:4267  bytes(restaurants[restaurant]).length != 0 */\n      iszero\n      iszero\n      swap1\n      pop\n        /* \"contracts/LunchVenue.sol\":4217:4298  require(bytes(restaurants[restaurant]).length != 0, \"Restaurant does not exist.\") */\n      tag_128\n      jumpi\n      mload(0x40)\n      shl(0xe5, 0x461bcd)\n      dup2\n      mstore\n        /* \"#utility.yul\":4317:4319   */\n      0x20\n        /* \"contracts/LunchVenue.sol\":4217:4298  require(bytes(restaurants[restaurant]).length != 0, \"Restaurant does not exist.\") */\n      0x04\n      dup3\n      add\n        /* \"#utility.yul\":4299:4320   */\n      mstore\n        /* \"#utility.yul\":4356:4358   */\n      0x1a\n        /* \"#utility.yul\":4336:4354   */\n      0x24\n      dup3\n      add\n        /* \"#utility.yul\":4329:4359   */\n      mstore\n        /* \"#utility.yul\":4395:4423   */\n      0x52657374617572616e7420646f6573206e6f742065786973742e000000000000\n        /* \"#utility.yul\":4375:4393   */\n      0x44\n      dup3\n      add\n        /* \"#utility.yul\":4368:4424   */\n      mstore\n        /* \"#utility.yul\":4441:4459   */\n      0x64\n      add\n        /* \"contracts/LunchVenue.sol\":4217:4298  require(bytes(restaurants[restaurant]).length != 0, \"Restaurant does not exist.\") */\n      tag_100\n        /* \"#utility.yul\":4289:4465   */\n      jump\n        /* \"contracts/LunchVenue.sol\":4217:4298  require(bytes(restaurants[restaurant]).length != 0, \"Restaurant does not exist.\") */\n    tag_128:\n        /* \"contracts/LunchVenue.sol\":4398:4408  msg.sender */\n      caller\n        /* \"contracts/LunchVenue.sol\":4390:4409  friends[msg.sender] */\n      0x00\n      dup2\n      dup2\n      mstore\n        /* \"contracts/LunchVenue.sol\":4376:4380  true */\n      0x01\n        /* \"contracts/LunchVenue.sol\":4390:4409  friends[msg.sender] */\n      0x20\n      dup2\n      dup2\n      mstore\n      0x40\n      dup1\n      dup5\n      keccak256\n        /* \"contracts/LunchVenue.sol\":4390:4415  friends[msg.sender].voted */\n      dup4\n      add\n        /* \"contracts/LunchVenue.sol\":4390:4422  friends[msg.sender].voted = true */\n      dup1\n      sload\n      not(0xff)\n      and\n      dup5\n      or\n      swap1\n      sstore\n      dup1\n      mload\n      dup1\n      dup3\n      add\n      swap1\n      swap2\n      mstore\n        /* \"contracts/LunchVenue.sol\":4455:4482  v.voterAddress = msg.sender */\n      swap4\n      dup5\n      mstore\n      dup4\n      add\n        /* \"contracts/LunchVenue.sol\":4492:4517  v.restaurant = restaurant */\n      dup7\n      swap1\n      mstore\n        /* \"contracts/LunchVenue.sol\":4527:4535  numVotes */\n      0x04\n        /* \"contracts/LunchVenue.sol\":4527:4537  numVotes++ */\n      dup1\n      sload\n        /* \"contracts/LunchVenue.sol\":4376:4380  true */\n      swap2\n      swap6\n      pop\n        /* \"contracts/LunchVenue.sol\":4527:4537  numVotes++ */\n      swap1\n      swap2\n      tag_133\n      dup4\n      tag_134\n      jump\t// in\n    tag_133:\n      swap1\n      swap2\n      sstore\n      pop\n      pop\n        /* \"contracts/LunchVenue.sol\":4553:4561  numVotes */\n      sload(0x04)\n        /* \"contracts/LunchVenue.sol\":4547:4562  votes[numVotes] */\n      0x00\n      swap1\n      dup2\n      mstore\n        /* \"contracts/LunchVenue.sol\":4547:4552  votes */\n      0x07\n        /* \"contracts/LunchVenue.sol\":4547:4562  votes[numVotes] */\n      0x20\n      swap1\n      dup2\n      mstore\n      0x40\n      swap1\n      swap2\n      keccak256\n        /* \"contracts/LunchVenue.sol\":4547:4566  votes[numVotes] = v */\n      dup3\n      mload\n      dup2\n      sload\n      not(sub(shl(0xa0, 0x01), 0x01))\n      and\n      sub(shl(0xa0, 0x01), 0x01)\n      swap1\n      swap2\n      and\n      or\n      dup2\n      sstore\n      swap1\n      dup3\n      add\n      mload\n      0x01\n      swap1\n      swap2\n      add\n      sstore\n        /* \"contracts/LunchVenue.sol\":4601:4611  numFriends */\n      sload(0x03)\n        /* \"contracts/LunchVenue.sol\":4601:4613  numFriends/2 */\n      tag_135\n      swap1\n        /* \"contracts/LunchVenue.sol\":4612:4613  2 */\n      0x02\n      swap1\n        /* \"contracts/LunchVenue.sol\":4601:4613  numFriends/2 */\n      tag_136\n      jump\t// in\n    tag_135:\n        /* \"contracts/LunchVenue.sol\":4601:4617  numFriends/2 + 1 */\n      tag_137\n      swap1\n        /* \"contracts/LunchVenue.sol\":4616:4617  1 */\n      0x01\n        /* \"contracts/LunchVenue.sol\":4601:4617  numFriends/2 + 1 */\n      tag_138\n      jump\t// in\n    tag_137:\n        /* \"contracts/LunchVenue.sol\":4589:4597  numVotes */\n      sload(0x04)\n        /* \"contracts/LunchVenue.sol\":4589:4617  numVotes >= numFriends/2 + 1 */\n      lt\n        /* \"contracts/LunchVenue.sol\":4585:4657  if (numVotes >= numFriends/2 + 1) {... */\n      tag_140\n      jumpi\n        /* \"contracts/LunchVenue.sol\":4633:4646  finalResult() */\n      tag_140\n        /* \"contracts/LunchVenue.sol\":4633:4644  finalResult */\n      tag_141\n        /* \"contracts/LunchVenue.sol\":4633:4646  finalResult() */\n      jump\t// in\n    tag_140:\n        /* \"contracts/LunchVenue.sol\":4666:4682  return validVote */\n      pop\n        /* \"contracts/LunchVenue.sol\":7121:7122  _ */\n    tag_115:\n        /* \"contracts/LunchVenue.sol\":7505:7506  _ */\n      pop\n        /* \"contracts/LunchVenue.sol\":3756:4689  function doVote(uint restaurant) public contractActive onlyDuring(Phase.Voting) votingOpen returns (bool validVote){... */\n      swap2\n      swap1\n      pop\n      jump\t// out\n        /* \"contracts/LunchVenue.sol\":407:448  mapping(address => Friend) public friends */\n    tag_42:\n      mstore(0x20, 0x01)\n      0x00\n      swap1\n      dup2\n      mstore\n      0x40\n      swap1\n      keccak256\n      dup1\n      sload\n      dup2\n      swap1\n      tag_142\n      swap1\n      tag_120\n      jump\t// in\n    tag_142:\n      dup1\n      0x1f\n      add\n      0x20\n      dup1\n      swap2\n      div\n      mul\n      0x20\n      add\n      mload(0x40)\n      swap1\n      dup2\n      add\n      0x40\n      mstore\n      dup1\n      swap3\n      swap2\n      swap1\n      dup2\n      dup2\n      mstore\n      0x20\n      add\n      dup3\n      dup1\n      sload\n      tag_143\n      swap1\n      tag_120\n      jump\t// in\n    tag_143:\n      dup1\n      iszero\n      tag_144\n      jumpi\n      dup1\n      0x1f\n      lt\n      tag_145\n      jumpi\n      0x0100\n      dup1\n      dup4\n      sload\n      div\n      mul\n      dup4\n      mstore\n      swap2\n      0x20\n      add\n      swap2\n      jump(tag_144)\n    tag_145:\n      dup3\n      add\n      swap2\n      swap1\n      0x00\n      mstore\n      keccak256(0x00, 0x20)\n      swap1\n    tag_146:\n      dup2\n      sload\n      dup2\n      mstore\n      swap1\n      0x01\n      add\n      swap1\n      0x20\n      add\n      dup1\n      dup4\n      gt\n      tag_146\n      jumpi\n      dup3\n      swap1\n      sub\n      0x1f\n      and\n      dup3\n      add\n      swap2\n    tag_144:\n      pop\n      pop\n      pop\n      0x01\n      swap1\n      swap4\n      add\n      sload\n      swap2\n      swap3\n      pop\n      pop\n      0xff\n      and\n      dup3\n      jump\t// out\n        /* \"contracts/LunchVenue.sol\":2281:2745  function addFriend(address friendAddress, string memory name) public restricted contractActive onlyDuring(Phase.Setup) returns (uint){... */\n    tag_48:\n        /* \"contracts/LunchVenue.sol\":6878:6885  manager */\n      sload(0x05)\n        /* \"contracts/LunchVenue.sol\":2409:2413  uint */\n      0x00\n      swap1\n      sub(shl(0xa0, 0x01), 0x01)\n        /* \"contracts/LunchVenue.sol\":6878:6885  manager */\n      and\n        /* \"contracts/LunchVenue.sol\":6864:6874  msg.sender */\n      caller\n        /* \"contracts/LunchVenue.sol\":6864:6885  msg.sender == manager */\n      eq\n        /* \"contracts/LunchVenue.sol\":6855:6925  require (msg.sender == manager, \"Can only be executed by the manager\") */\n      tag_148\n      jumpi\n      mload(0x40)\n      shl(0xe5, 0x461bcd)\n      dup2\n      mstore\n      0x04\n      add\n      tag_100\n      swap1\n      tag_150\n      jump\t// in\n    tag_148:\n        /* \"contracts/LunchVenue.sol\":7458:7468  isShutdown */\n      and(0xff, sload(0x0b))\n        /* \"contracts/LunchVenue.sol\":7457:7468  !isShutdown */\n      iszero\n        /* \"contracts/LunchVenue.sol\":7449:7495  require(!isShutdown, \"Contract is shut down.\") */\n      tag_152\n      jumpi\n      mload(0x40)\n      shl(0xe5, 0x461bcd)\n      dup2\n      mstore\n      0x04\n      add\n      tag_100\n      swap1\n      tag_101\n      jump\t// in\n    tag_152:\n        /* \"contracts/LunchVenue.sol\":2387:2398  Phase.Setup */\n      0x00\n      dup1\n        /* \"contracts/LunchVenue.sol\":7248:7260  currentPhase */\n      sload(0x09)\n      0x0100\n      swap1\n      div\n      0xff\n      and\n        /* \"contracts/LunchVenue.sol\":7248:7269  currentPhase == phase */\n      0x02\n      dup2\n      gt\n      iszero\n      tag_158\n      jumpi\n      tag_158\n      tag_105\n      jump\t// in\n    tag_158:\n      eq\n        /* \"contracts/LunchVenue.sol\":7240:7310  require(currentPhase == phase, \"Action not allowed in current phase.\") */\n      tag_159\n      jumpi\n      mload(0x40)\n      shl(0xe5, 0x461bcd)\n      dup2\n      mstore\n      0x04\n      add\n      tag_100\n      swap1\n      tag_110\n      jump\t// in\n    tag_159:\n      sub(shl(0xa0, 0x01), 0x01)\n        /* \"contracts/LunchVenue.sol\":2504:2526  friends[friendAddress] */\n      dup5\n      and\n      0x00\n      swap1\n      dup2\n      mstore\n        /* \"contracts/LunchVenue.sol\":2504:2511  friends */\n      0x01\n        /* \"contracts/LunchVenue.sol\":2504:2526  friends[friendAddress] */\n      0x20\n      mstore\n      0x40\n      swap1\n      keccak256\n        /* \"contracts/LunchVenue.sol\":2498:2539  bytes(friends[friendAddress].name).length */\n      dup1\n      sload\n      tag_162\n      swap1\n      tag_120\n      jump\t// in\n    tag_162:\n        /* \"contracts/LunchVenue.sol\":2498:2544  bytes(friends[friendAddress].name).length == 0 */\n      iszero\n      swap1\n      pop\n        /* \"contracts/LunchVenue.sol\":2490:2571  require(bytes(friends[friendAddress].name).length == 0, \"Friend already exists.\") */\n      tag_163\n      jumpi\n      mload(0x40)\n      shl(0xe5, 0x461bcd)\n      dup2\n      mstore\n        /* \"#utility.yul\":5024:5026   */\n      0x20\n        /* \"contracts/LunchVenue.sol\":2490:2571  require(bytes(friends[friendAddress].name).length == 0, \"Friend already exists.\") */\n      0x04\n      dup3\n      add\n        /* \"#utility.yul\":5006:5027   */\n      mstore\n        /* \"#utility.yul\":5063:5065   */\n      0x16\n        /* \"#utility.yul\":5043:5061   */\n      0x24\n      dup3\n      add\n        /* \"#utility.yul\":5036:5066   */\n      mstore\n      shl(0x51, 0x233934b2b7321030b63932b0b23c9032bc34b9ba3997)\n        /* \"#utility.yul\":5082:5100   */\n      0x44\n      dup3\n      add\n        /* \"#utility.yul\":5075:5127   */\n      mstore\n        /* \"#utility.yul\":5144:5162   */\n      0x64\n      add\n        /* \"contracts/LunchVenue.sol\":2490:2571  require(bytes(friends[friendAddress].name).length == 0, \"Friend already exists.\") */\n      tag_100\n        /* \"#utility.yul\":4996:5168   */\n      jump\n        /* \"contracts/LunchVenue.sol\":2490:2571  require(bytes(friends[friendAddress].name).length == 0, \"Friend already exists.\") */\n    tag_163:\n      0x40\n      dup1\n      mload\n      dup1\n      dup3\n      add\n      dup3\n      mstore\n      0x00\n      0x20\n      dup1\n      dup4\n      add\n      dup3\n      swap1\n      mstore\n        /* \"contracts/LunchVenue.sol\":2615:2628  f.name = name */\n      dup7\n      dup4\n      mstore\n      sub(shl(0xa0, 0x01), 0x01)\n        /* \"contracts/LunchVenue.sol\":2663:2685  friends[friendAddress] */\n      dup9\n      and\n      dup3\n      mstore\n        /* \"contracts/LunchVenue.sol\":2638:2653  f.voted = false */\n      0x01\n        /* \"contracts/LunchVenue.sol\":2663:2685  friends[friendAddress] */\n      dup2\n      mstore\n      swap3\n      swap1\n      keccak256\n        /* \"contracts/LunchVenue.sol\":2663:2689  friends[friendAddress] = f */\n      dup2\n      mload\n      dup1\n      mload\n      swap3\n      swap4\n      dup5\n      swap4\n      tag_168\n      swap3\n        /* \"contracts/LunchVenue.sol\":2663:2685  friends[friendAddress] */\n      dup5\n      swap3\n        /* \"contracts/LunchVenue.sol\":2663:2689  friends[friendAddress] = f */\n      add\n      swap1\n      tag_169\n      jump\t// in\n    tag_168:\n      pop\n      0x20\n      swap2\n      swap1\n      swap2\n      add\n      mload\n      0x01\n      swap1\n      swap2\n      add\n      dup1\n      sload\n      not(0xff)\n      and\n      swap2\n      iszero\n      iszero\n      swap2\n      swap1\n      swap2\n      or\n      swap1\n      sstore\n        /* \"contracts/LunchVenue.sol\":2699:2709  numFriends */\n      0x03\n        /* \"contracts/LunchVenue.sol\":2699:2711  numFriends++ */\n      dup1\n      sload\n      swap1\n      0x00\n      tag_170\n      dup4\n      tag_134\n      jump\t// in\n    tag_170:\n      swap1\n      swap2\n      sstore\n      pop\n      pop\n        /* \"contracts/LunchVenue.sol\":2728:2738  numFriends */\n      sload(0x03)\n      swap6\n        /* \"contracts/LunchVenue.sol\":2281:2745  function addFriend(address friendAddress, string memory name) public restricted contractActive onlyDuring(Phase.Setup) returns (uint){... */\n      swap5\n      pop\n      pop\n      pop\n      pop\n      pop\n      jump\t// out\n        /* \"contracts/LunchVenue.sol\":2938:3446  function startVoting(uint blocksUntilEnd) public restricted contractActive onlyDuring(Phase.Setup) {... */\n    tag_52:\n        /* \"contracts/LunchVenue.sol\":6878:6885  manager */\n      and(sub(shl(0xa0, 0x01), 0x01), sload(0x05))\n        /* \"contracts/LunchVenue.sol\":6864:6874  msg.sender */\n      caller\n        /* \"contracts/LunchVenue.sol\":6864:6885  msg.sender == manager */\n      eq\n        /* \"contracts/LunchVenue.sol\":6855:6925  require (msg.sender == manager, \"Can only be executed by the manager\") */\n      tag_172\n      jumpi\n      mload(0x40)\n      shl(0xe5, 0x461bcd)\n      dup2\n      mstore\n      0x04\n      add\n      tag_100\n      swap1\n      tag_150\n      jump\t// in\n    tag_172:\n        /* \"contracts/LunchVenue.sol\":7458:7468  isShutdown */\n      and(0xff, sload(0x0b))\n        /* \"contracts/LunchVenue.sol\":7457:7468  !isShutdown */\n      iszero\n        /* \"contracts/LunchVenue.sol\":7449:7495  require(!isShutdown, \"Contract is shut down.\") */\n      tag_175\n      jumpi\n      mload(0x40)\n      shl(0xe5, 0x461bcd)\n      dup2\n      mstore\n      0x04\n      add\n      tag_100\n      swap1\n      tag_101\n      jump\t// in\n    tag_175:\n        /* \"contracts/LunchVenue.sol\":3024:3035  Phase.Setup */\n      0x00\n      dup1\n        /* \"contracts/LunchVenue.sol\":7248:7260  currentPhase */\n      sload(0x09)\n      0x0100\n      swap1\n      div\n      0xff\n      and\n        /* \"contracts/LunchVenue.sol\":7248:7269  currentPhase == phase */\n      0x02\n      dup2\n      gt\n      iszero\n      tag_181\n      jumpi\n      tag_181\n      tag_105\n      jump\t// in\n    tag_181:\n      eq\n        /* \"contracts/LunchVenue.sol\":7240:7310  require(currentPhase == phase, \"Action not allowed in current phase.\") */\n      tag_182\n      jumpi\n      mload(0x40)\n      shl(0xe5, 0x461bcd)\n      dup2\n      mstore\n      0x04\n      add\n      tag_100\n      swap1\n      tag_110\n      jump\t// in\n    tag_182:\n        /* \"contracts/LunchVenue.sol\":3140:3141  1 */\n      0x01\n        /* \"contracts/LunchVenue.sol\":3123:3137  numRestaurants */\n      sload(0x02)\n        /* \"contracts/LunchVenue.sol\":3123:3141  numRestaurants > 1 */\n      gt\n        /* \"contracts/LunchVenue.sol\":3115:3184  require(numRestaurants > 1, \"At least one restaurant must be added.\") */\n      tag_185\n      jumpi\n      mload(0x40)\n      shl(0xe5, 0x461bcd)\n      dup2\n      mstore\n        /* \"#utility.yul\":5724:5726   */\n      0x20\n        /* \"contracts/LunchVenue.sol\":3115:3184  require(numRestaurants > 1, \"At least one restaurant must be added.\") */\n      0x04\n      dup3\n      add\n        /* \"#utility.yul\":5706:5727   */\n      mstore\n        /* \"#utility.yul\":5763:5765   */\n      0x26\n        /* \"#utility.yul\":5743:5761   */\n      0x24\n      dup3\n      add\n        /* \"#utility.yul\":5736:5766   */\n      mstore\n        /* \"#utility.yul\":5802:5836   */\n      0x4174206c65617374206f6e652072657374617572616e74206d75737420626520\n        /* \"#utility.yul\":5782:5800   */\n      0x44\n      dup3\n      add\n        /* \"#utility.yul\":5775:5837   */\n      mstore\n      shl(0xd1, 0x30b23232b217)\n        /* \"#utility.yul\":5853:5871   */\n      0x64\n      dup3\n      add\n        /* \"#utility.yul\":5846:5882   */\n      mstore\n        /* \"#utility.yul\":5899:5918   */\n      0x84\n      add\n        /* \"contracts/LunchVenue.sol\":3115:3184  require(numRestaurants > 1, \"At least one restaurant must be added.\") */\n      tag_100\n        /* \"#utility.yul\":5696:5924   */\n      jump\n        /* \"contracts/LunchVenue.sol\":3115:3184  require(numRestaurants > 1, \"At least one restaurant must be added.\") */\n    tag_185:\n        /* \"contracts/LunchVenue.sol\":3215:3216  1 */\n      0x01\n        /* \"contracts/LunchVenue.sol\":3202:3212  numFriends */\n      sload(0x03)\n        /* \"contracts/LunchVenue.sol\":3202:3216  numFriends > 1 */\n      gt\n        /* \"contracts/LunchVenue.sol\":3194:3255  require(numFriends > 1, \"At least one friend must be added.\") */\n      tag_188\n      jumpi\n      mload(0x40)\n      shl(0xe5, 0x461bcd)\n      dup2\n      mstore\n        /* \"#utility.yul\":7646:7648   */\n      0x20\n        /* \"contracts/LunchVenue.sol\":3194:3255  require(numFriends > 1, \"At least one friend must be added.\") */\n      0x04\n      dup3\n      add\n        /* \"#utility.yul\":7628:7649   */\n      mstore\n        /* \"#utility.yul\":7685:7687   */\n      0x22\n        /* \"#utility.yul\":7665:7683   */\n      0x24\n      dup3\n      add\n        /* \"#utility.yul\":7658:7688   */\n      mstore\n        /* \"#utility.yul\":7724:7758   */\n      0x4174206c65617374206f6e6520667269656e64206d7573742062652061646465\n        /* \"#utility.yul\":7704:7722   */\n      0x44\n      dup3\n      add\n        /* \"#utility.yul\":7697:7759   */\n      mstore\n      shl(0xf1, 0x3217)\n        /* \"#utility.yul\":7775:7793   */\n      0x64\n      dup3\n      add\n        /* \"#utility.yul\":7768:7800   */\n      mstore\n        /* \"#utility.yul\":7817:7836   */\n      0x84\n      add\n        /* \"contracts/LunchVenue.sol\":3194:3255  require(numFriends > 1, \"At least one friend must be added.\") */\n      tag_100\n        /* \"#utility.yul\":7618:7842   */\n      jump\n        /* \"contracts/LunchVenue.sol\":3194:3255  require(numFriends > 1, \"At least one friend must be added.\") */\n    tag_188:\n        /* \"contracts/LunchVenue.sol\":3348:3377  block.number + blocksUntilEnd */\n      tag_191\n        /* \"contracts/LunchVenue.sol\":3363:3377  blocksUntilEnd */\n      dup3\n        /* \"contracts/LunchVenue.sol\":3348:3360  block.number */\n      number\n        /* \"contracts/LunchVenue.sol\":3348:3377  block.number + blocksUntilEnd */\n      tag_138\n      jump\t// in\n    tag_191:\n        /* \"contracts/LunchVenue.sol\":3337:3345  endBlock */\n      0x0a\n        /* \"contracts/LunchVenue.sol\":3337:3377  endBlock = block.number + blocksUntilEnd */\n      sstore\n      pop\n      pop\n        /* \"contracts/LunchVenue.sol\":3387:3399  currentPhase */\n      0x09\n        /* \"contracts/LunchVenue.sol\":3387:3414  currentPhase = Phase.Voting */\n      dup1\n      sload\n      not(0xffff)\n        /* \"contracts/LunchVenue.sol\":3424:3439  voteOpen = true */\n      and\n      0x0101\n      or\n      swap1\n      sstore\n        /* \"contracts/LunchVenue.sol\":2938:3446  function startVoting(uint blocksUntilEnd) public restricted contractActive onlyDuring(Phase.Setup) {... */\n      jump\t// out\n        /* \"contracts/LunchVenue.sol\":1526:2030  function addRestaurant(string memory name) public restricted contractActive onlyDuring(Phase.Setup) returns (uint){... */\n    tag_68:\n        /* \"contracts/LunchVenue.sol\":6878:6885  manager */\n      sload(0x05)\n        /* \"contracts/LunchVenue.sol\":1635:1639  uint */\n      0x00\n      swap1\n      sub(shl(0xa0, 0x01), 0x01)\n        /* \"contracts/LunchVenue.sol\":6878:6885  manager */\n      and\n        /* \"contracts/LunchVenue.sol\":6864:6874  msg.sender */\n      caller\n        /* \"contracts/LunchVenue.sol\":6864:6885  msg.sender == manager */\n      eq\n        /* \"contracts/LunchVenue.sol\":6855:6925  require (msg.sender == manager, \"Can only be executed by the manager\") */\n      tag_195\n      jumpi\n      mload(0x40)\n      shl(0xe5, 0x461bcd)\n      dup2\n      mstore\n      0x04\n      add\n      tag_100\n      swap1\n      tag_150\n      jump\t// in\n    tag_195:\n        /* \"contracts/LunchVenue.sol\":7458:7468  isShutdown */\n      and(0xff, sload(0x0b))\n        /* \"contracts/LunchVenue.sol\":7457:7468  !isShutdown */\n      iszero\n        /* \"contracts/LunchVenue.sol\":7449:7495  require(!isShutdown, \"Contract is shut down.\") */\n      tag_198\n      jumpi\n      mload(0x40)\n      shl(0xe5, 0x461bcd)\n      dup2\n      mstore\n      0x04\n      add\n      tag_100\n      swap1\n      tag_101\n      jump\t// in\n    tag_198:\n        /* \"contracts/LunchVenue.sol\":1613:1624  Phase.Setup */\n      0x00\n      dup1\n        /* \"contracts/LunchVenue.sol\":7248:7260  currentPhase */\n      sload(0x09)\n      0x0100\n      swap1\n      div\n      0xff\n      and\n        /* \"contracts/LunchVenue.sol\":7248:7269  currentPhase == phase */\n      0x02\n      dup2\n      gt\n      iszero\n      tag_204\n      jumpi\n      tag_204\n      tag_105\n      jump\t// in\n    tag_204:\n      eq\n        /* \"contracts/LunchVenue.sol\":7240:7310  require(currentPhase == phase, \"Action not allowed in current phase.\") */\n      tag_205\n      jumpi\n      mload(0x40)\n      shl(0xe5, 0x461bcd)\n      dup2\n      mstore\n      0x04\n      add\n      tag_100\n      swap1\n      tag_110\n      jump\t// in\n    tag_205:\n        /* \"contracts/LunchVenue.sol\":1703:1719  bytes32 nameHash */\n      0x00\n        /* \"contracts/LunchVenue.sol\":1749:1753  name */\n      dup4\n        /* \"contracts/LunchVenue.sol\":1732:1754  abi.encodePacked(name) */\n      add(0x20, mload(0x40))\n      tag_208\n      swap2\n      swap1\n      tag_209\n      jump\t// in\n    tag_208:\n      0x40\n      dup1\n      mload\n      not(0x1f)\n      dup2\n      dup5\n      sub\n      add\n      dup2\n      mstore\n      swap2\n      dup2\n      mstore\n        /* \"contracts/LunchVenue.sol\":1722:1755  keccak256(abi.encodePacked(name)) */\n      dup2\n      mload\n        /* \"contracts/LunchVenue.sol\":1732:1754  abi.encodePacked(name) */\n      0x20\n        /* \"contracts/LunchVenue.sol\":1722:1755  keccak256(abi.encodePacked(name)) */\n      swap3\n      dup4\n      add\n      keccak256\n        /* \"contracts/LunchVenue.sol\":1774:1800  restaurantExists[nameHash] */\n      0x00\n      dup2\n      dup2\n      mstore\n        /* \"contracts/LunchVenue.sol\":1774:1790  restaurantExists */\n      0x0c\n        /* \"contracts/LunchVenue.sol\":1774:1800  restaurantExists[nameHash] */\n      swap1\n      swap4\n      mstore\n      swap2\n      keccak256\n      sload\n        /* \"contracts/LunchVenue.sol\":1722:1755  keccak256(abi.encodePacked(name)) */\n      swap1\n      swap2\n      pop\n        /* \"contracts/LunchVenue.sol\":1774:1800  restaurantExists[nameHash] */\n      0xff\n      and\n        /* \"contracts/LunchVenue.sol\":1773:1800  !restaurantExists[nameHash] */\n      iszero\n        /* \"contracts/LunchVenue.sol\":1765:1831  require(!restaurantExists[nameHash], \"Restaurant already exists.\") */\n      tag_210\n      jumpi\n      mload(0x40)\n      shl(0xe5, 0x461bcd)\n      dup2\n      mstore\n        /* \"#utility.yul\":7291:7293   */\n      0x20\n        /* \"contracts/LunchVenue.sol\":1765:1831  require(!restaurantExists[nameHash], \"Restaurant already exists.\") */\n      0x04\n      dup3\n      add\n        /* \"#utility.yul\":7273:7294   */\n      mstore\n        /* \"#utility.yul\":7330:7332   */\n      0x1a\n        /* \"#utility.yul\":7310:7328   */\n      0x24\n      dup3\n      add\n        /* \"#utility.yul\":7303:7333   */\n      mstore\n        /* \"#utility.yul\":7369:7397   */\n      0x52657374617572616e7420616c7265616479206578697374732e000000000000\n        /* \"#utility.yul\":7349:7367   */\n      0x44\n      dup3\n      add\n        /* \"#utility.yul\":7342:7398   */\n      mstore\n        /* \"#utility.yul\":7415:7433   */\n      0x64\n      add\n        /* \"contracts/LunchVenue.sol\":1765:1831  require(!restaurantExists[nameHash], \"Restaurant already exists.\") */\n      tag_100\n        /* \"#utility.yul\":7263:7439   */\n      jump\n        /* \"contracts/LunchVenue.sol\":1765:1831  require(!restaurantExists[nameHash], \"Restaurant already exists.\") */\n    tag_210:\n        /* \"contracts/LunchVenue.sol\":1842:1856  numRestaurants */\n      0x02\n        /* \"contracts/LunchVenue.sol\":1842:1858  numRestaurants++ */\n      dup1\n      sload\n      swap1\n        /* \"contracts/LunchVenue.sol\":1842:1856  numRestaurants */\n      0x00\n        /* \"contracts/LunchVenue.sol\":1842:1858  numRestaurants++ */\n      tag_213\n      dup4\n      tag_134\n      jump\t// in\n    tag_213:\n      swap1\n      swap2\n      sstore\n      pop\n      pop\n        /* \"contracts/LunchVenue.sol\":1880:1894  numRestaurants */\n      sload(0x02)\n        /* \"contracts/LunchVenue.sol\":1868:1879  restaurants */\n      0x00\n        /* \"contracts/LunchVenue.sol\":1868:1895  restaurants[numRestaurants] */\n      swap1\n      dup2\n      mstore\n      0x20\n      dup2\n      dup2\n      mstore\n      0x40\n      swap1\n      swap2\n      keccak256\n        /* \"contracts/LunchVenue.sol\":1868:1902  restaurants[numRestaurants] = name */\n      dup6\n      mload\n      tag_214\n      swap3\n      dup8\n      add\n      swap1\n      tag_169\n      jump\t// in\n    tag_214:\n      pop\n        /* \"contracts/LunchVenue.sol\":1959:1985  restaurantExists[nameHash] */\n      0x00\n      swap1\n      dup2\n      mstore\n        /* \"contracts/LunchVenue.sol\":1959:1975  restaurantExists */\n      0x0c\n        /* \"contracts/LunchVenue.sol\":1959:1985  restaurantExists[nameHash] */\n      0x20\n      mstore\n      0x40\n      swap1\n      keccak256\n        /* \"contracts/LunchVenue.sol\":1959:1992  restaurantExists[nameHash] = true */\n      dup1\n      sload\n      not(0xff)\n      and\n        /* \"contracts/LunchVenue.sol\":1988:1992  true */\n      0x01\n        /* \"contracts/LunchVenue.sol\":1959:1992  restaurantExists[nameHash] = true */\n      or\n      swap1\n      sstore\n        /* \"contracts/LunchVenue.sol\":2009:2023  numRestaurants */\n      sload(0x02)\n      swap2\n      pop\n        /* \"contracts/LunchVenue.sol\":7505:7506  _ */\n      pop\n        /* \"contracts/LunchVenue.sol\":1526:2030  function addRestaurant(string memory name) public restricted contractActive onlyDuring(Phase.Setup) returns (uint){... */\n      swap2\n      swap1\n      pop\n      jump\t// out\n        /* \"contracts/LunchVenue.sol\":358:401  mapping (uint => string) public restaurants */\n    tag_78:\n      0x00\n      0x20\n      dup2\n      swap1\n      mstore\n      swap1\n      dup2\n      mstore\n      0x40\n      swap1\n      keccak256\n      dup1\n      sload\n      tag_215\n      swap1\n      tag_120\n      jump\t// in\n    tag_215:\n      dup1\n      0x1f\n      add\n      0x20\n      dup1\n      swap2\n      div\n      mul\n      0x20\n      add\n      mload(0x40)\n      swap1\n      dup2\n      add\n      0x40\n      mstore\n      dup1\n      swap3\n      swap2\n      swap1\n      dup2\n      dup2\n      mstore\n      0x20\n      add\n      dup3\n      dup1\n      sload\n      tag_216\n      swap1\n      tag_120\n      jump\t// in\n    tag_216:\n      dup1\n      iszero\n      tag_217\n      jumpi\n      dup1\n      0x1f\n      lt\n      tag_218\n      jumpi\n      0x0100\n      dup1\n      dup4\n      sload\n      div\n      mul\n      dup4\n      mstore\n      swap2\n      0x20\n      add\n      swap2\n      jump(tag_217)\n    tag_218:\n      dup3\n      add\n      swap2\n      swap1\n      0x00\n      mstore\n      keccak256(0x00, 0x20)\n      swap1\n    tag_219:\n      dup2\n      sload\n      dup2\n      mstore\n      swap1\n      0x01\n      add\n      swap1\n      0x20\n      add\n      dup1\n      dup4\n      gt\n      tag_219\n      jumpi\n      dup3\n      swap1\n      sub\n      0x1f\n      and\n      dup3\n      add\n      swap2\n    tag_217:\n      pop\n      pop\n      pop\n      pop\n      pop\n      dup2\n      jump\t// out\n        /* \"contracts/LunchVenue.sol\":580:614  string public votedRestaurant = \"\" */\n    tag_92:\n      0x06\n      dup1\n      sload\n      tag_215\n      swap1\n      tag_120\n      jump\t// in\n        /* \"contracts/LunchVenue.sol\":4853:5257  function endVoting() public restricted contractActive {... */\n    tag_95:\n        /* \"contracts/LunchVenue.sol\":6878:6885  manager */\n      and(sub(shl(0xa0, 0x01), 0x01), sload(0x05))\n        /* \"contracts/LunchVenue.sol\":6864:6874  msg.sender */\n      caller\n        /* \"contracts/LunchVenue.sol\":6864:6885  msg.sender == manager */\n      eq\n        /* \"contracts/LunchVenue.sol\":6855:6925  require (msg.sender == manager, \"Can only be executed by the manager\") */\n      tag_227\n      jumpi\n      mload(0x40)\n      shl(0xe5, 0x461bcd)\n      dup2\n      mstore\n      0x04\n      add\n      tag_100\n      swap1\n      tag_150\n      jump\t// in\n    tag_227:\n        /* \"contracts/LunchVenue.sol\":7458:7468  isShutdown */\n      and(0xff, sload(0x0b))\n        /* \"contracts/LunchVenue.sol\":7457:7468  !isShutdown */\n      iszero\n        /* \"contracts/LunchVenue.sol\":7449:7495  require(!isShutdown, \"Contract is shut down.\") */\n      tag_230\n      jumpi\n      mload(0x40)\n      shl(0xe5, 0x461bcd)\n      dup2\n      mstore\n      0x04\n      add\n      tag_100\n      swap1\n      tag_101\n      jump\t// in\n    tag_230:\n        /* \"contracts/LunchVenue.sol\":4983:4995  Phase.Voting */\n      0x01\n        /* \"contracts/LunchVenue.sol\":4967:4979  currentPhase */\n      sload(0x09)\n      0x0100\n      swap1\n      div\n      0xff\n      and\n        /* \"contracts/LunchVenue.sol\":4967:4995  currentPhase == Phase.Voting */\n      0x02\n      dup2\n      gt\n      iszero\n      tag_236\n      jumpi\n      tag_236\n      tag_105\n      jump\t// in\n    tag_236:\n      eq\n        /* \"contracts/LunchVenue.sol\":4959:5020  require(currentPhase == Phase.Voting, \"Not in voting phase.\") */\n      tag_237\n      jumpi\n      mload(0x40)\n      shl(0xe5, 0x461bcd)\n      dup2\n      mstore\n        /* \"#utility.yul\":8453:8455   */\n      0x20\n        /* \"contracts/LunchVenue.sol\":4959:5020  require(currentPhase == Phase.Voting, \"Not in voting phase.\") */\n      0x04\n      dup3\n      add\n        /* \"#utility.yul\":8435:8456   */\n      mstore\n        /* \"#utility.yul\":8492:8494   */\n      0x14\n        /* \"#utility.yul\":8472:8490   */\n      0x24\n      dup3\n      add\n        /* \"#utility.yul\":8465:8495   */\n      mstore\n      shl(0x61, 0x2737ba1034b7103b37ba34b73390383430b9b297)\n        /* \"#utility.yul\":8511:8529   */\n      0x44\n      dup3\n      add\n        /* \"#utility.yul\":8504:8554   */\n      mstore\n        /* \"#utility.yul\":8571:8589   */\n      0x64\n      add\n        /* \"contracts/LunchVenue.sol\":4959:5020  require(currentPhase == Phase.Voting, \"Not in voting phase.\") */\n      tag_100\n        /* \"#utility.yul\":8425:8595   */\n      jump\n        /* \"contracts/LunchVenue.sol\":4959:5020  require(currentPhase == Phase.Voting, \"Not in voting phase.\") */\n    tag_237:\n        /* \"contracts/LunchVenue.sol\":5112:5120  numVotes */\n      sload(0x04)\n        /* \"contracts/LunchVenue.sol\":5112:5124  numVotes > 0 */\n      iszero\n        /* \"contracts/LunchVenue.sol\":5108:5251  if (numVotes > 0) {... */\n      tag_240\n      jumpi\n        /* \"contracts/LunchVenue.sol\":5140:5153  finalResult() */\n      tag_241\n        /* \"contracts/LunchVenue.sol\":5140:5151  finalResult */\n      tag_141\n        /* \"contracts/LunchVenue.sol\":5140:5153  finalResult() */\n      jump\t// in\n    tag_241:\n        /* \"contracts/LunchVenue.sol\":4853:5257  function endVoting() public restricted contractActive {... */\n      jump\t// out\n        /* \"contracts/LunchVenue.sol\":5108:5251  if (numVotes > 0) {... */\n    tag_240:\n        /* \"contracts/LunchVenue.sol\":5184:5196  currentPhase */\n      0x09\n        /* \"contracts/LunchVenue.sol\":5184:5210  currentPhase = Phase.Ended */\n      dup1\n      sload\n      not(0xffff)\n        /* \"contracts/LunchVenue.sol\":5224:5240  voteOpen = false */\n      and\n        /* \"contracts/LunchVenue.sol\":5184:5210  currentPhase = Phase.Ended */\n      0x0200\n        /* \"contracts/LunchVenue.sol\":5224:5240  voteOpen = false */\n      or\n      swap1\n      sstore\n        /* \"contracts/LunchVenue.sol\":4853:5257  function endVoting() public restricted contractActive {... */\n      jump\t// out\n        /* \"contracts/LunchVenue.sol\":6258:6438  function shutdown() public restricted {... */\n    tag_97:\n        /* \"contracts/LunchVenue.sol\":6878:6885  manager */\n      and(sub(shl(0xa0, 0x01), 0x01), sload(0x05))\n        /* \"contracts/LunchVenue.sol\":6864:6874  msg.sender */\n      caller\n        /* \"contracts/LunchVenue.sol\":6864:6885  msg.sender == manager */\n      eq\n        /* \"contracts/LunchVenue.sol\":6855:6925  require (msg.sender == manager, \"Can only be executed by the manager\") */\n      tag_246\n      jumpi\n      mload(0x40)\n      shl(0xe5, 0x461bcd)\n      dup2\n      mstore\n      0x04\n      add\n      tag_100\n      swap1\n      tag_150\n      jump\t// in\n    tag_246:\n        /* \"contracts/LunchVenue.sol\":6306:6316  isShutdown */\n      0x0b\n        /* \"contracts/LunchVenue.sol\":6306:6323  isShutdown = true */\n      dup1\n      sload\n      not(0xff)\n      and\n        /* \"contracts/LunchVenue.sol\":6319:6323  true */\n      0x01\n        /* \"contracts/LunchVenue.sol\":6306:6323  isShutdown = true */\n      or\n      swap1\n      sstore\n        /* \"contracts/LunchVenue.sol\":6379:6387  voteOpen */\n      0x09\n        /* \"contracts/LunchVenue.sol\":6379:6395  voteOpen = false */\n      dup1\n      sload\n      not(0xffff)\n        /* \"contracts/LunchVenue.sol\":6405:6431  currentPhase = Phase.Ended */\n      and\n      0x0200\n      or\n      swap1\n      sstore\n        /* \"contracts/LunchVenue.sol\":6258:6438  function shutdown() public restricted {... */\n      jump\t// out\n        /* \"contracts/LunchVenue.sol\":5424:6123  function finalResult() private{... */\n    tag_141:\n        /* \"contracts/LunchVenue.sol\":5464:5481  uint highestVotes */\n      0x00\n      dup1\n        /* \"contracts/LunchVenue.sol\":5554:5555  1 */\n      0x01\n        /* \"contracts/LunchVenue.sol\":5540:5965  for (uint i = 1; i <= numVotes; i++){... */\n    tag_252:\n        /* \"contracts/LunchVenue.sol\":5562:5570  numVotes */\n      sload(0x04)\n        /* \"contracts/LunchVenue.sol\":5557:5558  i */\n      dup2\n        /* \"contracts/LunchVenue.sol\":5557:5570  i <= numVotes */\n      gt\n        /* \"contracts/LunchVenue.sol\":5540:5965  for (uint i = 1; i <= numVotes; i++){... */\n      tag_253\n      jumpi\n        /* \"contracts/LunchVenue.sol\":5590:5604  uint voteCount */\n      0x00\n        /* \"contracts/LunchVenue.sol\":5634:5642  votes[i] */\n      dup2\n      dup2\n      mstore\n        /* \"contracts/LunchVenue.sol\":5634:5639  votes */\n      0x07\n        /* \"contracts/LunchVenue.sol\":5634:5642  votes[i] */\n      0x20\n      swap1\n      dup2\n      mstore\n      0x40\n      dup1\n      dup4\n      keccak256\n        /* \"contracts/LunchVenue.sol\":5607:5608  1 */\n      0x01\n        /* \"contracts/LunchVenue.sol\":5634:5653  votes[i].restaurant */\n      swap1\n      dup2\n      add\n      sload\n        /* \"contracts/LunchVenue.sol\":5625:5654  _results[votes[i].restaurant] */\n      dup5\n      mstore\n        /* \"contracts/LunchVenue.sol\":5625:5633  _results */\n      0x08\n        /* \"contracts/LunchVenue.sol\":5625:5654  _results[votes[i].restaurant] */\n      swap1\n      swap3\n      mstore\n      swap1\n      swap2\n      keccak256\n      sload\n        /* \"contracts/LunchVenue.sol\":5625:5658  _results[votes[i].restaurant] > 0 */\n      iszero\n        /* \"contracts/LunchVenue.sol\":5622:5735  if(_results[votes[i].restaurant] > 0) {... */\n      tag_255\n      jumpi\n        /* \"contracts/LunchVenue.sol\":5691:5720  _results[votes[i].restaurant] */\n      0x00\n        /* \"contracts/LunchVenue.sol\":5700:5708  votes[i] */\n      dup3\n      dup2\n      mstore\n        /* \"contracts/LunchVenue.sol\":5700:5705  votes */\n      0x07\n        /* \"contracts/LunchVenue.sol\":5700:5708  votes[i] */\n      0x20\n      swap1\n      dup2\n      mstore\n      0x40\n      dup1\n      dup4\n      keccak256\n        /* \"contracts/LunchVenue.sol\":5700:5719  votes[i].restaurant */\n      0x01\n      add\n      sload\n        /* \"contracts/LunchVenue.sol\":5691:5720  _results[votes[i].restaurant] */\n      dup4\n      mstore\n        /* \"contracts/LunchVenue.sol\":5691:5699  _results */\n      0x08\n        /* \"contracts/LunchVenue.sol\":5691:5720  _results[votes[i].restaurant] */\n      swap1\n      swap2\n      mstore\n      swap1\n      keccak256\n      sload\n        /* \"contracts/LunchVenue.sol\":5678:5720  voteCount += _results[votes[i].restaurant] */\n      tag_256\n      swap1\n      dup3\n      tag_138\n      jump\t// in\n    tag_256:\n      swap1\n      pop\n        /* \"contracts/LunchVenue.sol\":5622:5735  if(_results[votes[i].restaurant] > 0) {... */\n    tag_255:\n        /* \"contracts/LunchVenue.sol\":5748:5777  _results[votes[i].restaurant] */\n      0x00\n        /* \"contracts/LunchVenue.sol\":5757:5765  votes[i] */\n      dup3\n      dup2\n      mstore\n        /* \"contracts/LunchVenue.sol\":5757:5762  votes */\n      0x07\n        /* \"contracts/LunchVenue.sol\":5757:5765  votes[i] */\n      0x20\n      swap1\n      dup2\n      mstore\n      0x40\n      dup1\n      dup4\n      keccak256\n        /* \"contracts/LunchVenue.sol\":5757:5776  votes[i].restaurant */\n      0x01\n      add\n      sload\n        /* \"contracts/LunchVenue.sol\":5748:5777  _results[votes[i].restaurant] */\n      dup4\n      mstore\n        /* \"contracts/LunchVenue.sol\":5748:5756  _results */\n      0x08\n        /* \"contracts/LunchVenue.sol\":5748:5777  _results[votes[i].restaurant] */\n      swap1\n      swap2\n      mstore\n      swap1\n      keccak256\n        /* \"contracts/LunchVenue.sol\":5748:5789  _results[votes[i].restaurant] = voteCount */\n      dup2\n      swap1\n      sstore\n        /* \"contracts/LunchVenue.sol\":5816:5840  voteCount > highestVotes */\n      dup4\n      dup2\n      gt\n        /* \"contracts/LunchVenue.sol\":5812:5955  if (voteCount > highestVotes){... */\n      iszero\n      tag_257\n      jumpi\n        /* \"contracts/LunchVenue.sol\":5921:5929  votes[i] */\n      0x00\n      dup3\n      dup2\n      mstore\n        /* \"contracts/LunchVenue.sol\":5921:5926  votes */\n      0x07\n        /* \"contracts/LunchVenue.sol\":5921:5929  votes[i] */\n      0x20\n      mstore\n      0x40\n      swap1\n      keccak256\n        /* \"contracts/LunchVenue.sol\":5921:5940  votes[i].restaurant */\n      0x01\n      add\n      sload\n        /* \"contracts/LunchVenue.sol\":5874:5883  voteCount */\n      swap1\n      swap4\n      pop\n        /* \"contracts/LunchVenue.sol\":5921:5940  votes[i].restaurant */\n      swap2\n      pop\n        /* \"contracts/LunchVenue.sol\":5874:5883  voteCount */\n      dup3\n        /* \"contracts/LunchVenue.sol\":5812:5955  if (voteCount > highestVotes){... */\n    tag_257:\n      pop\n        /* \"contracts/LunchVenue.sol\":5572:5575  i++ */\n      dup1\n      tag_258\n      dup2\n      tag_134\n      jump\t// in\n    tag_258:\n      swap2\n      pop\n      pop\n        /* \"contracts/LunchVenue.sol\":5540:5965  for (uint i = 1; i <= numVotes; i++){... */\n      jump(tag_252)\n    tag_253:\n      pop\n        /* \"contracts/LunchVenue.sol\":5992:6003  restaurants */\n      0x00\n        /* \"contracts/LunchVenue.sol\":5992:6022  restaurants[highestRestaurant] */\n      dup2\n      dup2\n      mstore\n      0x20\n      dup2\n      swap1\n      mstore\n      0x40\n      swap1\n      keccak256\n        /* \"contracts/LunchVenue.sol\":5974:6022  votedRestaurant = restaurants[highestRestaurant] */\n      dup1\n      sload\n        /* \"contracts/LunchVenue.sol\":5974:5989  votedRestaurant */\n      0x06\n      swap2\n        /* \"contracts/LunchVenue.sol\":5992:6022  restaurants[highestRestaurant] */\n      swap1\n        /* \"contracts/LunchVenue.sol\":5974:6022  votedRestaurant = restaurants[highestRestaurant] */\n      tag_259\n      swap1\n      tag_120\n      jump\t// in\n    tag_259:\n      tag_260\n      swap3\n      swap2\n      swap1\n      tag_261\n      jump\t// in\n    tag_260:\n      pop\n      pop\n        /* \"contracts/LunchVenue.sol\":6032:6040  voteOpen */\n      0x09\n        /* \"contracts/LunchVenue.sol\":6032:6048  voteOpen = false */\n      dup1\n      sload\n      not(0xffff)\n        /* \"contracts/LunchVenue.sol\":6090:6116  currentPhase = Phase.Ended */\n      and\n      0x0200\n      or\n      swap1\n      sstore\n      pop\n        /* \"contracts/LunchVenue.sol\":5424:6123  function finalResult() private{... */\n      jump\t// out\n    tag_169:\n      dup3\n      dup1\n      sload\n      tag_264\n      swap1\n      tag_120\n      jump\t// in\n    tag_264:\n      swap1\n      0x00\n      mstore\n      keccak256(0x00, 0x20)\n      swap1\n      0x1f\n      add\n      0x20\n      swap1\n      div\n      dup2\n      add\n      swap3\n      dup3\n      tag_266\n      jumpi\n      0x00\n      dup6\n      sstore\n      jump(tag_269)\n    tag_266:\n      dup3\n      0x1f\n      lt\n      tag_267\n      jumpi\n      dup1\n      mload\n      not(0xff)\n      and\n      dup4\n      dup1\n      add\n      or\n      dup6\n      sstore\n      jump(tag_269)\n    tag_267:\n      dup3\n      dup1\n      add\n      0x01\n      add\n      dup6\n      sstore\n      dup3\n      iszero\n      tag_269\n      jumpi\n      swap2\n      dup3\n      add\n    tag_268:\n      dup3\n      dup2\n      gt\n      iszero\n      tag_269\n      jumpi\n      dup3\n      mload\n      dup3\n      sstore\n      swap2\n      0x20\n      add\n      swap2\n      swap1\n      0x01\n      add\n      swap1\n      jump(tag_268)\n    tag_269:\n      pop\n      tag_270\n      swap3\n      swap2\n      pop\n      tag_271\n      jump\t// in\n    tag_270:\n      pop\n      swap1\n      jump\t// out\n    tag_261:\n      dup3\n      dup1\n      sload\n      tag_272\n      swap1\n      tag_120\n      jump\t// in\n    tag_272:\n      swap1\n      0x00\n      mstore\n      keccak256(0x00, 0x20)\n      swap1\n      0x1f\n      add\n      0x20\n      swap1\n      div\n      dup2\n      add\n      swap3\n      dup3\n      tag_274\n      jumpi\n      0x00\n      dup6\n      sstore\n      jump(tag_269)\n    tag_274:\n      dup3\n      0x1f\n      lt\n      tag_275\n      jumpi\n      dup1\n      sload\n      dup6\n      sstore\n      jump(tag_269)\n    tag_275:\n      dup3\n      dup1\n      add\n      0x01\n      add\n      dup6\n      sstore\n      dup3\n      iszero\n      tag_269\n      jumpi\n      0x00\n      mstore\n      keccak256(0x00, 0x20)\n      swap2\n      0x1f\n      add\n      0x20\n      swap1\n      div\n      dup3\n      add\n    tag_276:\n      dup3\n      dup2\n      gt\n      iszero\n      tag_269\n      jumpi\n      dup3\n      sload\n      dup3\n      sstore\n      swap2\n      0x01\n      add\n      swap2\n      swap1\n      0x01\n      add\n      swap1\n      jump(tag_276)\n    tag_271:\n    tag_279:\n      dup1\n      dup3\n      gt\n      iszero\n      tag_270\n      jumpi\n      0x00\n      dup2\n      sstore\n      0x01\n      add\n      jump(tag_279)\n        /* \"#utility.yul\":14:187   */\n    tag_282:\n        /* \"#utility.yul\":82:102   */\n      dup1\n      calldataload\n      sub(shl(0xa0, 0x01), 0x01)\n        /* \"#utility.yul\":131:162   */\n      dup2\n      and\n        /* \"#utility.yul\":121:163   */\n      dup2\n      eq\n        /* \"#utility.yul\":111:113   */\n      tag_284\n      jumpi\n        /* \"#utility.yul\":177:178   */\n      0x00\n        /* \"#utility.yul\":174:175   */\n      dup1\n        /* \"#utility.yul\":167:179   */\n      revert\n        /* \"#utility.yul\":111:113   */\n    tag_284:\n        /* \"#utility.yul\":63:187   */\n      swap2\n      swap1\n      pop\n      jump\t// out\n        /* \"#utility.yul\":192:911   */\n    tag_285:\n        /* \"#utility.yul\":235:240   */\n      0x00\n        /* \"#utility.yul\":288:291   */\n      dup3\n        /* \"#utility.yul\":281:285   */\n      0x1f\n        /* \"#utility.yul\":273:279   */\n      dup4\n        /* \"#utility.yul\":269:286   */\n      add\n        /* \"#utility.yul\":265:292   */\n      slt\n        /* \"#utility.yul\":255:257   */\n      tag_287\n      jumpi\n        /* \"#utility.yul\":306:307   */\n      0x00\n        /* \"#utility.yul\":303:304   */\n      dup1\n        /* \"#utility.yul\":296:308   */\n      revert\n        /* \"#utility.yul\":255:257   */\n    tag_287:\n        /* \"#utility.yul\":342:348   */\n      dup2\n        /* \"#utility.yul\":329:349   */\n      calldataload\n        /* \"#utility.yul\":368:386   */\n      0xffffffffffffffff\n        /* \"#utility.yul\":405:407   */\n      dup1\n        /* \"#utility.yul\":401:403   */\n      dup3\n        /* \"#utility.yul\":398:408   */\n      gt\n        /* \"#utility.yul\":395:397   */\n      iszero\n      tag_289\n      jumpi\n        /* \"#utility.yul\":411:429   */\n      tag_289\n      tag_290\n      jump\t// in\n    tag_289:\n        /* \"#utility.yul\":486:488   */\n      0x40\n        /* \"#utility.yul\":480:489   */\n      mload\n        /* \"#utility.yul\":454:456   */\n      0x1f\n        /* \"#utility.yul\":540:553   */\n      dup4\n      add\n      not(0x1f)\n        /* \"#utility.yul\":536:558   */\n      swap1\n      dup2\n      and\n        /* \"#utility.yul\":560:562   */\n      0x3f\n        /* \"#utility.yul\":532:563   */\n      add\n        /* \"#utility.yul\":528:568   */\n      and\n        /* \"#utility.yul\":516:569   */\n      dup2\n      add\n      swap1\n        /* \"#utility.yul\":584:602   */\n      dup3\n      dup3\n      gt\n        /* \"#utility.yul\":604:626   */\n      dup2\n      dup4\n      lt\n        /* \"#utility.yul\":581:627   */\n      or\n        /* \"#utility.yul\":578:580   */\n      iszero\n      tag_292\n      jumpi\n        /* \"#utility.yul\":630:648   */\n      tag_292\n      tag_290\n      jump\t// in\n    tag_292:\n        /* \"#utility.yul\":670:680   */\n      dup2\n        /* \"#utility.yul\":666:668   */\n      0x40\n        /* \"#utility.yul\":659:681   */\n      mstore\n        /* \"#utility.yul\":705:707   */\n      dup4\n        /* \"#utility.yul\":697:703   */\n      dup2\n        /* \"#utility.yul\":690:708   */\n      mstore\n        /* \"#utility.yul\":751:754   */\n      dup7\n        /* \"#utility.yul\":744:748   */\n      0x20\n        /* \"#utility.yul\":739:741   */\n      dup6\n        /* \"#utility.yul\":731:737   */\n      dup9\n        /* \"#utility.yul\":727:742   */\n      add\n        /* \"#utility.yul\":723:749   */\n      add\n        /* \"#utility.yul\":720:755   */\n      gt\n        /* \"#utility.yul\":717:719   */\n      iszero\n      tag_293\n      jumpi\n        /* \"#utility.yul\":768:769   */\n      0x00\n        /* \"#utility.yul\":765:766   */\n      dup1\n        /* \"#utility.yul\":758:770   */\n      revert\n        /* \"#utility.yul\":717:719   */\n    tag_293:\n        /* \"#utility.yul\":832:834   */\n      dup4\n        /* \"#utility.yul\":825:829   */\n      0x20\n        /* \"#utility.yul\":817:823   */\n      dup8\n        /* \"#utility.yul\":813:830   */\n      add\n        /* \"#utility.yul\":806:810   */\n      0x20\n        /* \"#utility.yul\":798:804   */\n      dup4\n        /* \"#utility.yul\":794:811   */\n      add\n        /* \"#utility.yul\":781:835   */\n      calldatacopy\n        /* \"#utility.yul\":879:880   */\n      0x00\n        /* \"#utility.yul\":872:876   */\n      0x20\n        /* \"#utility.yul\":867:869   */\n      dup6\n        /* \"#utility.yul\":859:865   */\n      dup4\n        /* \"#utility.yul\":855:870   */\n      add\n        /* \"#utility.yul\":851:877   */\n      add\n        /* \"#utility.yul\":844:881   */\n      mstore\n        /* \"#utility.yul\":899:905   */\n      dup1\n        /* \"#utility.yul\":890:905   */\n      swap5\n      pop\n      pop\n      pop\n      pop\n      pop\n        /* \"#utility.yul\":245:911   */\n      swap3\n      swap2\n      pop\n      pop\n      jump\t// out\n        /* \"#utility.yul\":916:1102   */\n    tag_41:\n        /* \"#utility.yul\":975:981   */\n      0x00\n        /* \"#utility.yul\":1028:1030   */\n      0x20\n        /* \"#utility.yul\":1016:1025   */\n      dup3\n        /* \"#utility.yul\":1007:1014   */\n      dup5\n        /* \"#utility.yul\":1003:1026   */\n      sub\n        /* \"#utility.yul\":999:1031   */\n      slt\n        /* \"#utility.yul\":996:998   */\n      iszero\n      tag_295\n      jumpi\n        /* \"#utility.yul\":1044:1045   */\n      0x00\n        /* \"#utility.yul\":1041:1042   */\n      dup1\n        /* \"#utility.yul\":1034:1046   */\n      revert\n        /* \"#utility.yul\":996:998   */\n    tag_295:\n        /* \"#utility.yul\":1067:1096   */\n      tag_296\n        /* \"#utility.yul\":1086:1095   */\n      dup3\n        /* \"#utility.yul\":1067:1096   */\n      tag_282\n      jump\t// in\n    tag_296:\n        /* \"#utility.yul\":1057:1096   */\n      swap4\n        /* \"#utility.yul\":986:1102   */\n      swap3\n      pop\n      pop\n      pop\n      jump\t// out\n        /* \"#utility.yul\":1107:1503   */\n    tag_47:\n        /* \"#utility.yul\":1185:1191   */\n      0x00\n        /* \"#utility.yul\":1193:1199   */\n      dup1\n        /* \"#utility.yul\":1246:1248   */\n      0x40\n        /* \"#utility.yul\":1234:1243   */\n      dup4\n        /* \"#utility.yul\":1225:1232   */\n      dup6\n        /* \"#utility.yul\":1221:1244   */\n      sub\n        /* \"#utility.yul\":1217:1249   */\n      slt\n        /* \"#utility.yul\":1214:1216   */\n      iszero\n      tag_298\n      jumpi\n        /* \"#utility.yul\":1262:1263   */\n      0x00\n        /* \"#utility.yul\":1259:1260   */\n      dup1\n        /* \"#utility.yul\":1252:1264   */\n      revert\n        /* \"#utility.yul\":1214:1216   */\n    tag_298:\n        /* \"#utility.yul\":1285:1314   */\n      tag_299\n        /* \"#utility.yul\":1304:1313   */\n      dup4\n        /* \"#utility.yul\":1285:1314   */\n      tag_282\n      jump\t// in\n    tag_299:\n        /* \"#utility.yul\":1275:1314   */\n      swap2\n      pop\n        /* \"#utility.yul\":1365:1367   */\n      0x20\n        /* \"#utility.yul\":1354:1363   */\n      dup4\n        /* \"#utility.yul\":1350:1368   */\n      add\n        /* \"#utility.yul\":1337:1369   */\n      calldataload\n        /* \"#utility.yul\":1392:1410   */\n      0xffffffffffffffff\n        /* \"#utility.yul\":1384:1390   */\n      dup2\n        /* \"#utility.yul\":1381:1411   */\n      gt\n        /* \"#utility.yul\":1378:1380   */\n      iszero\n      tag_300\n      jumpi\n        /* \"#utility.yul\":1424:1425   */\n      0x00\n        /* \"#utility.yul\":1421:1422   */\n      dup1\n        /* \"#utility.yul\":1414:1426   */\n      revert\n        /* \"#utility.yul\":1378:1380   */\n    tag_300:\n        /* \"#utility.yul\":1447:1497   */\n      tag_301\n        /* \"#utility.yul\":1489:1496   */\n      dup6\n        /* \"#utility.yul\":1480:1486   */\n      dup3\n        /* \"#utility.yul\":1469:1478   */\n      dup7\n        /* \"#utility.yul\":1465:1487   */\n      add\n        /* \"#utility.yul\":1447:1497   */\n      tag_285\n      jump\t// in\n    tag_301:\n        /* \"#utility.yul\":1437:1497   */\n      swap2\n      pop\n      pop\n        /* \"#utility.yul\":1204:1503   */\n      swap3\n      pop\n      swap3\n      swap1\n      pop\n      jump\t// out\n        /* \"#utility.yul\":1508:1830   */\n    tag_67:\n        /* \"#utility.yul\":1577:1583   */\n      0x00\n        /* \"#utility.yul\":1630:1632   */\n      0x20\n        /* \"#utility.yul\":1618:1627   */\n      dup3\n        /* \"#utility.yul\":1609:1616   */\n      dup5\n        /* \"#utility.yul\":1605:1628   */\n      sub\n        /* \"#utility.yul\":1601:1633   */\n      slt\n        /* \"#utility.yul\":1598:1600   */\n      iszero\n      tag_303\n      jumpi\n        /* \"#utility.yul\":1646:1647   */\n      0x00\n        /* \"#utility.yul\":1643:1644   */\n      dup1\n        /* \"#utility.yul\":1636:1648   */\n      revert\n        /* \"#utility.yul\":1598:1600   */\n    tag_303:\n        /* \"#utility.yul\":1686:1695   */\n      dup2\n        /* \"#utility.yul\":1673:1696   */\n      calldataload\n        /* \"#utility.yul\":1719:1737   */\n      0xffffffffffffffff\n        /* \"#utility.yul\":1711:1717   */\n      dup2\n        /* \"#utility.yul\":1708:1738   */\n      gt\n        /* \"#utility.yul\":1705:1707   */\n      iszero\n      tag_304\n      jumpi\n        /* \"#utility.yul\":1751:1752   */\n      0x00\n        /* \"#utility.yul\":1748:1749   */\n      dup1\n        /* \"#utility.yul\":1741:1753   */\n      revert\n        /* \"#utility.yul\":1705:1707   */\n    tag_304:\n        /* \"#utility.yul\":1774:1824   */\n      tag_305\n        /* \"#utility.yul\":1816:1823   */\n      dup5\n        /* \"#utility.yul\":1807:1813   */\n      dup3\n        /* \"#utility.yul\":1796:1805   */\n      dup6\n        /* \"#utility.yul\":1792:1814   */\n      add\n        /* \"#utility.yul\":1774:1824   */\n      tag_285\n      jump\t// in\n    tag_305:\n        /* \"#utility.yul\":1764:1824   */\n      swap5\n        /* \"#utility.yul\":1588:1830   */\n      swap4\n      pop\n      pop\n      pop\n      pop\n      jump\t// out\n        /* \"#utility.yul\":1835:2015   */\n    tag_35:\n        /* \"#utility.yul\":1894:1900   */\n      0x00\n        /* \"#utility.yul\":1947:1949   */\n      0x20\n        /* \"#utility.yul\":1935:1944   */\n      dup3\n        /* \"#utility.yul\":1926:1933   */\n      dup5\n        /* \"#utility.yul\":1922:1945   */\n      sub\n        /* \"#utility.yul\":1918:1950   */\n      slt\n        /* \"#utility.yul\":1915:1917   */\n      iszero\n      tag_307\n      jumpi\n        /* \"#utility.yul\":1963:1964   */\n      0x00\n        /* \"#utility.yul\":1960:1961   */\n      dup1\n        /* \"#utility.yul\":1953:1965   */\n      revert\n        /* \"#utility.yul\":1915:1917   */\n    tag_307:\n      pop\n        /* \"#utility.yul\":1986:2009   */\n      calldataload\n      swap2\n        /* \"#utility.yul\":1905:2015   */\n      swap1\n      pop\n      jump\t// out\n        /* \"#utility.yul\":2020:2278   */\n    tag_308:\n        /* \"#utility.yul\":2062:2065   */\n      0x00\n        /* \"#utility.yul\":2100:2105   */\n      dup2\n        /* \"#utility.yul\":2094:2106   */\n      mload\n        /* \"#utility.yul\":2127:2133   */\n      dup1\n        /* \"#utility.yul\":2122:2125   */\n      dup5\n        /* \"#utility.yul\":2115:2134   */\n      mstore\n        /* \"#utility.yul\":2143:2206   */\n      tag_310\n        /* \"#utility.yul\":2199:2205   */\n      dup2\n        /* \"#utility.yul\":2192:2196   */\n      0x20\n        /* \"#utility.yul\":2187:2190   */\n      dup7\n        /* \"#utility.yul\":2183:2197   */\n      add\n        /* \"#utility.yul\":2176:2180   */\n      0x20\n        /* \"#utility.yul\":2169:2174   */\n      dup7\n        /* \"#utility.yul\":2165:2181   */\n      add\n        /* \"#utility.yul\":2143:2206   */\n      tag_311\n      jump\t// in\n    tag_310:\n        /* \"#utility.yul\":2260:2262   */\n      0x1f\n        /* \"#utility.yul\":2239:2254   */\n      add\n      not(0x1f)\n        /* \"#utility.yul\":2235:2264   */\n      and\n        /* \"#utility.yul\":2226:2265   */\n      swap3\n      swap1\n      swap3\n      add\n        /* \"#utility.yul\":2267:2271   */\n      0x20\n        /* \"#utility.yul\":2222:2272   */\n      add\n      swap3\n        /* \"#utility.yul\":2070:2278   */\n      swap2\n      pop\n      pop\n      jump\t// out\n        /* \"#utility.yul\":2283:2559   */\n    tag_209:\n        /* \"#utility.yul\":2414:2417   */\n      0x00\n        /* \"#utility.yul\":2452:2458   */\n      dup3\n        /* \"#utility.yul\":2446:2459   */\n      mload\n        /* \"#utility.yul\":2468:2521   */\n      tag_313\n        /* \"#utility.yul\":2514:2520   */\n      dup2\n        /* \"#utility.yul\":2509:2512   */\n      dup5\n        /* \"#utility.yul\":2502:2506   */\n      0x20\n        /* \"#utility.yul\":2494:2500   */\n      dup8\n        /* \"#utility.yul\":2490:2507   */\n      add\n        /* \"#utility.yul\":2468:2521   */\n      tag_311\n      jump\t// in\n    tag_313:\n        /* \"#utility.yul\":2537:2553   */\n      swap2\n      swap1\n      swap2\n      add\n      swap3\n        /* \"#utility.yul\":2422:2559   */\n      swap2\n      pop\n      pop\n      jump\t// out\n        /* \"#utility.yul\":3243:3579   */\n    tag_28:\n        /* \"#utility.yul\":3383:3385   */\n      0x20\n        /* \"#utility.yul\":3368:3386   */\n      dup2\n      add\n        /* \"#utility.yul\":3416:3417   */\n      0x03\n        /* \"#utility.yul\":3405:3418   */\n      dup4\n      lt\n        /* \"#utility.yul\":3395:3397   */\n      tag_318\n      jumpi\n        /* \"#utility.yul\":3461:3471   */\n      0x4e487b71\n        /* \"#utility.yul\":3456:3459   */\n      0xe0\n        /* \"#utility.yul\":3452:3472   */\n      shl\n        /* \"#utility.yul\":3449:3450   */\n      0x00\n        /* \"#utility.yul\":3442:3473   */\n      mstore\n        /* \"#utility.yul\":3496:3500   */\n      0x21\n        /* \"#utility.yul\":3493:3494   */\n      0x04\n        /* \"#utility.yul\":3486:3501   */\n      mstore\n        /* \"#utility.yul\":3524:3528   */\n      0x24\n        /* \"#utility.yul\":3521:3522   */\n      0x00\n        /* \"#utility.yul\":3514:3529   */\n      revert\n        /* \"#utility.yul\":3395:3397   */\n    tag_318:\n        /* \"#utility.yul\":3548:3573   */\n      swap2\n      swap1\n      mstore\n        /* \"#utility.yul\":3350:3579   */\n      swap1\n      jump\t// out\n        /* \"#utility.yul\":3584:3804   */\n    tag_80:\n        /* \"#utility.yul\":3733:3735   */\n      0x20\n        /* \"#utility.yul\":3722:3731   */\n      dup2\n        /* \"#utility.yul\":3715:3736   */\n      mstore\n        /* \"#utility.yul\":3696:3700   */\n      0x00\n        /* \"#utility.yul\":3753:3798   */\n      tag_296\n        /* \"#utility.yul\":3794:3796   */\n      0x20\n        /* \"#utility.yul\":3783:3792   */\n      dup4\n        /* \"#utility.yul\":3779:3797   */\n      add\n        /* \"#utility.yul\":3771:3777   */\n      dup5\n        /* \"#utility.yul\":3753:3798   */\n      tag_308\n      jump\t// in\n        /* \"#utility.yul\":3809:4110   */\n    tag_44:\n        /* \"#utility.yul\":3980:3982   */\n      0x40\n        /* \"#utility.yul\":3969:3978   */\n      dup2\n        /* \"#utility.yul\":3962:3983   */\n      mstore\n        /* \"#utility.yul\":3943:3947   */\n      0x00\n        /* \"#utility.yul\":4000:4045   */\n      tag_322\n        /* \"#utility.yul\":4041:4043   */\n      0x40\n        /* \"#utility.yul\":4030:4039   */\n      dup4\n        /* \"#utility.yul\":4026:4044   */\n      add\n        /* \"#utility.yul\":4018:4024   */\n      dup6\n        /* \"#utility.yul\":4000:4045   */\n      tag_308\n      jump\t// in\n    tag_322:\n        /* \"#utility.yul\":3992:4045   */\n      swap1\n      pop\n        /* \"#utility.yul\":4095:4101   */\n      dup3\n        /* \"#utility.yul\":4088:4102   */\n      iszero\n        /* \"#utility.yul\":4081:4103   */\n      iszero\n        /* \"#utility.yul\":4076:4078   */\n      0x20\n        /* \"#utility.yul\":4065:4074   */\n      dup4\n        /* \"#utility.yul\":4061:4079   */\n      add\n        /* \"#utility.yul\":4054:4104   */\n      mstore\n        /* \"#utility.yul\":3952:4110   */\n      swap4\n      swap3\n      pop\n      pop\n      pop\n      jump\t// out\n        /* \"#utility.yul\":5929:6275   */\n    tag_101:\n        /* \"#utility.yul\":6131:6133   */\n      0x20\n        /* \"#utility.yul\":6113:6134   */\n      dup1\n      dup3\n      mstore\n        /* \"#utility.yul\":6170:6172   */\n      0x16\n        /* \"#utility.yul\":6150:6168   */\n      swap1\n      dup3\n      add\n        /* \"#utility.yul\":6143:6173   */\n      mstore\n      shl(0x51, 0x21b7b73a3930b1ba1034b99039b43aba103237bbb717)\n        /* \"#utility.yul\":6204:6206   */\n      0x40\n        /* \"#utility.yul\":6189:6207   */\n      dup3\n      add\n        /* \"#utility.yul\":6182:6234   */\n      mstore\n        /* \"#utility.yul\":6266:6268   */\n      0x60\n        /* \"#utility.yul\":6251:6269   */\n      add\n      swap1\n        /* \"#utility.yul\":6103:6275   */\n      jump\t// out\n        /* \"#utility.yul\":6280:6679   */\n    tag_150:\n        /* \"#utility.yul\":6482:6484   */\n      0x20\n        /* \"#utility.yul\":6464:6485   */\n      dup1\n      dup3\n      mstore\n        /* \"#utility.yul\":6521:6523   */\n      0x23\n        /* \"#utility.yul\":6501:6519   */\n      swap1\n      dup3\n      add\n        /* \"#utility.yul\":6494:6524   */\n      mstore\n        /* \"#utility.yul\":6560:6594   */\n      0x43616e206f6e6c7920626520657865637574656420627920746865206d616e61\n        /* \"#utility.yul\":6555:6557   */\n      0x40\n        /* \"#utility.yul\":6540:6558   */\n      dup3\n      add\n        /* \"#utility.yul\":6533:6595   */\n      mstore\n      shl(0xe9, 0x33b2b9)\n        /* \"#utility.yul\":6626:6628   */\n      0x60\n        /* \"#utility.yul\":6611:6629   */\n      dup3\n      add\n        /* \"#utility.yul\":6604:6637   */\n      mstore\n        /* \"#utility.yul\":6669:6672   */\n      0x80\n        /* \"#utility.yul\":6654:6673   */\n      add\n      swap1\n        /* \"#utility.yul\":6454:6679   */\n      jump\t// out\n        /* \"#utility.yul\":6684:7084   */\n    tag_110:\n        /* \"#utility.yul\":6886:6888   */\n      0x20\n        /* \"#utility.yul\":6868:6889   */\n      dup1\n      dup3\n      mstore\n        /* \"#utility.yul\":6925:6927   */\n      0x24\n        /* \"#utility.yul\":6905:6923   */\n      swap1\n      dup3\n      add\n        /* \"#utility.yul\":6898:6928   */\n      mstore\n        /* \"#utility.yul\":6964:6998   */\n      0x416374696f6e206e6f7420616c6c6f77656420696e2063757272656e74207068\n        /* \"#utility.yul\":6959:6961   */\n      0x40\n        /* \"#utility.yul\":6944:6962   */\n      dup3\n      add\n        /* \"#utility.yul\":6937:6999   */\n      mstore\n      shl(0xe1, 0x30b9b297)\n        /* \"#utility.yul\":7030:7032   */\n      0x60\n        /* \"#utility.yul\":7015:7033   */\n      dup3\n      add\n        /* \"#utility.yul\":7008:7042   */\n      mstore\n        /* \"#utility.yul\":7074:7077   */\n      0x80\n        /* \"#utility.yul\":7059:7078   */\n      add\n      swap1\n        /* \"#utility.yul\":6858:7084   */\n      jump\t// out\n        /* \"#utility.yul\":9143:9271   */\n    tag_138:\n        /* \"#utility.yul\":9183:9186   */\n      0x00\n        /* \"#utility.yul\":9214:9215   */\n      dup3\n        /* \"#utility.yul\":9210:9216   */\n      not\n        /* \"#utility.yul\":9207:9208   */\n      dup3\n        /* \"#utility.yul\":9204:9217   */\n      gt\n        /* \"#utility.yul\":9201:9203   */\n      iszero\n      tag_339\n      jumpi\n        /* \"#utility.yul\":9220:9238   */\n      tag_339\n      tag_340\n      jump\t// in\n    tag_339:\n      pop\n        /* \"#utility.yul\":9256:9265   */\n      add\n      swap1\n        /* \"#utility.yul\":9191:9271   */\n      jump\t// out\n        /* \"#utility.yul\":9276:9493   */\n    tag_136:\n        /* \"#utility.yul\":9316:9317   */\n      0x00\n        /* \"#utility.yul\":9342:9343   */\n      dup3\n        /* \"#utility.yul\":9332:9334   */\n      tag_342\n      jumpi\n        /* \"#utility.yul\":9386:9396   */\n      0x4e487b71\n        /* \"#utility.yul\":9381:9384   */\n      0xe0\n        /* \"#utility.yul\":9377:9397   */\n      shl\n        /* \"#utility.yul\":9374:9375   */\n      0x00\n        /* \"#utility.yul\":9367:9398   */\n      mstore\n        /* \"#utility.yul\":9421:9425   */\n      0x12\n        /* \"#utility.yul\":9418:9419   */\n      0x04\n        /* \"#utility.yul\":9411:9426   */\n      mstore\n        /* \"#utility.yul\":9449:9453   */\n      0x24\n        /* \"#utility.yul\":9446:9447   */\n      0x00\n        /* \"#utility.yul\":9439:9454   */\n      revert\n        /* \"#utility.yul\":9332:9334   */\n    tag_342:\n      pop\n        /* \"#utility.yul\":9478:9487   */\n      div\n      swap1\n        /* \"#utility.yul\":9322:9493   */\n      jump\t// out\n        /* \"#utility.yul\":9498:9756   */\n    tag_311:\n        /* \"#utility.yul\":9570:9571   */\n      0x00\n        /* \"#utility.yul\":9580:9693   */\n    tag_344:\n        /* \"#utility.yul\":9594:9600   */\n      dup4\n        /* \"#utility.yul\":9591:9592   */\n      dup2\n        /* \"#utility.yul\":9588:9601   */\n      lt\n        /* \"#utility.yul\":9580:9693   */\n      iszero\n      tag_346\n      jumpi\n        /* \"#utility.yul\":9670:9681   */\n      dup2\n      dup2\n      add\n        /* \"#utility.yul\":9664:9682   */\n      mload\n        /* \"#utility.yul\":9651:9662   */\n      dup4\n      dup3\n      add\n        /* \"#utility.yul\":9644:9683   */\n      mstore\n        /* \"#utility.yul\":9616:9618   */\n      0x20\n        /* \"#utility.yul\":9609:9619   */\n      add\n        /* \"#utility.yul\":9580:9693   */\n      jump(tag_344)\n    tag_346:\n        /* \"#utility.yul\":9711:9717   */\n      dup4\n        /* \"#utility.yul\":9708:9709   */\n      dup2\n        /* \"#utility.yul\":9705:9718   */\n      gt\n        /* \"#utility.yul\":9702:9704   */\n      iszero\n      tag_347\n      jumpi\n        /* \"#utility.yul\":9746:9747   */\n      0x00\n        /* \"#utility.yul\":9737:9743   */\n      dup5\n        /* \"#utility.yul\":9732:9735   */\n      dup5\n        /* \"#utility.yul\":9728:9744   */\n      add\n        /* \"#utility.yul\":9721:9748   */\n      mstore\n        /* \"#utility.yul\":9702:9704   */\n    tag_347:\n      pop\n        /* \"#utility.yul\":9551:9756   */\n      pop\n      pop\n      pop\n      jump\t// out\n        /* \"#utility.yul\":9761:10141   */\n    tag_120:\n        /* \"#utility.yul\":9840:9841   */\n      0x01\n        /* \"#utility.yul\":9836:9848   */\n      dup2\n      dup2\n      shr\n      swap1\n        /* \"#utility.yul\":9883:9895   */\n      dup3\n      and\n      dup1\n        /* \"#utility.yul\":9904:9906   */\n      tag_349\n      jumpi\n        /* \"#utility.yul\":9958:9962   */\n      0x7f\n        /* \"#utility.yul\":9950:9956   */\n      dup3\n        /* \"#utility.yul\":9946:9963   */\n      and\n        /* \"#utility.yul\":9936:9963   */\n      swap2\n      pop\n        /* \"#utility.yul\":9904:9906   */\n    tag_349:\n        /* \"#utility.yul\":10011:10013   */\n      0x20\n        /* \"#utility.yul\":10003:10009   */\n      dup3\n        /* \"#utility.yul\":10000:10014   */\n      lt\n        /* \"#utility.yul\":9980:9998   */\n      dup2\n        /* \"#utility.yul\":9977:10015   */\n      eq\n        /* \"#utility.yul\":9974:9976   */\n      iszero\n      tag_115\n      jumpi\n        /* \"#utility.yul\":10057:10067   */\n      0x4e487b71\n        /* \"#utility.yul\":10052:10055   */\n      0xe0\n        /* \"#utility.yul\":10048:10068   */\n      shl\n        /* \"#utility.yul\":10045:10046   */\n      0x00\n        /* \"#utility.yul\":10038:10069   */\n      mstore\n        /* \"#utility.yul\":10092:10096   */\n      0x22\n        /* \"#utility.yul\":10089:10090   */\n      0x04\n        /* \"#utility.yul\":10082:10097   */\n      mstore\n        /* \"#utility.yul\":10120:10124   */\n      0x24\n        /* \"#utility.yul\":10117:10118   */\n      0x00\n        /* \"#utility.yul\":10110:10125   */\n      revert\n        /* \"#utility.yul\":10146:10281   */\n    tag_134:\n        /* \"#utility.yul\":10185:10188   */\n      0x00\n      not(0x00)\n        /* \"#utility.yul\":10206:10223   */\n      dup3\n      eq\n        /* \"#utility.yul\":10203:10205   */\n      iszero\n      tag_353\n      jumpi\n        /* \"#utility.yul\":10226:10244   */\n      tag_353\n      tag_340\n      jump\t// in\n    tag_353:\n      pop\n        /* \"#utility.yul\":10273:10274   */\n      0x01\n        /* \"#utility.yul\":10262:10275   */\n      add\n      swap1\n        /* \"#utility.yul\":10193:10281   */\n      jump\t// out\n        /* \"#utility.yul\":10286:10413   */\n    tag_340:\n        /* \"#utility.yul\":10347:10357   */\n      0x4e487b71\n        /* \"#utility.yul\":10342:10345   */\n      0xe0\n        /* \"#utility.yul\":10338:10358   */\n      shl\n        /* \"#utility.yul\":10335:10336   */\n      0x00\n        /* \"#utility.yul\":10328:10359   */\n      mstore\n        /* \"#utility.yul\":10378:10382   */\n      0x11\n        /* \"#utility.yul\":10375:10376   */\n      0x04\n        /* \"#utility.yul\":10368:10383   */\n      mstore\n        /* \"#utility.yul\":10402:10406   */\n      0x24\n        /* \"#utility.yul\":10399:10400   */\n      0x00\n        /* \"#utility.yul\":10392:10407   */\n      revert\n        /* \"#utility.yul\":10418:10545   */\n    tag_105:\n        /* \"#utility.yul\":10479:10489   */\n      0x4e487b71\n        /* \"#utility.yul\":10474:10477   */\n      0xe0\n        /* \"#utility.yul\":10470:10490   */\n      shl\n        /* \"#utility.yul\":10467:10468   */\n      0x00\n        /* \"#utility.yul\":10460:10491   */\n      mstore\n        /* \"#utility.yul\":10510:10514   */\n      0x21\n        /* \"#utility.yul\":10507:10508   */\n      0x04\n        /* \"#utility.yul\":10500:10515   */\n      mstore\n        /* \"#utility.yul\":10534:10538   */\n      0x24\n        /* \"#utility.yul\":10531:10532   */\n      0x00\n        /* \"#utility.yul\":10524:10539   */\n      revert\n        /* \"#utility.yul\":10550:10677   */\n    tag_290:\n        /* \"#utility.yul\":10611:10621   */\n      0x4e487b71\n        /* \"#utility.yul\":10606:10609   */\n      0xe0\n        /* \"#utility.yul\":10602:10622   */\n      shl\n        /* \"#utility.yul\":10599:10600   */\n      0x00\n        /* \"#utility.yul\":10592:10623   */\n      mstore\n        /* \"#utility.yul\":10642:10646   */\n      0x41\n        /* \"#utility.yul\":10639:10640   */\n      0x04\n        /* \"#utility.yul\":10632:10647   */\n      mstore\n        /* \"#utility.yul\":10666:10670   */\n      0x24\n        /* \"#utility.yul\":10663:10664   */\n      0x00\n        /* \"#utility.yul\":10656:10671   */\n      revert\n\n    auxdata: 0xa2646970667358221220b610a25214275cb476419693b5b24b84687eb249a805a575acee833f2a4703ad64736f6c63430008050033\n}\n",
				"bytecode": {
					"linkReferences": {},
					"object": "600060028190556003819055600481905560a0604081905260808290526200002b91600691906200006a565b506009805461ffff19166001179055600b805460ff191690553480156200005157600080fd5b50600580546001600160a01b031916331790556200014d565b828054620000789062000110565b90600052602060002090601f0160209004810192826200009c5760008555620000e7565b82601f10620000b757805160ff1916838001178555620000e7565b82800160010185558215620000e7579182015b82811115620000e7578251825591602001919060010190620000ca565b50620000f5929150620000f9565b5090565b5b80821115620000f55760008155600101620000fa565b600181811c908216806200012557607f821691505b602082108114156200014757634e487b7160e01b600052602260045260246000fd5b50919050565b6112a6806200015d6000396000f3fe608060405234801561001057600080fd5b50600436106101215760003560e01c80636d77bd3e116100ad578063b798867f11610071578063b798867f146102c0578063bf86d690146102c9578063c1c16efc146102d6578063c3403ddf146102de578063fc0e74d1146102e657600080fd5b80636d77bd3e14610257578063788d38511461026a578063a3bef4d714610277578063ad5461d814610280578063b2c2f2e8146102a057600080fd5b80633b9f708d116100f45780633b9f708d146101a95780633d2f5bda146101bc57806347098f36146101d1578063481c6a75146101da5780635df813301461020557600080fd5b8063055ad42e14610126578063083c63231461014e578063124258c6146101655780631ddabf7a14610188575b600080fd5b60095461013890610100900460ff1681565b604051610145919061105e565b60405180910390f35b610157600a5481565b604051908152602001610145565b610178610173366004610ffd565b6102ee565b6040519015158152602001610145565b61019b610196366004610f50565b6105ed565b604051610145929190611099565b6101576101b7366004610f72565b610694565b6101cf6101ca366004610ffd565b610806565b005b61015760035481565b6005546101ed906001600160a01b031681565b6040516001600160a01b039091168152602001610145565b610238610213366004610ffd565b600760205260009081526040902080546001909101546001600160a01b039091169082565b604080516001600160a01b039093168352602083019190915201610145565b610157610265366004610fc0565b61096d565b6009546101789060ff1681565b61015760045481565b61029361028e366004610ffd565b610ade565b6040516101459190611086565b6101576102ae366004610ffd565b60009081526008602052604090205490565b61015760025481565b600b546101789060ff1681565b610293610b78565b6101cf610b85565b6101cf610c57565b600b5460009060ff161561031d5760405162461bcd60e51b8152600401610314906110bd565b60405180910390fd5b600180600954610100900460ff16600281111561033c5761033c611244565b146103595760405162461bcd60e51b815260040161031490611130565b60095460ff1615156001146103bc5760405162461bcd60e51b815260206004820152602360248201527f43616e20766f7465206f6e6c79207768696c6520766f74696e67206973206f7060448201526232b71760e91b6064820152608401610314565b600a544311156104055760405162461bcd60e51b81526020600482015260146024820152732b37ba34b733903832b934b7b21032b73232b21760611b6044820152606401610314565b336000908152600160205260409020805461041f906111de565b1515905061046f5760405162461bcd60e51b815260206004820181905260248201527f596f7520617265206e6f742061207265676973746572656420667269656e642e6044820152606401610314565b336000908152600160208190526040909120015460ff16156104d35760405162461bcd60e51b815260206004820152601760248201527f596f75206861766520616c726561647920766f7465642e0000000000000000006044820152606401610314565b600083815260208190526040902080546104ec906111de565b1515905061053c5760405162461bcd60e51b815260206004820152601a60248201527f52657374617572616e7420646f6573206e6f742065786973742e0000000000006044820152606401610314565b3360008181526001602081815260408084208301805460ff1916841790558051808201909152938452830186905260048054919550909161057c83611213565b90915550506004546000908152600760209081526040909120825181546001600160a01b0319166001600160a01b03909116178155908201516001909101556003546105ca9060029061118c565b6105d5906001611174565b600454106105e5576105e5610c9f565b505b50919050565b600160205260009081526040902080548190610608906111de565b80601f0160208091040260200160405190810160405280929190818152602001828054610634906111de565b80156106815780601f1061065657610100808354040283529160200191610681565b820191906000526020600020905b81548152906001019060200180831161066457829003601f168201915b5050506001909301549192505060ff1682565b6005546000906001600160a01b031633146106c15760405162461bcd60e51b8152600401610314906110ed565b600b5460ff16156106e45760405162461bcd60e51b8152600401610314906110bd565b600080600954610100900460ff16600281111561070357610703611244565b146107205760405162461bcd60e51b815260040161031490611130565b6001600160a01b03841660009081526001602052604090208054610743906111de565b15905061078b5760405162461bcd60e51b8152602060048201526016602482015275233934b2b7321030b63932b0b23c9032bc34b9ba399760511b6044820152606401610314565b604080518082018252600060208083018290528683526001600160a01b03881682526001815292902081518051929384936107c99284920190610d93565b50602091909101516001909101805460ff1916911515919091179055600380549060006107f583611213565b909155505060035495945050505050565b6005546001600160a01b031633146108305760405162461bcd60e51b8152600401610314906110ed565b600b5460ff16156108535760405162461bcd60e51b8152600401610314906110bd565b600080600954610100900460ff16600281111561087257610872611244565b1461088f5760405162461bcd60e51b815260040161031490611130565b6001600254116108f05760405162461bcd60e51b815260206004820152602660248201527f4174206c65617374206f6e652072657374617572616e74206d7573742062652060448201526530b23232b21760d11b6064820152608401610314565b60016003541161094d5760405162461bcd60e51b815260206004820152602260248201527f4174206c65617374206f6e6520667269656e64206d7573742062652061646465604482015261321760f11b6064820152608401610314565b6109578243611174565b600a5550506009805461ffff1916610101179055565b6005546000906001600160a01b0316331461099a5760405162461bcd60e51b8152600401610314906110ed565b600b5460ff16156109bd5760405162461bcd60e51b8152600401610314906110bd565b600080600954610100900460ff1660028111156109dc576109dc611244565b146109f95760405162461bcd60e51b815260040161031490611130565b600083604051602001610a0c9190611042565b60408051601f1981840301815291815281516020928301206000818152600c90935291205490915060ff1615610a845760405162461bcd60e51b815260206004820152601a60248201527f52657374617572616e7420616c7265616479206578697374732e0000000000006044820152606401610314565b60028054906000610a9483611213565b90915550506002546000908152602081815260409091208551610ab992870190610d93565b506000908152600c60205260409020805460ff19166001179055600254915050919050565b60006020819052908152604090208054610af7906111de565b80601f0160208091040260200160405190810160405280929190818152602001828054610b23906111de565b8015610b705780601f10610b4557610100808354040283529160200191610b70565b820191906000526020600020905b815481529060010190602001808311610b5357829003601f168201915b505050505081565b60068054610af7906111de565b6005546001600160a01b03163314610baf5760405162461bcd60e51b8152600401610314906110ed565b600b5460ff1615610bd25760405162461bcd60e51b8152600401610314906110bd565b6001600954610100900460ff166002811115610bf057610bf0611244565b14610c345760405162461bcd60e51b81526020600482015260146024820152732737ba1034b7103b37ba34b73390383430b9b29760611b6044820152606401610314565b60045415610c4657610c44610c9f565b565b6009805461ffff1916610200179055565b6005546001600160a01b03163314610c815760405162461bcd60e51b8152600401610314906110ed565b600b805460ff191660011790556009805461ffff1916610200179055565b60008060015b6004548111610d56576000818152600760209081526040808320600190810154845260089092529091205415610d015760008281526007602090815260408083206001015483526008909152902054610cfe9082611174565b90505b60008281526007602090815260408083206001015483526008909152902081905583811115610d43576000828152600760205260409020600101549093509150825b5080610d4e81611213565b915050610ca5565b506000818152602081905260409020805460069190610d74906111de565b610d7f929190610e17565b50506009805461ffff191661020017905550565b828054610d9f906111de565b90600052602060002090601f016020900481019282610dc15760008555610e07565b82601f10610dda57805160ff1916838001178555610e07565b82800160010185558215610e07579182015b82811115610e07578251825591602001919060010190610dec565b50610e13929150610e92565b5090565b828054610e23906111de565b90600052602060002090601f016020900481019282610e455760008555610e07565b82601f10610e565780548555610e07565b82800160010185558215610e0757600052602060002091601f016020900482015b82811115610e07578254825591600101919060010190610e77565b5b80821115610e135760008155600101610e93565b80356001600160a01b0381168114610ebe57600080fd5b919050565b600082601f830112610ed457600080fd5b813567ffffffffffffffff80821115610eef57610eef61125a565b604051601f8301601f19908116603f01168101908282118183101715610f1757610f1761125a565b81604052838152866020858801011115610f3057600080fd5b836020870160208301376000602085830101528094505050505092915050565b600060208284031215610f6257600080fd5b610f6b82610ea7565b9392505050565b60008060408385031215610f8557600080fd5b610f8e83610ea7565b9150602083013567ffffffffffffffff811115610faa57600080fd5b610fb685828601610ec3565b9150509250929050565b600060208284031215610fd257600080fd5b813567ffffffffffffffff811115610fe957600080fd5b610ff584828501610ec3565b949350505050565b60006020828403121561100f57600080fd5b5035919050565b6000815180845261102e8160208601602086016111ae565b601f01601f19169290920160200192915050565b600082516110548184602087016111ae565b9190910192915050565b602081016003831061108057634e487b7160e01b600052602160045260246000fd5b91905290565b602081526000610f6b6020830184611016565b6040815260006110ac6040830185611016565b905082151560208301529392505050565b60208082526016908201527521b7b73a3930b1ba1034b99039b43aba103237bbb71760511b604082015260600190565b60208082526023908201527f43616e206f6e6c7920626520657865637574656420627920746865206d616e6160408201526233b2b960e91b606082015260800190565b60208082526024908201527f416374696f6e206e6f7420616c6c6f77656420696e2063757272656e7420706860408201526330b9b29760e11b606082015260800190565b600082198211156111875761118761122e565b500190565b6000826111a957634e487b7160e01b600052601260045260246000fd5b500490565b60005b838110156111c95781810151838201526020016111b1565b838111156111d8576000848401525b50505050565b600181811c908216806111f257607f821691505b602082108114156105e757634e487b7160e01b600052602260045260246000fd5b60006000198214156112275761122761122e565b5060010190565b634e487b7160e01b600052601160045260246000fd5b634e487b7160e01b600052602160045260246000fd5b634e487b7160e01b600052604160045260246000fdfea2646970667358221220b610a25214275cb476419693b5b24b84687eb249a805a575acee833f2a4703ad64736f6c63430008050033",
					"opcodes": "PUSH1 0x0 PUSH1 0x2 DUP2 SWAP1 SSTORE PUSH1 0x3 DUP2 SWAP1 SSTORE PUSH1 0x4 DUP2 SWAP1 SSTORE PUSH1 0xA0 PUSH1 0x40 DUP2 SWAP1 MSTORE PUSH1 0x80 DUP3 SWAP1 MSTORE PUSH3 0x2B SWAP2 PUSH1 0x6 SWAP2 SWAP1 PUSH3 0x6A JUMP JUMPDEST POP PUSH1 0x9 DUP1 SLOAD PUSH2 0xFFFF NOT AND PUSH1 0x1 OR SWAP1 SSTORE PUSH1 0xB DUP1 SLOAD PUSH1 0xFF NOT AND SWAP1 SSTORE CALLVALUE DUP1 ISZERO PUSH3 0x51 JUMPI PUSH1 0x0 DUP1 REVERT JUMPDEST POP PUSH1 0x5 DUP1 SLOAD PUSH1 0x1 PUSH1 0x1 PUSH1 0xA0 SHL SUB NOT AND CALLER OR SWAP1 SSTORE PUSH3 0x14D JUMP JUMPDEST DUP3 DUP1 SLOAD PUSH3 0x78 SWAP1 PUSH3 0x110 JUMP JUMPDEST SWAP1 PUSH1 0x0 MSTORE PUSH1 0x20 PUSH1 0x0 KECCAK256 SWAP1 PUSH1 0x1F ADD PUSH1 0x20 SWAP1 DIV DUP2 ADD SWAP3 DUP3 PUSH3 0x9C JUMPI PUSH1 0x0 DUP6 SSTORE PUSH3 0xE7 JUMP JUMPDEST DUP3 PUSH1 0x1F LT PUSH3 0xB7 JUMPI DUP1 MLOAD PUSH1 0xFF NOT AND DUP4 DUP1 ADD OR DUP6 SSTORE PUSH3 0xE7 JUMP JUMPDEST DUP3 DUP1 ADD PUSH1 0x1 ADD DUP6 SSTORE DUP3 ISZERO PUSH3 0xE7 JUMPI SWAP2 DUP3 ADD JUMPDEST DUP3 DUP2 GT ISZERO PUSH3 0xE7 JUMPI DUP3 MLOAD DUP3 SSTORE SWAP2 PUSH1 0x20 ADD SWAP2 SWAP1 PUSH1 0x1 ADD SWAP1 PUSH3 0xCA JUMP JUMPDEST POP PUSH3 0xF5 SWAP3 SWAP2 POP PUSH3 0xF9 JUMP JUMPDEST POP SWAP1 JUMP JUMPDEST JUMPDEST DUP1 DUP3 GT ISZERO PUSH3 0xF5 JUMPI PUSH1 0x0 DUP2 SSTORE PUSH1 0x1 ADD PUSH3 0xFA JUMP JUMPDEST PUSH1 0x1 DUP2 DUP2 SHR SWAP1 DUP3 AND DUP1 PUSH3 0x125 JUMPI PUSH1 0x7F DUP3 AND SWAP2 POP JUMPDEST PUSH1 0x20 DUP3 LT DUP2 EQ ISZERO PUSH3 0x147 JUMPI PUSH4 0x4E487B71 PUSH1 0xE0 SHL PUSH1 0x0 MSTORE PUSH1 0x22 PUSH1 0x4 MSTORE PUSH1 0x24 PUSH1 0x0 REVERT JUMPDEST POP SWAP2 SWAP1 POP JUMP JUMPDEST PUSH2 0x12A6 DUP1 PUSH3 0x15D PUSH1 0x0 CODECOPY PUSH1 0x0 RETURN INVALID PUSH1 0x80 PUSH1 0x40 MSTORE CALLVALUE DUP1 ISZERO PUSH2 0x10 JUMPI PUSH1 0x0 DUP1 REVERT JUMPDEST POP PUSH1 0x4 CALLDATASIZE LT PUSH2 0x121 JUMPI PUSH1 0x0 CALLDATALOAD PUSH1 0xE0 SHR DUP1 PUSH4 0x6D77BD3E GT PUSH2 0xAD JUMPI DUP1 PUSH4 0xB798867F GT PUSH2 0x71 JUMPI DUP1 PUSH4 0xB798867F EQ PUSH2 0x2C0 JUMPI DUP1 PUSH4 0xBF86D690 EQ PUSH2 0x2C9 JUMPI DUP1 PUSH4 0xC1C16EFC EQ PUSH2 0x2D6 JUMPI DUP1 PUSH4 0xC3403DDF EQ PUSH2 0x2DE JUMPI DUP1 PUSH4 0xFC0E74D1 EQ PUSH2 0x2E6 JUMPI PUSH1 0x0 DUP1 REVERT JUMPDEST DUP1 PUSH4 0x6D77BD3E EQ PUSH2 0x257 JUMPI DUP1 PUSH4 0x788D3851 EQ PUSH2 0x26A JUMPI DUP1 PUSH4 0xA3BEF4D7 EQ PUSH2 0x277 JUMPI DUP1 PUSH4 0xAD5461D8 EQ PUSH2 0x280 JUMPI DUP1 PUSH4 0xB2C2F2E8 EQ PUSH2 0x2A0 JUMPI PUSH1 0x0 DUP1 REVERT JUMPDEST DUP1 PUSH4 0x3B9F708D GT PUSH2 0xF4 JUMPI DUP1 PUSH4 0x3B9F708D EQ PUSH2 0x1A9 JUMPI DUP1 PUSH4 0x3D2F5BDA EQ PUSH2 0x1BC JUMPI DUP1 PUSH4 0x47098F36 EQ PUSH2 0x1D1 JUMPI DUP1 PUSH4 0x481C6A75 EQ PUSH2 0x1DA JUMPI DUP1 PUSH4 0x5DF81330 EQ PUSH2 0x205 JUMPI PUSH1 0x0 DUP1 REVERT JUMPDEST DUP1 PUSH4 0x55AD42E EQ PUSH2 0x126 JUMPI DUP1 PUSH4 0x83C6323 EQ PUSH2 0x14E JUMPI DUP1 PUSH4 0x124258C6 EQ PUSH2 0x165 JUMPI DUP1 PUSH4 0x1DDABF7A EQ PUSH2 0x188 JUMPI JUMPDEST PUSH1 0x0 DUP1 REVERT JUMPDEST PUSH1 0x9 SLOAD PUSH2 0x138 SWAP1 PUSH2 0x100 SWAP1 DIV PUSH1 0xFF AND DUP2 JUMP JUMPDEST PUSH1 0x40 MLOAD PUSH2 0x145 SWAP2 SWAP1 PUSH2 0x105E JUMP JUMPDEST PUSH1 0x40 MLOAD DUP1 SWAP2 SUB SWAP1 RETURN JUMPDEST PUSH2 0x157 PUSH1 0xA SLOAD DUP2 JUMP JUMPDEST PUSH1 0x40 MLOAD SWAP1 DUP2 MSTORE PUSH1 0x20 ADD PUSH2 0x145 JUMP JUMPDEST PUSH2 0x178 PUSH2 0x173 CALLDATASIZE PUSH1 0x4 PUSH2 0xFFD JUMP JUMPDEST PUSH2 0x2EE JUMP JUMPDEST PUSH1 0x40 MLOAD SWAP1 ISZERO ISZERO DUP2 MSTORE PUSH1 0x20 ADD PUSH2 0x145 JUMP JUMPDEST PUSH2 0x19B PUSH2 0x196 CALLDATASIZE PUSH1 0x4 PUSH2 0xF50 JUMP JUMPDEST PUSH2 0x5ED JUMP JUMPDEST PUSH1 0x40 MLOAD PUSH2 0x145 SWAP3 SWAP2 SWAP1 PUSH2 0x1099 JUMP JUMPDEST PUSH2 0x157 PUSH2 0x1B7 CALLDATASIZE PUSH1 0x4 PUSH2 0xF72 JUMP JUMPDEST PUSH2 0x694 JUMP JUMPDEST PUSH2 0x1CF PUSH2 0x1CA CALLDATASIZE PUSH1 0x4 PUSH2 0xFFD JUMP JUMPDEST PUSH2 0x806 JUMP JUMPDEST STOP JUMPDEST PUSH2 0x157 PUSH1 0x3 SLOAD DUP2 JUMP JUMPDEST PUSH1 0x5 SLOAD PUSH2 0x1ED SWAP1 PUSH1 0x1 PUSH1 0x1 PUSH1 0xA0 SHL SUB AND DUP2 JUMP JUMPDEST PUSH1 0x40 MLOAD PUSH1 0x1 PUSH1 0x1 PUSH1 0xA0 SHL SUB SWAP1 SWAP2 AND DUP2 MSTORE PUSH1 0x20 ADD PUSH2 0x145 JUMP JUMPDEST PUSH2 0x238 PUSH2 0x213 CALLDATASIZE PUSH1 0x4 PUSH2 0xFFD JUMP JUMPDEST PUSH1 0x7 PUSH1 0x20 MSTORE PUSH1 0x0 SWAP1 DUP2 MSTORE PUSH1 0x40 SWAP1 KECCAK256 DUP1 SLOAD PUSH1 0x1 SWAP1 SWAP2 ADD SLOAD PUSH1 0x1 PUSH1 0x1 PUSH1 0xA0 SHL SUB SWAP1 SWAP2 AND SWAP1 DUP3 JUMP JUMPDEST PUSH1 0x40 DUP1 MLOAD PUSH1 0x1 PUSH1 0x1 PUSH1 0xA0 SHL SUB SWAP1 SWAP4 AND DUP4 MSTORE PUSH1 0x20 DUP4 ADD SWAP2 SWAP1 SWAP2 MSTORE ADD PUSH2 0x145 JUMP JUMPDEST PUSH2 0x157 PUSH2 0x265 CALLDATASIZE PUSH1 0x4 PUSH2 0xFC0 JUMP JUMPDEST PUSH2 0x96D JUMP JUMPDEST PUSH1 0x9 SLOAD PUSH2 0x178 SWAP1 PUSH1 0xFF AND DUP2 JUMP JUMPDEST PUSH2 0x157 PUSH1 0x4 SLOAD DUP2 JUMP JUMPDEST PUSH2 0x293 PUSH2 0x28E CALLDATASIZE PUSH1 0x4 PUSH2 0xFFD JUMP JUMPDEST PUSH2 0xADE JUMP JUMPDEST PUSH1 0x40 MLOAD PUSH2 0x145 SWAP2 SWAP1 PUSH2 0x1086 JUMP JUMPDEST PUSH2 0x157 PUSH2 0x2AE CALLDATASIZE PUSH1 0x4 PUSH2 0xFFD JUMP JUMPDEST PUSH1 0x0 SWAP1 DUP2 MSTORE PUSH1 0x8 PUSH1 0x20 MSTORE PUSH1 0x40 SWAP1 KECCAK256 SLOAD SWAP1 JUMP JUMPDEST PUSH2 0x157 PUSH1 0x2 SLOAD DUP2 JUMP JUMPDEST PUSH1 0xB SLOAD PUSH2 0x178 SWAP1 PUSH1 0xFF AND DUP2 JUMP JUMPDEST PUSH2 0x293 PUSH2 0xB78 JUMP JUMPDEST PUSH2 0x1CF PUSH2 0xB85 JUMP JUMPDEST PUSH2 0x1CF PUSH2 0xC57 JUMP JUMPDEST PUSH1 0xB SLOAD PUSH1 0x0 SWAP1 PUSH1 0xFF AND ISZERO PUSH2 0x31D JUMPI PUSH1 0x40 MLOAD PUSH3 0x461BCD PUSH1 0xE5 SHL DUP2 MSTORE PUSH1 0x4 ADD PUSH2 0x314 SWAP1 PUSH2 0x10BD JUMP JUMPDEST PUSH1 0x40 MLOAD DUP1 SWAP2 SUB SWAP1 REVERT JUMPDEST PUSH1 0x1 DUP1 PUSH1 0x9 SLOAD PUSH2 0x100 SWAP1 DIV PUSH1 0xFF AND PUSH1 0x2 DUP2 GT ISZERO PUSH2 0x33C JUMPI PUSH2 0x33C PUSH2 0x1244 JUMP JUMPDEST EQ PUSH2 0x359 JUMPI PUSH1 0x40 MLOAD PUSH3 0x461BCD PUSH1 0xE5 SHL DUP2 MSTORE PUSH1 0x4 ADD PUSH2 0x314 SWAP1 PUSH2 0x1130 JUMP JUMPDEST PUSH1 0x9 SLOAD PUSH1 0xFF AND ISZERO ISZERO PUSH1 0x1 EQ PUSH2 0x3BC JUMPI PUSH1 0x40 MLOAD PUSH3 0x461BCD PUSH1 0xE5 SHL DUP2 MSTORE PUSH1 0x20 PUSH1 0x4 DUP3 ADD MSTORE PUSH1 0x23 PUSH1 0x24 DUP3 ADD MSTORE PUSH32 0x43616E20766F7465206F6E6C79207768696C6520766F74696E67206973206F70 PUSH1 0x44 DUP3 ADD MSTORE PUSH3 0x32B717 PUSH1 0xE9 SHL PUSH1 0x64 DUP3 ADD MSTORE PUSH1 0x84 ADD PUSH2 0x314 JUMP JUMPDEST PUSH1 0xA SLOAD NUMBER GT ISZERO PUSH2 0x405 JUMPI PUSH1 0x40 MLOAD PUSH3 0x461BCD PUSH1 0xE5 SHL DUP2 MSTORE PUSH1 0x20 PUSH1 0x4 DUP3 ADD MSTORE PUSH1 0x14 PUSH1 0x24 DUP3 ADD MSTORE PUSH20 0x2B37BA34B733903832B934B7B21032B73232B217 PUSH1 0x61 SHL PUSH1 0x44 DUP3 ADD MSTORE PUSH1 0x64 ADD PUSH2 0x314 JUMP JUMPDEST CALLER PUSH1 0x0 SWAP1 DUP2 MSTORE PUSH1 0x1 PUSH1 0x20 MSTORE PUSH1 0x40 SWAP1 KECCAK256 DUP1 SLOAD PUSH2 0x41F SWAP1 PUSH2 0x11DE JUMP JUMPDEST ISZERO ISZERO SWAP1 POP PUSH2 0x46F JUMPI PUSH1 0x40 MLOAD PUSH3 0x461BCD PUSH1 0xE5 SHL DUP2 MSTORE PUSH1 0x20 PUSH1 0x4 DUP3 ADD DUP2 SWAP1 MSTORE PUSH1 0x24 DUP3 ADD MSTORE PUSH32 0x596F7520617265206E6F742061207265676973746572656420667269656E642E PUSH1 0x44 DUP3 ADD MSTORE PUSH1 0x64 ADD PUSH2 0x314 JUMP JUMPDEST CALLER PUSH1 0x0 SWAP1 DUP2 MSTORE PUSH1 0x1 PUSH1 0x20 DUP2 SWAP1 MSTORE PUSH1 0x40 SWAP1 SWAP2 KECCAK256 ADD SLOAD PUSH1 0xFF AND ISZERO PUSH2 0x4D3 JUMPI PUSH1 0x40 MLOAD PUSH3 0x461BCD PUSH1 0xE5 SHL DUP2 MSTORE PUSH1 0x20 PUSH1 0x4 DUP3 ADD MSTORE PUSH1 0x17 PUSH1 0x24 DUP3 ADD MSTORE PUSH32 0x596F75206861766520616C726561647920766F7465642E000000000000000000 PUSH1 0x44 DUP3 ADD MSTORE PUSH1 0x64 ADD PUSH2 0x314 JUMP JUMPDEST PUSH1 0x0 DUP4 DUP2 MSTORE PUSH1 0x20 DUP2 SWAP1 MSTORE PUSH1 0x40 SWAP1 KECCAK256 DUP1 SLOAD PUSH2 0x4EC SWAP1 PUSH2 0x11DE JUMP JUMPDEST ISZERO ISZERO SWAP1 POP PUSH2 0x53C JUMPI PUSH1 0x40 MLOAD PUSH3 0x461BCD PUSH1 0xE5 SHL DUP2 MSTORE PUSH1 0x20 PUSH1 0x4 DUP3 ADD MSTORE PUSH1 0x1A PUSH1 0x24 DUP3 ADD MSTORE PUSH32 0x52657374617572616E7420646F6573206E6F742065786973742E000000000000 PUSH1 0x44 DUP3 ADD MSTORE PUSH1 0x64 ADD PUSH2 0x314 JUMP JUMPDEST CALLER PUSH1 0x0 DUP2 DUP2 MSTORE PUSH1 0x1 PUSH1 0x20 DUP2 DUP2 MSTORE PUSH1 0x40 DUP1 DUP5 KECCAK256 DUP4 ADD DUP1 SLOAD PUSH1 0xFF NOT AND DUP5 OR SWAP1 SSTORE DUP1 MLOAD DUP1 DUP3 ADD SWAP1 SWAP2 MSTORE SWAP4 DUP5 MSTORE DUP4 ADD DUP7 SWAP1 MSTORE PUSH1 0x4 DUP1 SLOAD SWAP2 SWAP6 POP SWAP1 SWAP2 PUSH2 0x57C DUP4 PUSH2 0x1213 JUMP JUMPDEST SWAP1 SWAP2 SSTORE POP POP PUSH1 0x4 SLOAD PUSH1 0x0 SWAP1 DUP2 MSTORE PUSH1 0x7 PUSH1 0x20 SWAP1 DUP2 MSTORE PUSH1 0x40 SWAP1 SWAP2 KECCAK256 DUP3 MLOAD DUP2 SLOAD PUSH1 0x1 PUSH1 0x1 PUSH1 0xA0 SHL SUB NOT AND PUSH1 0x1 PUSH1 0x1 PUSH1 0xA0 SHL SUB SWAP1 SWAP2 AND OR DUP2 SSTORE SWAP1 DUP3 ADD MLOAD PUSH1 0x1 SWAP1 SWAP2 ADD SSTORE PUSH1 0x3 SLOAD PUSH2 0x5CA SWAP1 PUSH1 0x2 SWAP1 PUSH2 0x118C JUMP JUMPDEST PUSH2 0x5D5 SWAP1 PUSH1 0x1 PUSH2 0x1174 JUMP JUMPDEST PUSH1 0x4 SLOAD LT PUSH2 0x5E5 JUMPI PUSH2 0x5E5 PUSH2 0xC9F JUMP JUMPDEST POP JUMPDEST POP SWAP2 SWAP1 POP JUMP JUMPDEST PUSH1 0x1 PUSH1 0x20 MSTORE PUSH1 0x0 SWAP1 DUP2 MSTORE PUSH1 0x40 SWAP1 KECCAK256 DUP1 SLOAD DUP2 SWAP1 PUSH2 0x608 SWAP1 PUSH2 0x11DE JUMP JUMPDEST DUP1 PUSH1 0x1F ADD PUSH1 0x20 DUP1 SWAP2 DIV MUL PUSH1 0x20 ADD PUSH1 0x40 MLOAD SWAP1 DUP2 ADD PUSH1 0x40 MSTORE DUP1 SWAP3 SWAP2 SWAP1 DUP2 DUP2 MSTORE PUSH1 0x20 ADD DUP3 DUP1 SLOAD PUSH2 0x634 SWAP1 PUSH2 0x11DE JUMP JUMPDEST DUP1 ISZERO PUSH2 0x681 JUMPI DUP1 PUSH1 0x1F LT PUSH2 0x656 JUMPI PUSH2 0x100 DUP1 DUP4 SLOAD DIV MUL DUP4 MSTORE SWAP2 PUSH1 0x20 ADD SWAP2 PUSH2 0x681 JUMP JUMPDEST DUP3 ADD SWAP2 SWAP1 PUSH1 0x0 MSTORE PUSH1 0x20 PUSH1 0x0 KECCAK256 SWAP1 JUMPDEST DUP2 SLOAD DUP2 MSTORE SWAP1 PUSH1 0x1 ADD SWAP1 PUSH1 0x20 ADD DUP1 DUP4 GT PUSH2 0x664 JUMPI DUP3 SWAP1 SUB PUSH1 0x1F AND DUP3 ADD SWAP2 JUMPDEST POP POP POP PUSH1 0x1 SWAP1 SWAP4 ADD SLOAD SWAP2 SWAP3 POP POP PUSH1 0xFF AND DUP3 JUMP JUMPDEST PUSH1 0x5 SLOAD PUSH1 0x0 SWAP1 PUSH1 0x1 PUSH1 0x1 PUSH1 0xA0 SHL SUB AND CALLER EQ PUSH2 0x6C1 JUMPI PUSH1 0x40 MLOAD PUSH3 0x461BCD PUSH1 0xE5 SHL DUP2 MSTORE PUSH1 0x4 ADD PUSH2 0x314 SWAP1 PUSH2 0x10ED JUMP JUMPDEST PUSH1 0xB SLOAD PUSH1 0xFF AND ISZERO PUSH2 0x6E4 JUMPI PUSH1 0x40 MLOAD PUSH3 0x461BCD PUSH1 0xE5 SHL DUP2 MSTORE PUSH1 0x4 ADD PUSH2 0x314 SWAP1 PUSH2 0x10BD JUMP JUMPDEST PUSH1 0x0 DUP1 PUSH1 0x9 SLOAD PUSH2 0x100 SWAP1 DIV PUSH1 0xFF AND PUSH1 0x2 DUP2 GT ISZERO PUSH2 0x703 JUMPI PUSH2 0x703 PUSH2 0x1244 JUMP JUMPDEST EQ PUSH2 0x720 JUMPI PUSH1 0x40 MLOAD PUSH3 0x461BCD PUSH1 0xE5 SHL DUP2 MSTORE PUSH1 0x4 ADD PUSH2 0x314 SWAP1 PUSH2 0x1130 JUMP JUMPDEST PUSH1 0x1 PUSH1 0x1 PUSH1 0xA0 SHL SUB DUP5 AND PUSH1 0x0 SWAP1 DUP2 MSTORE PUSH1 0x1 PUSH1 0x20 MSTORE PUSH1 0x40 SWAP1 KECCAK256 DUP1 SLOAD PUSH2 0x743 SWAP1 PUSH2 0x11DE JUMP JUMPDEST ISZERO SWAP1 POP PUSH2 0x78B JUMPI PUSH1 0x40 MLOAD PUSH3 0x461BCD PUSH1 0xE5 SHL DUP2 MSTORE PUSH1 0x20 PUSH1 0x4 DUP3 ADD MSTORE PUSH1 0x16 PUSH1 0x24 DUP3 ADD MSTORE PUSH22 0x233934B2B7321030B63932B0B23C9032BC34B9BA3997 PUSH1 0x51 SHL PUSH1 0x44 DUP3 ADD MSTORE PUSH1 0x64 ADD PUSH2 0x314 JUMP JUMPDEST PUSH1 0x40 DUP1 MLOAD DUP1 DUP3 ADD DUP3 MSTORE PUSH1 0x0 PUSH1 0x20 DUP1 DUP4 ADD DUP3 SWAP1 MSTORE DUP7 DUP4 MSTORE PUSH1 0x1 PUSH1 0x1 PUSH1 0xA0 SHL SUB DUP9 AND DUP3 MSTORE PUSH1 0x1 DUP2 MSTORE SWAP3 SWAP1 KECCAK256 DUP2 MLOAD DUP1 MLOAD SWAP3 SWAP4 DUP5 SWAP4 PUSH2 0x7C9 SWAP3 DUP5 SWAP3 ADD SWAP1 PUSH2 0xD93 JUMP JUMPDEST POP PUSH1 0x20 SWAP2 SWAP1 SWAP2 ADD MLOAD PUSH1 0x1 SWAP1 SWAP2 ADD DUP1 SLOAD PUSH1 0xFF NOT AND SWAP2 ISZERO ISZERO SWAP2 SWAP1 SWAP2 OR SWAP1 SSTORE PUSH1 0x3 DUP1 SLOAD SWAP1 PUSH1 0x0 PUSH2 0x7F5 DUP4 PUSH2 0x1213 JUMP JUMPDEST SWAP1 SWAP2 SSTORE POP POP PUSH1 0x3 SLOAD SWAP6 SWAP5 POP POP POP POP POP JUMP JUMPDEST PUSH1 0x5 SLOAD PUSH1 0x1 PUSH1 0x1 PUSH1 0xA0 SHL SUB AND CALLER EQ PUSH2 0x830 JUMPI PUSH1 0x40 MLOAD PUSH3 0x461BCD PUSH1 0xE5 SHL DUP2 MSTORE PUSH1 0x4 ADD PUSH2 0x314 SWAP1 PUSH2 0x10ED JUMP JUMPDEST PUSH1 0xB SLOAD PUSH1 0xFF AND ISZERO PUSH2 0x853 JUMPI PUSH1 0x40 MLOAD PUSH3 0x461BCD PUSH1 0xE5 SHL DUP2 MSTORE PUSH1 0x4 ADD PUSH2 0x314 SWAP1 PUSH2 0x10BD JUMP JUMPDEST PUSH1 0x0 DUP1 PUSH1 0x9 SLOAD PUSH2 0x100 SWAP1 DIV PUSH1 0xFF AND PUSH1 0x2 DUP2 GT ISZERO PUSH2 0x872 JUMPI PUSH2 0x872 PUSH2 0x1244 JUMP JUMPDEST EQ PUSH2 0x88F JUMPI PUSH1 0x40 MLOAD PUSH3 0x461BCD PUSH1 0xE5 SHL DUP2 MSTORE PUSH1 0x4 ADD PUSH2 0x314 SWAP1 PUSH2 0x1130 JUMP JUMPDEST PUSH1 0x1 PUSH1 0x2 SLOAD GT PUSH2 0x8F0 JUMPI PUSH1 0x40 MLOAD PUSH3 0x461BCD PUSH1 0xE5 SHL DUP2 MSTORE PUSH1 0x20 PUSH1 0x4 DUP3 ADD MSTORE PUSH1 0x26 PUSH1 0x24 DUP3 ADD MSTORE PUSH32 0x4174206C65617374206F6E652072657374617572616E74206D75737420626520 PUSH1 0x44 DUP3 ADD MSTORE PUSH6 0x30B23232B217 PUSH1 0xD1 SHL PUSH1 0x64 DUP3 ADD MSTORE PUSH1 0x84 ADD PUSH2 0x314 JUMP JUMPDEST PUSH1 0x1 PUSH1 0x3 SLOAD GT PUSH2 0x94D JUMPI PUSH1 0x40 MLOAD PUSH3 0x461BCD PUSH1 0xE5 SHL DUP2 MSTORE PUSH1 0x20 PUSH1 0x4 DUP3 ADD MSTORE PUSH1 0x22 PUSH1 0x24 DUP3 ADD MSTORE PUSH32 0x4174206C65617374206F6E6520667269656E64206D7573742062652061646465 PUSH1 0x44 DUP3 ADD MSTORE PUSH2 0x3217 PUSH1 0xF1 SHL PUSH1 0x64 DUP3 ADD MSTORE PUSH1 0x84 ADD PUSH2 0x314 JUMP JUMPDEST PUSH2 0x957 DUP3 NUMBER PUSH2 0x1174 JUMP JUMPDEST PUSH1 0xA SSTORE POP POP PUSH1 0x9 DUP1 SLOAD PUSH2 0xFFFF NOT AND PUSH2 0x101 OR SWAP1 SSTORE JUMP JUMPDEST PUSH1 0x5 SLOAD PUSH1 0x0 SWAP1 PUSH1 0x1 PUSH1 0x1 PUSH1 0xA0 SHL SUB AND CALLER EQ PUSH2 0x99A JUMPI PUSH1 0x40 MLOAD PUSH3 0x461BCD PUSH1 0xE5 SHL DUP2 MSTORE PUSH1 0x4 ADD PUSH2 0x314 SWAP1 PUSH2 0x10ED JUMP JUMPDEST PUSH1 0xB SLOAD PUSH1 0xFF AND ISZERO PUSH2 0x9BD JUMPI PUSH1 0x40 MLOAD PUSH3 0x461BCD PUSH1 0xE5 SHL DUP2 MSTORE PUSH1 0x4 ADD PUSH2 0x314 SWAP1 PUSH2 0x10BD JUMP JUMPDEST PUSH1 0x0 DUP1 PUSH1 0x9 SLOAD PUSH2 0x100 SWAP1 DIV PUSH1 0xFF AND PUSH1 0x2 DUP2 GT ISZERO PUSH2 0x9DC JUMPI PUSH2 0x9DC PUSH2 0x1244 JUMP JUMPDEST EQ PUSH2 0x9F9 JUMPI PUSH1 0x40 MLOAD PUSH3 0x461BCD PUSH1 0xE5 SHL DUP2 MSTORE PUSH1 0x4 ADD PUSH2 0x314 SWAP1 PUSH2 0x1130 JUMP JUMPDEST PUSH1 0x0 DUP4 PUSH1 0x40 MLOAD PUSH1 0x20 ADD PUSH2 0xA0C SWAP2 SWAP1 PUSH2 0x1042 JUMP JUMPDEST PUSH1 0x40 DUP1 MLOAD PUSH1 0x1F NOT DUP2 DUP5 SUB ADD DUP2 MSTORE SWAP2 DUP2 MSTORE DUP2 MLOAD PUSH1 0x20 SWAP3 DUP4 ADD KECCAK256 PUSH1 0x0 DUP2 DUP2 MSTORE PUSH1 0xC SWAP1 SWAP4 MSTORE SWAP2 KECCAK256 SLOAD SWAP1 SWAP2 POP PUSH1 0xFF AND ISZERO PUSH2 0xA84 JUMPI PUSH1 0x40 MLOAD PUSH3 0x461BCD PUSH1 0xE5 SHL DUP2 MSTORE PUSH1 0x20 PUSH1 0x4 DUP3 ADD MSTORE PUSH1 0x1A PUSH1 0x24 DUP3 ADD MSTORE PUSH32 0x52657374617572616E7420616C7265616479206578697374732E000000000000 PUSH1 0x44 DUP3 ADD MSTORE PUSH1 0x64 ADD PUSH2 0x314 JUMP JUMPDEST PUSH1 0x2 DUP1 SLOAD SWAP1 PUSH1 0x0 PUSH2 0xA94 DUP4 PUSH2 0x1213 JUMP JUMPDEST SWAP1 SWAP2 SSTORE POP POP PUSH1 0x2 SLOAD PUSH1 0x0 SWAP1 DUP2 MSTORE PUSH1 0x20 DUP2 DUP2 MSTORE PUSH1 0x40 SWAP1 SWAP2 KECCAK256 DUP6 MLOAD PUSH2 0xAB9 SWAP3 DUP8 ADD SWAP1 PUSH2 0xD93 JUMP JUMPDEST POP PUSH1 0x0 SWAP1 DUP2 MSTORE PUSH1 0xC PUSH1 0x20 MSTORE PUSH1 0x40 SWAP1 KECCAK256 DUP1 SLOAD PUSH1 0xFF NOT AND PUSH1 0x1 OR SWAP1 SSTORE PUSH1 0x2 SLOAD SWAP2 POP POP SWAP2 SWAP1 POP JUMP JUMPDEST PUSH1 0x0 PUSH1 0x20 DUP2 SWAP1 MSTORE SWAP1 DUP2 MSTORE PUSH1 0x40 SWAP1 KECCAK256 DUP1 SLOAD PUSH2 0xAF7 SWAP1 PUSH2 0x11DE JUMP JUMPDEST DUP1 PUSH1 0x1F ADD PUSH1 0x20 DUP1 SWAP2 DIV MUL PUSH1 0x20 ADD PUSH1 0x40 MLOAD SWAP1 DUP2 ADD PUSH1 0x40 MSTORE DUP1 SWAP3 SWAP2 SWAP1 DUP2 DUP2 MSTORE PUSH1 0x20 ADD DUP3 DUP1 SLOAD PUSH2 0xB23 SWAP1 PUSH2 0x11DE JUMP JUMPDEST DUP1 ISZERO PUSH2 0xB70 JUMPI DUP1 PUSH1 0x1F LT PUSH2 0xB45 JUMPI PUSH2 0x100 DUP1 DUP4 SLOAD DIV MUL DUP4 MSTORE SWAP2 PUSH1 0x20 ADD SWAP2 PUSH2 0xB70 JUMP JUMPDEST DUP3 ADD SWAP2 SWAP1 PUSH1 0x0 MSTORE PUSH1 0x20 PUSH1 0x0 KECCAK256 SWAP1 JUMPDEST DUP2 SLOAD DUP2 MSTORE SWAP1 PUSH1 0x1 ADD SWAP1 PUSH1 0x20 ADD DUP1 DUP4 GT PUSH2 0xB53 JUMPI DUP3 SWAP1 SUB PUSH1 0x1F AND DUP3 ADD SWAP2 JUMPDEST POP POP POP POP POP DUP2 JUMP JUMPDEST PUSH1 0x6 DUP1 SLOAD PUSH2 0xAF7 SWAP1 PUSH2 0x11DE JUMP JUMPDEST PUSH1 0x5 SLOAD PUSH1 0x1 PUSH1 0x1 PUSH1 0xA0 SHL SUB AND CALLER EQ PUSH2 0xBAF JUMPI PUSH1 0x40 MLOAD PUSH3 0x461BCD PUSH1 0xE5 SHL DUP2 MSTORE PUSH1 0x4 ADD PUSH2 0x314 SWAP1 PUSH2 0x10ED JUMP JUMPDEST PUSH1 0xB SLOAD PUSH1 0xFF AND ISZERO PUSH2 0xBD2 JUMPI PUSH1 0x40 MLOAD PUSH3 0x461BCD PUSH1 0xE5 SHL DUP2 MSTORE PUSH1 0x4 ADD PUSH2 0x314 SWAP1 PUSH2 0x10BD JUMP JUMPDEST PUSH1 0x1 PUSH1 0x9 SLOAD PUSH2 0x100 SWAP1 DIV PUSH1 0xFF AND PUSH1 0x2 DUP2 GT ISZERO PUSH2 0xBF0 JUMPI PUSH2 0xBF0 PUSH2 0x1244 JUMP JUMPDEST EQ PUSH2 0xC34 JUMPI PUSH1 0x40 MLOAD PUSH3 0x461BCD PUSH1 0xE5 SHL DUP2 MSTORE PUSH1 0x20 PUSH1 0x4 DUP3 ADD MSTORE PUSH1 0x14 PUSH1 0x24 DUP3 ADD MSTORE PUSH20 0x2737BA1034B7103B37BA34B73390383430B9B297 PUSH1 0x61 SHL PUSH1 0x44 DUP3 ADD MSTORE PUSH1 0x64 ADD PUSH2 0x314 JUMP JUMPDEST PUSH1 0x4 SLOAD ISZERO PUSH2 0xC46 JUMPI PUSH2 0xC44 PUSH2 0xC9F JUMP JUMPDEST JUMP JUMPDEST PUSH1 0x9 DUP1 SLOAD PUSH2 0xFFFF NOT AND PUSH2 0x200 OR SWAP1 SSTORE JUMP JUMPDEST PUSH1 0x5 SLOAD PUSH1 0x1 PUSH1 0x1 PUSH1 0xA0 SHL SUB AND CALLER EQ PUSH2 0xC81 JUMPI PUSH1 0x40 MLOAD PUSH3 0x461BCD PUSH1 0xE5 SHL DUP2 MSTORE PUSH1 0x4 ADD PUSH2 0x314 SWAP1 PUSH2 0x10ED JUMP JUMPDEST PUSH1 0xB DUP1 SLOAD PUSH1 0xFF NOT AND PUSH1 0x1 OR SWAP1 SSTORE PUSH1 0x9 DUP1 SLOAD PUSH2 0xFFFF NOT AND PUSH2 0x200 OR SWAP1 SSTORE JUMP JUMPDEST PUSH1 0x0 DUP1 PUSH1 0x1 JUMPDEST PUSH1 0x4 SLOAD DUP2 GT PUSH2 0xD56 JUMPI PUSH1 0x0 DUP2 DUP2 MSTORE PUSH1 0x7 PUSH1 0x20 SWAP1 DUP2 MSTORE PUSH1 0x40 DUP1 DUP4 KECCAK256 PUSH1 0x1 SWAP1 DUP2 ADD SLOAD DUP5 MSTORE PUSH1 0x8 SWAP1 SWAP3 MSTORE SWAP1 SWAP2 KECCAK256 SLOAD ISZERO PUSH2 0xD01 JUMPI PUSH1 0x0 DUP3 DUP2 MSTORE PUSH1 0x7 PUSH1 0x20 SWAP1 DUP2 MSTORE PUSH1 0x40 DUP1 DUP4 KECCAK256 PUSH1 0x1 ADD SLOAD DUP4 MSTORE PUSH1 0x8 SWAP1 SWAP2 MSTORE SWAP1 KECCAK256 SLOAD PUSH2 0xCFE SWAP1 DUP3 PUSH2 0x1174 JUMP JUMPDEST SWAP1 POP JUMPDEST PUSH1 0x0 DUP3 DUP2 MSTORE PUSH1 0x7 PUSH1 0x20 SWAP1 DUP2 MSTORE PUSH1 0x40 DUP1 DUP4 KECCAK256 PUSH1 0x1 ADD SLOAD DUP4 MSTORE PUSH1 0x8 SWAP1 SWAP2 MSTORE SWAP1 KECCAK256 DUP2 SWAP1 SSTORE DUP4 DUP2 GT ISZERO PUSH2 0xD43 JUMPI PUSH1 0x0 DUP3 DUP2 MSTORE PUSH1 0x7 PUSH1 0x20 MSTORE PUSH1 0x40 SWAP1 KECCAK256 PUSH1 0x1 ADD SLOAD SWAP1 SWAP4 POP SWAP2 POP DUP3 JUMPDEST POP DUP1 PUSH2 0xD4E DUP2 PUSH2 0x1213 JUMP JUMPDEST SWAP2 POP POP PUSH2 0xCA5 JUMP JUMPDEST POP PUSH1 0x0 DUP2 DUP2 MSTORE PUSH1 0x20 DUP2 SWAP1 MSTORE PUSH1 0x40 SWAP1 KECCAK256 DUP1 SLOAD PUSH1 0x6 SWAP2 SWAP1 PUSH2 0xD74 SWAP1 PUSH2 0x11DE JUMP JUMPDEST PUSH2 0xD7F SWAP3 SWAP2 SWAP1 PUSH2 0xE17 JUMP JUMPDEST POP POP PUSH1 0x9 DUP1 SLOAD PUSH2 0xFFFF NOT AND PUSH2 0x200 OR SWAP1 SSTORE POP JUMP JUMPDEST DUP3 DUP1 SLOAD PUSH2 0xD9F SWAP1 PUSH2 0x11DE JUMP JUMPDEST SWAP1 PUSH1 0x0 MSTORE PUSH1 0x20 PUSH1 0x0 KECCAK256 SWAP1 PUSH1 0x1F ADD PUSH1 0x20 SWAP1 DIV DUP2 ADD SWAP3 DUP3 PUSH2 0xDC1 JUMPI PUSH1 0x0 DUP6 SSTORE PUSH2 0xE07 JUMP JUMPDEST DUP3 PUSH1 0x1F LT PUSH2 0xDDA JUMPI DUP1 MLOAD PUSH1 0xFF NOT AND DUP4 DUP1 ADD OR DUP6 SSTORE PUSH2 0xE07 JUMP JUMPDEST DUP3 DUP1 ADD PUSH1 0x1 ADD DUP6 SSTORE DUP3 ISZERO PUSH2 0xE07 JUMPI SWAP2 DUP3 ADD JUMPDEST DUP3 DUP2 GT ISZERO PUSH2 0xE07 JUMPI DUP3 MLOAD DUP3 SSTORE SWAP2 PUSH1 0x20 ADD SWAP2 SWAP1 PUSH1 0x1 ADD SWAP1 PUSH2 0xDEC JUMP JUMPDEST POP PUSH2 0xE13 SWAP3 SWAP2 POP PUSH2 0xE92 JUMP JUMPDEST POP SWAP1 JUMP JUMPDEST DUP3 DUP1 SLOAD PUSH2 0xE23 SWAP1 PUSH2 0x11DE JUMP JUMPDEST SWAP1 PUSH1 0x0 MSTORE PUSH1 0x20 PUSH1 0x0 KECCAK256 SWAP1 PUSH1 0x1F ADD PUSH1 0x20 SWAP1 DIV DUP2 ADD SWAP3 DUP3 PUSH2 0xE45 JUMPI PUSH1 0x0 DUP6 SSTORE PUSH2 0xE07 JUMP JUMPDEST DUP3 PUSH1 0x1F LT PUSH2 0xE56 JUMPI DUP1 SLOAD DUP6 SSTORE PUSH2 0xE07 JUMP JUMPDEST DUP3 DUP1 ADD PUSH1 0x1 ADD DUP6 SSTORE DUP3 ISZERO PUSH2 0xE07 JUMPI PUSH1 0x0 MSTORE PUSH1 0x20 PUSH1 0x0 KECCAK256 SWAP2 PUSH1 0x1F ADD PUSH1 0x20 SWAP1 DIV DUP3 ADD JUMPDEST DUP3 DUP2 GT ISZERO PUSH2 0xE07 JUMPI DUP3 SLOAD DUP3 SSTORE SWAP2 PUSH1 0x1 ADD SWAP2 SWAP1 PUSH1 0x1 ADD SWAP1 PUSH2 0xE77 JUMP JUMPDEST JUMPDEST DUP1 DUP3 GT ISZERO PUSH2 0xE13 JUMPI PUSH1 0x0 DUP2 SSTORE PUSH1 0x1 ADD PUSH2 0xE93 JUMP JUMPDEST DUP1 CALLDATALOAD PUSH1 0x1 PUSH1 0x1 PUSH1 0xA0 SHL SUB DUP2 AND DUP2 EQ PUSH2 0xEBE JUMPI PUSH1 0x0 DUP1 REVERT JUMPDEST SWAP2 SWAP1 POP JUMP JUMPDEST PUSH1 0x0 DUP3 PUSH1 0x1F DUP4 ADD SLT PUSH2 0xED4 JUMPI PUSH1 0x0 DUP1 REVERT JUMPDEST DUP2 CALLDATALOAD PUSH8 0xFFFFFFFFFFFFFFFF DUP1 DUP3 GT ISZERO PUSH2 0xEEF JUMPI PUSH2 0xEEF PUSH2 0x125A JUMP JUMPDEST PUSH1 0x40 MLOAD PUSH1 0x1F DUP4 ADD PUSH1 0x1F NOT SWAP1 DUP2 AND PUSH1 0x3F ADD AND DUP2 ADD SWAP1 DUP3 DUP3 GT DUP2 DUP4 LT OR ISZERO PUSH2 0xF17 JUMPI PUSH2 0xF17 PUSH2 0x125A JUMP JUMPDEST DUP2 PUSH1 0x40 MSTORE DUP4 DUP2 MSTORE DUP7 PUSH1 0x20 DUP6 DUP9 ADD ADD GT ISZERO PUSH2 0xF30 JUMPI PUSH1 0x0 DUP1 REVERT JUMPDEST DUP4 PUSH1 0x20 DUP8 ADD PUSH1 0x20 DUP4 ADD CALLDATACOPY PUSH1 0x0 PUSH1 0x20 DUP6 DUP4 ADD ADD MSTORE DUP1 SWAP5 POP POP POP POP POP SWAP3 SWAP2 POP POP JUMP JUMPDEST PUSH1 0x0 PUSH1 0x20 DUP3 DUP5 SUB SLT ISZERO PUSH2 0xF62 JUMPI PUSH1 0x0 DUP1 REVERT JUMPDEST PUSH2 0xF6B DUP3 PUSH2 0xEA7 JUMP JUMPDEST SWAP4 SWAP3 POP POP POP JUMP JUMPDEST PUSH1 0x0 DUP1 PUSH1 0x40 DUP4 DUP6 SUB SLT ISZERO PUSH2 0xF85 JUMPI PUSH1 0x0 DUP1 REVERT JUMPDEST PUSH2 0xF8E DUP4 PUSH2 0xEA7 JUMP JUMPDEST SWAP2 POP PUSH1 0x20 DUP4 ADD CALLDATALOAD PUSH8 0xFFFFFFFFFFFFFFFF DUP2 GT ISZERO PUSH2 0xFAA JUMPI PUSH1 0x0 DUP1 REVERT JUMPDEST PUSH2 0xFB6 DUP6 DUP3 DUP7 ADD PUSH2 0xEC3 JUMP JUMPDEST SWAP2 POP POP SWAP3 POP SWAP3 SWAP1 POP JUMP JUMPDEST PUSH1 0x0 PUSH1 0x20 DUP3 DUP5 SUB SLT ISZERO PUSH2 0xFD2 JUMPI PUSH1 0x0 DUP1 REVERT JUMPDEST DUP2 CALLDATALOAD PUSH8 0xFFFFFFFFFFFFFFFF DUP2 GT ISZERO PUSH2 0xFE9 JUMPI PUSH1 0x0 DUP1 REVERT JUMPDEST PUSH2 0xFF5 DUP5 DUP3 DUP6 ADD PUSH2 0xEC3 JUMP JUMPDEST SWAP5 SWAP4 POP POP POP POP JUMP JUMPDEST PUSH1 0x0 PUSH1 0x20 DUP3 DUP5 SUB SLT ISZERO PUSH2 0x100F JUMPI PUSH1 0x0 DUP1 REVERT JUMPDEST POP CALLDATALOAD SWAP2 SWAP1 POP JUMP JUMPDEST PUSH1 0x0 DUP2 MLOAD DUP1 DUP5 MSTORE PUSH2 0x102E DUP2 PUSH1 0x20 DUP7 ADD PUSH1 0x20 DUP7 ADD PUSH2 0x11AE JUMP JUMPDEST PUSH1 0x1F ADD PUSH1 0x1F NOT AND SWAP3 SWAP1 SWAP3 ADD PUSH1 0x20 ADD SWAP3 SWAP2 POP POP JUMP JUMPDEST PUSH1 0x0 DUP3 MLOAD PUSH2 0x1054 DUP2 DUP5 PUSH1 0x20 DUP8 ADD PUSH2 0x11AE JUMP JUMPDEST SWAP2 SWAP1 SWAP2 ADD SWAP3 SWAP2 POP POP JUMP JUMPDEST PUSH1 0x20 DUP2 ADD PUSH1 0x3 DUP4 LT PUSH2 0x1080 JUMPI PUSH4 0x4E487B71 PUSH1 0xE0 SHL PUSH1 0x0 MSTORE PUSH1 0x21 PUSH1 0x4 MSTORE PUSH1 0x24 PUSH1 0x0 REVERT JUMPDEST SWAP2 SWAP1 MSTORE SWAP1 JUMP JUMPDEST PUSH1 0x20 DUP2 MSTORE PUSH1 0x0 PUSH2 0xF6B PUSH1 0x20 DUP4 ADD DUP5 PUSH2 0x1016 JUMP JUMPDEST PUSH1 0x40 DUP2 MSTORE PUSH1 0x0 PUSH2 0x10AC PUSH1 0x40 DUP4 ADD DUP6 PUSH2 0x1016 JUMP JUMPDEST SWAP1 POP DUP3 ISZERO ISZERO PUSH1 0x20 DUP4 ADD MSTORE SWAP4 SWAP3 POP POP POP JUMP JUMPDEST PUSH1 0x20 DUP1 DUP3 MSTORE PUSH1 0x16 SWAP1 DUP3 ADD MSTORE PUSH22 0x21B7B73A3930B1BA1034B99039B43ABA103237BBB717 PUSH1 0x51 SHL PUSH1 0x40 DUP3 ADD MSTORE PUSH1 0x60 ADD SWAP1 JUMP JUMPDEST PUSH1 0x20 DUP1 DUP3 MSTORE PUSH1 0x23 SWAP1 DUP3 ADD MSTORE PUSH32 0x43616E206F6E6C7920626520657865637574656420627920746865206D616E61 PUSH1 0x40 DUP3 ADD MSTORE PUSH3 0x33B2B9 PUSH1 0xE9 SHL PUSH1 0x60 DUP3 ADD MSTORE PUSH1 0x80 ADD SWAP1 JUMP JUMPDEST PUSH1 0x20 DUP1 DUP3 MSTORE PUSH1 0x24 SWAP1 DUP3 ADD MSTORE PUSH32 0x416374696F6E206E6F7420616C6C6F77656420696E2063757272656E74207068 PUSH1 0x40 DUP3 ADD MSTORE PUSH4 0x30B9B297 PUSH1 0xE1 SHL PUSH1 0x60 DUP3 ADD MSTORE PUSH1 0x80 ADD SWAP1 JUMP JUMPDEST PUSH1 0x0 DUP3 NOT DUP3 GT ISZERO PUSH2 0x1187 JUMPI PUSH2 0x1187 PUSH2 0x122E JUMP JUMPDEST POP ADD SWAP1 JUMP JUMPDEST PUSH1 0x0 DUP3 PUSH2 0x11A9 JUMPI PUSH4 0x4E487B71 PUSH1 0xE0 SHL PUSH1 0x0 MSTORE PUSH1 0x12 PUSH1 0x4 MSTORE PUSH1 0x24 PUSH1 0x0 REVERT JUMPDEST POP DIV SWAP1 JUMP JUMPDEST PUSH1 0x0 JUMPDEST DUP4 DUP2 LT ISZERO PUSH2 0x11C9 JUMPI DUP2 DUP2 ADD MLOAD DUP4 DUP3 ADD MSTORE PUSH1 0x20 ADD PUSH2 0x11B1 JUMP JUMPDEST DUP4 DUP2 GT ISZERO PUSH2 0x11D8 JUMPI PUSH1 0x0 DUP5 DUP5 ADD MSTORE JUMPDEST POP POP POP POP JUMP JUMPDEST PUSH1 0x1 DUP2 DUP2 SHR SWAP1 DUP3 AND DUP1 PUSH2 0x11F2 JUMPI PUSH1 0x7F DUP3 AND SWAP2 POP JUMPDEST PUSH1 0x20 DUP3 LT DUP2 EQ ISZERO PUSH2 0x5E7 JUMPI PUSH4 0x4E487B71 PUSH1 0xE0 SHL PUSH1 0x0 MSTORE PUSH1 0x22 PUSH1 0x4 MSTORE PUSH1 0x24 PUSH1 0x0 REVERT JUMPDEST PUSH1 0x0 PUSH1 0x0 NOT DUP3 EQ ISZERO PUSH2 0x1227 JUMPI PUSH2 0x1227 PUSH2 0x122E JUMP JUMPDEST POP PUSH1 0x1 ADD SWAP1 JUMP JUMPDEST PUSH4 0x4E487B71 PUSH1 0xE0 SHL PUSH1 0x0 MSTORE PUSH1 0x11 PUSH1 0x4 MSTORE PUSH1 0x24 PUSH1 0x0 REVERT JUMPDEST PUSH4 0x4E487B71 PUSH1 0xE0 SHL PUSH1 0x0 MSTORE PUSH1 0x21 PUSH1 0x4 MSTORE PUSH1 0x24 PUSH1 0x0 REVERT JUMPDEST PUSH4 0x4E487B71 PUSH1 0xE0 SHL PUSH1 0x0 MSTORE PUSH1 0x41 PUSH1 0x4 MSTORE PUSH1 0x24 PUSH1 0x0 REVERT INVALID LOG2 PUSH5 0x6970667358 0x22 SLT KECCAK256 0xB6 LT LOG2 MSTORE EQ 0x27 0x5C 0xB4 PUSH23 0x419693B5B24B84687EB249A805A575ACEE833F2A4703AD PUSH5 0x736F6C6343 STOP ADDMOD SDIV STOP CALLER "
				},
				"gasEstimates": {
					"creation": {
						"codeDepositCost": "954800",
						"executionCost": "infinite",
						"totalCost": "infinite"
					},
					"external": {
						"addFriend(address,string)": "infinite",
						"addRestaurant(string)": "infinite",
						"currentPhase()": "2386",
						"doVote(uint256)": "infinite",
						"endBlock()": "2341",
						"endVoting()": "infinite",
						"friends(address)": "infinite",
						"getVoteCount(uint256)": "2549",
						"isShutdown()": "2354",
						"manager()": "2426",
						"numFriends()": "2362",
						"numRestaurants()": "2317",
						"numVotes()": "2362",
						"restaurants(uint256)": "infinite",
						"shutdown()": "50842",
						"startVoting(uint256)": "57347",
						"voteOpen()": "2355",
						"votedRestaurant()": "infinite",
						"votes(uint256)": "4736"
					},
					"internal": {
						"finalResult()": "infinite"
					}
				},
				"methodIdentifiers": {
					"addFriend(address,string)": "3b9f708d",
					"addRestaurant(string)": "6d77bd3e",
					"currentPhase()": "055ad42e",
					"doVote(uint256)": "124258c6",
					"endBlock()": "083c6323",
					"endVoting()": "c3403ddf",
					"friends(address)": "1ddabf7a",
					"getVoteCount(uint256)": "b2c2f2e8",
					"isShutdown()": "bf86d690",
					"manager()": "481c6a75",
					"numFriends()": "47098f36",
					"numRestaurants()": "b798867f",
					"numVotes()": "a3bef4d7",
					"restaurants(uint256)": "ad5461d8",
					"shutdown()": "fc0e74d1",
					"startVoting(uint256)": "3d2f5bda",
					"voteOpen()": "788d3851",
					"votedRestaurant()": "c1c16efc",
					"votes(uint256)": "5df81330"
				}
			},
			"storageLayout": {
				"storage": [
					{
						"astId": 16,
						"contract": "contracts/LunchVenue.sol:LunchVenue",
						"label": "restaurants",
						"offset": 0,
						"slot": "0",
						"type": "t_mapping(t_uint256,t_string_storage)"
					},
					{
						"astId": 21,
						"contract": "contracts/LunchVenue.sol:LunchVenue",
						"label": "friends",
						"offset": 0,
						"slot": "1",
						"type": "t_mapping(t_address,t_struct(Friend)7_storage)"
					},
					{
						"astId": 24,
						"contract": "contracts/LunchVenue.sol:LunchVenue",
						"label": "numRestaurants",
						"offset": 0,
						"slot": "2",
						"type": "t_uint256"
					},
					{
						"astId": 27,
						"contract": "contracts/LunchVenue.sol:LunchVenue",
						"label": "numFriends",
						"offset": 0,
						"slot": "3",
						"type": "t_uint256"
					},
					{
						"astId": 30,
						"contract": "contracts/LunchVenue.sol:LunchVenue",
						"label": "numVotes",
						"offset": 0,
						"slot": "4",
						"type": "t_uint256"
					},
					{
						"astId": 32,
						"contract": "contracts/LunchVenue.sol:LunchVenue",
						"label": "manager",
						"offset": 0,
						"slot": "5",
						"type": "t_address"
					},
					{
						"astId": 35,
						"contract": "contracts/LunchVenue.sol:LunchVenue",
						"label": "votedRestaurant",
						"offset": 0,
						"slot": "6",
						"type": "t_string_storage"
					},
					{
						"astId": 40,
						"contract": "contracts/LunchVenue.sol:LunchVenue",
						"label": "votes",
						"offset": 0,
						"slot": "7",
						"type": "t_mapping(t_uint256,t_struct(Vote)12_storage)"
					},
					{
						"astId": 44,
						"contract": "contracts/LunchVenue.sol:LunchVenue",
						"label": "_results",
						"offset": 0,
						"slot": "8",
						"type": "t_mapping(t_uint256,t_uint256)"
					},
					{
						"astId": 47,
						"contract": "contracts/LunchVenue.sol:LunchVenue",
						"label": "voteOpen",
						"offset": 0,
						"slot": "9",
						"type": "t_bool"
					},
					{
						"astId": 56,
						"contract": "contracts/LunchVenue.sol:LunchVenue",
						"label": "currentPhase",
						"offset": 1,
						"slot": "9",
						"type": "t_enum(Phase)51"
					},
					{
						"astId": 58,
						"contract": "contracts/LunchVenue.sol:LunchVenue",
						"label": "endBlock",
						"offset": 0,
						"slot": "10",
						"type": "t_uint256"
					},
					{
						"astId": 61,
						"contract": "contracts/LunchVenue.sol:LunchVenue",
						"label": "isShutdown",
						"offset": 0,
						"slot": "11",
						"type": "t_bool"
					},
					{
						"astId": 65,
						"contract": "contracts/LunchVenue.sol:LunchVenue",
						"label": "restaurantExists",
						"offset": 0,
						"slot": "12",
						"type": "t_mapping(t_bytes32,t_bool)"
					}
				],
				"types": {
					"t_address": {
						"encoding": "inplace",
						"label": "address",
						"numberOfBytes": "20"
					},
					"t_bool": {
						"encoding": "inplace",
						"label": "bool",
						"numberOfBytes": "1"
					},
					"t_bytes32": {
						"encoding": "inplace",
						"label": "bytes32",
						"numberOfBytes": "32"
					},
					"t_enum(Phase)51": {
						"encoding": "inplace",
						"label": "enum LunchVenue.Phase",
						"numberOfBytes": "1"
					},
					"t_mapping(t_address,t_struct(Friend)7_storage)": {
						"encoding": "mapping",
						"key": "t_address",
						"label": "mapping(address => struct LunchVenue.Friend)",
						"numberOfBytes": "32",
						"value": "t_struct(Friend)7_storage"
					},
					"t_mapping(t_bytes32,t_bool)": {
						"encoding": "mapping",
						"key": "t_bytes32",
						"label": "mapping(bytes32 => bool)",
						"numberOfBytes": "32",
						"value": "t_bool"
					},
					"t_mapping(t_uint256,t_string_storage)": {
						"encoding": "mapping",
						"key": "t_uint256",
						"label": "mapping(uint256 => string)",
						"numberOfBytes": "32",
						"value": "t_string_storage"
					},
					"t_mapping(t_uint256,t_struct(Vote)12_storage)": {
						"encoding": "mapping",
						"key": "t_uint256",
						"label": "mapping(uint256 => struct LunchVenue.Vote)",
						"numberOfBytes": "32",
						"value": "t_struct(Vote)12_storage"
					},
					"t_mapping(t_uint256,t_uint256)": {
						"encoding": "mapping",
						"key": "t_uint256",
						"label": "mapping(uint256 => uint256)",
						"numberOfBytes": "32",
						"value": "t_uint256"
					},
					"t_string_storage": {
						"encoding": "bytes",
						"label": "string",
						"numberOfBytes": "32"
					},
					"t_struct(Friend)7_storage": {
						"encoding": "inplace",
						"label": "struct LunchVenue.Friend",
						"members": [
							{
								"astId": 4,
								"contract": "contracts/LunchVenue.sol:LunchVenue",
								"label": "name",
								"offset": 0,
								"slot": "0",
								"type": "t_string_storage"
							},
							{
								"astId": 6,
								"contract": "contracts/LunchVenue.sol:LunchVenue",
								"label": "voted",
								"offset": 0,
								"slot": "1",
								"type": "t_bool"
							}
						],
						"numberOfBytes": "64"
					},
					"t_struct(Vote)12_storage": {
						"encoding": "inplace",
						"label": "struct LunchVenue.Vote",
						"members": [
							{
								"astId": 9,
								"contract": "contracts/LunchVenue.sol:LunchVenue",
								"label": "voterAddress",
								"offset": 0,
								"slot": "0",
								"type": "t_address"
							},
							{
								"astId": 11,
								"contract": "contracts/LunchVenue.sol:LunchVenue",
								"label": "restaurant",
								"offset": 0,
								"slot": "1",
								"type": "t_uint256"
							}
						],
						"numberOfBytes": "64"
					},
					"t_uint256": {
						"encoding": "inplace",
						"label": "uint256",
						"numberOfBytes": "32"
					}
				}
			},
			"userdoc": {
				"kind": "user",
				"methods": {
					"addFriend(address,string)": {
						"notice": "Add a new friend to voter list"
					},
					"addRestaurant(string)": {
						"notice": "Add a new restaurant"
					},
					"doVote(uint256)": {
						"notice": "Vote for a restaurant"
					},
					"endVoting()": {
						"notice": "Force end voting (for timeout or manager decision)"
					},
					"getVoteCount(uint256)": {
						"notice": "Get current vote count for a restaurant"
					},
					"shutdown()": {
						"notice": "Shutdown the contract"
					},
					"startVoting(uint256)": {
						"notice": "Start the voting phase"
					}
				},
				"version": 1
			}
		}
	}
}