{
	"project1/contracts/LunchVenue.sol": {
		"LunchVenue": {
			"abi": [
				{
					"inputs": [],
					"stateMutability": "nonpayable",
					"type": "constructor"
				},
				{
					"inputs": [
						{
							"internalType": "address",
							"name": "friendAddress",
							"type": "address"
						},
						{
							"internalType": "string",
							"name": "name",
							"type": "string"
						}
					],
					"name": "addFriend",
					"outputs": [
						{
							"internalType": "uint256",
							"name": "",
							"type": "uint256"
						}
					],
					"stateMutability": "nonpayable",
					"type": "function"
				},
				{
					"inputs": [
						{
							"internalType": "string",
							"name": "name",
							"type": "string"
						}
					],
					"name": "addRestaurant",
					"outputs": [
						{
							"internalType": "uint256",
							"name": "",
							"type": "uint256"
						}
					],
					"stateMutability": "nonpayable",
					"type": "function"
				},
				{
					"inputs": [
						{
							"internalType": "uint256",
							"name": "restaurant",
							"type": "uint256"
						}
					],
					"name": "doVote",
					"outputs": [
						{
							"internalType": "bool",
							"name": "validVote",
							"type": "bool"
						}
					],
					"stateMutability": "nonpayable",
					"type": "function"
				},
				{
					"inputs": [
						{
							"internalType": "address",
							"name": "",
							"type": "address"
						}
					],
					"name": "friends",
					"outputs": [
						{
							"internalType": "string",
							"name": "name",
							"type": "string"
						},
						{
							"internalType": "bool",
							"name": "voted",
							"type": "bool"
						}
					],
					"stateMutability": "view",
					"type": "function"
				},
				{
					"inputs": [],
					"name": "manager",
					"outputs": [
						{
							"internalType": "address",
							"name": "",
							"type": "address"
						}
					],
					"stateMutability": "view",
					"type": "function"
				},
				{
					"inputs": [],
					"name": "numFriends",
					"outputs": [
						{
							"internalType": "uint256",
							"name": "",
							"type": "uint256"
						}
					],
					"stateMutability": "view",
					"type": "function"
				},
				{
					"inputs": [],
					"name": "numRestaurants",
					"outputs": [
						{
							"internalType": "uint256",
							"name": "",
							"type": "uint256"
						}
					],
					"stateMutability": "view",
					"type": "function"
				},
				{
					"inputs": [],
					"name": "numVotes",
					"outputs": [
						{
							"internalType": "uint256",
							"name": "",
							"type": "uint256"
						}
					],
					"stateMutability": "view",
					"type": "function"
				},
				{
					"inputs": [
						{
							"internalType": "uint256",
							"name": "",
							"type": "uint256"
						}
					],
					"name": "restaurants",
					"outputs": [
						{
							"internalType": "string",
							"name": "",
							"type": "string"
						}
					],
					"stateMutability": "view",
					"type": "function"
				},
				{
					"inputs": [],
					"name": "voteOpen",
					"outputs": [
						{
							"internalType": "bool",
							"name": "",
							"type": "bool"
						}
					],
					"stateMutability": "view",
					"type": "function"
				},
				{
					"inputs": [],
					"name": "votedRestaurant",
					"outputs": [
						{
							"internalType": "string",
							"name": "",
							"type": "string"
						}
					],
					"stateMutability": "view",
					"type": "function"
				},
				{
					"inputs": [
						{
							"internalType": "uint256",
							"name": "",
							"type": "uint256"
						}
					],
					"name": "votes",
					"outputs": [
						{
							"internalType": "address",
							"name": "voterAddress",
							"type": "address"
						},
						{
							"internalType": "uint256",
							"name": "restaurant",
							"type": "uint256"
						}
					],
					"stateMutability": "view",
					"type": "function"
				}
			],
			"devdoc": {
				"author": "Dilum Bandara, CSIRO's Data61",
				"kind": "dev",
				"methods": {
					"addFriend(address,string)": {
						"details": "To simplify the code duplication of friends is not checked",
						"params": {
							"friendAddress": "Friend's account/address",
							"name": "Friend's name"
						},
						"returns": {
							"_0": "Number of friends added so far"
						}
					},
					"addRestaurant(string)": {
						"details": "To simplify the code, duplication of restaurants isn't checked",
						"params": {
							"name": "Restaurant name"
						},
						"returns": {
							"_0": "Number of restaurants added so far"
						}
					},
					"constructor": {
						"details": "Set manager when contract starts"
					},
					"doVote(uint256)": {
						"details": "To simplify the code duplicate votes by a friend is not checked",
						"params": {
							"restaurant": "Restaurant number being voted"
						},
						"returns": {
							"validVote": "Is the vote valid? A valid vote should be from a registered  friend to a registered restaurant"
						}
					}
				},
				"title": "Contract to agree on the lunch venue",
				"version": 1
			},
			"evm": {
				"assembly": "    /* \"project1/contracts/LunchVenue.sol\":558:559  0 */\n  0x00\n    /* \"project1/contracts/LunchVenue.sol\":529:559  uint public numRestaurants = 0 */\n  0x02\n  dup2\n  swap1\n  sstore\n    /* \"project1/contracts/LunchVenue.sol\":565:591  uint public numFriends = 0 */\n  0x03\n  dup2\n  swap1\n  sstore\n    /* \"project1/contracts/LunchVenue.sol\":597:621  uint public numVotes = 0 */\n  0x04\n  dup2\n  swap1\n  sstore\n    /* \"project1/contracts/LunchVenue.sol\":694:728  string public votedRestaurant = \"\" */\n  0xa0\n    /* \"project1/contracts/LunchVenue.sol\":157:4501  contract LunchVenue{... */\n  0x40\n    /* \"project1/contracts/LunchVenue.sol\":694:728  string public votedRestaurant = \"\" */\n  dup2\n  swap1\n  mstore\n    /* \"project1/contracts/LunchVenue.sol\":157:4501  contract LunchVenue{... */\n  0x80\n    /* \"project1/contracts/LunchVenue.sol\":694:728  string public votedRestaurant = \"\" */\n  dup3\n  swap1\n  mstore\n  tag_1\n  swap2\n  0x06\n  swap2\n  swap1\n  tag_2\n  jump\t// in\ntag_1:\n  pop\n    /* \"project1/contracts/LunchVenue.sol\":944:971  bool public voteOpen = true */\n  0x09\n  dup1\n  sload\n  not(0xff)\n  and\n    /* \"project1/contracts/LunchVenue.sol\":967:971  true */\n  0x01\n    /* \"project1/contracts/LunchVenue.sol\":944:971  bool public voteOpen = true */\n  or\n  swap1\n  sstore\n    /* \"project1/contracts/LunchVenue.sol\":1071:1175  constructor () {... */\n  callvalue\n  dup1\n  iszero\n  tag_3\n  jumpi\n  0x00\n  dup1\n  revert\ntag_3:\n  pop\n    /* \"project1/contracts/LunchVenue.sol\":1096:1103  manager */\n  0x05\n    /* \"project1/contracts/LunchVenue.sol\":1096:1116  manager = msg.sender */\n  dup1\n  sload\n  not(sub(shl(0xa0, 0x01), 0x01))\n  and\n    /* \"project1/contracts/LunchVenue.sol\":1106:1116  msg.sender */\n  caller\n    /* \"project1/contracts/LunchVenue.sol\":1096:1116  manager = msg.sender */\n  or\n  swap1\n  sstore\n    /* \"project1/contracts/LunchVenue.sol\":157:4501  contract LunchVenue{... */\n  jump(tag_18)\ntag_2:\n  dup3\n  dup1\n  sload\n  tag_7\n  swap1\n  tag_8\n  jump\t// in\ntag_7:\n  swap1\n  0x00\n  mstore\n  keccak256(0x00, 0x20)\n  swap1\n  0x1f\n  add\n  0x20\n  swap1\n  div\n  dup2\n  add\n  swap3\n  dup3\n  tag_10\n  jumpi\n  0x00\n  dup6\n  sstore\n  jump(tag_13)\ntag_10:\n  dup3\n  0x1f\n  lt\n  tag_11\n  jumpi\n  dup1\n  mload\n  not(0xff)\n  and\n  dup4\n  dup1\n  add\n  or\n  dup6\n  sstore\n  jump(tag_13)\ntag_11:\n  dup3\n  dup1\n  add\n  0x01\n  add\n  dup6\n  sstore\n  dup3\n  iszero\n  tag_13\n  jumpi\n  swap2\n  dup3\n  add\ntag_12:\n  dup3\n  dup2\n  gt\n  iszero\n  tag_13\n  jumpi\n  dup3\n  mload\n  dup3\n  sstore\n  swap2\n  0x20\n  add\n  swap2\n  swap1\n  0x01\n  add\n  swap1\n  jump(tag_12)\ntag_13:\n  pop\n  tag_14\n  swap3\n  swap2\n  pop\n  tag_15\n  jump\t// in\ntag_14:\n  pop\n  swap1\n  jump\t// out\ntag_15:\ntag_16:\n  dup1\n  dup3\n  gt\n  iszero\n  tag_14\n  jumpi\n  0x00\n  dup2\n  sstore\n  0x01\n  add\n  jump(tag_16)\n    /* \"#utility.yul\":14:394   */\ntag_8:\n    /* \"#utility.yul\":93:94   */\n  0x01\n    /* \"#utility.yul\":89:101   */\n  dup2\n  dup2\n  shr\n  swap1\n    /* \"#utility.yul\":136:148   */\n  dup3\n  and\n  dup1\n    /* \"#utility.yul\":157:159   */\n  tag_20\n  jumpi\n    /* \"#utility.yul\":211:215   */\n  0x7f\n    /* \"#utility.yul\":203:209   */\n  dup3\n    /* \"#utility.yul\":199:216   */\n  and\n    /* \"#utility.yul\":189:216   */\n  swap2\n  pop\n    /* \"#utility.yul\":157:159   */\ntag_20:\n    /* \"#utility.yul\":264:266   */\n  0x20\n    /* \"#utility.yul\":256:262   */\n  dup3\n    /* \"#utility.yul\":253:267   */\n  lt\n    /* \"#utility.yul\":233:251   */\n  dup2\n    /* \"#utility.yul\":230:268   */\n  eq\n    /* \"#utility.yul\":227:229   */\n  iszero\n  tag_21\n  jumpi\n    /* \"#utility.yul\":310:320   */\n  0x4e487b71\n    /* \"#utility.yul\":305:308   */\n  0xe0\n    /* \"#utility.yul\":301:321   */\n  shl\n    /* \"#utility.yul\":298:299   */\n  0x00\n    /* \"#utility.yul\":291:322   */\n  mstore\n    /* \"#utility.yul\":345:349   */\n  0x22\n    /* \"#utility.yul\":342:343   */\n  0x04\n    /* \"#utility.yul\":335:350   */\n  mstore\n    /* \"#utility.yul\":373:377   */\n  0x24\n    /* \"#utility.yul\":370:371   */\n  0x00\n    /* \"#utility.yul\":363:378   */\n  revert\n    /* \"#utility.yul\":227:229   */\ntag_21:\n  pop\n    /* \"#utility.yul\":69:394   */\n  swap2\n  swap1\n  pop\n  jump\t// out\ntag_18:\n    /* \"project1/contracts/LunchVenue.sol\":157:4501  contract LunchVenue{... */\n  dataSize(sub_0)\n  dup1\n  dataOffset(sub_0)\n  0x00\n  codecopy\n  0x00\n  return\nstop\n\nsub_0: assembly {\n        /* \"project1/contracts/LunchVenue.sol\":157:4501  contract LunchVenue{... */\n      mstore(0x40, 0x80)\n      callvalue\n      dup1\n      iszero\n      tag_1\n      jumpi\n      0x00\n      dup1\n      revert\n    tag_1:\n      pop\n      jumpi(tag_2, lt(calldatasize, 0x04))\n      shr(0xe0, calldataload(0x00))\n      dup1\n      0x6d77bd3e\n      gt\n      tag_15\n      jumpi\n      dup1\n      0x6d77bd3e\n      eq\n      tag_9\n      jumpi\n      dup1\n      0x788d3851\n      eq\n      tag_10\n      jumpi\n      dup1\n      0xa3bef4d7\n      eq\n      tag_11\n      jumpi\n      dup1\n      0xad5461d8\n      eq\n      tag_12\n      jumpi\n      dup1\n      0xb798867f\n      eq\n      tag_13\n      jumpi\n      dup1\n      0xc1c16efc\n      eq\n      tag_14\n      jumpi\n      0x00\n      dup1\n      revert\n    tag_15:\n      dup1\n      0x124258c6\n      eq\n      tag_3\n      jumpi\n      dup1\n      0x1ddabf7a\n      eq\n      tag_4\n      jumpi\n      dup1\n      0x3b9f708d\n      eq\n      tag_5\n      jumpi\n      dup1\n      0x47098f36\n      eq\n      tag_6\n      jumpi\n      dup1\n      0x481c6a75\n      eq\n      tag_7\n      jumpi\n      dup1\n      0x5df81330\n      eq\n      tag_8\n      jumpi\n    tag_2:\n      0x00\n      dup1\n      revert\n        /* \"project1/contracts/LunchVenue.sol\":2448:3205  function doVote(uint restaurant) public votingOpen returns (bool validVote){... */\n    tag_3:\n      tag_16\n      tag_17\n      calldatasize\n      0x04\n      tag_18\n      jump\t// in\n    tag_17:\n      tag_19\n      jump\t// in\n    tag_16:\n      mload(0x40)\n        /* \"#utility.yul\":3149:3163   */\n      swap1\n      iszero\n        /* \"#utility.yul\":3142:3164   */\n      iszero\n        /* \"#utility.yul\":3124:3165   */\n      dup2\n      mstore\n        /* \"#utility.yul\":3112:3114   */\n      0x20\n        /* \"#utility.yul\":3097:3115   */\n      add\n        /* \"project1/contracts/LunchVenue.sol\":2448:3205  function doVote(uint restaurant) public votingOpen returns (bool validVote){... */\n    tag_20:\n      mload(0x40)\n      dup1\n      swap2\n      sub\n      swap1\n      return\n        /* \"project1/contracts/LunchVenue.sol\":445:486  mapping(address => Friend) public friends */\n    tag_4:\n      tag_22\n      tag_23\n      calldatasize\n      0x04\n      tag_24\n      jump\t// in\n    tag_23:\n      tag_25\n      jump\t// in\n    tag_22:\n      mload(0x40)\n      tag_20\n      swap3\n      swap2\n      swap1\n      tag_27\n      jump\t// in\n        /* \"project1/contracts/LunchVenue.sol\":1861:2120  function addFriend(address friendAddress, string memory name) public restricted returns (uint){... */\n    tag_5:\n      tag_28\n      tag_29\n      calldatasize\n      0x04\n      tag_30\n      jump\t// in\n    tag_29:\n      tag_31\n      jump\t// in\n    tag_28:\n      mload(0x40)\n        /* \"#utility.yul\":4661:4686   */\n      swap1\n      dup2\n      mstore\n        /* \"#utility.yul\":4649:4651   */\n      0x20\n        /* \"#utility.yul\":4634:4652   */\n      add\n        /* \"project1/contracts/LunchVenue.sol\":1861:2120  function addFriend(address friendAddress, string memory name) public restricted returns (uint){... */\n      tag_20\n        /* \"#utility.yul\":4616:4692   */\n      jump\n        /* \"project1/contracts/LunchVenue.sol\":565:591  uint public numFriends = 0 */\n    tag_6:\n      tag_28\n      sload(0x03)\n      dup2\n      jump\n        /* \"project1/contracts/LunchVenue.sol\":627:649  address public manager */\n    tag_7:\n      sload(0x05)\n      tag_37\n      swap1\n      sub(shl(0xa0, 0x01), 0x01)\n      and\n      dup2\n      jump\n    tag_37:\n      mload(0x40)\n      sub(shl(0xa0, 0x01), 0x01)\n        /* \"#utility.yul\":2661:2693   */\n      swap1\n      swap2\n      and\n        /* \"#utility.yul\":2643:2694   */\n      dup2\n      mstore\n        /* \"#utility.yul\":2631:2633   */\n      0x20\n        /* \"#utility.yul\":2616:2634   */\n      add\n        /* \"project1/contracts/LunchVenue.sol\":627:649  address public manager */\n      tag_20\n        /* \"#utility.yul\":2598:2700   */\n      jump\n        /* \"project1/contracts/LunchVenue.sol\":765:800  mapping (uint => Vote) public votes */\n    tag_8:\n      tag_41\n      tag_42\n      calldatasize\n      0x04\n      tag_18\n      jump\t// in\n    tag_42:\n      mstore(0x20, 0x07)\n      0x00\n      swap1\n      dup2\n      mstore\n      0x40\n      swap1\n      keccak256\n      dup1\n      sload\n      0x01\n      swap1\n      swap2\n      add\n      sload\n      sub(shl(0xa0, 0x01), 0x01)\n      swap1\n      swap2\n      and\n      swap1\n      dup3\n      jump\n    tag_41:\n      0x40\n      dup1\n      mload\n      sub(shl(0xa0, 0x01), 0x01)\n        /* \"#utility.yul\":2897:2929   */\n      swap1\n      swap4\n      and\n        /* \"#utility.yul\":2879:2930   */\n      dup4\n      mstore\n        /* \"#utility.yul\":2961:2963   */\n      0x20\n        /* \"#utility.yul\":2946:2964   */\n      dup4\n      add\n        /* \"#utility.yul\":2939:2973   */\n      swap2\n      swap1\n      swap2\n      mstore\n        /* \"#utility.yul\":2852:2870   */\n      add\n        /* \"project1/contracts/LunchVenue.sol\":765:800  mapping (uint => Vote) public votes */\n      tag_20\n        /* \"#utility.yul\":2834:2979   */\n      jump\n        /* \"project1/contracts/LunchVenue.sol\":1400:1583  function addRestaurant(string memory name) public restricted returns (uint){... */\n    tag_9:\n      tag_28\n      tag_47\n      calldatasize\n      0x04\n      tag_48\n      jump\t// in\n    tag_47:\n      tag_49\n      jump\t// in\n        /* \"project1/contracts/LunchVenue.sol\":944:971  bool public voteOpen = true */\n    tag_10:\n      sload(0x09)\n      tag_16\n      swap1\n      0xff\n      and\n      dup2\n      jump\n        /* \"project1/contracts/LunchVenue.sol\":597:621  uint public numVotes = 0 */\n    tag_11:\n      tag_28\n      sload(0x04)\n      dup2\n      jump\n        /* \"project1/contracts/LunchVenue.sol\":352:395  mapping (uint => string) public restaurants */\n    tag_12:\n      tag_57\n      tag_58\n      calldatasize\n      0x04\n      tag_18\n      jump\t// in\n    tag_58:\n      tag_59\n      jump\t// in\n    tag_57:\n      mload(0x40)\n      tag_20\n      swap2\n      swap1\n      tag_61\n      jump\t// in\n        /* \"project1/contracts/LunchVenue.sol\":529:559  uint public numRestaurants = 0 */\n    tag_13:\n      tag_28\n      sload(0x02)\n      dup2\n      jump\n        /* \"project1/contracts/LunchVenue.sol\":694:728  string public votedRestaurant = \"\" */\n    tag_14:\n      tag_57\n      tag_66\n      jump\t// in\n        /* \"project1/contracts/LunchVenue.sol\":2448:3205  function doVote(uint restaurant) public votingOpen returns (bool validVote){... */\n    tag_19:\n        /* \"project1/contracts/LunchVenue.sol\":4425:4433  voteOpen */\n      sload(0x09)\n        /* \"project1/contracts/LunchVenue.sol\":2508:2522  bool validVote */\n      0x00\n      swap1\n        /* \"project1/contracts/LunchVenue.sol\":4425:4433  voteOpen */\n      0xff\n      and\n        /* \"project1/contracts/LunchVenue.sol\":4425:4441  voteOpen == true */\n      iszero\n      iszero\n        /* \"project1/contracts/LunchVenue.sol\":4425:4433  voteOpen */\n      0x01\n        /* \"project1/contracts/LunchVenue.sol\":4425:4441  voteOpen == true */\n      eq\n        /* \"project1/contracts/LunchVenue.sol\":4417:4481  require(voteOpen == true, \"Can vote only while voting is open.\") */\n      tag_69\n      jumpi\n      mload(0x40)\n      shl(0xe5, 0x461bcd)\n      dup2\n      mstore\n        /* \"#utility.yul\":4313:4315   */\n      0x20\n        /* \"project1/contracts/LunchVenue.sol\":4417:4481  require(voteOpen == true, \"Can vote only while voting is open.\") */\n      0x04\n      dup3\n      add\n        /* \"#utility.yul\":4295:4316   */\n      mstore\n        /* \"#utility.yul\":4352:4354   */\n      0x23\n        /* \"#utility.yul\":4332:4350   */\n      0x24\n      dup3\n      add\n        /* \"#utility.yul\":4325:4355   */\n      mstore\n        /* \"#utility.yul\":4391:4425   */\n      0x43616e20766f7465206f6e6c79207768696c6520766f74696e67206973206f70\n        /* \"#utility.yul\":4371:4389   */\n      0x44\n      dup3\n      add\n        /* \"#utility.yul\":4364:4426   */\n      mstore\n      shl(0xe9, 0x32b717)\n        /* \"#utility.yul\":4442:4460   */\n      0x64\n      dup3\n      add\n        /* \"#utility.yul\":4435:4468   */\n      mstore\n        /* \"#utility.yul\":4485:4504   */\n      0x84\n      add\n        /* \"project1/contracts/LunchVenue.sol\":4417:4481  require(voteOpen == true, \"Can vote only while voting is open.\") */\n    tag_70:\n      mload(0x40)\n      dup1\n      swap2\n      sub\n      swap1\n      revert\n    tag_69:\n      pop\n        /* \"project1/contracts/LunchVenue.sol\":2632:2642  msg.sender */\n      caller\n        /* \"project1/contracts/LunchVenue.sol\":2545:2550  false */\n      0x00\n        /* \"project1/contracts/LunchVenue.sol\":2624:2643  friends[msg.sender] */\n      swap1\n      dup2\n      mstore\n        /* \"project1/contracts/LunchVenue.sol\":2624:2631  friends */\n      0x01\n        /* \"project1/contracts/LunchVenue.sol\":2624:2643  friends[msg.sender] */\n      0x20\n      mstore\n      0x40\n      dup2\n      keccak256\n        /* \"project1/contracts/LunchVenue.sol\":2618:2656  bytes(friends[msg.sender].name).length */\n      dup1\n      sload\n      tag_73\n      swap1\n      tag_74\n      jump\t// in\n    tag_73:\n        /* \"project1/contracts/LunchVenue.sol\":2618:2661  bytes(friends[msg.sender].name).length != 0 */\n      iszero\n      swap1\n      pop\n        /* \"project1/contracts/LunchVenue.sol\":2614:3067  if (bytes(friends[msg.sender].name).length != 0) {  //Does friend exist?... */\n      tag_77\n      jumpi\n        /* \"project1/contracts/LunchVenue.sol\":2709:2720  restaurants */\n      0x00\n        /* \"project1/contracts/LunchVenue.sol\":2709:2732  restaurants[restaurant] */\n      dup3\n      dup2\n      mstore\n      0x20\n      dup2\n      swap1\n      mstore\n      0x40\n      swap1\n      keccak256\n        /* \"project1/contracts/LunchVenue.sol\":2703:2740  bytes(restaurants[restaurant]).length */\n      dup1\n      sload\n      tag_76\n      swap1\n      tag_74\n      jump\t// in\n    tag_76:\n        /* \"project1/contracts/LunchVenue.sol\":2703:2745  bytes(restaurants[restaurant]).length != 0 */\n      iszero\n      swap1\n      pop\n        /* \"project1/contracts/LunchVenue.sol\":2699:3057  if (bytes(restaurants[restaurant]).length != 0) {   //Does restaurant exist?... */\n      tag_77\n      jumpi\n      pop\n        /* \"project1/contracts/LunchVenue.sol\":2834:2844  msg.sender */\n      caller\n        /* \"project1/contracts/LunchVenue.sol\":2826:2845  friends[msg.sender] */\n      0x00\n      dup2\n      dup2\n      mstore\n        /* \"project1/contracts/LunchVenue.sol\":2804:2808  true */\n      0x01\n        /* \"project1/contracts/LunchVenue.sol\":2826:2845  friends[msg.sender] */\n      0x20\n      dup2\n      dup2\n      mstore\n      0x40\n      dup1\n      dup5\n      keccak256\n        /* \"project1/contracts/LunchVenue.sol\":2826:2851  friends[msg.sender].voted */\n      dup4\n      add\n        /* \"project1/contracts/LunchVenue.sol\":2826:2858  friends[msg.sender].voted = true */\n      dup1\n      sload\n      not(0xff)\n      and\n      dup5\n      or\n      swap1\n      sstore\n      dup1\n      mload\n      dup1\n      dup3\n      add\n      swap1\n      swap2\n      mstore\n        /* \"project1/contracts/LunchVenue.sol\":2907:2934  v.voterAddress = msg.sender */\n      swap4\n      dup5\n      mstore\n      dup4\n      add\n        /* \"project1/contracts/LunchVenue.sol\":2952:2977  v.restaurant = restaurant */\n      dup5\n      swap1\n      mstore\n        /* \"project1/contracts/LunchVenue.sol\":2995:3003  numVotes */\n      0x04\n        /* \"project1/contracts/LunchVenue.sol\":2995:3005  numVotes++ */\n      dup1\n      sload\n        /* \"project1/contracts/LunchVenue.sol\":2804:2808  true */\n      swap2\n      swap4\n      swap3\n        /* \"project1/contracts/LunchVenue.sol\":2995:3005  numVotes++ */\n      tag_80\n      dup4\n      tag_81\n      jump\t// in\n    tag_80:\n      swap1\n      swap2\n      sstore\n      pop\n      pop\n        /* \"project1/contracts/LunchVenue.sol\":3029:3037  numVotes */\n      sload(0x04)\n        /* \"project1/contracts/LunchVenue.sol\":3023:3038  votes[numVotes] */\n      0x00\n      swap1\n      dup2\n      mstore\n        /* \"project1/contracts/LunchVenue.sol\":3023:3028  votes */\n      0x07\n        /* \"project1/contracts/LunchVenue.sol\":3023:3038  votes[numVotes] */\n      0x20\n      swap1\n      dup2\n      mstore\n      0x40\n      swap1\n      swap2\n      keccak256\n        /* \"project1/contracts/LunchVenue.sol\":3023:3042  votes[numVotes] = v */\n      dup3\n      mload\n      dup2\n      sload\n      not(sub(shl(0xa0, 0x01), 0x01))\n      and\n      sub(shl(0xa0, 0x01), 0x01)\n      swap1\n      swap2\n      and\n      or\n      dup2\n      sstore\n      swap2\n      add\n      mload\n      0x01\n      swap1\n      swap2\n      add\n      sstore\n        /* \"project1/contracts/LunchVenue.sol\":2699:3057  if (bytes(restaurants[restaurant]).length != 0) {   //Does restaurant exist?... */\n    tag_77:\n        /* \"project1/contracts/LunchVenue.sol\":3112:3113  2 */\n      0x02\n        /* \"project1/contracts/LunchVenue.sol\":3101:3111  numFriends */\n      sload(0x03)\n        /* \"project1/contracts/LunchVenue.sol\":3101:3113  numFriends/2 */\n      tag_82\n      swap2\n      swap1\n      tag_83\n      jump\t// in\n    tag_82:\n        /* \"project1/contracts/LunchVenue.sol\":3101:3117  numFriends/2 + 1 */\n      tag_84\n      swap1\n        /* \"project1/contracts/LunchVenue.sol\":3116:3117  1 */\n      0x01\n        /* \"project1/contracts/LunchVenue.sol\":3101:3117  numFriends/2 + 1 */\n      tag_85\n      jump\t// in\n    tag_84:\n        /* \"project1/contracts/LunchVenue.sol\":3089:3097  numVotes */\n      sload(0x04)\n        /* \"project1/contracts/LunchVenue.sol\":3089:3117  numVotes >= numFriends/2 + 1 */\n      lt\n        /* \"project1/contracts/LunchVenue.sol\":3085:3173  if (numVotes >= numFriends/2 + 1) { //Quorum is met... */\n      tag_87\n      jumpi\n        /* \"project1/contracts/LunchVenue.sol\":3149:3162  finalResult() */\n      tag_87\n        /* \"project1/contracts/LunchVenue.sol\":3149:3160  finalResult */\n      tag_88\n        /* \"project1/contracts/LunchVenue.sol\":3149:3162  finalResult() */\n      jump\t// in\n    tag_87:\n        /* \"project1/contracts/LunchVenue.sol\":2448:3205  function doVote(uint restaurant) public votingOpen returns (bool validVote){... */\n      swap2\n      swap1\n      pop\n      jump\t// out\n        /* \"project1/contracts/LunchVenue.sol\":445:486  mapping(address => Friend) public friends */\n    tag_25:\n      mstore(0x20, 0x01)\n      0x00\n      swap1\n      dup2\n      mstore\n      0x40\n      swap1\n      keccak256\n      dup1\n      sload\n      dup2\n      swap1\n      tag_89\n      swap1\n      tag_74\n      jump\t// in\n    tag_89:\n      dup1\n      0x1f\n      add\n      0x20\n      dup1\n      swap2\n      div\n      mul\n      0x20\n      add\n      mload(0x40)\n      swap1\n      dup2\n      add\n      0x40\n      mstore\n      dup1\n      swap3\n      swap2\n      swap1\n      dup2\n      dup2\n      mstore\n      0x20\n      add\n      dup3\n      dup1\n      sload\n      tag_90\n      swap1\n      tag_74\n      jump\t// in\n    tag_90:\n      dup1\n      iszero\n      tag_91\n      jumpi\n      dup1\n      0x1f\n      lt\n      tag_92\n      jumpi\n      0x0100\n      dup1\n      dup4\n      sload\n      div\n      mul\n      dup4\n      mstore\n      swap2\n      0x20\n      add\n      swap2\n      jump(tag_91)\n    tag_92:\n      dup3\n      add\n      swap2\n      swap1\n      0x00\n      mstore\n      keccak256(0x00, 0x20)\n      swap1\n    tag_93:\n      dup2\n      sload\n      dup2\n      mstore\n      swap1\n      0x01\n      add\n      swap1\n      0x20\n      add\n      dup1\n      dup4\n      gt\n      tag_93\n      jumpi\n      dup3\n      swap1\n      sub\n      0x1f\n      and\n      dup3\n      add\n      swap2\n    tag_91:\n      pop\n      pop\n      pop\n      0x01\n      swap1\n      swap4\n      add\n      sload\n      swap2\n      swap3\n      pop\n      pop\n      0xff\n      and\n      dup3\n      jump\t// out\n        /* \"project1/contracts/LunchVenue.sol\":1861:2120  function addFriend(address friendAddress, string memory name) public restricted returns (uint){... */\n    tag_31:\n        /* \"project1/contracts/LunchVenue.sol\":4248:4255  manager */\n      sload(0x05)\n        /* \"project1/contracts/LunchVenue.sol\":1950:1954  uint */\n      0x00\n      swap1\n      sub(shl(0xa0, 0x01), 0x01)\n        /* \"project1/contracts/LunchVenue.sol\":4248:4255  manager */\n      and\n        /* \"project1/contracts/LunchVenue.sol\":4234:4244  msg.sender */\n      caller\n        /* \"project1/contracts/LunchVenue.sol\":4234:4255  msg.sender == manager */\n      eq\n        /* \"project1/contracts/LunchVenue.sol\":4225:4295  require (msg.sender == manager, \"Can only be executed by the manager\") */\n      tag_95\n      jumpi\n      mload(0x40)\n      shl(0xe5, 0x461bcd)\n      dup2\n      mstore\n      0x04\n      add\n      tag_70\n      swap1\n      tag_97\n      jump\t// in\n    tag_95:\n      0x40\n      dup1\n      mload\n      dup1\n      dup3\n      add\n      dup3\n      mstore\n      0x00\n      0x20\n      dup1\n      dup4\n      add\n      dup3\n      swap1\n      mstore\n        /* \"project1/contracts/LunchVenue.sol\":1990:2003  f.name = name */\n      dup6\n      dup4\n      mstore\n      sub(shl(0xa0, 0x01), 0x01)\n        /* \"project1/contracts/LunchVenue.sol\":2038:2060  friends[friendAddress] */\n      dup8\n      and\n      dup3\n      mstore\n        /* \"project1/contracts/LunchVenue.sol\":2013:2028  f.voted = false */\n      0x01\n        /* \"project1/contracts/LunchVenue.sol\":2038:2060  friends[friendAddress] */\n      dup2\n      mstore\n      swap3\n      swap1\n      keccak256\n        /* \"project1/contracts/LunchVenue.sol\":2038:2064  friends[friendAddress] = f */\n      dup2\n      mload\n      dup1\n      mload\n      swap3\n      swap4\n      dup5\n      swap4\n      tag_101\n      swap3\n        /* \"project1/contracts/LunchVenue.sol\":2038:2060  friends[friendAddress] */\n      dup5\n      swap3\n        /* \"project1/contracts/LunchVenue.sol\":2038:2064  friends[friendAddress] = f */\n      add\n      swap1\n      tag_102\n      jump\t// in\n    tag_101:\n      pop\n      0x20\n      swap2\n      swap1\n      swap2\n      add\n      mload\n      0x01\n      swap1\n      swap2\n      add\n      dup1\n      sload\n      not(0xff)\n      and\n      swap2\n      iszero\n      iszero\n      swap2\n      swap1\n      swap2\n      or\n      swap1\n      sstore\n        /* \"project1/contracts/LunchVenue.sol\":2074:2084  numFriends */\n      0x03\n        /* \"project1/contracts/LunchVenue.sol\":2074:2086  numFriends++ */\n      dup1\n      sload\n      swap1\n      0x00\n      tag_103\n      dup4\n      tag_81\n      jump\t// in\n    tag_103:\n      swap1\n      swap2\n      sstore\n      pop\n      pop\n        /* \"project1/contracts/LunchVenue.sol\":2103:2113  numFriends */\n      sload(0x03)\n      swap5\n        /* \"project1/contracts/LunchVenue.sol\":1861:2120  function addFriend(address friendAddress, string memory name) public restricted returns (uint){... */\n      swap4\n      pop\n      pop\n      pop\n      pop\n      jump\t// out\n        /* \"project1/contracts/LunchVenue.sol\":1400:1583  function addRestaurant(string memory name) public restricted returns (uint){... */\n    tag_49:\n        /* \"project1/contracts/LunchVenue.sol\":4248:4255  manager */\n      sload(0x05)\n        /* \"project1/contracts/LunchVenue.sol\":1470:1474  uint */\n      0x00\n      swap1\n      sub(shl(0xa0, 0x01), 0x01)\n        /* \"project1/contracts/LunchVenue.sol\":4248:4255  manager */\n      and\n        /* \"project1/contracts/LunchVenue.sol\":4234:4244  msg.sender */\n      caller\n        /* \"project1/contracts/LunchVenue.sol\":4234:4255  msg.sender == manager */\n      eq\n        /* \"project1/contracts/LunchVenue.sol\":4225:4295  require (msg.sender == manager, \"Can only be executed by the manager\") */\n      tag_105\n      jumpi\n      mload(0x40)\n      shl(0xe5, 0x461bcd)\n      dup2\n      mstore\n      0x04\n      add\n      tag_70\n      swap1\n      tag_97\n      jump\t// in\n    tag_105:\n        /* \"project1/contracts/LunchVenue.sol\":1485:1499  numRestaurants */\n      0x02\n        /* \"project1/contracts/LunchVenue.sol\":1485:1501  numRestaurants++ */\n      dup1\n      sload\n      swap1\n        /* \"project1/contracts/LunchVenue.sol\":1485:1499  numRestaurants */\n      0x00\n        /* \"project1/contracts/LunchVenue.sol\":1485:1501  numRestaurants++ */\n      tag_108\n      dup4\n      tag_81\n      jump\t// in\n    tag_108:\n      swap1\n      swap2\n      sstore\n      pop\n      pop\n        /* \"project1/contracts/LunchVenue.sol\":1523:1537  numRestaurants */\n      sload(0x02)\n        /* \"project1/contracts/LunchVenue.sol\":1511:1522  restaurants */\n      0x00\n        /* \"project1/contracts/LunchVenue.sol\":1511:1538  restaurants[numRestaurants] */\n      swap1\n      dup2\n      mstore\n      0x20\n      dup2\n      dup2\n      mstore\n      0x40\n      swap1\n      swap2\n      keccak256\n        /* \"project1/contracts/LunchVenue.sol\":1511:1545  restaurants[numRestaurants] = name */\n      dup4\n      mload\n      tag_109\n      swap3\n      dup6\n      add\n      swap1\n      tag_102\n      jump\t// in\n    tag_109:\n      pop\n      pop\n        /* \"project1/contracts/LunchVenue.sol\":1562:1576  numRestaurants */\n      sload(0x02)\n        /* \"project1/contracts/LunchVenue.sol\":1400:1583  function addRestaurant(string memory name) public restricted returns (uint){... */\n      swap2\n      swap1\n      pop\n      jump\t// out\n        /* \"project1/contracts/LunchVenue.sol\":352:395  mapping (uint => string) public restaurants */\n    tag_59:\n      0x00\n      0x20\n      dup2\n      swap1\n      mstore\n      swap1\n      dup2\n      mstore\n      0x40\n      swap1\n      keccak256\n      dup1\n      sload\n      tag_110\n      swap1\n      tag_74\n      jump\t// in\n    tag_110:\n      dup1\n      0x1f\n      add\n      0x20\n      dup1\n      swap2\n      div\n      mul\n      0x20\n      add\n      mload(0x40)\n      swap1\n      dup2\n      add\n      0x40\n      mstore\n      dup1\n      swap3\n      swap2\n      swap1\n      dup2\n      dup2\n      mstore\n      0x20\n      add\n      dup3\n      dup1\n      sload\n      tag_111\n      swap1\n      tag_74\n      jump\t// in\n    tag_111:\n      dup1\n      iszero\n      tag_112\n      jumpi\n      dup1\n      0x1f\n      lt\n      tag_113\n      jumpi\n      0x0100\n      dup1\n      dup4\n      sload\n      div\n      mul\n      dup4\n      mstore\n      swap2\n      0x20\n      add\n      swap2\n      jump(tag_112)\n    tag_113:\n      dup3\n      add\n      swap2\n      swap1\n      0x00\n      mstore\n      keccak256(0x00, 0x20)\n      swap1\n    tag_114:\n      dup2\n      sload\n      dup2\n      mstore\n      swap1\n      0x01\n      add\n      swap1\n      0x20\n      add\n      dup1\n      dup4\n      gt\n      tag_114\n      jumpi\n      dup3\n      swap1\n      sub\n      0x1f\n      and\n      dup3\n      add\n      swap2\n    tag_112:\n      pop\n      pop\n      pop\n      pop\n      pop\n      dup2\n      jump\t// out\n        /* \"project1/contracts/LunchVenue.sol\":694:728  string public votedRestaurant = \"\" */\n    tag_66:\n      0x06\n      dup1\n      sload\n      tag_110\n      swap1\n      tag_74\n      jump\t// in\n        /* \"project1/contracts/LunchVenue.sol\":3359:4127  function finalResult() private{... */\n    tag_88:\n        /* \"project1/contracts/LunchVenue.sol\":3399:3416  uint highestVotes */\n      0x00\n      dup1\n        /* \"project1/contracts/LunchVenue.sol\":3489:3490  1 */\n      0x01\n        /* \"project1/contracts/LunchVenue.sol\":3475:3958  for (uint i = 1; i <= numVotes; i++){   //For each vote... */\n    tag_121:\n        /* \"project1/contracts/LunchVenue.sol\":3497:3505  numVotes */\n      sload(0x04)\n        /* \"project1/contracts/LunchVenue.sol\":3492:3493  i */\n      dup2\n        /* \"project1/contracts/LunchVenue.sol\":3492:3505  i <= numVotes */\n      gt\n        /* \"project1/contracts/LunchVenue.sol\":3475:3958  for (uint i = 1; i <= numVotes; i++){   //For each vote... */\n      tag_122\n      jumpi\n        /* \"project1/contracts/LunchVenue.sol\":3543:3557  uint voteCount */\n      0x00\n        /* \"project1/contracts/LunchVenue.sol\":3587:3595  votes[i] */\n      dup2\n      dup2\n      mstore\n        /* \"project1/contracts/LunchVenue.sol\":3587:3592  votes */\n      0x07\n        /* \"project1/contracts/LunchVenue.sol\":3587:3595  votes[i] */\n      0x20\n      swap1\n      dup2\n      mstore\n      0x40\n      dup1\n      dup4\n      keccak256\n        /* \"project1/contracts/LunchVenue.sol\":3560:3561  1 */\n      0x01\n        /* \"project1/contracts/LunchVenue.sol\":3587:3606  votes[i].restaurant */\n      swap1\n      dup2\n      add\n      sload\n        /* \"project1/contracts/LunchVenue.sol\":3578:3607  _results[votes[i].restaurant] */\n      dup5\n      mstore\n        /* \"project1/contracts/LunchVenue.sol\":3578:3586  _results */\n      0x08\n        /* \"project1/contracts/LunchVenue.sol\":3578:3607  _results[votes[i].restaurant] */\n      swap1\n      swap3\n      mstore\n      swap1\n      swap2\n      keccak256\n      sload\n        /* \"project1/contracts/LunchVenue.sol\":3578:3611  _results[votes[i].restaurant] > 0 */\n      iszero\n        /* \"project1/contracts/LunchVenue.sol\":3575:3714  if(_results[votes[i].restaurant] > 0) { // Already start counting... */\n      tag_124\n      jumpi\n        /* \"project1/contracts/LunchVenue.sol\":3670:3699  _results[votes[i].restaurant] */\n      0x00\n        /* \"project1/contracts/LunchVenue.sol\":3679:3687  votes[i] */\n      dup3\n      dup2\n      mstore\n        /* \"project1/contracts/LunchVenue.sol\":3679:3684  votes */\n      0x07\n        /* \"project1/contracts/LunchVenue.sol\":3679:3687  votes[i] */\n      0x20\n      swap1\n      dup2\n      mstore\n      0x40\n      dup1\n      dup4\n      keccak256\n        /* \"project1/contracts/LunchVenue.sol\":3679:3698  votes[i].restaurant */\n      0x01\n      add\n      sload\n        /* \"project1/contracts/LunchVenue.sol\":3670:3699  _results[votes[i].restaurant] */\n      dup4\n      mstore\n        /* \"project1/contracts/LunchVenue.sol\":3670:3678  _results */\n      0x08\n        /* \"project1/contracts/LunchVenue.sol\":3670:3699  _results[votes[i].restaurant] */\n      swap1\n      swap2\n      mstore\n      swap1\n      keccak256\n      sload\n        /* \"project1/contracts/LunchVenue.sol\":3657:3699  voteCount += _results[votes[i].restaurant] */\n      tag_125\n      swap1\n      dup3\n      tag_85\n      jump\t// in\n    tag_125:\n      swap1\n      pop\n        /* \"project1/contracts/LunchVenue.sol\":3575:3714  if(_results[votes[i].restaurant] > 0) { // Already start counting... */\n    tag_124:\n        /* \"project1/contracts/LunchVenue.sol\":3727:3756  _results[votes[i].restaurant] */\n      0x00\n        /* \"project1/contracts/LunchVenue.sol\":3736:3744  votes[i] */\n      dup3\n      dup2\n      mstore\n        /* \"project1/contracts/LunchVenue.sol\":3736:3741  votes */\n      0x07\n        /* \"project1/contracts/LunchVenue.sol\":3736:3744  votes[i] */\n      0x20\n      swap1\n      dup2\n      mstore\n      0x40\n      dup1\n      dup4\n      keccak256\n        /* \"project1/contracts/LunchVenue.sol\":3736:3755  votes[i].restaurant */\n      0x01\n      add\n      sload\n        /* \"project1/contracts/LunchVenue.sol\":3727:3756  _results[votes[i].restaurant] */\n      dup4\n      mstore\n        /* \"project1/contracts/LunchVenue.sol\":3727:3735  _results */\n      0x08\n        /* \"project1/contracts/LunchVenue.sol\":3727:3756  _results[votes[i].restaurant] */\n      swap1\n      swap2\n      mstore\n      swap1\n      keccak256\n        /* \"project1/contracts/LunchVenue.sol\":3727:3768  _results[votes[i].restaurant] = voteCount */\n      dup2\n      swap1\n      sstore\n        /* \"project1/contracts/LunchVenue.sol\":3795:3819  voteCount > highestVotes */\n      dup4\n      dup2\n      gt\n        /* \"project1/contracts/LunchVenue.sol\":3791:3948  if (voteCount > highestVotes){ // New winner... */\n      iszero\n      tag_126\n      jumpi\n        /* \"project1/contracts/LunchVenue.sol\":3914:3922  votes[i] */\n      0x00\n      dup3\n      dup2\n      mstore\n        /* \"project1/contracts/LunchVenue.sol\":3914:3919  votes */\n      0x07\n        /* \"project1/contracts/LunchVenue.sol\":3914:3922  votes[i] */\n      0x20\n      mstore\n      0x40\n      swap1\n      keccak256\n        /* \"project1/contracts/LunchVenue.sol\":3914:3933  votes[i].restaurant */\n      0x01\n      add\n      sload\n        /* \"project1/contracts/LunchVenue.sol\":3867:3876  voteCount */\n      swap1\n      swap4\n      pop\n        /* \"project1/contracts/LunchVenue.sol\":3914:3933  votes[i].restaurant */\n      swap2\n      pop\n        /* \"project1/contracts/LunchVenue.sol\":3867:3876  voteCount */\n      dup3\n        /* \"project1/contracts/LunchVenue.sol\":3791:3948  if (voteCount > highestVotes){ // New winner... */\n    tag_126:\n      pop\n        /* \"project1/contracts/LunchVenue.sol\":3507:3510  i++ */\n      dup1\n      tag_127\n      dup2\n      tag_81\n      jump\t// in\n    tag_127:\n      swap2\n      pop\n      pop\n        /* \"project1/contracts/LunchVenue.sol\":3475:3958  for (uint i = 1; i <= numVotes; i++){   //For each vote... */\n      jump(tag_121)\n    tag_122:\n      pop\n        /* \"project1/contracts/LunchVenue.sol\":3985:3996  restaurants */\n      0x00\n        /* \"project1/contracts/LunchVenue.sol\":3985:4015  restaurants[highestRestaurant] */\n      dup2\n      dup2\n      mstore\n      0x20\n      dup2\n      swap1\n      mstore\n      0x40\n      swap1\n      keccak256\n        /* \"project1/contracts/LunchVenue.sol\":3967:4015  votedRestaurant = restaurants[highestRestaurant] */\n      dup1\n      sload\n        /* \"project1/contracts/LunchVenue.sol\":3967:3982  votedRestaurant */\n      0x06\n      swap2\n        /* \"project1/contracts/LunchVenue.sol\":3985:4015  restaurants[highestRestaurant] */\n      swap1\n        /* \"project1/contracts/LunchVenue.sol\":3967:4015  votedRestaurant = restaurants[highestRestaurant] */\n      tag_128\n      swap1\n      tag_74\n      jump\t// in\n    tag_128:\n      tag_129\n      swap3\n      swap2\n      swap1\n      tag_130\n      jump\t// in\n    tag_129:\n      pop\n      pop\n        /* \"project1/contracts/LunchVenue.sol\":4047:4055  voteOpen */\n      0x09\n        /* \"project1/contracts/LunchVenue.sol\":4047:4063  voteOpen = false */\n      dup1\n      sload\n      not(0xff)\n      and\n      swap1\n      sstore\n      pop\n        /* \"project1/contracts/LunchVenue.sol\":3359:4127  function finalResult() private{... */\n      jump\t// out\n    tag_102:\n      dup3\n      dup1\n      sload\n      tag_131\n      swap1\n      tag_74\n      jump\t// in\n    tag_131:\n      swap1\n      0x00\n      mstore\n      keccak256(0x00, 0x20)\n      swap1\n      0x1f\n      add\n      0x20\n      swap1\n      div\n      dup2\n      add\n      swap3\n      dup3\n      tag_133\n      jumpi\n      0x00\n      dup6\n      sstore\n      jump(tag_136)\n    tag_133:\n      dup3\n      0x1f\n      lt\n      tag_134\n      jumpi\n      dup1\n      mload\n      not(0xff)\n      and\n      dup4\n      dup1\n      add\n      or\n      dup6\n      sstore\n      jump(tag_136)\n    tag_134:\n      dup3\n      dup1\n      add\n      0x01\n      add\n      dup6\n      sstore\n      dup3\n      iszero\n      tag_136\n      jumpi\n      swap2\n      dup3\n      add\n    tag_135:\n      dup3\n      dup2\n      gt\n      iszero\n      tag_136\n      jumpi\n      dup3\n      mload\n      dup3\n      sstore\n      swap2\n      0x20\n      add\n      swap2\n      swap1\n      0x01\n      add\n      swap1\n      jump(tag_135)\n    tag_136:\n      pop\n      tag_137\n      swap3\n      swap2\n      pop\n      tag_138\n      jump\t// in\n    tag_137:\n      pop\n      swap1\n      jump\t// out\n    tag_130:\n      dup3\n      dup1\n      sload\n      tag_139\n      swap1\n      tag_74\n      jump\t// in\n    tag_139:\n      swap1\n      0x00\n      mstore\n      keccak256(0x00, 0x20)\n      swap1\n      0x1f\n      add\n      0x20\n      swap1\n      div\n      dup2\n      add\n      swap3\n      dup3\n      tag_141\n      jumpi\n      0x00\n      dup6\n      sstore\n      jump(tag_136)\n    tag_141:\n      dup3\n      0x1f\n      lt\n      tag_142\n      jumpi\n      dup1\n      sload\n      dup6\n      sstore\n      jump(tag_136)\n    tag_142:\n      dup3\n      dup1\n      add\n      0x01\n      add\n      dup6\n      sstore\n      dup3\n      iszero\n      tag_136\n      jumpi\n      0x00\n      mstore\n      keccak256(0x00, 0x20)\n      swap2\n      0x1f\n      add\n      0x20\n      swap1\n      div\n      dup3\n      add\n    tag_143:\n      dup3\n      dup2\n      gt\n      iszero\n      tag_136\n      jumpi\n      dup3\n      sload\n      dup3\n      sstore\n      swap2\n      0x01\n      add\n      swap2\n      swap1\n      0x01\n      add\n      swap1\n      jump(tag_143)\n    tag_138:\n    tag_146:\n      dup1\n      dup3\n      gt\n      iszero\n      tag_137\n      jumpi\n      0x00\n      dup2\n      sstore\n      0x01\n      add\n      jump(tag_146)\n        /* \"#utility.yul\":14:187   */\n    tag_149:\n        /* \"#utility.yul\":82:102   */\n      dup1\n      calldataload\n      sub(shl(0xa0, 0x01), 0x01)\n        /* \"#utility.yul\":131:162   */\n      dup2\n      and\n        /* \"#utility.yul\":121:163   */\n      dup2\n      eq\n        /* \"#utility.yul\":111:113   */\n      tag_87\n      jumpi\n        /* \"#utility.yul\":177:178   */\n      0x00\n        /* \"#utility.yul\":174:175   */\n      dup1\n        /* \"#utility.yul\":167:179   */\n      revert\n        /* \"#utility.yul\":192:911   */\n    tag_152:\n        /* \"#utility.yul\":235:240   */\n      0x00\n        /* \"#utility.yul\":288:291   */\n      dup3\n        /* \"#utility.yul\":281:285   */\n      0x1f\n        /* \"#utility.yul\":273:279   */\n      dup4\n        /* \"#utility.yul\":269:286   */\n      add\n        /* \"#utility.yul\":265:292   */\n      slt\n        /* \"#utility.yul\":255:257   */\n      tag_154\n      jumpi\n        /* \"#utility.yul\":306:307   */\n      0x00\n        /* \"#utility.yul\":303:304   */\n      dup1\n        /* \"#utility.yul\":296:308   */\n      revert\n        /* \"#utility.yul\":255:257   */\n    tag_154:\n        /* \"#utility.yul\":342:348   */\n      dup2\n        /* \"#utility.yul\":329:349   */\n      calldataload\n        /* \"#utility.yul\":368:386   */\n      0xffffffffffffffff\n        /* \"#utility.yul\":405:407   */\n      dup1\n        /* \"#utility.yul\":401:403   */\n      dup3\n        /* \"#utility.yul\":398:408   */\n      gt\n        /* \"#utility.yul\":395:397   */\n      iszero\n      tag_156\n      jumpi\n        /* \"#utility.yul\":411:429   */\n      tag_156\n      tag_157\n      jump\t// in\n    tag_156:\n        /* \"#utility.yul\":486:488   */\n      0x40\n        /* \"#utility.yul\":480:489   */\n      mload\n        /* \"#utility.yul\":454:456   */\n      0x1f\n        /* \"#utility.yul\":540:553   */\n      dup4\n      add\n      not(0x1f)\n        /* \"#utility.yul\":536:558   */\n      swap1\n      dup2\n      and\n        /* \"#utility.yul\":560:562   */\n      0x3f\n        /* \"#utility.yul\":532:563   */\n      add\n        /* \"#utility.yul\":528:568   */\n      and\n        /* \"#utility.yul\":516:569   */\n      dup2\n      add\n      swap1\n        /* \"#utility.yul\":584:602   */\n      dup3\n      dup3\n      gt\n        /* \"#utility.yul\":604:626   */\n      dup2\n      dup4\n      lt\n        /* \"#utility.yul\":581:627   */\n      or\n        /* \"#utility.yul\":578:580   */\n      iszero\n      tag_159\n      jumpi\n        /* \"#utility.yul\":630:648   */\n      tag_159\n      tag_157\n      jump\t// in\n    tag_159:\n        /* \"#utility.yul\":670:680   */\n      dup2\n        /* \"#utility.yul\":666:668   */\n      0x40\n        /* \"#utility.yul\":659:681   */\n      mstore\n        /* \"#utility.yul\":705:707   */\n      dup4\n        /* \"#utility.yul\":697:703   */\n      dup2\n        /* \"#utility.yul\":690:708   */\n      mstore\n        /* \"#utility.yul\":751:754   */\n      dup7\n        /* \"#utility.yul\":744:748   */\n      0x20\n        /* \"#utility.yul\":739:741   */\n      dup6\n        /* \"#utility.yul\":731:737   */\n      dup9\n        /* \"#utility.yul\":727:742   */\n      add\n        /* \"#utility.yul\":723:749   */\n      add\n        /* \"#utility.yul\":720:755   */\n      gt\n        /* \"#utility.yul\":717:719   */\n      iszero\n      tag_160\n      jumpi\n        /* \"#utility.yul\":768:769   */\n      0x00\n        /* \"#utility.yul\":765:766   */\n      dup1\n        /* \"#utility.yul\":758:770   */\n      revert\n        /* \"#utility.yul\":717:719   */\n    tag_160:\n        /* \"#utility.yul\":832:834   */\n      dup4\n        /* \"#utility.yul\":825:829   */\n      0x20\n        /* \"#utility.yul\":817:823   */\n      dup8\n        /* \"#utility.yul\":813:830   */\n      add\n        /* \"#utility.yul\":806:810   */\n      0x20\n        /* \"#utility.yul\":798:804   */\n      dup4\n        /* \"#utility.yul\":794:811   */\n      add\n        /* \"#utility.yul\":781:835   */\n      calldatacopy\n        /* \"#utility.yul\":879:880   */\n      0x00\n        /* \"#utility.yul\":872:876   */\n      0x20\n        /* \"#utility.yul\":867:869   */\n      dup6\n        /* \"#utility.yul\":859:865   */\n      dup4\n        /* \"#utility.yul\":855:870   */\n      add\n        /* \"#utility.yul\":851:877   */\n      add\n        /* \"#utility.yul\":844:881   */\n      mstore\n        /* \"#utility.yul\":899:905   */\n      dup1\n        /* \"#utility.yul\":890:905   */\n      swap5\n      pop\n      pop\n      pop\n      pop\n      pop\n        /* \"#utility.yul\":245:911   */\n      swap3\n      swap2\n      pop\n      pop\n      jump\t// out\n        /* \"#utility.yul\":916:1102   */\n    tag_24:\n        /* \"#utility.yul\":975:981   */\n      0x00\n        /* \"#utility.yul\":1028:1030   */\n      0x20\n        /* \"#utility.yul\":1016:1025   */\n      dup3\n        /* \"#utility.yul\":1007:1014   */\n      dup5\n        /* \"#utility.yul\":1003:1026   */\n      sub\n        /* \"#utility.yul\":999:1031   */\n      slt\n        /* \"#utility.yul\":996:998   */\n      iszero\n      tag_162\n      jumpi\n        /* \"#utility.yul\":1044:1045   */\n      0x00\n        /* \"#utility.yul\":1041:1042   */\n      dup1\n        /* \"#utility.yul\":1034:1046   */\n      revert\n        /* \"#utility.yul\":996:998   */\n    tag_162:\n        /* \"#utility.yul\":1067:1096   */\n      tag_163\n        /* \"#utility.yul\":1086:1095   */\n      dup3\n        /* \"#utility.yul\":1067:1096   */\n      tag_149\n      jump\t// in\n    tag_163:\n        /* \"#utility.yul\":1057:1096   */\n      swap4\n        /* \"#utility.yul\":986:1102   */\n      swap3\n      pop\n      pop\n      pop\n      jump\t// out\n        /* \"#utility.yul\":1107:1503   */\n    tag_30:\n        /* \"#utility.yul\":1185:1191   */\n      0x00\n        /* \"#utility.yul\":1193:1199   */\n      dup1\n        /* \"#utility.yul\":1246:1248   */\n      0x40\n        /* \"#utility.yul\":1234:1243   */\n      dup4\n        /* \"#utility.yul\":1225:1232   */\n      dup6\n        /* \"#utility.yul\":1221:1244   */\n      sub\n        /* \"#utility.yul\":1217:1249   */\n      slt\n        /* \"#utility.yul\":1214:1216   */\n      iszero\n      tag_165\n      jumpi\n        /* \"#utility.yul\":1262:1263   */\n      0x00\n        /* \"#utility.yul\":1259:1260   */\n      dup1\n        /* \"#utility.yul\":1252:1264   */\n      revert\n        /* \"#utility.yul\":1214:1216   */\n    tag_165:\n        /* \"#utility.yul\":1285:1314   */\n      tag_166\n        /* \"#utility.yul\":1304:1313   */\n      dup4\n        /* \"#utility.yul\":1285:1314   */\n      tag_149\n      jump\t// in\n    tag_166:\n        /* \"#utility.yul\":1275:1314   */\n      swap2\n      pop\n        /* \"#utility.yul\":1365:1367   */\n      0x20\n        /* \"#utility.yul\":1354:1363   */\n      dup4\n        /* \"#utility.yul\":1350:1368   */\n      add\n        /* \"#utility.yul\":1337:1369   */\n      calldataload\n        /* \"#utility.yul\":1392:1410   */\n      0xffffffffffffffff\n        /* \"#utility.yul\":1384:1390   */\n      dup2\n        /* \"#utility.yul\":1381:1411   */\n      gt\n        /* \"#utility.yul\":1378:1380   */\n      iszero\n      tag_167\n      jumpi\n        /* \"#utility.yul\":1424:1425   */\n      0x00\n        /* \"#utility.yul\":1421:1422   */\n      dup1\n        /* \"#utility.yul\":1414:1426   */\n      revert\n        /* \"#utility.yul\":1378:1380   */\n    tag_167:\n        /* \"#utility.yul\":1447:1497   */\n      tag_168\n        /* \"#utility.yul\":1489:1496   */\n      dup6\n        /* \"#utility.yul\":1480:1486   */\n      dup3\n        /* \"#utility.yul\":1469:1478   */\n      dup7\n        /* \"#utility.yul\":1465:1487   */\n      add\n        /* \"#utility.yul\":1447:1497   */\n      tag_152\n      jump\t// in\n    tag_168:\n        /* \"#utility.yul\":1437:1497   */\n      swap2\n      pop\n      pop\n        /* \"#utility.yul\":1204:1503   */\n      swap3\n      pop\n      swap3\n      swap1\n      pop\n      jump\t// out\n        /* \"#utility.yul\":1508:1830   */\n    tag_48:\n        /* \"#utility.yul\":1577:1583   */\n      0x00\n        /* \"#utility.yul\":1630:1632   */\n      0x20\n        /* \"#utility.yul\":1618:1627   */\n      dup3\n        /* \"#utility.yul\":1609:1616   */\n      dup5\n        /* \"#utility.yul\":1605:1628   */\n      sub\n        /* \"#utility.yul\":1601:1633   */\n      slt\n        /* \"#utility.yul\":1598:1600   */\n      iszero\n      tag_170\n      jumpi\n        /* \"#utility.yul\":1646:1647   */\n      0x00\n        /* \"#utility.yul\":1643:1644   */\n      dup1\n        /* \"#utility.yul\":1636:1648   */\n      revert\n        /* \"#utility.yul\":1598:1600   */\n    tag_170:\n        /* \"#utility.yul\":1686:1695   */\n      dup2\n        /* \"#utility.yul\":1673:1696   */\n      calldataload\n        /* \"#utility.yul\":1719:1737   */\n      0xffffffffffffffff\n        /* \"#utility.yul\":1711:1717   */\n      dup2\n        /* \"#utility.yul\":1708:1738   */\n      gt\n        /* \"#utility.yul\":1705:1707   */\n      iszero\n      tag_171\n      jumpi\n        /* \"#utility.yul\":1751:1752   */\n      0x00\n        /* \"#utility.yul\":1748:1749   */\n      dup1\n        /* \"#utility.yul\":1741:1753   */\n      revert\n        /* \"#utility.yul\":1705:1707   */\n    tag_171:\n        /* \"#utility.yul\":1774:1824   */\n      tag_172\n        /* \"#utility.yul\":1816:1823   */\n      dup5\n        /* \"#utility.yul\":1807:1813   */\n      dup3\n        /* \"#utility.yul\":1796:1805   */\n      dup6\n        /* \"#utility.yul\":1792:1814   */\n      add\n        /* \"#utility.yul\":1774:1824   */\n      tag_152\n      jump\t// in\n    tag_172:\n        /* \"#utility.yul\":1764:1824   */\n      swap5\n        /* \"#utility.yul\":1588:1830   */\n      swap4\n      pop\n      pop\n      pop\n      pop\n      jump\t// out\n        /* \"#utility.yul\":1835:2015   */\n    tag_18:\n        /* \"#utility.yul\":1894:1900   */\n      0x00\n        /* \"#utility.yul\":1947:1949   */\n      0x20\n        /* \"#utility.yul\":1935:1944   */\n      dup3\n        /* \"#utility.yul\":1926:1933   */\n      dup5\n        /* \"#utility.yul\":1922:1945   */\n      sub\n        /* \"#utility.yul\":1918:1950   */\n      slt\n        /* \"#utility.yul\":1915:1917   */\n      iszero\n      tag_174\n      jumpi\n        /* \"#utility.yul\":1963:1964   */\n      0x00\n        /* \"#utility.yul\":1960:1961   */\n      dup1\n        /* \"#utility.yul\":1953:1965   */\n      revert\n        /* \"#utility.yul\":1915:1917   */\n    tag_174:\n      pop\n        /* \"#utility.yul\":1986:2009   */\n      calldataload\n      swap2\n        /* \"#utility.yul\":1905:2015   */\n      swap1\n      pop\n      jump\t// out\n        /* \"#utility.yul\":2020:2492   */\n    tag_175:\n        /* \"#utility.yul\":2062:2065   */\n      0x00\n        /* \"#utility.yul\":2100:2105   */\n      dup2\n        /* \"#utility.yul\":2094:2106   */\n      mload\n        /* \"#utility.yul\":2127:2133   */\n      dup1\n        /* \"#utility.yul\":2122:2125   */\n      dup5\n        /* \"#utility.yul\":2115:2134   */\n      mstore\n        /* \"#utility.yul\":2152:2153   */\n      0x00\n        /* \"#utility.yul\":2162:2324   */\n    tag_177:\n        /* \"#utility.yul\":2176:2182   */\n      dup2\n        /* \"#utility.yul\":2173:2174   */\n      dup2\n        /* \"#utility.yul\":2170:2183   */\n      lt\n        /* \"#utility.yul\":2162:2324   */\n      iszero\n      tag_179\n      jumpi\n        /* \"#utility.yul\":2238:2242   */\n      0x20\n        /* \"#utility.yul\":2294:2307   */\n      dup2\n      dup6\n      add\n        /* \"#utility.yul\":2290:2312   */\n      dup2\n      add\n        /* \"#utility.yul\":2284:2313   */\n      mload\n        /* \"#utility.yul\":2266:2277   */\n      dup7\n      dup4\n      add\n        /* \"#utility.yul\":2262:2282   */\n      dup3\n      add\n        /* \"#utility.yul\":2255:2314   */\n      mstore\n        /* \"#utility.yul\":2191:2203   */\n      add\n        /* \"#utility.yul\":2162:2324   */\n      jump(tag_177)\n    tag_179:\n        /* \"#utility.yul\":2342:2348   */\n      dup2\n        /* \"#utility.yul\":2339:2340   */\n      dup2\n        /* \"#utility.yul\":2336:2349   */\n      gt\n        /* \"#utility.yul\":2333:2335   */\n      iszero\n      tag_180\n      jumpi\n        /* \"#utility.yul\":2408:2409   */\n      0x00\n        /* \"#utility.yul\":2401:2405   */\n      0x20\n        /* \"#utility.yul\":2392:2398   */\n      dup4\n        /* \"#utility.yul\":2387:2390   */\n      dup8\n        /* \"#utility.yul\":2383:2399   */\n      add\n        /* \"#utility.yul\":2379:2406   */\n      add\n        /* \"#utility.yul\":2372:2410   */\n      mstore\n        /* \"#utility.yul\":2333:2335   */\n    tag_180:\n      pop\n        /* \"#utility.yul\":2474:2476   */\n      0x1f\n        /* \"#utility.yul\":2453:2468   */\n      add\n      not(0x1f)\n        /* \"#utility.yul\":2449:2478   */\n      and\n        /* \"#utility.yul\":2440:2479   */\n      swap3\n      swap1\n      swap3\n      add\n        /* \"#utility.yul\":2481:2485   */\n      0x20\n        /* \"#utility.yul\":2436:2486   */\n      add\n      swap3\n        /* \"#utility.yul\":2070:2492   */\n      swap2\n      pop\n      pop\n      jump\t// out\n        /* \"#utility.yul\":3176:3396   */\n    tag_61:\n        /* \"#utility.yul\":3325:3327   */\n      0x20\n        /* \"#utility.yul\":3314:3323   */\n      dup2\n        /* \"#utility.yul\":3307:3328   */\n      mstore\n        /* \"#utility.yul\":3288:3292   */\n      0x00\n        /* \"#utility.yul\":3345:3390   */\n      tag_163\n        /* \"#utility.yul\":3386:3388   */\n      0x20\n        /* \"#utility.yul\":3375:3384   */\n      dup4\n        /* \"#utility.yul\":3371:3389   */\n      add\n        /* \"#utility.yul\":3363:3369   */\n      dup5\n        /* \"#utility.yul\":3345:3390   */\n      tag_175\n      jump\t// in\n        /* \"#utility.yul\":3401:3702   */\n    tag_27:\n        /* \"#utility.yul\":3572:3574   */\n      0x40\n        /* \"#utility.yul\":3561:3570   */\n      dup2\n        /* \"#utility.yul\":3554:3575   */\n      mstore\n        /* \"#utility.yul\":3535:3539   */\n      0x00\n        /* \"#utility.yul\":3592:3637   */\n      tag_187\n        /* \"#utility.yul\":3633:3635   */\n      0x40\n        /* \"#utility.yul\":3622:3631   */\n      dup4\n        /* \"#utility.yul\":3618:3636   */\n      add\n        /* \"#utility.yul\":3610:3616   */\n      dup6\n        /* \"#utility.yul\":3592:3637   */\n      tag_175\n      jump\t// in\n    tag_187:\n        /* \"#utility.yul\":3584:3637   */\n      swap1\n      pop\n        /* \"#utility.yul\":3687:3693   */\n      dup3\n        /* \"#utility.yul\":3680:3694   */\n      iszero\n        /* \"#utility.yul\":3673:3695   */\n      iszero\n        /* \"#utility.yul\":3668:3670   */\n      0x20\n        /* \"#utility.yul\":3657:3666   */\n      dup4\n        /* \"#utility.yul\":3653:3671   */\n      add\n        /* \"#utility.yul\":3646:3696   */\n      mstore\n        /* \"#utility.yul\":3544:3702   */\n      swap4\n      swap3\n      pop\n      pop\n      pop\n      jump\t// out\n        /* \"#utility.yul\":3707:4106   */\n    tag_97:\n        /* \"#utility.yul\":3909:3911   */\n      0x20\n        /* \"#utility.yul\":3891:3912   */\n      dup1\n      dup3\n      mstore\n        /* \"#utility.yul\":3948:3950   */\n      0x23\n        /* \"#utility.yul\":3928:3946   */\n      swap1\n      dup3\n      add\n        /* \"#utility.yul\":3921:3951   */\n      mstore\n        /* \"#utility.yul\":3987:4021   */\n      0x43616e206f6e6c7920626520657865637574656420627920746865206d616e61\n        /* \"#utility.yul\":3982:3984   */\n      0x40\n        /* \"#utility.yul\":3967:3985   */\n      dup3\n      add\n        /* \"#utility.yul\":3960:4022   */\n      mstore\n      shl(0xe9, 0x33b2b9)\n        /* \"#utility.yul\":4053:4055   */\n      0x60\n        /* \"#utility.yul\":4038:4056   */\n      dup3\n      add\n        /* \"#utility.yul\":4031:4064   */\n      mstore\n        /* \"#utility.yul\":4096:4099   */\n      0x80\n        /* \"#utility.yul\":4081:4100   */\n      add\n      swap1\n        /* \"#utility.yul\":3881:4106   */\n      jump\t// out\n        /* \"#utility.yul\":4697:4825   */\n    tag_85:\n        /* \"#utility.yul\":4737:4740   */\n      0x00\n        /* \"#utility.yul\":4768:4769   */\n      dup3\n        /* \"#utility.yul\":4764:4770   */\n      not\n        /* \"#utility.yul\":4761:4762   */\n      dup3\n        /* \"#utility.yul\":4758:4771   */\n      gt\n        /* \"#utility.yul\":4755:4757   */\n      iszero\n      tag_193\n      jumpi\n        /* \"#utility.yul\":4774:4792   */\n      tag_193\n      tag_194\n      jump\t// in\n    tag_193:\n      pop\n        /* \"#utility.yul\":4810:4819   */\n      add\n      swap1\n        /* \"#utility.yul\":4745:4825   */\n      jump\t// out\n        /* \"#utility.yul\":4830:5047   */\n    tag_83:\n        /* \"#utility.yul\":4870:4871   */\n      0x00\n        /* \"#utility.yul\":4896:4897   */\n      dup3\n        /* \"#utility.yul\":4886:4888   */\n      tag_196\n      jumpi\n        /* \"#utility.yul\":4940:4950   */\n      0x4e487b71\n        /* \"#utility.yul\":4935:4938   */\n      0xe0\n        /* \"#utility.yul\":4931:4951   */\n      shl\n        /* \"#utility.yul\":4928:4929   */\n      0x00\n        /* \"#utility.yul\":4921:4952   */\n      mstore\n        /* \"#utility.yul\":4975:4979   */\n      0x12\n        /* \"#utility.yul\":4972:4973   */\n      0x04\n        /* \"#utility.yul\":4965:4980   */\n      mstore\n        /* \"#utility.yul\":5003:5007   */\n      0x24\n        /* \"#utility.yul\":5000:5001   */\n      0x00\n        /* \"#utility.yul\":4993:5008   */\n      revert\n        /* \"#utility.yul\":4886:4888   */\n    tag_196:\n      pop\n        /* \"#utility.yul\":5032:5041   */\n      div\n      swap1\n        /* \"#utility.yul\":4876:5047   */\n      jump\t// out\n        /* \"#utility.yul\":5052:5432   */\n    tag_74:\n        /* \"#utility.yul\":5131:5132   */\n      0x01\n        /* \"#utility.yul\":5127:5139   */\n      dup2\n      dup2\n      shr\n      swap1\n        /* \"#utility.yul\":5174:5186   */\n      dup3\n      and\n      dup1\n        /* \"#utility.yul\":5195:5197   */\n      tag_198\n      jumpi\n        /* \"#utility.yul\":5249:5253   */\n      0x7f\n        /* \"#utility.yul\":5241:5247   */\n      dup3\n        /* \"#utility.yul\":5237:5254   */\n      and\n        /* \"#utility.yul\":5227:5254   */\n      swap2\n      pop\n        /* \"#utility.yul\":5195:5197   */\n    tag_198:\n        /* \"#utility.yul\":5302:5304   */\n      0x20\n        /* \"#utility.yul\":5294:5300   */\n      dup3\n        /* \"#utility.yul\":5291:5305   */\n      lt\n        /* \"#utility.yul\":5271:5289   */\n      dup2\n        /* \"#utility.yul\":5268:5306   */\n      eq\n        /* \"#utility.yul\":5265:5267   */\n      iszero\n      tag_199\n      jumpi\n        /* \"#utility.yul\":5348:5358   */\n      0x4e487b71\n        /* \"#utility.yul\":5343:5346   */\n      0xe0\n        /* \"#utility.yul\":5339:5359   */\n      shl\n        /* \"#utility.yul\":5336:5337   */\n      0x00\n        /* \"#utility.yul\":5329:5360   */\n      mstore\n        /* \"#utility.yul\":5383:5387   */\n      0x22\n        /* \"#utility.yul\":5380:5381   */\n      0x04\n        /* \"#utility.yul\":5373:5388   */\n      mstore\n        /* \"#utility.yul\":5411:5415   */\n      0x24\n        /* \"#utility.yul\":5408:5409   */\n      0x00\n        /* \"#utility.yul\":5401:5416   */\n      revert\n        /* \"#utility.yul\":5265:5267   */\n    tag_199:\n      pop\n        /* \"#utility.yul\":5107:5432   */\n      swap2\n      swap1\n      pop\n      jump\t// out\n        /* \"#utility.yul\":5437:5572   */\n    tag_81:\n        /* \"#utility.yul\":5476:5479   */\n      0x00\n      not(0x00)\n        /* \"#utility.yul\":5497:5514   */\n      dup3\n      eq\n        /* \"#utility.yul\":5494:5496   */\n      iszero\n      tag_202\n      jumpi\n        /* \"#utility.yul\":5517:5535   */\n      tag_202\n      tag_194\n      jump\t// in\n    tag_202:\n      pop\n        /* \"#utility.yul\":5564:5565   */\n      0x01\n        /* \"#utility.yul\":5553:5566   */\n      add\n      swap1\n        /* \"#utility.yul\":5484:5572   */\n      jump\t// out\n        /* \"#utility.yul\":5577:5704   */\n    tag_194:\n        /* \"#utility.yul\":5638:5648   */\n      0x4e487b71\n        /* \"#utility.yul\":5633:5636   */\n      0xe0\n        /* \"#utility.yul\":5629:5649   */\n      shl\n        /* \"#utility.yul\":5626:5627   */\n      0x00\n        /* \"#utility.yul\":5619:5650   */\n      mstore\n        /* \"#utility.yul\":5669:5673   */\n      0x11\n        /* \"#utility.yul\":5666:5667   */\n      0x04\n        /* \"#utility.yul\":5659:5674   */\n      mstore\n        /* \"#utility.yul\":5693:5697   */\n      0x24\n        /* \"#utility.yul\":5690:5691   */\n      0x00\n        /* \"#utility.yul\":5683:5698   */\n      revert\n        /* \"#utility.yul\":5709:5836   */\n    tag_157:\n        /* \"#utility.yul\":5770:5780   */\n      0x4e487b71\n        /* \"#utility.yul\":5765:5768   */\n      0xe0\n        /* \"#utility.yul\":5761:5781   */\n      shl\n        /* \"#utility.yul\":5758:5759   */\n      0x00\n        /* \"#utility.yul\":5751:5782   */\n      mstore\n        /* \"#utility.yul\":5801:5805   */\n      0x41\n        /* \"#utility.yul\":5798:5799   */\n      0x04\n        /* \"#utility.yul\":5791:5806   */\n      mstore\n        /* \"#utility.yul\":5825:5829   */\n      0x24\n        /* \"#utility.yul\":5822:5823   */\n      0x00\n        /* \"#utility.yul\":5815:5830   */\n      revert\n\n    auxdata: 0xa264697066735822122074a55dec04c05fb55e74de136914ca6e0ccd6d05da4428479261373696ca6e5264736f6c63430008050033\n}\n",
				"bytecode": {
					"linkReferences": {},
					"object": "600060028190556003819055600481905560a060408190526080829052610029916006919061005b565b506009805460ff1916600117905534801561004357600080fd5b50600580546001600160a01b0319163317905561012f565b828054610067906100f4565b90600052602060002090601f01602090048101928261008957600085556100cf565b82601f106100a257805160ff19168380011785556100cf565b828001600101855582156100cf579182015b828111156100cf5782518255916020019190600101906100b4565b506100db9291506100df565b5090565b5b808211156100db57600081556001016100e0565b600181811c9082168061010857607f821691505b6020821081141561012957634e487b7160e01b600052602260045260246000fd5b50919050565b610ae48061013e6000396000f3fe608060405234801561001057600080fd5b50600436106100b45760003560e01c80636d77bd3e116100715780636d77bd3e146101a9578063788d3851146101bc578063a3bef4d7146101c9578063ad5461d8146101d2578063b798867f146101f2578063c1c16efc146101fb57600080fd5b8063124258c6146100b95780631ddabf7a146100e15780633b9f708d1461010257806347098f3614610123578063481c6a751461012c5780635df8133014610157575b600080fd5b6100cc6100c7366004610912565b610203565b60405190151581526020015b60405180910390f35b6100f46100ef366004610865565b61035d565b6040516100d892919061098b565b610115610110366004610887565b610404565b6040519081526020016100d8565b61011560035481565b60055461013f906001600160a01b031681565b6040516001600160a01b0390911681526020016100d8565b61018a610165366004610912565b600760205260009081526040902080546001909101546001600160a01b039091169082565b604080516001600160a01b0390931683526020830191909152016100d8565b6101156101b73660046108d5565b6104ab565b6009546100cc9060ff1681565b61011560045481565b6101e56101e0366004610912565b610517565b6040516100d89190610978565b61011560025481565b6101e56105b1565b60095460009060ff16151560011461026e5760405162461bcd60e51b815260206004820152602360248201527f43616e20766f7465206f6e6c79207768696c6520766f74696e67206973206f7060448201526232b71760e91b60648201526084015b60405180910390fd5b50336000908152600160205260408120805461028990610a2c565b15905061032e57600082815260208190526040902080546102a990610a2c565b15905061032e57503360008181526001602081815260408084208301805460ff19168417905580518082019091529384528301849052600480549193926102ef83610a67565b90915550506004546000908152600760209081526040909120825181546001600160a01b0319166001600160a01b039091161781559101516001909101555b600260035461033d9190610a0a565b6103489060016109f2565b60045410610358576103586105be565b919050565b60016020526000908152604090208054819061037890610a2c565b80601f01602080910402602001604051908101604052809291908181526020018280546103a490610a2c565b80156103f15780601f106103c6576101008083540402835291602001916103f1565b820191906000526020600020905b8154815290600101906020018083116103d457829003601f168201915b5050506001909301549192505060ff1682565b6005546000906001600160a01b031633146104315760405162461bcd60e51b8152600401610265906109af565b604080518082018252600060208083018290528583526001600160a01b038716825260018152929020815180519293849361046f92849201906106ad565b50602091909101516001909101805460ff19169115159190911790556003805490600061049b83610a67565b9091555050600354949350505050565b6005546000906001600160a01b031633146104d85760405162461bcd60e51b8152600401610265906109af565b600280549060006104e883610a67565b9091555050600254600090815260208181526040909120835161050d928501906106ad565b5050600254919050565b6000602081905290815260409020805461053090610a2c565b80601f016020809104026020016040519081016040528092919081815260200182805461055c90610a2c565b80156105a95780601f1061057e576101008083540402835291602001916105a9565b820191906000526020600020905b81548152906001019060200180831161058c57829003601f168201915b505050505081565b6006805461053090610a2c565b60008060015b6004548111610675576000818152600760209081526040808320600190810154845260089092529091205415610620576000828152600760209081526040808320600101548352600890915290205461061d90826109f2565b90505b60008281526007602090815260408083206001015483526008909152902081905583811115610662576000828152600760205260409020600101549093509150825b508061066d81610a67565b9150506105c4565b50600081815260208190526040902080546006919061069390610a2c565b61069e929190610731565b50506009805460ff1916905550565b8280546106b990610a2c565b90600052602060002090601f0160209004810192826106db5760008555610721565b82601f106106f457805160ff1916838001178555610721565b82800160010185558215610721579182015b82811115610721578251825591602001919060010190610706565b5061072d9291506107ac565b5090565b82805461073d90610a2c565b90600052602060002090601f01602090048101928261075f5760008555610721565b82601f106107705780548555610721565b8280016001018555821561072157600052602060002091601f016020900482015b82811115610721578254825591600101919060010190610791565b5b8082111561072d57600081556001016107ad565b80356001600160a01b038116811461035857600080fd5b600082601f8301126107e957600080fd5b813567ffffffffffffffff8082111561080457610804610a98565b604051601f8301601f19908116603f0116810190828211818310171561082c5761082c610a98565b8160405283815286602085880101111561084557600080fd5b836020870160208301376000602085830101528094505050505092915050565b60006020828403121561087757600080fd5b610880826107c1565b9392505050565b6000806040838503121561089a57600080fd5b6108a3836107c1565b9150602083013567ffffffffffffffff8111156108bf57600080fd5b6108cb858286016107d8565b9150509250929050565b6000602082840312156108e757600080fd5b813567ffffffffffffffff8111156108fe57600080fd5b61090a848285016107d8565b949350505050565b60006020828403121561092457600080fd5b5035919050565b6000815180845260005b8181101561095157602081850181015186830182015201610935565b81811115610963576000602083870101525b50601f01601f19169290920160200192915050565b602081526000610880602083018461092b565b60408152600061099e604083018561092b565b905082151560208301529392505050565b60208082526023908201527f43616e206f6e6c7920626520657865637574656420627920746865206d616e6160408201526233b2b960e91b606082015260800190565b60008219821115610a0557610a05610a82565b500190565b600082610a2757634e487b7160e01b600052601260045260246000fd5b500490565b600181811c90821680610a4057607f821691505b60208210811415610a6157634e487b7160e01b600052602260045260246000fd5b50919050565b6000600019821415610a7b57610a7b610a82565b5060010190565b634e487b7160e01b600052601160045260246000fd5b634e487b7160e01b600052604160045260246000fdfea264697066735822122074a55dec04c05fb55e74de136914ca6e0ccd6d05da4428479261373696ca6e5264736f6c63430008050033",
					"opcodes": "PUSH1 0x0 PUSH1 0x2 DUP2 SWAP1 SSTORE PUSH1 0x3 DUP2 SWAP1 SSTORE PUSH1 0x4 DUP2 SWAP1 SSTORE PUSH1 0xA0 PUSH1 0x40 DUP2 SWAP1 MSTORE PUSH1 0x80 DUP3 SWAP1 MSTORE PUSH2 0x29 SWAP2 PUSH1 0x6 SWAP2 SWAP1 PUSH2 0x5B JUMP JUMPDEST POP PUSH1 0x9 DUP1 SLOAD PUSH1 0xFF NOT AND PUSH1 0x1 OR SWAP1 SSTORE CALLVALUE DUP1 ISZERO PUSH2 0x43 JUMPI PUSH1 0x0 DUP1 REVERT JUMPDEST POP PUSH1 0x5 DUP1 SLOAD PUSH1 0x1 PUSH1 0x1 PUSH1 0xA0 SHL SUB NOT AND CALLER OR SWAP1 SSTORE PUSH2 0x12F JUMP JUMPDEST DUP3 DUP1 SLOAD PUSH2 0x67 SWAP1 PUSH2 0xF4 JUMP JUMPDEST SWAP1 PUSH1 0x0 MSTORE PUSH1 0x20 PUSH1 0x0 KECCAK256 SWAP1 PUSH1 0x1F ADD PUSH1 0x20 SWAP1 DIV DUP2 ADD SWAP3 DUP3 PUSH2 0x89 JUMPI PUSH1 0x0 DUP6 SSTORE PUSH2 0xCF JUMP JUMPDEST DUP3 PUSH1 0x1F LT PUSH2 0xA2 JUMPI DUP1 MLOAD PUSH1 0xFF NOT AND DUP4 DUP1 ADD OR DUP6 SSTORE PUSH2 0xCF JUMP JUMPDEST DUP3 DUP1 ADD PUSH1 0x1 ADD DUP6 SSTORE DUP3 ISZERO PUSH2 0xCF JUMPI SWAP2 DUP3 ADD JUMPDEST DUP3 DUP2 GT ISZERO PUSH2 0xCF JUMPI DUP3 MLOAD DUP3 SSTORE SWAP2 PUSH1 0x20 ADD SWAP2 SWAP1 PUSH1 0x1 ADD SWAP1 PUSH2 0xB4 JUMP JUMPDEST POP PUSH2 0xDB SWAP3 SWAP2 POP PUSH2 0xDF JUMP JUMPDEST POP SWAP1 JUMP JUMPDEST JUMPDEST DUP1 DUP3 GT ISZERO PUSH2 0xDB JUMPI PUSH1 0x0 DUP2 SSTORE PUSH1 0x1 ADD PUSH2 0xE0 JUMP JUMPDEST PUSH1 0x1 DUP2 DUP2 SHR SWAP1 DUP3 AND DUP1 PUSH2 0x108 JUMPI PUSH1 0x7F DUP3 AND SWAP2 POP JUMPDEST PUSH1 0x20 DUP3 LT DUP2 EQ ISZERO PUSH2 0x129 JUMPI PUSH4 0x4E487B71 PUSH1 0xE0 SHL PUSH1 0x0 MSTORE PUSH1 0x22 PUSH1 0x4 MSTORE PUSH1 0x24 PUSH1 0x0 REVERT JUMPDEST POP SWAP2 SWAP1 POP JUMP JUMPDEST PUSH2 0xAE4 DUP1 PUSH2 0x13E PUSH1 0x0 CODECOPY PUSH1 0x0 RETURN INVALID PUSH1 0x80 PUSH1 0x40 MSTORE CALLVALUE DUP1 ISZERO PUSH2 0x10 JUMPI PUSH1 0x0 DUP1 REVERT JUMPDEST POP PUSH1 0x4 CALLDATASIZE LT PUSH2 0xB4 JUMPI PUSH1 0x0 CALLDATALOAD PUSH1 0xE0 SHR DUP1 PUSH4 0x6D77BD3E GT PUSH2 0x71 JUMPI DUP1 PUSH4 0x6D77BD3E EQ PUSH2 0x1A9 JUMPI DUP1 PUSH4 0x788D3851 EQ PUSH2 0x1BC JUMPI DUP1 PUSH4 0xA3BEF4D7 EQ PUSH2 0x1C9 JUMPI DUP1 PUSH4 0xAD5461D8 EQ PUSH2 0x1D2 JUMPI DUP1 PUSH4 0xB798867F EQ PUSH2 0x1F2 JUMPI DUP1 PUSH4 0xC1C16EFC EQ PUSH2 0x1FB JUMPI PUSH1 0x0 DUP1 REVERT JUMPDEST DUP1 PUSH4 0x124258C6 EQ PUSH2 0xB9 JUMPI DUP1 PUSH4 0x1DDABF7A EQ PUSH2 0xE1 JUMPI DUP1 PUSH4 0x3B9F708D EQ PUSH2 0x102 JUMPI DUP1 PUSH4 0x47098F36 EQ PUSH2 0x123 JUMPI DUP1 PUSH4 0x481C6A75 EQ PUSH2 0x12C JUMPI DUP1 PUSH4 0x5DF81330 EQ PUSH2 0x157 JUMPI JUMPDEST PUSH1 0x0 DUP1 REVERT JUMPDEST PUSH2 0xCC PUSH2 0xC7 CALLDATASIZE PUSH1 0x4 PUSH2 0x912 JUMP JUMPDEST PUSH2 0x203 JUMP JUMPDEST PUSH1 0x40 MLOAD SWAP1 ISZERO ISZERO DUP2 MSTORE PUSH1 0x20 ADD JUMPDEST PUSH1 0x40 MLOAD DUP1 SWAP2 SUB SWAP1 RETURN JUMPDEST PUSH2 0xF4 PUSH2 0xEF CALLDATASIZE PUSH1 0x4 PUSH2 0x865 JUMP JUMPDEST PUSH2 0x35D JUMP JUMPDEST PUSH1 0x40 MLOAD PUSH2 0xD8 SWAP3 SWAP2 SWAP1 PUSH2 0x98B JUMP JUMPDEST PUSH2 0x115 PUSH2 0x110 CALLDATASIZE PUSH1 0x4 PUSH2 0x887 JUMP JUMPDEST PUSH2 0x404 JUMP JUMPDEST PUSH1 0x40 MLOAD SWAP1 DUP2 MSTORE PUSH1 0x20 ADD PUSH2 0xD8 JUMP JUMPDEST PUSH2 0x115 PUSH1 0x3 SLOAD DUP2 JUMP JUMPDEST PUSH1 0x5 SLOAD PUSH2 0x13F SWAP1 PUSH1 0x1 PUSH1 0x1 PUSH1 0xA0 SHL SUB AND DUP2 JUMP JUMPDEST PUSH1 0x40 MLOAD PUSH1 0x1 PUSH1 0x1 PUSH1 0xA0 SHL SUB SWAP1 SWAP2 AND DUP2 MSTORE PUSH1 0x20 ADD PUSH2 0xD8 JUMP JUMPDEST PUSH2 0x18A PUSH2 0x165 CALLDATASIZE PUSH1 0x4 PUSH2 0x912 JUMP JUMPDEST PUSH1 0x7 PUSH1 0x20 MSTORE PUSH1 0x0 SWAP1 DUP2 MSTORE PUSH1 0x40 SWAP1 KECCAK256 DUP1 SLOAD PUSH1 0x1 SWAP1 SWAP2 ADD SLOAD PUSH1 0x1 PUSH1 0x1 PUSH1 0xA0 SHL SUB SWAP1 SWAP2 AND SWAP1 DUP3 JUMP JUMPDEST PUSH1 0x40 DUP1 MLOAD PUSH1 0x1 PUSH1 0x1 PUSH1 0xA0 SHL SUB SWAP1 SWAP4 AND DUP4 MSTORE PUSH1 0x20 DUP4 ADD SWAP2 SWAP1 SWAP2 MSTORE ADD PUSH2 0xD8 JUMP JUMPDEST PUSH2 0x115 PUSH2 0x1B7 CALLDATASIZE PUSH1 0x4 PUSH2 0x8D5 JUMP JUMPDEST PUSH2 0x4AB JUMP JUMPDEST PUSH1 0x9 SLOAD PUSH2 0xCC SWAP1 PUSH1 0xFF AND DUP2 JUMP JUMPDEST PUSH2 0x115 PUSH1 0x4 SLOAD DUP2 JUMP JUMPDEST PUSH2 0x1E5 PUSH2 0x1E0 CALLDATASIZE PUSH1 0x4 PUSH2 0x912 JUMP JUMPDEST PUSH2 0x517 JUMP JUMPDEST PUSH1 0x40 MLOAD PUSH2 0xD8 SWAP2 SWAP1 PUSH2 0x978 JUMP JUMPDEST PUSH2 0x115 PUSH1 0x2 SLOAD DUP2 JUMP JUMPDEST PUSH2 0x1E5 PUSH2 0x5B1 JUMP JUMPDEST PUSH1 0x9 SLOAD PUSH1 0x0 SWAP1 PUSH1 0xFF AND ISZERO ISZERO PUSH1 0x1 EQ PUSH2 0x26E JUMPI PUSH1 0x40 MLOAD PUSH3 0x461BCD PUSH1 0xE5 SHL DUP2 MSTORE PUSH1 0x20 PUSH1 0x4 DUP3 ADD MSTORE PUSH1 0x23 PUSH1 0x24 DUP3 ADD MSTORE PUSH32 0x43616E20766F7465206F6E6C79207768696C6520766F74696E67206973206F70 PUSH1 0x44 DUP3 ADD MSTORE PUSH3 0x32B717 PUSH1 0xE9 SHL PUSH1 0x64 DUP3 ADD MSTORE PUSH1 0x84 ADD JUMPDEST PUSH1 0x40 MLOAD DUP1 SWAP2 SUB SWAP1 REVERT JUMPDEST POP CALLER PUSH1 0x0 SWAP1 DUP2 MSTORE PUSH1 0x1 PUSH1 0x20 MSTORE PUSH1 0x40 DUP2 KECCAK256 DUP1 SLOAD PUSH2 0x289 SWAP1 PUSH2 0xA2C JUMP JUMPDEST ISZERO SWAP1 POP PUSH2 0x32E JUMPI PUSH1 0x0 DUP3 DUP2 MSTORE PUSH1 0x20 DUP2 SWAP1 MSTORE PUSH1 0x40 SWAP1 KECCAK256 DUP1 SLOAD PUSH2 0x2A9 SWAP1 PUSH2 0xA2C JUMP JUMPDEST ISZERO SWAP1 POP PUSH2 0x32E JUMPI POP CALLER PUSH1 0x0 DUP2 DUP2 MSTORE PUSH1 0x1 PUSH1 0x20 DUP2 DUP2 MSTORE PUSH1 0x40 DUP1 DUP5 KECCAK256 DUP4 ADD DUP1 SLOAD PUSH1 0xFF NOT AND DUP5 OR SWAP1 SSTORE DUP1 MLOAD DUP1 DUP3 ADD SWAP1 SWAP2 MSTORE SWAP4 DUP5 MSTORE DUP4 ADD DUP5 SWAP1 MSTORE PUSH1 0x4 DUP1 SLOAD SWAP2 SWAP4 SWAP3 PUSH2 0x2EF DUP4 PUSH2 0xA67 JUMP JUMPDEST SWAP1 SWAP2 SSTORE POP POP PUSH1 0x4 SLOAD PUSH1 0x0 SWAP1 DUP2 MSTORE PUSH1 0x7 PUSH1 0x20 SWAP1 DUP2 MSTORE PUSH1 0x40 SWAP1 SWAP2 KECCAK256 DUP3 MLOAD DUP2 SLOAD PUSH1 0x1 PUSH1 0x1 PUSH1 0xA0 SHL SUB NOT AND PUSH1 0x1 PUSH1 0x1 PUSH1 0xA0 SHL SUB SWAP1 SWAP2 AND OR DUP2 SSTORE SWAP2 ADD MLOAD PUSH1 0x1 SWAP1 SWAP2 ADD SSTORE JUMPDEST PUSH1 0x2 PUSH1 0x3 SLOAD PUSH2 0x33D SWAP2 SWAP1 PUSH2 0xA0A JUMP JUMPDEST PUSH2 0x348 SWAP1 PUSH1 0x1 PUSH2 0x9F2 JUMP JUMPDEST PUSH1 0x4 SLOAD LT PUSH2 0x358 JUMPI PUSH2 0x358 PUSH2 0x5BE JUMP JUMPDEST SWAP2 SWAP1 POP JUMP JUMPDEST PUSH1 0x1 PUSH1 0x20 MSTORE PUSH1 0x0 SWAP1 DUP2 MSTORE PUSH1 0x40 SWAP1 KECCAK256 DUP1 SLOAD DUP2 SWAP1 PUSH2 0x378 SWAP1 PUSH2 0xA2C JUMP JUMPDEST DUP1 PUSH1 0x1F ADD PUSH1 0x20 DUP1 SWAP2 DIV MUL PUSH1 0x20 ADD PUSH1 0x40 MLOAD SWAP1 DUP2 ADD PUSH1 0x40 MSTORE DUP1 SWAP3 SWAP2 SWAP1 DUP2 DUP2 MSTORE PUSH1 0x20 ADD DUP3 DUP1 SLOAD PUSH2 0x3A4 SWAP1 PUSH2 0xA2C JUMP JUMPDEST DUP1 ISZERO PUSH2 0x3F1 JUMPI DUP1 PUSH1 0x1F LT PUSH2 0x3C6 JUMPI PUSH2 0x100 DUP1 DUP4 SLOAD DIV MUL DUP4 MSTORE SWAP2 PUSH1 0x20 ADD SWAP2 PUSH2 0x3F1 JUMP JUMPDEST DUP3 ADD SWAP2 SWAP1 PUSH1 0x0 MSTORE PUSH1 0x20 PUSH1 0x0 KECCAK256 SWAP1 JUMPDEST DUP2 SLOAD DUP2 MSTORE SWAP1 PUSH1 0x1 ADD SWAP1 PUSH1 0x20 ADD DUP1 DUP4 GT PUSH2 0x3D4 JUMPI DUP3 SWAP1 SUB PUSH1 0x1F AND DUP3 ADD SWAP2 JUMPDEST POP POP POP PUSH1 0x1 SWAP1 SWAP4 ADD SLOAD SWAP2 SWAP3 POP POP PUSH1 0xFF AND DUP3 JUMP JUMPDEST PUSH1 0x5 SLOAD PUSH1 0x0 SWAP1 PUSH1 0x1 PUSH1 0x1 PUSH1 0xA0 SHL SUB AND CALLER EQ PUSH2 0x431 JUMPI PUSH1 0x40 MLOAD PUSH3 0x461BCD PUSH1 0xE5 SHL DUP2 MSTORE PUSH1 0x4 ADD PUSH2 0x265 SWAP1 PUSH2 0x9AF JUMP JUMPDEST PUSH1 0x40 DUP1 MLOAD DUP1 DUP3 ADD DUP3 MSTORE PUSH1 0x0 PUSH1 0x20 DUP1 DUP4 ADD DUP3 SWAP1 MSTORE DUP6 DUP4 MSTORE PUSH1 0x1 PUSH1 0x1 PUSH1 0xA0 SHL SUB DUP8 AND DUP3 MSTORE PUSH1 0x1 DUP2 MSTORE SWAP3 SWAP1 KECCAK256 DUP2 MLOAD DUP1 MLOAD SWAP3 SWAP4 DUP5 SWAP4 PUSH2 0x46F SWAP3 DUP5 SWAP3 ADD SWAP1 PUSH2 0x6AD JUMP JUMPDEST POP PUSH1 0x20 SWAP2 SWAP1 SWAP2 ADD MLOAD PUSH1 0x1 SWAP1 SWAP2 ADD DUP1 SLOAD PUSH1 0xFF NOT AND SWAP2 ISZERO ISZERO SWAP2 SWAP1 SWAP2 OR SWAP1 SSTORE PUSH1 0x3 DUP1 SLOAD SWAP1 PUSH1 0x0 PUSH2 0x49B DUP4 PUSH2 0xA67 JUMP JUMPDEST SWAP1 SWAP2 SSTORE POP POP PUSH1 0x3 SLOAD SWAP5 SWAP4 POP POP POP POP JUMP JUMPDEST PUSH1 0x5 SLOAD PUSH1 0x0 SWAP1 PUSH1 0x1 PUSH1 0x1 PUSH1 0xA0 SHL SUB AND CALLER EQ PUSH2 0x4D8 JUMPI PUSH1 0x40 MLOAD PUSH3 0x461BCD PUSH1 0xE5 SHL DUP2 MSTORE PUSH1 0x4 ADD PUSH2 0x265 SWAP1 PUSH2 0x9AF JUMP JUMPDEST PUSH1 0x2 DUP1 SLOAD SWAP1 PUSH1 0x0 PUSH2 0x4E8 DUP4 PUSH2 0xA67 JUMP JUMPDEST SWAP1 SWAP2 SSTORE POP POP PUSH1 0x2 SLOAD PUSH1 0x0 SWAP1 DUP2 MSTORE PUSH1 0x20 DUP2 DUP2 MSTORE PUSH1 0x40 SWAP1 SWAP2 KECCAK256 DUP4 MLOAD PUSH2 0x50D SWAP3 DUP6 ADD SWAP1 PUSH2 0x6AD JUMP JUMPDEST POP POP PUSH1 0x2 SLOAD SWAP2 SWAP1 POP JUMP JUMPDEST PUSH1 0x0 PUSH1 0x20 DUP2 SWAP1 MSTORE SWAP1 DUP2 MSTORE PUSH1 0x40 SWAP1 KECCAK256 DUP1 SLOAD PUSH2 0x530 SWAP1 PUSH2 0xA2C JUMP JUMPDEST DUP1 PUSH1 0x1F ADD PUSH1 0x20 DUP1 SWAP2 DIV MUL PUSH1 0x20 ADD PUSH1 0x40 MLOAD SWAP1 DUP2 ADD PUSH1 0x40 MSTORE DUP1 SWAP3 SWAP2 SWAP1 DUP2 DUP2 MSTORE PUSH1 0x20 ADD DUP3 DUP1 SLOAD PUSH2 0x55C SWAP1 PUSH2 0xA2C JUMP JUMPDEST DUP1 ISZERO PUSH2 0x5A9 JUMPI DUP1 PUSH1 0x1F LT PUSH2 0x57E JUMPI PUSH2 0x100 DUP1 DUP4 SLOAD DIV MUL DUP4 MSTORE SWAP2 PUSH1 0x20 ADD SWAP2 PUSH2 0x5A9 JUMP JUMPDEST DUP3 ADD SWAP2 SWAP1 PUSH1 0x0 MSTORE PUSH1 0x20 PUSH1 0x0 KECCAK256 SWAP1 JUMPDEST DUP2 SLOAD DUP2 MSTORE SWAP1 PUSH1 0x1 ADD SWAP1 PUSH1 0x20 ADD DUP1 DUP4 GT PUSH2 0x58C JUMPI DUP3 SWAP1 SUB PUSH1 0x1F AND DUP3 ADD SWAP2 JUMPDEST POP POP POP POP POP DUP2 JUMP JUMPDEST PUSH1 0x6 DUP1 SLOAD PUSH2 0x530 SWAP1 PUSH2 0xA2C JUMP JUMPDEST PUSH1 0x0 DUP1 PUSH1 0x1 JUMPDEST PUSH1 0x4 SLOAD DUP2 GT PUSH2 0x675 JUMPI PUSH1 0x0 DUP2 DUP2 MSTORE PUSH1 0x7 PUSH1 0x20 SWAP1 DUP2 MSTORE PUSH1 0x40 DUP1 DUP4 KECCAK256 PUSH1 0x1 SWAP1 DUP2 ADD SLOAD DUP5 MSTORE PUSH1 0x8 SWAP1 SWAP3 MSTORE SWAP1 SWAP2 KECCAK256 SLOAD ISZERO PUSH2 0x620 JUMPI PUSH1 0x0 DUP3 DUP2 MSTORE PUSH1 0x7 PUSH1 0x20 SWAP1 DUP2 MSTORE PUSH1 0x40 DUP1 DUP4 KECCAK256 PUSH1 0x1 ADD SLOAD DUP4 MSTORE PUSH1 0x8 SWAP1 SWAP2 MSTORE SWAP1 KECCAK256 SLOAD PUSH2 0x61D SWAP1 DUP3 PUSH2 0x9F2 JUMP JUMPDEST SWAP1 POP JUMPDEST PUSH1 0x0 DUP3 DUP2 MSTORE PUSH1 0x7 PUSH1 0x20 SWAP1 DUP2 MSTORE PUSH1 0x40 DUP1 DUP4 KECCAK256 PUSH1 0x1 ADD SLOAD DUP4 MSTORE PUSH1 0x8 SWAP1 SWAP2 MSTORE SWAP1 KECCAK256 DUP2 SWAP1 SSTORE DUP4 DUP2 GT ISZERO PUSH2 0x662 JUMPI PUSH1 0x0 DUP3 DUP2 MSTORE PUSH1 0x7 PUSH1 0x20 MSTORE PUSH1 0x40 SWAP1 KECCAK256 PUSH1 0x1 ADD SLOAD SWAP1 SWAP4 POP SWAP2 POP DUP3 JUMPDEST POP DUP1 PUSH2 0x66D DUP2 PUSH2 0xA67 JUMP JUMPDEST SWAP2 POP POP PUSH2 0x5C4 JUMP JUMPDEST POP PUSH1 0x0 DUP2 DUP2 MSTORE PUSH1 0x20 DUP2 SWAP1 MSTORE PUSH1 0x40 SWAP1 KECCAK256 DUP1 SLOAD PUSH1 0x6 SWAP2 SWAP1 PUSH2 0x693 SWAP1 PUSH2 0xA2C JUMP JUMPDEST PUSH2 0x69E SWAP3 SWAP2 SWAP1 PUSH2 0x731 JUMP JUMPDEST POP POP PUSH1 0x9 DUP1 SLOAD PUSH1 0xFF NOT AND SWAP1 SSTORE POP JUMP JUMPDEST DUP3 DUP1 SLOAD PUSH2 0x6B9 SWAP1 PUSH2 0xA2C JUMP JUMPDEST SWAP1 PUSH1 0x0 MSTORE PUSH1 0x20 PUSH1 0x0 KECCAK256 SWAP1 PUSH1 0x1F ADD PUSH1 0x20 SWAP1 DIV DUP2 ADD SWAP3 DUP3 PUSH2 0x6DB JUMPI PUSH1 0x0 DUP6 SSTORE PUSH2 0x721 JUMP JUMPDEST DUP3 PUSH1 0x1F LT PUSH2 0x6F4 JUMPI DUP1 MLOAD PUSH1 0xFF NOT AND DUP4 DUP1 ADD OR DUP6 SSTORE PUSH2 0x721 JUMP JUMPDEST DUP3 DUP1 ADD PUSH1 0x1 ADD DUP6 SSTORE DUP3 ISZERO PUSH2 0x721 JUMPI SWAP2 DUP3 ADD JUMPDEST DUP3 DUP2 GT ISZERO PUSH2 0x721 JUMPI DUP3 MLOAD DUP3 SSTORE SWAP2 PUSH1 0x20 ADD SWAP2 SWAP1 PUSH1 0x1 ADD SWAP1 PUSH2 0x706 JUMP JUMPDEST POP PUSH2 0x72D SWAP3 SWAP2 POP PUSH2 0x7AC JUMP JUMPDEST POP SWAP1 JUMP JUMPDEST DUP3 DUP1 SLOAD PUSH2 0x73D SWAP1 PUSH2 0xA2C JUMP JUMPDEST SWAP1 PUSH1 0x0 MSTORE PUSH1 0x20 PUSH1 0x0 KECCAK256 SWAP1 PUSH1 0x1F ADD PUSH1 0x20 SWAP1 DIV DUP2 ADD SWAP3 DUP3 PUSH2 0x75F JUMPI PUSH1 0x0 DUP6 SSTORE PUSH2 0x721 JUMP JUMPDEST DUP3 PUSH1 0x1F LT PUSH2 0x770 JUMPI DUP1 SLOAD DUP6 SSTORE PUSH2 0x721 JUMP JUMPDEST DUP3 DUP1 ADD PUSH1 0x1 ADD DUP6 SSTORE DUP3 ISZERO PUSH2 0x721 JUMPI PUSH1 0x0 MSTORE PUSH1 0x20 PUSH1 0x0 KECCAK256 SWAP2 PUSH1 0x1F ADD PUSH1 0x20 SWAP1 DIV DUP3 ADD JUMPDEST DUP3 DUP2 GT ISZERO PUSH2 0x721 JUMPI DUP3 SLOAD DUP3 SSTORE SWAP2 PUSH1 0x1 ADD SWAP2 SWAP1 PUSH1 0x1 ADD SWAP1 PUSH2 0x791 JUMP JUMPDEST JUMPDEST DUP1 DUP3 GT ISZERO PUSH2 0x72D JUMPI PUSH1 0x0 DUP2 SSTORE PUSH1 0x1 ADD PUSH2 0x7AD JUMP JUMPDEST DUP1 CALLDATALOAD PUSH1 0x1 PUSH1 0x1 PUSH1 0xA0 SHL SUB DUP2 AND DUP2 EQ PUSH2 0x358 JUMPI PUSH1 0x0 DUP1 REVERT JUMPDEST PUSH1 0x0 DUP3 PUSH1 0x1F DUP4 ADD SLT PUSH2 0x7E9 JUMPI PUSH1 0x0 DUP1 REVERT JUMPDEST DUP2 CALLDATALOAD PUSH8 0xFFFFFFFFFFFFFFFF DUP1 DUP3 GT ISZERO PUSH2 0x804 JUMPI PUSH2 0x804 PUSH2 0xA98 JUMP JUMPDEST PUSH1 0x40 MLOAD PUSH1 0x1F DUP4 ADD PUSH1 0x1F NOT SWAP1 DUP2 AND PUSH1 0x3F ADD AND DUP2 ADD SWAP1 DUP3 DUP3 GT DUP2 DUP4 LT OR ISZERO PUSH2 0x82C JUMPI PUSH2 0x82C PUSH2 0xA98 JUMP JUMPDEST DUP2 PUSH1 0x40 MSTORE DUP4 DUP2 MSTORE DUP7 PUSH1 0x20 DUP6 DUP9 ADD ADD GT ISZERO PUSH2 0x845 JUMPI PUSH1 0x0 DUP1 REVERT JUMPDEST DUP4 PUSH1 0x20 DUP8 ADD PUSH1 0x20 DUP4 ADD CALLDATACOPY PUSH1 0x0 PUSH1 0x20 DUP6 DUP4 ADD ADD MSTORE DUP1 SWAP5 POP POP POP POP POP SWAP3 SWAP2 POP POP JUMP JUMPDEST PUSH1 0x0 PUSH1 0x20 DUP3 DUP5 SUB SLT ISZERO PUSH2 0x877 JUMPI PUSH1 0x0 DUP1 REVERT JUMPDEST PUSH2 0x880 DUP3 PUSH2 0x7C1 JUMP JUMPDEST SWAP4 SWAP3 POP POP POP JUMP JUMPDEST PUSH1 0x0 DUP1 PUSH1 0x40 DUP4 DUP6 SUB SLT ISZERO PUSH2 0x89A JUMPI PUSH1 0x0 DUP1 REVERT JUMPDEST PUSH2 0x8A3 DUP4 PUSH2 0x7C1 JUMP JUMPDEST SWAP2 POP PUSH1 0x20 DUP4 ADD CALLDATALOAD PUSH8 0xFFFFFFFFFFFFFFFF DUP2 GT ISZERO PUSH2 0x8BF JUMPI PUSH1 0x0 DUP1 REVERT JUMPDEST PUSH2 0x8CB DUP6 DUP3 DUP7 ADD PUSH2 0x7D8 JUMP JUMPDEST SWAP2 POP POP SWAP3 POP SWAP3 SWAP1 POP JUMP JUMPDEST PUSH1 0x0 PUSH1 0x20 DUP3 DUP5 SUB SLT ISZERO PUSH2 0x8E7 JUMPI PUSH1 0x0 DUP1 REVERT JUMPDEST DUP2 CALLDATALOAD PUSH8 0xFFFFFFFFFFFFFFFF DUP2 GT ISZERO PUSH2 0x8FE JUMPI PUSH1 0x0 DUP1 REVERT JUMPDEST PUSH2 0x90A DUP5 DUP3 DUP6 ADD PUSH2 0x7D8 JUMP JUMPDEST SWAP5 SWAP4 POP POP POP POP JUMP JUMPDEST PUSH1 0x0 PUSH1 0x20 DUP3 DUP5 SUB SLT ISZERO PUSH2 0x924 JUMPI PUSH1 0x0 DUP1 REVERT JUMPDEST POP CALLDATALOAD SWAP2 SWAP1 POP JUMP JUMPDEST PUSH1 0x0 DUP2 MLOAD DUP1 DUP5 MSTORE PUSH1 0x0 JUMPDEST DUP2 DUP2 LT ISZERO PUSH2 0x951 JUMPI PUSH1 0x20 DUP2 DUP6 ADD DUP2 ADD MLOAD DUP7 DUP4 ADD DUP3 ADD MSTORE ADD PUSH2 0x935 JUMP JUMPDEST DUP2 DUP2 GT ISZERO PUSH2 0x963 JUMPI PUSH1 0x0 PUSH1 0x20 DUP4 DUP8 ADD ADD MSTORE JUMPDEST POP PUSH1 0x1F ADD PUSH1 0x1F NOT AND SWAP3 SWAP1 SWAP3 ADD PUSH1 0x20 ADD SWAP3 SWAP2 POP POP JUMP JUMPDEST PUSH1 0x20 DUP2 MSTORE PUSH1 0x0 PUSH2 0x880 PUSH1 0x20 DUP4 ADD DUP5 PUSH2 0x92B JUMP JUMPDEST PUSH1 0x40 DUP2 MSTORE PUSH1 0x0 PUSH2 0x99E PUSH1 0x40 DUP4 ADD DUP6 PUSH2 0x92B JUMP JUMPDEST SWAP1 POP DUP3 ISZERO ISZERO PUSH1 0x20 DUP4 ADD MSTORE SWAP4 SWAP3 POP POP POP JUMP JUMPDEST PUSH1 0x20 DUP1 DUP3 MSTORE PUSH1 0x23 SWAP1 DUP3 ADD MSTORE PUSH32 0x43616E206F6E6C7920626520657865637574656420627920746865206D616E61 PUSH1 0x40 DUP3 ADD MSTORE PUSH3 0x33B2B9 PUSH1 0xE9 SHL PUSH1 0x60 DUP3 ADD MSTORE PUSH1 0x80 ADD SWAP1 JUMP JUMPDEST PUSH1 0x0 DUP3 NOT DUP3 GT ISZERO PUSH2 0xA05 JUMPI PUSH2 0xA05 PUSH2 0xA82 JUMP JUMPDEST POP ADD SWAP1 JUMP JUMPDEST PUSH1 0x0 DUP3 PUSH2 0xA27 JUMPI PUSH4 0x4E487B71 PUSH1 0xE0 SHL PUSH1 0x0 MSTORE PUSH1 0x12 PUSH1 0x4 MSTORE PUSH1 0x24 PUSH1 0x0 REVERT JUMPDEST POP DIV SWAP1 JUMP JUMPDEST PUSH1 0x1 DUP2 DUP2 SHR SWAP1 DUP3 AND DUP1 PUSH2 0xA40 JUMPI PUSH1 0x7F DUP3 AND SWAP2 POP JUMPDEST PUSH1 0x20 DUP3 LT DUP2 EQ ISZERO PUSH2 0xA61 JUMPI PUSH4 0x4E487B71 PUSH1 0xE0 SHL PUSH1 0x0 MSTORE PUSH1 0x22 PUSH1 0x4 MSTORE PUSH1 0x24 PUSH1 0x0 REVERT JUMPDEST POP SWAP2 SWAP1 POP JUMP JUMPDEST PUSH1 0x0 PUSH1 0x0 NOT DUP3 EQ ISZERO PUSH2 0xA7B JUMPI PUSH2 0xA7B PUSH2 0xA82 JUMP JUMPDEST POP PUSH1 0x1 ADD SWAP1 JUMP JUMPDEST PUSH4 0x4E487B71 PUSH1 0xE0 SHL PUSH1 0x0 MSTORE PUSH1 0x11 PUSH1 0x4 MSTORE PUSH1 0x24 PUSH1 0x0 REVERT JUMPDEST PUSH4 0x4E487B71 PUSH1 0xE0 SHL PUSH1 0x0 MSTORE PUSH1 0x41 PUSH1 0x4 MSTORE PUSH1 0x24 PUSH1 0x0 REVERT INVALID LOG2 PUSH5 0x6970667358 0x22 SLT KECCAK256 PUSH21 0xA55DEC04C05FB55E74DE136914CA6E0CCD6D05DA44 0x28 SELFBALANCE SWAP3 PUSH2 0x3736 SWAP7 0xCA PUSH15 0x5264736F6C63430008050033000000 "
				},
				"gasEstimates": {
					"creation": {
						"codeDepositCost": "557600",
						"executionCost": "infinite",
						"totalCost": "infinite"
					},
					"external": {
						"addFriend(address,string)": "infinite",
						"addRestaurant(string)": "infinite",
						"doVote(uint256)": "infinite",
						"friends(address)": "infinite",
						"manager()": "2426",
						"numFriends()": "2362",
						"numRestaurants()": "2383",
						"numVotes()": "2339",
						"restaurants(uint256)": "infinite",
						"voteOpen()": "2321",
						"votedRestaurant()": "infinite",
						"votes(uint256)": "4736"
					},
					"internal": {
						"finalResult()": "infinite"
					}
				},
				"methodIdentifiers": {
					"addFriend(address,string)": "3b9f708d",
					"addRestaurant(string)": "6d77bd3e",
					"doVote(uint256)": "124258c6",
					"friends(address)": "1ddabf7a",
					"manager()": "481c6a75",
					"numFriends()": "47098f36",
					"numRestaurants()": "b798867f",
					"numVotes()": "a3bef4d7",
					"restaurants(uint256)": "ad5461d8",
					"voteOpen()": "788d3851",
					"votedRestaurant()": "c1c16efc",
					"votes(uint256)": "5df81330"
				}
			},
			"storageLayout": {
				"storage": [
					{
						"astId": 16,
						"contract": "project1/contracts/LunchVenue.sol:LunchVenue",
						"label": "restaurants",
						"offset": 0,
						"slot": "0",
						"type": "t_mapping(t_uint256,t_string_storage)"
					},
					{
						"astId": 21,
						"contract": "project1/contracts/LunchVenue.sol:LunchVenue",
						"label": "friends",
						"offset": 0,
						"slot": "1",
						"type": "t_mapping(t_address,t_struct(Friend)7_storage)"
					},
					{
						"astId": 24,
						"contract": "project1/contracts/LunchVenue.sol:LunchVenue",
						"label": "numRestaurants",
						"offset": 0,
						"slot": "2",
						"type": "t_uint256"
					},
					{
						"astId": 27,
						"contract": "project1/contracts/LunchVenue.sol:LunchVenue",
						"label": "numFriends",
						"offset": 0,
						"slot": "3",
						"type": "t_uint256"
					},
					{
						"astId": 30,
						"contract": "project1/contracts/LunchVenue.sol:LunchVenue",
						"label": "numVotes",
						"offset": 0,
						"slot": "4",
						"type": "t_uint256"
					},
					{
						"astId": 32,
						"contract": "project1/contracts/LunchVenue.sol:LunchVenue",
						"label": "manager",
						"offset": 0,
						"slot": "5",
						"type": "t_address"
					},
					{
						"astId": 35,
						"contract": "project1/contracts/LunchVenue.sol:LunchVenue",
						"label": "votedRestaurant",
						"offset": 0,
						"slot": "6",
						"type": "t_string_storage"
					},
					{
						"astId": 40,
						"contract": "project1/contracts/LunchVenue.sol:LunchVenue",
						"label": "votes",
						"offset": 0,
						"slot": "7",
						"type": "t_mapping(t_uint256,t_struct(Vote)12_storage)"
					},
					{
						"astId": 44,
						"contract": "project1/contracts/LunchVenue.sol:LunchVenue",
						"label": "_results",
						"offset": 0,
						"slot": "8",
						"type": "t_mapping(t_uint256,t_uint256)"
					},
					{
						"astId": 47,
						"contract": "project1/contracts/LunchVenue.sol:LunchVenue",
						"label": "voteOpen",
						"offset": 0,
						"slot": "9",
						"type": "t_bool"
					}
				],
				"types": {
					"t_address": {
						"encoding": "inplace",
						"label": "address",
						"numberOfBytes": "20"
					},
					"t_bool": {
						"encoding": "inplace",
						"label": "bool",
						"numberOfBytes": "1"
					},
					"t_mapping(t_address,t_struct(Friend)7_storage)": {
						"encoding": "mapping",
						"key": "t_address",
						"label": "mapping(address => struct LunchVenue.Friend)",
						"numberOfBytes": "32",
						"value": "t_struct(Friend)7_storage"
					},
					"t_mapping(t_uint256,t_string_storage)": {
						"encoding": "mapping",
						"key": "t_uint256",
						"label": "mapping(uint256 => string)",
						"numberOfBytes": "32",
						"value": "t_string_storage"
					},
					"t_mapping(t_uint256,t_struct(Vote)12_storage)": {
						"encoding": "mapping",
						"key": "t_uint256",
						"label": "mapping(uint256 => struct LunchVenue.Vote)",
						"numberOfBytes": "32",
						"value": "t_struct(Vote)12_storage"
					},
					"t_mapping(t_uint256,t_uint256)": {
						"encoding": "mapping",
						"key": "t_uint256",
						"label": "mapping(uint256 => uint256)",
						"numberOfBytes": "32",
						"value": "t_uint256"
					},
					"t_string_storage": {
						"encoding": "bytes",
						"label": "string",
						"numberOfBytes": "32"
					},
					"t_struct(Friend)7_storage": {
						"encoding": "inplace",
						"label": "struct LunchVenue.Friend",
						"members": [
							{
								"astId": 4,
								"contract": "project1/contracts/LunchVenue.sol:LunchVenue",
								"label": "name",
								"offset": 0,
								"slot": "0",
								"type": "t_string_storage"
							},
							{
								"astId": 6,
								"contract": "project1/contracts/LunchVenue.sol:LunchVenue",
								"label": "voted",
								"offset": 0,
								"slot": "1",
								"type": "t_bool"
							}
						],
						"numberOfBytes": "64"
					},
					"t_struct(Vote)12_storage": {
						"encoding": "inplace",
						"label": "struct LunchVenue.Vote",
						"members": [
							{
								"astId": 9,
								"contract": "project1/contracts/LunchVenue.sol:LunchVenue",
								"label": "voterAddress",
								"offset": 0,
								"slot": "0",
								"type": "t_address"
							},
							{
								"astId": 11,
								"contract": "project1/contracts/LunchVenue.sol:LunchVenue",
								"label": "restaurant",
								"offset": 0,
								"slot": "1",
								"type": "t_uint256"
							}
						],
						"numberOfBytes": "64"
					},
					"t_uint256": {
						"encoding": "inplace",
						"label": "uint256",
						"numberOfBytes": "32"
					}
				}
			},
			"userdoc": {
				"kind": "user",
				"methods": {
					"addFriend(address,string)": {
						"notice": "Add a new friend to voter list"
					},
					"addRestaurant(string)": {
						"notice": "Add a new restaurant"
					},
					"doVote(uint256)": {
						"notice": "Vote for a restaurant"
					}
				},
				"version": 1
			}
		}
	}
}