{
	"data": {
		"bytecode": {
			"linkReferences": {
				"remix_accounts.sol": {
					"TestsAccounts": [
						{
							"length": 20,
							"start": 3371
						},
						{
							"length": 20,
							"start": 3541
						},
						{
							"length": 20,
							"start": 3704
						},
						{
							"length": 20,
							"start": 3867
						},
						{
							"length": 20,
							"start": 4029
						}
					]
				},
				"remix_tests.sol": {
					"Assert": [
						{
							"length": 20,
							"start": 1434
						},
						{
							"length": 20,
							"start": 1669
						},
						{
							"length": 20,
							"start": 2068
						},
						{
							"length": 20,
							"start": 2547
						},
						{
							"length": 20,
							"start": 2787
						},
						{
							"length": 20,
							"start": 2933
						},
						{
							"length": 20,
							"start": 2982
						},
						{
							"length": 20,
							"start": 3306
						},
						{
							"length": 20,
							"start": 4174
						},
						{
							"length": 20,
							"start": 4451
						},
						{
							"length": 20,
							"start": 4693
						},
						{
							"length": 20,
							"start": 4931
						},
						{
							"length": 20,
							"start": 5156
						},
						{
							"length": 20,
							"start": 5192
						},
						{
							"length": 20,
							"start": 5390
						},
						{
							"length": 20,
							"start": 5570
						},
						{
							"length": 20,
							"start": 5619
						},
						{
							"length": 20,
							"start": 5677
						},
						{
							"length": 20,
							"start": 5720
						},
						{
							"length": 20,
							"start": 6092
						}
					]
				}
			},
			"object": "600060028190556003819055600481905560a0604081905260808290526200002b91600691906200005f565b506009805460ff191660011790553480156200004657600080fd5b50600580546001600160a01b0319163317905562000142565b8280546200006d9062000105565b90600052602060002090601f016020900481019282620000915760008555620000dc565b82601f10620000ac57805160ff1916838001178555620000dc565b82800160010185558215620000dc579182015b82811115620000dc578251825591602001919060010190620000bf565b50620000ea929150620000ee565b5090565b5b80821115620000ea5760008155600101620000ef565b600181811c908216806200011a57607f821691505b602082108114156200013c57634e487b7160e01b600052602260045260246000fd5b50919050565b611f8c80620001526000396000f3fe608060405234801561001057600080fd5b50600436106101735760003560e01c8063788d3851116100de578063a5627cf011610097578063ad5461d811610071578063ad5461d8146102eb578063b798867f1461030b578063bbb97ded14610314578063c1c16efc1461031c57600080fd5b8063a5627cf0146102d3578063a8267245146102db578063a9a4070c146102e357600080fd5b8063788d38511461029d5780637fea0d4b146102aa578063848b4427146102b2578063947aea86146102ba578063a24a4e88146102c2578063a3bef4d7146102ca57600080fd5b8063481c6a7511610130578063481c6a75146101fd578063512a6fbb146102285780635df8133014610230578063632a9a52146101cb5780636d77bd3e1461028257806377440e061461029557600080fd5b8063124258c61461017857806312a4591a146101a05780631ddabf7a146101aa5780632955fea3146101cb5780633b9f708d146101d357806347098f36146101f4575b600080fd5b61018b610186366004611a10565b610324565b60405190151581526020015b60405180910390f35b6101a8610446565b005b6101bd6101b8366004611920565b610619565b604051610197929190611b67565b6101a86106c0565b6101e66101e1366004611961565b61073b565b604051908152602001610197565b6101e660035481565b600554610210906001600160a01b031681565b6040516001600160a01b039091168152602001610197565b6101a86107e2565b61026361023e366004611a10565b600760205260009081526040902080546001909101546001600160a01b039091169082565b604080516001600160a01b039093168352602083019190915201610197565b6101e66102903660046119d3565b610a7f565b6101a8610aeb565b60095461018b9060ff1681565b6101a8610bc3565b6101a8610efa565b6101a8611272565b6101a86112f4565b6101e660045481565b6101a8611318565b6101a86114cc565b6101a8611504565b6102fe6102f9366004611a10565b611587565b6040516101979190611b54565b6101e660025481565b6101a8611621565b6102fe61169c565b60095460009060ff1615156001146103575760405162461bcd60e51b815260040161034e90611d37565b60405180910390fd5b50336000908152600160205260408120805461037290611dcc565b159050610417576000828152602081905260409020805461039290611dcc565b15905061041757503360008181526001602081815260408084208301805460ff19168417905580518082019091529384528301849052600480549193926103d883611e34565b90915550506004546000908152600760209081526040909120825181546001600160a01b0319166001600160a01b039091161781559101516001909101555b60026003546104269190611daa565b610431906001611d92565b60045410610441576104416116a9565b919050565b73__$acbfb1c35000d78352310b16a054a6b106$__63abcd796061048f6040518060400160405280600e81526020016d436f75727479617264204361666560901b815250610a7f565b6040516001600160e01b031960e084901b16815260048101919091526001602482015260606044820152601460648201527353686f756c6420626520657175616c20746f203160601b608482015260a40160206040518083038186803b1580156104f857600080fd5b505af415801561050c573d6000803e3d6000fd5b505050506040513d601f19601f8201168201806040525081019061053091906119b1565b5073__$acbfb1c35000d78352310b16a054a6b106$__63abcd796061057460405180604001604052806008815260200167556e69204361666560c01b815250610a7f565b6040516001600160e01b031960e084901b16815260048101919091526002602482015260606044820152601460648201527329b437bab6321031329032b8bab0b6103a37901960611b608482015260a4015b60206040518083038186803b1580156105de57600080fd5b505af41580156105f2573d6000803e3d6000fd5b505050506040513d601f19601f8201168201806040525081019061061691906119b1565b50565b60016020526000908152604090208054819061063490611dcc565b80601f016020809104026020016040519081016040528092919081815260200182805461066090611dcc565b80156106ad5780601f10610682576101008083540402835291602001916106ad565b820191906000526020600020905b81548152906001019060200180831161069057829003601f168201915b5050506001909301549192505060ff1682565b73__$acbfb1c35000d78352310b16a054a6b106$__6339df137f6106e46002610324565b604080516001600160e01b031960e085901b16815291151560048301526024820152601c60448201527f566f74696e6720726573756c742073686f756c6420626520747275650000000060648201526084016105c6565b6005546000906001600160a01b031633146107685760405162461bcd60e51b815260040161034e90611d1f565b604080518082018252600060208083018290528583526001600160a01b03871682526001815292902081518051929384936107a69284920190611798565b50602091909101516001909101805460ff1916911515919091179055600380549060006107d283611e34565b9091555050600354949350505050565b6040516336bbde9f60e11b815260206004820152600b60248201526a41746f6d6963204361666560a81b60448201523090636d77bd3e90606401602060405180830381600087803b15801561083657600080fd5b505af1925050508015610866575060408051601f3d908101601f1916820190925261086391810190611a29565b60015b610a4557610872611e7b565b806308c379a0141561091d5750610887611e97565b8061089257506109b3565b604051637461658b60e11b815273__$acbfb1c35000d78352310b16a054a6b106$__9063e8c2cb16906108c9908490600401611b8b565b60206040518083038186803b1580156108e157600080fd5b505af41580156108f5573d6000803e3d6000fd5b505050506040513d601f19601f8201168201806040525081019061091991906119b1565b5050565b634e487b7114156109b357610930611f21565b9061093b57506109b3565b604080516339df137f60e01b8152600060048201526024810191909152602160448201527f4661696c656420756e65787065637465642077697468206572726f7220636f646064820152606560f81b608482015273__$acbfb1c35000d78352310b16a054a6b106$__906339df137f9060a4016108c9565b3d8080156109dd576040519150601f19603f3d011682016040523d82523d6000602084013e6109e2565b606091505b50604080516339df137f60e01b8152600060048201526024810191909152601160448201527011985a5b1959081d5b995e1c1958dd1959607a1b606482015273__$acbfb1c35000d78352310b16a054a6b106$__906339df137f906084016108c9565b604051632b080af160e11b815273__$acbfb1c35000d78352310b16a054a6b106$__9063561015e2906108c9908490600390600401611d49565b6005546000906001600160a01b03163314610aac5760405162461bcd60e51b815260040161034e90611d1f565b60028054906000610abc83611e34565b90915550506002546000908152602081815260409091208351610ae192850190611798565b5050600254919050565b600d5460408051633b9f708d60e01b81526001600160a01b0390921660048301526024820152600760448201526644616e69656c7360c81b60648201523090633b9f708d90608401602060405180830381600087803b158015610b4d57600080fd5b505af1925050508015610b7d575060408051601f3d908101601f19168201909252610b7a91810190611a29565b60015b610b8957610872611e7b565b604051632b080af160e11b815273__$acbfb1c35000d78352310b16a054a6b106$__9063561015e2906108c9908490600590600401611d49565b60405163ce88b14560e01b81526000600482015273__$1068a87eb54ed04c4e435de35b2ebf536f$__9063ce88b1459060240160206040518083038186803b158015610c0e57600080fd5b505af4158015610c22573d6000803e3d6000fd5b505050506040513d601f19601f82011682018060405250810190610c469190611944565b600980546001600160a01b039290921661010002610100600160a81b031990921691909117905560405163ce88b14560e01b81526001600482015273__$1068a87eb54ed04c4e435de35b2ebf536f$__9063ce88b1459060240160206040518083038186803b158015610cb857600080fd5b505af4158015610ccc573d6000803e3d6000fd5b505050506040513d601f19601f82011682018060405250810190610cf09190611944565b600a80546001600160a01b0319166001600160a01b039290921691909117905560405163ce88b14560e01b81526002600482015273__$1068a87eb54ed04c4e435de35b2ebf536f$__9063ce88b1459060240160206040518083038186803b158015610d5b57600080fd5b505af4158015610d6f573d6000803e3d6000fd5b505050506040513d601f19601f82011682018060405250810190610d939190611944565b600b80546001600160a01b0319166001600160a01b039290921691909117905560405163ce88b14560e01b81526003600482015273__$1068a87eb54ed04c4e435de35b2ebf536f$__9063ce88b1459060240160206040518083038186803b158015610dfe57600080fd5b505af4158015610e12573d6000803e3d6000fd5b505050506040513d601f19601f82011682018060405250810190610e369190611944565b600c80546001600160a01b0319166001600160a01b039290921691909117905560405163ce88b14560e01b815260048082015273__$1068a87eb54ed04c4e435de35b2ebf536f$__9063ce88b1459060240160206040518083038186803b158015610ea057600080fd5b505af4158015610eb4573d6000803e3d6000fd5b505050506040513d601f19601f82011682018060405250810190610ed89190611944565b600d80546001600160a01b0319166001600160a01b0392909216919091179055565b73__$acbfb1c35000d78352310b16a054a6b106$__63abcd7960610f50600960019054906101000a90046001600160a01b031660405180604001604052806005815260200164416c69636560d81b81525061073b565b6040516001600160e01b031960e084901b16815260048101919091526001602482015260606044820152601460648201527353686f756c6420626520657175616c20746f203160601b608482015260a40160206040518083038186803b158015610fb957600080fd5b505af4158015610fcd573d6000803e3d6000fd5b505050506040513d601f19601f82011682018060405250810190610ff191906119b1565b50600a546040805180820190915260038152622137b160e91b602082015273__$acbfb1c35000d78352310b16a054a6b106$__9163abcd79609161103e916001600160a01b03169061073b565b6040516001600160e01b031960e084901b16815260048101919091526002602482015260606044820152601460648201527329b437bab6321031329032b8bab0b6103a37901960611b608482015260a40160206040518083038186803b1580156110a757600080fd5b505af41580156110bb573d6000803e3d6000fd5b505050506040513d601f19601f820116820180604052508101906110df91906119b1565b50600b54604080518082019091526007815266436861726c696560c81b602082015273__$acbfb1c35000d78352310b16a054a6b106$__9163abcd796091611130916001600160a01b03169061073b565b6040516001600160e01b031960e084901b16815260048101919091526003602482015260606044820152601460648201527353686f756c6420626520657175616c20746f203360601b608482015260a40160206040518083038186803b15801561119957600080fd5b505af41580156111ad573d6000803e3d6000fd5b505050506040513d601f19601f820116820180604052508101906111d191906119b1565b50600c5460408051808201909152600381526245766560e81b602082015273__$acbfb1c35000d78352310b16a054a6b106$__9163abcd79609161121e916001600160a01b03169061073b565b60046040518363ffffffff1660e01b81526004016105c692919091825260208201526060604082018190526014908201527314da1bdd5b1908189948195c5d585b081d1bc80d60621b608082015260a00190565b600554600954604051635fdd2eeb60e11b81526001600160a01b039283166004820152610100909104909116602482015260606044820152601660648201527504d616e616765722073686f756c6420626520616363360541b608482015273__$acbfb1c35000d78352310b16a054a6b106$__9063bfba5dd69060a4016105c6565b73__$acbfb1c35000d78352310b16a054a6b106$__6339df137f6106e46001610324565b6040516309212c6360e11b815260016004820152309063124258c690602401602060405180830381600087803b15801561135157600080fd5b505af1925050508015611381575060408051601f3d908101601f1916820190925261137e918101906119b1565b60015b6114925761138d611e7b565b806308c379a014156113e457506113a2611e97565b806113ad57506113fe565b604051637461658b60e11b815273__$acbfb1c35000d78352310b16a054a6b106$__9063e8c2cb16906108c9908490600401611bed565b634e487b7114156113fe576113f7611f21565b9061093b57505b3d808015611428576040519150601f19603f3d011682016040523d82523d6000602084013e61142d565b606091505b50604080516339df137f60e01b815260006004820152602481019190915260136044820152724661696c656420756e65787065637465646c7960681b606482015273__$acbfb1c35000d78352310b16a054a6b106$__906339df137f906084016108c9565b60405163767392b360e01b815273__$acbfb1c35000d78352310b16a054a6b106$__9063767392b3906108c9908490600190600401611b07565b604051637461658b60e11b815273__$acbfb1c35000d78352310b16a054a6b106$__9063e8c2cb16906105c690600690600401611c11565b73__$acbfb1c35000d78352310b16a054a6b106$__63767392b36115286001610324565b6040516001600160e01b031960e084901b16815290151560048201526000602482015260606044820152601d60648201527f566f74696e6720726573756c742073686f756c642062652066616c7365000000608482015260a4016105c6565b600060208190529081526040902080546115a090611dcc565b80601f01602080910402602001604051908101604052809291908181526020018280546115cc90611dcc565b80156116195780601f106115ee57610100808354040283529160200191611619565b820191906000526020600020905b8154815290600101906020018083116115fc57829003601f168201915b505050505081565b60095460405163767392b360e01b815260ff909116151560048201526000602482015260606044820152601760648201527f566f74696e672073686f756c6420626520636c6f736564000000000000000000608482015273__$acbfb1c35000d78352310b16a054a6b106$__9063767392b39060a4016105c6565b600680546115a090611dcc565b60008060015b600454811161176057600081815260076020908152604080832060019081015484526008909252909120541561170b57600082815260076020908152604080832060010154835260089091529020546117089082611d92565b90505b6000828152600760209081526040808320600101548352600890915290208190558381111561174d576000828152600760205260409020600101549093509150825b508061175881611e34565b9150506116af565b50600081815260208190526040902080546006919061177e90611dcc565b61178992919061181c565b50506009805460ff1916905550565b8280546117a490611dcc565b90600052602060002090601f0160209004810192826117c6576000855561180c565b82601f106117df57805160ff191683800117855561180c565b8280016001018555821561180c579182015b8281111561180c5782518255916020019190600101906117f1565b50611818929150611897565b5090565b82805461182890611dcc565b90600052602060002090601f01602090048101928261184a576000855561180c565b82601f1061185b578054855561180c565b8280016001018555821561180c57600052602060002091601f016020900482015b8281111561180c57825482559160010191906001019061187c565b5b808211156118185760008155600101611898565b600082601f8301126118bd57600080fd5b813567ffffffffffffffff8111156118d7576118d7611e65565b6040516118ee601f8301601f191660200182611e07565b81815284602083860101111561190357600080fd5b816020850160208301376000918101602001919091529392505050565b60006020828403121561193257600080fd5b813561193d81611f41565b9392505050565b60006020828403121561195657600080fd5b815161193d81611f41565b6000806040838503121561197457600080fd5b823561197f81611f41565b9150602083013567ffffffffffffffff81111561199b57600080fd5b6119a7858286016118ac565b9150509250929050565b6000602082840312156119c357600080fd5b8151801515811461193d57600080fd5b6000602082840312156119e557600080fd5b813567ffffffffffffffff8111156119fc57600080fd5b611a08848285016118ac565b949350505050565b600060208284031215611a2257600080fd5b5035919050565b600060208284031215611a3b57600080fd5b5051919050565b6000815180845260005b81811015611a6857602081850181015186830182015201611a4c565b81811115611a7a576000602083870101525b50601f01601f19169290920160200192915050565b602381527f43616e206f6e6c7920626520657865637574656420627920746865206d616e6160208201526233b2b960e91b604082015260600190565b602381527f43616e20766f7465206f6e6c79207768696c6520766f74696e67206973206f7060208201526232b71760e91b604082015260600190565b82151581528115156020820152606060408201526000611a0860608301601d81527f4d6574686f6420657865637574696f6e20646964206e6f74206661696c000000602082015260400190565b60208152600061193d6020830184611a42565b604081526000611b7a6040830185611a42565b905082151560208301529392505050565b606081526000611b9e6060830184611a42565b8281036020840152611baf81611a8f565b90508281036040840152611a0881601d81527f4661696c6564207769746820756e657870656374656420726561736f6e000000602082015260400190565b606081526000611c006060830184611a42565b8281036020840152611baf81611acb565b60608152600080835481600182811c915080831680611c3157607f831692505b6020808410821415611c5157634e487b7160e01b86526022600452602486fd5b6060880184905260808801828015611c705760018114611c8157611cac565b60ff19871682528282019750611cac565b60008b81526020902060005b87811015611ca657815484820152908601908401611c8d565b83019850505b505087860390880152505060088352505067556e69204361666560c01b60208201526040810190508281036040840152611a0881602681527f53656c65637465642072657374617572616e742073686f756c6420626520556e60208201526569204361666560d01b604082015260600190565b602081526000611d3160208301611a8f565b92915050565b602081526000611d3160208301611acb565b828152816020820152606060408201526000611a0860608301601d81527f4d6574686f6420657865637574696f6e20646964206e6f74206661696c000000602082015260400190565b60008219821115611da557611da5611e4f565b500190565b600082611dc757634e487b7160e01b600052601260045260246000fd5b500490565b600181811c90821680611de057607f821691505b60208210811415611e0157634e487b7160e01b600052602260045260246000fd5b50919050565b601f8201601f1916810167ffffffffffffffff81118282101715611e2d57611e2d611e65565b6040525050565b6000600019821415611e4857611e48611e4f565b5060010190565b634e487b7160e01b600052601160045260246000fd5b634e487b7160e01b600052604160045260246000fd5b600060033d1115611e945760046000803e5060005160e01c5b90565b600060443d1015611ea55790565b6040516003193d81016004833e81513d67ffffffffffffffff8160248401118184111715611ed557505050505090565b8285019150815181811115611eed5750505050505090565b843d8701016020828501011115611f075750505050505090565b611f1660208286010187611e07565b509095945050505050565b60008060233d1115611f3d576020600460003e50506000516001905b9091565b6001600160a01b038116811461061657600080fdfea2646970667358221220e9ce2325ba17906dd8a1323612930c2d4761a12aeedb939f0ad38c6414342b7b64736f6c63430008050033",
			"opcodes": "PUSH1 0x0 PUSH1 0x2 DUP2 SWAP1 SSTORE PUSH1 0x3 DUP2 SWAP1 SSTORE PUSH1 0x4 DUP2 SWAP1 SSTORE PUSH1 0xA0 PUSH1 0x40 DUP2 SWAP1 MSTORE PUSH1 0x80 DUP3 SWAP1 MSTORE PUSH3 0x2B SWAP2 PUSH1 0x6 SWAP2 SWAP1 PUSH3 0x5F JUMP JUMPDEST POP PUSH1 0x9 DUP1 SLOAD PUSH1 0xFF NOT AND PUSH1 0x1 OR SWAP1 SSTORE CALLVALUE DUP1 ISZERO PUSH3 0x46 JUMPI PUSH1 0x0 DUP1 REVERT JUMPDEST POP PUSH1 0x5 DUP1 SLOAD PUSH1 0x1 PUSH1 0x1 PUSH1 0xA0 SHL SUB NOT AND CALLER OR SWAP1 SSTORE PUSH3 0x142 JUMP JUMPDEST DUP3 DUP1 SLOAD PUSH3 0x6D SWAP1 PUSH3 0x105 JUMP JUMPDEST SWAP1 PUSH1 0x0 MSTORE PUSH1 0x20 PUSH1 0x0 KECCAK256 SWAP1 PUSH1 0x1F ADD PUSH1 0x20 SWAP1 DIV DUP2 ADD SWAP3 DUP3 PUSH3 0x91 JUMPI PUSH1 0x0 DUP6 SSTORE PUSH3 0xDC JUMP JUMPDEST DUP3 PUSH1 0x1F LT PUSH3 0xAC JUMPI DUP1 MLOAD PUSH1 0xFF NOT AND DUP4 DUP1 ADD OR DUP6 SSTORE PUSH3 0xDC JUMP JUMPDEST DUP3 DUP1 ADD PUSH1 0x1 ADD DUP6 SSTORE DUP3 ISZERO PUSH3 0xDC JUMPI SWAP2 DUP3 ADD JUMPDEST DUP3 DUP2 GT ISZERO PUSH3 0xDC JUMPI DUP3 MLOAD DUP3 SSTORE SWAP2 PUSH1 0x20 ADD SWAP2 SWAP1 PUSH1 0x1 ADD SWAP1 PUSH3 0xBF JUMP JUMPDEST POP PUSH3 0xEA SWAP3 SWAP2 POP PUSH3 0xEE JUMP JUMPDEST POP SWAP1 JUMP JUMPDEST JUMPDEST DUP1 DUP3 GT ISZERO PUSH3 0xEA JUMPI PUSH1 0x0 DUP2 SSTORE PUSH1 0x1 ADD PUSH3 0xEF JUMP JUMPDEST PUSH1 0x1 DUP2 DUP2 SHR SWAP1 DUP3 AND DUP1 PUSH3 0x11A JUMPI PUSH1 0x7F DUP3 AND SWAP2 POP JUMPDEST PUSH1 0x20 DUP3 LT DUP2 EQ ISZERO PUSH3 0x13C JUMPI PUSH4 0x4E487B71 PUSH1 0xE0 SHL PUSH1 0x0 MSTORE PUSH1 0x22 PUSH1 0x4 MSTORE PUSH1 0x24 PUSH1 0x0 REVERT JUMPDEST POP SWAP2 SWAP1 POP JUMP JUMPDEST PUSH2 0x1F8C DUP1 PUSH3 0x152 PUSH1 0x0 CODECOPY PUSH1 0x0 RETURN INVALID PUSH1 0x80 PUSH1 0x40 MSTORE CALLVALUE DUP1 ISZERO PUSH2 0x10 JUMPI PUSH1 0x0 DUP1 REVERT JUMPDEST POP PUSH1 0x4 CALLDATASIZE LT PUSH2 0x173 JUMPI PUSH1 0x0 CALLDATALOAD PUSH1 0xE0 SHR DUP1 PUSH4 0x788D3851 GT PUSH2 0xDE JUMPI DUP1 PUSH4 0xA5627CF0 GT PUSH2 0x97 JUMPI DUP1 PUSH4 0xAD5461D8 GT PUSH2 0x71 JUMPI DUP1 PUSH4 0xAD5461D8 EQ PUSH2 0x2EB JUMPI DUP1 PUSH4 0xB798867F EQ PUSH2 0x30B JUMPI DUP1 PUSH4 0xBBB97DED EQ PUSH2 0x314 JUMPI DUP1 PUSH4 0xC1C16EFC EQ PUSH2 0x31C JUMPI PUSH1 0x0 DUP1 REVERT JUMPDEST DUP1 PUSH4 0xA5627CF0 EQ PUSH2 0x2D3 JUMPI DUP1 PUSH4 0xA8267245 EQ PUSH2 0x2DB JUMPI DUP1 PUSH4 0xA9A4070C EQ PUSH2 0x2E3 JUMPI PUSH1 0x0 DUP1 REVERT JUMPDEST DUP1 PUSH4 0x788D3851 EQ PUSH2 0x29D JUMPI DUP1 PUSH4 0x7FEA0D4B EQ PUSH2 0x2AA JUMPI DUP1 PUSH4 0x848B4427 EQ PUSH2 0x2B2 JUMPI DUP1 PUSH4 0x947AEA86 EQ PUSH2 0x2BA JUMPI DUP1 PUSH4 0xA24A4E88 EQ PUSH2 0x2C2 JUMPI DUP1 PUSH4 0xA3BEF4D7 EQ PUSH2 0x2CA JUMPI PUSH1 0x0 DUP1 REVERT JUMPDEST DUP1 PUSH4 0x481C6A75 GT PUSH2 0x130 JUMPI DUP1 PUSH4 0x481C6A75 EQ PUSH2 0x1FD JUMPI DUP1 PUSH4 0x512A6FBB EQ PUSH2 0x228 JUMPI DUP1 PUSH4 0x5DF81330 EQ PUSH2 0x230 JUMPI DUP1 PUSH4 0x632A9A52 EQ PUSH2 0x1CB JUMPI DUP1 PUSH4 0x6D77BD3E EQ PUSH2 0x282 JUMPI DUP1 PUSH4 0x77440E06 EQ PUSH2 0x295 JUMPI PUSH1 0x0 DUP1 REVERT JUMPDEST DUP1 PUSH4 0x124258C6 EQ PUSH2 0x178 JUMPI DUP1 PUSH4 0x12A4591A EQ PUSH2 0x1A0 JUMPI DUP1 PUSH4 0x1DDABF7A EQ PUSH2 0x1AA JUMPI DUP1 PUSH4 0x2955FEA3 EQ PUSH2 0x1CB JUMPI DUP1 PUSH4 0x3B9F708D EQ PUSH2 0x1D3 JUMPI DUP1 PUSH4 0x47098F36 EQ PUSH2 0x1F4 JUMPI JUMPDEST PUSH1 0x0 DUP1 REVERT JUMPDEST PUSH2 0x18B PUSH2 0x186 CALLDATASIZE PUSH1 0x4 PUSH2 0x1A10 JUMP JUMPDEST PUSH2 0x324 JUMP JUMPDEST PUSH1 0x40 MLOAD SWAP1 ISZERO ISZERO DUP2 MSTORE PUSH1 0x20 ADD JUMPDEST PUSH1 0x40 MLOAD DUP1 SWAP2 SUB SWAP1 RETURN JUMPDEST PUSH2 0x1A8 PUSH2 0x446 JUMP JUMPDEST STOP JUMPDEST PUSH2 0x1BD PUSH2 0x1B8 CALLDATASIZE PUSH1 0x4 PUSH2 0x1920 JUMP JUMPDEST PUSH2 0x619 JUMP JUMPDEST PUSH1 0x40 MLOAD PUSH2 0x197 SWAP3 SWAP2 SWAP1 PUSH2 0x1B67 JUMP JUMPDEST PUSH2 0x1A8 PUSH2 0x6C0 JUMP JUMPDEST PUSH2 0x1E6 PUSH2 0x1E1 CALLDATASIZE PUSH1 0x4 PUSH2 0x1961 JUMP JUMPDEST PUSH2 0x73B JUMP JUMPDEST PUSH1 0x40 MLOAD SWAP1 DUP2 MSTORE PUSH1 0x20 ADD PUSH2 0x197 JUMP JUMPDEST PUSH2 0x1E6 PUSH1 0x3 SLOAD DUP2 JUMP JUMPDEST PUSH1 0x5 SLOAD PUSH2 0x210 SWAP1 PUSH1 0x1 PUSH1 0x1 PUSH1 0xA0 SHL SUB AND DUP2 JUMP JUMPDEST PUSH1 0x40 MLOAD PUSH1 0x1 PUSH1 0x1 PUSH1 0xA0 SHL SUB SWAP1 SWAP2 AND DUP2 MSTORE PUSH1 0x20 ADD PUSH2 0x197 JUMP JUMPDEST PUSH2 0x1A8 PUSH2 0x7E2 JUMP JUMPDEST PUSH2 0x263 PUSH2 0x23E CALLDATASIZE PUSH1 0x4 PUSH2 0x1A10 JUMP JUMPDEST PUSH1 0x7 PUSH1 0x20 MSTORE PUSH1 0x0 SWAP1 DUP2 MSTORE PUSH1 0x40 SWAP1 KECCAK256 DUP1 SLOAD PUSH1 0x1 SWAP1 SWAP2 ADD SLOAD PUSH1 0x1 PUSH1 0x1 PUSH1 0xA0 SHL SUB SWAP1 SWAP2 AND SWAP1 DUP3 JUMP JUMPDEST PUSH1 0x40 DUP1 MLOAD PUSH1 0x1 PUSH1 0x1 PUSH1 0xA0 SHL SUB SWAP1 SWAP4 AND DUP4 MSTORE PUSH1 0x20 DUP4 ADD SWAP2 SWAP1 SWAP2 MSTORE ADD PUSH2 0x197 JUMP JUMPDEST PUSH2 0x1E6 PUSH2 0x290 CALLDATASIZE PUSH1 0x4 PUSH2 0x19D3 JUMP JUMPDEST PUSH2 0xA7F JUMP JUMPDEST PUSH2 0x1A8 PUSH2 0xAEB JUMP JUMPDEST PUSH1 0x9 SLOAD PUSH2 0x18B SWAP1 PUSH1 0xFF AND DUP2 JUMP JUMPDEST PUSH2 0x1A8 PUSH2 0xBC3 JUMP JUMPDEST PUSH2 0x1A8 PUSH2 0xEFA JUMP JUMPDEST PUSH2 0x1A8 PUSH2 0x1272 JUMP JUMPDEST PUSH2 0x1A8 PUSH2 0x12F4 JUMP JUMPDEST PUSH2 0x1E6 PUSH1 0x4 SLOAD DUP2 JUMP JUMPDEST PUSH2 0x1A8 PUSH2 0x1318 JUMP JUMPDEST PUSH2 0x1A8 PUSH2 0x14CC JUMP JUMPDEST PUSH2 0x1A8 PUSH2 0x1504 JUMP JUMPDEST PUSH2 0x2FE PUSH2 0x2F9 CALLDATASIZE PUSH1 0x4 PUSH2 0x1A10 JUMP JUMPDEST PUSH2 0x1587 JUMP JUMPDEST PUSH1 0x40 MLOAD PUSH2 0x197 SWAP2 SWAP1 PUSH2 0x1B54 JUMP JUMPDEST PUSH2 0x1E6 PUSH1 0x2 SLOAD DUP2 JUMP JUMPDEST PUSH2 0x1A8 PUSH2 0x1621 JUMP JUMPDEST PUSH2 0x2FE PUSH2 0x169C JUMP JUMPDEST PUSH1 0x9 SLOAD PUSH1 0x0 SWAP1 PUSH1 0xFF AND ISZERO ISZERO PUSH1 0x1 EQ PUSH2 0x357 JUMPI PUSH1 0x40 MLOAD PUSH3 0x461BCD PUSH1 0xE5 SHL DUP2 MSTORE PUSH1 0x4 ADD PUSH2 0x34E SWAP1 PUSH2 0x1D37 JUMP JUMPDEST PUSH1 0x40 MLOAD DUP1 SWAP2 SUB SWAP1 REVERT JUMPDEST POP CALLER PUSH1 0x0 SWAP1 DUP2 MSTORE PUSH1 0x1 PUSH1 0x20 MSTORE PUSH1 0x40 DUP2 KECCAK256 DUP1 SLOAD PUSH2 0x372 SWAP1 PUSH2 0x1DCC JUMP JUMPDEST ISZERO SWAP1 POP PUSH2 0x417 JUMPI PUSH1 0x0 DUP3 DUP2 MSTORE PUSH1 0x20 DUP2 SWAP1 MSTORE PUSH1 0x40 SWAP1 KECCAK256 DUP1 SLOAD PUSH2 0x392 SWAP1 PUSH2 0x1DCC JUMP JUMPDEST ISZERO SWAP1 POP PUSH2 0x417 JUMPI POP CALLER PUSH1 0x0 DUP2 DUP2 MSTORE PUSH1 0x1 PUSH1 0x20 DUP2 DUP2 MSTORE PUSH1 0x40 DUP1 DUP5 KECCAK256 DUP4 ADD DUP1 SLOAD PUSH1 0xFF NOT AND DUP5 OR SWAP1 SSTORE DUP1 MLOAD DUP1 DUP3 ADD SWAP1 SWAP2 MSTORE SWAP4 DUP5 MSTORE DUP4 ADD DUP5 SWAP1 MSTORE PUSH1 0x4 DUP1 SLOAD SWAP2 SWAP4 SWAP3 PUSH2 0x3D8 DUP4 PUSH2 0x1E34 JUMP JUMPDEST SWAP1 SWAP2 SSTORE POP POP PUSH1 0x4 SLOAD PUSH1 0x0 SWAP1 DUP2 MSTORE PUSH1 0x7 PUSH1 0x20 SWAP1 DUP2 MSTORE PUSH1 0x40 SWAP1 SWAP2 KECCAK256 DUP3 MLOAD DUP2 SLOAD PUSH1 0x1 PUSH1 0x1 PUSH1 0xA0 SHL SUB NOT AND PUSH1 0x1 PUSH1 0x1 PUSH1 0xA0 SHL SUB SWAP1 SWAP2 AND OR DUP2 SSTORE SWAP2 ADD MLOAD PUSH1 0x1 SWAP1 SWAP2 ADD SSTORE JUMPDEST PUSH1 0x2 PUSH1 0x3 SLOAD PUSH2 0x426 SWAP2 SWAP1 PUSH2 0x1DAA JUMP JUMPDEST PUSH2 0x431 SWAP1 PUSH1 0x1 PUSH2 0x1D92 JUMP JUMPDEST PUSH1 0x4 SLOAD LT PUSH2 0x441 JUMPI PUSH2 0x441 PUSH2 0x16A9 JUMP JUMPDEST SWAP2 SWAP1 POP JUMP JUMPDEST PUSH20 0x0 PUSH4 0xABCD7960 PUSH2 0x48F PUSH1 0x40 MLOAD DUP1 PUSH1 0x40 ADD PUSH1 0x40 MSTORE DUP1 PUSH1 0xE DUP2 MSTORE PUSH1 0x20 ADD PUSH14 0x436F757274796172642043616665 PUSH1 0x90 SHL DUP2 MSTORE POP PUSH2 0xA7F JUMP JUMPDEST PUSH1 0x40 MLOAD PUSH1 0x1 PUSH1 0x1 PUSH1 0xE0 SHL SUB NOT PUSH1 0xE0 DUP5 SWAP1 SHL AND DUP2 MSTORE PUSH1 0x4 DUP2 ADD SWAP2 SWAP1 SWAP2 MSTORE PUSH1 0x1 PUSH1 0x24 DUP3 ADD MSTORE PUSH1 0x60 PUSH1 0x44 DUP3 ADD MSTORE PUSH1 0x14 PUSH1 0x64 DUP3 ADD MSTORE PUSH20 0x53686F756C6420626520657175616C20746F2031 PUSH1 0x60 SHL PUSH1 0x84 DUP3 ADD MSTORE PUSH1 0xA4 ADD PUSH1 0x20 PUSH1 0x40 MLOAD DUP1 DUP4 SUB DUP2 DUP7 DUP1 EXTCODESIZE ISZERO DUP1 ISZERO PUSH2 0x4F8 JUMPI PUSH1 0x0 DUP1 REVERT JUMPDEST POP GAS DELEGATECALL ISZERO DUP1 ISZERO PUSH2 0x50C JUMPI RETURNDATASIZE PUSH1 0x0 DUP1 RETURNDATACOPY RETURNDATASIZE PUSH1 0x0 REVERT JUMPDEST POP POP POP POP PUSH1 0x40 MLOAD RETURNDATASIZE PUSH1 0x1F NOT PUSH1 0x1F DUP3 ADD AND DUP3 ADD DUP1 PUSH1 0x40 MSTORE POP DUP2 ADD SWAP1 PUSH2 0x530 SWAP2 SWAP1 PUSH2 0x19B1 JUMP JUMPDEST POP PUSH20 0x0 PUSH4 0xABCD7960 PUSH2 0x574 PUSH1 0x40 MLOAD DUP1 PUSH1 0x40 ADD PUSH1 0x40 MSTORE DUP1 PUSH1 0x8 DUP2 MSTORE PUSH1 0x20 ADD PUSH8 0x556E692043616665 PUSH1 0xC0 SHL DUP2 MSTORE POP PUSH2 0xA7F JUMP JUMPDEST PUSH1 0x40 MLOAD PUSH1 0x1 PUSH1 0x1 PUSH1 0xE0 SHL SUB NOT PUSH1 0xE0 DUP5 SWAP1 SHL AND DUP2 MSTORE PUSH1 0x4 DUP2 ADD SWAP2 SWAP1 SWAP2 MSTORE PUSH1 0x2 PUSH1 0x24 DUP3 ADD MSTORE PUSH1 0x60 PUSH1 0x44 DUP3 ADD MSTORE PUSH1 0x14 PUSH1 0x64 DUP3 ADD MSTORE PUSH20 0x29B437BAB6321031329032B8BAB0B6103A379019 PUSH1 0x61 SHL PUSH1 0x84 DUP3 ADD MSTORE PUSH1 0xA4 ADD JUMPDEST PUSH1 0x20 PUSH1 0x40 MLOAD DUP1 DUP4 SUB DUP2 DUP7 DUP1 EXTCODESIZE ISZERO DUP1 ISZERO PUSH2 0x5DE JUMPI PUSH1 0x0 DUP1 REVERT JUMPDEST POP GAS DELEGATECALL ISZERO DUP1 ISZERO PUSH2 0x5F2 JUMPI RETURNDATASIZE PUSH1 0x0 DUP1 RETURNDATACOPY RETURNDATASIZE PUSH1 0x0 REVERT JUMPDEST POP POP POP POP PUSH1 0x40 MLOAD RETURNDATASIZE PUSH1 0x1F NOT PUSH1 0x1F DUP3 ADD AND DUP3 ADD DUP1 PUSH1 0x40 MSTORE POP DUP2 ADD SWAP1 PUSH2 0x616 SWAP2 SWAP1 PUSH2 0x19B1 JUMP JUMPDEST POP JUMP JUMPDEST PUSH1 0x1 PUSH1 0x20 MSTORE PUSH1 0x0 SWAP1 DUP2 MSTORE PUSH1 0x40 SWAP1 KECCAK256 DUP1 SLOAD DUP2 SWAP1 PUSH2 0x634 SWAP1 PUSH2 0x1DCC JUMP JUMPDEST DUP1 PUSH1 0x1F ADD PUSH1 0x20 DUP1 SWAP2 DIV MUL PUSH1 0x20 ADD PUSH1 0x40 MLOAD SWAP1 DUP2 ADD PUSH1 0x40 MSTORE DUP1 SWAP3 SWAP2 SWAP1 DUP2 DUP2 MSTORE PUSH1 0x20 ADD DUP3 DUP1 SLOAD PUSH2 0x660 SWAP1 PUSH2 0x1DCC JUMP JUMPDEST DUP1 ISZERO PUSH2 0x6AD JUMPI DUP1 PUSH1 0x1F LT PUSH2 0x682 JUMPI PUSH2 0x100 DUP1 DUP4 SLOAD DIV MUL DUP4 MSTORE SWAP2 PUSH1 0x20 ADD SWAP2 PUSH2 0x6AD JUMP JUMPDEST DUP3 ADD SWAP2 SWAP1 PUSH1 0x0 MSTORE PUSH1 0x20 PUSH1 0x0 KECCAK256 SWAP1 JUMPDEST DUP2 SLOAD DUP2 MSTORE SWAP1 PUSH1 0x1 ADD SWAP1 PUSH1 0x20 ADD DUP1 DUP4 GT PUSH2 0x690 JUMPI DUP3 SWAP1 SUB PUSH1 0x1F AND DUP3 ADD SWAP2 JUMPDEST POP POP POP PUSH1 0x1 SWAP1 SWAP4 ADD SLOAD SWAP2 SWAP3 POP POP PUSH1 0xFF AND DUP3 JUMP JUMPDEST PUSH20 0x0 PUSH4 0x39DF137F PUSH2 0x6E4 PUSH1 0x2 PUSH2 0x324 JUMP JUMPDEST PUSH1 0x40 DUP1 MLOAD PUSH1 0x1 PUSH1 0x1 PUSH1 0xE0 SHL SUB NOT PUSH1 0xE0 DUP6 SWAP1 SHL AND DUP2 MSTORE SWAP2 ISZERO ISZERO PUSH1 0x4 DUP4 ADD MSTORE PUSH1 0x24 DUP3 ADD MSTORE PUSH1 0x1C PUSH1 0x44 DUP3 ADD MSTORE PUSH32 0x566F74696E6720726573756C742073686F756C64206265207472756500000000 PUSH1 0x64 DUP3 ADD MSTORE PUSH1 0x84 ADD PUSH2 0x5C6 JUMP JUMPDEST PUSH1 0x5 SLOAD PUSH1 0x0 SWAP1 PUSH1 0x1 PUSH1 0x1 PUSH1 0xA0 SHL SUB AND CALLER EQ PUSH2 0x768 JUMPI PUSH1 0x40 MLOAD PUSH3 0x461BCD PUSH1 0xE5 SHL DUP2 MSTORE PUSH1 0x4 ADD PUSH2 0x34E SWAP1 PUSH2 0x1D1F JUMP JUMPDEST PUSH1 0x40 DUP1 MLOAD DUP1 DUP3 ADD DUP3 MSTORE PUSH1 0x0 PUSH1 0x20 DUP1 DUP4 ADD DUP3 SWAP1 MSTORE DUP6 DUP4 MSTORE PUSH1 0x1 PUSH1 0x1 PUSH1 0xA0 SHL SUB DUP8 AND DUP3 MSTORE PUSH1 0x1 DUP2 MSTORE SWAP3 SWAP1 KECCAK256 DUP2 MLOAD DUP1 MLOAD SWAP3 SWAP4 DUP5 SWAP4 PUSH2 0x7A6 SWAP3 DUP5 SWAP3 ADD SWAP1 PUSH2 0x1798 JUMP JUMPDEST POP PUSH1 0x20 SWAP2 SWAP1 SWAP2 ADD MLOAD PUSH1 0x1 SWAP1 SWAP2 ADD DUP1 SLOAD PUSH1 0xFF NOT AND SWAP2 ISZERO ISZERO SWAP2 SWAP1 SWAP2 OR SWAP1 SSTORE PUSH1 0x3 DUP1 SLOAD SWAP1 PUSH1 0x0 PUSH2 0x7D2 DUP4 PUSH2 0x1E34 JUMP JUMPDEST SWAP1 SWAP2 SSTORE POP POP PUSH1 0x3 SLOAD SWAP5 SWAP4 POP POP POP POP JUMP JUMPDEST PUSH1 0x40 MLOAD PUSH4 0x36BBDE9F PUSH1 0xE1 SHL DUP2 MSTORE PUSH1 0x20 PUSH1 0x4 DUP3 ADD MSTORE PUSH1 0xB PUSH1 0x24 DUP3 ADD MSTORE PUSH11 0x41746F6D69632043616665 PUSH1 0xA8 SHL PUSH1 0x44 DUP3 ADD MSTORE ADDRESS SWAP1 PUSH4 0x6D77BD3E SWAP1 PUSH1 0x64 ADD PUSH1 0x20 PUSH1 0x40 MLOAD DUP1 DUP4 SUB DUP2 PUSH1 0x0 DUP8 DUP1 EXTCODESIZE ISZERO DUP1 ISZERO PUSH2 0x836 JUMPI PUSH1 0x0 DUP1 REVERT JUMPDEST POP GAS CALL SWAP3 POP POP POP DUP1 ISZERO PUSH2 0x866 JUMPI POP PUSH1 0x40 DUP1 MLOAD PUSH1 0x1F RETURNDATASIZE SWAP1 DUP2 ADD PUSH1 0x1F NOT AND DUP3 ADD SWAP1 SWAP3 MSTORE PUSH2 0x863 SWAP2 DUP2 ADD SWAP1 PUSH2 0x1A29 JUMP JUMPDEST PUSH1 0x1 JUMPDEST PUSH2 0xA45 JUMPI PUSH2 0x872 PUSH2 0x1E7B JUMP JUMPDEST DUP1 PUSH4 0x8C379A0 EQ ISZERO PUSH2 0x91D JUMPI POP PUSH2 0x887 PUSH2 0x1E97 JUMP JUMPDEST DUP1 PUSH2 0x892 JUMPI POP PUSH2 0x9B3 JUMP JUMPDEST PUSH1 0x40 MLOAD PUSH4 0x7461658B PUSH1 0xE1 SHL DUP2 MSTORE PUSH20 0x0 SWAP1 PUSH4 0xE8C2CB16 SWAP1 PUSH2 0x8C9 SWAP1 DUP5 SWAP1 PUSH1 0x4 ADD PUSH2 0x1B8B JUMP JUMPDEST PUSH1 0x20 PUSH1 0x40 MLOAD DUP1 DUP4 SUB DUP2 DUP7 DUP1 EXTCODESIZE ISZERO DUP1 ISZERO PUSH2 0x8E1 JUMPI PUSH1 0x0 DUP1 REVERT JUMPDEST POP GAS DELEGATECALL ISZERO DUP1 ISZERO PUSH2 0x8F5 JUMPI RETURNDATASIZE PUSH1 0x0 DUP1 RETURNDATACOPY RETURNDATASIZE PUSH1 0x0 REVERT JUMPDEST POP POP POP POP PUSH1 0x40 MLOAD RETURNDATASIZE PUSH1 0x1F NOT PUSH1 0x1F DUP3 ADD AND DUP3 ADD DUP1 PUSH1 0x40 MSTORE POP DUP2 ADD SWAP1 PUSH2 0x919 SWAP2 SWAP1 PUSH2 0x19B1 JUMP JUMPDEST POP POP JUMP JUMPDEST PUSH4 0x4E487B71 EQ ISZERO PUSH2 0x9B3 JUMPI PUSH2 0x930 PUSH2 0x1F21 JUMP JUMPDEST SWAP1 PUSH2 0x93B JUMPI POP PUSH2 0x9B3 JUMP JUMPDEST PUSH1 0x40 DUP1 MLOAD PUSH4 0x39DF137F PUSH1 0xE0 SHL DUP2 MSTORE PUSH1 0x0 PUSH1 0x4 DUP3 ADD MSTORE PUSH1 0x24 DUP2 ADD SWAP2 SWAP1 SWAP2 MSTORE PUSH1 0x21 PUSH1 0x44 DUP3 ADD MSTORE PUSH32 0x4661696C656420756E65787065637465642077697468206572726F7220636F64 PUSH1 0x64 DUP3 ADD MSTORE PUSH1 0x65 PUSH1 0xF8 SHL PUSH1 0x84 DUP3 ADD MSTORE PUSH20 0x0 SWAP1 PUSH4 0x39DF137F SWAP1 PUSH1 0xA4 ADD PUSH2 0x8C9 JUMP JUMPDEST RETURNDATASIZE DUP1 DUP1 ISZERO PUSH2 0x9DD JUMPI PUSH1 0x40 MLOAD SWAP2 POP PUSH1 0x1F NOT PUSH1 0x3F RETURNDATASIZE ADD AND DUP3 ADD PUSH1 0x40 MSTORE RETURNDATASIZE DUP3 MSTORE RETURNDATASIZE PUSH1 0x0 PUSH1 0x20 DUP5 ADD RETURNDATACOPY PUSH2 0x9E2 JUMP JUMPDEST PUSH1 0x60 SWAP2 POP JUMPDEST POP PUSH1 0x40 DUP1 MLOAD PUSH4 0x39DF137F PUSH1 0xE0 SHL DUP2 MSTORE PUSH1 0x0 PUSH1 0x4 DUP3 ADD MSTORE PUSH1 0x24 DUP2 ADD SWAP2 SWAP1 SWAP2 MSTORE PUSH1 0x11 PUSH1 0x44 DUP3 ADD MSTORE PUSH17 0x11985A5B1959081D5B995E1C1958DD1959 PUSH1 0x7A SHL PUSH1 0x64 DUP3 ADD MSTORE PUSH20 0x0 SWAP1 PUSH4 0x39DF137F SWAP1 PUSH1 0x84 ADD PUSH2 0x8C9 JUMP JUMPDEST PUSH1 0x40 MLOAD PUSH4 0x2B080AF1 PUSH1 0xE1 SHL DUP2 MSTORE PUSH20 0x0 SWAP1 PUSH4 0x561015E2 SWAP1 PUSH2 0x8C9 SWAP1 DUP5 SWAP1 PUSH1 0x3 SWAP1 PUSH1 0x4 ADD PUSH2 0x1D49 JUMP JUMPDEST PUSH1 0x5 SLOAD PUSH1 0x0 SWAP1 PUSH1 0x1 PUSH1 0x1 PUSH1 0xA0 SHL SUB AND CALLER EQ PUSH2 0xAAC JUMPI PUSH1 0x40 MLOAD PUSH3 0x461BCD PUSH1 0xE5 SHL DUP2 MSTORE PUSH1 0x4 ADD PUSH2 0x34E SWAP1 PUSH2 0x1D1F JUMP JUMPDEST PUSH1 0x2 DUP1 SLOAD SWAP1 PUSH1 0x0 PUSH2 0xABC DUP4 PUSH2 0x1E34 JUMP JUMPDEST SWAP1 SWAP2 SSTORE POP POP PUSH1 0x2 SLOAD PUSH1 0x0 SWAP1 DUP2 MSTORE PUSH1 0x20 DUP2 DUP2 MSTORE PUSH1 0x40 SWAP1 SWAP2 KECCAK256 DUP4 MLOAD PUSH2 0xAE1 SWAP3 DUP6 ADD SWAP1 PUSH2 0x1798 JUMP JUMPDEST POP POP PUSH1 0x2 SLOAD SWAP2 SWAP1 POP JUMP JUMPDEST PUSH1 0xD SLOAD PUSH1 0x40 DUP1 MLOAD PUSH4 0x3B9F708D PUSH1 0xE0 SHL DUP2 MSTORE PUSH1 0x1 PUSH1 0x1 PUSH1 0xA0 SHL SUB SWAP1 SWAP3 AND PUSH1 0x4 DUP4 ADD MSTORE PUSH1 0x24 DUP3 ADD MSTORE PUSH1 0x7 PUSH1 0x44 DUP3 ADD MSTORE PUSH7 0x44616E69656C73 PUSH1 0xC8 SHL PUSH1 0x64 DUP3 ADD MSTORE ADDRESS SWAP1 PUSH4 0x3B9F708D SWAP1 PUSH1 0x84 ADD PUSH1 0x20 PUSH1 0x40 MLOAD DUP1 DUP4 SUB DUP2 PUSH1 0x0 DUP8 DUP1 EXTCODESIZE ISZERO DUP1 ISZERO PUSH2 0xB4D JUMPI PUSH1 0x0 DUP1 REVERT JUMPDEST POP GAS CALL SWAP3 POP POP POP DUP1 ISZERO PUSH2 0xB7D JUMPI POP PUSH1 0x40 DUP1 MLOAD PUSH1 0x1F RETURNDATASIZE SWAP1 DUP2 ADD PUSH1 0x1F NOT AND DUP3 ADD SWAP1 SWAP3 MSTORE PUSH2 0xB7A SWAP2 DUP2 ADD SWAP1 PUSH2 0x1A29 JUMP JUMPDEST PUSH1 0x1 JUMPDEST PUSH2 0xB89 JUMPI PUSH2 0x872 PUSH2 0x1E7B JUMP JUMPDEST PUSH1 0x40 MLOAD PUSH4 0x2B080AF1 PUSH1 0xE1 SHL DUP2 MSTORE PUSH20 0x0 SWAP1 PUSH4 0x561015E2 SWAP1 PUSH2 0x8C9 SWAP1 DUP5 SWAP1 PUSH1 0x5 SWAP1 PUSH1 0x4 ADD PUSH2 0x1D49 JUMP JUMPDEST PUSH1 0x40 MLOAD PUSH4 0xCE88B145 PUSH1 0xE0 SHL DUP2 MSTORE PUSH1 0x0 PUSH1 0x4 DUP3 ADD MSTORE PUSH20 0x0 SWAP1 PUSH4 0xCE88B145 SWAP1 PUSH1 0x24 ADD PUSH1 0x20 PUSH1 0x40 MLOAD DUP1 DUP4 SUB DUP2 DUP7 DUP1 EXTCODESIZE ISZERO DUP1 ISZERO PUSH2 0xC0E JUMPI PUSH1 0x0 DUP1 REVERT JUMPDEST POP GAS DELEGATECALL ISZERO DUP1 ISZERO PUSH2 0xC22 JUMPI RETURNDATASIZE PUSH1 0x0 DUP1 RETURNDATACOPY RETURNDATASIZE PUSH1 0x0 REVERT JUMPDEST POP POP POP POP PUSH1 0x40 MLOAD RETURNDATASIZE PUSH1 0x1F NOT PUSH1 0x1F DUP3 ADD AND DUP3 ADD DUP1 PUSH1 0x40 MSTORE POP DUP2 ADD SWAP1 PUSH2 0xC46 SWAP2 SWAP1 PUSH2 0x1944 JUMP JUMPDEST PUSH1 0x9 DUP1 SLOAD PUSH1 0x1 PUSH1 0x1 PUSH1 0xA0 SHL SUB SWAP3 SWAP1 SWAP3 AND PUSH2 0x100 MUL PUSH2 0x100 PUSH1 0x1 PUSH1 0xA8 SHL SUB NOT SWAP1 SWAP3 AND SWAP2 SWAP1 SWAP2 OR SWAP1 SSTORE PUSH1 0x40 MLOAD PUSH4 0xCE88B145 PUSH1 0xE0 SHL DUP2 MSTORE PUSH1 0x1 PUSH1 0x4 DUP3 ADD MSTORE PUSH20 0x0 SWAP1 PUSH4 0xCE88B145 SWAP1 PUSH1 0x24 ADD PUSH1 0x20 PUSH1 0x40 MLOAD DUP1 DUP4 SUB DUP2 DUP7 DUP1 EXTCODESIZE ISZERO DUP1 ISZERO PUSH2 0xCB8 JUMPI PUSH1 0x0 DUP1 REVERT JUMPDEST POP GAS DELEGATECALL ISZERO DUP1 ISZERO PUSH2 0xCCC JUMPI RETURNDATASIZE PUSH1 0x0 DUP1 RETURNDATACOPY RETURNDATASIZE PUSH1 0x0 REVERT JUMPDEST POP POP POP POP PUSH1 0x40 MLOAD RETURNDATASIZE PUSH1 0x1F NOT PUSH1 0x1F DUP3 ADD AND DUP3 ADD DUP1 PUSH1 0x40 MSTORE POP DUP2 ADD SWAP1 PUSH2 0xCF0 SWAP2 SWAP1 PUSH2 0x1944 JUMP JUMPDEST PUSH1 0xA DUP1 SLOAD PUSH1 0x1 PUSH1 0x1 PUSH1 0xA0 SHL SUB NOT AND PUSH1 0x1 PUSH1 0x1 PUSH1 0xA0 SHL SUB SWAP3 SWAP1 SWAP3 AND SWAP2 SWAP1 SWAP2 OR SWAP1 SSTORE PUSH1 0x40 MLOAD PUSH4 0xCE88B145 PUSH1 0xE0 SHL DUP2 MSTORE PUSH1 0x2 PUSH1 0x4 DUP3 ADD MSTORE PUSH20 0x0 SWAP1 PUSH4 0xCE88B145 SWAP1 PUSH1 0x24 ADD PUSH1 0x20 PUSH1 0x40 MLOAD DUP1 DUP4 SUB DUP2 DUP7 DUP1 EXTCODESIZE ISZERO DUP1 ISZERO PUSH2 0xD5B JUMPI PUSH1 0x0 DUP1 REVERT JUMPDEST POP GAS DELEGATECALL ISZERO DUP1 ISZERO PUSH2 0xD6F JUMPI RETURNDATASIZE PUSH1 0x0 DUP1 RETURNDATACOPY RETURNDATASIZE PUSH1 0x0 REVERT JUMPDEST POP POP POP POP PUSH1 0x40 MLOAD RETURNDATASIZE PUSH1 0x1F NOT PUSH1 0x1F DUP3 ADD AND DUP3 ADD DUP1 PUSH1 0x40 MSTORE POP DUP2 ADD SWAP1 PUSH2 0xD93 SWAP2 SWAP1 PUSH2 0x1944 JUMP JUMPDEST PUSH1 0xB DUP1 SLOAD PUSH1 0x1 PUSH1 0x1 PUSH1 0xA0 SHL SUB NOT AND PUSH1 0x1 PUSH1 0x1 PUSH1 0xA0 SHL SUB SWAP3 SWAP1 SWAP3 AND SWAP2 SWAP1 SWAP2 OR SWAP1 SSTORE PUSH1 0x40 MLOAD PUSH4 0xCE88B145 PUSH1 0xE0 SHL DUP2 MSTORE PUSH1 0x3 PUSH1 0x4 DUP3 ADD MSTORE PUSH20 0x0 SWAP1 PUSH4 0xCE88B145 SWAP1 PUSH1 0x24 ADD PUSH1 0x20 PUSH1 0x40 MLOAD DUP1 DUP4 SUB DUP2 DUP7 DUP1 EXTCODESIZE ISZERO DUP1 ISZERO PUSH2 0xDFE JUMPI PUSH1 0x0 DUP1 REVERT JUMPDEST POP GAS DELEGATECALL ISZERO DUP1 ISZERO PUSH2 0xE12 JUMPI RETURNDATASIZE PUSH1 0x0 DUP1 RETURNDATACOPY RETURNDATASIZE PUSH1 0x0 REVERT JUMPDEST POP POP POP POP PUSH1 0x40 MLOAD RETURNDATASIZE PUSH1 0x1F NOT PUSH1 0x1F DUP3 ADD AND DUP3 ADD DUP1 PUSH1 0x40 MSTORE POP DUP2 ADD SWAP1 PUSH2 0xE36 SWAP2 SWAP1 PUSH2 0x1944 JUMP JUMPDEST PUSH1 0xC DUP1 SLOAD PUSH1 0x1 PUSH1 0x1 PUSH1 0xA0 SHL SUB NOT AND PUSH1 0x1 PUSH1 0x1 PUSH1 0xA0 SHL SUB SWAP3 SWAP1 SWAP3 AND SWAP2 SWAP1 SWAP2 OR SWAP1 SSTORE PUSH1 0x40 MLOAD PUSH4 0xCE88B145 PUSH1 0xE0 SHL DUP2 MSTORE PUSH1 0x4 DUP1 DUP3 ADD MSTORE PUSH20 0x0 SWAP1 PUSH4 0xCE88B145 SWAP1 PUSH1 0x24 ADD PUSH1 0x20 PUSH1 0x40 MLOAD DUP1 DUP4 SUB DUP2 DUP7 DUP1 EXTCODESIZE ISZERO DUP1 ISZERO PUSH2 0xEA0 JUMPI PUSH1 0x0 DUP1 REVERT JUMPDEST POP GAS DELEGATECALL ISZERO DUP1 ISZERO PUSH2 0xEB4 JUMPI RETURNDATASIZE PUSH1 0x0 DUP1 RETURNDATACOPY RETURNDATASIZE PUSH1 0x0 REVERT JUMPDEST POP POP POP POP PUSH1 0x40 MLOAD RETURNDATASIZE PUSH1 0x1F NOT PUSH1 0x1F DUP3 ADD AND DUP3 ADD DUP1 PUSH1 0x40 MSTORE POP DUP2 ADD SWAP1 PUSH2 0xED8 SWAP2 SWAP1 PUSH2 0x1944 JUMP JUMPDEST PUSH1 0xD DUP1 SLOAD PUSH1 0x1 PUSH1 0x1 PUSH1 0xA0 SHL SUB NOT AND PUSH1 0x1 PUSH1 0x1 PUSH1 0xA0 SHL SUB SWAP3 SWAP1 SWAP3 AND SWAP2 SWAP1 SWAP2 OR SWAP1 SSTORE JUMP JUMPDEST PUSH20 0x0 PUSH4 0xABCD7960 PUSH2 0xF50 PUSH1 0x9 PUSH1 0x1 SWAP1 SLOAD SWAP1 PUSH2 0x100 EXP SWAP1 DIV PUSH1 0x1 PUSH1 0x1 PUSH1 0xA0 SHL SUB AND PUSH1 0x40 MLOAD DUP1 PUSH1 0x40 ADD PUSH1 0x40 MSTORE DUP1 PUSH1 0x5 DUP2 MSTORE PUSH1 0x20 ADD PUSH5 0x416C696365 PUSH1 0xD8 SHL DUP2 MSTORE POP PUSH2 0x73B JUMP JUMPDEST PUSH1 0x40 MLOAD PUSH1 0x1 PUSH1 0x1 PUSH1 0xE0 SHL SUB NOT PUSH1 0xE0 DUP5 SWAP1 SHL AND DUP2 MSTORE PUSH1 0x4 DUP2 ADD SWAP2 SWAP1 SWAP2 MSTORE PUSH1 0x1 PUSH1 0x24 DUP3 ADD MSTORE PUSH1 0x60 PUSH1 0x44 DUP3 ADD MSTORE PUSH1 0x14 PUSH1 0x64 DUP3 ADD MSTORE PUSH20 0x53686F756C6420626520657175616C20746F2031 PUSH1 0x60 SHL PUSH1 0x84 DUP3 ADD MSTORE PUSH1 0xA4 ADD PUSH1 0x20 PUSH1 0x40 MLOAD DUP1 DUP4 SUB DUP2 DUP7 DUP1 EXTCODESIZE ISZERO DUP1 ISZERO PUSH2 0xFB9 JUMPI PUSH1 0x0 DUP1 REVERT JUMPDEST POP GAS DELEGATECALL ISZERO DUP1 ISZERO PUSH2 0xFCD JUMPI RETURNDATASIZE PUSH1 0x0 DUP1 RETURNDATACOPY RETURNDATASIZE PUSH1 0x0 REVERT JUMPDEST POP POP POP POP PUSH1 0x40 MLOAD RETURNDATASIZE PUSH1 0x1F NOT PUSH1 0x1F DUP3 ADD AND DUP3 ADD DUP1 PUSH1 0x40 MSTORE POP DUP2 ADD SWAP1 PUSH2 0xFF1 SWAP2 SWAP1 PUSH2 0x19B1 JUMP JUMPDEST POP PUSH1 0xA SLOAD PUSH1 0x40 DUP1 MLOAD DUP1 DUP3 ADD SWAP1 SWAP2 MSTORE PUSH1 0x3 DUP2 MSTORE PUSH3 0x2137B1 PUSH1 0xE9 SHL PUSH1 0x20 DUP3 ADD MSTORE PUSH20 0x0 SWAP2 PUSH4 0xABCD7960 SWAP2 PUSH2 0x103E SWAP2 PUSH1 0x1 PUSH1 0x1 PUSH1 0xA0 SHL SUB AND SWAP1 PUSH2 0x73B JUMP JUMPDEST PUSH1 0x40 MLOAD PUSH1 0x1 PUSH1 0x1 PUSH1 0xE0 SHL SUB NOT PUSH1 0xE0 DUP5 SWAP1 SHL AND DUP2 MSTORE PUSH1 0x4 DUP2 ADD SWAP2 SWAP1 SWAP2 MSTORE PUSH1 0x2 PUSH1 0x24 DUP3 ADD MSTORE PUSH1 0x60 PUSH1 0x44 DUP3 ADD MSTORE PUSH1 0x14 PUSH1 0x64 DUP3 ADD MSTORE PUSH20 0x29B437BAB6321031329032B8BAB0B6103A379019 PUSH1 0x61 SHL PUSH1 0x84 DUP3 ADD MSTORE PUSH1 0xA4 ADD PUSH1 0x20 PUSH1 0x40 MLOAD DUP1 DUP4 SUB DUP2 DUP7 DUP1 EXTCODESIZE ISZERO DUP1 ISZERO PUSH2 0x10A7 JUMPI PUSH1 0x0 DUP1 REVERT JUMPDEST POP GAS DELEGATECALL ISZERO DUP1 ISZERO PUSH2 0x10BB JUMPI RETURNDATASIZE PUSH1 0x0 DUP1 RETURNDATACOPY RETURNDATASIZE PUSH1 0x0 REVERT JUMPDEST POP POP POP POP PUSH1 0x40 MLOAD RETURNDATASIZE PUSH1 0x1F NOT PUSH1 0x1F DUP3 ADD AND DUP3 ADD DUP1 PUSH1 0x40 MSTORE POP DUP2 ADD SWAP1 PUSH2 0x10DF SWAP2 SWAP1 PUSH2 0x19B1 JUMP JUMPDEST POP PUSH1 0xB SLOAD PUSH1 0x40 DUP1 MLOAD DUP1 DUP3 ADD SWAP1 SWAP2 MSTORE PUSH1 0x7 DUP2 MSTORE PUSH7 0x436861726C6965 PUSH1 0xC8 SHL PUSH1 0x20 DUP3 ADD MSTORE PUSH20 0x0 SWAP2 PUSH4 0xABCD7960 SWAP2 PUSH2 0x1130 SWAP2 PUSH1 0x1 PUSH1 0x1 PUSH1 0xA0 SHL SUB AND SWAP1 PUSH2 0x73B JUMP JUMPDEST PUSH1 0x40 MLOAD PUSH1 0x1 PUSH1 0x1 PUSH1 0xE0 SHL SUB NOT PUSH1 0xE0 DUP5 SWAP1 SHL AND DUP2 MSTORE PUSH1 0x4 DUP2 ADD SWAP2 SWAP1 SWAP2 MSTORE PUSH1 0x3 PUSH1 0x24 DUP3 ADD MSTORE PUSH1 0x60 PUSH1 0x44 DUP3 ADD MSTORE PUSH1 0x14 PUSH1 0x64 DUP3 ADD MSTORE PUSH20 0x53686F756C6420626520657175616C20746F2033 PUSH1 0x60 SHL PUSH1 0x84 DUP3 ADD MSTORE PUSH1 0xA4 ADD PUSH1 0x20 PUSH1 0x40 MLOAD DUP1 DUP4 SUB DUP2 DUP7 DUP1 EXTCODESIZE ISZERO DUP1 ISZERO PUSH2 0x1199 JUMPI PUSH1 0x0 DUP1 REVERT JUMPDEST POP GAS DELEGATECALL ISZERO DUP1 ISZERO PUSH2 0x11AD JUMPI RETURNDATASIZE PUSH1 0x0 DUP1 RETURNDATACOPY RETURNDATASIZE PUSH1 0x0 REVERT JUMPDEST POP POP POP POP PUSH1 0x40 MLOAD RETURNDATASIZE PUSH1 0x1F NOT PUSH1 0x1F DUP3 ADD AND DUP3 ADD DUP1 PUSH1 0x40 MSTORE POP DUP2 ADD SWAP1 PUSH2 0x11D1 SWAP2 SWAP1 PUSH2 0x19B1 JUMP JUMPDEST POP PUSH1 0xC SLOAD PUSH1 0x40 DUP1 MLOAD DUP1 DUP3 ADD SWAP1 SWAP2 MSTORE PUSH1 0x3 DUP2 MSTORE PUSH3 0x457665 PUSH1 0xE8 SHL PUSH1 0x20 DUP3 ADD MSTORE PUSH20 0x0 SWAP2 PUSH4 0xABCD7960 SWAP2 PUSH2 0x121E SWAP2 PUSH1 0x1 PUSH1 0x1 PUSH1 0xA0 SHL SUB AND SWAP1 PUSH2 0x73B JUMP JUMPDEST PUSH1 0x4 PUSH1 0x40 MLOAD DUP4 PUSH4 0xFFFFFFFF AND PUSH1 0xE0 SHL DUP2 MSTORE PUSH1 0x4 ADD PUSH2 0x5C6 SWAP3 SWAP2 SWAP1 SWAP2 DUP3 MSTORE PUSH1 0x20 DUP3 ADD MSTORE PUSH1 0x60 PUSH1 0x40 DUP3 ADD DUP2 SWAP1 MSTORE PUSH1 0x14 SWAP1 DUP3 ADD MSTORE PUSH20 0x14DA1BDD5B1908189948195C5D585B081D1BC80D PUSH1 0x62 SHL PUSH1 0x80 DUP3 ADD MSTORE PUSH1 0xA0 ADD SWAP1 JUMP JUMPDEST PUSH1 0x5 SLOAD PUSH1 0x9 SLOAD PUSH1 0x40 MLOAD PUSH4 0x5FDD2EEB PUSH1 0xE1 SHL DUP2 MSTORE PUSH1 0x1 PUSH1 0x1 PUSH1 0xA0 SHL SUB SWAP3 DUP4 AND PUSH1 0x4 DUP3 ADD MSTORE PUSH2 0x100 SWAP1 SWAP2 DIV SWAP1 SWAP2 AND PUSH1 0x24 DUP3 ADD MSTORE PUSH1 0x60 PUSH1 0x44 DUP3 ADD MSTORE PUSH1 0x16 PUSH1 0x64 DUP3 ADD MSTORE PUSH22 0x4D616E616765722073686F756C64206265206163633 PUSH1 0x54 SHL PUSH1 0x84 DUP3 ADD MSTORE PUSH20 0x0 SWAP1 PUSH4 0xBFBA5DD6 SWAP1 PUSH1 0xA4 ADD PUSH2 0x5C6 JUMP JUMPDEST PUSH20 0x0 PUSH4 0x39DF137F PUSH2 0x6E4 PUSH1 0x1 PUSH2 0x324 JUMP JUMPDEST PUSH1 0x40 MLOAD PUSH4 0x9212C63 PUSH1 0xE1 SHL DUP2 MSTORE PUSH1 0x1 PUSH1 0x4 DUP3 ADD MSTORE ADDRESS SWAP1 PUSH4 0x124258C6 SWAP1 PUSH1 0x24 ADD PUSH1 0x20 PUSH1 0x40 MLOAD DUP1 DUP4 SUB DUP2 PUSH1 0x0 DUP8 DUP1 EXTCODESIZE ISZERO DUP1 ISZERO PUSH2 0x1351 JUMPI PUSH1 0x0 DUP1 REVERT JUMPDEST POP GAS CALL SWAP3 POP POP POP DUP1 ISZERO PUSH2 0x1381 JUMPI POP PUSH1 0x40 DUP1 MLOAD PUSH1 0x1F RETURNDATASIZE SWAP1 DUP2 ADD PUSH1 0x1F NOT AND DUP3 ADD SWAP1 SWAP3 MSTORE PUSH2 0x137E SWAP2 DUP2 ADD SWAP1 PUSH2 0x19B1 JUMP JUMPDEST PUSH1 0x1 JUMPDEST PUSH2 0x1492 JUMPI PUSH2 0x138D PUSH2 0x1E7B JUMP JUMPDEST DUP1 PUSH4 0x8C379A0 EQ ISZERO PUSH2 0x13E4 JUMPI POP PUSH2 0x13A2 PUSH2 0x1E97 JUMP JUMPDEST DUP1 PUSH2 0x13AD JUMPI POP PUSH2 0x13FE JUMP JUMPDEST PUSH1 0x40 MLOAD PUSH4 0x7461658B PUSH1 0xE1 SHL DUP2 MSTORE PUSH20 0x0 SWAP1 PUSH4 0xE8C2CB16 SWAP1 PUSH2 0x8C9 SWAP1 DUP5 SWAP1 PUSH1 0x4 ADD PUSH2 0x1BED JUMP JUMPDEST PUSH4 0x4E487B71 EQ ISZERO PUSH2 0x13FE JUMPI PUSH2 0x13F7 PUSH2 0x1F21 JUMP JUMPDEST SWAP1 PUSH2 0x93B JUMPI POP JUMPDEST RETURNDATASIZE DUP1 DUP1 ISZERO PUSH2 0x1428 JUMPI PUSH1 0x40 MLOAD SWAP2 POP PUSH1 0x1F NOT PUSH1 0x3F RETURNDATASIZE ADD AND DUP3 ADD PUSH1 0x40 MSTORE RETURNDATASIZE DUP3 MSTORE RETURNDATASIZE PUSH1 0x0 PUSH1 0x20 DUP5 ADD RETURNDATACOPY PUSH2 0x142D JUMP JUMPDEST PUSH1 0x60 SWAP2 POP JUMPDEST POP PUSH1 0x40 DUP1 MLOAD PUSH4 0x39DF137F PUSH1 0xE0 SHL DUP2 MSTORE PUSH1 0x0 PUSH1 0x4 DUP3 ADD MSTORE PUSH1 0x24 DUP2 ADD SWAP2 SWAP1 SWAP2 MSTORE PUSH1 0x13 PUSH1 0x44 DUP3 ADD MSTORE PUSH19 0x4661696C656420756E65787065637465646C79 PUSH1 0x68 SHL PUSH1 0x64 DUP3 ADD MSTORE PUSH20 0x0 SWAP1 PUSH4 0x39DF137F SWAP1 PUSH1 0x84 ADD PUSH2 0x8C9 JUMP JUMPDEST PUSH1 0x40 MLOAD PUSH4 0x767392B3 PUSH1 0xE0 SHL DUP2 MSTORE PUSH20 0x0 SWAP1 PUSH4 0x767392B3 SWAP1 PUSH2 0x8C9 SWAP1 DUP5 SWAP1 PUSH1 0x1 SWAP1 PUSH1 0x4 ADD PUSH2 0x1B07 JUMP JUMPDEST PUSH1 0x40 MLOAD PUSH4 0x7461658B PUSH1 0xE1 SHL DUP2 MSTORE PUSH20 0x0 SWAP1 PUSH4 0xE8C2CB16 SWAP1 PUSH2 0x5C6 SWAP1 PUSH1 0x6 SWAP1 PUSH1 0x4 ADD PUSH2 0x1C11 JUMP JUMPDEST PUSH20 0x0 PUSH4 0x767392B3 PUSH2 0x1528 PUSH1 0x1 PUSH2 0x324 JUMP JUMPDEST PUSH1 0x40 MLOAD PUSH1 0x1 PUSH1 0x1 PUSH1 0xE0 SHL SUB NOT PUSH1 0xE0 DUP5 SWAP1 SHL AND DUP2 MSTORE SWAP1 ISZERO ISZERO PUSH1 0x4 DUP3 ADD MSTORE PUSH1 0x0 PUSH1 0x24 DUP3 ADD MSTORE PUSH1 0x60 PUSH1 0x44 DUP3 ADD MSTORE PUSH1 0x1D PUSH1 0x64 DUP3 ADD MSTORE PUSH32 0x566F74696E6720726573756C742073686F756C642062652066616C7365000000 PUSH1 0x84 DUP3 ADD MSTORE PUSH1 0xA4 ADD PUSH2 0x5C6 JUMP JUMPDEST PUSH1 0x0 PUSH1 0x20 DUP2 SWAP1 MSTORE SWAP1 DUP2 MSTORE PUSH1 0x40 SWAP1 KECCAK256 DUP1 SLOAD PUSH2 0x15A0 SWAP1 PUSH2 0x1DCC JUMP JUMPDEST DUP1 PUSH1 0x1F ADD PUSH1 0x20 DUP1 SWAP2 DIV MUL PUSH1 0x20 ADD PUSH1 0x40 MLOAD SWAP1 DUP2 ADD PUSH1 0x40 MSTORE DUP1 SWAP3 SWAP2 SWAP1 DUP2 DUP2 MSTORE PUSH1 0x20 ADD DUP3 DUP1 SLOAD PUSH2 0x15CC SWAP1 PUSH2 0x1DCC JUMP JUMPDEST DUP1 ISZERO PUSH2 0x1619 JUMPI DUP1 PUSH1 0x1F LT PUSH2 0x15EE JUMPI PUSH2 0x100 DUP1 DUP4 SLOAD DIV MUL DUP4 MSTORE SWAP2 PUSH1 0x20 ADD SWAP2 PUSH2 0x1619 JUMP JUMPDEST DUP3 ADD SWAP2 SWAP1 PUSH1 0x0 MSTORE PUSH1 0x20 PUSH1 0x0 KECCAK256 SWAP1 JUMPDEST DUP2 SLOAD DUP2 MSTORE SWAP1 PUSH1 0x1 ADD SWAP1 PUSH1 0x20 ADD DUP1 DUP4 GT PUSH2 0x15FC JUMPI DUP3 SWAP1 SUB PUSH1 0x1F AND DUP3 ADD SWAP2 JUMPDEST POP POP POP POP POP DUP2 JUMP JUMPDEST PUSH1 0x9 SLOAD PUSH1 0x40 MLOAD PUSH4 0x767392B3 PUSH1 0xE0 SHL DUP2 MSTORE PUSH1 0xFF SWAP1 SWAP2 AND ISZERO ISZERO PUSH1 0x4 DUP3 ADD MSTORE PUSH1 0x0 PUSH1 0x24 DUP3 ADD MSTORE PUSH1 0x60 PUSH1 0x44 DUP3 ADD MSTORE PUSH1 0x17 PUSH1 0x64 DUP3 ADD MSTORE PUSH32 0x566F74696E672073686F756C6420626520636C6F736564000000000000000000 PUSH1 0x84 DUP3 ADD MSTORE PUSH20 0x0 SWAP1 PUSH4 0x767392B3 SWAP1 PUSH1 0xA4 ADD PUSH2 0x5C6 JUMP JUMPDEST PUSH1 0x6 DUP1 SLOAD PUSH2 0x15A0 SWAP1 PUSH2 0x1DCC JUMP JUMPDEST PUSH1 0x0 DUP1 PUSH1 0x1 JUMPDEST PUSH1 0x4 SLOAD DUP2 GT PUSH2 0x1760 JUMPI PUSH1 0x0 DUP2 DUP2 MSTORE PUSH1 0x7 PUSH1 0x20 SWAP1 DUP2 MSTORE PUSH1 0x40 DUP1 DUP4 KECCAK256 PUSH1 0x1 SWAP1 DUP2 ADD SLOAD DUP5 MSTORE PUSH1 0x8 SWAP1 SWAP3 MSTORE SWAP1 SWAP2 KECCAK256 SLOAD ISZERO PUSH2 0x170B JUMPI PUSH1 0x0 DUP3 DUP2 MSTORE PUSH1 0x7 PUSH1 0x20 SWAP1 DUP2 MSTORE PUSH1 0x40 DUP1 DUP4 KECCAK256 PUSH1 0x1 ADD SLOAD DUP4 MSTORE PUSH1 0x8 SWAP1 SWAP2 MSTORE SWAP1 KECCAK256 SLOAD PUSH2 0x1708 SWAP1 DUP3 PUSH2 0x1D92 JUMP JUMPDEST SWAP1 POP JUMPDEST PUSH1 0x0 DUP3 DUP2 MSTORE PUSH1 0x7 PUSH1 0x20 SWAP1 DUP2 MSTORE PUSH1 0x40 DUP1 DUP4 KECCAK256 PUSH1 0x1 ADD SLOAD DUP4 MSTORE PUSH1 0x8 SWAP1 SWAP2 MSTORE SWAP1 KECCAK256 DUP2 SWAP1 SSTORE DUP4 DUP2 GT ISZERO PUSH2 0x174D JUMPI PUSH1 0x0 DUP3 DUP2 MSTORE PUSH1 0x7 PUSH1 0x20 MSTORE PUSH1 0x40 SWAP1 KECCAK256 PUSH1 0x1 ADD SLOAD SWAP1 SWAP4 POP SWAP2 POP DUP3 JUMPDEST POP DUP1 PUSH2 0x1758 DUP2 PUSH2 0x1E34 JUMP JUMPDEST SWAP2 POP POP PUSH2 0x16AF JUMP JUMPDEST POP PUSH1 0x0 DUP2 DUP2 MSTORE PUSH1 0x20 DUP2 SWAP1 MSTORE PUSH1 0x40 SWAP1 KECCAK256 DUP1 SLOAD PUSH1 0x6 SWAP2 SWAP1 PUSH2 0x177E SWAP1 PUSH2 0x1DCC JUMP JUMPDEST PUSH2 0x1789 SWAP3 SWAP2 SWAP1 PUSH2 0x181C JUMP JUMPDEST POP POP PUSH1 0x9 DUP1 SLOAD PUSH1 0xFF NOT AND SWAP1 SSTORE POP JUMP JUMPDEST DUP3 DUP1 SLOAD PUSH2 0x17A4 SWAP1 PUSH2 0x1DCC JUMP JUMPDEST SWAP1 PUSH1 0x0 MSTORE PUSH1 0x20 PUSH1 0x0 KECCAK256 SWAP1 PUSH1 0x1F ADD PUSH1 0x20 SWAP1 DIV DUP2 ADD SWAP3 DUP3 PUSH2 0x17C6 JUMPI PUSH1 0x0 DUP6 SSTORE PUSH2 0x180C JUMP JUMPDEST DUP3 PUSH1 0x1F LT PUSH2 0x17DF JUMPI DUP1 MLOAD PUSH1 0xFF NOT AND DUP4 DUP1 ADD OR DUP6 SSTORE PUSH2 0x180C JUMP JUMPDEST DUP3 DUP1 ADD PUSH1 0x1 ADD DUP6 SSTORE DUP3 ISZERO PUSH2 0x180C JUMPI SWAP2 DUP3 ADD JUMPDEST DUP3 DUP2 GT ISZERO PUSH2 0x180C JUMPI DUP3 MLOAD DUP3 SSTORE SWAP2 PUSH1 0x20 ADD SWAP2 SWAP1 PUSH1 0x1 ADD SWAP1 PUSH2 0x17F1 JUMP JUMPDEST POP PUSH2 0x1818 SWAP3 SWAP2 POP PUSH2 0x1897 JUMP JUMPDEST POP SWAP1 JUMP JUMPDEST DUP3 DUP1 SLOAD PUSH2 0x1828 SWAP1 PUSH2 0x1DCC JUMP JUMPDEST SWAP1 PUSH1 0x0 MSTORE PUSH1 0x20 PUSH1 0x0 KECCAK256 SWAP1 PUSH1 0x1F ADD PUSH1 0x20 SWAP1 DIV DUP2 ADD SWAP3 DUP3 PUSH2 0x184A JUMPI PUSH1 0x0 DUP6 SSTORE PUSH2 0x180C JUMP JUMPDEST DUP3 PUSH1 0x1F LT PUSH2 0x185B JUMPI DUP1 SLOAD DUP6 SSTORE PUSH2 0x180C JUMP JUMPDEST DUP3 DUP1 ADD PUSH1 0x1 ADD DUP6 SSTORE DUP3 ISZERO PUSH2 0x180C JUMPI PUSH1 0x0 MSTORE PUSH1 0x20 PUSH1 0x0 KECCAK256 SWAP2 PUSH1 0x1F ADD PUSH1 0x20 SWAP1 DIV DUP3 ADD JUMPDEST DUP3 DUP2 GT ISZERO PUSH2 0x180C JUMPI DUP3 SLOAD DUP3 SSTORE SWAP2 PUSH1 0x1 ADD SWAP2 SWAP1 PUSH1 0x1 ADD SWAP1 PUSH2 0x187C JUMP JUMPDEST JUMPDEST DUP1 DUP3 GT ISZERO PUSH2 0x1818 JUMPI PUSH1 0x0 DUP2 SSTORE PUSH1 0x1 ADD PUSH2 0x1898 JUMP JUMPDEST PUSH1 0x0 DUP3 PUSH1 0x1F DUP4 ADD SLT PUSH2 0x18BD JUMPI PUSH1 0x0 DUP1 REVERT JUMPDEST DUP2 CALLDATALOAD PUSH8 0xFFFFFFFFFFFFFFFF DUP2 GT ISZERO PUSH2 0x18D7 JUMPI PUSH2 0x18D7 PUSH2 0x1E65 JUMP JUMPDEST PUSH1 0x40 MLOAD PUSH2 0x18EE PUSH1 0x1F DUP4 ADD PUSH1 0x1F NOT AND PUSH1 0x20 ADD DUP3 PUSH2 0x1E07 JUMP JUMPDEST DUP2 DUP2 MSTORE DUP5 PUSH1 0x20 DUP4 DUP7 ADD ADD GT ISZERO PUSH2 0x1903 JUMPI PUSH1 0x0 DUP1 REVERT JUMPDEST DUP2 PUSH1 0x20 DUP6 ADD PUSH1 0x20 DUP4 ADD CALLDATACOPY PUSH1 0x0 SWAP2 DUP2 ADD PUSH1 0x20 ADD SWAP2 SWAP1 SWAP2 MSTORE SWAP4 SWAP3 POP POP POP JUMP JUMPDEST PUSH1 0x0 PUSH1 0x20 DUP3 DUP5 SUB SLT ISZERO PUSH2 0x1932 JUMPI PUSH1 0x0 DUP1 REVERT JUMPDEST DUP2 CALLDATALOAD PUSH2 0x193D DUP2 PUSH2 0x1F41 JUMP JUMPDEST SWAP4 SWAP3 POP POP POP JUMP JUMPDEST PUSH1 0x0 PUSH1 0x20 DUP3 DUP5 SUB SLT ISZERO PUSH2 0x1956 JUMPI PUSH1 0x0 DUP1 REVERT JUMPDEST DUP2 MLOAD PUSH2 0x193D DUP2 PUSH2 0x1F41 JUMP JUMPDEST PUSH1 0x0 DUP1 PUSH1 0x40 DUP4 DUP6 SUB SLT ISZERO PUSH2 0x1974 JUMPI PUSH1 0x0 DUP1 REVERT JUMPDEST DUP3 CALLDATALOAD PUSH2 0x197F DUP2 PUSH2 0x1F41 JUMP JUMPDEST SWAP2 POP PUSH1 0x20 DUP4 ADD CALLDATALOAD PUSH8 0xFFFFFFFFFFFFFFFF DUP2 GT ISZERO PUSH2 0x199B JUMPI PUSH1 0x0 DUP1 REVERT JUMPDEST PUSH2 0x19A7 DUP6 DUP3 DUP7 ADD PUSH2 0x18AC JUMP JUMPDEST SWAP2 POP POP SWAP3 POP SWAP3 SWAP1 POP JUMP JUMPDEST PUSH1 0x0 PUSH1 0x20 DUP3 DUP5 SUB SLT ISZERO PUSH2 0x19C3 JUMPI PUSH1 0x0 DUP1 REVERT JUMPDEST DUP2 MLOAD DUP1 ISZERO ISZERO DUP2 EQ PUSH2 0x193D JUMPI PUSH1 0x0 DUP1 REVERT JUMPDEST PUSH1 0x0 PUSH1 0x20 DUP3 DUP5 SUB SLT ISZERO PUSH2 0x19E5 JUMPI PUSH1 0x0 DUP1 REVERT JUMPDEST DUP2 CALLDATALOAD PUSH8 0xFFFFFFFFFFFFFFFF DUP2 GT ISZERO PUSH2 0x19FC JUMPI PUSH1 0x0 DUP1 REVERT JUMPDEST PUSH2 0x1A08 DUP5 DUP3 DUP6 ADD PUSH2 0x18AC JUMP JUMPDEST SWAP5 SWAP4 POP POP POP POP JUMP JUMPDEST PUSH1 0x0 PUSH1 0x20 DUP3 DUP5 SUB SLT ISZERO PUSH2 0x1A22 JUMPI PUSH1 0x0 DUP1 REVERT JUMPDEST POP CALLDATALOAD SWAP2 SWAP1 POP JUMP JUMPDEST PUSH1 0x0 PUSH1 0x20 DUP3 DUP5 SUB SLT ISZERO PUSH2 0x1A3B JUMPI PUSH1 0x0 DUP1 REVERT JUMPDEST POP MLOAD SWAP2 SWAP1 POP JUMP JUMPDEST PUSH1 0x0 DUP2 MLOAD DUP1 DUP5 MSTORE PUSH1 0x0 JUMPDEST DUP2 DUP2 LT ISZERO PUSH2 0x1A68 JUMPI PUSH1 0x20 DUP2 DUP6 ADD DUP2 ADD MLOAD DUP7 DUP4 ADD DUP3 ADD MSTORE ADD PUSH2 0x1A4C JUMP JUMPDEST DUP2 DUP2 GT ISZERO PUSH2 0x1A7A JUMPI PUSH1 0x0 PUSH1 0x20 DUP4 DUP8 ADD ADD MSTORE JUMPDEST POP PUSH1 0x1F ADD PUSH1 0x1F NOT AND SWAP3 SWAP1 SWAP3 ADD PUSH1 0x20 ADD SWAP3 SWAP2 POP POP JUMP JUMPDEST PUSH1 0x23 DUP2 MSTORE PUSH32 0x43616E206F6E6C7920626520657865637574656420627920746865206D616E61 PUSH1 0x20 DUP3 ADD MSTORE PUSH3 0x33B2B9 PUSH1 0xE9 SHL PUSH1 0x40 DUP3 ADD MSTORE PUSH1 0x60 ADD SWAP1 JUMP JUMPDEST PUSH1 0x23 DUP2 MSTORE PUSH32 0x43616E20766F7465206F6E6C79207768696C6520766F74696E67206973206F70 PUSH1 0x20 DUP3 ADD MSTORE PUSH3 0x32B717 PUSH1 0xE9 SHL PUSH1 0x40 DUP3 ADD MSTORE PUSH1 0x60 ADD SWAP1 JUMP JUMPDEST DUP3 ISZERO ISZERO DUP2 MSTORE DUP2 ISZERO ISZERO PUSH1 0x20 DUP3 ADD MSTORE PUSH1 0x60 PUSH1 0x40 DUP3 ADD MSTORE PUSH1 0x0 PUSH2 0x1A08 PUSH1 0x60 DUP4 ADD PUSH1 0x1D DUP2 MSTORE PUSH32 0x4D6574686F6420657865637574696F6E20646964206E6F74206661696C000000 PUSH1 0x20 DUP3 ADD MSTORE PUSH1 0x40 ADD SWAP1 JUMP JUMPDEST PUSH1 0x20 DUP2 MSTORE PUSH1 0x0 PUSH2 0x193D PUSH1 0x20 DUP4 ADD DUP5 PUSH2 0x1A42 JUMP JUMPDEST PUSH1 0x40 DUP2 MSTORE PUSH1 0x0 PUSH2 0x1B7A PUSH1 0x40 DUP4 ADD DUP6 PUSH2 0x1A42 JUMP JUMPDEST SWAP1 POP DUP3 ISZERO ISZERO PUSH1 0x20 DUP4 ADD MSTORE SWAP4 SWAP3 POP POP POP JUMP JUMPDEST PUSH1 0x60 DUP2 MSTORE PUSH1 0x0 PUSH2 0x1B9E PUSH1 0x60 DUP4 ADD DUP5 PUSH2 0x1A42 JUMP JUMPDEST DUP3 DUP2 SUB PUSH1 0x20 DUP5 ADD MSTORE PUSH2 0x1BAF DUP2 PUSH2 0x1A8F JUMP JUMPDEST SWAP1 POP DUP3 DUP2 SUB PUSH1 0x40 DUP5 ADD MSTORE PUSH2 0x1A08 DUP2 PUSH1 0x1D DUP2 MSTORE PUSH32 0x4661696C6564207769746820756E657870656374656420726561736F6E000000 PUSH1 0x20 DUP3 ADD MSTORE PUSH1 0x40 ADD SWAP1 JUMP JUMPDEST PUSH1 0x60 DUP2 MSTORE PUSH1 0x0 PUSH2 0x1C00 PUSH1 0x60 DUP4 ADD DUP5 PUSH2 0x1A42 JUMP JUMPDEST DUP3 DUP2 SUB PUSH1 0x20 DUP5 ADD MSTORE PUSH2 0x1BAF DUP2 PUSH2 0x1ACB JUMP JUMPDEST PUSH1 0x60 DUP2 MSTORE PUSH1 0x0 DUP1 DUP4 SLOAD DUP2 PUSH1 0x1 DUP3 DUP2 SHR SWAP2 POP DUP1 DUP4 AND DUP1 PUSH2 0x1C31 JUMPI PUSH1 0x7F DUP4 AND SWAP3 POP JUMPDEST PUSH1 0x20 DUP1 DUP5 LT DUP3 EQ ISZERO PUSH2 0x1C51 JUMPI PUSH4 0x4E487B71 PUSH1 0xE0 SHL DUP7 MSTORE PUSH1 0x22 PUSH1 0x4 MSTORE PUSH1 0x24 DUP7 REVERT JUMPDEST PUSH1 0x60 DUP9 ADD DUP5 SWAP1 MSTORE PUSH1 0x80 DUP9 ADD DUP3 DUP1 ISZERO PUSH2 0x1C70 JUMPI PUSH1 0x1 DUP2 EQ PUSH2 0x1C81 JUMPI PUSH2 0x1CAC JUMP JUMPDEST PUSH1 0xFF NOT DUP8 AND DUP3 MSTORE DUP3 DUP3 ADD SWAP8 POP PUSH2 0x1CAC JUMP JUMPDEST PUSH1 0x0 DUP12 DUP2 MSTORE PUSH1 0x20 SWAP1 KECCAK256 PUSH1 0x0 JUMPDEST DUP8 DUP2 LT ISZERO PUSH2 0x1CA6 JUMPI DUP2 SLOAD DUP5 DUP3 ADD MSTORE SWAP1 DUP7 ADD SWAP1 DUP5 ADD PUSH2 0x1C8D JUMP JUMPDEST DUP4 ADD SWAP9 POP POP JUMPDEST POP POP DUP8 DUP7 SUB SWAP1 DUP9 ADD MSTORE POP POP PUSH1 0x8 DUP4 MSTORE POP POP PUSH8 0x556E692043616665 PUSH1 0xC0 SHL PUSH1 0x20 DUP3 ADD MSTORE PUSH1 0x40 DUP2 ADD SWAP1 POP DUP3 DUP2 SUB PUSH1 0x40 DUP5 ADD MSTORE PUSH2 0x1A08 DUP2 PUSH1 0x26 DUP2 MSTORE PUSH32 0x53656C65637465642072657374617572616E742073686F756C6420626520556E PUSH1 0x20 DUP3 ADD MSTORE PUSH6 0x692043616665 PUSH1 0xD0 SHL PUSH1 0x40 DUP3 ADD MSTORE PUSH1 0x60 ADD SWAP1 JUMP JUMPDEST PUSH1 0x20 DUP2 MSTORE PUSH1 0x0 PUSH2 0x1D31 PUSH1 0x20 DUP4 ADD PUSH2 0x1A8F JUMP JUMPDEST SWAP3 SWAP2 POP POP JUMP JUMPDEST PUSH1 0x20 DUP2 MSTORE PUSH1 0x0 PUSH2 0x1D31 PUSH1 0x20 DUP4 ADD PUSH2 0x1ACB JUMP JUMPDEST DUP3 DUP2 MSTORE DUP2 PUSH1 0x20 DUP3 ADD MSTORE PUSH1 0x60 PUSH1 0x40 DUP3 ADD MSTORE PUSH1 0x0 PUSH2 0x1A08 PUSH1 0x60 DUP4 ADD PUSH1 0x1D DUP2 MSTORE PUSH32 0x4D6574686F6420657865637574696F6E20646964206E6F74206661696C000000 PUSH1 0x20 DUP3 ADD MSTORE PUSH1 0x40 ADD SWAP1 JUMP JUMPDEST PUSH1 0x0 DUP3 NOT DUP3 GT ISZERO PUSH2 0x1DA5 JUMPI PUSH2 0x1DA5 PUSH2 0x1E4F JUMP JUMPDEST POP ADD SWAP1 JUMP JUMPDEST PUSH1 0x0 DUP3 PUSH2 0x1DC7 JUMPI PUSH4 0x4E487B71 PUSH1 0xE0 SHL PUSH1 0x0 MSTORE PUSH1 0x12 PUSH1 0x4 MSTORE PUSH1 0x24 PUSH1 0x0 REVERT JUMPDEST POP DIV SWAP1 JUMP JUMPDEST PUSH1 0x1 DUP2 DUP2 SHR SWAP1 DUP3 AND DUP1 PUSH2 0x1DE0 JUMPI PUSH1 0x7F DUP3 AND SWAP2 POP JUMPDEST PUSH1 0x20 DUP3 LT DUP2 EQ ISZERO PUSH2 0x1E01 JUMPI PUSH4 0x4E487B71 PUSH1 0xE0 SHL PUSH1 0x0 MSTORE PUSH1 0x22 PUSH1 0x4 MSTORE PUSH1 0x24 PUSH1 0x0 REVERT JUMPDEST POP SWAP2 SWAP1 POP JUMP JUMPDEST PUSH1 0x1F DUP3 ADD PUSH1 0x1F NOT AND DUP2 ADD PUSH8 0xFFFFFFFFFFFFFFFF DUP2 GT DUP3 DUP3 LT OR ISZERO PUSH2 0x1E2D JUMPI PUSH2 0x1E2D PUSH2 0x1E65 JUMP JUMPDEST PUSH1 0x40 MSTORE POP POP JUMP JUMPDEST PUSH1 0x0 PUSH1 0x0 NOT DUP3 EQ ISZERO PUSH2 0x1E48 JUMPI PUSH2 0x1E48 PUSH2 0x1E4F JUMP JUMPDEST POP PUSH1 0x1 ADD SWAP1 JUMP JUMPDEST PUSH4 0x4E487B71 PUSH1 0xE0 SHL PUSH1 0x0 MSTORE PUSH1 0x11 PUSH1 0x4 MSTORE PUSH1 0x24 PUSH1 0x0 REVERT JUMPDEST PUSH4 0x4E487B71 PUSH1 0xE0 SHL PUSH1 0x0 MSTORE PUSH1 0x41 PUSH1 0x4 MSTORE PUSH1 0x24 PUSH1 0x0 REVERT JUMPDEST PUSH1 0x0 PUSH1 0x3 RETURNDATASIZE GT ISZERO PUSH2 0x1E94 JUMPI PUSH1 0x4 PUSH1 0x0 DUP1 RETURNDATACOPY POP PUSH1 0x0 MLOAD PUSH1 0xE0 SHR JUMPDEST SWAP1 JUMP JUMPDEST PUSH1 0x0 PUSH1 0x44 RETURNDATASIZE LT ISZERO PUSH2 0x1EA5 JUMPI SWAP1 JUMP JUMPDEST PUSH1 0x40 MLOAD PUSH1 0x3 NOT RETURNDATASIZE DUP2 ADD PUSH1 0x4 DUP4 RETURNDATACOPY DUP2 MLOAD RETURNDATASIZE PUSH8 0xFFFFFFFFFFFFFFFF DUP2 PUSH1 0x24 DUP5 ADD GT DUP2 DUP5 GT OR ISZERO PUSH2 0x1ED5 JUMPI POP POP POP POP POP SWAP1 JUMP JUMPDEST DUP3 DUP6 ADD SWAP2 POP DUP2 MLOAD DUP2 DUP2 GT ISZERO PUSH2 0x1EED JUMPI POP POP POP POP POP POP SWAP1 JUMP JUMPDEST DUP5 RETURNDATASIZE DUP8 ADD ADD PUSH1 0x20 DUP3 DUP6 ADD ADD GT ISZERO PUSH2 0x1F07 JUMPI POP POP POP POP POP POP SWAP1 JUMP JUMPDEST PUSH2 0x1F16 PUSH1 0x20 DUP3 DUP7 ADD ADD DUP8 PUSH2 0x1E07 JUMP JUMPDEST POP SWAP1 SWAP6 SWAP5 POP POP POP POP POP JUMP JUMPDEST PUSH1 0x0 DUP1 PUSH1 0x23 RETURNDATASIZE GT ISZERO PUSH2 0x1F3D JUMPI PUSH1 0x20 PUSH1 0x4 PUSH1 0x0 RETURNDATACOPY POP POP PUSH1 0x0 MLOAD PUSH1 0x1 SWAP1 JUMPDEST SWAP1 SWAP2 JUMP JUMPDEST PUSH1 0x1 PUSH1 0x1 PUSH1 0xA0 SHL SUB DUP2 AND DUP2 EQ PUSH2 0x616 JUMPI PUSH1 0x0 DUP1 REVERT INVALID LOG2 PUSH5 0x6970667358 0x22 SLT KECCAK256 0xE9 0xCE 0x23 0x25 0xBA OR SWAP1 PUSH14 0xD8A1323612930C2D4761A12AEEDB SWAP4 SWAP16 EXP 0xD3 DUP13 PUSH5 0x14342B7B64 PUSH20 0x6F6C634300080500330000000000000000000000 "
		},
		"gasEstimates": {
			"creation": {
				"codeDepositCost": "1615200",
				"executionCost": "infinite",
				"totalCost": "infinite"
			},
			"external": {
				"addFriend(address,string)": "infinite",
				"addRestaurant(string)": "infinite",
				"beforeAll()": "infinite",
				"doVote(uint256)": "infinite",
				"friends(address)": "infinite",
				"lunchVenueTest()": "infinite",
				"manager()": "2360",
				"managerTest()": "infinite",
				"numFriends()": "2429",
				"numRestaurants()": "2361",
				"numVotes()": "2428",
				"restaurants(uint256)": "infinite",
				"setFriend()": "infinite",
				"setFriendFailure()": "infinite",
				"setRestaurant()": "infinite",
				"setRestaurantFailure()": "infinite",
				"vote()": "infinite",
				"vote2()": "infinite",
				"vote3()": "infinite",
				"voteAfterClosedFailure()": "infinite",
				"voteFailure()": "infinite",
				"voteOpen()": "2322",
				"voteOpenTest()": "infinite",
				"votedRestaurant()": "infinite",
				"votes(uint256)": "4692"
			}
		},
		"methodIdentifiers": {
			"addFriend(address,string)": "3b9f708d",
			"addRestaurant(string)": "6d77bd3e",
			"beforeAll()": "7fea0d4b",
			"doVote(uint256)": "124258c6",
			"friends(address)": "1ddabf7a",
			"lunchVenueTest()": "a8267245",
			"manager()": "481c6a75",
			"managerTest()": "947aea86",
			"numFriends()": "47098f36",
			"numRestaurants()": "b798867f",
			"numVotes()": "a3bef4d7",
			"restaurants(uint256)": "ad5461d8",
			"setFriend()": "848b4427",
			"setFriendFailure()": "77440e06",
			"setRestaurant()": "12a4591a",
			"setRestaurantFailure()": "512a6fbb",
			"vote()": "632a9a52",
			"vote2()": "a24a4e88",
			"vote3()": "2955fea3",
			"voteAfterClosedFailure()": "a5627cf0",
			"voteFailure()": "a9a4070c",
			"voteOpen()": "788d3851",
			"voteOpenTest()": "bbb97ded",
			"votedRestaurant()": "c1c16efc",
			"votes(uint256)": "5df81330"
		}
	},
	"abi": [
		{
			"inputs": [
				{
					"internalType": "address",
					"name": "friendAddress",
					"type": "address"
				},
				{
					"internalType": "string",
					"name": "name",
					"type": "string"
				}
			],
			"name": "addFriend",
			"outputs": [
				{
					"internalType": "uint256",
					"name": "",
					"type": "uint256"
				}
			],
			"stateMutability": "nonpayable",
			"type": "function"
		},
		{
			"inputs": [
				{
					"internalType": "string",
					"name": "name",
					"type": "string"
				}
			],
			"name": "addRestaurant",
			"outputs": [
				{
					"internalType": "uint256",
					"name": "",
					"type": "uint256"
				}
			],
			"stateMutability": "nonpayable",
			"type": "function"
		},
		{
			"inputs": [],
			"name": "beforeAll",
			"outputs": [],
			"stateMutability": "nonpayable",
			"type": "function"
		},
		{
			"inputs": [
				{
					"internalType": "uint256",
					"name": "restaurant",
					"type": "uint256"
				}
			],
			"name": "doVote",
			"outputs": [
				{
					"internalType": "bool",
					"name": "validVote",
					"type": "bool"
				}
			],
			"stateMutability": "nonpayable",
			"type": "function"
		},
		{
			"inputs": [
				{
					"internalType": "address",
					"name": "",
					"type": "address"
				}
			],
			"name": "friends",
			"outputs": [
				{
					"internalType": "string",
					"name": "name",
					"type": "string"
				},
				{
					"internalType": "bool",
					"name": "voted",
					"type": "bool"
				}
			],
			"stateMutability": "view",
			"type": "function"
		},
		{
			"inputs": [],
			"name": "lunchVenueTest",
			"outputs": [],
			"stateMutability": "nonpayable",
			"type": "function"
		},
		{
			"inputs": [],
			"name": "manager",
			"outputs": [
				{
					"internalType": "address",
					"name": "",
					"type": "address"
				}
			],
			"stateMutability": "view",
			"type": "function"
		},
		{
			"inputs": [],
			"name": "managerTest",
			"outputs": [],
			"stateMutability": "nonpayable",
			"type": "function"
		},
		{
			"inputs": [],
			"name": "numFriends",
			"outputs": [
				{
					"internalType": "uint256",
					"name": "",
					"type": "uint256"
				}
			],
			"stateMutability": "view",
			"type": "function"
		},
		{
			"inputs": [],
			"name": "numRestaurants",
			"outputs": [
				{
					"internalType": "uint256",
					"name": "",
					"type": "uint256"
				}
			],
			"stateMutability": "view",
			"type": "function"
		},
		{
			"inputs": [],
			"name": "numVotes",
			"outputs": [
				{
					"internalType": "uint256",
					"name": "",
					"type": "uint256"
				}
			],
			"stateMutability": "view",
			"type": "function"
		},
		{
			"inputs": [
				{
					"internalType": "uint256",
					"name": "",
					"type": "uint256"
				}
			],
			"name": "restaurants",
			"outputs": [
				{
					"internalType": "string",
					"name": "",
					"type": "string"
				}
			],
			"stateMutability": "view",
			"type": "function"
		},
		{
			"inputs": [],
			"name": "setFriend",
			"outputs": [],
			"stateMutability": "nonpayable",
			"type": "function"
		},
		{
			"inputs": [],
			"name": "setFriendFailure",
			"outputs": [],
			"stateMutability": "nonpayable",
			"type": "function"
		},
		{
			"inputs": [],
			"name": "setRestaurant",
			"outputs": [],
			"stateMutability": "nonpayable",
			"type": "function"
		},
		{
			"inputs": [],
			"name": "setRestaurantFailure",
			"outputs": [],
			"stateMutability": "nonpayable",
			"type": "function"
		},
		{
			"inputs": [],
			"name": "vote",
			"outputs": [],
			"stateMutability": "nonpayable",
			"type": "function"
		},
		{
			"inputs": [],
			"name": "vote2",
			"outputs": [],
			"stateMutability": "nonpayable",
			"type": "function"
		},
		{
			"inputs": [],
			"name": "vote3",
			"outputs": [],
			"stateMutability": "nonpayable",
			"type": "function"
		},
		{
			"inputs": [],
			"name": "voteAfterClosedFailure",
			"outputs": [],
			"stateMutability": "nonpayable",
			"type": "function"
		},
		{
			"inputs": [],
			"name": "voteFailure",
			"outputs": [],
			"stateMutability": "nonpayable",
			"type": "function"
		},
		{
			"inputs": [],
			"name": "voteOpen",
			"outputs": [
				{
					"internalType": "bool",
					"name": "",
					"type": "bool"
				}
			],
			"stateMutability": "view",
			"type": "function"
		},
		{
			"inputs": [],
			"name": "voteOpenTest",
			"outputs": [],
			"stateMutability": "nonpayable",
			"type": "function"
		},
		{
			"inputs": [],
			"name": "votedRestaurant",
			"outputs": [
				{
					"internalType": "string",
					"name": "",
					"type": "string"
				}
			],
			"stateMutability": "view",
			"type": "function"
		},
		{
			"inputs": [
				{
					"internalType": "uint256",
					"name": "",
					"type": "uint256"
				}
			],
			"name": "votes",
			"outputs": [
				{
					"internalType": "address",
					"name": "voterAddress",
					"type": "address"
				},
				{
					"internalType": "uint256",
					"name": "restaurant",
					"type": "uint256"
				}
			],
			"stateMutability": "view",
			"type": "function"
		}
	]
}