{
	"data": {
		"bytecode": {
			"linkReferences": {
				"remix_accounts.sol": {
					"TestsAccounts": [
						{
							"length": 20,
							"start": 9870
						},
						{
							"length": 20,
							"start": 10055
						},
						{
							"length": 20,
							"start": 10240
						},
						{
							"length": 20,
							"start": 10425
						},
						{
							"length": 20,
							"start": 10610
						}
					]
				},
				"remix_tests.sol": {
					"Assert": [
						{
							"length": 20,
							"start": 2860
						},
						{
							"length": 20,
							"start": 2989
						},
						{
							"length": 20,
							"start": 3117
						},
						{
							"length": 20,
							"start": 4254
						},
						{
							"length": 20,
							"start": 4439
						},
						{
							"length": 20,
							"start": 4811
						},
						{
							"length": 20,
							"start": 5194
						},
						{
							"length": 20,
							"start": 5459
						},
						{
							"length": 20,
							"start": 5583
						},
						{
							"length": 20,
							"start": 7458
						},
						{
							"length": 20,
							"start": 7614
						},
						{
							"length": 20,
							"start": 7792
						},
						{
							"length": 20,
							"start": 7921
						},
						{
							"length": 20,
							"start": 8117
						},
						{
							"length": 20,
							"start": 8805
						},
						{
							"length": 20,
							"start": 8961
						},
						{
							"length": 20,
							"start": 9139
						},
						{
							"length": 20,
							"start": 9268
						},
						{
							"length": 20,
							"start": 10797
						},
						{
							"length": 20,
							"start": 11017
						},
						{
							"length": 20,
							"start": 11237
						},
						{
							"length": 20,
							"start": 11457
						},
						{
							"length": 20,
							"start": 11697
						},
						{
							"length": 20,
							"start": 11890
						},
						{
							"length": 20,
							"start": 12189
						},
						{
							"length": 20,
							"start": 12345
						},
						{
							"length": 20,
							"start": 12523
						},
						{
							"length": 20,
							"start": 12652
						},
						{
							"length": 20,
							"start": 12780
						},
						{
							"length": 20,
							"start": 13065
						},
						{
							"length": 20,
							"start": 13194
						},
						{
							"length": 20,
							"start": 13322
						},
						{
							"length": 20,
							"start": 13616
						},
						{
							"length": 20,
							"start": 14428
						},
						{
							"length": 20,
							"start": 14557
						},
						{
							"length": 20,
							"start": 14685
						},
						{
							"length": 20,
							"start": 14821
						},
						{
							"length": 20,
							"start": 14996
						},
						{
							"length": 20,
							"start": 15331
						},
						{
							"length": 20,
							"start": 15460
						},
						{
							"length": 20,
							"start": 15588
						}
					]
				}
			},
			"object": "6080604052600060025560006003556000600455604051806020016040528060008152506006908162000033919062000367565b506000600960006101000a81548160ff0219169083151502179055506000600960016101000a81548160ff021916908360028111156200007857620000776200044e565b5b02179055506000600b60006101000a81548160ff021916908315150217905550348015620000a557600080fd5b5033600560006101000a81548173ffffffffffffffffffffffffffffffffffffffff021916908373ffffffffffffffffffffffffffffffffffffffff1602179055506200047d565b600081519050919050565b7f4e487b7100000000000000000000000000000000000000000000000000000000600052604160045260246000fd5b7f4e487b7100000000000000000000000000000000000000000000000000000000600052602260045260246000fd5b600060028204905060018216806200016f57607f821691505b60208210810362000185576200018462000127565b5b50919050565b60008190508160005260206000209050919050565b60006020601f8301049050919050565b600082821b905092915050565b600060088302620001ef7fffffffffffffffffffffffffffffffffffffffffffffffffffffffffffffffff82620001b0565b620001fb8683620001b0565b95508019841693508086168417925050509392505050565b6000819050919050565b6000819050919050565b600062000248620002426200023c8462000213565b6200021d565b62000213565b9050919050565b6000819050919050565b620002648362000227565b6200027c62000273826200024f565b848454620001bd565b825550505050565b600090565b6200029362000284565b620002a081848462000259565b505050565b5b81811015620002c857620002bc60008262000289565b600181019050620002a6565b5050565b601f8211156200031757620002e1816200018b565b620002ec84620001a0565b81016020851015620002fc578190505b620003146200030b85620001a0565b830182620002a5565b50505b505050565b600082821c905092915050565b60006200033c600019846008026200031c565b1980831691505092915050565b600062000357838362000329565b9150826002028217905092915050565b6200037282620000ed565b67ffffffffffffffff8111156200038e576200038d620000f8565b5b6200039a825462000156565b620003a7828285620002cc565b600060209050601f831160018114620003df5760008415620003ca578287015190505b620003d6858262000349565b86555062000446565b601f198416620003ef866200018b565b60005b828110156200041957848901518255600182019150602085019450602081019050620003f2565b8683101562000439578489015162000435601f89168262000329565b8355505b6001600288020188555050505b505050505050565b7f4e487b7100000000000000000000000000000000000000000000000000000000600052602160045260246000fd5b61642a806200048d6000396000f3fe608060405234801561001057600080fd5b506004361061023d5760003560e01c8063788d38511161013b578063ad5461d8116100b8578063c3403ddf1161007c578063c3403ddf146105b4578063c9648f6e146105be578063cb43284e146105c8578063d012f7ea146105d2578063fc0e74d1146105dc5761023d565b8063ad5461d814610520578063b798867f14610550578063bbb97ded1461056e578063bf86d69014610578578063c1c16efc146105965761023d565b8063a24a4e88116100ff578063a24a4e88146104da578063a3bef4d7146104e4578063a5627cf014610502578063a82672451461050c578063a9a4070c146105165761023d565b8063788d38511461046e5780637fea0d4b1461048c578063848b4427146104965780638f43f134146104a0578063947aea86146104d05761023d565b80633b9f708d116101c95780635df813301161018d5780635df81330146103c9578063632a9a52146103fa5780636d77bd3e1461040457806377440e0614610434578063781a38a31461043e5761023d565b80633b9f708d146103375780633d2f5bda1461036757806347098f3614610383578063481c6a75146103a1578063512a6fbb146103bf5761023d565b806312a4591a1161021057806312a4591a146102b85780631ddabf7a146102c25780632955fea3146102f35780632b5a9467146102fd5780632d8c6f42146103075761023d565b8063055ad42e14610242578063083c6323146102605780630b0f5dd71461027e578063124258c614610288575b600080fd5b61024a6105e6565b6040516102579190613bc5565b60405180910390f35b6102686105f9565b6040516102759190613bf9565b60405180910390f35b6102866105ff565b005b6102a2600480360381019061029d9190613c54565b61081c565b6040516102af9190613c9c565b60405180910390f35b6102c0610c0f565b005b6102dc60048036038101906102d79190613d15565b610d83565b6040516102ea929190613dd2565b60405180910390f35b6102fb610e3c565b005b610305610ec0565b005b610321600480360381019061031c9190613f37565b6111c2565b60405161032e9190613bf9565b60405180910390f35b610351600480360381019061034c9190613f37565b611420565b60405161035e9190613bf9565b60405180910390f35b610381600480360381019061037c9190613c54565b61158c565b005b61038b6117c9565b6040516103989190613bf9565b60405180910390f35b6103a96117cf565b6040516103b69190613fa2565b60405180910390f35b6103c76117f5565b005b6103e360048036038101906103de9190613c54565b611ae2565b6040516103f1929190613fbd565b60405180910390f35b610402611b26565b005b61041e60048036038101906104199190613fe6565b611baa565b60405161042b9190613bf9565b60405180910390f35b61043c611d14565b005b61045860048036038101906104539190613fe6565b612025565b6040516104659190613bf9565b60405180910390f35b6104766121ec565b6040516104839190613c9c565b60405180910390f35b6104946121ff565b005b61049e61259e565b005b6104ba60048036038101906104b59190613c54565b612910565b6040516104c79190613c9c565b60405180910390f35b6104d8612922565b005b6104e26129e3565b005b6104ec612a67565b6040516104f99190613bf9565b60405180910390f35b61050a612a6d565b005b610514612d5d565b005b61051e612dd9565b005b61053a60048036038101906105359190613c54565b612ffb565b604051610547919061402f565b60405180910390f35b61055861309b565b6040516105659190613bf9565b60405180910390f35b6105766130a1565b005b61058061312e565b60405161058d9190613c9c565b60405180910390f35b61059e613141565b6040516105ab919061402f565b60405180910390f35b6105bc6131cf565b005b6105c661332f565b005b6105d061354c565b005b6105da613692565b005b6105e46138d3565b005b600960019054906101000a900460ff1681565b600a5481565b3073ffffffffffffffffffffffffffffffffffffffff1663781a38a36040518163ffffffff1660e01b81526004016106369061409d565b6020604051808303816000875af192505050801561067257506040513d601f19601f8201168201806040525081019061066f91906140d2565b60015b61079e5761067e61410c565b806308c379a00361071c575061069261412e565b8061069d575061071e565b73__$acbfb1c35000d78352310b16a054a6b106$__63e8c2cb16826040518263ffffffff1660e01b81526004016106d491906142ec565b602060405180830381865af41580156106f1573d6000803e3d6000fd5b505050506040513d601f19601f820116820180604052508101906107159190614360565b5050610799565b505b73__$acbfb1c35000d78352310b16a054a6b106$__6339df137f60006040518263ffffffff1660e01b815260040161075691906143e8565b602060405180830381865af4158015610773573d6000803e3d6000fd5b505050506040513d601f19601f820116820180604052508101906107979190614360565b505b61081a565b73__$acbfb1c35000d78352310b16a054a6b106$__6339df137f60006040518263ffffffff1660e01b81526004016107d69190614488565b602060405180830381865af41580156107f3573d6000803e3d6000fd5b505050506040513d601f19601f820116820180604052508101906108179190614360565b50505b565b6000600b60009054906101000a900460ff161561086e576040517f08c379a000000000000000000000000000000000000000000000000000000000815260040161086590614502565b60405180910390fd5b600180600281111561088357610882613b4e565b5b600960019054906101000a900460ff1660028111156108a5576108a4613b4e565b5b146108e5576040517f08c379a00000000000000000000000000000000000000000000000000000000081526004016108dc90614545565b60405180910390fd5b60011515600960009054906101000a900460ff1615151461093b576040517f08c379a0000000000000000000000000000000000000000000000000000000008152600401610932906145d7565b60405180910390fd5b6000806000858152602001908152602001600020805461095a90614626565b90500361099c576040517f08c379a0000000000000000000000000000000000000000000000000000000008152600401610993906146a3565b60405180910390fd5b600a544311156109b7576109ae6139c6565b60009150610c09565b6000600160003373ffffffffffffffffffffffffffffffffffffffff1673ffffffffffffffffffffffffffffffffffffffff1681526020019081526020016000206000018054610a0690614626565b905003610a48576040517f08c379a0000000000000000000000000000000000000000000000000000000008152600401610a3f9061470f565b60405180910390fd5b600160003373ffffffffffffffffffffffffffffffffffffffff1673ffffffffffffffffffffffffffffffffffffffff16815260200190815260200160002060010160009054906101000a900460ff1615610ad8576040517f08c379a0000000000000000000000000000000000000000000000000000000008152600401610acf9061477b565b60405180910390fd5b6001915060018060003373ffffffffffffffffffffffffffffffffffffffff1673ffffffffffffffffffffffffffffffffffffffff16815260200190815260200160002060010160006101000a81548160ff02191690831515021790555060405180604001604052803373ffffffffffffffffffffffffffffffffffffffff1681526020018481525060076000600460008154610b74906147ca565b919050819055815260200190815260200160002060008201518160000160006101000a81548173ffffffffffffffffffffffffffffffffffffffff021916908373ffffffffffffffffffffffffffffffffffffffff1602179055506020820151816001015590505060016002600354610bed9190614841565b610bf79190614872565b60045410610c0857610c076139c6565b5b5b50919050565b73__$acbfb1c35000d78352310b16a054a6b106$__63abcd7960610c676040518060400160405280600e81526020017f436f757274796172642043616665000000000000000000000000000000000000815250611baa565b60016040518363ffffffff1660e01b8152600401610c86929190614946565b602060405180830381865af4158015610ca3573d6000803e3d6000fd5b505050506040513d601f19601f82011682018060405250810190610cc79190614360565b5073__$acbfb1c35000d78352310b16a054a6b106$__63abcd7960610d206040518060400160405280600881526020017f556e692043616665000000000000000000000000000000000000000000000000815250611baa565b60026040518363ffffffff1660e01b8152600401610d3f929190614a09565b602060405180830381865af4158015610d5c573d6000803e3d6000fd5b505050506040513d601f19601f82011682018060405250810190610d809190614360565b50565b6001602052806000526040600020600091509050806000018054610da690614626565b80601f0160208091040260200160405190810160405280929190818152602001828054610dd290614626565b8015610e1f5780601f10610df457610100808354040283529160200191610e1f565b820191906000526020600020905b815481529060010190602001808311610e0257829003601f168201915b5050505050908060010160009054906101000a900460ff16905082565b73__$acbfb1c35000d78352310b16a054a6b106$__6339df137f610e60600261081c565b6040518263ffffffff1660e01b8152600401610e7c9190614a91565b602060405180830381865af4158015610e99573d6000803e3d6000fd5b505050506040513d601f19601f82011682018060405250810190610ebd9190614360565b50565b6000600160003373ffffffffffffffffffffffffffffffffffffffff1673ffffffffffffffffffffffffffffffffffffffff168152602001908152602001600020604051806040016040529081600082018054610f1c90614626565b80601f0160208091040260200160405190810160405280929190818152602001828054610f4890614626565b8015610f955780601f10610f6a57610100808354040283529160200191610f95565b820191906000526020600020905b815481529060010190602001808311610f7857829003601f168201915b505050505081526020016001820160009054906101000a900460ff161515151581525050905073__$acbfb1c35000d78352310b16a054a6b106$__63767392b3826020015160016040518363ffffffff1660e01b8152600401610ff9929190614b0b565b602060405180830381865af4158015611016573d6000803e3d6000fd5b505050506040513d601f19601f8201168201806040525081019061103a9190614360565b506000600454905060003073ffffffffffffffffffffffffffffffffffffffff16638f43f13460026040518263ffffffff1660e01b815260040161107e9190614b56565b6020604051808303816000875af19250505080156110ba57506040513d601f19601f820116820180604052508101906110b79190614360565b60015b156110c457809150505b73__$acbfb1c35000d78352310b16a054a6b106$__63767392b38260006040518363ffffffff1660e01b81526004016110fe929190614be3565b602060405180830381865af415801561111b573d6000803e3d6000fd5b505050506040513d601f19601f8201168201806040525081019061113f9190614360565b5073__$acbfb1c35000d78352310b16a054a6b106$__63abcd7960600454846040518363ffffffff1660e01b815260040161117b929190614c6b565b602060405180830381865af4158015611198573d6000803e3d6000fd5b505050506040513d601f19601f820116820180604052508101906111bc9190614360565b50505050565b6000600b60009054906101000a900460ff1615611214576040517f08c379a000000000000000000000000000000000000000000000000000000000815260040161120b90614502565b60405180910390fd5b600080600281111561122957611228613b4e565b5b600960019054906101000a900460ff16600281111561124b5761124a613b4e565b5b1461128b576040517f08c379a000000000000000000000000000000000000000000000000000000000815260040161128290614545565b60405180910390fd5b6000600160008673ffffffffffffffffffffffffffffffffffffffff1673ffffffffffffffffffffffffffffffffffffffff16815260200190815260200160002060000180546112da90614626565b90501461131c576040517f08c379a000000000000000000000000000000000000000000000000000000000815260040161131390614cf3565b60405180910390fd5b6000835111611360576040517f08c379a000000000000000000000000000000000000000000000000000000000815260040161135790614d5f565b60405180910390fd5b611368613b32565b838160000181905250600081602001901515908115158152505080600160008773ffffffffffffffffffffffffffffffffffffffff1673ffffffffffffffffffffffffffffffffffffffff16815260200190815260200160002060008201518160000190816113d79190614f21565b5060208201518160010160006101000a81548160ff0219169083151502179055509050506003600081548092919061140e906147ca565b91905055506003549250505092915050565b6000600b60009054906101000a900460ff1615611472576040517f08c379a000000000000000000000000000000000000000000000000000000000815260040161146990614502565b60405180910390fd5b600560009054906101000a900473ffffffffffffffffffffffffffffffffffffffff1673ffffffffffffffffffffffffffffffffffffffff163373ffffffffffffffffffffffffffffffffffffffff1614611502576040517f08c379a00000000000000000000000000000000000000000000000000000000081526004016114f990615065565b60405180910390fd5b600080600281111561151757611516613b4e565b5b600960019054906101000a900460ff16600281111561153957611538613b4e565b5b14611579576040517f08c379a000000000000000000000000000000000000000000000000000000000815260040161157090614545565b60405180910390fd5b61158384846111c2565b91505092915050565b600b60009054906101000a900460ff16156115dc576040517f08c379a00000000000000000000000000000000000000000000000000000000081526004016115d390614502565b60405180910390fd5b600560009054906101000a900473ffffffffffffffffffffffffffffffffffffffff1673ffffffffffffffffffffffffffffffffffffffff163373ffffffffffffffffffffffffffffffffffffffff161461166c576040517f08c379a000000000000000000000000000000000000000000000000000000000815260040161166390615065565b60405180910390fd5b600080600281111561168157611680613b4e565b5b600960019054906101000a900460ff1660028111156116a3576116a2613b4e565b5b146116e3576040517f08c379a00000000000000000000000000000000000000000000000000000000081526004016116da90614545565b60405180910390fd5b600160025411611728576040517f08c379a000000000000000000000000000000000000000000000000000000000815260040161171f906150f7565b60405180910390fd5b60016003541161176d576040517f08c379a000000000000000000000000000000000000000000000000000000000815260040161176490615189565b60405180910390fd5b81436117799190614872565b600a819055506001600960016101000a81548160ff021916908360028111156117a5576117a4613b4e565b5b02179055506001600960006101000a81548160ff0219169083151502179055505050565b60035481565b600560009054906101000a900473ffffffffffffffffffffffffffffffffffffffff1681565b3073ffffffffffffffffffffffffffffffffffffffff16636d77bd3e6040518163ffffffff1660e01b815260040161182c906151f5565b6020604051808303816000875af192505050801561186857506040513d601f19601f8201168201806040525081019061186591906140d2565b60015b611a625761187461410c565b806308c379a003611912575061188861412e565b8061189357506119af565b73__$acbfb1c35000d78352310b16a054a6b106$__63e8c2cb16826040518263ffffffff1660e01b81526004016118ca9190615284565b602060405180830381865af41580156118e7573d6000803e3d6000fd5b505050506040513d601f19601f8201168201806040525081019061190b9190614360565b5050611a5d565b634e487b71036119af576119246152cc565b9061192f57506119af565b73__$acbfb1c35000d78352310b16a054a6b106$__6339df137f60006040518263ffffffff1660e01b8152600401611967919061535f565b602060405180830381865af4158015611984573d6000803e3d6000fd5b505050506040513d601f19601f820116820180604052508101906119a89190614360565b5050611a5d565b3d80600081146119db576040519150601f19603f3d011682016040523d82523d6000602084013e6119e0565b606091505b5073__$acbfb1c35000d78352310b16a054a6b106$__6339df137f60006040518263ffffffff1660e01b8152600401611a1991906153d9565b602060405180830381865af4158015611a36573d6000803e3d6000fd5b505050506040513d601f19601f82011682018060405250810190611a5a9190614360565b50505b611ae0565b73__$acbfb1c35000d78352310b16a054a6b106$__63561015e28260036040518363ffffffff1660e01b8152600401611a9c92919061548e565b602060405180830381865af4158015611ab9573d6000803e3d6000fd5b505050506040513d601f19601f82011682018060405250810190611add9190614360565b50505b565b60076020528060005260406000206000915090508060000160009054906101000a900473ffffffffffffffffffffffffffffffffffffffff16908060010154905082565b73__$acbfb1c35000d78352310b16a054a6b106$__6339df137f611b4a600261081c565b6040518263ffffffff1660e01b8152600401611b669190614a91565b602060405180830381865af4158015611b83573d6000803e3d6000fd5b505050506040513d601f19601f82011682018060405250810190611ba79190614360565b50565b6000600b60009054906101000a900460ff1615611bfc576040517f08c379a0000000000000000000000000000000000000000000000000000000008152600401611bf390614502565b60405180910390fd5b600560009054906101000a900473ffffffffffffffffffffffffffffffffffffffff1673ffffffffffffffffffffffffffffffffffffffff163373ffffffffffffffffffffffffffffffffffffffff1614611c8c576040517f08c379a0000000000000000000000000000000000000000000000000000000008152600401611c8390615065565b60405180910390fd5b6000806002811115611ca157611ca0613b4e565b5b600960019054906101000a900460ff166002811115611cc357611cc2613b4e565b5b14611d03576040517f08c379a0000000000000000000000000000000000000000000000000000000008152600401611cfa90614545565b60405180910390fd5b611d0c83612025565b915050919050565b3073ffffffffffffffffffffffffffffffffffffffff16633b9f708d601160009054906101000a900473ffffffffffffffffffffffffffffffffffffffff166040518263ffffffff1660e01b8152600401611d6f9190615516565b6020604051808303816000875af1925050508015611dab57506040513d601f19601f82011682018060405250810190611da891906140d2565b60015b611fa557611db761410c565b806308c379a003611e555750611dcb61412e565b80611dd65750611ef2565b73__$acbfb1c35000d78352310b16a054a6b106$__63e8c2cb16826040518263ffffffff1660e01b8152600401611e0d9190615284565b602060405180830381865af4158015611e2a573d6000803e3d6000fd5b505050506040513d601f19601f82011682018060405250810190611e4e9190614360565b5050611fa0565b634e487b7103611ef257611e676152cc565b90611e725750611ef2565b73__$acbfb1c35000d78352310b16a054a6b106$__6339df137f60006040518263ffffffff1660e01b8152600401611eaa919061535f565b602060405180830381865af4158015611ec7573d6000803e3d6000fd5b505050506040513d601f19601f82011682018060405250810190611eeb9190614360565b5050611fa0565b3d8060008114611f1e576040519150601f19603f3d011682016040523d82523d6000602084013e611f23565b606091505b5073__$acbfb1c35000d78352310b16a054a6b106$__6339df137f60006040518263ffffffff1660e01b8152600401611f5c91906153d9565b602060405180830381865af4158015611f79573d6000803e3d6000fd5b505050506040513d601f19601f82011682018060405250810190611f9d9190614360565b50505b612023565b73__$acbfb1c35000d78352310b16a054a6b106$__63561015e28260056040518363ffffffff1660e01b8152600401611fdf92919061557f565b602060405180830381865af4158015611ffc573d6000803e3d6000fd5b505050506040513d601f19601f820116820180604052508101906120209190614360565b50505b565b6000600b60009054906101000a900460ff1615612077576040517f08c379a000000000000000000000000000000000000000000000000000000000815260040161206e90614502565b60405180910390fd5b600080600281111561208c5761208b613b4e565b5b600960019054906101000a900460ff1660028111156120ae576120ad613b4e565b5b146120ee576040517f08c379a00000000000000000000000000000000000000000000000000000000081526004016120e590614545565b60405180910390fd5b60008360405160200161210191906155f7565b604051602081830303815290604052805190602001209050600c600082815260200190815260200160002060009054906101000a900460ff161561217a576040517f08c379a00000000000000000000000000000000000000000000000000000000081526004016121719061565a565b60405180910390fd5b6002600081548092919061218d906147ca565b919050555083600080600254815260200190815260200160002090816121b39190614f21565b506001600c600083815260200190815260200160002060006101000a81548160ff02191690831515021790555060025492505050919050565b600960009054906101000a900460ff1681565b73__$1068a87eb54ed04c4e435de35b2ebf536f$__63ce88b14560006040518263ffffffff1660e01b815260040161223791906156b5565b602060405180830381865af4158015612254573d6000803e3d6000fd5b505050506040513d601f19601f8201168201806040525081019061227891906156e5565b600d60006101000a81548173ffffffffffffffffffffffffffffffffffffffff021916908373ffffffffffffffffffffffffffffffffffffffff16021790555073__$1068a87eb54ed04c4e435de35b2ebf536f$__63ce88b14560016040518263ffffffff1660e01b81526004016122f09190615712565b602060405180830381865af415801561230d573d6000803e3d6000fd5b505050506040513d601f19601f8201168201806040525081019061233191906156e5565b600e60006101000a81548173ffffffffffffffffffffffffffffffffffffffff021916908373ffffffffffffffffffffffffffffffffffffffff16021790555073__$1068a87eb54ed04c4e435de35b2ebf536f$__63ce88b14560026040518263ffffffff1660e01b81526004016123a9919061572d565b602060405180830381865af41580156123c6573d6000803e3d6000fd5b505050506040513d601f19601f820116820180604052508101906123ea91906156e5565b600f60006101000a81548173ffffffffffffffffffffffffffffffffffffffff021916908373ffffffffffffffffffffffffffffffffffffffff16021790555073__$1068a87eb54ed04c4e435de35b2ebf536f$__63ce88b14560036040518263ffffffff1660e01b81526004016124629190615748565b602060405180830381865af415801561247f573d6000803e3d6000fd5b505050506040513d601f19601f820116820180604052508101906124a391906156e5565b601060006101000a81548173ffffffffffffffffffffffffffffffffffffffff021916908373ffffffffffffffffffffffffffffffffffffffff16021790555073__$1068a87eb54ed04c4e435de35b2ebf536f$__63ce88b14560046040518263ffffffff1660e01b815260040161251b919061579e565b602060405180830381865af4158015612538573d6000803e3d6000fd5b505050506040513d601f19601f8201168201806040525081019061255c91906156e5565b601160006101000a81548173ffffffffffffffffffffffffffffffffffffffff021916908373ffffffffffffffffffffffffffffffffffffffff160217905550565b73__$acbfb1c35000d78352310b16a054a6b106$__63abcd7960612619600d60009054906101000a900473ffffffffffffffffffffffffffffffffffffffff166040518060400160405280600581526020017f416c696365000000000000000000000000000000000000000000000000000000815250611420565b60016040518363ffffffff1660e01b8152600401612638929190614946565b602060405180830381865af4158015612655573d6000803e3d6000fd5b505050506040513d601f19601f820116820180604052508101906126799190614360565b5073__$acbfb1c35000d78352310b16a054a6b106$__63abcd79606126f5600e60009054906101000a900473ffffffffffffffffffffffffffffffffffffffff166040518060400160405280600381526020017f426f620000000000000000000000000000000000000000000000000000000000815250611420565b60026040518363ffffffff1660e01b8152600401612714929190614a09565b602060405180830381865af4158015612731573d6000803e3d6000fd5b505050506040513d601f19601f820116820180604052508101906127559190614360565b5073__$acbfb1c35000d78352310b16a054a6b106$__63abcd79606127d1600f60009054906101000a900473ffffffffffffffffffffffffffffffffffffffff166040518060400160405280600781526020017f436861726c696500000000000000000000000000000000000000000000000000815250611420565b60036040518363ffffffff1660e01b81526004016127f0929190615805565b602060405180830381865af415801561280d573d6000803e3d6000fd5b505050506040513d601f19601f820116820180604052508101906128319190614360565b5073__$acbfb1c35000d78352310b16a054a6b106$__63abcd79606128ad601060009054906101000a900473ffffffffffffffffffffffffffffffffffffffff166040518060400160405280600381526020017f4576650000000000000000000000000000000000000000000000000000000000815250611420565b60046040518363ffffffff1660e01b81526004016128cc92919061588d565b602060405180830381865af41580156128e9573d6000803e3d6000fd5b505050506040513d601f19601f8201168201806040525081019061290d9190614360565b50565b600061291b8261081c565b9050919050565b73__$acbfb1c35000d78352310b16a054a6b106$__63bfba5dd6600560009054906101000a900473ffffffffffffffffffffffffffffffffffffffff16600d60009054906101000a900473ffffffffffffffffffffffffffffffffffffffff166040518363ffffffff1660e01b815260040161299f929190615924565b602060405180830381865af41580156129bc573d6000803e3d6000fd5b505050506040513d601f19601f820116820180604052508101906129e09190614360565b50565b73__$acbfb1c35000d78352310b16a054a6b106$__6339df137f612a07600161081c565b6040518263ffffffff1660e01b8152600401612a239190614a91565b602060405180830381865af4158015612a40573d6000803e3d6000fd5b505050506040513d601f19601f82011682018060405250810190612a649190614360565b50565b60045481565b3073ffffffffffffffffffffffffffffffffffffffff1663124258c660016040518263ffffffff1660e01b8152600401612aa7919061596f565b6020604051808303816000875af1925050508015612ae357506040513d601f19601f82011682018060405250810190612ae09190614360565b60015b612cdd57612aef61410c565b806308c379a003612b8d5750612b0361412e565b80612b0e5750612c2a565b73__$acbfb1c35000d78352310b16a054a6b106$__63e8c2cb16826040518263ffffffff1660e01b8152600401612b45919061598a565b602060405180830381865af4158015612b62573d6000803e3d6000fd5b505050506040513d601f19601f82011682018060405250810190612b869190614360565b5050612cd8565b634e487b7103612c2a57612b9f6152cc565b90612baa5750612c2a565b73__$acbfb1c35000d78352310b16a054a6b106$__6339df137f60006040518263ffffffff1660e01b8152600401612be2919061535f565b602060405180830381865af4158015612bff573d6000803e3d6000fd5b505050506040513d601f19601f82011682018060405250810190612c239190614360565b5050612cd8565b3d8060008114612c56576040519150601f19603f3d011682016040523d82523d6000602084013e612c5b565b606091505b5073__$acbfb1c35000d78352310b16a054a6b106$__6339df137f60006040518263ffffffff1660e01b8152600401612c9491906143e8565b602060405180830381865af4158015612cb1573d6000803e3d6000fd5b505050506040513d601f19601f82011682018060405250810190612cd59190614360565b50505b612d5b565b73__$acbfb1c35000d78352310b16a054a6b106$__63767392b38260016040518363ffffffff1660e01b8152600401612d179291906159d2565b602060405180830381865af4158015612d34573d6000803e3d6000fd5b505050506040513d601f19601f82011682018060405250810190612d589190614360565b50505b565b73__$acbfb1c35000d78352310b16a054a6b106$__63e8c2cb1660066040518263ffffffff1660e01b8152600401612d959190615b50565b602060405180830381865af4158015612db2573d6000803e3d6000fd5b505050506040513d601f19601f82011682018060405250810190612dd69190614360565b50565b3073ffffffffffffffffffffffffffffffffffffffff1663124258c660016040518263ffffffff1660e01b8152600401612e13919061596f565b6020604051808303816000875af1925050508015612e4f57506040513d601f19601f82011682018060405250810190612e4c9190614360565b60015b612f7b57612e5b61410c565b806308c379a003612ef95750612e6f61412e565b80612e7a5750612efb565b73__$acbfb1c35000d78352310b16a054a6b106$__63e8c2cb16826040518263ffffffff1660e01b8152600401612eb19190615c2d565b602060405180830381865af4158015612ece573d6000803e3d6000fd5b505050506040513d601f19601f82011682018060405250810190612ef29190614360565b5050612f76565b505b73__$acbfb1c35000d78352310b16a054a6b106$__6339df137f60006040518263ffffffff1660e01b8152600401612f3391906143e8565b602060405180830381865af4158015612f50573d6000803e3d6000fd5b505050506040513d601f19601f82011682018060405250810190612f749190614360565b505b612ff9565b73__$acbfb1c35000d78352310b16a054a6b106$__63767392b38260006040518363ffffffff1660e01b8152600401612fb5929190615cc1565b602060405180830381865af4158015612fd2573d6000803e3d6000fd5b505050506040513d601f19601f82011682018060405250810190612ff69190614360565b50505b565b6000602052806000526040600020600091509050805461301a90614626565b80601f016020809104026020016040519081016040528092919081815260200182805461304690614626565b80156130935780601f1061306857610100808354040283529160200191613093565b820191906000526020600020905b81548152906001019060200180831161307657829003601f168201915b505050505081565b60025481565b73__$acbfb1c35000d78352310b16a054a6b106$__63767392b3600960009054906101000a900460ff1660006040518363ffffffff1660e01b81526004016130ea929190615d49565b602060405180830381865af4158015613107573d6000803e3d6000fd5b505050506040513d601f19601f8201168201806040525081019061312b9190614360565b50565b600b60009054906101000a900460ff1681565b6006805461314e90614626565b80601f016020809104026020016040519081016040528092919081815260200182805461317a90614626565b80156131c75780601f1061319c576101008083540402835291602001916131c7565b820191906000526020600020905b8154815290600101906020018083116131aa57829003601f168201915b505050505081565b600b60009054906101000a900460ff161561321f576040517f08c379a000000000000000000000000000000000000000000000000000000000815260040161321690614502565b60405180910390fd5b600560009054906101000a900473ffffffffffffffffffffffffffffffffffffffff1673ffffffffffffffffffffffffffffffffffffffff163373ffffffffffffffffffffffffffffffffffffffff16146132af576040517f08c379a00000000000000000000000000000000000000000000000000000000081526004016132a690615065565b60405180910390fd5b600160028111156132c3576132c2613b4e565b5b600960019054906101000a900460ff1660028111156132e5576132e4613b4e565b5b14613325576040517f08c379a000000000000000000000000000000000000000000000000000000000815260040161331c90615dd1565b60405180910390fd5b61332d6139c6565b565b3073ffffffffffffffffffffffffffffffffffffffff1663781a38a36040518163ffffffff1660e01b815260040161336690615e3d565b6020604051808303816000875af19250505080156133a257506040513d601f19601f8201168201806040525081019061339f91906140d2565b60015b6134ce576133ae61410c565b806308c379a00361344c57506133c261412e565b806133cd575061344e565b73__$acbfb1c35000d78352310b16a054a6b106$__63e8c2cb16826040518263ffffffff1660e01b81526004016134049190615ef2565b602060405180830381865af4158015613421573d6000803e3d6000fd5b505050506040513d601f19601f820116820180604052508101906134459190614360565b50506134c9565b505b73__$acbfb1c35000d78352310b16a054a6b106$__6339df137f60006040518263ffffffff1660e01b815260040161348691906143e8565b602060405180830381865af41580156134a3573d6000803e3d6000fd5b505050506040513d601f19601f820116820180604052508101906134c79190614360565b505b61354a565b73__$acbfb1c35000d78352310b16a054a6b106$__6339df137f60006040518263ffffffff1660e01b81526004016135069190615fac565b602060405180830381865af4158015613523573d6000803e3d6000fd5b505050506040513d601f19601f820116820180604052508101906135479190614360565b50505b565b613556606461158c565b73__$acbfb1c35000d78352310b16a054a6b106$__63abcd7960600960019054906101000a900460ff16600281111561359257613591613b4e565b5b600160028111156135a6576135a5613b4e565b5b6040518363ffffffff1660e01b81526004016135c3929190616026565b602060405180830381865af41580156135e0573d6000803e3d6000fd5b505050506040513d601f19601f820116820180604052508101906136049190614360565b5073__$acbfb1c35000d78352310b16a054a6b106$__63767392b3600960009054906101000a900460ff1660016040518363ffffffff1660e01b815260040161364e9291906160ae565b602060405180830381865af415801561366b573d6000803e3d6000fd5b505050506040513d601f19601f8201168201806040525081019061368f9190614360565b50565b3073ffffffffffffffffffffffffffffffffffffffff16632d8c6f42600d60009054906101000a900473ffffffffffffffffffffffffffffffffffffffff166040518263ffffffff1660e01b81526004016136ed9190616136565b6020604051808303816000875af192505050801561372957506040513d601f19601f8201168201806040525081019061372691906140d2565b60015b6138555761373561410c565b806308c379a0036137d3575061374961412e565b8061375457506137d5565b73__$acbfb1c35000d78352310b16a054a6b106$__63e8c2cb16826040518263ffffffff1660e01b815260040161378b91906161f9565b602060405180830381865af41580156137a8573d6000803e3d6000fd5b505050506040513d601f19601f820116820180604052508101906137cc9190614360565b5050613850565b505b73__$acbfb1c35000d78352310b16a054a6b106$__6339df137f60006040518263ffffffff1660e01b815260040161380d91906143e8565b602060405180830381865af415801561382a573d6000803e3d6000fd5b505050506040513d601f19601f8201168201806040525081019061384e9190614360565b505b6138d1565b73__$acbfb1c35000d78352310b16a054a6b106$__6339df137f60006040518263ffffffff1660e01b815260040161388d91906162b3565b602060405180830381865af41580156138aa573d6000803e3d6000fd5b505050506040513d601f19601f820116820180604052508101906138ce9190614360565b50505b565b600560009054906101000a900473ffffffffffffffffffffffffffffffffffffffff1673ffffffffffffffffffffffffffffffffffffffff163373ffffffffffffffffffffffffffffffffffffffff1614613963576040517f08c379a000000000000000000000000000000000000000000000000000000000815260040161395a90615065565b60405180910390fd5b6001600b60006101000a81548160ff0219169083151502179055506000600960006101000a81548160ff0219169083151502179055506002600960016101000a81548160ff021916908360028111156139bf576139be613b4e565b5b0217905550565b600060045411156139da576139d9613a22565b5b6000600960006101000a81548160ff0219169083151502179055506002600960016101000a81548160ff02191690836002811115613a1b57613a1a613b4e565b5b0217905550565b6000806000600190505b6004548111613b0c5760006001905060006008600060076000868152602001908152602001600020600101548152602001908152602001600020541115613aa55760086000600760008581526020019081526020016000206001015481526020019081526020016000205481613aa29190614872565b90505b8060086000600760008681526020019081526020016000206001015481526020019081526020016000208190555083811115613af857809350600760008381526020019081526020016000206001015492505b508080613b04906147ca565b915050613a2c565b5060008082815260200190815260200160002060069081613b2d919061630c565b505050565b6040518060400160405280606081526020016000151581525090565b7f4e487b7100000000000000000000000000000000000000000000000000000000600052602160045260246000fd5b60038110613b8e57613b8d613b4e565b5b50565b6000819050613b9f82613b7d565b919050565b6000613baf82613b91565b9050919050565b613bbf81613ba4565b82525050565b6000602082019050613bda6000830184613bb6565b92915050565b6000819050919050565b613bf381613be0565b82525050565b6000602082019050613c0e6000830184613bea565b92915050565b6000604051905090565b600080fd5b600080fd5b613c3181613be0565b8114613c3c57600080fd5b50565b600081359050613c4e81613c28565b92915050565b600060208284031215613c6a57613c69613c1e565b5b6000613c7884828501613c3f565b91505092915050565b60008115159050919050565b613c9681613c81565b82525050565b6000602082019050613cb16000830184613c8d565b92915050565b600073ffffffffffffffffffffffffffffffffffffffff82169050919050565b6000613ce282613cb7565b9050919050565b613cf281613cd7565b8114613cfd57600080fd5b50565b600081359050613d0f81613ce9565b92915050565b600060208284031215613d2b57613d2a613c1e565b5b6000613d3984828501613d00565b91505092915050565b600081519050919050565b600082825260208201905092915050565b60005b83811015613d7c578082015181840152602081019050613d61565b60008484015250505050565b6000601f19601f8301169050919050565b6000613da482613d42565b613dae8185613d4d565b9350613dbe818560208601613d5e565b613dc781613d88565b840191505092915050565b60006040820190508181036000830152613dec8185613d99565b9050613dfb6020830184613c8d565b9392505050565b600080fd5b600080fd5b7f4e487b7100000000000000000000000000000000000000000000000000000000600052604160045260246000fd5b613e4482613d88565b810181811067ffffffffffffffff82111715613e6357613e62613e0c565b5b80604052505050565b6000613e76613c14565b9050613e828282613e3b565b919050565b600067ffffffffffffffff821115613ea257613ea1613e0c565b5b613eab82613d88565b9050602081019050919050565b82818337600083830152505050565b6000613eda613ed584613e87565b613e6c565b905082815260208101848484011115613ef657613ef5613e07565b5b613f01848285613eb8565b509392505050565b600082601f830112613f1e57613f1d613e02565b5b8135613f2e848260208601613ec7565b91505092915050565b60008060408385031215613f4e57613f4d613c1e565b5b6000613f5c85828601613d00565b925050602083013567ffffffffffffffff811115613f7d57613f7c613c23565b5b613f8985828601613f09565b9150509250929050565b613f9c81613cd7565b82525050565b6000602082019050613fb76000830184613f93565b92915050565b6000604082019050613fd26000830185613f93565b613fdf6020830184613bea565b9392505050565b600060208284031215613ffc57613ffb613c1e565b5b600082013567ffffffffffffffff81111561401a57614019613c23565b5b61402684828501613f09565b91505092915050565b600060208201905081810360008301526140498184613d99565b905092915050565b7f4e65772052657374617572616e74000000000000000000000000000000000000600082015250565b6000614087600e83613d4d565b915061409282614051565b602082019050919050565b600060208201905081810360008301526140b68161407a565b9050919050565b6000815190506140cc81613c28565b92915050565b6000602082840312156140e8576140e7613c1e565b5b60006140f6848285016140bd565b91505092915050565b60008160e01c9050919050565b600060033d111561412b5760046000803e6141286000516140ff565b90505b90565b600060443d106141bb57614140613c14565b60043d036004823e80513d602482011167ffffffffffffffff821117156141685750506141bb565b808201805167ffffffffffffffff81111561418657505050506141bb565b80602083010160043d0385018111156141a35750505050506141bb565b6141b282602001850186613e3b565b82955050505050505b90565b600082825260208201905092915050565b60006141da82613d42565b6141e481856141be565b93506141f4818560208601613d5e565b6141fd81613d88565b840191505092915050565b7f416374696f6e206e6f7420616c6c6f77656420696e2063757272656e7420706860008201527f6173652e00000000000000000000000000000000000000000000000000000000602082015250565b60006142646024836141be565b915061426f82614208565b604082019050919050565b7f53686f756c64206661696c20776974682070686173652072657374726963746960008201527f6f6e206d65737361676500000000000000000000000000000000000000000000602082015250565b60006142d6602a836141be565b91506142e18261427a565b604082019050919050565b6000606082019050818103600083015261430681846141cf565b9050818103602083015261431981614257565b9050818103604083015261432c816142c9565b905092915050565b61433d81613c81565b811461434857600080fd5b50565b60008151905061435a81614334565b92915050565b60006020828403121561437657614375613c1e565b5b60006143848482850161434b565b91505092915050565b61439681613c81565b82525050565b7f4661696c656420756e65787065637465646c7900000000000000000000000000600082015250565b60006143d26013836141be565b91506143dd8261439c565b602082019050919050565b60006040820190506143fd600083018461438d565b818103602083015261440e816143c5565b905092915050565b7f53686f756c64206e6f7420616c6c6f7720616464696e6720726573746175726160008201527f6e7420647572696e6720766f74696e6720706861736500000000000000000000602082015250565b60006144726036836141be565b915061447d82614416565b604082019050919050565b600060408201905061449d600083018461438d565b81810360208301526144ae81614465565b905092915050565b7f436f6e7472616374206973207368757420646f776e2e00000000000000000000600082015250565b60006144ec601683613d4d565b91506144f7826144b6565b602082019050919050565b6000602082019050818103600083015261451b816144df565b9050919050565b600061452f602483613d4d565b915061453a82614208565b604082019050919050565b6000602082019050818103600083015261455e81614522565b9050919050565b7f43616e20766f7465206f6e6c79207768696c6520766f74696e67206973206f7060008201527f656e2e0000000000000000000000000000000000000000000000000000000000602082015250565b60006145c1602383613d4d565b91506145cc82614565565b604082019050919050565b600060208201905081810360008301526145f0816145b4565b9050919050565b7f4e487b7100000000000000000000000000000000000000000000000000000000600052602260045260246000fd5b6000600282049050600182168061463e57607f821691505b602082108103614651576146506145f7565b5b50919050565b7f52657374617572616e7420646f6573206e6f742065786973742e000000000000600082015250565b600061468d601a83613d4d565b915061469882614657565b602082019050919050565b600060208201905081810360008301526146bc81614680565b9050919050565b7f596f7520617265206e6f742061207265676973746572656420667269656e642e600082015250565b60006146f9602083613d4d565b9150614704826146c3565b602082019050919050565b60006020820190508181036000830152614728816146ec565b9050919050565b7f596f75206861766520616c726561647920766f7465642e000000000000000000600082015250565b6000614765601783613d4d565b91506147708261472f565b602082019050919050565b6000602082019050818103600083015261479481614758565b9050919050565b7f4e487b7100000000000000000000000000000000000000000000000000000000600052601160045260246000fd5b60006147d582613be0565b91507fffffffffffffffffffffffffffffffffffffffffffffffffffffffffffffffff82036148075761480661479b565b5b600182019050919050565b7f4e487b7100000000000000000000000000000000000000000000000000000000600052601260045260246000fd5b600061484c82613be0565b915061485783613be0565b92508261486757614866614812565b5b828204905092915050565b600061487d82613be0565b915061488883613be0565b92508282019050808211156148a05761489f61479b565b5b92915050565b6148af81613be0565b82525050565b6000819050919050565b6000819050919050565b60006148e46148df6148da846148b5565b6148bf565b613be0565b9050919050565b6148f4816148c9565b82525050565b7f53686f756c6420626520657175616c20746f2031000000000000000000000000600082015250565b60006149306014836141be565b915061493b826148fa565b602082019050919050565b600060608201905061495b60008301856148a6565b61496860208301846148eb565b818103604083015261497981614923565b90509392505050565b6000819050919050565b60006149a76149a261499d84614982565b6148bf565b613be0565b9050919050565b6149b78161498c565b82525050565b7f53686f756c6420626520657175616c20746f2032000000000000000000000000600082015250565b60006149f36014836141be565b91506149fe826149bd565b602082019050919050565b6000606082019050614a1e60008301856148a6565b614a2b60208301846149ae565b8181036040830152614a3c816149e6565b90509392505050565b7f566f74696e6720726573756c742073686f756c64206265207472756500000000600082015250565b6000614a7b601c836141be565b9150614a8682614a45565b602082019050919050565b6000604082019050614aa6600083018461438d565b8181036020830152614ab781614a6e565b905092915050565b7f426f622073686f756c64206861766520616c726561647920766f746564000000600082015250565b6000614af5601d836141be565b9150614b0082614abf565b602082019050919050565b6000606082019050614b20600083018561438d565b614b2d602083018461438d565b8181036040830152614b3e81614ae8565b90509392505050565b614b508161498c565b82525050565b6000602082019050614b6b6000830184614b47565b92915050565b7f4475706c696361746520766f74652073686f756c64206e6f7420626520616c6c60008201527f6f77656400000000000000000000000000000000000000000000000000000000602082015250565b6000614bcd6024836141be565b9150614bd882614b71565b604082019050919050565b6000606082019050614bf8600083018561438d565b614c05602083018461438d565b8181036040830152614c1681614bc0565b90509392505050565b7f566f746520636f756e742073686f756c64206e6f7420696e6372656173650000600082015250565b6000614c55601e836141be565b9150614c6082614c1f565b602082019050919050565b6000606082019050614c8060008301856148a6565b614c8d60208301846148a6565b8181036040830152614c9e81614c48565b90509392505050565b7f467269656e6420616c7265616479206578697374732e00000000000000000000600082015250565b6000614cdd601683613d4d565b9150614ce882614ca7565b602082019050919050565b60006020820190508181036000830152614d0c81614cd0565b9050919050565b7f4e616d652063616e6e6f7420626520656d7074792e0000000000000000000000600082015250565b6000614d49601583613d4d565b9150614d5482614d13565b602082019050919050565b60006020820190508181036000830152614d7881614d3c565b9050919050565b60008190508160005260206000209050919050565b60006020601f8301049050919050565b600082821b905092915050565b600060088302614de17fffffffffffffffffffffffffffffffffffffffffffffffffffffffffffffffff82614da4565b614deb8683614da4565b95508019841693508086168417925050509392505050565b6000614e1e614e19614e1484613be0565b6148bf565b613be0565b9050919050565b6000819050919050565b614e3883614e03565b614e4c614e4482614e25565b848454614db1565b825550505050565b600090565b614e61614e54565b614e6c818484614e2f565b505050565b5b81811015614e9057614e85600082614e59565b600181019050614e72565b5050565b601f821115614ed557614ea681614d7f565b614eaf84614d94565b81016020851015614ebe578190505b614ed2614eca85614d94565b830182614e71565b50505b505050565b600082821c905092915050565b6000614ef860001984600802614eda565b1980831691505092915050565b6000614f118383614ee7565b9150826002028217905092915050565b614f2a82613d42565b67ffffffffffffffff811115614f4357614f42613e0c565b5b614f4d8254614626565b614f58828285614e94565b600060209050601f831160018114614f8b5760008415614f79578287015190505b614f838582614f05565b865550614feb565b601f198416614f9986614d7f565b60005b82811015614fc157848901518255600182019150602085019450602081019050614f9c565b86831015614fde5784890151614fda601f891682614ee7565b8355505b6001600288020188555050505b505050505050565b7f43616e206f6e6c7920626520657865637574656420627920746865206d616e6160008201527f6765720000000000000000000000000000000000000000000000000000000000602082015250565b600061504f602383613d4d565b915061505a82614ff3565b604082019050919050565b6000602082019050818103600083015261507e81615042565b9050919050565b7f4174206c656173742074776f2072657374617572616e7473206d75737420626560008201527f2061646465642e00000000000000000000000000000000000000000000000000602082015250565b60006150e1602783613d4d565b91506150ec82615085565b604082019050919050565b60006020820190508181036000830152615110816150d4565b9050919050565b7f4174206c656173742074776f20667269656e6473206d7573742062652061646460008201527f65642e0000000000000000000000000000000000000000000000000000000000602082015250565b6000615173602383613d4d565b915061517e82615117565b604082019050919050565b600060208201905081810360008301526151a281615166565b9050919050565b7f41746f6d69632043616665000000000000000000000000000000000000000000600082015250565b60006151df600b83613d4d565b91506151ea826151a9565b602082019050919050565b6000602082019050818103600083015261520e816151d2565b9050919050565b60006152226023836141be565b915061522d82614ff3565b604082019050919050565b7f4661696c6564207769746820756e657870656374656420726561736f6e000000600082015250565b600061526e601d836141be565b915061527982615238565b602082019050919050565b6000606082019050818103600083015261529e81846141cf565b905081810360208301526152b181615215565b905081810360408301526152c481615261565b905092915050565b60008060233d11156152e9576020600460003e6001915060005190505b9091565b7f4661696c656420756e65787065637465642077697468206572726f7220636f6460008201527f6500000000000000000000000000000000000000000000000000000000000000602082015250565b60006153496021836141be565b9150615354826152ed565b604082019050919050565b6000604082019050615374600083018461438d565b81810360208301526153858161533c565b905092915050565b7f4661696c656420756e6578706563746564000000000000000000000000000000600082015250565b60006153c36011836141be565b91506153ce8261538d565b602082019050919050565b60006040820190506153ee600083018461438d565b81810360208301526153ff816153b6565b905092915050565b6000819050919050565b600061542c61542761542284615407565b6148bf565b613be0565b9050919050565b61543c81615411565b82525050565b7f4d6574686f6420657865637574696f6e20646964206e6f74206661696c000000600082015250565b6000615478601d836141be565b915061548382615442565b602082019050919050565b60006060820190506154a360008301856148a6565b6154b06020830184615433565b81810360408301526154c18161546b565b90509392505050565b7f44616e69656c7300000000000000000000000000000000000000000000000000600082015250565b6000615500600783613d4d565b915061550b826154ca565b602082019050919050565b600060408201905061552b6000830184613f93565b818103602083015261553c816154f3565b905092915050565b6000819050919050565b600061556961556461555f84615544565b6148bf565b613be0565b9050919050565b6155798161554e565b82525050565b600060608201905061559460008301856148a6565b6155a16020830184615570565b81810360408301526155b28161546b565b90509392505050565b600081905092915050565b60006155d182613d42565b6155db81856155bb565b93506155eb818560208601613d5e565b80840191505092915050565b600061560382846155c6565b915081905092915050565b7f52657374617572616e7420616c7265616479206578697374732e000000000000600082015250565b6000615644601a83613d4d565b915061564f8261560e565b602082019050919050565b6000602082019050818103600083015261567381615637565b9050919050565b6000819050919050565b600061569f61569a6156958461567a565b6148bf565b613be0565b9050919050565b6156af81615684565b82525050565b60006020820190506156ca60008301846156a6565b92915050565b6000815190506156df81613ce9565b92915050565b6000602082840312156156fb576156fa613c1e565b5b6000615709848285016156d0565b91505092915050565b600060208201905061572760008301846148eb565b92915050565b600060208201905061574260008301846149ae565b92915050565b600060208201905061575d6000830184615433565b92915050565b6000819050919050565b600061578861578361577e84615763565b6148bf565b613be0565b9050919050565b6157988161576d565b82525050565b60006020820190506157b3600083018461578f565b92915050565b7f53686f756c6420626520657175616c20746f2033000000000000000000000000600082015250565b60006157ef6014836141be565b91506157fa826157b9565b602082019050919050565b600060608201905061581a60008301856148a6565b6158276020830184615433565b8181036040830152615838816157e2565b90509392505050565b7f53686f756c6420626520657175616c20746f2034000000000000000000000000600082015250565b60006158776014836141be565b915061588282615841565b602082019050919050565b60006060820190506158a260008301856148a6565b6158af602083018461578f565b81810360408301526158c08161586a565b90509392505050565b6158d281613cd7565b82525050565b7f4d616e616765722073686f756c64206265206163633000000000000000000000600082015250565b600061590e6016836141be565b9150615919826158d8565b602082019050919050565b600060608201905061593960008301856158c9565b61594660208301846158c9565b818103604083015261595781615901565b90509392505050565b615969816148c9565b82525050565b60006020820190506159846000830184615960565b92915050565b600060608201905081810360008301526159a481846141cf565b905081810360208301526159b781614257565b905081810360408301526159ca81615261565b905092915050565b60006060820190506159e7600083018561438d565b6159f4602083018461438d565b8181036040830152615a058161546b565b90509392505050565b60008154615a1b81614626565b615a2581866141be565b94506001821660008114615a405760018114615a5657615a89565b60ff198316865281151560200286019350615a89565b615a5f85614d7f565b60005b83811015615a8157815481890152600182019150602081019050615a62565b808801955050505b50505092915050565b7f556e692043616665000000000000000000000000000000000000000000000000600082015250565b6000615ac86008836141be565b9150615ad382615a92565b602082019050919050565b7f53656c65637465642072657374617572616e742073686f756c6420626520556e60008201527f6920436166650000000000000000000000000000000000000000000000000000602082015250565b6000615b3a6026836141be565b9150615b4582615ade565b604082019050919050565b60006060820190508181036000830152615b6a8184615a0e565b90508181036020830152615b7d81615abb565b90508181036040830152615b9081615b2d565b905092915050565b6000615ba56020836141be565b9150615bb0826146c3565b602082019050919050565b7f53686f756c64206661696c2077697468206e6f7420726567697374657265642060008201527f6d65737361676500000000000000000000000000000000000000000000000000602082015250565b6000615c176027836141be565b9150615c2282615bbb565b604082019050919050565b60006060820190508181036000830152615c4781846141cf565b90508181036020830152615c5a81615b98565b90508181036040830152615c6d81615c0a565b905092915050565b7f566f74696e6720726573756c742073686f756c642062652066616c7365000000600082015250565b6000615cab601d836141be565b9150615cb682615c75565b602082019050919050565b6000606082019050615cd6600083018561438d565b615ce3602083018461438d565b8181036040830152615cf481615c9e565b90509392505050565b7f566f74696e672073686f756c6420626520636c6f736564000000000000000000600082015250565b6000615d336017836141be565b9150615d3e82615cfd565b602082019050919050565b6000606082019050615d5e600083018561438d565b615d6b602083018461438d565b8181036040830152615d7c81615d26565b90509392505050565b7f4e6f7420696e20766f74696e672070686173652e000000000000000000000000600082015250565b6000615dbb601483613d4d565b9150615dc682615d85565b602082019050919050565b60006020820190508181036000830152615dea81615dae565b9050919050565b7f436f757274796172642043616665000000000000000000000000000000000000600082015250565b6000615e27600e83613d4d565b9150615e3282615df1565b602082019050919050565b60006020820190508181036000830152615e5681615e1a565b9050919050565b6000615e6a601a836141be565b9150615e758261560e565b602082019050919050565b7f53686f756c64206661696c2077697468206475706c696361746520726573746160008201527f7572616e74206d65737361676500000000000000000000000000000000000000602082015250565b6000615edc602d836141be565b9150615ee782615e80565b604082019050919050565b60006060820190508181036000830152615f0c81846141cf565b90508181036020830152615f1f81615e5d565b90508181036040830152615f3281615ecf565b905092915050565b7f53686f756c64206e6f7420616c6c6f77206475706c696361746520726573746160008201527f7572616e74000000000000000000000000000000000000000000000000000000602082015250565b6000615f966025836141be565b9150615fa182615f3a565b604082019050919050565b6000604082019050615fc1600083018461438d565b8181036020830152615fd281615f89565b905092915050565b7f53686f756c6420626520696e20766f74696e6720706861736500000000000000600082015250565b60006160106019836141be565b915061601b82615fda565b602082019050919050565b600060608201905061603b60008301856148a6565b61604860208301846148a6565b818103604083015261605981616003565b90509392505050565b7f566f74696e672073686f756c64206265206f70656e0000000000000000000000600082015250565b60006160986015836141be565b91506160a382616062565b602082019050919050565b60006060820190506160c3600083018561438d565b6160d0602083018461438d565b81810360408301526160e18161608b565b90509392505050565b7f416e6f7468657220416c69636500000000000000000000000000000000000000600082015250565b6000616120600d83613d4d565b915061612b826160ea565b602082019050919050565b600060408201905061614b6000830184613f93565b818103602083015261615c81616113565b905092915050565b60006161716016836141be565b915061617c82614ca7565b602082019050919050565b7f53686f756c64206661696c2077697468206475706c696361746520667269656e60008201527f64206d6573736167650000000000000000000000000000000000000000000000602082015250565b60006161e36029836141be565b91506161ee82616187565b604082019050919050565b6000606082019050818103600083015261621381846141cf565b9050818103602083015261622681616164565b90508181036040830152616239816161d6565b905092915050565b7f53686f756c64206e6f7420616c6c6f77206475706c696361746520667269656e60008201527f6400000000000000000000000000000000000000000000000000000000000000602082015250565b600061629d6021836141be565b91506162a882616241565b604082019050919050565b60006040820190506162c8600083018461438d565b81810360208301526162d981616290565b905092915050565b6000815490506162f081614626565b9050919050565b60008190508160005260206000209050919050565b81810361631a5750506163f2565b616323826162e1565b67ffffffffffffffff81111561633c5761633b613e0c565b5b6163468254614626565b616351828285614e94565b6000601f831160018114616380576000841561636e578287015490505b6163788582614f05565b8655506163eb565b601f19841661638e876162f7565b965061639986614d7f565b60005b828110156163c15784890154825560018201915060018501945060208101905061639c565b868310156163de57848901546163da601f891682614ee7565b8355505b6001600288020188555050505b5050505050505b56fea2646970667358221220f9b1d13011251aca44e83a629c1f0cf8c077e9c0d5759489294d904b003f05fe64736f6c63430008120033",
			"opcodes": "PUSH1 0x80 PUSH1 0x40 MSTORE PUSH1 0x0 PUSH1 0x2 SSTORE PUSH1 0x0 PUSH1 0x3 SSTORE PUSH1 0x0 PUSH1 0x4 SSTORE PUSH1 0x40 MLOAD DUP1 PUSH1 0x20 ADD PUSH1 0x40 MSTORE DUP1 PUSH1 0x0 DUP2 MSTORE POP PUSH1 0x6 SWAP1 DUP2 PUSH3 0x33 SWAP2 SWAP1 PUSH3 0x367 JUMP JUMPDEST POP PUSH1 0x0 PUSH1 0x9 PUSH1 0x0 PUSH2 0x100 EXP DUP2 SLOAD DUP2 PUSH1 0xFF MUL NOT AND SWAP1 DUP4 ISZERO ISZERO MUL OR SWAP1 SSTORE POP PUSH1 0x0 PUSH1 0x9 PUSH1 0x1 PUSH2 0x100 EXP DUP2 SLOAD DUP2 PUSH1 0xFF MUL NOT AND SWAP1 DUP4 PUSH1 0x2 DUP2 GT ISZERO PUSH3 0x78 JUMPI PUSH3 0x77 PUSH3 0x44E JUMP JUMPDEST JUMPDEST MUL OR SWAP1 SSTORE POP PUSH1 0x0 PUSH1 0xB PUSH1 0x0 PUSH2 0x100 EXP DUP2 SLOAD DUP2 PUSH1 0xFF MUL NOT AND SWAP1 DUP4 ISZERO ISZERO MUL OR SWAP1 SSTORE POP CALLVALUE DUP1 ISZERO PUSH3 0xA5 JUMPI PUSH1 0x0 DUP1 REVERT JUMPDEST POP CALLER PUSH1 0x5 PUSH1 0x0 PUSH2 0x100 EXP DUP2 SLOAD DUP2 PUSH20 0xFFFFFFFFFFFFFFFFFFFFFFFFFFFFFFFFFFFFFFFF MUL NOT AND SWAP1 DUP4 PUSH20 0xFFFFFFFFFFFFFFFFFFFFFFFFFFFFFFFFFFFFFFFF AND MUL OR SWAP1 SSTORE POP PUSH3 0x47D JUMP JUMPDEST PUSH1 0x0 DUP2 MLOAD SWAP1 POP SWAP2 SWAP1 POP JUMP JUMPDEST PUSH32 0x4E487B7100000000000000000000000000000000000000000000000000000000 PUSH1 0x0 MSTORE PUSH1 0x41 PUSH1 0x4 MSTORE PUSH1 0x24 PUSH1 0x0 REVERT JUMPDEST PUSH32 0x4E487B7100000000000000000000000000000000000000000000000000000000 PUSH1 0x0 MSTORE PUSH1 0x22 PUSH1 0x4 MSTORE PUSH1 0x24 PUSH1 0x0 REVERT JUMPDEST PUSH1 0x0 PUSH1 0x2 DUP3 DIV SWAP1 POP PUSH1 0x1 DUP3 AND DUP1 PUSH3 0x16F JUMPI PUSH1 0x7F DUP3 AND SWAP2 POP JUMPDEST PUSH1 0x20 DUP3 LT DUP2 SUB PUSH3 0x185 JUMPI PUSH3 0x184 PUSH3 0x127 JUMP JUMPDEST JUMPDEST POP SWAP2 SWAP1 POP JUMP JUMPDEST PUSH1 0x0 DUP2 SWAP1 POP DUP2 PUSH1 0x0 MSTORE PUSH1 0x20 PUSH1 0x0 KECCAK256 SWAP1 POP SWAP2 SWAP1 POP JUMP JUMPDEST PUSH1 0x0 PUSH1 0x20 PUSH1 0x1F DUP4 ADD DIV SWAP1 POP SWAP2 SWAP1 POP JUMP JUMPDEST PUSH1 0x0 DUP3 DUP3 SHL SWAP1 POP SWAP3 SWAP2 POP POP JUMP JUMPDEST PUSH1 0x0 PUSH1 0x8 DUP4 MUL PUSH3 0x1EF PUSH32 0xFFFFFFFFFFFFFFFFFFFFFFFFFFFFFFFFFFFFFFFFFFFFFFFFFFFFFFFFFFFFFFFF DUP3 PUSH3 0x1B0 JUMP JUMPDEST PUSH3 0x1FB DUP7 DUP4 PUSH3 0x1B0 JUMP JUMPDEST SWAP6 POP DUP1 NOT DUP5 AND SWAP4 POP DUP1 DUP7 AND DUP5 OR SWAP3 POP POP POP SWAP4 SWAP3 POP POP POP JUMP JUMPDEST PUSH1 0x0 DUP2 SWAP1 POP SWAP2 SWAP1 POP JUMP JUMPDEST PUSH1 0x0 DUP2 SWAP1 POP SWAP2 SWAP1 POP JUMP JUMPDEST PUSH1 0x0 PUSH3 0x248 PUSH3 0x242 PUSH3 0x23C DUP5 PUSH3 0x213 JUMP JUMPDEST PUSH3 0x21D JUMP JUMPDEST PUSH3 0x213 JUMP JUMPDEST SWAP1 POP SWAP2 SWAP1 POP JUMP JUMPDEST PUSH1 0x0 DUP2 SWAP1 POP SWAP2 SWAP1 POP JUMP JUMPDEST PUSH3 0x264 DUP4 PUSH3 0x227 JUMP JUMPDEST PUSH3 0x27C PUSH3 0x273 DUP3 PUSH3 0x24F JUMP JUMPDEST DUP5 DUP5 SLOAD PUSH3 0x1BD JUMP JUMPDEST DUP3 SSTORE POP POP POP POP JUMP JUMPDEST PUSH1 0x0 SWAP1 JUMP JUMPDEST PUSH3 0x293 PUSH3 0x284 JUMP JUMPDEST PUSH3 0x2A0 DUP2 DUP5 DUP5 PUSH3 0x259 JUMP JUMPDEST POP POP POP JUMP JUMPDEST JUMPDEST DUP2 DUP2 LT ISZERO PUSH3 0x2C8 JUMPI PUSH3 0x2BC PUSH1 0x0 DUP3 PUSH3 0x289 JUMP JUMPDEST PUSH1 0x1 DUP2 ADD SWAP1 POP PUSH3 0x2A6 JUMP JUMPDEST POP POP JUMP JUMPDEST PUSH1 0x1F DUP3 GT ISZERO PUSH3 0x317 JUMPI PUSH3 0x2E1 DUP2 PUSH3 0x18B JUMP JUMPDEST PUSH3 0x2EC DUP5 PUSH3 0x1A0 JUMP JUMPDEST DUP2 ADD PUSH1 0x20 DUP6 LT ISZERO PUSH3 0x2FC JUMPI DUP2 SWAP1 POP JUMPDEST PUSH3 0x314 PUSH3 0x30B DUP6 PUSH3 0x1A0 JUMP JUMPDEST DUP4 ADD DUP3 PUSH3 0x2A5 JUMP JUMPDEST POP POP JUMPDEST POP POP POP JUMP JUMPDEST PUSH1 0x0 DUP3 DUP3 SHR SWAP1 POP SWAP3 SWAP2 POP POP JUMP JUMPDEST PUSH1 0x0 PUSH3 0x33C PUSH1 0x0 NOT DUP5 PUSH1 0x8 MUL PUSH3 0x31C JUMP JUMPDEST NOT DUP1 DUP4 AND SWAP2 POP POP SWAP3 SWAP2 POP POP JUMP JUMPDEST PUSH1 0x0 PUSH3 0x357 DUP4 DUP4 PUSH3 0x329 JUMP JUMPDEST SWAP2 POP DUP3 PUSH1 0x2 MUL DUP3 OR SWAP1 POP SWAP3 SWAP2 POP POP JUMP JUMPDEST PUSH3 0x372 DUP3 PUSH3 0xED JUMP JUMPDEST PUSH8 0xFFFFFFFFFFFFFFFF DUP2 GT ISZERO PUSH3 0x38E JUMPI PUSH3 0x38D PUSH3 0xF8 JUMP JUMPDEST JUMPDEST PUSH3 0x39A DUP3 SLOAD PUSH3 0x156 JUMP JUMPDEST PUSH3 0x3A7 DUP3 DUP3 DUP6 PUSH3 0x2CC JUMP JUMPDEST PUSH1 0x0 PUSH1 0x20 SWAP1 POP PUSH1 0x1F DUP4 GT PUSH1 0x1 DUP2 EQ PUSH3 0x3DF JUMPI PUSH1 0x0 DUP5 ISZERO PUSH3 0x3CA JUMPI DUP3 DUP8 ADD MLOAD SWAP1 POP JUMPDEST PUSH3 0x3D6 DUP6 DUP3 PUSH3 0x349 JUMP JUMPDEST DUP7 SSTORE POP PUSH3 0x446 JUMP JUMPDEST PUSH1 0x1F NOT DUP5 AND PUSH3 0x3EF DUP7 PUSH3 0x18B JUMP JUMPDEST PUSH1 0x0 JUMPDEST DUP3 DUP2 LT ISZERO PUSH3 0x419 JUMPI DUP5 DUP10 ADD MLOAD DUP3 SSTORE PUSH1 0x1 DUP3 ADD SWAP2 POP PUSH1 0x20 DUP6 ADD SWAP5 POP PUSH1 0x20 DUP2 ADD SWAP1 POP PUSH3 0x3F2 JUMP JUMPDEST DUP7 DUP4 LT ISZERO PUSH3 0x439 JUMPI DUP5 DUP10 ADD MLOAD PUSH3 0x435 PUSH1 0x1F DUP10 AND DUP3 PUSH3 0x329 JUMP JUMPDEST DUP4 SSTORE POP JUMPDEST PUSH1 0x1 PUSH1 0x2 DUP9 MUL ADD DUP9 SSTORE POP POP POP JUMPDEST POP POP POP POP POP POP JUMP JUMPDEST PUSH32 0x4E487B7100000000000000000000000000000000000000000000000000000000 PUSH1 0x0 MSTORE PUSH1 0x21 PUSH1 0x4 MSTORE PUSH1 0x24 PUSH1 0x0 REVERT JUMPDEST PUSH2 0x642A DUP1 PUSH3 0x48D PUSH1 0x0 CODECOPY PUSH1 0x0 RETURN INVALID PUSH1 0x80 PUSH1 0x40 MSTORE CALLVALUE DUP1 ISZERO PUSH2 0x10 JUMPI PUSH1 0x0 DUP1 REVERT JUMPDEST POP PUSH1 0x4 CALLDATASIZE LT PUSH2 0x23D JUMPI PUSH1 0x0 CALLDATALOAD PUSH1 0xE0 SHR DUP1 PUSH4 0x788D3851 GT PUSH2 0x13B JUMPI DUP1 PUSH4 0xAD5461D8 GT PUSH2 0xB8 JUMPI DUP1 PUSH4 0xC3403DDF GT PUSH2 0x7C JUMPI DUP1 PUSH4 0xC3403DDF EQ PUSH2 0x5B4 JUMPI DUP1 PUSH4 0xC9648F6E EQ PUSH2 0x5BE JUMPI DUP1 PUSH4 0xCB43284E EQ PUSH2 0x5C8 JUMPI DUP1 PUSH4 0xD012F7EA EQ PUSH2 0x5D2 JUMPI DUP1 PUSH4 0xFC0E74D1 EQ PUSH2 0x5DC JUMPI PUSH2 0x23D JUMP JUMPDEST DUP1 PUSH4 0xAD5461D8 EQ PUSH2 0x520 JUMPI DUP1 PUSH4 0xB798867F EQ PUSH2 0x550 JUMPI DUP1 PUSH4 0xBBB97DED EQ PUSH2 0x56E JUMPI DUP1 PUSH4 0xBF86D690 EQ PUSH2 0x578 JUMPI DUP1 PUSH4 0xC1C16EFC EQ PUSH2 0x596 JUMPI PUSH2 0x23D JUMP JUMPDEST DUP1 PUSH4 0xA24A4E88 GT PUSH2 0xFF JUMPI DUP1 PUSH4 0xA24A4E88 EQ PUSH2 0x4DA JUMPI DUP1 PUSH4 0xA3BEF4D7 EQ PUSH2 0x4E4 JUMPI DUP1 PUSH4 0xA5627CF0 EQ PUSH2 0x502 JUMPI DUP1 PUSH4 0xA8267245 EQ PUSH2 0x50C JUMPI DUP1 PUSH4 0xA9A4070C EQ PUSH2 0x516 JUMPI PUSH2 0x23D JUMP JUMPDEST DUP1 PUSH4 0x788D3851 EQ PUSH2 0x46E JUMPI DUP1 PUSH4 0x7FEA0D4B EQ PUSH2 0x48C JUMPI DUP1 PUSH4 0x848B4427 EQ PUSH2 0x496 JUMPI DUP1 PUSH4 0x8F43F134 EQ PUSH2 0x4A0 JUMPI DUP1 PUSH4 0x947AEA86 EQ PUSH2 0x4D0 JUMPI PUSH2 0x23D JUMP JUMPDEST DUP1 PUSH4 0x3B9F708D GT PUSH2 0x1C9 JUMPI DUP1 PUSH4 0x5DF81330 GT PUSH2 0x18D JUMPI DUP1 PUSH4 0x5DF81330 EQ PUSH2 0x3C9 JUMPI DUP1 PUSH4 0x632A9A52 EQ PUSH2 0x3FA JUMPI DUP1 PUSH4 0x6D77BD3E EQ PUSH2 0x404 JUMPI DUP1 PUSH4 0x77440E06 EQ PUSH2 0x434 JUMPI DUP1 PUSH4 0x781A38A3 EQ PUSH2 0x43E JUMPI PUSH2 0x23D JUMP JUMPDEST DUP1 PUSH4 0x3B9F708D EQ PUSH2 0x337 JUMPI DUP1 PUSH4 0x3D2F5BDA EQ PUSH2 0x367 JUMPI DUP1 PUSH4 0x47098F36 EQ PUSH2 0x383 JUMPI DUP1 PUSH4 0x481C6A75 EQ PUSH2 0x3A1 JUMPI DUP1 PUSH4 0x512A6FBB EQ PUSH2 0x3BF JUMPI PUSH2 0x23D JUMP JUMPDEST DUP1 PUSH4 0x12A4591A GT PUSH2 0x210 JUMPI DUP1 PUSH4 0x12A4591A EQ PUSH2 0x2B8 JUMPI DUP1 PUSH4 0x1DDABF7A EQ PUSH2 0x2C2 JUMPI DUP1 PUSH4 0x2955FEA3 EQ PUSH2 0x2F3 JUMPI DUP1 PUSH4 0x2B5A9467 EQ PUSH2 0x2FD JUMPI DUP1 PUSH4 0x2D8C6F42 EQ PUSH2 0x307 JUMPI PUSH2 0x23D JUMP JUMPDEST DUP1 PUSH4 0x55AD42E EQ PUSH2 0x242 JUMPI DUP1 PUSH4 0x83C6323 EQ PUSH2 0x260 JUMPI DUP1 PUSH4 0xB0F5DD7 EQ PUSH2 0x27E JUMPI DUP1 PUSH4 0x124258C6 EQ PUSH2 0x288 JUMPI JUMPDEST PUSH1 0x0 DUP1 REVERT JUMPDEST PUSH2 0x24A PUSH2 0x5E6 JUMP JUMPDEST PUSH1 0x40 MLOAD PUSH2 0x257 SWAP2 SWAP1 PUSH2 0x3BC5 JUMP JUMPDEST PUSH1 0x40 MLOAD DUP1 SWAP2 SUB SWAP1 RETURN JUMPDEST PUSH2 0x268 PUSH2 0x5F9 JUMP JUMPDEST PUSH1 0x40 MLOAD PUSH2 0x275 SWAP2 SWAP1 PUSH2 0x3BF9 JUMP JUMPDEST PUSH1 0x40 MLOAD DUP1 SWAP2 SUB SWAP1 RETURN JUMPDEST PUSH2 0x286 PUSH2 0x5FF JUMP JUMPDEST STOP JUMPDEST PUSH2 0x2A2 PUSH1 0x4 DUP1 CALLDATASIZE SUB DUP2 ADD SWAP1 PUSH2 0x29D SWAP2 SWAP1 PUSH2 0x3C54 JUMP JUMPDEST PUSH2 0x81C JUMP JUMPDEST PUSH1 0x40 MLOAD PUSH2 0x2AF SWAP2 SWAP1 PUSH2 0x3C9C JUMP JUMPDEST PUSH1 0x40 MLOAD DUP1 SWAP2 SUB SWAP1 RETURN JUMPDEST PUSH2 0x2C0 PUSH2 0xC0F JUMP JUMPDEST STOP JUMPDEST PUSH2 0x2DC PUSH1 0x4 DUP1 CALLDATASIZE SUB DUP2 ADD SWAP1 PUSH2 0x2D7 SWAP2 SWAP1 PUSH2 0x3D15 JUMP JUMPDEST PUSH2 0xD83 JUMP JUMPDEST PUSH1 0x40 MLOAD PUSH2 0x2EA SWAP3 SWAP2 SWAP1 PUSH2 0x3DD2 JUMP JUMPDEST PUSH1 0x40 MLOAD DUP1 SWAP2 SUB SWAP1 RETURN JUMPDEST PUSH2 0x2FB PUSH2 0xE3C JUMP JUMPDEST STOP JUMPDEST PUSH2 0x305 PUSH2 0xEC0 JUMP JUMPDEST STOP JUMPDEST PUSH2 0x321 PUSH1 0x4 DUP1 CALLDATASIZE SUB DUP2 ADD SWAP1 PUSH2 0x31C SWAP2 SWAP1 PUSH2 0x3F37 JUMP JUMPDEST PUSH2 0x11C2 JUMP JUMPDEST PUSH1 0x40 MLOAD PUSH2 0x32E SWAP2 SWAP1 PUSH2 0x3BF9 JUMP JUMPDEST PUSH1 0x40 MLOAD DUP1 SWAP2 SUB SWAP1 RETURN JUMPDEST PUSH2 0x351 PUSH1 0x4 DUP1 CALLDATASIZE SUB DUP2 ADD SWAP1 PUSH2 0x34C SWAP2 SWAP1 PUSH2 0x3F37 JUMP JUMPDEST PUSH2 0x1420 JUMP JUMPDEST PUSH1 0x40 MLOAD PUSH2 0x35E SWAP2 SWAP1 PUSH2 0x3BF9 JUMP JUMPDEST PUSH1 0x40 MLOAD DUP1 SWAP2 SUB SWAP1 RETURN JUMPDEST PUSH2 0x381 PUSH1 0x4 DUP1 CALLDATASIZE SUB DUP2 ADD SWAP1 PUSH2 0x37C SWAP2 SWAP1 PUSH2 0x3C54 JUMP JUMPDEST PUSH2 0x158C JUMP JUMPDEST STOP JUMPDEST PUSH2 0x38B PUSH2 0x17C9 JUMP JUMPDEST PUSH1 0x40 MLOAD PUSH2 0x398 SWAP2 SWAP1 PUSH2 0x3BF9 JUMP JUMPDEST PUSH1 0x40 MLOAD DUP1 SWAP2 SUB SWAP1 RETURN JUMPDEST PUSH2 0x3A9 PUSH2 0x17CF JUMP JUMPDEST PUSH1 0x40 MLOAD PUSH2 0x3B6 SWAP2 SWAP1 PUSH2 0x3FA2 JUMP JUMPDEST PUSH1 0x40 MLOAD DUP1 SWAP2 SUB SWAP1 RETURN JUMPDEST PUSH2 0x3C7 PUSH2 0x17F5 JUMP JUMPDEST STOP JUMPDEST PUSH2 0x3E3 PUSH1 0x4 DUP1 CALLDATASIZE SUB DUP2 ADD SWAP1 PUSH2 0x3DE SWAP2 SWAP1 PUSH2 0x3C54 JUMP JUMPDEST PUSH2 0x1AE2 JUMP JUMPDEST PUSH1 0x40 MLOAD PUSH2 0x3F1 SWAP3 SWAP2 SWAP1 PUSH2 0x3FBD JUMP JUMPDEST PUSH1 0x40 MLOAD DUP1 SWAP2 SUB SWAP1 RETURN JUMPDEST PUSH2 0x402 PUSH2 0x1B26 JUMP JUMPDEST STOP JUMPDEST PUSH2 0x41E PUSH1 0x4 DUP1 CALLDATASIZE SUB DUP2 ADD SWAP1 PUSH2 0x419 SWAP2 SWAP1 PUSH2 0x3FE6 JUMP JUMPDEST PUSH2 0x1BAA JUMP JUMPDEST PUSH1 0x40 MLOAD PUSH2 0x42B SWAP2 SWAP1 PUSH2 0x3BF9 JUMP JUMPDEST PUSH1 0x40 MLOAD DUP1 SWAP2 SUB SWAP1 RETURN JUMPDEST PUSH2 0x43C PUSH2 0x1D14 JUMP JUMPDEST STOP JUMPDEST PUSH2 0x458 PUSH1 0x4 DUP1 CALLDATASIZE SUB DUP2 ADD SWAP1 PUSH2 0x453 SWAP2 SWAP1 PUSH2 0x3FE6 JUMP JUMPDEST PUSH2 0x2025 JUMP JUMPDEST PUSH1 0x40 MLOAD PUSH2 0x465 SWAP2 SWAP1 PUSH2 0x3BF9 JUMP JUMPDEST PUSH1 0x40 MLOAD DUP1 SWAP2 SUB SWAP1 RETURN JUMPDEST PUSH2 0x476 PUSH2 0x21EC JUMP JUMPDEST PUSH1 0x40 MLOAD PUSH2 0x483 SWAP2 SWAP1 PUSH2 0x3C9C JUMP JUMPDEST PUSH1 0x40 MLOAD DUP1 SWAP2 SUB SWAP1 RETURN JUMPDEST PUSH2 0x494 PUSH2 0x21FF JUMP JUMPDEST STOP JUMPDEST PUSH2 0x49E PUSH2 0x259E JUMP JUMPDEST STOP JUMPDEST PUSH2 0x4BA PUSH1 0x4 DUP1 CALLDATASIZE SUB DUP2 ADD SWAP1 PUSH2 0x4B5 SWAP2 SWAP1 PUSH2 0x3C54 JUMP JUMPDEST PUSH2 0x2910 JUMP JUMPDEST PUSH1 0x40 MLOAD PUSH2 0x4C7 SWAP2 SWAP1 PUSH2 0x3C9C JUMP JUMPDEST PUSH1 0x40 MLOAD DUP1 SWAP2 SUB SWAP1 RETURN JUMPDEST PUSH2 0x4D8 PUSH2 0x2922 JUMP JUMPDEST STOP JUMPDEST PUSH2 0x4E2 PUSH2 0x29E3 JUMP JUMPDEST STOP JUMPDEST PUSH2 0x4EC PUSH2 0x2A67 JUMP JUMPDEST PUSH1 0x40 MLOAD PUSH2 0x4F9 SWAP2 SWAP1 PUSH2 0x3BF9 JUMP JUMPDEST PUSH1 0x40 MLOAD DUP1 SWAP2 SUB SWAP1 RETURN JUMPDEST PUSH2 0x50A PUSH2 0x2A6D JUMP JUMPDEST STOP JUMPDEST PUSH2 0x514 PUSH2 0x2D5D JUMP JUMPDEST STOP JUMPDEST PUSH2 0x51E PUSH2 0x2DD9 JUMP JUMPDEST STOP JUMPDEST PUSH2 0x53A PUSH1 0x4 DUP1 CALLDATASIZE SUB DUP2 ADD SWAP1 PUSH2 0x535 SWAP2 SWAP1 PUSH2 0x3C54 JUMP JUMPDEST PUSH2 0x2FFB JUMP JUMPDEST PUSH1 0x40 MLOAD PUSH2 0x547 SWAP2 SWAP1 PUSH2 0x402F JUMP JUMPDEST PUSH1 0x40 MLOAD DUP1 SWAP2 SUB SWAP1 RETURN JUMPDEST PUSH2 0x558 PUSH2 0x309B JUMP JUMPDEST PUSH1 0x40 MLOAD PUSH2 0x565 SWAP2 SWAP1 PUSH2 0x3BF9 JUMP JUMPDEST PUSH1 0x40 MLOAD DUP1 SWAP2 SUB SWAP1 RETURN JUMPDEST PUSH2 0x576 PUSH2 0x30A1 JUMP JUMPDEST STOP JUMPDEST PUSH2 0x580 PUSH2 0x312E JUMP JUMPDEST PUSH1 0x40 MLOAD PUSH2 0x58D SWAP2 SWAP1 PUSH2 0x3C9C JUMP JUMPDEST PUSH1 0x40 MLOAD DUP1 SWAP2 SUB SWAP1 RETURN JUMPDEST PUSH2 0x59E PUSH2 0x3141 JUMP JUMPDEST PUSH1 0x40 MLOAD PUSH2 0x5AB SWAP2 SWAP1 PUSH2 0x402F JUMP JUMPDEST PUSH1 0x40 MLOAD DUP1 SWAP2 SUB SWAP1 RETURN JUMPDEST PUSH2 0x5BC PUSH2 0x31CF JUMP JUMPDEST STOP JUMPDEST PUSH2 0x5C6 PUSH2 0x332F JUMP JUMPDEST STOP JUMPDEST PUSH2 0x5D0 PUSH2 0x354C JUMP JUMPDEST STOP JUMPDEST PUSH2 0x5DA PUSH2 0x3692 JUMP JUMPDEST STOP JUMPDEST PUSH2 0x5E4 PUSH2 0x38D3 JUMP JUMPDEST STOP JUMPDEST PUSH1 0x9 PUSH1 0x1 SWAP1 SLOAD SWAP1 PUSH2 0x100 EXP SWAP1 DIV PUSH1 0xFF AND DUP2 JUMP JUMPDEST PUSH1 0xA SLOAD DUP2 JUMP JUMPDEST ADDRESS PUSH20 0xFFFFFFFFFFFFFFFFFFFFFFFFFFFFFFFFFFFFFFFF AND PUSH4 0x781A38A3 PUSH1 0x40 MLOAD DUP2 PUSH4 0xFFFFFFFF AND PUSH1 0xE0 SHL DUP2 MSTORE PUSH1 0x4 ADD PUSH2 0x636 SWAP1 PUSH2 0x409D JUMP JUMPDEST PUSH1 0x20 PUSH1 0x40 MLOAD DUP1 DUP4 SUB DUP2 PUSH1 0x0 DUP8 GAS CALL SWAP3 POP POP POP DUP1 ISZERO PUSH2 0x672 JUMPI POP PUSH1 0x40 MLOAD RETURNDATASIZE PUSH1 0x1F NOT PUSH1 0x1F DUP3 ADD AND DUP3 ADD DUP1 PUSH1 0x40 MSTORE POP DUP2 ADD SWAP1 PUSH2 0x66F SWAP2 SWAP1 PUSH2 0x40D2 JUMP JUMPDEST PUSH1 0x1 JUMPDEST PUSH2 0x79E JUMPI PUSH2 0x67E PUSH2 0x410C JUMP JUMPDEST DUP1 PUSH4 0x8C379A0 SUB PUSH2 0x71C JUMPI POP PUSH2 0x692 PUSH2 0x412E JUMP JUMPDEST DUP1 PUSH2 0x69D JUMPI POP PUSH2 0x71E JUMP JUMPDEST PUSH20 0x0 PUSH4 0xE8C2CB16 DUP3 PUSH1 0x40 MLOAD DUP3 PUSH4 0xFFFFFFFF AND PUSH1 0xE0 SHL DUP2 MSTORE PUSH1 0x4 ADD PUSH2 0x6D4 SWAP2 SWAP1 PUSH2 0x42EC JUMP JUMPDEST PUSH1 0x20 PUSH1 0x40 MLOAD DUP1 DUP4 SUB DUP2 DUP7 GAS DELEGATECALL ISZERO DUP1 ISZERO PUSH2 0x6F1 JUMPI RETURNDATASIZE PUSH1 0x0 DUP1 RETURNDATACOPY RETURNDATASIZE PUSH1 0x0 REVERT JUMPDEST POP POP POP POP PUSH1 0x40 MLOAD RETURNDATASIZE PUSH1 0x1F NOT PUSH1 0x1F DUP3 ADD AND DUP3 ADD DUP1 PUSH1 0x40 MSTORE POP DUP2 ADD SWAP1 PUSH2 0x715 SWAP2 SWAP1 PUSH2 0x4360 JUMP JUMPDEST POP POP PUSH2 0x799 JUMP JUMPDEST POP JUMPDEST PUSH20 0x0 PUSH4 0x39DF137F PUSH1 0x0 PUSH1 0x40 MLOAD DUP3 PUSH4 0xFFFFFFFF AND PUSH1 0xE0 SHL DUP2 MSTORE PUSH1 0x4 ADD PUSH2 0x756 SWAP2 SWAP1 PUSH2 0x43E8 JUMP JUMPDEST PUSH1 0x20 PUSH1 0x40 MLOAD DUP1 DUP4 SUB DUP2 DUP7 GAS DELEGATECALL ISZERO DUP1 ISZERO PUSH2 0x773 JUMPI RETURNDATASIZE PUSH1 0x0 DUP1 RETURNDATACOPY RETURNDATASIZE PUSH1 0x0 REVERT JUMPDEST POP POP POP POP PUSH1 0x40 MLOAD RETURNDATASIZE PUSH1 0x1F NOT PUSH1 0x1F DUP3 ADD AND DUP3 ADD DUP1 PUSH1 0x40 MSTORE POP DUP2 ADD SWAP1 PUSH2 0x797 SWAP2 SWAP1 PUSH2 0x4360 JUMP JUMPDEST POP JUMPDEST PUSH2 0x81A JUMP JUMPDEST PUSH20 0x0 PUSH4 0x39DF137F PUSH1 0x0 PUSH1 0x40 MLOAD DUP3 PUSH4 0xFFFFFFFF AND PUSH1 0xE0 SHL DUP2 MSTORE PUSH1 0x4 ADD PUSH2 0x7D6 SWAP2 SWAP1 PUSH2 0x4488 JUMP JUMPDEST PUSH1 0x20 PUSH1 0x40 MLOAD DUP1 DUP4 SUB DUP2 DUP7 GAS DELEGATECALL ISZERO DUP1 ISZERO PUSH2 0x7F3 JUMPI RETURNDATASIZE PUSH1 0x0 DUP1 RETURNDATACOPY RETURNDATASIZE PUSH1 0x0 REVERT JUMPDEST POP POP POP POP PUSH1 0x40 MLOAD RETURNDATASIZE PUSH1 0x1F NOT PUSH1 0x1F DUP3 ADD AND DUP3 ADD DUP1 PUSH1 0x40 MSTORE POP DUP2 ADD SWAP1 PUSH2 0x817 SWAP2 SWAP1 PUSH2 0x4360 JUMP JUMPDEST POP POP JUMPDEST JUMP JUMPDEST PUSH1 0x0 PUSH1 0xB PUSH1 0x0 SWAP1 SLOAD SWAP1 PUSH2 0x100 EXP SWAP1 DIV PUSH1 0xFF AND ISZERO PUSH2 0x86E JUMPI PUSH1 0x40 MLOAD PUSH32 0x8C379A000000000000000000000000000000000000000000000000000000000 DUP2 MSTORE PUSH1 0x4 ADD PUSH2 0x865 SWAP1 PUSH2 0x4502 JUMP JUMPDEST PUSH1 0x40 MLOAD DUP1 SWAP2 SUB SWAP1 REVERT JUMPDEST PUSH1 0x1 DUP1 PUSH1 0x2 DUP2 GT ISZERO PUSH2 0x883 JUMPI PUSH2 0x882 PUSH2 0x3B4E JUMP JUMPDEST JUMPDEST PUSH1 0x9 PUSH1 0x1 SWAP1 SLOAD SWAP1 PUSH2 0x100 EXP SWAP1 DIV PUSH1 0xFF AND PUSH1 0x2 DUP2 GT ISZERO PUSH2 0x8A5 JUMPI PUSH2 0x8A4 PUSH2 0x3B4E JUMP JUMPDEST JUMPDEST EQ PUSH2 0x8E5 JUMPI PUSH1 0x40 MLOAD PUSH32 0x8C379A000000000000000000000000000000000000000000000000000000000 DUP2 MSTORE PUSH1 0x4 ADD PUSH2 0x8DC SWAP1 PUSH2 0x4545 JUMP JUMPDEST PUSH1 0x40 MLOAD DUP1 SWAP2 SUB SWAP1 REVERT JUMPDEST PUSH1 0x1 ISZERO ISZERO PUSH1 0x9 PUSH1 0x0 SWAP1 SLOAD SWAP1 PUSH2 0x100 EXP SWAP1 DIV PUSH1 0xFF AND ISZERO ISZERO EQ PUSH2 0x93B JUMPI PUSH1 0x40 MLOAD PUSH32 0x8C379A000000000000000000000000000000000000000000000000000000000 DUP2 MSTORE PUSH1 0x4 ADD PUSH2 0x932 SWAP1 PUSH2 0x45D7 JUMP JUMPDEST PUSH1 0x40 MLOAD DUP1 SWAP2 SUB SWAP1 REVERT JUMPDEST PUSH1 0x0 DUP1 PUSH1 0x0 DUP6 DUP2 MSTORE PUSH1 0x20 ADD SWAP1 DUP2 MSTORE PUSH1 0x20 ADD PUSH1 0x0 KECCAK256 DUP1 SLOAD PUSH2 0x95A SWAP1 PUSH2 0x4626 JUMP JUMPDEST SWAP1 POP SUB PUSH2 0x99C JUMPI PUSH1 0x40 MLOAD PUSH32 0x8C379A000000000000000000000000000000000000000000000000000000000 DUP2 MSTORE PUSH1 0x4 ADD PUSH2 0x993 SWAP1 PUSH2 0x46A3 JUMP JUMPDEST PUSH1 0x40 MLOAD DUP1 SWAP2 SUB SWAP1 REVERT JUMPDEST PUSH1 0xA SLOAD NUMBER GT ISZERO PUSH2 0x9B7 JUMPI PUSH2 0x9AE PUSH2 0x39C6 JUMP JUMPDEST PUSH1 0x0 SWAP2 POP PUSH2 0xC09 JUMP JUMPDEST PUSH1 0x0 PUSH1 0x1 PUSH1 0x0 CALLER PUSH20 0xFFFFFFFFFFFFFFFFFFFFFFFFFFFFFFFFFFFFFFFF AND PUSH20 0xFFFFFFFFFFFFFFFFFFFFFFFFFFFFFFFFFFFFFFFF AND DUP2 MSTORE PUSH1 0x20 ADD SWAP1 DUP2 MSTORE PUSH1 0x20 ADD PUSH1 0x0 KECCAK256 PUSH1 0x0 ADD DUP1 SLOAD PUSH2 0xA06 SWAP1 PUSH2 0x4626 JUMP JUMPDEST SWAP1 POP SUB PUSH2 0xA48 JUMPI PUSH1 0x40 MLOAD PUSH32 0x8C379A000000000000000000000000000000000000000000000000000000000 DUP2 MSTORE PUSH1 0x4 ADD PUSH2 0xA3F SWAP1 PUSH2 0x470F JUMP JUMPDEST PUSH1 0x40 MLOAD DUP1 SWAP2 SUB SWAP1 REVERT JUMPDEST PUSH1 0x1 PUSH1 0x0 CALLER PUSH20 0xFFFFFFFFFFFFFFFFFFFFFFFFFFFFFFFFFFFFFFFF AND PUSH20 0xFFFFFFFFFFFFFFFFFFFFFFFFFFFFFFFFFFFFFFFF AND DUP2 MSTORE PUSH1 0x20 ADD SWAP1 DUP2 MSTORE PUSH1 0x20 ADD PUSH1 0x0 KECCAK256 PUSH1 0x1 ADD PUSH1 0x0 SWAP1 SLOAD SWAP1 PUSH2 0x100 EXP SWAP1 DIV PUSH1 0xFF AND ISZERO PUSH2 0xAD8 JUMPI PUSH1 0x40 MLOAD PUSH32 0x8C379A000000000000000000000000000000000000000000000000000000000 DUP2 MSTORE PUSH1 0x4 ADD PUSH2 0xACF SWAP1 PUSH2 0x477B JUMP JUMPDEST PUSH1 0x40 MLOAD DUP1 SWAP2 SUB SWAP1 REVERT JUMPDEST PUSH1 0x1 SWAP2 POP PUSH1 0x1 DUP1 PUSH1 0x0 CALLER PUSH20 0xFFFFFFFFFFFFFFFFFFFFFFFFFFFFFFFFFFFFFFFF AND PUSH20 0xFFFFFFFFFFFFFFFFFFFFFFFFFFFFFFFFFFFFFFFF AND DUP2 MSTORE PUSH1 0x20 ADD SWAP1 DUP2 MSTORE PUSH1 0x20 ADD PUSH1 0x0 KECCAK256 PUSH1 0x1 ADD PUSH1 0x0 PUSH2 0x100 EXP DUP2 SLOAD DUP2 PUSH1 0xFF MUL NOT AND SWAP1 DUP4 ISZERO ISZERO MUL OR SWAP1 SSTORE POP PUSH1 0x40 MLOAD DUP1 PUSH1 0x40 ADD PUSH1 0x40 MSTORE DUP1 CALLER PUSH20 0xFFFFFFFFFFFFFFFFFFFFFFFFFFFFFFFFFFFFFFFF AND DUP2 MSTORE PUSH1 0x20 ADD DUP5 DUP2 MSTORE POP PUSH1 0x7 PUSH1 0x0 PUSH1 0x4 PUSH1 0x0 DUP2 SLOAD PUSH2 0xB74 SWAP1 PUSH2 0x47CA JUMP JUMPDEST SWAP2 SWAP1 POP DUP2 SWAP1 SSTORE DUP2 MSTORE PUSH1 0x20 ADD SWAP1 DUP2 MSTORE PUSH1 0x20 ADD PUSH1 0x0 KECCAK256 PUSH1 0x0 DUP3 ADD MLOAD DUP2 PUSH1 0x0 ADD PUSH1 0x0 PUSH2 0x100 EXP DUP2 SLOAD DUP2 PUSH20 0xFFFFFFFFFFFFFFFFFFFFFFFFFFFFFFFFFFFFFFFF MUL NOT AND SWAP1 DUP4 PUSH20 0xFFFFFFFFFFFFFFFFFFFFFFFFFFFFFFFFFFFFFFFF AND MUL OR SWAP1 SSTORE POP PUSH1 0x20 DUP3 ADD MLOAD DUP2 PUSH1 0x1 ADD SSTORE SWAP1 POP POP PUSH1 0x1 PUSH1 0x2 PUSH1 0x3 SLOAD PUSH2 0xBED SWAP2 SWAP1 PUSH2 0x4841 JUMP JUMPDEST PUSH2 0xBF7 SWAP2 SWAP1 PUSH2 0x4872 JUMP JUMPDEST PUSH1 0x4 SLOAD LT PUSH2 0xC08 JUMPI PUSH2 0xC07 PUSH2 0x39C6 JUMP JUMPDEST JUMPDEST JUMPDEST POP SWAP2 SWAP1 POP JUMP JUMPDEST PUSH20 0x0 PUSH4 0xABCD7960 PUSH2 0xC67 PUSH1 0x40 MLOAD DUP1 PUSH1 0x40 ADD PUSH1 0x40 MSTORE DUP1 PUSH1 0xE DUP2 MSTORE PUSH1 0x20 ADD PUSH32 0x436F757274796172642043616665000000000000000000000000000000000000 DUP2 MSTORE POP PUSH2 0x1BAA JUMP JUMPDEST PUSH1 0x1 PUSH1 0x40 MLOAD DUP4 PUSH4 0xFFFFFFFF AND PUSH1 0xE0 SHL DUP2 MSTORE PUSH1 0x4 ADD PUSH2 0xC86 SWAP3 SWAP2 SWAP1 PUSH2 0x4946 JUMP JUMPDEST PUSH1 0x20 PUSH1 0x40 MLOAD DUP1 DUP4 SUB DUP2 DUP7 GAS DELEGATECALL ISZERO DUP1 ISZERO PUSH2 0xCA3 JUMPI RETURNDATASIZE PUSH1 0x0 DUP1 RETURNDATACOPY RETURNDATASIZE PUSH1 0x0 REVERT JUMPDEST POP POP POP POP PUSH1 0x40 MLOAD RETURNDATASIZE PUSH1 0x1F NOT PUSH1 0x1F DUP3 ADD AND DUP3 ADD DUP1 PUSH1 0x40 MSTORE POP DUP2 ADD SWAP1 PUSH2 0xCC7 SWAP2 SWAP1 PUSH2 0x4360 JUMP JUMPDEST POP PUSH20 0x0 PUSH4 0xABCD7960 PUSH2 0xD20 PUSH1 0x40 MLOAD DUP1 PUSH1 0x40 ADD PUSH1 0x40 MSTORE DUP1 PUSH1 0x8 DUP2 MSTORE PUSH1 0x20 ADD PUSH32 0x556E692043616665000000000000000000000000000000000000000000000000 DUP2 MSTORE POP PUSH2 0x1BAA JUMP JUMPDEST PUSH1 0x2 PUSH1 0x40 MLOAD DUP4 PUSH4 0xFFFFFFFF AND PUSH1 0xE0 SHL DUP2 MSTORE PUSH1 0x4 ADD PUSH2 0xD3F SWAP3 SWAP2 SWAP1 PUSH2 0x4A09 JUMP JUMPDEST PUSH1 0x20 PUSH1 0x40 MLOAD DUP1 DUP4 SUB DUP2 DUP7 GAS DELEGATECALL ISZERO DUP1 ISZERO PUSH2 0xD5C JUMPI RETURNDATASIZE PUSH1 0x0 DUP1 RETURNDATACOPY RETURNDATASIZE PUSH1 0x0 REVERT JUMPDEST POP POP POP POP PUSH1 0x40 MLOAD RETURNDATASIZE PUSH1 0x1F NOT PUSH1 0x1F DUP3 ADD AND DUP3 ADD DUP1 PUSH1 0x40 MSTORE POP DUP2 ADD SWAP1 PUSH2 0xD80 SWAP2 SWAP1 PUSH2 0x4360 JUMP JUMPDEST POP JUMP JUMPDEST PUSH1 0x1 PUSH1 0x20 MSTORE DUP1 PUSH1 0x0 MSTORE PUSH1 0x40 PUSH1 0x0 KECCAK256 PUSH1 0x0 SWAP2 POP SWAP1 POP DUP1 PUSH1 0x0 ADD DUP1 SLOAD PUSH2 0xDA6 SWAP1 PUSH2 0x4626 JUMP JUMPDEST DUP1 PUSH1 0x1F ADD PUSH1 0x20 DUP1 SWAP2 DIV MUL PUSH1 0x20 ADD PUSH1 0x40 MLOAD SWAP1 DUP2 ADD PUSH1 0x40 MSTORE DUP1 SWAP3 SWAP2 SWAP1 DUP2 DUP2 MSTORE PUSH1 0x20 ADD DUP3 DUP1 SLOAD PUSH2 0xDD2 SWAP1 PUSH2 0x4626 JUMP JUMPDEST DUP1 ISZERO PUSH2 0xE1F JUMPI DUP1 PUSH1 0x1F LT PUSH2 0xDF4 JUMPI PUSH2 0x100 DUP1 DUP4 SLOAD DIV MUL DUP4 MSTORE SWAP2 PUSH1 0x20 ADD SWAP2 PUSH2 0xE1F JUMP JUMPDEST DUP3 ADD SWAP2 SWAP1 PUSH1 0x0 MSTORE PUSH1 0x20 PUSH1 0x0 KECCAK256 SWAP1 JUMPDEST DUP2 SLOAD DUP2 MSTORE SWAP1 PUSH1 0x1 ADD SWAP1 PUSH1 0x20 ADD DUP1 DUP4 GT PUSH2 0xE02 JUMPI DUP3 SWAP1 SUB PUSH1 0x1F AND DUP3 ADD SWAP2 JUMPDEST POP POP POP POP POP SWAP1 DUP1 PUSH1 0x1 ADD PUSH1 0x0 SWAP1 SLOAD SWAP1 PUSH2 0x100 EXP SWAP1 DIV PUSH1 0xFF AND SWAP1 POP DUP3 JUMP JUMPDEST PUSH20 0x0 PUSH4 0x39DF137F PUSH2 0xE60 PUSH1 0x2 PUSH2 0x81C JUMP JUMPDEST PUSH1 0x40 MLOAD DUP3 PUSH4 0xFFFFFFFF AND PUSH1 0xE0 SHL DUP2 MSTORE PUSH1 0x4 ADD PUSH2 0xE7C SWAP2 SWAP1 PUSH2 0x4A91 JUMP JUMPDEST PUSH1 0x20 PUSH1 0x40 MLOAD DUP1 DUP4 SUB DUP2 DUP7 GAS DELEGATECALL ISZERO DUP1 ISZERO PUSH2 0xE99 JUMPI RETURNDATASIZE PUSH1 0x0 DUP1 RETURNDATACOPY RETURNDATASIZE PUSH1 0x0 REVERT JUMPDEST POP POP POP POP PUSH1 0x40 MLOAD RETURNDATASIZE PUSH1 0x1F NOT PUSH1 0x1F DUP3 ADD AND DUP3 ADD DUP1 PUSH1 0x40 MSTORE POP DUP2 ADD SWAP1 PUSH2 0xEBD SWAP2 SWAP1 PUSH2 0x4360 JUMP JUMPDEST POP JUMP JUMPDEST PUSH1 0x0 PUSH1 0x1 PUSH1 0x0 CALLER PUSH20 0xFFFFFFFFFFFFFFFFFFFFFFFFFFFFFFFFFFFFFFFF AND PUSH20 0xFFFFFFFFFFFFFFFFFFFFFFFFFFFFFFFFFFFFFFFF AND DUP2 MSTORE PUSH1 0x20 ADD SWAP1 DUP2 MSTORE PUSH1 0x20 ADD PUSH1 0x0 KECCAK256 PUSH1 0x40 MLOAD DUP1 PUSH1 0x40 ADD PUSH1 0x40 MSTORE SWAP1 DUP2 PUSH1 0x0 DUP3 ADD DUP1 SLOAD PUSH2 0xF1C SWAP1 PUSH2 0x4626 JUMP JUMPDEST DUP1 PUSH1 0x1F ADD PUSH1 0x20 DUP1 SWAP2 DIV MUL PUSH1 0x20 ADD PUSH1 0x40 MLOAD SWAP1 DUP2 ADD PUSH1 0x40 MSTORE DUP1 SWAP3 SWAP2 SWAP1 DUP2 DUP2 MSTORE PUSH1 0x20 ADD DUP3 DUP1 SLOAD PUSH2 0xF48 SWAP1 PUSH2 0x4626 JUMP JUMPDEST DUP1 ISZERO PUSH2 0xF95 JUMPI DUP1 PUSH1 0x1F LT PUSH2 0xF6A JUMPI PUSH2 0x100 DUP1 DUP4 SLOAD DIV MUL DUP4 MSTORE SWAP2 PUSH1 0x20 ADD SWAP2 PUSH2 0xF95 JUMP JUMPDEST DUP3 ADD SWAP2 SWAP1 PUSH1 0x0 MSTORE PUSH1 0x20 PUSH1 0x0 KECCAK256 SWAP1 JUMPDEST DUP2 SLOAD DUP2 MSTORE SWAP1 PUSH1 0x1 ADD SWAP1 PUSH1 0x20 ADD DUP1 DUP4 GT PUSH2 0xF78 JUMPI DUP3 SWAP1 SUB PUSH1 0x1F AND DUP3 ADD SWAP2 JUMPDEST POP POP POP POP POP DUP2 MSTORE PUSH1 0x20 ADD PUSH1 0x1 DUP3 ADD PUSH1 0x0 SWAP1 SLOAD SWAP1 PUSH2 0x100 EXP SWAP1 DIV PUSH1 0xFF AND ISZERO ISZERO ISZERO ISZERO DUP2 MSTORE POP POP SWAP1 POP PUSH20 0x0 PUSH4 0x767392B3 DUP3 PUSH1 0x20 ADD MLOAD PUSH1 0x1 PUSH1 0x40 MLOAD DUP4 PUSH4 0xFFFFFFFF AND PUSH1 0xE0 SHL DUP2 MSTORE PUSH1 0x4 ADD PUSH2 0xFF9 SWAP3 SWAP2 SWAP1 PUSH2 0x4B0B JUMP JUMPDEST PUSH1 0x20 PUSH1 0x40 MLOAD DUP1 DUP4 SUB DUP2 DUP7 GAS DELEGATECALL ISZERO DUP1 ISZERO PUSH2 0x1016 JUMPI RETURNDATASIZE PUSH1 0x0 DUP1 RETURNDATACOPY RETURNDATASIZE PUSH1 0x0 REVERT JUMPDEST POP POP POP POP PUSH1 0x40 MLOAD RETURNDATASIZE PUSH1 0x1F NOT PUSH1 0x1F DUP3 ADD AND DUP3 ADD DUP1 PUSH1 0x40 MSTORE POP DUP2 ADD SWAP1 PUSH2 0x103A SWAP2 SWAP1 PUSH2 0x4360 JUMP JUMPDEST POP PUSH1 0x0 PUSH1 0x4 SLOAD SWAP1 POP PUSH1 0x0 ADDRESS PUSH20 0xFFFFFFFFFFFFFFFFFFFFFFFFFFFFFFFFFFFFFFFF AND PUSH4 0x8F43F134 PUSH1 0x2 PUSH1 0x40 MLOAD DUP3 PUSH4 0xFFFFFFFF AND PUSH1 0xE0 SHL DUP2 MSTORE PUSH1 0x4 ADD PUSH2 0x107E SWAP2 SWAP1 PUSH2 0x4B56 JUMP JUMPDEST PUSH1 0x20 PUSH1 0x40 MLOAD DUP1 DUP4 SUB DUP2 PUSH1 0x0 DUP8 GAS CALL SWAP3 POP POP POP DUP1 ISZERO PUSH2 0x10BA JUMPI POP PUSH1 0x40 MLOAD RETURNDATASIZE PUSH1 0x1F NOT PUSH1 0x1F DUP3 ADD AND DUP3 ADD DUP1 PUSH1 0x40 MSTORE POP DUP2 ADD SWAP1 PUSH2 0x10B7 SWAP2 SWAP1 PUSH2 0x4360 JUMP JUMPDEST PUSH1 0x1 JUMPDEST ISZERO PUSH2 0x10C4 JUMPI DUP1 SWAP2 POP POP JUMPDEST PUSH20 0x0 PUSH4 0x767392B3 DUP3 PUSH1 0x0 PUSH1 0x40 MLOAD DUP4 PUSH4 0xFFFFFFFF AND PUSH1 0xE0 SHL DUP2 MSTORE PUSH1 0x4 ADD PUSH2 0x10FE SWAP3 SWAP2 SWAP1 PUSH2 0x4BE3 JUMP JUMPDEST PUSH1 0x20 PUSH1 0x40 MLOAD DUP1 DUP4 SUB DUP2 DUP7 GAS DELEGATECALL ISZERO DUP1 ISZERO PUSH2 0x111B JUMPI RETURNDATASIZE PUSH1 0x0 DUP1 RETURNDATACOPY RETURNDATASIZE PUSH1 0x0 REVERT JUMPDEST POP POP POP POP PUSH1 0x40 MLOAD RETURNDATASIZE PUSH1 0x1F NOT PUSH1 0x1F DUP3 ADD AND DUP3 ADD DUP1 PUSH1 0x40 MSTORE POP DUP2 ADD SWAP1 PUSH2 0x113F SWAP2 SWAP1 PUSH2 0x4360 JUMP JUMPDEST POP PUSH20 0x0 PUSH4 0xABCD7960 PUSH1 0x4 SLOAD DUP5 PUSH1 0x40 MLOAD DUP4 PUSH4 0xFFFFFFFF AND PUSH1 0xE0 SHL DUP2 MSTORE PUSH1 0x4 ADD PUSH2 0x117B SWAP3 SWAP2 SWAP1 PUSH2 0x4C6B JUMP JUMPDEST PUSH1 0x20 PUSH1 0x40 MLOAD DUP1 DUP4 SUB DUP2 DUP7 GAS DELEGATECALL ISZERO DUP1 ISZERO PUSH2 0x1198 JUMPI RETURNDATASIZE PUSH1 0x0 DUP1 RETURNDATACOPY RETURNDATASIZE PUSH1 0x0 REVERT JUMPDEST POP POP POP POP PUSH1 0x40 MLOAD RETURNDATASIZE PUSH1 0x1F NOT PUSH1 0x1F DUP3 ADD AND DUP3 ADD DUP1 PUSH1 0x40 MSTORE POP DUP2 ADD SWAP1 PUSH2 0x11BC SWAP2 SWAP1 PUSH2 0x4360 JUMP JUMPDEST POP POP POP POP JUMP JUMPDEST PUSH1 0x0 PUSH1 0xB PUSH1 0x0 SWAP1 SLOAD SWAP1 PUSH2 0x100 EXP SWAP1 DIV PUSH1 0xFF AND ISZERO PUSH2 0x1214 JUMPI PUSH1 0x40 MLOAD PUSH32 0x8C379A000000000000000000000000000000000000000000000000000000000 DUP2 MSTORE PUSH1 0x4 ADD PUSH2 0x120B SWAP1 PUSH2 0x4502 JUMP JUMPDEST PUSH1 0x40 MLOAD DUP1 SWAP2 SUB SWAP1 REVERT JUMPDEST PUSH1 0x0 DUP1 PUSH1 0x2 DUP2 GT ISZERO PUSH2 0x1229 JUMPI PUSH2 0x1228 PUSH2 0x3B4E JUMP JUMPDEST JUMPDEST PUSH1 0x9 PUSH1 0x1 SWAP1 SLOAD SWAP1 PUSH2 0x100 EXP SWAP1 DIV PUSH1 0xFF AND PUSH1 0x2 DUP2 GT ISZERO PUSH2 0x124B JUMPI PUSH2 0x124A PUSH2 0x3B4E JUMP JUMPDEST JUMPDEST EQ PUSH2 0x128B JUMPI PUSH1 0x40 MLOAD PUSH32 0x8C379A000000000000000000000000000000000000000000000000000000000 DUP2 MSTORE PUSH1 0x4 ADD PUSH2 0x1282 SWAP1 PUSH2 0x4545 JUMP JUMPDEST PUSH1 0x40 MLOAD DUP1 SWAP2 SUB SWAP1 REVERT JUMPDEST PUSH1 0x0 PUSH1 0x1 PUSH1 0x0 DUP7 PUSH20 0xFFFFFFFFFFFFFFFFFFFFFFFFFFFFFFFFFFFFFFFF AND PUSH20 0xFFFFFFFFFFFFFFFFFFFFFFFFFFFFFFFFFFFFFFFF AND DUP2 MSTORE PUSH1 0x20 ADD SWAP1 DUP2 MSTORE PUSH1 0x20 ADD PUSH1 0x0 KECCAK256 PUSH1 0x0 ADD DUP1 SLOAD PUSH2 0x12DA SWAP1 PUSH2 0x4626 JUMP JUMPDEST SWAP1 POP EQ PUSH2 0x131C JUMPI PUSH1 0x40 MLOAD PUSH32 0x8C379A000000000000000000000000000000000000000000000000000000000 DUP2 MSTORE PUSH1 0x4 ADD PUSH2 0x1313 SWAP1 PUSH2 0x4CF3 JUMP JUMPDEST PUSH1 0x40 MLOAD DUP1 SWAP2 SUB SWAP1 REVERT JUMPDEST PUSH1 0x0 DUP4 MLOAD GT PUSH2 0x1360 JUMPI PUSH1 0x40 MLOAD PUSH32 0x8C379A000000000000000000000000000000000000000000000000000000000 DUP2 MSTORE PUSH1 0x4 ADD PUSH2 0x1357 SWAP1 PUSH2 0x4D5F JUMP JUMPDEST PUSH1 0x40 MLOAD DUP1 SWAP2 SUB SWAP1 REVERT JUMPDEST PUSH2 0x1368 PUSH2 0x3B32 JUMP JUMPDEST DUP4 DUP2 PUSH1 0x0 ADD DUP2 SWAP1 MSTORE POP PUSH1 0x0 DUP2 PUSH1 0x20 ADD SWAP1 ISZERO ISZERO SWAP1 DUP2 ISZERO ISZERO DUP2 MSTORE POP POP DUP1 PUSH1 0x1 PUSH1 0x0 DUP8 PUSH20 0xFFFFFFFFFFFFFFFFFFFFFFFFFFFFFFFFFFFFFFFF AND PUSH20 0xFFFFFFFFFFFFFFFFFFFFFFFFFFFFFFFFFFFFFFFF AND DUP2 MSTORE PUSH1 0x20 ADD SWAP1 DUP2 MSTORE PUSH1 0x20 ADD PUSH1 0x0 KECCAK256 PUSH1 0x0 DUP3 ADD MLOAD DUP2 PUSH1 0x0 ADD SWAP1 DUP2 PUSH2 0x13D7 SWAP2 SWAP1 PUSH2 0x4F21 JUMP JUMPDEST POP PUSH1 0x20 DUP3 ADD MLOAD DUP2 PUSH1 0x1 ADD PUSH1 0x0 PUSH2 0x100 EXP DUP2 SLOAD DUP2 PUSH1 0xFF MUL NOT AND SWAP1 DUP4 ISZERO ISZERO MUL OR SWAP1 SSTORE POP SWAP1 POP POP PUSH1 0x3 PUSH1 0x0 DUP2 SLOAD DUP1 SWAP3 SWAP2 SWAP1 PUSH2 0x140E SWAP1 PUSH2 0x47CA JUMP JUMPDEST SWAP2 SWAP1 POP SSTORE POP PUSH1 0x3 SLOAD SWAP3 POP POP POP SWAP3 SWAP2 POP POP JUMP JUMPDEST PUSH1 0x0 PUSH1 0xB PUSH1 0x0 SWAP1 SLOAD SWAP1 PUSH2 0x100 EXP SWAP1 DIV PUSH1 0xFF AND ISZERO PUSH2 0x1472 JUMPI PUSH1 0x40 MLOAD PUSH32 0x8C379A000000000000000000000000000000000000000000000000000000000 DUP2 MSTORE PUSH1 0x4 ADD PUSH2 0x1469 SWAP1 PUSH2 0x4502 JUMP JUMPDEST PUSH1 0x40 MLOAD DUP1 SWAP2 SUB SWAP1 REVERT JUMPDEST PUSH1 0x5 PUSH1 0x0 SWAP1 SLOAD SWAP1 PUSH2 0x100 EXP SWAP1 DIV PUSH20 0xFFFFFFFFFFFFFFFFFFFFFFFFFFFFFFFFFFFFFFFF AND PUSH20 0xFFFFFFFFFFFFFFFFFFFFFFFFFFFFFFFFFFFFFFFF AND CALLER PUSH20 0xFFFFFFFFFFFFFFFFFFFFFFFFFFFFFFFFFFFFFFFF AND EQ PUSH2 0x1502 JUMPI PUSH1 0x40 MLOAD PUSH32 0x8C379A000000000000000000000000000000000000000000000000000000000 DUP2 MSTORE PUSH1 0x4 ADD PUSH2 0x14F9 SWAP1 PUSH2 0x5065 JUMP JUMPDEST PUSH1 0x40 MLOAD DUP1 SWAP2 SUB SWAP1 REVERT JUMPDEST PUSH1 0x0 DUP1 PUSH1 0x2 DUP2 GT ISZERO PUSH2 0x1517 JUMPI PUSH2 0x1516 PUSH2 0x3B4E JUMP JUMPDEST JUMPDEST PUSH1 0x9 PUSH1 0x1 SWAP1 SLOAD SWAP1 PUSH2 0x100 EXP SWAP1 DIV PUSH1 0xFF AND PUSH1 0x2 DUP2 GT ISZERO PUSH2 0x1539 JUMPI PUSH2 0x1538 PUSH2 0x3B4E JUMP JUMPDEST JUMPDEST EQ PUSH2 0x1579 JUMPI PUSH1 0x40 MLOAD PUSH32 0x8C379A000000000000000000000000000000000000000000000000000000000 DUP2 MSTORE PUSH1 0x4 ADD PUSH2 0x1570 SWAP1 PUSH2 0x4545 JUMP JUMPDEST PUSH1 0x40 MLOAD DUP1 SWAP2 SUB SWAP1 REVERT JUMPDEST PUSH2 0x1583 DUP5 DUP5 PUSH2 0x11C2 JUMP JUMPDEST SWAP2 POP POP SWAP3 SWAP2 POP POP JUMP JUMPDEST PUSH1 0xB PUSH1 0x0 SWAP1 SLOAD SWAP1 PUSH2 0x100 EXP SWAP1 DIV PUSH1 0xFF AND ISZERO PUSH2 0x15DC JUMPI PUSH1 0x40 MLOAD PUSH32 0x8C379A000000000000000000000000000000000000000000000000000000000 DUP2 MSTORE PUSH1 0x4 ADD PUSH2 0x15D3 SWAP1 PUSH2 0x4502 JUMP JUMPDEST PUSH1 0x40 MLOAD DUP1 SWAP2 SUB SWAP1 REVERT JUMPDEST PUSH1 0x5 PUSH1 0x0 SWAP1 SLOAD SWAP1 PUSH2 0x100 EXP SWAP1 DIV PUSH20 0xFFFFFFFFFFFFFFFFFFFFFFFFFFFFFFFFFFFFFFFF AND PUSH20 0xFFFFFFFFFFFFFFFFFFFFFFFFFFFFFFFFFFFFFFFF AND CALLER PUSH20 0xFFFFFFFFFFFFFFFFFFFFFFFFFFFFFFFFFFFFFFFF AND EQ PUSH2 0x166C JUMPI PUSH1 0x40 MLOAD PUSH32 0x8C379A000000000000000000000000000000000000000000000000000000000 DUP2 MSTORE PUSH1 0x4 ADD PUSH2 0x1663 SWAP1 PUSH2 0x5065 JUMP JUMPDEST PUSH1 0x40 MLOAD DUP1 SWAP2 SUB SWAP1 REVERT JUMPDEST PUSH1 0x0 DUP1 PUSH1 0x2 DUP2 GT ISZERO PUSH2 0x1681 JUMPI PUSH2 0x1680 PUSH2 0x3B4E JUMP JUMPDEST JUMPDEST PUSH1 0x9 PUSH1 0x1 SWAP1 SLOAD SWAP1 PUSH2 0x100 EXP SWAP1 DIV PUSH1 0xFF AND PUSH1 0x2 DUP2 GT ISZERO PUSH2 0x16A3 JUMPI PUSH2 0x16A2 PUSH2 0x3B4E JUMP JUMPDEST JUMPDEST EQ PUSH2 0x16E3 JUMPI PUSH1 0x40 MLOAD PUSH32 0x8C379A000000000000000000000000000000000000000000000000000000000 DUP2 MSTORE PUSH1 0x4 ADD PUSH2 0x16DA SWAP1 PUSH2 0x4545 JUMP JUMPDEST PUSH1 0x40 MLOAD DUP1 SWAP2 SUB SWAP1 REVERT JUMPDEST PUSH1 0x1 PUSH1 0x2 SLOAD GT PUSH2 0x1728 JUMPI PUSH1 0x40 MLOAD PUSH32 0x8C379A000000000000000000000000000000000000000000000000000000000 DUP2 MSTORE PUSH1 0x4 ADD PUSH2 0x171F SWAP1 PUSH2 0x50F7 JUMP JUMPDEST PUSH1 0x40 MLOAD DUP1 SWAP2 SUB SWAP1 REVERT JUMPDEST PUSH1 0x1 PUSH1 0x3 SLOAD GT PUSH2 0x176D JUMPI PUSH1 0x40 MLOAD PUSH32 0x8C379A000000000000000000000000000000000000000000000000000000000 DUP2 MSTORE PUSH1 0x4 ADD PUSH2 0x1764 SWAP1 PUSH2 0x5189 JUMP JUMPDEST PUSH1 0x40 MLOAD DUP1 SWAP2 SUB SWAP1 REVERT JUMPDEST DUP2 NUMBER PUSH2 0x1779 SWAP2 SWAP1 PUSH2 0x4872 JUMP JUMPDEST PUSH1 0xA DUP2 SWAP1 SSTORE POP PUSH1 0x1 PUSH1 0x9 PUSH1 0x1 PUSH2 0x100 EXP DUP2 SLOAD DUP2 PUSH1 0xFF MUL NOT AND SWAP1 DUP4 PUSH1 0x2 DUP2 GT ISZERO PUSH2 0x17A5 JUMPI PUSH2 0x17A4 PUSH2 0x3B4E JUMP JUMPDEST JUMPDEST MUL OR SWAP1 SSTORE POP PUSH1 0x1 PUSH1 0x9 PUSH1 0x0 PUSH2 0x100 EXP DUP2 SLOAD DUP2 PUSH1 0xFF MUL NOT AND SWAP1 DUP4 ISZERO ISZERO MUL OR SWAP1 SSTORE POP POP POP JUMP JUMPDEST PUSH1 0x3 SLOAD DUP2 JUMP JUMPDEST PUSH1 0x5 PUSH1 0x0 SWAP1 SLOAD SWAP1 PUSH2 0x100 EXP SWAP1 DIV PUSH20 0xFFFFFFFFFFFFFFFFFFFFFFFFFFFFFFFFFFFFFFFF AND DUP2 JUMP JUMPDEST ADDRESS PUSH20 0xFFFFFFFFFFFFFFFFFFFFFFFFFFFFFFFFFFFFFFFF AND PUSH4 0x6D77BD3E PUSH1 0x40 MLOAD DUP2 PUSH4 0xFFFFFFFF AND PUSH1 0xE0 SHL DUP2 MSTORE PUSH1 0x4 ADD PUSH2 0x182C SWAP1 PUSH2 0x51F5 JUMP JUMPDEST PUSH1 0x20 PUSH1 0x40 MLOAD DUP1 DUP4 SUB DUP2 PUSH1 0x0 DUP8 GAS CALL SWAP3 POP POP POP DUP1 ISZERO PUSH2 0x1868 JUMPI POP PUSH1 0x40 MLOAD RETURNDATASIZE PUSH1 0x1F NOT PUSH1 0x1F DUP3 ADD AND DUP3 ADD DUP1 PUSH1 0x40 MSTORE POP DUP2 ADD SWAP1 PUSH2 0x1865 SWAP2 SWAP1 PUSH2 0x40D2 JUMP JUMPDEST PUSH1 0x1 JUMPDEST PUSH2 0x1A62 JUMPI PUSH2 0x1874 PUSH2 0x410C JUMP JUMPDEST DUP1 PUSH4 0x8C379A0 SUB PUSH2 0x1912 JUMPI POP PUSH2 0x1888 PUSH2 0x412E JUMP JUMPDEST DUP1 PUSH2 0x1893 JUMPI POP PUSH2 0x19AF JUMP JUMPDEST PUSH20 0x0 PUSH4 0xE8C2CB16 DUP3 PUSH1 0x40 MLOAD DUP3 PUSH4 0xFFFFFFFF AND PUSH1 0xE0 SHL DUP2 MSTORE PUSH1 0x4 ADD PUSH2 0x18CA SWAP2 SWAP1 PUSH2 0x5284 JUMP JUMPDEST PUSH1 0x20 PUSH1 0x40 MLOAD DUP1 DUP4 SUB DUP2 DUP7 GAS DELEGATECALL ISZERO DUP1 ISZERO PUSH2 0x18E7 JUMPI RETURNDATASIZE PUSH1 0x0 DUP1 RETURNDATACOPY RETURNDATASIZE PUSH1 0x0 REVERT JUMPDEST POP POP POP POP PUSH1 0x40 MLOAD RETURNDATASIZE PUSH1 0x1F NOT PUSH1 0x1F DUP3 ADD AND DUP3 ADD DUP1 PUSH1 0x40 MSTORE POP DUP2 ADD SWAP1 PUSH2 0x190B SWAP2 SWAP1 PUSH2 0x4360 JUMP JUMPDEST POP POP PUSH2 0x1A5D JUMP JUMPDEST PUSH4 0x4E487B71 SUB PUSH2 0x19AF JUMPI PUSH2 0x1924 PUSH2 0x52CC JUMP JUMPDEST SWAP1 PUSH2 0x192F JUMPI POP PUSH2 0x19AF JUMP JUMPDEST PUSH20 0x0 PUSH4 0x39DF137F PUSH1 0x0 PUSH1 0x40 MLOAD DUP3 PUSH4 0xFFFFFFFF AND PUSH1 0xE0 SHL DUP2 MSTORE PUSH1 0x4 ADD PUSH2 0x1967 SWAP2 SWAP1 PUSH2 0x535F JUMP JUMPDEST PUSH1 0x20 PUSH1 0x40 MLOAD DUP1 DUP4 SUB DUP2 DUP7 GAS DELEGATECALL ISZERO DUP1 ISZERO PUSH2 0x1984 JUMPI RETURNDATASIZE PUSH1 0x0 DUP1 RETURNDATACOPY RETURNDATASIZE PUSH1 0x0 REVERT JUMPDEST POP POP POP POP PUSH1 0x40 MLOAD RETURNDATASIZE PUSH1 0x1F NOT PUSH1 0x1F DUP3 ADD AND DUP3 ADD DUP1 PUSH1 0x40 MSTORE POP DUP2 ADD SWAP1 PUSH2 0x19A8 SWAP2 SWAP1 PUSH2 0x4360 JUMP JUMPDEST POP POP PUSH2 0x1A5D JUMP JUMPDEST RETURNDATASIZE DUP1 PUSH1 0x0 DUP2 EQ PUSH2 0x19DB JUMPI PUSH1 0x40 MLOAD SWAP2 POP PUSH1 0x1F NOT PUSH1 0x3F RETURNDATASIZE ADD AND DUP3 ADD PUSH1 0x40 MSTORE RETURNDATASIZE DUP3 MSTORE RETURNDATASIZE PUSH1 0x0 PUSH1 0x20 DUP5 ADD RETURNDATACOPY PUSH2 0x19E0 JUMP JUMPDEST PUSH1 0x60 SWAP2 POP JUMPDEST POP PUSH20 0x0 PUSH4 0x39DF137F PUSH1 0x0 PUSH1 0x40 MLOAD DUP3 PUSH4 0xFFFFFFFF AND PUSH1 0xE0 SHL DUP2 MSTORE PUSH1 0x4 ADD PUSH2 0x1A19 SWAP2 SWAP1 PUSH2 0x53D9 JUMP JUMPDEST PUSH1 0x20 PUSH1 0x40 MLOAD DUP1 DUP4 SUB DUP2 DUP7 GAS DELEGATECALL ISZERO DUP1 ISZERO PUSH2 0x1A36 JUMPI RETURNDATASIZE PUSH1 0x0 DUP1 RETURNDATACOPY RETURNDATASIZE PUSH1 0x0 REVERT JUMPDEST POP POP POP POP PUSH1 0x40 MLOAD RETURNDATASIZE PUSH1 0x1F NOT PUSH1 0x1F DUP3 ADD AND DUP3 ADD DUP1 PUSH1 0x40 MSTORE POP DUP2 ADD SWAP1 PUSH2 0x1A5A SWAP2 SWAP1 PUSH2 0x4360 JUMP JUMPDEST POP POP JUMPDEST PUSH2 0x1AE0 JUMP JUMPDEST PUSH20 0x0 PUSH4 0x561015E2 DUP3 PUSH1 0x3 PUSH1 0x40 MLOAD DUP4 PUSH4 0xFFFFFFFF AND PUSH1 0xE0 SHL DUP2 MSTORE PUSH1 0x4 ADD PUSH2 0x1A9C SWAP3 SWAP2 SWAP1 PUSH2 0x548E JUMP JUMPDEST PUSH1 0x20 PUSH1 0x40 MLOAD DUP1 DUP4 SUB DUP2 DUP7 GAS DELEGATECALL ISZERO DUP1 ISZERO PUSH2 0x1AB9 JUMPI RETURNDATASIZE PUSH1 0x0 DUP1 RETURNDATACOPY RETURNDATASIZE PUSH1 0x0 REVERT JUMPDEST POP POP POP POP PUSH1 0x40 MLOAD RETURNDATASIZE PUSH1 0x1F NOT PUSH1 0x1F DUP3 ADD AND DUP3 ADD DUP1 PUSH1 0x40 MSTORE POP DUP2 ADD SWAP1 PUSH2 0x1ADD SWAP2 SWAP1 PUSH2 0x4360 JUMP JUMPDEST POP POP JUMPDEST JUMP JUMPDEST PUSH1 0x7 PUSH1 0x20 MSTORE DUP1 PUSH1 0x0 MSTORE PUSH1 0x40 PUSH1 0x0 KECCAK256 PUSH1 0x0 SWAP2 POP SWAP1 POP DUP1 PUSH1 0x0 ADD PUSH1 0x0 SWAP1 SLOAD SWAP1 PUSH2 0x100 EXP SWAP1 DIV PUSH20 0xFFFFFFFFFFFFFFFFFFFFFFFFFFFFFFFFFFFFFFFF AND SWAP1 DUP1 PUSH1 0x1 ADD SLOAD SWAP1 POP DUP3 JUMP JUMPDEST PUSH20 0x0 PUSH4 0x39DF137F PUSH2 0x1B4A PUSH1 0x2 PUSH2 0x81C JUMP JUMPDEST PUSH1 0x40 MLOAD DUP3 PUSH4 0xFFFFFFFF AND PUSH1 0xE0 SHL DUP2 MSTORE PUSH1 0x4 ADD PUSH2 0x1B66 SWAP2 SWAP1 PUSH2 0x4A91 JUMP JUMPDEST PUSH1 0x20 PUSH1 0x40 MLOAD DUP1 DUP4 SUB DUP2 DUP7 GAS DELEGATECALL ISZERO DUP1 ISZERO PUSH2 0x1B83 JUMPI RETURNDATASIZE PUSH1 0x0 DUP1 RETURNDATACOPY RETURNDATASIZE PUSH1 0x0 REVERT JUMPDEST POP POP POP POP PUSH1 0x40 MLOAD RETURNDATASIZE PUSH1 0x1F NOT PUSH1 0x1F DUP3 ADD AND DUP3 ADD DUP1 PUSH1 0x40 MSTORE POP DUP2 ADD SWAP1 PUSH2 0x1BA7 SWAP2 SWAP1 PUSH2 0x4360 JUMP JUMPDEST POP JUMP JUMPDEST PUSH1 0x0 PUSH1 0xB PUSH1 0x0 SWAP1 SLOAD SWAP1 PUSH2 0x100 EXP SWAP1 DIV PUSH1 0xFF AND ISZERO PUSH2 0x1BFC JUMPI PUSH1 0x40 MLOAD PUSH32 0x8C379A000000000000000000000000000000000000000000000000000000000 DUP2 MSTORE PUSH1 0x4 ADD PUSH2 0x1BF3 SWAP1 PUSH2 0x4502 JUMP JUMPDEST PUSH1 0x40 MLOAD DUP1 SWAP2 SUB SWAP1 REVERT JUMPDEST PUSH1 0x5 PUSH1 0x0 SWAP1 SLOAD SWAP1 PUSH2 0x100 EXP SWAP1 DIV PUSH20 0xFFFFFFFFFFFFFFFFFFFFFFFFFFFFFFFFFFFFFFFF AND PUSH20 0xFFFFFFFFFFFFFFFFFFFFFFFFFFFFFFFFFFFFFFFF AND CALLER PUSH20 0xFFFFFFFFFFFFFFFFFFFFFFFFFFFFFFFFFFFFFFFF AND EQ PUSH2 0x1C8C JUMPI PUSH1 0x40 MLOAD PUSH32 0x8C379A000000000000000000000000000000000000000000000000000000000 DUP2 MSTORE PUSH1 0x4 ADD PUSH2 0x1C83 SWAP1 PUSH2 0x5065 JUMP JUMPDEST PUSH1 0x40 MLOAD DUP1 SWAP2 SUB SWAP1 REVERT JUMPDEST PUSH1 0x0 DUP1 PUSH1 0x2 DUP2 GT ISZERO PUSH2 0x1CA1 JUMPI PUSH2 0x1CA0 PUSH2 0x3B4E JUMP JUMPDEST JUMPDEST PUSH1 0x9 PUSH1 0x1 SWAP1 SLOAD SWAP1 PUSH2 0x100 EXP SWAP1 DIV PUSH1 0xFF AND PUSH1 0x2 DUP2 GT ISZERO PUSH2 0x1CC3 JUMPI PUSH2 0x1CC2 PUSH2 0x3B4E JUMP JUMPDEST JUMPDEST EQ PUSH2 0x1D03 JUMPI PUSH1 0x40 MLOAD PUSH32 0x8C379A000000000000000000000000000000000000000000000000000000000 DUP2 MSTORE PUSH1 0x4 ADD PUSH2 0x1CFA SWAP1 PUSH2 0x4545 JUMP JUMPDEST PUSH1 0x40 MLOAD DUP1 SWAP2 SUB SWAP1 REVERT JUMPDEST PUSH2 0x1D0C DUP4 PUSH2 0x2025 JUMP JUMPDEST SWAP2 POP POP SWAP2 SWAP1 POP JUMP JUMPDEST ADDRESS PUSH20 0xFFFFFFFFFFFFFFFFFFFFFFFFFFFFFFFFFFFFFFFF AND PUSH4 0x3B9F708D PUSH1 0x11 PUSH1 0x0 SWAP1 SLOAD SWAP1 PUSH2 0x100 EXP SWAP1 DIV PUSH20 0xFFFFFFFFFFFFFFFFFFFFFFFFFFFFFFFFFFFFFFFF AND PUSH1 0x40 MLOAD DUP3 PUSH4 0xFFFFFFFF AND PUSH1 0xE0 SHL DUP2 MSTORE PUSH1 0x4 ADD PUSH2 0x1D6F SWAP2 SWAP1 PUSH2 0x5516 JUMP JUMPDEST PUSH1 0x20 PUSH1 0x40 MLOAD DUP1 DUP4 SUB DUP2 PUSH1 0x0 DUP8 GAS CALL SWAP3 POP POP POP DUP1 ISZERO PUSH2 0x1DAB JUMPI POP PUSH1 0x40 MLOAD RETURNDATASIZE PUSH1 0x1F NOT PUSH1 0x1F DUP3 ADD AND DUP3 ADD DUP1 PUSH1 0x40 MSTORE POP DUP2 ADD SWAP1 PUSH2 0x1DA8 SWAP2 SWAP1 PUSH2 0x40D2 JUMP JUMPDEST PUSH1 0x1 JUMPDEST PUSH2 0x1FA5 JUMPI PUSH2 0x1DB7 PUSH2 0x410C JUMP JUMPDEST DUP1 PUSH4 0x8C379A0 SUB PUSH2 0x1E55 JUMPI POP PUSH2 0x1DCB PUSH2 0x412E JUMP JUMPDEST DUP1 PUSH2 0x1DD6 JUMPI POP PUSH2 0x1EF2 JUMP JUMPDEST PUSH20 0x0 PUSH4 0xE8C2CB16 DUP3 PUSH1 0x40 MLOAD DUP3 PUSH4 0xFFFFFFFF AND PUSH1 0xE0 SHL DUP2 MSTORE PUSH1 0x4 ADD PUSH2 0x1E0D SWAP2 SWAP1 PUSH2 0x5284 JUMP JUMPDEST PUSH1 0x20 PUSH1 0x40 MLOAD DUP1 DUP4 SUB DUP2 DUP7 GAS DELEGATECALL ISZERO DUP1 ISZERO PUSH2 0x1E2A JUMPI RETURNDATASIZE PUSH1 0x0 DUP1 RETURNDATACOPY RETURNDATASIZE PUSH1 0x0 REVERT JUMPDEST POP POP POP POP PUSH1 0x40 MLOAD RETURNDATASIZE PUSH1 0x1F NOT PUSH1 0x1F DUP3 ADD AND DUP3 ADD DUP1 PUSH1 0x40 MSTORE POP DUP2 ADD SWAP1 PUSH2 0x1E4E SWAP2 SWAP1 PUSH2 0x4360 JUMP JUMPDEST POP POP PUSH2 0x1FA0 JUMP JUMPDEST PUSH4 0x4E487B71 SUB PUSH2 0x1EF2 JUMPI PUSH2 0x1E67 PUSH2 0x52CC JUMP JUMPDEST SWAP1 PUSH2 0x1E72 JUMPI POP PUSH2 0x1EF2 JUMP JUMPDEST PUSH20 0x0 PUSH4 0x39DF137F PUSH1 0x0 PUSH1 0x40 MLOAD DUP3 PUSH4 0xFFFFFFFF AND PUSH1 0xE0 SHL DUP2 MSTORE PUSH1 0x4 ADD PUSH2 0x1EAA SWAP2 SWAP1 PUSH2 0x535F JUMP JUMPDEST PUSH1 0x20 PUSH1 0x40 MLOAD DUP1 DUP4 SUB DUP2 DUP7 GAS DELEGATECALL ISZERO DUP1 ISZERO PUSH2 0x1EC7 JUMPI RETURNDATASIZE PUSH1 0x0 DUP1 RETURNDATACOPY RETURNDATASIZE PUSH1 0x0 REVERT JUMPDEST POP POP POP POP PUSH1 0x40 MLOAD RETURNDATASIZE PUSH1 0x1F NOT PUSH1 0x1F DUP3 ADD AND DUP3 ADD DUP1 PUSH1 0x40 MSTORE POP DUP2 ADD SWAP1 PUSH2 0x1EEB SWAP2 SWAP1 PUSH2 0x4360 JUMP JUMPDEST POP POP PUSH2 0x1FA0 JUMP JUMPDEST RETURNDATASIZE DUP1 PUSH1 0x0 DUP2 EQ PUSH2 0x1F1E JUMPI PUSH1 0x40 MLOAD SWAP2 POP PUSH1 0x1F NOT PUSH1 0x3F RETURNDATASIZE ADD AND DUP3 ADD PUSH1 0x40 MSTORE RETURNDATASIZE DUP3 MSTORE RETURNDATASIZE PUSH1 0x0 PUSH1 0x20 DUP5 ADD RETURNDATACOPY PUSH2 0x1F23 JUMP JUMPDEST PUSH1 0x60 SWAP2 POP JUMPDEST POP PUSH20 0x0 PUSH4 0x39DF137F PUSH1 0x0 PUSH1 0x40 MLOAD DUP3 PUSH4 0xFFFFFFFF AND PUSH1 0xE0 SHL DUP2 MSTORE PUSH1 0x4 ADD PUSH2 0x1F5C SWAP2 SWAP1 PUSH2 0x53D9 JUMP JUMPDEST PUSH1 0x20 PUSH1 0x40 MLOAD DUP1 DUP4 SUB DUP2 DUP7 GAS DELEGATECALL ISZERO DUP1 ISZERO PUSH2 0x1F79 JUMPI RETURNDATASIZE PUSH1 0x0 DUP1 RETURNDATACOPY RETURNDATASIZE PUSH1 0x0 REVERT JUMPDEST POP POP POP POP PUSH1 0x40 MLOAD RETURNDATASIZE PUSH1 0x1F NOT PUSH1 0x1F DUP3 ADD AND DUP3 ADD DUP1 PUSH1 0x40 MSTORE POP DUP2 ADD SWAP1 PUSH2 0x1F9D SWAP2 SWAP1 PUSH2 0x4360 JUMP JUMPDEST POP POP JUMPDEST PUSH2 0x2023 JUMP JUMPDEST PUSH20 0x0 PUSH4 0x561015E2 DUP3 PUSH1 0x5 PUSH1 0x40 MLOAD DUP4 PUSH4 0xFFFFFFFF AND PUSH1 0xE0 SHL DUP2 MSTORE PUSH1 0x4 ADD PUSH2 0x1FDF SWAP3 SWAP2 SWAP1 PUSH2 0x557F JUMP JUMPDEST PUSH1 0x20 PUSH1 0x40 MLOAD DUP1 DUP4 SUB DUP2 DUP7 GAS DELEGATECALL ISZERO DUP1 ISZERO PUSH2 0x1FFC JUMPI RETURNDATASIZE PUSH1 0x0 DUP1 RETURNDATACOPY RETURNDATASIZE PUSH1 0x0 REVERT JUMPDEST POP POP POP POP PUSH1 0x40 MLOAD RETURNDATASIZE PUSH1 0x1F NOT PUSH1 0x1F DUP3 ADD AND DUP3 ADD DUP1 PUSH1 0x40 MSTORE POP DUP2 ADD SWAP1 PUSH2 0x2020 SWAP2 SWAP1 PUSH2 0x4360 JUMP JUMPDEST POP POP JUMPDEST JUMP JUMPDEST PUSH1 0x0 PUSH1 0xB PUSH1 0x0 SWAP1 SLOAD SWAP1 PUSH2 0x100 EXP SWAP1 DIV PUSH1 0xFF AND ISZERO PUSH2 0x2077 JUMPI PUSH1 0x40 MLOAD PUSH32 0x8C379A000000000000000000000000000000000000000000000000000000000 DUP2 MSTORE PUSH1 0x4 ADD PUSH2 0x206E SWAP1 PUSH2 0x4502 JUMP JUMPDEST PUSH1 0x40 MLOAD DUP1 SWAP2 SUB SWAP1 REVERT JUMPDEST PUSH1 0x0 DUP1 PUSH1 0x2 DUP2 GT ISZERO PUSH2 0x208C JUMPI PUSH2 0x208B PUSH2 0x3B4E JUMP JUMPDEST JUMPDEST PUSH1 0x9 PUSH1 0x1 SWAP1 SLOAD SWAP1 PUSH2 0x100 EXP SWAP1 DIV PUSH1 0xFF AND PUSH1 0x2 DUP2 GT ISZERO PUSH2 0x20AE JUMPI PUSH2 0x20AD PUSH2 0x3B4E JUMP JUMPDEST JUMPDEST EQ PUSH2 0x20EE JUMPI PUSH1 0x40 MLOAD PUSH32 0x8C379A000000000000000000000000000000000000000000000000000000000 DUP2 MSTORE PUSH1 0x4 ADD PUSH2 0x20E5 SWAP1 PUSH2 0x4545 JUMP JUMPDEST PUSH1 0x40 MLOAD DUP1 SWAP2 SUB SWAP1 REVERT JUMPDEST PUSH1 0x0 DUP4 PUSH1 0x40 MLOAD PUSH1 0x20 ADD PUSH2 0x2101 SWAP2 SWAP1 PUSH2 0x55F7 JUMP JUMPDEST PUSH1 0x40 MLOAD PUSH1 0x20 DUP2 DUP4 SUB SUB DUP2 MSTORE SWAP1 PUSH1 0x40 MSTORE DUP1 MLOAD SWAP1 PUSH1 0x20 ADD KECCAK256 SWAP1 POP PUSH1 0xC PUSH1 0x0 DUP3 DUP2 MSTORE PUSH1 0x20 ADD SWAP1 DUP2 MSTORE PUSH1 0x20 ADD PUSH1 0x0 KECCAK256 PUSH1 0x0 SWAP1 SLOAD SWAP1 PUSH2 0x100 EXP SWAP1 DIV PUSH1 0xFF AND ISZERO PUSH2 0x217A JUMPI PUSH1 0x40 MLOAD PUSH32 0x8C379A000000000000000000000000000000000000000000000000000000000 DUP2 MSTORE PUSH1 0x4 ADD PUSH2 0x2171 SWAP1 PUSH2 0x565A JUMP JUMPDEST PUSH1 0x40 MLOAD DUP1 SWAP2 SUB SWAP1 REVERT JUMPDEST PUSH1 0x2 PUSH1 0x0 DUP2 SLOAD DUP1 SWAP3 SWAP2 SWAP1 PUSH2 0x218D SWAP1 PUSH2 0x47CA JUMP JUMPDEST SWAP2 SWAP1 POP SSTORE POP DUP4 PUSH1 0x0 DUP1 PUSH1 0x2 SLOAD DUP2 MSTORE PUSH1 0x20 ADD SWAP1 DUP2 MSTORE PUSH1 0x20 ADD PUSH1 0x0 KECCAK256 SWAP1 DUP2 PUSH2 0x21B3 SWAP2 SWAP1 PUSH2 0x4F21 JUMP JUMPDEST POP PUSH1 0x1 PUSH1 0xC PUSH1 0x0 DUP4 DUP2 MSTORE PUSH1 0x20 ADD SWAP1 DUP2 MSTORE PUSH1 0x20 ADD PUSH1 0x0 KECCAK256 PUSH1 0x0 PUSH2 0x100 EXP DUP2 SLOAD DUP2 PUSH1 0xFF MUL NOT AND SWAP1 DUP4 ISZERO ISZERO MUL OR SWAP1 SSTORE POP PUSH1 0x2 SLOAD SWAP3 POP POP POP SWAP2 SWAP1 POP JUMP JUMPDEST PUSH1 0x9 PUSH1 0x0 SWAP1 SLOAD SWAP1 PUSH2 0x100 EXP SWAP1 DIV PUSH1 0xFF AND DUP2 JUMP JUMPDEST PUSH20 0x0 PUSH4 0xCE88B145 PUSH1 0x0 PUSH1 0x40 MLOAD DUP3 PUSH4 0xFFFFFFFF AND PUSH1 0xE0 SHL DUP2 MSTORE PUSH1 0x4 ADD PUSH2 0x2237 SWAP2 SWAP1 PUSH2 0x56B5 JUMP JUMPDEST PUSH1 0x20 PUSH1 0x40 MLOAD DUP1 DUP4 SUB DUP2 DUP7 GAS DELEGATECALL ISZERO DUP1 ISZERO PUSH2 0x2254 JUMPI RETURNDATASIZE PUSH1 0x0 DUP1 RETURNDATACOPY RETURNDATASIZE PUSH1 0x0 REVERT JUMPDEST POP POP POP POP PUSH1 0x40 MLOAD RETURNDATASIZE PUSH1 0x1F NOT PUSH1 0x1F DUP3 ADD AND DUP3 ADD DUP1 PUSH1 0x40 MSTORE POP DUP2 ADD SWAP1 PUSH2 0x2278 SWAP2 SWAP1 PUSH2 0x56E5 JUMP JUMPDEST PUSH1 0xD PUSH1 0x0 PUSH2 0x100 EXP DUP2 SLOAD DUP2 PUSH20 0xFFFFFFFFFFFFFFFFFFFFFFFFFFFFFFFFFFFFFFFF MUL NOT AND SWAP1 DUP4 PUSH20 0xFFFFFFFFFFFFFFFFFFFFFFFFFFFFFFFFFFFFFFFF AND MUL OR SWAP1 SSTORE POP PUSH20 0x0 PUSH4 0xCE88B145 PUSH1 0x1 PUSH1 0x40 MLOAD DUP3 PUSH4 0xFFFFFFFF AND PUSH1 0xE0 SHL DUP2 MSTORE PUSH1 0x4 ADD PUSH2 0x22F0 SWAP2 SWAP1 PUSH2 0x5712 JUMP JUMPDEST PUSH1 0x20 PUSH1 0x40 MLOAD DUP1 DUP4 SUB DUP2 DUP7 GAS DELEGATECALL ISZERO DUP1 ISZERO PUSH2 0x230D JUMPI RETURNDATASIZE PUSH1 0x0 DUP1 RETURNDATACOPY RETURNDATASIZE PUSH1 0x0 REVERT JUMPDEST POP POP POP POP PUSH1 0x40 MLOAD RETURNDATASIZE PUSH1 0x1F NOT PUSH1 0x1F DUP3 ADD AND DUP3 ADD DUP1 PUSH1 0x40 MSTORE POP DUP2 ADD SWAP1 PUSH2 0x2331 SWAP2 SWAP1 PUSH2 0x56E5 JUMP JUMPDEST PUSH1 0xE PUSH1 0x0 PUSH2 0x100 EXP DUP2 SLOAD DUP2 PUSH20 0xFFFFFFFFFFFFFFFFFFFFFFFFFFFFFFFFFFFFFFFF MUL NOT AND SWAP1 DUP4 PUSH20 0xFFFFFFFFFFFFFFFFFFFFFFFFFFFFFFFFFFFFFFFF AND MUL OR SWAP1 SSTORE POP PUSH20 0x0 PUSH4 0xCE88B145 PUSH1 0x2 PUSH1 0x40 MLOAD DUP3 PUSH4 0xFFFFFFFF AND PUSH1 0xE0 SHL DUP2 MSTORE PUSH1 0x4 ADD PUSH2 0x23A9 SWAP2 SWAP1 PUSH2 0x572D JUMP JUMPDEST PUSH1 0x20 PUSH1 0x40 MLOAD DUP1 DUP4 SUB DUP2 DUP7 GAS DELEGATECALL ISZERO DUP1 ISZERO PUSH2 0x23C6 JUMPI RETURNDATASIZE PUSH1 0x0 DUP1 RETURNDATACOPY RETURNDATASIZE PUSH1 0x0 REVERT JUMPDEST POP POP POP POP PUSH1 0x40 MLOAD RETURNDATASIZE PUSH1 0x1F NOT PUSH1 0x1F DUP3 ADD AND DUP3 ADD DUP1 PUSH1 0x40 MSTORE POP DUP2 ADD SWAP1 PUSH2 0x23EA SWAP2 SWAP1 PUSH2 0x56E5 JUMP JUMPDEST PUSH1 0xF PUSH1 0x0 PUSH2 0x100 EXP DUP2 SLOAD DUP2 PUSH20 0xFFFFFFFFFFFFFFFFFFFFFFFFFFFFFFFFFFFFFFFF MUL NOT AND SWAP1 DUP4 PUSH20 0xFFFFFFFFFFFFFFFFFFFFFFFFFFFFFFFFFFFFFFFF AND MUL OR SWAP1 SSTORE POP PUSH20 0x0 PUSH4 0xCE88B145 PUSH1 0x3 PUSH1 0x40 MLOAD DUP3 PUSH4 0xFFFFFFFF AND PUSH1 0xE0 SHL DUP2 MSTORE PUSH1 0x4 ADD PUSH2 0x2462 SWAP2 SWAP1 PUSH2 0x5748 JUMP JUMPDEST PUSH1 0x20 PUSH1 0x40 MLOAD DUP1 DUP4 SUB DUP2 DUP7 GAS DELEGATECALL ISZERO DUP1 ISZERO PUSH2 0x247F JUMPI RETURNDATASIZE PUSH1 0x0 DUP1 RETURNDATACOPY RETURNDATASIZE PUSH1 0x0 REVERT JUMPDEST POP POP POP POP PUSH1 0x40 MLOAD RETURNDATASIZE PUSH1 0x1F NOT PUSH1 0x1F DUP3 ADD AND DUP3 ADD DUP1 PUSH1 0x40 MSTORE POP DUP2 ADD SWAP1 PUSH2 0x24A3 SWAP2 SWAP1 PUSH2 0x56E5 JUMP JUMPDEST PUSH1 0x10 PUSH1 0x0 PUSH2 0x100 EXP DUP2 SLOAD DUP2 PUSH20 0xFFFFFFFFFFFFFFFFFFFFFFFFFFFFFFFFFFFFFFFF MUL NOT AND SWAP1 DUP4 PUSH20 0xFFFFFFFFFFFFFFFFFFFFFFFFFFFFFFFFFFFFFFFF AND MUL OR SWAP1 SSTORE POP PUSH20 0x0 PUSH4 0xCE88B145 PUSH1 0x4 PUSH1 0x40 MLOAD DUP3 PUSH4 0xFFFFFFFF AND PUSH1 0xE0 SHL DUP2 MSTORE PUSH1 0x4 ADD PUSH2 0x251B SWAP2 SWAP1 PUSH2 0x579E JUMP JUMPDEST PUSH1 0x20 PUSH1 0x40 MLOAD DUP1 DUP4 SUB DUP2 DUP7 GAS DELEGATECALL ISZERO DUP1 ISZERO PUSH2 0x2538 JUMPI RETURNDATASIZE PUSH1 0x0 DUP1 RETURNDATACOPY RETURNDATASIZE PUSH1 0x0 REVERT JUMPDEST POP POP POP POP PUSH1 0x40 MLOAD RETURNDATASIZE PUSH1 0x1F NOT PUSH1 0x1F DUP3 ADD AND DUP3 ADD DUP1 PUSH1 0x40 MSTORE POP DUP2 ADD SWAP1 PUSH2 0x255C SWAP2 SWAP1 PUSH2 0x56E5 JUMP JUMPDEST PUSH1 0x11 PUSH1 0x0 PUSH2 0x100 EXP DUP2 SLOAD DUP2 PUSH20 0xFFFFFFFFFFFFFFFFFFFFFFFFFFFFFFFFFFFFFFFF MUL NOT AND SWAP1 DUP4 PUSH20 0xFFFFFFFFFFFFFFFFFFFFFFFFFFFFFFFFFFFFFFFF AND MUL OR SWAP1 SSTORE POP JUMP JUMPDEST PUSH20 0x0 PUSH4 0xABCD7960 PUSH2 0x2619 PUSH1 0xD PUSH1 0x0 SWAP1 SLOAD SWAP1 PUSH2 0x100 EXP SWAP1 DIV PUSH20 0xFFFFFFFFFFFFFFFFFFFFFFFFFFFFFFFFFFFFFFFF AND PUSH1 0x40 MLOAD DUP1 PUSH1 0x40 ADD PUSH1 0x40 MSTORE DUP1 PUSH1 0x5 DUP2 MSTORE PUSH1 0x20 ADD PUSH32 0x416C696365000000000000000000000000000000000000000000000000000000 DUP2 MSTORE POP PUSH2 0x1420 JUMP JUMPDEST PUSH1 0x1 PUSH1 0x40 MLOAD DUP4 PUSH4 0xFFFFFFFF AND PUSH1 0xE0 SHL DUP2 MSTORE PUSH1 0x4 ADD PUSH2 0x2638 SWAP3 SWAP2 SWAP1 PUSH2 0x4946 JUMP JUMPDEST PUSH1 0x20 PUSH1 0x40 MLOAD DUP1 DUP4 SUB DUP2 DUP7 GAS DELEGATECALL ISZERO DUP1 ISZERO PUSH2 0x2655 JUMPI RETURNDATASIZE PUSH1 0x0 DUP1 RETURNDATACOPY RETURNDATASIZE PUSH1 0x0 REVERT JUMPDEST POP POP POP POP PUSH1 0x40 MLOAD RETURNDATASIZE PUSH1 0x1F NOT PUSH1 0x1F DUP3 ADD AND DUP3 ADD DUP1 PUSH1 0x40 MSTORE POP DUP2 ADD SWAP1 PUSH2 0x2679 SWAP2 SWAP1 PUSH2 0x4360 JUMP JUMPDEST POP PUSH20 0x0 PUSH4 0xABCD7960 PUSH2 0x26F5 PUSH1 0xE PUSH1 0x0 SWAP1 SLOAD SWAP1 PUSH2 0x100 EXP SWAP1 DIV PUSH20 0xFFFFFFFFFFFFFFFFFFFFFFFFFFFFFFFFFFFFFFFF AND PUSH1 0x40 MLOAD DUP1 PUSH1 0x40 ADD PUSH1 0x40 MSTORE DUP1 PUSH1 0x3 DUP2 MSTORE PUSH1 0x20 ADD PUSH32 0x426F620000000000000000000000000000000000000000000000000000000000 DUP2 MSTORE POP PUSH2 0x1420 JUMP JUMPDEST PUSH1 0x2 PUSH1 0x40 MLOAD DUP4 PUSH4 0xFFFFFFFF AND PUSH1 0xE0 SHL DUP2 MSTORE PUSH1 0x4 ADD PUSH2 0x2714 SWAP3 SWAP2 SWAP1 PUSH2 0x4A09 JUMP JUMPDEST PUSH1 0x20 PUSH1 0x40 MLOAD DUP1 DUP4 SUB DUP2 DUP7 GAS DELEGATECALL ISZERO DUP1 ISZERO PUSH2 0x2731 JUMPI RETURNDATASIZE PUSH1 0x0 DUP1 RETURNDATACOPY RETURNDATASIZE PUSH1 0x0 REVERT JUMPDEST POP POP POP POP PUSH1 0x40 MLOAD RETURNDATASIZE PUSH1 0x1F NOT PUSH1 0x1F DUP3 ADD AND DUP3 ADD DUP1 PUSH1 0x40 MSTORE POP DUP2 ADD SWAP1 PUSH2 0x2755 SWAP2 SWAP1 PUSH2 0x4360 JUMP JUMPDEST POP PUSH20 0x0 PUSH4 0xABCD7960 PUSH2 0x27D1 PUSH1 0xF PUSH1 0x0 SWAP1 SLOAD SWAP1 PUSH2 0x100 EXP SWAP1 DIV PUSH20 0xFFFFFFFFFFFFFFFFFFFFFFFFFFFFFFFFFFFFFFFF AND PUSH1 0x40 MLOAD DUP1 PUSH1 0x40 ADD PUSH1 0x40 MSTORE DUP1 PUSH1 0x7 DUP2 MSTORE PUSH1 0x20 ADD PUSH32 0x436861726C696500000000000000000000000000000000000000000000000000 DUP2 MSTORE POP PUSH2 0x1420 JUMP JUMPDEST PUSH1 0x3 PUSH1 0x40 MLOAD DUP4 PUSH4 0xFFFFFFFF AND PUSH1 0xE0 SHL DUP2 MSTORE PUSH1 0x4 ADD PUSH2 0x27F0 SWAP3 SWAP2 SWAP1 PUSH2 0x5805 JUMP JUMPDEST PUSH1 0x20 PUSH1 0x40 MLOAD DUP1 DUP4 SUB DUP2 DUP7 GAS DELEGATECALL ISZERO DUP1 ISZERO PUSH2 0x280D JUMPI RETURNDATASIZE PUSH1 0x0 DUP1 RETURNDATACOPY RETURNDATASIZE PUSH1 0x0 REVERT JUMPDEST POP POP POP POP PUSH1 0x40 MLOAD RETURNDATASIZE PUSH1 0x1F NOT PUSH1 0x1F DUP3 ADD AND DUP3 ADD DUP1 PUSH1 0x40 MSTORE POP DUP2 ADD SWAP1 PUSH2 0x2831 SWAP2 SWAP1 PUSH2 0x4360 JUMP JUMPDEST POP PUSH20 0x0 PUSH4 0xABCD7960 PUSH2 0x28AD PUSH1 0x10 PUSH1 0x0 SWAP1 SLOAD SWAP1 PUSH2 0x100 EXP SWAP1 DIV PUSH20 0xFFFFFFFFFFFFFFFFFFFFFFFFFFFFFFFFFFFFFFFF AND PUSH1 0x40 MLOAD DUP1 PUSH1 0x40 ADD PUSH1 0x40 MSTORE DUP1 PUSH1 0x3 DUP2 MSTORE PUSH1 0x20 ADD PUSH32 0x4576650000000000000000000000000000000000000000000000000000000000 DUP2 MSTORE POP PUSH2 0x1420 JUMP JUMPDEST PUSH1 0x4 PUSH1 0x40 MLOAD DUP4 PUSH4 0xFFFFFFFF AND PUSH1 0xE0 SHL DUP2 MSTORE PUSH1 0x4 ADD PUSH2 0x28CC SWAP3 SWAP2 SWAP1 PUSH2 0x588D JUMP JUMPDEST PUSH1 0x20 PUSH1 0x40 MLOAD DUP1 DUP4 SUB DUP2 DUP7 GAS DELEGATECALL ISZERO DUP1 ISZERO PUSH2 0x28E9 JUMPI RETURNDATASIZE PUSH1 0x0 DUP1 RETURNDATACOPY RETURNDATASIZE PUSH1 0x0 REVERT JUMPDEST POP POP POP POP PUSH1 0x40 MLOAD RETURNDATASIZE PUSH1 0x1F NOT PUSH1 0x1F DUP3 ADD AND DUP3 ADD DUP1 PUSH1 0x40 MSTORE POP DUP2 ADD SWAP1 PUSH2 0x290D SWAP2 SWAP1 PUSH2 0x4360 JUMP JUMPDEST POP JUMP JUMPDEST PUSH1 0x0 PUSH2 0x291B DUP3 PUSH2 0x81C JUMP JUMPDEST SWAP1 POP SWAP2 SWAP1 POP JUMP JUMPDEST PUSH20 0x0 PUSH4 0xBFBA5DD6 PUSH1 0x5 PUSH1 0x0 SWAP1 SLOAD SWAP1 PUSH2 0x100 EXP SWAP1 DIV PUSH20 0xFFFFFFFFFFFFFFFFFFFFFFFFFFFFFFFFFFFFFFFF AND PUSH1 0xD PUSH1 0x0 SWAP1 SLOAD SWAP1 PUSH2 0x100 EXP SWAP1 DIV PUSH20 0xFFFFFFFFFFFFFFFFFFFFFFFFFFFFFFFFFFFFFFFF AND PUSH1 0x40 MLOAD DUP4 PUSH4 0xFFFFFFFF AND PUSH1 0xE0 SHL DUP2 MSTORE PUSH1 0x4 ADD PUSH2 0x299F SWAP3 SWAP2 SWAP1 PUSH2 0x5924 JUMP JUMPDEST PUSH1 0x20 PUSH1 0x40 MLOAD DUP1 DUP4 SUB DUP2 DUP7 GAS DELEGATECALL ISZERO DUP1 ISZERO PUSH2 0x29BC JUMPI RETURNDATASIZE PUSH1 0x0 DUP1 RETURNDATACOPY RETURNDATASIZE PUSH1 0x0 REVERT JUMPDEST POP POP POP POP PUSH1 0x40 MLOAD RETURNDATASIZE PUSH1 0x1F NOT PUSH1 0x1F DUP3 ADD AND DUP3 ADD DUP1 PUSH1 0x40 MSTORE POP DUP2 ADD SWAP1 PUSH2 0x29E0 SWAP2 SWAP1 PUSH2 0x4360 JUMP JUMPDEST POP JUMP JUMPDEST PUSH20 0x0 PUSH4 0x39DF137F PUSH2 0x2A07 PUSH1 0x1 PUSH2 0x81C JUMP JUMPDEST PUSH1 0x40 MLOAD DUP3 PUSH4 0xFFFFFFFF AND PUSH1 0xE0 SHL DUP2 MSTORE PUSH1 0x4 ADD PUSH2 0x2A23 SWAP2 SWAP1 PUSH2 0x4A91 JUMP JUMPDEST PUSH1 0x20 PUSH1 0x40 MLOAD DUP1 DUP4 SUB DUP2 DUP7 GAS DELEGATECALL ISZERO DUP1 ISZERO PUSH2 0x2A40 JUMPI RETURNDATASIZE PUSH1 0x0 DUP1 RETURNDATACOPY RETURNDATASIZE PUSH1 0x0 REVERT JUMPDEST POP POP POP POP PUSH1 0x40 MLOAD RETURNDATASIZE PUSH1 0x1F NOT PUSH1 0x1F DUP3 ADD AND DUP3 ADD DUP1 PUSH1 0x40 MSTORE POP DUP2 ADD SWAP1 PUSH2 0x2A64 SWAP2 SWAP1 PUSH2 0x4360 JUMP JUMPDEST POP JUMP JUMPDEST PUSH1 0x4 SLOAD DUP2 JUMP JUMPDEST ADDRESS PUSH20 0xFFFFFFFFFFFFFFFFFFFFFFFFFFFFFFFFFFFFFFFF AND PUSH4 0x124258C6 PUSH1 0x1 PUSH1 0x40 MLOAD DUP3 PUSH4 0xFFFFFFFF AND PUSH1 0xE0 SHL DUP2 MSTORE PUSH1 0x4 ADD PUSH2 0x2AA7 SWAP2 SWAP1 PUSH2 0x596F JUMP JUMPDEST PUSH1 0x20 PUSH1 0x40 MLOAD DUP1 DUP4 SUB DUP2 PUSH1 0x0 DUP8 GAS CALL SWAP3 POP POP POP DUP1 ISZERO PUSH2 0x2AE3 JUMPI POP PUSH1 0x40 MLOAD RETURNDATASIZE PUSH1 0x1F NOT PUSH1 0x1F DUP3 ADD AND DUP3 ADD DUP1 PUSH1 0x40 MSTORE POP DUP2 ADD SWAP1 PUSH2 0x2AE0 SWAP2 SWAP1 PUSH2 0x4360 JUMP JUMPDEST PUSH1 0x1 JUMPDEST PUSH2 0x2CDD JUMPI PUSH2 0x2AEF PUSH2 0x410C JUMP JUMPDEST DUP1 PUSH4 0x8C379A0 SUB PUSH2 0x2B8D JUMPI POP PUSH2 0x2B03 PUSH2 0x412E JUMP JUMPDEST DUP1 PUSH2 0x2B0E JUMPI POP PUSH2 0x2C2A JUMP JUMPDEST PUSH20 0x0 PUSH4 0xE8C2CB16 DUP3 PUSH1 0x40 MLOAD DUP3 PUSH4 0xFFFFFFFF AND PUSH1 0xE0 SHL DUP2 MSTORE PUSH1 0x4 ADD PUSH2 0x2B45 SWAP2 SWAP1 PUSH2 0x598A JUMP JUMPDEST PUSH1 0x20 PUSH1 0x40 MLOAD DUP1 DUP4 SUB DUP2 DUP7 GAS DELEGATECALL ISZERO DUP1 ISZERO PUSH2 0x2B62 JUMPI RETURNDATASIZE PUSH1 0x0 DUP1 RETURNDATACOPY RETURNDATASIZE PUSH1 0x0 REVERT JUMPDEST POP POP POP POP PUSH1 0x40 MLOAD RETURNDATASIZE PUSH1 0x1F NOT PUSH1 0x1F DUP3 ADD AND DUP3 ADD DUP1 PUSH1 0x40 MSTORE POP DUP2 ADD SWAP1 PUSH2 0x2B86 SWAP2 SWAP1 PUSH2 0x4360 JUMP JUMPDEST POP POP PUSH2 0x2CD8 JUMP JUMPDEST PUSH4 0x4E487B71 SUB PUSH2 0x2C2A JUMPI PUSH2 0x2B9F PUSH2 0x52CC JUMP JUMPDEST SWAP1 PUSH2 0x2BAA JUMPI POP PUSH2 0x2C2A JUMP JUMPDEST PUSH20 0x0 PUSH4 0x39DF137F PUSH1 0x0 PUSH1 0x40 MLOAD DUP3 PUSH4 0xFFFFFFFF AND PUSH1 0xE0 SHL DUP2 MSTORE PUSH1 0x4 ADD PUSH2 0x2BE2 SWAP2 SWAP1 PUSH2 0x535F JUMP JUMPDEST PUSH1 0x20 PUSH1 0x40 MLOAD DUP1 DUP4 SUB DUP2 DUP7 GAS DELEGATECALL ISZERO DUP1 ISZERO PUSH2 0x2BFF JUMPI RETURNDATASIZE PUSH1 0x0 DUP1 RETURNDATACOPY RETURNDATASIZE PUSH1 0x0 REVERT JUMPDEST POP POP POP POP PUSH1 0x40 MLOAD RETURNDATASIZE PUSH1 0x1F NOT PUSH1 0x1F DUP3 ADD AND DUP3 ADD DUP1 PUSH1 0x40 MSTORE POP DUP2 ADD SWAP1 PUSH2 0x2C23 SWAP2 SWAP1 PUSH2 0x4360 JUMP JUMPDEST POP POP PUSH2 0x2CD8 JUMP JUMPDEST RETURNDATASIZE DUP1 PUSH1 0x0 DUP2 EQ PUSH2 0x2C56 JUMPI PUSH1 0x40 MLOAD SWAP2 POP PUSH1 0x1F NOT PUSH1 0x3F RETURNDATASIZE ADD AND DUP3 ADD PUSH1 0x40 MSTORE RETURNDATASIZE DUP3 MSTORE RETURNDATASIZE PUSH1 0x0 PUSH1 0x20 DUP5 ADD RETURNDATACOPY PUSH2 0x2C5B JUMP JUMPDEST PUSH1 0x60 SWAP2 POP JUMPDEST POP PUSH20 0x0 PUSH4 0x39DF137F PUSH1 0x0 PUSH1 0x40 MLOAD DUP3 PUSH4 0xFFFFFFFF AND PUSH1 0xE0 SHL DUP2 MSTORE PUSH1 0x4 ADD PUSH2 0x2C94 SWAP2 SWAP1 PUSH2 0x43E8 JUMP JUMPDEST PUSH1 0x20 PUSH1 0x40 MLOAD DUP1 DUP4 SUB DUP2 DUP7 GAS DELEGATECALL ISZERO DUP1 ISZERO PUSH2 0x2CB1 JUMPI RETURNDATASIZE PUSH1 0x0 DUP1 RETURNDATACOPY RETURNDATASIZE PUSH1 0x0 REVERT JUMPDEST POP POP POP POP PUSH1 0x40 MLOAD RETURNDATASIZE PUSH1 0x1F NOT PUSH1 0x1F DUP3 ADD AND DUP3 ADD DUP1 PUSH1 0x40 MSTORE POP DUP2 ADD SWAP1 PUSH2 0x2CD5 SWAP2 SWAP1 PUSH2 0x4360 JUMP JUMPDEST POP POP JUMPDEST PUSH2 0x2D5B JUMP JUMPDEST PUSH20 0x0 PUSH4 0x767392B3 DUP3 PUSH1 0x1 PUSH1 0x40 MLOAD DUP4 PUSH4 0xFFFFFFFF AND PUSH1 0xE0 SHL DUP2 MSTORE PUSH1 0x4 ADD PUSH2 0x2D17 SWAP3 SWAP2 SWAP1 PUSH2 0x59D2 JUMP JUMPDEST PUSH1 0x20 PUSH1 0x40 MLOAD DUP1 DUP4 SUB DUP2 DUP7 GAS DELEGATECALL ISZERO DUP1 ISZERO PUSH2 0x2D34 JUMPI RETURNDATASIZE PUSH1 0x0 DUP1 RETURNDATACOPY RETURNDATASIZE PUSH1 0x0 REVERT JUMPDEST POP POP POP POP PUSH1 0x40 MLOAD RETURNDATASIZE PUSH1 0x1F NOT PUSH1 0x1F DUP3 ADD AND DUP3 ADD DUP1 PUSH1 0x40 MSTORE POP DUP2 ADD SWAP1 PUSH2 0x2D58 SWAP2 SWAP1 PUSH2 0x4360 JUMP JUMPDEST POP POP JUMPDEST JUMP JUMPDEST PUSH20 0x0 PUSH4 0xE8C2CB16 PUSH1 0x6 PUSH1 0x40 MLOAD DUP3 PUSH4 0xFFFFFFFF AND PUSH1 0xE0 SHL DUP2 MSTORE PUSH1 0x4 ADD PUSH2 0x2D95 SWAP2 SWAP1 PUSH2 0x5B50 JUMP JUMPDEST PUSH1 0x20 PUSH1 0x40 MLOAD DUP1 DUP4 SUB DUP2 DUP7 GAS DELEGATECALL ISZERO DUP1 ISZERO PUSH2 0x2DB2 JUMPI RETURNDATASIZE PUSH1 0x0 DUP1 RETURNDATACOPY RETURNDATASIZE PUSH1 0x0 REVERT JUMPDEST POP POP POP POP PUSH1 0x40 MLOAD RETURNDATASIZE PUSH1 0x1F NOT PUSH1 0x1F DUP3 ADD AND DUP3 ADD DUP1 PUSH1 0x40 MSTORE POP DUP2 ADD SWAP1 PUSH2 0x2DD6 SWAP2 SWAP1 PUSH2 0x4360 JUMP JUMPDEST POP JUMP JUMPDEST ADDRESS PUSH20 0xFFFFFFFFFFFFFFFFFFFFFFFFFFFFFFFFFFFFFFFF AND PUSH4 0x124258C6 PUSH1 0x1 PUSH1 0x40 MLOAD DUP3 PUSH4 0xFFFFFFFF AND PUSH1 0xE0 SHL DUP2 MSTORE PUSH1 0x4 ADD PUSH2 0x2E13 SWAP2 SWAP1 PUSH2 0x596F JUMP JUMPDEST PUSH1 0x20 PUSH1 0x40 MLOAD DUP1 DUP4 SUB DUP2 PUSH1 0x0 DUP8 GAS CALL SWAP3 POP POP POP DUP1 ISZERO PUSH2 0x2E4F JUMPI POP PUSH1 0x40 MLOAD RETURNDATASIZE PUSH1 0x1F NOT PUSH1 0x1F DUP3 ADD AND DUP3 ADD DUP1 PUSH1 0x40 MSTORE POP DUP2 ADD SWAP1 PUSH2 0x2E4C SWAP2 SWAP1 PUSH2 0x4360 JUMP JUMPDEST PUSH1 0x1 JUMPDEST PUSH2 0x2F7B JUMPI PUSH2 0x2E5B PUSH2 0x410C JUMP JUMPDEST DUP1 PUSH4 0x8C379A0 SUB PUSH2 0x2EF9 JUMPI POP PUSH2 0x2E6F PUSH2 0x412E JUMP JUMPDEST DUP1 PUSH2 0x2E7A JUMPI POP PUSH2 0x2EFB JUMP JUMPDEST PUSH20 0x0 PUSH4 0xE8C2CB16 DUP3 PUSH1 0x40 MLOAD DUP3 PUSH4 0xFFFFFFFF AND PUSH1 0xE0 SHL DUP2 MSTORE PUSH1 0x4 ADD PUSH2 0x2EB1 SWAP2 SWAP1 PUSH2 0x5C2D JUMP JUMPDEST PUSH1 0x20 PUSH1 0x40 MLOAD DUP1 DUP4 SUB DUP2 DUP7 GAS DELEGATECALL ISZERO DUP1 ISZERO PUSH2 0x2ECE JUMPI RETURNDATASIZE PUSH1 0x0 DUP1 RETURNDATACOPY RETURNDATASIZE PUSH1 0x0 REVERT JUMPDEST POP POP POP POP PUSH1 0x40 MLOAD RETURNDATASIZE PUSH1 0x1F NOT PUSH1 0x1F DUP3 ADD AND DUP3 ADD DUP1 PUSH1 0x40 MSTORE POP DUP2 ADD SWAP1 PUSH2 0x2EF2 SWAP2 SWAP1 PUSH2 0x4360 JUMP JUMPDEST POP POP PUSH2 0x2F76 JUMP JUMPDEST POP JUMPDEST PUSH20 0x0 PUSH4 0x39DF137F PUSH1 0x0 PUSH1 0x40 MLOAD DUP3 PUSH4 0xFFFFFFFF AND PUSH1 0xE0 SHL DUP2 MSTORE PUSH1 0x4 ADD PUSH2 0x2F33 SWAP2 SWAP1 PUSH2 0x43E8 JUMP JUMPDEST PUSH1 0x20 PUSH1 0x40 MLOAD DUP1 DUP4 SUB DUP2 DUP7 GAS DELEGATECALL ISZERO DUP1 ISZERO PUSH2 0x2F50 JUMPI RETURNDATASIZE PUSH1 0x0 DUP1 RETURNDATACOPY RETURNDATASIZE PUSH1 0x0 REVERT JUMPDEST POP POP POP POP PUSH1 0x40 MLOAD RETURNDATASIZE PUSH1 0x1F NOT PUSH1 0x1F DUP3 ADD AND DUP3 ADD DUP1 PUSH1 0x40 MSTORE POP DUP2 ADD SWAP1 PUSH2 0x2F74 SWAP2 SWAP1 PUSH2 0x4360 JUMP JUMPDEST POP JUMPDEST PUSH2 0x2FF9 JUMP JUMPDEST PUSH20 0x0 PUSH4 0x767392B3 DUP3 PUSH1 0x0 PUSH1 0x40 MLOAD DUP4 PUSH4 0xFFFFFFFF AND PUSH1 0xE0 SHL DUP2 MSTORE PUSH1 0x4 ADD PUSH2 0x2FB5 SWAP3 SWAP2 SWAP1 PUSH2 0x5CC1 JUMP JUMPDEST PUSH1 0x20 PUSH1 0x40 MLOAD DUP1 DUP4 SUB DUP2 DUP7 GAS DELEGATECALL ISZERO DUP1 ISZERO PUSH2 0x2FD2 JUMPI RETURNDATASIZE PUSH1 0x0 DUP1 RETURNDATACOPY RETURNDATASIZE PUSH1 0x0 REVERT JUMPDEST POP POP POP POP PUSH1 0x40 MLOAD RETURNDATASIZE PUSH1 0x1F NOT PUSH1 0x1F DUP3 ADD AND DUP3 ADD DUP1 PUSH1 0x40 MSTORE POP DUP2 ADD SWAP1 PUSH2 0x2FF6 SWAP2 SWAP1 PUSH2 0x4360 JUMP JUMPDEST POP POP JUMPDEST JUMP JUMPDEST PUSH1 0x0 PUSH1 0x20 MSTORE DUP1 PUSH1 0x0 MSTORE PUSH1 0x40 PUSH1 0x0 KECCAK256 PUSH1 0x0 SWAP2 POP SWAP1 POP DUP1 SLOAD PUSH2 0x301A SWAP1 PUSH2 0x4626 JUMP JUMPDEST DUP1 PUSH1 0x1F ADD PUSH1 0x20 DUP1 SWAP2 DIV MUL PUSH1 0x20 ADD PUSH1 0x40 MLOAD SWAP1 DUP2 ADD PUSH1 0x40 MSTORE DUP1 SWAP3 SWAP2 SWAP1 DUP2 DUP2 MSTORE PUSH1 0x20 ADD DUP3 DUP1 SLOAD PUSH2 0x3046 SWAP1 PUSH2 0x4626 JUMP JUMPDEST DUP1 ISZERO PUSH2 0x3093 JUMPI DUP1 PUSH1 0x1F LT PUSH2 0x3068 JUMPI PUSH2 0x100 DUP1 DUP4 SLOAD DIV MUL DUP4 MSTORE SWAP2 PUSH1 0x20 ADD SWAP2 PUSH2 0x3093 JUMP JUMPDEST DUP3 ADD SWAP2 SWAP1 PUSH1 0x0 MSTORE PUSH1 0x20 PUSH1 0x0 KECCAK256 SWAP1 JUMPDEST DUP2 SLOAD DUP2 MSTORE SWAP1 PUSH1 0x1 ADD SWAP1 PUSH1 0x20 ADD DUP1 DUP4 GT PUSH2 0x3076 JUMPI DUP3 SWAP1 SUB PUSH1 0x1F AND DUP3 ADD SWAP2 JUMPDEST POP POP POP POP POP DUP2 JUMP JUMPDEST PUSH1 0x2 SLOAD DUP2 JUMP JUMPDEST PUSH20 0x0 PUSH4 0x767392B3 PUSH1 0x9 PUSH1 0x0 SWAP1 SLOAD SWAP1 PUSH2 0x100 EXP SWAP1 DIV PUSH1 0xFF AND PUSH1 0x0 PUSH1 0x40 MLOAD DUP4 PUSH4 0xFFFFFFFF AND PUSH1 0xE0 SHL DUP2 MSTORE PUSH1 0x4 ADD PUSH2 0x30EA SWAP3 SWAP2 SWAP1 PUSH2 0x5D49 JUMP JUMPDEST PUSH1 0x20 PUSH1 0x40 MLOAD DUP1 DUP4 SUB DUP2 DUP7 GAS DELEGATECALL ISZERO DUP1 ISZERO PUSH2 0x3107 JUMPI RETURNDATASIZE PUSH1 0x0 DUP1 RETURNDATACOPY RETURNDATASIZE PUSH1 0x0 REVERT JUMPDEST POP POP POP POP PUSH1 0x40 MLOAD RETURNDATASIZE PUSH1 0x1F NOT PUSH1 0x1F DUP3 ADD AND DUP3 ADD DUP1 PUSH1 0x40 MSTORE POP DUP2 ADD SWAP1 PUSH2 0x312B SWAP2 SWAP1 PUSH2 0x4360 JUMP JUMPDEST POP JUMP JUMPDEST PUSH1 0xB PUSH1 0x0 SWAP1 SLOAD SWAP1 PUSH2 0x100 EXP SWAP1 DIV PUSH1 0xFF AND DUP2 JUMP JUMPDEST PUSH1 0x6 DUP1 SLOAD PUSH2 0x314E SWAP1 PUSH2 0x4626 JUMP JUMPDEST DUP1 PUSH1 0x1F ADD PUSH1 0x20 DUP1 SWAP2 DIV MUL PUSH1 0x20 ADD PUSH1 0x40 MLOAD SWAP1 DUP2 ADD PUSH1 0x40 MSTORE DUP1 SWAP3 SWAP2 SWAP1 DUP2 DUP2 MSTORE PUSH1 0x20 ADD DUP3 DUP1 SLOAD PUSH2 0x317A SWAP1 PUSH2 0x4626 JUMP JUMPDEST DUP1 ISZERO PUSH2 0x31C7 JUMPI DUP1 PUSH1 0x1F LT PUSH2 0x319C JUMPI PUSH2 0x100 DUP1 DUP4 SLOAD DIV MUL DUP4 MSTORE SWAP2 PUSH1 0x20 ADD SWAP2 PUSH2 0x31C7 JUMP JUMPDEST DUP3 ADD SWAP2 SWAP1 PUSH1 0x0 MSTORE PUSH1 0x20 PUSH1 0x0 KECCAK256 SWAP1 JUMPDEST DUP2 SLOAD DUP2 MSTORE SWAP1 PUSH1 0x1 ADD SWAP1 PUSH1 0x20 ADD DUP1 DUP4 GT PUSH2 0x31AA JUMPI DUP3 SWAP1 SUB PUSH1 0x1F AND DUP3 ADD SWAP2 JUMPDEST POP POP POP POP POP DUP2 JUMP JUMPDEST PUSH1 0xB PUSH1 0x0 SWAP1 SLOAD SWAP1 PUSH2 0x100 EXP SWAP1 DIV PUSH1 0xFF AND ISZERO PUSH2 0x321F JUMPI PUSH1 0x40 MLOAD PUSH32 0x8C379A000000000000000000000000000000000000000000000000000000000 DUP2 MSTORE PUSH1 0x4 ADD PUSH2 0x3216 SWAP1 PUSH2 0x4502 JUMP JUMPDEST PUSH1 0x40 MLOAD DUP1 SWAP2 SUB SWAP1 REVERT JUMPDEST PUSH1 0x5 PUSH1 0x0 SWAP1 SLOAD SWAP1 PUSH2 0x100 EXP SWAP1 DIV PUSH20 0xFFFFFFFFFFFFFFFFFFFFFFFFFFFFFFFFFFFFFFFF AND PUSH20 0xFFFFFFFFFFFFFFFFFFFFFFFFFFFFFFFFFFFFFFFF AND CALLER PUSH20 0xFFFFFFFFFFFFFFFFFFFFFFFFFFFFFFFFFFFFFFFF AND EQ PUSH2 0x32AF JUMPI PUSH1 0x40 MLOAD PUSH32 0x8C379A000000000000000000000000000000000000000000000000000000000 DUP2 MSTORE PUSH1 0x4 ADD PUSH2 0x32A6 SWAP1 PUSH2 0x5065 JUMP JUMPDEST PUSH1 0x40 MLOAD DUP1 SWAP2 SUB SWAP1 REVERT JUMPDEST PUSH1 0x1 PUSH1 0x2 DUP2 GT ISZERO PUSH2 0x32C3 JUMPI PUSH2 0x32C2 PUSH2 0x3B4E JUMP JUMPDEST JUMPDEST PUSH1 0x9 PUSH1 0x1 SWAP1 SLOAD SWAP1 PUSH2 0x100 EXP SWAP1 DIV PUSH1 0xFF AND PUSH1 0x2 DUP2 GT ISZERO PUSH2 0x32E5 JUMPI PUSH2 0x32E4 PUSH2 0x3B4E JUMP JUMPDEST JUMPDEST EQ PUSH2 0x3325 JUMPI PUSH1 0x40 MLOAD PUSH32 0x8C379A000000000000000000000000000000000000000000000000000000000 DUP2 MSTORE PUSH1 0x4 ADD PUSH2 0x331C SWAP1 PUSH2 0x5DD1 JUMP JUMPDEST PUSH1 0x40 MLOAD DUP1 SWAP2 SUB SWAP1 REVERT JUMPDEST PUSH2 0x332D PUSH2 0x39C6 JUMP JUMPDEST JUMP JUMPDEST ADDRESS PUSH20 0xFFFFFFFFFFFFFFFFFFFFFFFFFFFFFFFFFFFFFFFF AND PUSH4 0x781A38A3 PUSH1 0x40 MLOAD DUP2 PUSH4 0xFFFFFFFF AND PUSH1 0xE0 SHL DUP2 MSTORE PUSH1 0x4 ADD PUSH2 0x3366 SWAP1 PUSH2 0x5E3D JUMP JUMPDEST PUSH1 0x20 PUSH1 0x40 MLOAD DUP1 DUP4 SUB DUP2 PUSH1 0x0 DUP8 GAS CALL SWAP3 POP POP POP DUP1 ISZERO PUSH2 0x33A2 JUMPI POP PUSH1 0x40 MLOAD RETURNDATASIZE PUSH1 0x1F NOT PUSH1 0x1F DUP3 ADD AND DUP3 ADD DUP1 PUSH1 0x40 MSTORE POP DUP2 ADD SWAP1 PUSH2 0x339F SWAP2 SWAP1 PUSH2 0x40D2 JUMP JUMPDEST PUSH1 0x1 JUMPDEST PUSH2 0x34CE JUMPI PUSH2 0x33AE PUSH2 0x410C JUMP JUMPDEST DUP1 PUSH4 0x8C379A0 SUB PUSH2 0x344C JUMPI POP PUSH2 0x33C2 PUSH2 0x412E JUMP JUMPDEST DUP1 PUSH2 0x33CD JUMPI POP PUSH2 0x344E JUMP JUMPDEST PUSH20 0x0 PUSH4 0xE8C2CB16 DUP3 PUSH1 0x40 MLOAD DUP3 PUSH4 0xFFFFFFFF AND PUSH1 0xE0 SHL DUP2 MSTORE PUSH1 0x4 ADD PUSH2 0x3404 SWAP2 SWAP1 PUSH2 0x5EF2 JUMP JUMPDEST PUSH1 0x20 PUSH1 0x40 MLOAD DUP1 DUP4 SUB DUP2 DUP7 GAS DELEGATECALL ISZERO DUP1 ISZERO PUSH2 0x3421 JUMPI RETURNDATASIZE PUSH1 0x0 DUP1 RETURNDATACOPY RETURNDATASIZE PUSH1 0x0 REVERT JUMPDEST POP POP POP POP PUSH1 0x40 MLOAD RETURNDATASIZE PUSH1 0x1F NOT PUSH1 0x1F DUP3 ADD AND DUP3 ADD DUP1 PUSH1 0x40 MSTORE POP DUP2 ADD SWAP1 PUSH2 0x3445 SWAP2 SWAP1 PUSH2 0x4360 JUMP JUMPDEST POP POP PUSH2 0x34C9 JUMP JUMPDEST POP JUMPDEST PUSH20 0x0 PUSH4 0x39DF137F PUSH1 0x0 PUSH1 0x40 MLOAD DUP3 PUSH4 0xFFFFFFFF AND PUSH1 0xE0 SHL DUP2 MSTORE PUSH1 0x4 ADD PUSH2 0x3486 SWAP2 SWAP1 PUSH2 0x43E8 JUMP JUMPDEST PUSH1 0x20 PUSH1 0x40 MLOAD DUP1 DUP4 SUB DUP2 DUP7 GAS DELEGATECALL ISZERO DUP1 ISZERO PUSH2 0x34A3 JUMPI RETURNDATASIZE PUSH1 0x0 DUP1 RETURNDATACOPY RETURNDATASIZE PUSH1 0x0 REVERT JUMPDEST POP POP POP POP PUSH1 0x40 MLOAD RETURNDATASIZE PUSH1 0x1F NOT PUSH1 0x1F DUP3 ADD AND DUP3 ADD DUP1 PUSH1 0x40 MSTORE POP DUP2 ADD SWAP1 PUSH2 0x34C7 SWAP2 SWAP1 PUSH2 0x4360 JUMP JUMPDEST POP JUMPDEST PUSH2 0x354A JUMP JUMPDEST PUSH20 0x0 PUSH4 0x39DF137F PUSH1 0x0 PUSH1 0x40 MLOAD DUP3 PUSH4 0xFFFFFFFF AND PUSH1 0xE0 SHL DUP2 MSTORE PUSH1 0x4 ADD PUSH2 0x3506 SWAP2 SWAP1 PUSH2 0x5FAC JUMP JUMPDEST PUSH1 0x20 PUSH1 0x40 MLOAD DUP1 DUP4 SUB DUP2 DUP7 GAS DELEGATECALL ISZERO DUP1 ISZERO PUSH2 0x3523 JUMPI RETURNDATASIZE PUSH1 0x0 DUP1 RETURNDATACOPY RETURNDATASIZE PUSH1 0x0 REVERT JUMPDEST POP POP POP POP PUSH1 0x40 MLOAD RETURNDATASIZE PUSH1 0x1F NOT PUSH1 0x1F DUP3 ADD AND DUP3 ADD DUP1 PUSH1 0x40 MSTORE POP DUP2 ADD SWAP1 PUSH2 0x3547 SWAP2 SWAP1 PUSH2 0x4360 JUMP JUMPDEST POP POP JUMPDEST JUMP JUMPDEST PUSH2 0x3556 PUSH1 0x64 PUSH2 0x158C JUMP JUMPDEST PUSH20 0x0 PUSH4 0xABCD7960 PUSH1 0x9 PUSH1 0x1 SWAP1 SLOAD SWAP1 PUSH2 0x100 EXP SWAP1 DIV PUSH1 0xFF AND PUSH1 0x2 DUP2 GT ISZERO PUSH2 0x3592 JUMPI PUSH2 0x3591 PUSH2 0x3B4E JUMP JUMPDEST JUMPDEST PUSH1 0x1 PUSH1 0x2 DUP2 GT ISZERO PUSH2 0x35A6 JUMPI PUSH2 0x35A5 PUSH2 0x3B4E JUMP JUMPDEST JUMPDEST PUSH1 0x40 MLOAD DUP4 PUSH4 0xFFFFFFFF AND PUSH1 0xE0 SHL DUP2 MSTORE PUSH1 0x4 ADD PUSH2 0x35C3 SWAP3 SWAP2 SWAP1 PUSH2 0x6026 JUMP JUMPDEST PUSH1 0x20 PUSH1 0x40 MLOAD DUP1 DUP4 SUB DUP2 DUP7 GAS DELEGATECALL ISZERO DUP1 ISZERO PUSH2 0x35E0 JUMPI RETURNDATASIZE PUSH1 0x0 DUP1 RETURNDATACOPY RETURNDATASIZE PUSH1 0x0 REVERT JUMPDEST POP POP POP POP PUSH1 0x40 MLOAD RETURNDATASIZE PUSH1 0x1F NOT PUSH1 0x1F DUP3 ADD AND DUP3 ADD DUP1 PUSH1 0x40 MSTORE POP DUP2 ADD SWAP1 PUSH2 0x3604 SWAP2 SWAP1 PUSH2 0x4360 JUMP JUMPDEST POP PUSH20 0x0 PUSH4 0x767392B3 PUSH1 0x9 PUSH1 0x0 SWAP1 SLOAD SWAP1 PUSH2 0x100 EXP SWAP1 DIV PUSH1 0xFF AND PUSH1 0x1 PUSH1 0x40 MLOAD DUP4 PUSH4 0xFFFFFFFF AND PUSH1 0xE0 SHL DUP2 MSTORE PUSH1 0x4 ADD PUSH2 0x364E SWAP3 SWAP2 SWAP1 PUSH2 0x60AE JUMP JUMPDEST PUSH1 0x20 PUSH1 0x40 MLOAD DUP1 DUP4 SUB DUP2 DUP7 GAS DELEGATECALL ISZERO DUP1 ISZERO PUSH2 0x366B JUMPI RETURNDATASIZE PUSH1 0x0 DUP1 RETURNDATACOPY RETURNDATASIZE PUSH1 0x0 REVERT JUMPDEST POP POP POP POP PUSH1 0x40 MLOAD RETURNDATASIZE PUSH1 0x1F NOT PUSH1 0x1F DUP3 ADD AND DUP3 ADD DUP1 PUSH1 0x40 MSTORE POP DUP2 ADD SWAP1 PUSH2 0x368F SWAP2 SWAP1 PUSH2 0x4360 JUMP JUMPDEST POP JUMP JUMPDEST ADDRESS PUSH20 0xFFFFFFFFFFFFFFFFFFFFFFFFFFFFFFFFFFFFFFFF AND PUSH4 0x2D8C6F42 PUSH1 0xD PUSH1 0x0 SWAP1 SLOAD SWAP1 PUSH2 0x100 EXP SWAP1 DIV PUSH20 0xFFFFFFFFFFFFFFFFFFFFFFFFFFFFFFFFFFFFFFFF AND PUSH1 0x40 MLOAD DUP3 PUSH4 0xFFFFFFFF AND PUSH1 0xE0 SHL DUP2 MSTORE PUSH1 0x4 ADD PUSH2 0x36ED SWAP2 SWAP1 PUSH2 0x6136 JUMP JUMPDEST PUSH1 0x20 PUSH1 0x40 MLOAD DUP1 DUP4 SUB DUP2 PUSH1 0x0 DUP8 GAS CALL SWAP3 POP POP POP DUP1 ISZERO PUSH2 0x3729 JUMPI POP PUSH1 0x40 MLOAD RETURNDATASIZE PUSH1 0x1F NOT PUSH1 0x1F DUP3 ADD AND DUP3 ADD DUP1 PUSH1 0x40 MSTORE POP DUP2 ADD SWAP1 PUSH2 0x3726 SWAP2 SWAP1 PUSH2 0x40D2 JUMP JUMPDEST PUSH1 0x1 JUMPDEST PUSH2 0x3855 JUMPI PUSH2 0x3735 PUSH2 0x410C JUMP JUMPDEST DUP1 PUSH4 0x8C379A0 SUB PUSH2 0x37D3 JUMPI POP PUSH2 0x3749 PUSH2 0x412E JUMP JUMPDEST DUP1 PUSH2 0x3754 JUMPI POP PUSH2 0x37D5 JUMP JUMPDEST PUSH20 0x0 PUSH4 0xE8C2CB16 DUP3 PUSH1 0x40 MLOAD DUP3 PUSH4 0xFFFFFFFF AND PUSH1 0xE0 SHL DUP2 MSTORE PUSH1 0x4 ADD PUSH2 0x378B SWAP2 SWAP1 PUSH2 0x61F9 JUMP JUMPDEST PUSH1 0x20 PUSH1 0x40 MLOAD DUP1 DUP4 SUB DUP2 DUP7 GAS DELEGATECALL ISZERO DUP1 ISZERO PUSH2 0x37A8 JUMPI RETURNDATASIZE PUSH1 0x0 DUP1 RETURNDATACOPY RETURNDATASIZE PUSH1 0x0 REVERT JUMPDEST POP POP POP POP PUSH1 0x40 MLOAD RETURNDATASIZE PUSH1 0x1F NOT PUSH1 0x1F DUP3 ADD AND DUP3 ADD DUP1 PUSH1 0x40 MSTORE POP DUP2 ADD SWAP1 PUSH2 0x37CC SWAP2 SWAP1 PUSH2 0x4360 JUMP JUMPDEST POP POP PUSH2 0x3850 JUMP JUMPDEST POP JUMPDEST PUSH20 0x0 PUSH4 0x39DF137F PUSH1 0x0 PUSH1 0x40 MLOAD DUP3 PUSH4 0xFFFFFFFF AND PUSH1 0xE0 SHL DUP2 MSTORE PUSH1 0x4 ADD PUSH2 0x380D SWAP2 SWAP1 PUSH2 0x43E8 JUMP JUMPDEST PUSH1 0x20 PUSH1 0x40 MLOAD DUP1 DUP4 SUB DUP2 DUP7 GAS DELEGATECALL ISZERO DUP1 ISZERO PUSH2 0x382A JUMPI RETURNDATASIZE PUSH1 0x0 DUP1 RETURNDATACOPY RETURNDATASIZE PUSH1 0x0 REVERT JUMPDEST POP POP POP POP PUSH1 0x40 MLOAD RETURNDATASIZE PUSH1 0x1F NOT PUSH1 0x1F DUP3 ADD AND DUP3 ADD DUP1 PUSH1 0x40 MSTORE POP DUP2 ADD SWAP1 PUSH2 0x384E SWAP2 SWAP1 PUSH2 0x4360 JUMP JUMPDEST POP JUMPDEST PUSH2 0x38D1 JUMP JUMPDEST PUSH20 0x0 PUSH4 0x39DF137F PUSH1 0x0 PUSH1 0x40 MLOAD DUP3 PUSH4 0xFFFFFFFF AND PUSH1 0xE0 SHL DUP2 MSTORE PUSH1 0x4 ADD PUSH2 0x388D SWAP2 SWAP1 PUSH2 0x62B3 JUMP JUMPDEST PUSH1 0x20 PUSH1 0x40 MLOAD DUP1 DUP4 SUB DUP2 DUP7 GAS DELEGATECALL ISZERO DUP1 ISZERO PUSH2 0x38AA JUMPI RETURNDATASIZE PUSH1 0x0 DUP1 RETURNDATACOPY RETURNDATASIZE PUSH1 0x0 REVERT JUMPDEST POP POP POP POP PUSH1 0x40 MLOAD RETURNDATASIZE PUSH1 0x1F NOT PUSH1 0x1F DUP3 ADD AND DUP3 ADD DUP1 PUSH1 0x40 MSTORE POP DUP2 ADD SWAP1 PUSH2 0x38CE SWAP2 SWAP1 PUSH2 0x4360 JUMP JUMPDEST POP POP JUMPDEST JUMP JUMPDEST PUSH1 0x5 PUSH1 0x0 SWAP1 SLOAD SWAP1 PUSH2 0x100 EXP SWAP1 DIV PUSH20 0xFFFFFFFFFFFFFFFFFFFFFFFFFFFFFFFFFFFFFFFF AND PUSH20 0xFFFFFFFFFFFFFFFFFFFFFFFFFFFFFFFFFFFFFFFF AND CALLER PUSH20 0xFFFFFFFFFFFFFFFFFFFFFFFFFFFFFFFFFFFFFFFF AND EQ PUSH2 0x3963 JUMPI PUSH1 0x40 MLOAD PUSH32 0x8C379A000000000000000000000000000000000000000000000000000000000 DUP2 MSTORE PUSH1 0x4 ADD PUSH2 0x395A SWAP1 PUSH2 0x5065 JUMP JUMPDEST PUSH1 0x40 MLOAD DUP1 SWAP2 SUB SWAP1 REVERT JUMPDEST PUSH1 0x1 PUSH1 0xB PUSH1 0x0 PUSH2 0x100 EXP DUP2 SLOAD DUP2 PUSH1 0xFF MUL NOT AND SWAP1 DUP4 ISZERO ISZERO MUL OR SWAP1 SSTORE POP PUSH1 0x0 PUSH1 0x9 PUSH1 0x0 PUSH2 0x100 EXP DUP2 SLOAD DUP2 PUSH1 0xFF MUL NOT AND SWAP1 DUP4 ISZERO ISZERO MUL OR SWAP1 SSTORE POP PUSH1 0x2 PUSH1 0x9 PUSH1 0x1 PUSH2 0x100 EXP DUP2 SLOAD DUP2 PUSH1 0xFF MUL NOT AND SWAP1 DUP4 PUSH1 0x2 DUP2 GT ISZERO PUSH2 0x39BF JUMPI PUSH2 0x39BE PUSH2 0x3B4E JUMP JUMPDEST JUMPDEST MUL OR SWAP1 SSTORE POP JUMP JUMPDEST PUSH1 0x0 PUSH1 0x4 SLOAD GT ISZERO PUSH2 0x39DA JUMPI PUSH2 0x39D9 PUSH2 0x3A22 JUMP JUMPDEST JUMPDEST PUSH1 0x0 PUSH1 0x9 PUSH1 0x0 PUSH2 0x100 EXP DUP2 SLOAD DUP2 PUSH1 0xFF MUL NOT AND SWAP1 DUP4 ISZERO ISZERO MUL OR SWAP1 SSTORE POP PUSH1 0x2 PUSH1 0x9 PUSH1 0x1 PUSH2 0x100 EXP DUP2 SLOAD DUP2 PUSH1 0xFF MUL NOT AND SWAP1 DUP4 PUSH1 0x2 DUP2 GT ISZERO PUSH2 0x3A1B JUMPI PUSH2 0x3A1A PUSH2 0x3B4E JUMP JUMPDEST JUMPDEST MUL OR SWAP1 SSTORE POP JUMP JUMPDEST PUSH1 0x0 DUP1 PUSH1 0x0 PUSH1 0x1 SWAP1 POP JUMPDEST PUSH1 0x4 SLOAD DUP2 GT PUSH2 0x3B0C JUMPI PUSH1 0x0 PUSH1 0x1 SWAP1 POP PUSH1 0x0 PUSH1 0x8 PUSH1 0x0 PUSH1 0x7 PUSH1 0x0 DUP7 DUP2 MSTORE PUSH1 0x20 ADD SWAP1 DUP2 MSTORE PUSH1 0x20 ADD PUSH1 0x0 KECCAK256 PUSH1 0x1 ADD SLOAD DUP2 MSTORE PUSH1 0x20 ADD SWAP1 DUP2 MSTORE PUSH1 0x20 ADD PUSH1 0x0 KECCAK256 SLOAD GT ISZERO PUSH2 0x3AA5 JUMPI PUSH1 0x8 PUSH1 0x0 PUSH1 0x7 PUSH1 0x0 DUP6 DUP2 MSTORE PUSH1 0x20 ADD SWAP1 DUP2 MSTORE PUSH1 0x20 ADD PUSH1 0x0 KECCAK256 PUSH1 0x1 ADD SLOAD DUP2 MSTORE PUSH1 0x20 ADD SWAP1 DUP2 MSTORE PUSH1 0x20 ADD PUSH1 0x0 KECCAK256 SLOAD DUP2 PUSH2 0x3AA2 SWAP2 SWAP1 PUSH2 0x4872 JUMP JUMPDEST SWAP1 POP JUMPDEST DUP1 PUSH1 0x8 PUSH1 0x0 PUSH1 0x7 PUSH1 0x0 DUP7 DUP2 MSTORE PUSH1 0x20 ADD SWAP1 DUP2 MSTORE PUSH1 0x20 ADD PUSH1 0x0 KECCAK256 PUSH1 0x1 ADD SLOAD DUP2 MSTORE PUSH1 0x20 ADD SWAP1 DUP2 MSTORE PUSH1 0x20 ADD PUSH1 0x0 KECCAK256 DUP2 SWAP1 SSTORE POP DUP4 DUP2 GT ISZERO PUSH2 0x3AF8 JUMPI DUP1 SWAP4 POP PUSH1 0x7 PUSH1 0x0 DUP4 DUP2 MSTORE PUSH1 0x20 ADD SWAP1 DUP2 MSTORE PUSH1 0x20 ADD PUSH1 0x0 KECCAK256 PUSH1 0x1 ADD SLOAD SWAP3 POP JUMPDEST POP DUP1 DUP1 PUSH2 0x3B04 SWAP1 PUSH2 0x47CA JUMP JUMPDEST SWAP2 POP POP PUSH2 0x3A2C JUMP JUMPDEST POP PUSH1 0x0 DUP1 DUP3 DUP2 MSTORE PUSH1 0x20 ADD SWAP1 DUP2 MSTORE PUSH1 0x20 ADD PUSH1 0x0 KECCAK256 PUSH1 0x6 SWAP1 DUP2 PUSH2 0x3B2D SWAP2 SWAP1 PUSH2 0x630C JUMP JUMPDEST POP POP POP JUMP JUMPDEST PUSH1 0x40 MLOAD DUP1 PUSH1 0x40 ADD PUSH1 0x40 MSTORE DUP1 PUSH1 0x60 DUP2 MSTORE PUSH1 0x20 ADD PUSH1 0x0 ISZERO ISZERO DUP2 MSTORE POP SWAP1 JUMP JUMPDEST PUSH32 0x4E487B7100000000000000000000000000000000000000000000000000000000 PUSH1 0x0 MSTORE PUSH1 0x21 PUSH1 0x4 MSTORE PUSH1 0x24 PUSH1 0x0 REVERT JUMPDEST PUSH1 0x3 DUP2 LT PUSH2 0x3B8E JUMPI PUSH2 0x3B8D PUSH2 0x3B4E JUMP JUMPDEST JUMPDEST POP JUMP JUMPDEST PUSH1 0x0 DUP2 SWAP1 POP PUSH2 0x3B9F DUP3 PUSH2 0x3B7D JUMP JUMPDEST SWAP2 SWAP1 POP JUMP JUMPDEST PUSH1 0x0 PUSH2 0x3BAF DUP3 PUSH2 0x3B91 JUMP JUMPDEST SWAP1 POP SWAP2 SWAP1 POP JUMP JUMPDEST PUSH2 0x3BBF DUP2 PUSH2 0x3BA4 JUMP JUMPDEST DUP3 MSTORE POP POP JUMP JUMPDEST PUSH1 0x0 PUSH1 0x20 DUP3 ADD SWAP1 POP PUSH2 0x3BDA PUSH1 0x0 DUP4 ADD DUP5 PUSH2 0x3BB6 JUMP JUMPDEST SWAP3 SWAP2 POP POP JUMP JUMPDEST PUSH1 0x0 DUP2 SWAP1 POP SWAP2 SWAP1 POP JUMP JUMPDEST PUSH2 0x3BF3 DUP2 PUSH2 0x3BE0 JUMP JUMPDEST DUP3 MSTORE POP POP JUMP JUMPDEST PUSH1 0x0 PUSH1 0x20 DUP3 ADD SWAP1 POP PUSH2 0x3C0E PUSH1 0x0 DUP4 ADD DUP5 PUSH2 0x3BEA JUMP JUMPDEST SWAP3 SWAP2 POP POP JUMP JUMPDEST PUSH1 0x0 PUSH1 0x40 MLOAD SWAP1 POP SWAP1 JUMP JUMPDEST PUSH1 0x0 DUP1 REVERT JUMPDEST PUSH1 0x0 DUP1 REVERT JUMPDEST PUSH2 0x3C31 DUP2 PUSH2 0x3BE0 JUMP JUMPDEST DUP2 EQ PUSH2 0x3C3C JUMPI PUSH1 0x0 DUP1 REVERT JUMPDEST POP JUMP JUMPDEST PUSH1 0x0 DUP2 CALLDATALOAD SWAP1 POP PUSH2 0x3C4E DUP2 PUSH2 0x3C28 JUMP JUMPDEST SWAP3 SWAP2 POP POP JUMP JUMPDEST PUSH1 0x0 PUSH1 0x20 DUP3 DUP5 SUB SLT ISZERO PUSH2 0x3C6A JUMPI PUSH2 0x3C69 PUSH2 0x3C1E JUMP JUMPDEST JUMPDEST PUSH1 0x0 PUSH2 0x3C78 DUP5 DUP3 DUP6 ADD PUSH2 0x3C3F JUMP JUMPDEST SWAP2 POP POP SWAP3 SWAP2 POP POP JUMP JUMPDEST PUSH1 0x0 DUP2 ISZERO ISZERO SWAP1 POP SWAP2 SWAP1 POP JUMP JUMPDEST PUSH2 0x3C96 DUP2 PUSH2 0x3C81 JUMP JUMPDEST DUP3 MSTORE POP POP JUMP JUMPDEST PUSH1 0x0 PUSH1 0x20 DUP3 ADD SWAP1 POP PUSH2 0x3CB1 PUSH1 0x0 DUP4 ADD DUP5 PUSH2 0x3C8D JUMP JUMPDEST SWAP3 SWAP2 POP POP JUMP JUMPDEST PUSH1 0x0 PUSH20 0xFFFFFFFFFFFFFFFFFFFFFFFFFFFFFFFFFFFFFFFF DUP3 AND SWAP1 POP SWAP2 SWAP1 POP JUMP JUMPDEST PUSH1 0x0 PUSH2 0x3CE2 DUP3 PUSH2 0x3CB7 JUMP JUMPDEST SWAP1 POP SWAP2 SWAP1 POP JUMP JUMPDEST PUSH2 0x3CF2 DUP2 PUSH2 0x3CD7 JUMP JUMPDEST DUP2 EQ PUSH2 0x3CFD JUMPI PUSH1 0x0 DUP1 REVERT JUMPDEST POP JUMP JUMPDEST PUSH1 0x0 DUP2 CALLDATALOAD SWAP1 POP PUSH2 0x3D0F DUP2 PUSH2 0x3CE9 JUMP JUMPDEST SWAP3 SWAP2 POP POP JUMP JUMPDEST PUSH1 0x0 PUSH1 0x20 DUP3 DUP5 SUB SLT ISZERO PUSH2 0x3D2B JUMPI PUSH2 0x3D2A PUSH2 0x3C1E JUMP JUMPDEST JUMPDEST PUSH1 0x0 PUSH2 0x3D39 DUP5 DUP3 DUP6 ADD PUSH2 0x3D00 JUMP JUMPDEST SWAP2 POP POP SWAP3 SWAP2 POP POP JUMP JUMPDEST PUSH1 0x0 DUP2 MLOAD SWAP1 POP SWAP2 SWAP1 POP JUMP JUMPDEST PUSH1 0x0 DUP3 DUP3 MSTORE PUSH1 0x20 DUP3 ADD SWAP1 POP SWAP3 SWAP2 POP POP JUMP JUMPDEST PUSH1 0x0 JUMPDEST DUP4 DUP2 LT ISZERO PUSH2 0x3D7C JUMPI DUP1 DUP3 ADD MLOAD DUP2 DUP5 ADD MSTORE PUSH1 0x20 DUP2 ADD SWAP1 POP PUSH2 0x3D61 JUMP JUMPDEST PUSH1 0x0 DUP5 DUP5 ADD MSTORE POP POP POP POP JUMP JUMPDEST PUSH1 0x0 PUSH1 0x1F NOT PUSH1 0x1F DUP4 ADD AND SWAP1 POP SWAP2 SWAP1 POP JUMP JUMPDEST PUSH1 0x0 PUSH2 0x3DA4 DUP3 PUSH2 0x3D42 JUMP JUMPDEST PUSH2 0x3DAE DUP2 DUP6 PUSH2 0x3D4D JUMP JUMPDEST SWAP4 POP PUSH2 0x3DBE DUP2 DUP6 PUSH1 0x20 DUP7 ADD PUSH2 0x3D5E JUMP JUMPDEST PUSH2 0x3DC7 DUP2 PUSH2 0x3D88 JUMP JUMPDEST DUP5 ADD SWAP2 POP POP SWAP3 SWAP2 POP POP JUMP JUMPDEST PUSH1 0x0 PUSH1 0x40 DUP3 ADD SWAP1 POP DUP2 DUP2 SUB PUSH1 0x0 DUP4 ADD MSTORE PUSH2 0x3DEC DUP2 DUP6 PUSH2 0x3D99 JUMP JUMPDEST SWAP1 POP PUSH2 0x3DFB PUSH1 0x20 DUP4 ADD DUP5 PUSH2 0x3C8D JUMP JUMPDEST SWAP4 SWAP3 POP POP POP JUMP JUMPDEST PUSH1 0x0 DUP1 REVERT JUMPDEST PUSH1 0x0 DUP1 REVERT JUMPDEST PUSH32 0x4E487B7100000000000000000000000000000000000000000000000000000000 PUSH1 0x0 MSTORE PUSH1 0x41 PUSH1 0x4 MSTORE PUSH1 0x24 PUSH1 0x0 REVERT JUMPDEST PUSH2 0x3E44 DUP3 PUSH2 0x3D88 JUMP JUMPDEST DUP2 ADD DUP2 DUP2 LT PUSH8 0xFFFFFFFFFFFFFFFF DUP3 GT OR ISZERO PUSH2 0x3E63 JUMPI PUSH2 0x3E62 PUSH2 0x3E0C JUMP JUMPDEST JUMPDEST DUP1 PUSH1 0x40 MSTORE POP POP POP JUMP JUMPDEST PUSH1 0x0 PUSH2 0x3E76 PUSH2 0x3C14 JUMP JUMPDEST SWAP1 POP PUSH2 0x3E82 DUP3 DUP3 PUSH2 0x3E3B JUMP JUMPDEST SWAP2 SWAP1 POP JUMP JUMPDEST PUSH1 0x0 PUSH8 0xFFFFFFFFFFFFFFFF DUP3 GT ISZERO PUSH2 0x3EA2 JUMPI PUSH2 0x3EA1 PUSH2 0x3E0C JUMP JUMPDEST JUMPDEST PUSH2 0x3EAB DUP3 PUSH2 0x3D88 JUMP JUMPDEST SWAP1 POP PUSH1 0x20 DUP2 ADD SWAP1 POP SWAP2 SWAP1 POP JUMP JUMPDEST DUP3 DUP2 DUP4 CALLDATACOPY PUSH1 0x0 DUP4 DUP4 ADD MSTORE POP POP POP JUMP JUMPDEST PUSH1 0x0 PUSH2 0x3EDA PUSH2 0x3ED5 DUP5 PUSH2 0x3E87 JUMP JUMPDEST PUSH2 0x3E6C JUMP JUMPDEST SWAP1 POP DUP3 DUP2 MSTORE PUSH1 0x20 DUP2 ADD DUP5 DUP5 DUP5 ADD GT ISZERO PUSH2 0x3EF6 JUMPI PUSH2 0x3EF5 PUSH2 0x3E07 JUMP JUMPDEST JUMPDEST PUSH2 0x3F01 DUP5 DUP3 DUP6 PUSH2 0x3EB8 JUMP JUMPDEST POP SWAP4 SWAP3 POP POP POP JUMP JUMPDEST PUSH1 0x0 DUP3 PUSH1 0x1F DUP4 ADD SLT PUSH2 0x3F1E JUMPI PUSH2 0x3F1D PUSH2 0x3E02 JUMP JUMPDEST JUMPDEST DUP2 CALLDATALOAD PUSH2 0x3F2E DUP5 DUP3 PUSH1 0x20 DUP7 ADD PUSH2 0x3EC7 JUMP JUMPDEST SWAP2 POP POP SWAP3 SWAP2 POP POP JUMP JUMPDEST PUSH1 0x0 DUP1 PUSH1 0x40 DUP4 DUP6 SUB SLT ISZERO PUSH2 0x3F4E JUMPI PUSH2 0x3F4D PUSH2 0x3C1E JUMP JUMPDEST JUMPDEST PUSH1 0x0 PUSH2 0x3F5C DUP6 DUP3 DUP7 ADD PUSH2 0x3D00 JUMP JUMPDEST SWAP3 POP POP PUSH1 0x20 DUP4 ADD CALLDATALOAD PUSH8 0xFFFFFFFFFFFFFFFF DUP2 GT ISZERO PUSH2 0x3F7D JUMPI PUSH2 0x3F7C PUSH2 0x3C23 JUMP JUMPDEST JUMPDEST PUSH2 0x3F89 DUP6 DUP3 DUP7 ADD PUSH2 0x3F09 JUMP JUMPDEST SWAP2 POP POP SWAP3 POP SWAP3 SWAP1 POP JUMP JUMPDEST PUSH2 0x3F9C DUP2 PUSH2 0x3CD7 JUMP JUMPDEST DUP3 MSTORE POP POP JUMP JUMPDEST PUSH1 0x0 PUSH1 0x20 DUP3 ADD SWAP1 POP PUSH2 0x3FB7 PUSH1 0x0 DUP4 ADD DUP5 PUSH2 0x3F93 JUMP JUMPDEST SWAP3 SWAP2 POP POP JUMP JUMPDEST PUSH1 0x0 PUSH1 0x40 DUP3 ADD SWAP1 POP PUSH2 0x3FD2 PUSH1 0x0 DUP4 ADD DUP6 PUSH2 0x3F93 JUMP JUMPDEST PUSH2 0x3FDF PUSH1 0x20 DUP4 ADD DUP5 PUSH2 0x3BEA JUMP JUMPDEST SWAP4 SWAP3 POP POP POP JUMP JUMPDEST PUSH1 0x0 PUSH1 0x20 DUP3 DUP5 SUB SLT ISZERO PUSH2 0x3FFC JUMPI PUSH2 0x3FFB PUSH2 0x3C1E JUMP JUMPDEST JUMPDEST PUSH1 0x0 DUP3 ADD CALLDATALOAD PUSH8 0xFFFFFFFFFFFFFFFF DUP2 GT ISZERO PUSH2 0x401A JUMPI PUSH2 0x4019 PUSH2 0x3C23 JUMP JUMPDEST JUMPDEST PUSH2 0x4026 DUP5 DUP3 DUP6 ADD PUSH2 0x3F09 JUMP JUMPDEST SWAP2 POP POP SWAP3 SWAP2 POP POP JUMP JUMPDEST PUSH1 0x0 PUSH1 0x20 DUP3 ADD SWAP1 POP DUP2 DUP2 SUB PUSH1 0x0 DUP4 ADD MSTORE PUSH2 0x4049 DUP2 DUP5 PUSH2 0x3D99 JUMP JUMPDEST SWAP1 POP SWAP3 SWAP2 POP POP JUMP JUMPDEST PUSH32 0x4E65772052657374617572616E74000000000000000000000000000000000000 PUSH1 0x0 DUP3 ADD MSTORE POP JUMP JUMPDEST PUSH1 0x0 PUSH2 0x4087 PUSH1 0xE DUP4 PUSH2 0x3D4D JUMP JUMPDEST SWAP2 POP PUSH2 0x4092 DUP3 PUSH2 0x4051 JUMP JUMPDEST PUSH1 0x20 DUP3 ADD SWAP1 POP SWAP2 SWAP1 POP JUMP JUMPDEST PUSH1 0x0 PUSH1 0x20 DUP3 ADD SWAP1 POP DUP2 DUP2 SUB PUSH1 0x0 DUP4 ADD MSTORE PUSH2 0x40B6 DUP2 PUSH2 0x407A JUMP JUMPDEST SWAP1 POP SWAP2 SWAP1 POP JUMP JUMPDEST PUSH1 0x0 DUP2 MLOAD SWAP1 POP PUSH2 0x40CC DUP2 PUSH2 0x3C28 JUMP JUMPDEST SWAP3 SWAP2 POP POP JUMP JUMPDEST PUSH1 0x0 PUSH1 0x20 DUP3 DUP5 SUB SLT ISZERO PUSH2 0x40E8 JUMPI PUSH2 0x40E7 PUSH2 0x3C1E JUMP JUMPDEST JUMPDEST PUSH1 0x0 PUSH2 0x40F6 DUP5 DUP3 DUP6 ADD PUSH2 0x40BD JUMP JUMPDEST SWAP2 POP POP SWAP3 SWAP2 POP POP JUMP JUMPDEST PUSH1 0x0 DUP2 PUSH1 0xE0 SHR SWAP1 POP SWAP2 SWAP1 POP JUMP JUMPDEST PUSH1 0x0 PUSH1 0x3 RETURNDATASIZE GT ISZERO PUSH2 0x412B JUMPI PUSH1 0x4 PUSH1 0x0 DUP1 RETURNDATACOPY PUSH2 0x4128 PUSH1 0x0 MLOAD PUSH2 0x40FF JUMP JUMPDEST SWAP1 POP JUMPDEST SWAP1 JUMP JUMPDEST PUSH1 0x0 PUSH1 0x44 RETURNDATASIZE LT PUSH2 0x41BB JUMPI PUSH2 0x4140 PUSH2 0x3C14 JUMP JUMPDEST PUSH1 0x4 RETURNDATASIZE SUB PUSH1 0x4 DUP3 RETURNDATACOPY DUP1 MLOAD RETURNDATASIZE PUSH1 0x24 DUP3 ADD GT PUSH8 0xFFFFFFFFFFFFFFFF DUP3 GT OR ISZERO PUSH2 0x4168 JUMPI POP POP PUSH2 0x41BB JUMP JUMPDEST DUP1 DUP3 ADD DUP1 MLOAD PUSH8 0xFFFFFFFFFFFFFFFF DUP2 GT ISZERO PUSH2 0x4186 JUMPI POP POP POP POP PUSH2 0x41BB JUMP JUMPDEST DUP1 PUSH1 0x20 DUP4 ADD ADD PUSH1 0x4 RETURNDATASIZE SUB DUP6 ADD DUP2 GT ISZERO PUSH2 0x41A3 JUMPI POP POP POP POP POP PUSH2 0x41BB JUMP JUMPDEST PUSH2 0x41B2 DUP3 PUSH1 0x20 ADD DUP6 ADD DUP7 PUSH2 0x3E3B JUMP JUMPDEST DUP3 SWAP6 POP POP POP POP POP POP JUMPDEST SWAP1 JUMP JUMPDEST PUSH1 0x0 DUP3 DUP3 MSTORE PUSH1 0x20 DUP3 ADD SWAP1 POP SWAP3 SWAP2 POP POP JUMP JUMPDEST PUSH1 0x0 PUSH2 0x41DA DUP3 PUSH2 0x3D42 JUMP JUMPDEST PUSH2 0x41E4 DUP2 DUP6 PUSH2 0x41BE JUMP JUMPDEST SWAP4 POP PUSH2 0x41F4 DUP2 DUP6 PUSH1 0x20 DUP7 ADD PUSH2 0x3D5E JUMP JUMPDEST PUSH2 0x41FD DUP2 PUSH2 0x3D88 JUMP JUMPDEST DUP5 ADD SWAP2 POP POP SWAP3 SWAP2 POP POP JUMP JUMPDEST PUSH32 0x416374696F6E206E6F7420616C6C6F77656420696E2063757272656E74207068 PUSH1 0x0 DUP3 ADD MSTORE PUSH32 0x6173652E00000000000000000000000000000000000000000000000000000000 PUSH1 0x20 DUP3 ADD MSTORE POP JUMP JUMPDEST PUSH1 0x0 PUSH2 0x4264 PUSH1 0x24 DUP4 PUSH2 0x41BE JUMP JUMPDEST SWAP2 POP PUSH2 0x426F DUP3 PUSH2 0x4208 JUMP JUMPDEST PUSH1 0x40 DUP3 ADD SWAP1 POP SWAP2 SWAP1 POP JUMP JUMPDEST PUSH32 0x53686F756C64206661696C207769746820706861736520726573747269637469 PUSH1 0x0 DUP3 ADD MSTORE PUSH32 0x6F6E206D65737361676500000000000000000000000000000000000000000000 PUSH1 0x20 DUP3 ADD MSTORE POP JUMP JUMPDEST PUSH1 0x0 PUSH2 0x42D6 PUSH1 0x2A DUP4 PUSH2 0x41BE JUMP JUMPDEST SWAP2 POP PUSH2 0x42E1 DUP3 PUSH2 0x427A JUMP JUMPDEST PUSH1 0x40 DUP3 ADD SWAP1 POP SWAP2 SWAP1 POP JUMP JUMPDEST PUSH1 0x0 PUSH1 0x60 DUP3 ADD SWAP1 POP DUP2 DUP2 SUB PUSH1 0x0 DUP4 ADD MSTORE PUSH2 0x4306 DUP2 DUP5 PUSH2 0x41CF JUMP JUMPDEST SWAP1 POP DUP2 DUP2 SUB PUSH1 0x20 DUP4 ADD MSTORE PUSH2 0x4319 DUP2 PUSH2 0x4257 JUMP JUMPDEST SWAP1 POP DUP2 DUP2 SUB PUSH1 0x40 DUP4 ADD MSTORE PUSH2 0x432C DUP2 PUSH2 0x42C9 JUMP JUMPDEST SWAP1 POP SWAP3 SWAP2 POP POP JUMP JUMPDEST PUSH2 0x433D DUP2 PUSH2 0x3C81 JUMP JUMPDEST DUP2 EQ PUSH2 0x4348 JUMPI PUSH1 0x0 DUP1 REVERT JUMPDEST POP JUMP JUMPDEST PUSH1 0x0 DUP2 MLOAD SWAP1 POP PUSH2 0x435A DUP2 PUSH2 0x4334 JUMP JUMPDEST SWAP3 SWAP2 POP POP JUMP JUMPDEST PUSH1 0x0 PUSH1 0x20 DUP3 DUP5 SUB SLT ISZERO PUSH2 0x4376 JUMPI PUSH2 0x4375 PUSH2 0x3C1E JUMP JUMPDEST JUMPDEST PUSH1 0x0 PUSH2 0x4384 DUP5 DUP3 DUP6 ADD PUSH2 0x434B JUMP JUMPDEST SWAP2 POP POP SWAP3 SWAP2 POP POP JUMP JUMPDEST PUSH2 0x4396 DUP2 PUSH2 0x3C81 JUMP JUMPDEST DUP3 MSTORE POP POP JUMP JUMPDEST PUSH32 0x4661696C656420756E65787065637465646C7900000000000000000000000000 PUSH1 0x0 DUP3 ADD MSTORE POP JUMP JUMPDEST PUSH1 0x0 PUSH2 0x43D2 PUSH1 0x13 DUP4 PUSH2 0x41BE JUMP JUMPDEST SWAP2 POP PUSH2 0x43DD DUP3 PUSH2 0x439C JUMP JUMPDEST PUSH1 0x20 DUP3 ADD SWAP1 POP SWAP2 SWAP1 POP JUMP JUMPDEST PUSH1 0x0 PUSH1 0x40 DUP3 ADD SWAP1 POP PUSH2 0x43FD PUSH1 0x0 DUP4 ADD DUP5 PUSH2 0x438D JUMP JUMPDEST DUP2 DUP2 SUB PUSH1 0x20 DUP4 ADD MSTORE PUSH2 0x440E DUP2 PUSH2 0x43C5 JUMP JUMPDEST SWAP1 POP SWAP3 SWAP2 POP POP JUMP JUMPDEST PUSH32 0x53686F756C64206E6F7420616C6C6F7720616464696E67207265737461757261 PUSH1 0x0 DUP3 ADD MSTORE PUSH32 0x6E7420647572696E6720766F74696E6720706861736500000000000000000000 PUSH1 0x20 DUP3 ADD MSTORE POP JUMP JUMPDEST PUSH1 0x0 PUSH2 0x4472 PUSH1 0x36 DUP4 PUSH2 0x41BE JUMP JUMPDEST SWAP2 POP PUSH2 0x447D DUP3 PUSH2 0x4416 JUMP JUMPDEST PUSH1 0x40 DUP3 ADD SWAP1 POP SWAP2 SWAP1 POP JUMP JUMPDEST PUSH1 0x0 PUSH1 0x40 DUP3 ADD SWAP1 POP PUSH2 0x449D PUSH1 0x0 DUP4 ADD DUP5 PUSH2 0x438D JUMP JUMPDEST DUP2 DUP2 SUB PUSH1 0x20 DUP4 ADD MSTORE PUSH2 0x44AE DUP2 PUSH2 0x4465 JUMP JUMPDEST SWAP1 POP SWAP3 SWAP2 POP POP JUMP JUMPDEST PUSH32 0x436F6E7472616374206973207368757420646F776E2E00000000000000000000 PUSH1 0x0 DUP3 ADD MSTORE POP JUMP JUMPDEST PUSH1 0x0 PUSH2 0x44EC PUSH1 0x16 DUP4 PUSH2 0x3D4D JUMP JUMPDEST SWAP2 POP PUSH2 0x44F7 DUP3 PUSH2 0x44B6 JUMP JUMPDEST PUSH1 0x20 DUP3 ADD SWAP1 POP SWAP2 SWAP1 POP JUMP JUMPDEST PUSH1 0x0 PUSH1 0x20 DUP3 ADD SWAP1 POP DUP2 DUP2 SUB PUSH1 0x0 DUP4 ADD MSTORE PUSH2 0x451B DUP2 PUSH2 0x44DF JUMP JUMPDEST SWAP1 POP SWAP2 SWAP1 POP JUMP JUMPDEST PUSH1 0x0 PUSH2 0x452F PUSH1 0x24 DUP4 PUSH2 0x3D4D JUMP JUMPDEST SWAP2 POP PUSH2 0x453A DUP3 PUSH2 0x4208 JUMP JUMPDEST PUSH1 0x40 DUP3 ADD SWAP1 POP SWAP2 SWAP1 POP JUMP JUMPDEST PUSH1 0x0 PUSH1 0x20 DUP3 ADD SWAP1 POP DUP2 DUP2 SUB PUSH1 0x0 DUP4 ADD MSTORE PUSH2 0x455E DUP2 PUSH2 0x4522 JUMP JUMPDEST SWAP1 POP SWAP2 SWAP1 POP JUMP JUMPDEST PUSH32 0x43616E20766F7465206F6E6C79207768696C6520766F74696E67206973206F70 PUSH1 0x0 DUP3 ADD MSTORE PUSH32 0x656E2E0000000000000000000000000000000000000000000000000000000000 PUSH1 0x20 DUP3 ADD MSTORE POP JUMP JUMPDEST PUSH1 0x0 PUSH2 0x45C1 PUSH1 0x23 DUP4 PUSH2 0x3D4D JUMP JUMPDEST SWAP2 POP PUSH2 0x45CC DUP3 PUSH2 0x4565 JUMP JUMPDEST PUSH1 0x40 DUP3 ADD SWAP1 POP SWAP2 SWAP1 POP JUMP JUMPDEST PUSH1 0x0 PUSH1 0x20 DUP3 ADD SWAP1 POP DUP2 DUP2 SUB PUSH1 0x0 DUP4 ADD MSTORE PUSH2 0x45F0 DUP2 PUSH2 0x45B4 JUMP JUMPDEST SWAP1 POP SWAP2 SWAP1 POP JUMP JUMPDEST PUSH32 0x4E487B7100000000000000000000000000000000000000000000000000000000 PUSH1 0x0 MSTORE PUSH1 0x22 PUSH1 0x4 MSTORE PUSH1 0x24 PUSH1 0x0 REVERT JUMPDEST PUSH1 0x0 PUSH1 0x2 DUP3 DIV SWAP1 POP PUSH1 0x1 DUP3 AND DUP1 PUSH2 0x463E JUMPI PUSH1 0x7F DUP3 AND SWAP2 POP JUMPDEST PUSH1 0x20 DUP3 LT DUP2 SUB PUSH2 0x4651 JUMPI PUSH2 0x4650 PUSH2 0x45F7 JUMP JUMPDEST JUMPDEST POP SWAP2 SWAP1 POP JUMP JUMPDEST PUSH32 0x52657374617572616E7420646F6573206E6F742065786973742E000000000000 PUSH1 0x0 DUP3 ADD MSTORE POP JUMP JUMPDEST PUSH1 0x0 PUSH2 0x468D PUSH1 0x1A DUP4 PUSH2 0x3D4D JUMP JUMPDEST SWAP2 POP PUSH2 0x4698 DUP3 PUSH2 0x4657 JUMP JUMPDEST PUSH1 0x20 DUP3 ADD SWAP1 POP SWAP2 SWAP1 POP JUMP JUMPDEST PUSH1 0x0 PUSH1 0x20 DUP3 ADD SWAP1 POP DUP2 DUP2 SUB PUSH1 0x0 DUP4 ADD MSTORE PUSH2 0x46BC DUP2 PUSH2 0x4680 JUMP JUMPDEST SWAP1 POP SWAP2 SWAP1 POP JUMP JUMPDEST PUSH32 0x596F7520617265206E6F742061207265676973746572656420667269656E642E PUSH1 0x0 DUP3 ADD MSTORE POP JUMP JUMPDEST PUSH1 0x0 PUSH2 0x46F9 PUSH1 0x20 DUP4 PUSH2 0x3D4D JUMP JUMPDEST SWAP2 POP PUSH2 0x4704 DUP3 PUSH2 0x46C3 JUMP JUMPDEST PUSH1 0x20 DUP3 ADD SWAP1 POP SWAP2 SWAP1 POP JUMP JUMPDEST PUSH1 0x0 PUSH1 0x20 DUP3 ADD SWAP1 POP DUP2 DUP2 SUB PUSH1 0x0 DUP4 ADD MSTORE PUSH2 0x4728 DUP2 PUSH2 0x46EC JUMP JUMPDEST SWAP1 POP SWAP2 SWAP1 POP JUMP JUMPDEST PUSH32 0x596F75206861766520616C726561647920766F7465642E000000000000000000 PUSH1 0x0 DUP3 ADD MSTORE POP JUMP JUMPDEST PUSH1 0x0 PUSH2 0x4765 PUSH1 0x17 DUP4 PUSH2 0x3D4D JUMP JUMPDEST SWAP2 POP PUSH2 0x4770 DUP3 PUSH2 0x472F JUMP JUMPDEST PUSH1 0x20 DUP3 ADD SWAP1 POP SWAP2 SWAP1 POP JUMP JUMPDEST PUSH1 0x0 PUSH1 0x20 DUP3 ADD SWAP1 POP DUP2 DUP2 SUB PUSH1 0x0 DUP4 ADD MSTORE PUSH2 0x4794 DUP2 PUSH2 0x4758 JUMP JUMPDEST SWAP1 POP SWAP2 SWAP1 POP JUMP JUMPDEST PUSH32 0x4E487B7100000000000000000000000000000000000000000000000000000000 PUSH1 0x0 MSTORE PUSH1 0x11 PUSH1 0x4 MSTORE PUSH1 0x24 PUSH1 0x0 REVERT JUMPDEST PUSH1 0x0 PUSH2 0x47D5 DUP3 PUSH2 0x3BE0 JUMP JUMPDEST SWAP2 POP PUSH32 0xFFFFFFFFFFFFFFFFFFFFFFFFFFFFFFFFFFFFFFFFFFFFFFFFFFFFFFFFFFFFFFFF DUP3 SUB PUSH2 0x4807 JUMPI PUSH2 0x4806 PUSH2 0x479B JUMP JUMPDEST JUMPDEST PUSH1 0x1 DUP3 ADD SWAP1 POP SWAP2 SWAP1 POP JUMP JUMPDEST PUSH32 0x4E487B7100000000000000000000000000000000000000000000000000000000 PUSH1 0x0 MSTORE PUSH1 0x12 PUSH1 0x4 MSTORE PUSH1 0x24 PUSH1 0x0 REVERT JUMPDEST PUSH1 0x0 PUSH2 0x484C DUP3 PUSH2 0x3BE0 JUMP JUMPDEST SWAP2 POP PUSH2 0x4857 DUP4 PUSH2 0x3BE0 JUMP JUMPDEST SWAP3 POP DUP3 PUSH2 0x4867 JUMPI PUSH2 0x4866 PUSH2 0x4812 JUMP JUMPDEST JUMPDEST DUP3 DUP3 DIV SWAP1 POP SWAP3 SWAP2 POP POP JUMP JUMPDEST PUSH1 0x0 PUSH2 0x487D DUP3 PUSH2 0x3BE0 JUMP JUMPDEST SWAP2 POP PUSH2 0x4888 DUP4 PUSH2 0x3BE0 JUMP JUMPDEST SWAP3 POP DUP3 DUP3 ADD SWAP1 POP DUP1 DUP3 GT ISZERO PUSH2 0x48A0 JUMPI PUSH2 0x489F PUSH2 0x479B JUMP JUMPDEST JUMPDEST SWAP3 SWAP2 POP POP JUMP JUMPDEST PUSH2 0x48AF DUP2 PUSH2 0x3BE0 JUMP JUMPDEST DUP3 MSTORE POP POP JUMP JUMPDEST PUSH1 0x0 DUP2 SWAP1 POP SWAP2 SWAP1 POP JUMP JUMPDEST PUSH1 0x0 DUP2 SWAP1 POP SWAP2 SWAP1 POP JUMP JUMPDEST PUSH1 0x0 PUSH2 0x48E4 PUSH2 0x48DF PUSH2 0x48DA DUP5 PUSH2 0x48B5 JUMP JUMPDEST PUSH2 0x48BF JUMP JUMPDEST PUSH2 0x3BE0 JUMP JUMPDEST SWAP1 POP SWAP2 SWAP1 POP JUMP JUMPDEST PUSH2 0x48F4 DUP2 PUSH2 0x48C9 JUMP JUMPDEST DUP3 MSTORE POP POP JUMP JUMPDEST PUSH32 0x53686F756C6420626520657175616C20746F2031000000000000000000000000 PUSH1 0x0 DUP3 ADD MSTORE POP JUMP JUMPDEST PUSH1 0x0 PUSH2 0x4930 PUSH1 0x14 DUP4 PUSH2 0x41BE JUMP JUMPDEST SWAP2 POP PUSH2 0x493B DUP3 PUSH2 0x48FA JUMP JUMPDEST PUSH1 0x20 DUP3 ADD SWAP1 POP SWAP2 SWAP1 POP JUMP JUMPDEST PUSH1 0x0 PUSH1 0x60 DUP3 ADD SWAP1 POP PUSH2 0x495B PUSH1 0x0 DUP4 ADD DUP6 PUSH2 0x48A6 JUMP JUMPDEST PUSH2 0x4968 PUSH1 0x20 DUP4 ADD DUP5 PUSH2 0x48EB JUMP JUMPDEST DUP2 DUP2 SUB PUSH1 0x40 DUP4 ADD MSTORE PUSH2 0x4979 DUP2 PUSH2 0x4923 JUMP JUMPDEST SWAP1 POP SWAP4 SWAP3 POP POP POP JUMP JUMPDEST PUSH1 0x0 DUP2 SWAP1 POP SWAP2 SWAP1 POP JUMP JUMPDEST PUSH1 0x0 PUSH2 0x49A7 PUSH2 0x49A2 PUSH2 0x499D DUP5 PUSH2 0x4982 JUMP JUMPDEST PUSH2 0x48BF JUMP JUMPDEST PUSH2 0x3BE0 JUMP JUMPDEST SWAP1 POP SWAP2 SWAP1 POP JUMP JUMPDEST PUSH2 0x49B7 DUP2 PUSH2 0x498C JUMP JUMPDEST DUP3 MSTORE POP POP JUMP JUMPDEST PUSH32 0x53686F756C6420626520657175616C20746F2032000000000000000000000000 PUSH1 0x0 DUP3 ADD MSTORE POP JUMP JUMPDEST PUSH1 0x0 PUSH2 0x49F3 PUSH1 0x14 DUP4 PUSH2 0x41BE JUMP JUMPDEST SWAP2 POP PUSH2 0x49FE DUP3 PUSH2 0x49BD JUMP JUMPDEST PUSH1 0x20 DUP3 ADD SWAP1 POP SWAP2 SWAP1 POP JUMP JUMPDEST PUSH1 0x0 PUSH1 0x60 DUP3 ADD SWAP1 POP PUSH2 0x4A1E PUSH1 0x0 DUP4 ADD DUP6 PUSH2 0x48A6 JUMP JUMPDEST PUSH2 0x4A2B PUSH1 0x20 DUP4 ADD DUP5 PUSH2 0x49AE JUMP JUMPDEST DUP2 DUP2 SUB PUSH1 0x40 DUP4 ADD MSTORE PUSH2 0x4A3C DUP2 PUSH2 0x49E6 JUMP JUMPDEST SWAP1 POP SWAP4 SWAP3 POP POP POP JUMP JUMPDEST PUSH32 0x566F74696E6720726573756C742073686F756C64206265207472756500000000 PUSH1 0x0 DUP3 ADD MSTORE POP JUMP JUMPDEST PUSH1 0x0 PUSH2 0x4A7B PUSH1 0x1C DUP4 PUSH2 0x41BE JUMP JUMPDEST SWAP2 POP PUSH2 0x4A86 DUP3 PUSH2 0x4A45 JUMP JUMPDEST PUSH1 0x20 DUP3 ADD SWAP1 POP SWAP2 SWAP1 POP JUMP JUMPDEST PUSH1 0x0 PUSH1 0x40 DUP3 ADD SWAP1 POP PUSH2 0x4AA6 PUSH1 0x0 DUP4 ADD DUP5 PUSH2 0x438D JUMP JUMPDEST DUP2 DUP2 SUB PUSH1 0x20 DUP4 ADD MSTORE PUSH2 0x4AB7 DUP2 PUSH2 0x4A6E JUMP JUMPDEST SWAP1 POP SWAP3 SWAP2 POP POP JUMP JUMPDEST PUSH32 0x426F622073686F756C64206861766520616C726561647920766F746564000000 PUSH1 0x0 DUP3 ADD MSTORE POP JUMP JUMPDEST PUSH1 0x0 PUSH2 0x4AF5 PUSH1 0x1D DUP4 PUSH2 0x41BE JUMP JUMPDEST SWAP2 POP PUSH2 0x4B00 DUP3 PUSH2 0x4ABF JUMP JUMPDEST PUSH1 0x20 DUP3 ADD SWAP1 POP SWAP2 SWAP1 POP JUMP JUMPDEST PUSH1 0x0 PUSH1 0x60 DUP3 ADD SWAP1 POP PUSH2 0x4B20 PUSH1 0x0 DUP4 ADD DUP6 PUSH2 0x438D JUMP JUMPDEST PUSH2 0x4B2D PUSH1 0x20 DUP4 ADD DUP5 PUSH2 0x438D JUMP JUMPDEST DUP2 DUP2 SUB PUSH1 0x40 DUP4 ADD MSTORE PUSH2 0x4B3E DUP2 PUSH2 0x4AE8 JUMP JUMPDEST SWAP1 POP SWAP4 SWAP3 POP POP POP JUMP JUMPDEST PUSH2 0x4B50 DUP2 PUSH2 0x498C JUMP JUMPDEST DUP3 MSTORE POP POP JUMP JUMPDEST PUSH1 0x0 PUSH1 0x20 DUP3 ADD SWAP1 POP PUSH2 0x4B6B PUSH1 0x0 DUP4 ADD DUP5 PUSH2 0x4B47 JUMP JUMPDEST SWAP3 SWAP2 POP POP JUMP JUMPDEST PUSH32 0x4475706C696361746520766F74652073686F756C64206E6F7420626520616C6C PUSH1 0x0 DUP3 ADD MSTORE PUSH32 0x6F77656400000000000000000000000000000000000000000000000000000000 PUSH1 0x20 DUP3 ADD MSTORE POP JUMP JUMPDEST PUSH1 0x0 PUSH2 0x4BCD PUSH1 0x24 DUP4 PUSH2 0x41BE JUMP JUMPDEST SWAP2 POP PUSH2 0x4BD8 DUP3 PUSH2 0x4B71 JUMP JUMPDEST PUSH1 0x40 DUP3 ADD SWAP1 POP SWAP2 SWAP1 POP JUMP JUMPDEST PUSH1 0x0 PUSH1 0x60 DUP3 ADD SWAP1 POP PUSH2 0x4BF8 PUSH1 0x0 DUP4 ADD DUP6 PUSH2 0x438D JUMP JUMPDEST PUSH2 0x4C05 PUSH1 0x20 DUP4 ADD DUP5 PUSH2 0x438D JUMP JUMPDEST DUP2 DUP2 SUB PUSH1 0x40 DUP4 ADD MSTORE PUSH2 0x4C16 DUP2 PUSH2 0x4BC0 JUMP JUMPDEST SWAP1 POP SWAP4 SWAP3 POP POP POP JUMP JUMPDEST PUSH32 0x566F746520636F756E742073686F756C64206E6F7420696E6372656173650000 PUSH1 0x0 DUP3 ADD MSTORE POP JUMP JUMPDEST PUSH1 0x0 PUSH2 0x4C55 PUSH1 0x1E DUP4 PUSH2 0x41BE JUMP JUMPDEST SWAP2 POP PUSH2 0x4C60 DUP3 PUSH2 0x4C1F JUMP JUMPDEST PUSH1 0x20 DUP3 ADD SWAP1 POP SWAP2 SWAP1 POP JUMP JUMPDEST PUSH1 0x0 PUSH1 0x60 DUP3 ADD SWAP1 POP PUSH2 0x4C80 PUSH1 0x0 DUP4 ADD DUP6 PUSH2 0x48A6 JUMP JUMPDEST PUSH2 0x4C8D PUSH1 0x20 DUP4 ADD DUP5 PUSH2 0x48A6 JUMP JUMPDEST DUP2 DUP2 SUB PUSH1 0x40 DUP4 ADD MSTORE PUSH2 0x4C9E DUP2 PUSH2 0x4C48 JUMP JUMPDEST SWAP1 POP SWAP4 SWAP3 POP POP POP JUMP JUMPDEST PUSH32 0x467269656E6420616C7265616479206578697374732E00000000000000000000 PUSH1 0x0 DUP3 ADD MSTORE POP JUMP JUMPDEST PUSH1 0x0 PUSH2 0x4CDD PUSH1 0x16 DUP4 PUSH2 0x3D4D JUMP JUMPDEST SWAP2 POP PUSH2 0x4CE8 DUP3 PUSH2 0x4CA7 JUMP JUMPDEST PUSH1 0x20 DUP3 ADD SWAP1 POP SWAP2 SWAP1 POP JUMP JUMPDEST PUSH1 0x0 PUSH1 0x20 DUP3 ADD SWAP1 POP DUP2 DUP2 SUB PUSH1 0x0 DUP4 ADD MSTORE PUSH2 0x4D0C DUP2 PUSH2 0x4CD0 JUMP JUMPDEST SWAP1 POP SWAP2 SWAP1 POP JUMP JUMPDEST PUSH32 0x4E616D652063616E6E6F7420626520656D7074792E0000000000000000000000 PUSH1 0x0 DUP3 ADD MSTORE POP JUMP JUMPDEST PUSH1 0x0 PUSH2 0x4D49 PUSH1 0x15 DUP4 PUSH2 0x3D4D JUMP JUMPDEST SWAP2 POP PUSH2 0x4D54 DUP3 PUSH2 0x4D13 JUMP JUMPDEST PUSH1 0x20 DUP3 ADD SWAP1 POP SWAP2 SWAP1 POP JUMP JUMPDEST PUSH1 0x0 PUSH1 0x20 DUP3 ADD SWAP1 POP DUP2 DUP2 SUB PUSH1 0x0 DUP4 ADD MSTORE PUSH2 0x4D78 DUP2 PUSH2 0x4D3C JUMP JUMPDEST SWAP1 POP SWAP2 SWAP1 POP JUMP JUMPDEST PUSH1 0x0 DUP2 SWAP1 POP DUP2 PUSH1 0x0 MSTORE PUSH1 0x20 PUSH1 0x0 KECCAK256 SWAP1 POP SWAP2 SWAP1 POP JUMP JUMPDEST PUSH1 0x0 PUSH1 0x20 PUSH1 0x1F DUP4 ADD DIV SWAP1 POP SWAP2 SWAP1 POP JUMP JUMPDEST PUSH1 0x0 DUP3 DUP3 SHL SWAP1 POP SWAP3 SWAP2 POP POP JUMP JUMPDEST PUSH1 0x0 PUSH1 0x8 DUP4 MUL PUSH2 0x4DE1 PUSH32 0xFFFFFFFFFFFFFFFFFFFFFFFFFFFFFFFFFFFFFFFFFFFFFFFFFFFFFFFFFFFFFFFF DUP3 PUSH2 0x4DA4 JUMP JUMPDEST PUSH2 0x4DEB DUP7 DUP4 PUSH2 0x4DA4 JUMP JUMPDEST SWAP6 POP DUP1 NOT DUP5 AND SWAP4 POP DUP1 DUP7 AND DUP5 OR SWAP3 POP POP POP SWAP4 SWAP3 POP POP POP JUMP JUMPDEST PUSH1 0x0 PUSH2 0x4E1E PUSH2 0x4E19 PUSH2 0x4E14 DUP5 PUSH2 0x3BE0 JUMP JUMPDEST PUSH2 0x48BF JUMP JUMPDEST PUSH2 0x3BE0 JUMP JUMPDEST SWAP1 POP SWAP2 SWAP1 POP JUMP JUMPDEST PUSH1 0x0 DUP2 SWAP1 POP SWAP2 SWAP1 POP JUMP JUMPDEST PUSH2 0x4E38 DUP4 PUSH2 0x4E03 JUMP JUMPDEST PUSH2 0x4E4C PUSH2 0x4E44 DUP3 PUSH2 0x4E25 JUMP JUMPDEST DUP5 DUP5 SLOAD PUSH2 0x4DB1 JUMP JUMPDEST DUP3 SSTORE POP POP POP POP JUMP JUMPDEST PUSH1 0x0 SWAP1 JUMP JUMPDEST PUSH2 0x4E61 PUSH2 0x4E54 JUMP JUMPDEST PUSH2 0x4E6C DUP2 DUP5 DUP5 PUSH2 0x4E2F JUMP JUMPDEST POP POP POP JUMP JUMPDEST JUMPDEST DUP2 DUP2 LT ISZERO PUSH2 0x4E90 JUMPI PUSH2 0x4E85 PUSH1 0x0 DUP3 PUSH2 0x4E59 JUMP JUMPDEST PUSH1 0x1 DUP2 ADD SWAP1 POP PUSH2 0x4E72 JUMP JUMPDEST POP POP JUMP JUMPDEST PUSH1 0x1F DUP3 GT ISZERO PUSH2 0x4ED5 JUMPI PUSH2 0x4EA6 DUP2 PUSH2 0x4D7F JUMP JUMPDEST PUSH2 0x4EAF DUP5 PUSH2 0x4D94 JUMP JUMPDEST DUP2 ADD PUSH1 0x20 DUP6 LT ISZERO PUSH2 0x4EBE JUMPI DUP2 SWAP1 POP JUMPDEST PUSH2 0x4ED2 PUSH2 0x4ECA DUP6 PUSH2 0x4D94 JUMP JUMPDEST DUP4 ADD DUP3 PUSH2 0x4E71 JUMP JUMPDEST POP POP JUMPDEST POP POP POP JUMP JUMPDEST PUSH1 0x0 DUP3 DUP3 SHR SWAP1 POP SWAP3 SWAP2 POP POP JUMP JUMPDEST PUSH1 0x0 PUSH2 0x4EF8 PUSH1 0x0 NOT DUP5 PUSH1 0x8 MUL PUSH2 0x4EDA JUMP JUMPDEST NOT DUP1 DUP4 AND SWAP2 POP POP SWAP3 SWAP2 POP POP JUMP JUMPDEST PUSH1 0x0 PUSH2 0x4F11 DUP4 DUP4 PUSH2 0x4EE7 JUMP JUMPDEST SWAP2 POP DUP3 PUSH1 0x2 MUL DUP3 OR SWAP1 POP SWAP3 SWAP2 POP POP JUMP JUMPDEST PUSH2 0x4F2A DUP3 PUSH2 0x3D42 JUMP JUMPDEST PUSH8 0xFFFFFFFFFFFFFFFF DUP2 GT ISZERO PUSH2 0x4F43 JUMPI PUSH2 0x4F42 PUSH2 0x3E0C JUMP JUMPDEST JUMPDEST PUSH2 0x4F4D DUP3 SLOAD PUSH2 0x4626 JUMP JUMPDEST PUSH2 0x4F58 DUP3 DUP3 DUP6 PUSH2 0x4E94 JUMP JUMPDEST PUSH1 0x0 PUSH1 0x20 SWAP1 POP PUSH1 0x1F DUP4 GT PUSH1 0x1 DUP2 EQ PUSH2 0x4F8B JUMPI PUSH1 0x0 DUP5 ISZERO PUSH2 0x4F79 JUMPI DUP3 DUP8 ADD MLOAD SWAP1 POP JUMPDEST PUSH2 0x4F83 DUP6 DUP3 PUSH2 0x4F05 JUMP JUMPDEST DUP7 SSTORE POP PUSH2 0x4FEB JUMP JUMPDEST PUSH1 0x1F NOT DUP5 AND PUSH2 0x4F99 DUP7 PUSH2 0x4D7F JUMP JUMPDEST PUSH1 0x0 JUMPDEST DUP3 DUP2 LT ISZERO PUSH2 0x4FC1 JUMPI DUP5 DUP10 ADD MLOAD DUP3 SSTORE PUSH1 0x1 DUP3 ADD SWAP2 POP PUSH1 0x20 DUP6 ADD SWAP5 POP PUSH1 0x20 DUP2 ADD SWAP1 POP PUSH2 0x4F9C JUMP JUMPDEST DUP7 DUP4 LT ISZERO PUSH2 0x4FDE JUMPI DUP5 DUP10 ADD MLOAD PUSH2 0x4FDA PUSH1 0x1F DUP10 AND DUP3 PUSH2 0x4EE7 JUMP JUMPDEST DUP4 SSTORE POP JUMPDEST PUSH1 0x1 PUSH1 0x2 DUP9 MUL ADD DUP9 SSTORE POP POP POP JUMPDEST POP POP POP POP POP POP JUMP JUMPDEST PUSH32 0x43616E206F6E6C7920626520657865637574656420627920746865206D616E61 PUSH1 0x0 DUP3 ADD MSTORE PUSH32 0x6765720000000000000000000000000000000000000000000000000000000000 PUSH1 0x20 DUP3 ADD MSTORE POP JUMP JUMPDEST PUSH1 0x0 PUSH2 0x504F PUSH1 0x23 DUP4 PUSH2 0x3D4D JUMP JUMPDEST SWAP2 POP PUSH2 0x505A DUP3 PUSH2 0x4FF3 JUMP JUMPDEST PUSH1 0x40 DUP3 ADD SWAP1 POP SWAP2 SWAP1 POP JUMP JUMPDEST PUSH1 0x0 PUSH1 0x20 DUP3 ADD SWAP1 POP DUP2 DUP2 SUB PUSH1 0x0 DUP4 ADD MSTORE PUSH2 0x507E DUP2 PUSH2 0x5042 JUMP JUMPDEST SWAP1 POP SWAP2 SWAP1 POP JUMP JUMPDEST PUSH32 0x4174206C656173742074776F2072657374617572616E7473206D757374206265 PUSH1 0x0 DUP3 ADD MSTORE PUSH32 0x2061646465642E00000000000000000000000000000000000000000000000000 PUSH1 0x20 DUP3 ADD MSTORE POP JUMP JUMPDEST PUSH1 0x0 PUSH2 0x50E1 PUSH1 0x27 DUP4 PUSH2 0x3D4D JUMP JUMPDEST SWAP2 POP PUSH2 0x50EC DUP3 PUSH2 0x5085 JUMP JUMPDEST PUSH1 0x40 DUP3 ADD SWAP1 POP SWAP2 SWAP1 POP JUMP JUMPDEST PUSH1 0x0 PUSH1 0x20 DUP3 ADD SWAP1 POP DUP2 DUP2 SUB PUSH1 0x0 DUP4 ADD MSTORE PUSH2 0x5110 DUP2 PUSH2 0x50D4 JUMP JUMPDEST SWAP1 POP SWAP2 SWAP1 POP JUMP JUMPDEST PUSH32 0x4174206C656173742074776F20667269656E6473206D75737420626520616464 PUSH1 0x0 DUP3 ADD MSTORE PUSH32 0x65642E0000000000000000000000000000000000000000000000000000000000 PUSH1 0x20 DUP3 ADD MSTORE POP JUMP JUMPDEST PUSH1 0x0 PUSH2 0x5173 PUSH1 0x23 DUP4 PUSH2 0x3D4D JUMP JUMPDEST SWAP2 POP PUSH2 0x517E DUP3 PUSH2 0x5117 JUMP JUMPDEST PUSH1 0x40 DUP3 ADD SWAP1 POP SWAP2 SWAP1 POP JUMP JUMPDEST PUSH1 0x0 PUSH1 0x20 DUP3 ADD SWAP1 POP DUP2 DUP2 SUB PUSH1 0x0 DUP4 ADD MSTORE PUSH2 0x51A2 DUP2 PUSH2 0x5166 JUMP JUMPDEST SWAP1 POP SWAP2 SWAP1 POP JUMP JUMPDEST PUSH32 0x41746F6D69632043616665000000000000000000000000000000000000000000 PUSH1 0x0 DUP3 ADD MSTORE POP JUMP JUMPDEST PUSH1 0x0 PUSH2 0x51DF PUSH1 0xB DUP4 PUSH2 0x3D4D JUMP JUMPDEST SWAP2 POP PUSH2 0x51EA DUP3 PUSH2 0x51A9 JUMP JUMPDEST PUSH1 0x20 DUP3 ADD SWAP1 POP SWAP2 SWAP1 POP JUMP JUMPDEST PUSH1 0x0 PUSH1 0x20 DUP3 ADD SWAP1 POP DUP2 DUP2 SUB PUSH1 0x0 DUP4 ADD MSTORE PUSH2 0x520E DUP2 PUSH2 0x51D2 JUMP JUMPDEST SWAP1 POP SWAP2 SWAP1 POP JUMP JUMPDEST PUSH1 0x0 PUSH2 0x5222 PUSH1 0x23 DUP4 PUSH2 0x41BE JUMP JUMPDEST SWAP2 POP PUSH2 0x522D DUP3 PUSH2 0x4FF3 JUMP JUMPDEST PUSH1 0x40 DUP3 ADD SWAP1 POP SWAP2 SWAP1 POP JUMP JUMPDEST PUSH32 0x4661696C6564207769746820756E657870656374656420726561736F6E000000 PUSH1 0x0 DUP3 ADD MSTORE POP JUMP JUMPDEST PUSH1 0x0 PUSH2 0x526E PUSH1 0x1D DUP4 PUSH2 0x41BE JUMP JUMPDEST SWAP2 POP PUSH2 0x5279 DUP3 PUSH2 0x5238 JUMP JUMPDEST PUSH1 0x20 DUP3 ADD SWAP1 POP SWAP2 SWAP1 POP JUMP JUMPDEST PUSH1 0x0 PUSH1 0x60 DUP3 ADD SWAP1 POP DUP2 DUP2 SUB PUSH1 0x0 DUP4 ADD MSTORE PUSH2 0x529E DUP2 DUP5 PUSH2 0x41CF JUMP JUMPDEST SWAP1 POP DUP2 DUP2 SUB PUSH1 0x20 DUP4 ADD MSTORE PUSH2 0x52B1 DUP2 PUSH2 0x5215 JUMP JUMPDEST SWAP1 POP DUP2 DUP2 SUB PUSH1 0x40 DUP4 ADD MSTORE PUSH2 0x52C4 DUP2 PUSH2 0x5261 JUMP JUMPDEST SWAP1 POP SWAP3 SWAP2 POP POP JUMP JUMPDEST PUSH1 0x0 DUP1 PUSH1 0x23 RETURNDATASIZE GT ISZERO PUSH2 0x52E9 JUMPI PUSH1 0x20 PUSH1 0x4 PUSH1 0x0 RETURNDATACOPY PUSH1 0x1 SWAP2 POP PUSH1 0x0 MLOAD SWAP1 POP JUMPDEST SWAP1 SWAP2 JUMP JUMPDEST PUSH32 0x4661696C656420756E65787065637465642077697468206572726F7220636F64 PUSH1 0x0 DUP3 ADD MSTORE PUSH32 0x6500000000000000000000000000000000000000000000000000000000000000 PUSH1 0x20 DUP3 ADD MSTORE POP JUMP JUMPDEST PUSH1 0x0 PUSH2 0x5349 PUSH1 0x21 DUP4 PUSH2 0x41BE JUMP JUMPDEST SWAP2 POP PUSH2 0x5354 DUP3 PUSH2 0x52ED JUMP JUMPDEST PUSH1 0x40 DUP3 ADD SWAP1 POP SWAP2 SWAP1 POP JUMP JUMPDEST PUSH1 0x0 PUSH1 0x40 DUP3 ADD SWAP1 POP PUSH2 0x5374 PUSH1 0x0 DUP4 ADD DUP5 PUSH2 0x438D JUMP JUMPDEST DUP2 DUP2 SUB PUSH1 0x20 DUP4 ADD MSTORE PUSH2 0x5385 DUP2 PUSH2 0x533C JUMP JUMPDEST SWAP1 POP SWAP3 SWAP2 POP POP JUMP JUMPDEST PUSH32 0x4661696C656420756E6578706563746564000000000000000000000000000000 PUSH1 0x0 DUP3 ADD MSTORE POP JUMP JUMPDEST PUSH1 0x0 PUSH2 0x53C3 PUSH1 0x11 DUP4 PUSH2 0x41BE JUMP JUMPDEST SWAP2 POP PUSH2 0x53CE DUP3 PUSH2 0x538D JUMP JUMPDEST PUSH1 0x20 DUP3 ADD SWAP1 POP SWAP2 SWAP1 POP JUMP JUMPDEST PUSH1 0x0 PUSH1 0x40 DUP3 ADD SWAP1 POP PUSH2 0x53EE PUSH1 0x0 DUP4 ADD DUP5 PUSH2 0x438D JUMP JUMPDEST DUP2 DUP2 SUB PUSH1 0x20 DUP4 ADD MSTORE PUSH2 0x53FF DUP2 PUSH2 0x53B6 JUMP JUMPDEST SWAP1 POP SWAP3 SWAP2 POP POP JUMP JUMPDEST PUSH1 0x0 DUP2 SWAP1 POP SWAP2 SWAP1 POP JUMP JUMPDEST PUSH1 0x0 PUSH2 0x542C PUSH2 0x5427 PUSH2 0x5422 DUP5 PUSH2 0x5407 JUMP JUMPDEST PUSH2 0x48BF JUMP JUMPDEST PUSH2 0x3BE0 JUMP JUMPDEST SWAP1 POP SWAP2 SWAP1 POP JUMP JUMPDEST PUSH2 0x543C DUP2 PUSH2 0x5411 JUMP JUMPDEST DUP3 MSTORE POP POP JUMP JUMPDEST PUSH32 0x4D6574686F6420657865637574696F6E20646964206E6F74206661696C000000 PUSH1 0x0 DUP3 ADD MSTORE POP JUMP JUMPDEST PUSH1 0x0 PUSH2 0x5478 PUSH1 0x1D DUP4 PUSH2 0x41BE JUMP JUMPDEST SWAP2 POP PUSH2 0x5483 DUP3 PUSH2 0x5442 JUMP JUMPDEST PUSH1 0x20 DUP3 ADD SWAP1 POP SWAP2 SWAP1 POP JUMP JUMPDEST PUSH1 0x0 PUSH1 0x60 DUP3 ADD SWAP1 POP PUSH2 0x54A3 PUSH1 0x0 DUP4 ADD DUP6 PUSH2 0x48A6 JUMP JUMPDEST PUSH2 0x54B0 PUSH1 0x20 DUP4 ADD DUP5 PUSH2 0x5433 JUMP JUMPDEST DUP2 DUP2 SUB PUSH1 0x40 DUP4 ADD MSTORE PUSH2 0x54C1 DUP2 PUSH2 0x546B JUMP JUMPDEST SWAP1 POP SWAP4 SWAP3 POP POP POP JUMP JUMPDEST PUSH32 0x44616E69656C7300000000000000000000000000000000000000000000000000 PUSH1 0x0 DUP3 ADD MSTORE POP JUMP JUMPDEST PUSH1 0x0 PUSH2 0x5500 PUSH1 0x7 DUP4 PUSH2 0x3D4D JUMP JUMPDEST SWAP2 POP PUSH2 0x550B DUP3 PUSH2 0x54CA JUMP JUMPDEST PUSH1 0x20 DUP3 ADD SWAP1 POP SWAP2 SWAP1 POP JUMP JUMPDEST PUSH1 0x0 PUSH1 0x40 DUP3 ADD SWAP1 POP PUSH2 0x552B PUSH1 0x0 DUP4 ADD DUP5 PUSH2 0x3F93 JUMP JUMPDEST DUP2 DUP2 SUB PUSH1 0x20 DUP4 ADD MSTORE PUSH2 0x553C DUP2 PUSH2 0x54F3 JUMP JUMPDEST SWAP1 POP SWAP3 SWAP2 POP POP JUMP JUMPDEST PUSH1 0x0 DUP2 SWAP1 POP SWAP2 SWAP1 POP JUMP JUMPDEST PUSH1 0x0 PUSH2 0x5569 PUSH2 0x5564 PUSH2 0x555F DUP5 PUSH2 0x5544 JUMP JUMPDEST PUSH2 0x48BF JUMP JUMPDEST PUSH2 0x3BE0 JUMP JUMPDEST SWAP1 POP SWAP2 SWAP1 POP JUMP JUMPDEST PUSH2 0x5579 DUP2 PUSH2 0x554E JUMP JUMPDEST DUP3 MSTORE POP POP JUMP JUMPDEST PUSH1 0x0 PUSH1 0x60 DUP3 ADD SWAP1 POP PUSH2 0x5594 PUSH1 0x0 DUP4 ADD DUP6 PUSH2 0x48A6 JUMP JUMPDEST PUSH2 0x55A1 PUSH1 0x20 DUP4 ADD DUP5 PUSH2 0x5570 JUMP JUMPDEST DUP2 DUP2 SUB PUSH1 0x40 DUP4 ADD MSTORE PUSH2 0x55B2 DUP2 PUSH2 0x546B JUMP JUMPDEST SWAP1 POP SWAP4 SWAP3 POP POP POP JUMP JUMPDEST PUSH1 0x0 DUP2 SWAP1 POP SWAP3 SWAP2 POP POP JUMP JUMPDEST PUSH1 0x0 PUSH2 0x55D1 DUP3 PUSH2 0x3D42 JUMP JUMPDEST PUSH2 0x55DB DUP2 DUP6 PUSH2 0x55BB JUMP JUMPDEST SWAP4 POP PUSH2 0x55EB DUP2 DUP6 PUSH1 0x20 DUP7 ADD PUSH2 0x3D5E JUMP JUMPDEST DUP1 DUP5 ADD SWAP2 POP POP SWAP3 SWAP2 POP POP JUMP JUMPDEST PUSH1 0x0 PUSH2 0x5603 DUP3 DUP5 PUSH2 0x55C6 JUMP JUMPDEST SWAP2 POP DUP2 SWAP1 POP SWAP3 SWAP2 POP POP JUMP JUMPDEST PUSH32 0x52657374617572616E7420616C7265616479206578697374732E000000000000 PUSH1 0x0 DUP3 ADD MSTORE POP JUMP JUMPDEST PUSH1 0x0 PUSH2 0x5644 PUSH1 0x1A DUP4 PUSH2 0x3D4D JUMP JUMPDEST SWAP2 POP PUSH2 0x564F DUP3 PUSH2 0x560E JUMP JUMPDEST PUSH1 0x20 DUP3 ADD SWAP1 POP SWAP2 SWAP1 POP JUMP JUMPDEST PUSH1 0x0 PUSH1 0x20 DUP3 ADD SWAP1 POP DUP2 DUP2 SUB PUSH1 0x0 DUP4 ADD MSTORE PUSH2 0x5673 DUP2 PUSH2 0x5637 JUMP JUMPDEST SWAP1 POP SWAP2 SWAP1 POP JUMP JUMPDEST PUSH1 0x0 DUP2 SWAP1 POP SWAP2 SWAP1 POP JUMP JUMPDEST PUSH1 0x0 PUSH2 0x569F PUSH2 0x569A PUSH2 0x5695 DUP5 PUSH2 0x567A JUMP JUMPDEST PUSH2 0x48BF JUMP JUMPDEST PUSH2 0x3BE0 JUMP JUMPDEST SWAP1 POP SWAP2 SWAP1 POP JUMP JUMPDEST PUSH2 0x56AF DUP2 PUSH2 0x5684 JUMP JUMPDEST DUP3 MSTORE POP POP JUMP JUMPDEST PUSH1 0x0 PUSH1 0x20 DUP3 ADD SWAP1 POP PUSH2 0x56CA PUSH1 0x0 DUP4 ADD DUP5 PUSH2 0x56A6 JUMP JUMPDEST SWAP3 SWAP2 POP POP JUMP JUMPDEST PUSH1 0x0 DUP2 MLOAD SWAP1 POP PUSH2 0x56DF DUP2 PUSH2 0x3CE9 JUMP JUMPDEST SWAP3 SWAP2 POP POP JUMP JUMPDEST PUSH1 0x0 PUSH1 0x20 DUP3 DUP5 SUB SLT ISZERO PUSH2 0x56FB JUMPI PUSH2 0x56FA PUSH2 0x3C1E JUMP JUMPDEST JUMPDEST PUSH1 0x0 PUSH2 0x5709 DUP5 DUP3 DUP6 ADD PUSH2 0x56D0 JUMP JUMPDEST SWAP2 POP POP SWAP3 SWAP2 POP POP JUMP JUMPDEST PUSH1 0x0 PUSH1 0x20 DUP3 ADD SWAP1 POP PUSH2 0x5727 PUSH1 0x0 DUP4 ADD DUP5 PUSH2 0x48EB JUMP JUMPDEST SWAP3 SWAP2 POP POP JUMP JUMPDEST PUSH1 0x0 PUSH1 0x20 DUP3 ADD SWAP1 POP PUSH2 0x5742 PUSH1 0x0 DUP4 ADD DUP5 PUSH2 0x49AE JUMP JUMPDEST SWAP3 SWAP2 POP POP JUMP JUMPDEST PUSH1 0x0 PUSH1 0x20 DUP3 ADD SWAP1 POP PUSH2 0x575D PUSH1 0x0 DUP4 ADD DUP5 PUSH2 0x5433 JUMP JUMPDEST SWAP3 SWAP2 POP POP JUMP JUMPDEST PUSH1 0x0 DUP2 SWAP1 POP SWAP2 SWAP1 POP JUMP JUMPDEST PUSH1 0x0 PUSH2 0x5788 PUSH2 0x5783 PUSH2 0x577E DUP5 PUSH2 0x5763 JUMP JUMPDEST PUSH2 0x48BF JUMP JUMPDEST PUSH2 0x3BE0 JUMP JUMPDEST SWAP1 POP SWAP2 SWAP1 POP JUMP JUMPDEST PUSH2 0x5798 DUP2 PUSH2 0x576D JUMP JUMPDEST DUP3 MSTORE POP POP JUMP JUMPDEST PUSH1 0x0 PUSH1 0x20 DUP3 ADD SWAP1 POP PUSH2 0x57B3 PUSH1 0x0 DUP4 ADD DUP5 PUSH2 0x578F JUMP JUMPDEST SWAP3 SWAP2 POP POP JUMP JUMPDEST PUSH32 0x53686F756C6420626520657175616C20746F2033000000000000000000000000 PUSH1 0x0 DUP3 ADD MSTORE POP JUMP JUMPDEST PUSH1 0x0 PUSH2 0x57EF PUSH1 0x14 DUP4 PUSH2 0x41BE JUMP JUMPDEST SWAP2 POP PUSH2 0x57FA DUP3 PUSH2 0x57B9 JUMP JUMPDEST PUSH1 0x20 DUP3 ADD SWAP1 POP SWAP2 SWAP1 POP JUMP JUMPDEST PUSH1 0x0 PUSH1 0x60 DUP3 ADD SWAP1 POP PUSH2 0x581A PUSH1 0x0 DUP4 ADD DUP6 PUSH2 0x48A6 JUMP JUMPDEST PUSH2 0x5827 PUSH1 0x20 DUP4 ADD DUP5 PUSH2 0x5433 JUMP JUMPDEST DUP2 DUP2 SUB PUSH1 0x40 DUP4 ADD MSTORE PUSH2 0x5838 DUP2 PUSH2 0x57E2 JUMP JUMPDEST SWAP1 POP SWAP4 SWAP3 POP POP POP JUMP JUMPDEST PUSH32 0x53686F756C6420626520657175616C20746F2034000000000000000000000000 PUSH1 0x0 DUP3 ADD MSTORE POP JUMP JUMPDEST PUSH1 0x0 PUSH2 0x5877 PUSH1 0x14 DUP4 PUSH2 0x41BE JUMP JUMPDEST SWAP2 POP PUSH2 0x5882 DUP3 PUSH2 0x5841 JUMP JUMPDEST PUSH1 0x20 DUP3 ADD SWAP1 POP SWAP2 SWAP1 POP JUMP JUMPDEST PUSH1 0x0 PUSH1 0x60 DUP3 ADD SWAP1 POP PUSH2 0x58A2 PUSH1 0x0 DUP4 ADD DUP6 PUSH2 0x48A6 JUMP JUMPDEST PUSH2 0x58AF PUSH1 0x20 DUP4 ADD DUP5 PUSH2 0x578F JUMP JUMPDEST DUP2 DUP2 SUB PUSH1 0x40 DUP4 ADD MSTORE PUSH2 0x58C0 DUP2 PUSH2 0x586A JUMP JUMPDEST SWAP1 POP SWAP4 SWAP3 POP POP POP JUMP JUMPDEST PUSH2 0x58D2 DUP2 PUSH2 0x3CD7 JUMP JUMPDEST DUP3 MSTORE POP POP JUMP JUMPDEST PUSH32 0x4D616E616765722073686F756C64206265206163633000000000000000000000 PUSH1 0x0 DUP3 ADD MSTORE POP JUMP JUMPDEST PUSH1 0x0 PUSH2 0x590E PUSH1 0x16 DUP4 PUSH2 0x41BE JUMP JUMPDEST SWAP2 POP PUSH2 0x5919 DUP3 PUSH2 0x58D8 JUMP JUMPDEST PUSH1 0x20 DUP3 ADD SWAP1 POP SWAP2 SWAP1 POP JUMP JUMPDEST PUSH1 0x0 PUSH1 0x60 DUP3 ADD SWAP1 POP PUSH2 0x5939 PUSH1 0x0 DUP4 ADD DUP6 PUSH2 0x58C9 JUMP JUMPDEST PUSH2 0x5946 PUSH1 0x20 DUP4 ADD DUP5 PUSH2 0x58C9 JUMP JUMPDEST DUP2 DUP2 SUB PUSH1 0x40 DUP4 ADD MSTORE PUSH2 0x5957 DUP2 PUSH2 0x5901 JUMP JUMPDEST SWAP1 POP SWAP4 SWAP3 POP POP POP JUMP JUMPDEST PUSH2 0x5969 DUP2 PUSH2 0x48C9 JUMP JUMPDEST DUP3 MSTORE POP POP JUMP JUMPDEST PUSH1 0x0 PUSH1 0x20 DUP3 ADD SWAP1 POP PUSH2 0x5984 PUSH1 0x0 DUP4 ADD DUP5 PUSH2 0x5960 JUMP JUMPDEST SWAP3 SWAP2 POP POP JUMP JUMPDEST PUSH1 0x0 PUSH1 0x60 DUP3 ADD SWAP1 POP DUP2 DUP2 SUB PUSH1 0x0 DUP4 ADD MSTORE PUSH2 0x59A4 DUP2 DUP5 PUSH2 0x41CF JUMP JUMPDEST SWAP1 POP DUP2 DUP2 SUB PUSH1 0x20 DUP4 ADD MSTORE PUSH2 0x59B7 DUP2 PUSH2 0x4257 JUMP JUMPDEST SWAP1 POP DUP2 DUP2 SUB PUSH1 0x40 DUP4 ADD MSTORE PUSH2 0x59CA DUP2 PUSH2 0x5261 JUMP JUMPDEST SWAP1 POP SWAP3 SWAP2 POP POP JUMP JUMPDEST PUSH1 0x0 PUSH1 0x60 DUP3 ADD SWAP1 POP PUSH2 0x59E7 PUSH1 0x0 DUP4 ADD DUP6 PUSH2 0x438D JUMP JUMPDEST PUSH2 0x59F4 PUSH1 0x20 DUP4 ADD DUP5 PUSH2 0x438D JUMP JUMPDEST DUP2 DUP2 SUB PUSH1 0x40 DUP4 ADD MSTORE PUSH2 0x5A05 DUP2 PUSH2 0x546B JUMP JUMPDEST SWAP1 POP SWAP4 SWAP3 POP POP POP JUMP JUMPDEST PUSH1 0x0 DUP2 SLOAD PUSH2 0x5A1B DUP2 PUSH2 0x4626 JUMP JUMPDEST PUSH2 0x5A25 DUP2 DUP7 PUSH2 0x41BE JUMP JUMPDEST SWAP5 POP PUSH1 0x1 DUP3 AND PUSH1 0x0 DUP2 EQ PUSH2 0x5A40 JUMPI PUSH1 0x1 DUP2 EQ PUSH2 0x5A56 JUMPI PUSH2 0x5A89 JUMP JUMPDEST PUSH1 0xFF NOT DUP4 AND DUP7 MSTORE DUP2 ISZERO ISZERO PUSH1 0x20 MUL DUP7 ADD SWAP4 POP PUSH2 0x5A89 JUMP JUMPDEST PUSH2 0x5A5F DUP6 PUSH2 0x4D7F JUMP JUMPDEST PUSH1 0x0 JUMPDEST DUP4 DUP2 LT ISZERO PUSH2 0x5A81 JUMPI DUP2 SLOAD DUP2 DUP10 ADD MSTORE PUSH1 0x1 DUP3 ADD SWAP2 POP PUSH1 0x20 DUP2 ADD SWAP1 POP PUSH2 0x5A62 JUMP JUMPDEST DUP1 DUP9 ADD SWAP6 POP POP POP JUMPDEST POP POP POP SWAP3 SWAP2 POP POP JUMP JUMPDEST PUSH32 0x556E692043616665000000000000000000000000000000000000000000000000 PUSH1 0x0 DUP3 ADD MSTORE POP JUMP JUMPDEST PUSH1 0x0 PUSH2 0x5AC8 PUSH1 0x8 DUP4 PUSH2 0x41BE JUMP JUMPDEST SWAP2 POP PUSH2 0x5AD3 DUP3 PUSH2 0x5A92 JUMP JUMPDEST PUSH1 0x20 DUP3 ADD SWAP1 POP SWAP2 SWAP1 POP JUMP JUMPDEST PUSH32 0x53656C65637465642072657374617572616E742073686F756C6420626520556E PUSH1 0x0 DUP3 ADD MSTORE PUSH32 0x6920436166650000000000000000000000000000000000000000000000000000 PUSH1 0x20 DUP3 ADD MSTORE POP JUMP JUMPDEST PUSH1 0x0 PUSH2 0x5B3A PUSH1 0x26 DUP4 PUSH2 0x41BE JUMP JUMPDEST SWAP2 POP PUSH2 0x5B45 DUP3 PUSH2 0x5ADE JUMP JUMPDEST PUSH1 0x40 DUP3 ADD SWAP1 POP SWAP2 SWAP1 POP JUMP JUMPDEST PUSH1 0x0 PUSH1 0x60 DUP3 ADD SWAP1 POP DUP2 DUP2 SUB PUSH1 0x0 DUP4 ADD MSTORE PUSH2 0x5B6A DUP2 DUP5 PUSH2 0x5A0E JUMP JUMPDEST SWAP1 POP DUP2 DUP2 SUB PUSH1 0x20 DUP4 ADD MSTORE PUSH2 0x5B7D DUP2 PUSH2 0x5ABB JUMP JUMPDEST SWAP1 POP DUP2 DUP2 SUB PUSH1 0x40 DUP4 ADD MSTORE PUSH2 0x5B90 DUP2 PUSH2 0x5B2D JUMP JUMPDEST SWAP1 POP SWAP3 SWAP2 POP POP JUMP JUMPDEST PUSH1 0x0 PUSH2 0x5BA5 PUSH1 0x20 DUP4 PUSH2 0x41BE JUMP JUMPDEST SWAP2 POP PUSH2 0x5BB0 DUP3 PUSH2 0x46C3 JUMP JUMPDEST PUSH1 0x20 DUP3 ADD SWAP1 POP SWAP2 SWAP1 POP JUMP JUMPDEST PUSH32 0x53686F756C64206661696C2077697468206E6F74207265676973746572656420 PUSH1 0x0 DUP3 ADD MSTORE PUSH32 0x6D65737361676500000000000000000000000000000000000000000000000000 PUSH1 0x20 DUP3 ADD MSTORE POP JUMP JUMPDEST PUSH1 0x0 PUSH2 0x5C17 PUSH1 0x27 DUP4 PUSH2 0x41BE JUMP JUMPDEST SWAP2 POP PUSH2 0x5C22 DUP3 PUSH2 0x5BBB JUMP JUMPDEST PUSH1 0x40 DUP3 ADD SWAP1 POP SWAP2 SWAP1 POP JUMP JUMPDEST PUSH1 0x0 PUSH1 0x60 DUP3 ADD SWAP1 POP DUP2 DUP2 SUB PUSH1 0x0 DUP4 ADD MSTORE PUSH2 0x5C47 DUP2 DUP5 PUSH2 0x41CF JUMP JUMPDEST SWAP1 POP DUP2 DUP2 SUB PUSH1 0x20 DUP4 ADD MSTORE PUSH2 0x5C5A DUP2 PUSH2 0x5B98 JUMP JUMPDEST SWAP1 POP DUP2 DUP2 SUB PUSH1 0x40 DUP4 ADD MSTORE PUSH2 0x5C6D DUP2 PUSH2 0x5C0A JUMP JUMPDEST SWAP1 POP SWAP3 SWAP2 POP POP JUMP JUMPDEST PUSH32 0x566F74696E6720726573756C742073686F756C642062652066616C7365000000 PUSH1 0x0 DUP3 ADD MSTORE POP JUMP JUMPDEST PUSH1 0x0 PUSH2 0x5CAB PUSH1 0x1D DUP4 PUSH2 0x41BE JUMP JUMPDEST SWAP2 POP PUSH2 0x5CB6 DUP3 PUSH2 0x5C75 JUMP JUMPDEST PUSH1 0x20 DUP3 ADD SWAP1 POP SWAP2 SWAP1 POP JUMP JUMPDEST PUSH1 0x0 PUSH1 0x60 DUP3 ADD SWAP1 POP PUSH2 0x5CD6 PUSH1 0x0 DUP4 ADD DUP6 PUSH2 0x438D JUMP JUMPDEST PUSH2 0x5CE3 PUSH1 0x20 DUP4 ADD DUP5 PUSH2 0x438D JUMP JUMPDEST DUP2 DUP2 SUB PUSH1 0x40 DUP4 ADD MSTORE PUSH2 0x5CF4 DUP2 PUSH2 0x5C9E JUMP JUMPDEST SWAP1 POP SWAP4 SWAP3 POP POP POP JUMP JUMPDEST PUSH32 0x566F74696E672073686F756C6420626520636C6F736564000000000000000000 PUSH1 0x0 DUP3 ADD MSTORE POP JUMP JUMPDEST PUSH1 0x0 PUSH2 0x5D33 PUSH1 0x17 DUP4 PUSH2 0x41BE JUMP JUMPDEST SWAP2 POP PUSH2 0x5D3E DUP3 PUSH2 0x5CFD JUMP JUMPDEST PUSH1 0x20 DUP3 ADD SWAP1 POP SWAP2 SWAP1 POP JUMP JUMPDEST PUSH1 0x0 PUSH1 0x60 DUP3 ADD SWAP1 POP PUSH2 0x5D5E PUSH1 0x0 DUP4 ADD DUP6 PUSH2 0x438D JUMP JUMPDEST PUSH2 0x5D6B PUSH1 0x20 DUP4 ADD DUP5 PUSH2 0x438D JUMP JUMPDEST DUP2 DUP2 SUB PUSH1 0x40 DUP4 ADD MSTORE PUSH2 0x5D7C DUP2 PUSH2 0x5D26 JUMP JUMPDEST SWAP1 POP SWAP4 SWAP3 POP POP POP JUMP JUMPDEST PUSH32 0x4E6F7420696E20766F74696E672070686173652E000000000000000000000000 PUSH1 0x0 DUP3 ADD MSTORE POP JUMP JUMPDEST PUSH1 0x0 PUSH2 0x5DBB PUSH1 0x14 DUP4 PUSH2 0x3D4D JUMP JUMPDEST SWAP2 POP PUSH2 0x5DC6 DUP3 PUSH2 0x5D85 JUMP JUMPDEST PUSH1 0x20 DUP3 ADD SWAP1 POP SWAP2 SWAP1 POP JUMP JUMPDEST PUSH1 0x0 PUSH1 0x20 DUP3 ADD SWAP1 POP DUP2 DUP2 SUB PUSH1 0x0 DUP4 ADD MSTORE PUSH2 0x5DEA DUP2 PUSH2 0x5DAE JUMP JUMPDEST SWAP1 POP SWAP2 SWAP1 POP JUMP JUMPDEST PUSH32 0x436F757274796172642043616665000000000000000000000000000000000000 PUSH1 0x0 DUP3 ADD MSTORE POP JUMP JUMPDEST PUSH1 0x0 PUSH2 0x5E27 PUSH1 0xE DUP4 PUSH2 0x3D4D JUMP JUMPDEST SWAP2 POP PUSH2 0x5E32 DUP3 PUSH2 0x5DF1 JUMP JUMPDEST PUSH1 0x20 DUP3 ADD SWAP1 POP SWAP2 SWAP1 POP JUMP JUMPDEST PUSH1 0x0 PUSH1 0x20 DUP3 ADD SWAP1 POP DUP2 DUP2 SUB PUSH1 0x0 DUP4 ADD MSTORE PUSH2 0x5E56 DUP2 PUSH2 0x5E1A JUMP JUMPDEST SWAP1 POP SWAP2 SWAP1 POP JUMP JUMPDEST PUSH1 0x0 PUSH2 0x5E6A PUSH1 0x1A DUP4 PUSH2 0x41BE JUMP JUMPDEST SWAP2 POP PUSH2 0x5E75 DUP3 PUSH2 0x560E JUMP JUMPDEST PUSH1 0x20 DUP3 ADD SWAP1 POP SWAP2 SWAP1 POP JUMP JUMPDEST PUSH32 0x53686F756C64206661696C2077697468206475706C6963617465207265737461 PUSH1 0x0 DUP3 ADD MSTORE PUSH32 0x7572616E74206D65737361676500000000000000000000000000000000000000 PUSH1 0x20 DUP3 ADD MSTORE POP JUMP JUMPDEST PUSH1 0x0 PUSH2 0x5EDC PUSH1 0x2D DUP4 PUSH2 0x41BE JUMP JUMPDEST SWAP2 POP PUSH2 0x5EE7 DUP3 PUSH2 0x5E80 JUMP JUMPDEST PUSH1 0x40 DUP3 ADD SWAP1 POP SWAP2 SWAP1 POP JUMP JUMPDEST PUSH1 0x0 PUSH1 0x60 DUP3 ADD SWAP1 POP DUP2 DUP2 SUB PUSH1 0x0 DUP4 ADD MSTORE PUSH2 0x5F0C DUP2 DUP5 PUSH2 0x41CF JUMP JUMPDEST SWAP1 POP DUP2 DUP2 SUB PUSH1 0x20 DUP4 ADD MSTORE PUSH2 0x5F1F DUP2 PUSH2 0x5E5D JUMP JUMPDEST SWAP1 POP DUP2 DUP2 SUB PUSH1 0x40 DUP4 ADD MSTORE PUSH2 0x5F32 DUP2 PUSH2 0x5ECF JUMP JUMPDEST SWAP1 POP SWAP3 SWAP2 POP POP JUMP JUMPDEST PUSH32 0x53686F756C64206E6F7420616C6C6F77206475706C6963617465207265737461 PUSH1 0x0 DUP3 ADD MSTORE PUSH32 0x7572616E74000000000000000000000000000000000000000000000000000000 PUSH1 0x20 DUP3 ADD MSTORE POP JUMP JUMPDEST PUSH1 0x0 PUSH2 0x5F96 PUSH1 0x25 DUP4 PUSH2 0x41BE JUMP JUMPDEST SWAP2 POP PUSH2 0x5FA1 DUP3 PUSH2 0x5F3A JUMP JUMPDEST PUSH1 0x40 DUP3 ADD SWAP1 POP SWAP2 SWAP1 POP JUMP JUMPDEST PUSH1 0x0 PUSH1 0x40 DUP3 ADD SWAP1 POP PUSH2 0x5FC1 PUSH1 0x0 DUP4 ADD DUP5 PUSH2 0x438D JUMP JUMPDEST DUP2 DUP2 SUB PUSH1 0x20 DUP4 ADD MSTORE PUSH2 0x5FD2 DUP2 PUSH2 0x5F89 JUMP JUMPDEST SWAP1 POP SWAP3 SWAP2 POP POP JUMP JUMPDEST PUSH32 0x53686F756C6420626520696E20766F74696E6720706861736500000000000000 PUSH1 0x0 DUP3 ADD MSTORE POP JUMP JUMPDEST PUSH1 0x0 PUSH2 0x6010 PUSH1 0x19 DUP4 PUSH2 0x41BE JUMP JUMPDEST SWAP2 POP PUSH2 0x601B DUP3 PUSH2 0x5FDA JUMP JUMPDEST PUSH1 0x20 DUP3 ADD SWAP1 POP SWAP2 SWAP1 POP JUMP JUMPDEST PUSH1 0x0 PUSH1 0x60 DUP3 ADD SWAP1 POP PUSH2 0x603B PUSH1 0x0 DUP4 ADD DUP6 PUSH2 0x48A6 JUMP JUMPDEST PUSH2 0x6048 PUSH1 0x20 DUP4 ADD DUP5 PUSH2 0x48A6 JUMP JUMPDEST DUP2 DUP2 SUB PUSH1 0x40 DUP4 ADD MSTORE PUSH2 0x6059 DUP2 PUSH2 0x6003 JUMP JUMPDEST SWAP1 POP SWAP4 SWAP3 POP POP POP JUMP JUMPDEST PUSH32 0x566F74696E672073686F756C64206265206F70656E0000000000000000000000 PUSH1 0x0 DUP3 ADD MSTORE POP JUMP JUMPDEST PUSH1 0x0 PUSH2 0x6098 PUSH1 0x15 DUP4 PUSH2 0x41BE JUMP JUMPDEST SWAP2 POP PUSH2 0x60A3 DUP3 PUSH2 0x6062 JUMP JUMPDEST PUSH1 0x20 DUP3 ADD SWAP1 POP SWAP2 SWAP1 POP JUMP JUMPDEST PUSH1 0x0 PUSH1 0x60 DUP3 ADD SWAP1 POP PUSH2 0x60C3 PUSH1 0x0 DUP4 ADD DUP6 PUSH2 0x438D JUMP JUMPDEST PUSH2 0x60D0 PUSH1 0x20 DUP4 ADD DUP5 PUSH2 0x438D JUMP JUMPDEST DUP2 DUP2 SUB PUSH1 0x40 DUP4 ADD MSTORE PUSH2 0x60E1 DUP2 PUSH2 0x608B JUMP JUMPDEST SWAP1 POP SWAP4 SWAP3 POP POP POP JUMP JUMPDEST PUSH32 0x416E6F7468657220416C69636500000000000000000000000000000000000000 PUSH1 0x0 DUP3 ADD MSTORE POP JUMP JUMPDEST PUSH1 0x0 PUSH2 0x6120 PUSH1 0xD DUP4 PUSH2 0x3D4D JUMP JUMPDEST SWAP2 POP PUSH2 0x612B DUP3 PUSH2 0x60EA JUMP JUMPDEST PUSH1 0x20 DUP3 ADD SWAP1 POP SWAP2 SWAP1 POP JUMP JUMPDEST PUSH1 0x0 PUSH1 0x40 DUP3 ADD SWAP1 POP PUSH2 0x614B PUSH1 0x0 DUP4 ADD DUP5 PUSH2 0x3F93 JUMP JUMPDEST DUP2 DUP2 SUB PUSH1 0x20 DUP4 ADD MSTORE PUSH2 0x615C DUP2 PUSH2 0x6113 JUMP JUMPDEST SWAP1 POP SWAP3 SWAP2 POP POP JUMP JUMPDEST PUSH1 0x0 PUSH2 0x6171 PUSH1 0x16 DUP4 PUSH2 0x41BE JUMP JUMPDEST SWAP2 POP PUSH2 0x617C DUP3 PUSH2 0x4CA7 JUMP JUMPDEST PUSH1 0x20 DUP3 ADD SWAP1 POP SWAP2 SWAP1 POP JUMP JUMPDEST PUSH32 0x53686F756C64206661696C2077697468206475706C696361746520667269656E PUSH1 0x0 DUP3 ADD MSTORE PUSH32 0x64206D6573736167650000000000000000000000000000000000000000000000 PUSH1 0x20 DUP3 ADD MSTORE POP JUMP JUMPDEST PUSH1 0x0 PUSH2 0x61E3 PUSH1 0x29 DUP4 PUSH2 0x41BE JUMP JUMPDEST SWAP2 POP PUSH2 0x61EE DUP3 PUSH2 0x6187 JUMP JUMPDEST PUSH1 0x40 DUP3 ADD SWAP1 POP SWAP2 SWAP1 POP JUMP JUMPDEST PUSH1 0x0 PUSH1 0x60 DUP3 ADD SWAP1 POP DUP2 DUP2 SUB PUSH1 0x0 DUP4 ADD MSTORE PUSH2 0x6213 DUP2 DUP5 PUSH2 0x41CF JUMP JUMPDEST SWAP1 POP DUP2 DUP2 SUB PUSH1 0x20 DUP4 ADD MSTORE PUSH2 0x6226 DUP2 PUSH2 0x6164 JUMP JUMPDEST SWAP1 POP DUP2 DUP2 SUB PUSH1 0x40 DUP4 ADD MSTORE PUSH2 0x6239 DUP2 PUSH2 0x61D6 JUMP JUMPDEST SWAP1 POP SWAP3 SWAP2 POP POP JUMP JUMPDEST PUSH32 0x53686F756C64206E6F7420616C6C6F77206475706C696361746520667269656E PUSH1 0x0 DUP3 ADD MSTORE PUSH32 0x6400000000000000000000000000000000000000000000000000000000000000 PUSH1 0x20 DUP3 ADD MSTORE POP JUMP JUMPDEST PUSH1 0x0 PUSH2 0x629D PUSH1 0x21 DUP4 PUSH2 0x41BE JUMP JUMPDEST SWAP2 POP PUSH2 0x62A8 DUP3 PUSH2 0x6241 JUMP JUMPDEST PUSH1 0x40 DUP3 ADD SWAP1 POP SWAP2 SWAP1 POP JUMP JUMPDEST PUSH1 0x0 PUSH1 0x40 DUP3 ADD SWAP1 POP PUSH2 0x62C8 PUSH1 0x0 DUP4 ADD DUP5 PUSH2 0x438D JUMP JUMPDEST DUP2 DUP2 SUB PUSH1 0x20 DUP4 ADD MSTORE PUSH2 0x62D9 DUP2 PUSH2 0x6290 JUMP JUMPDEST SWAP1 POP SWAP3 SWAP2 POP POP JUMP JUMPDEST PUSH1 0x0 DUP2 SLOAD SWAP1 POP PUSH2 0x62F0 DUP2 PUSH2 0x4626 JUMP JUMPDEST SWAP1 POP SWAP2 SWAP1 POP JUMP JUMPDEST PUSH1 0x0 DUP2 SWAP1 POP DUP2 PUSH1 0x0 MSTORE PUSH1 0x20 PUSH1 0x0 KECCAK256 SWAP1 POP SWAP2 SWAP1 POP JUMP JUMPDEST DUP2 DUP2 SUB PUSH2 0x631A JUMPI POP POP PUSH2 0x63F2 JUMP JUMPDEST PUSH2 0x6323 DUP3 PUSH2 0x62E1 JUMP JUMPDEST PUSH8 0xFFFFFFFFFFFFFFFF DUP2 GT ISZERO PUSH2 0x633C JUMPI PUSH2 0x633B PUSH2 0x3E0C JUMP JUMPDEST JUMPDEST PUSH2 0x6346 DUP3 SLOAD PUSH2 0x4626 JUMP JUMPDEST PUSH2 0x6351 DUP3 DUP3 DUP6 PUSH2 0x4E94 JUMP JUMPDEST PUSH1 0x0 PUSH1 0x1F DUP4 GT PUSH1 0x1 DUP2 EQ PUSH2 0x6380 JUMPI PUSH1 0x0 DUP5 ISZERO PUSH2 0x636E JUMPI DUP3 DUP8 ADD SLOAD SWAP1 POP JUMPDEST PUSH2 0x6378 DUP6 DUP3 PUSH2 0x4F05 JUMP JUMPDEST DUP7 SSTORE POP PUSH2 0x63EB JUMP JUMPDEST PUSH1 0x1F NOT DUP5 AND PUSH2 0x638E DUP8 PUSH2 0x62F7 JUMP JUMPDEST SWAP7 POP PUSH2 0x6399 DUP7 PUSH2 0x4D7F JUMP JUMPDEST PUSH1 0x0 JUMPDEST DUP3 DUP2 LT ISZERO PUSH2 0x63C1 JUMPI DUP5 DUP10 ADD SLOAD DUP3 SSTORE PUSH1 0x1 DUP3 ADD SWAP2 POP PUSH1 0x1 DUP6 ADD SWAP5 POP PUSH1 0x20 DUP2 ADD SWAP1 POP PUSH2 0x639C JUMP JUMPDEST DUP7 DUP4 LT ISZERO PUSH2 0x63DE JUMPI DUP5 DUP10 ADD SLOAD PUSH2 0x63DA PUSH1 0x1F DUP10 AND DUP3 PUSH2 0x4EE7 JUMP JUMPDEST DUP4 SSTORE POP JUMPDEST PUSH1 0x1 PUSH1 0x2 DUP9 MUL ADD DUP9 SSTORE POP POP POP JUMPDEST POP POP POP POP POP POP JUMPDEST JUMP INVALID LOG2 PUSH5 0x6970667358 0x22 SLT KECCAK256 0xF9 0xB1 0xD1 ADDRESS GT 0x25 BYTE 0xCA PREVRANDAO 0xE8 GASPRICE PUSH3 0x9C1F0C 0xF8 0xC0 PUSH24 0xE9C0D5759489294D904B003F05FE64736F6C634300081200 CALLER "
		},
		"gasEstimates": {
			"creation": {
				"codeDepositCost": "5128400",
				"executionCost": "infinite",
				"totalCost": "infinite"
			},
			"external": {
				"_addFriend(address,string)": "infinite",
				"_addRestaurant(string)": "infinite",
				"addFriend(address,string)": "infinite",
				"addRestaurant(string)": "infinite",
				"beforeAll()": "infinite",
				"currentPhase()": "2657",
				"doVote(uint256)": "infinite",
				"endBlock()": "2498",
				"endVoting()": "infinite",
				"friends(address)": "infinite",
				"isShutdown()": "2582",
				"lunchVenueTest()": "infinite",
				"manager()": "2626",
				"managerTest()": "infinite",
				"numFriends()": "2519",
				"numRestaurants()": "2496",
				"numVotes()": "2496",
				"restaurants(uint256)": "infinite",
				"setFriend()": "infinite",
				"setFriendFailure()": "infinite",
				"setRestaurant()": "infinite",
				"setRestaurantFailure()": "infinite",
				"shutdown()": "75317",
				"startVoting(uint256)": "infinite",
				"startVotingPhase()": "infinite",
				"testDuplicateFriend()": "infinite",
				"testDuplicateRestaurant()": "infinite",
				"testDuplicateVoting()": "infinite",
				"testPhaseRestriction()": "infinite",
				"vote()": "infinite",
				"vote2()": "infinite",
				"vote3()": "infinite",
				"voteAfterClosedFailure()": "infinite",
				"voteAs(uint256)": "infinite",
				"voteFailure()": "infinite",
				"voteOpen()": "2517",
				"voteOpenTest()": "infinite",
				"votedRestaurant()": "infinite",
				"votes(uint256)": "infinite"
			}
		},
		"methodIdentifiers": {
			"_addFriend(address,string)": "2d8c6f42",
			"_addRestaurant(string)": "781a38a3",
			"addFriend(address,string)": "3b9f708d",
			"addRestaurant(string)": "6d77bd3e",
			"beforeAll()": "7fea0d4b",
			"currentPhase()": "055ad42e",
			"doVote(uint256)": "124258c6",
			"endBlock()": "083c6323",
			"endVoting()": "c3403ddf",
			"friends(address)": "1ddabf7a",
			"isShutdown()": "bf86d690",
			"lunchVenueTest()": "a8267245",
			"manager()": "481c6a75",
			"managerTest()": "947aea86",
			"numFriends()": "47098f36",
			"numRestaurants()": "b798867f",
			"numVotes()": "a3bef4d7",
			"restaurants(uint256)": "ad5461d8",
			"setFriend()": "848b4427",
			"setFriendFailure()": "77440e06",
			"setRestaurant()": "12a4591a",
			"setRestaurantFailure()": "512a6fbb",
			"shutdown()": "fc0e74d1",
			"startVoting(uint256)": "3d2f5bda",
			"startVotingPhase()": "cb43284e",
			"testDuplicateFriend()": "d012f7ea",
			"testDuplicateRestaurant()": "c9648f6e",
			"testDuplicateVoting()": "2b5a9467",
			"testPhaseRestriction()": "0b0f5dd7",
			"vote()": "632a9a52",
			"vote2()": "a24a4e88",
			"vote3()": "2955fea3",
			"voteAfterClosedFailure()": "a5627cf0",
			"voteAs(uint256)": "8f43f134",
			"voteFailure()": "a9a4070c",
			"voteOpen()": "788d3851",
			"voteOpenTest()": "bbb97ded",
			"votedRestaurant()": "c1c16efc",
			"votes(uint256)": "5df81330"
		}
	},
	"abi": [
		{
			"inputs": [
				{
					"internalType": "address",
					"name": "friendAddress",
					"type": "address"
				},
				{
					"internalType": "string",
					"name": "name",
					"type": "string"
				}
			],
			"name": "_addFriend",
			"outputs": [
				{
					"internalType": "uint256",
					"name": "",
					"type": "uint256"
				}
			],
			"stateMutability": "nonpayable",
			"type": "function"
		},
		{
			"inputs": [
				{
					"internalType": "string",
					"name": "name",
					"type": "string"
				}
			],
			"name": "_addRestaurant",
			"outputs": [
				{
					"internalType": "uint256",
					"name": "",
					"type": "uint256"
				}
			],
			"stateMutability": "nonpayable",
			"type": "function"
		},
		{
			"inputs": [
				{
					"internalType": "address",
					"name": "friendAddress",
					"type": "address"
				},
				{
					"internalType": "string",
					"name": "name",
					"type": "string"
				}
			],
			"name": "addFriend",
			"outputs": [
				{
					"internalType": "uint256",
					"name": "",
					"type": "uint256"
				}
			],
			"stateMutability": "nonpayable",
			"type": "function"
		},
		{
			"inputs": [
				{
					"internalType": "string",
					"name": "name",
					"type": "string"
				}
			],
			"name": "addRestaurant",
			"outputs": [
				{
					"internalType": "uint256",
					"name": "",
					"type": "uint256"
				}
			],
			"stateMutability": "nonpayable",
			"type": "function"
		},
		{
			"inputs": [],
			"name": "beforeAll",
			"outputs": [],
			"stateMutability": "nonpayable",
			"type": "function"
		},
		{
			"inputs": [],
			"name": "currentPhase",
			"outputs": [
				{
					"internalType": "enum LunchVenue_updated.Phase",
					"name": "",
					"type": "uint8"
				}
			],
			"stateMutability": "view",
			"type": "function"
		},
		{
			"inputs": [
				{
					"internalType": "uint256",
					"name": "restaurant",
					"type": "uint256"
				}
			],
			"name": "doVote",
			"outputs": [
				{
					"internalType": "bool",
					"name": "validVote",
					"type": "bool"
				}
			],
			"stateMutability": "nonpayable",
			"type": "function"
		},
		{
			"inputs": [],
			"name": "endBlock",
			"outputs": [
				{
					"internalType": "uint256",
					"name": "",
					"type": "uint256"
				}
			],
			"stateMutability": "view",
			"type": "function"
		},
		{
			"inputs": [],
			"name": "endVoting",
			"outputs": [],
			"stateMutability": "nonpayable",
			"type": "function"
		},
		{
			"inputs": [
				{
					"internalType": "address",
					"name": "",
					"type": "address"
				}
			],
			"name": "friends",
			"outputs": [
				{
					"internalType": "string",
					"name": "name",
					"type": "string"
				},
				{
					"internalType": "bool",
					"name": "voted",
					"type": "bool"
				}
			],
			"stateMutability": "view",
			"type": "function"
		},
		{
			"inputs": [],
			"name": "isShutdown",
			"outputs": [
				{
					"internalType": "bool",
					"name": "",
					"type": "bool"
				}
			],
			"stateMutability": "view",
			"type": "function"
		},
		{
			"inputs": [],
			"name": "lunchVenueTest",
			"outputs": [],
			"stateMutability": "nonpayable",
			"type": "function"
		},
		{
			"inputs": [],
			"name": "manager",
			"outputs": [
				{
					"internalType": "address",
					"name": "",
					"type": "address"
				}
			],
			"stateMutability": "view",
			"type": "function"
		},
		{
			"inputs": [],
			"name": "managerTest",
			"outputs": [],
			"stateMutability": "nonpayable",
			"type": "function"
		},
		{
			"inputs": [],
			"name": "numFriends",
			"outputs": [
				{
					"internalType": "uint256",
					"name": "",
					"type": "uint256"
				}
			],
			"stateMutability": "view",
			"type": "function"
		},
		{
			"inputs": [],
			"name": "numRestaurants",
			"outputs": [
				{
					"internalType": "uint256",
					"name": "",
					"type": "uint256"
				}
			],
			"stateMutability": "view",
			"type": "function"
		},
		{
			"inputs": [],
			"name": "numVotes",
			"outputs": [
				{
					"internalType": "uint256",
					"name": "",
					"type": "uint256"
				}
			],
			"stateMutability": "view",
			"type": "function"
		},
		{
			"inputs": [
				{
					"internalType": "uint256",
					"name": "",
					"type": "uint256"
				}
			],
			"name": "restaurants",
			"outputs": [
				{
					"internalType": "string",
					"name": "",
					"type": "string"
				}
			],
			"stateMutability": "view",
			"type": "function"
		},
		{
			"inputs": [],
			"name": "setFriend",
			"outputs": [],
			"stateMutability": "nonpayable",
			"type": "function"
		},
		{
			"inputs": [],
			"name": "setFriendFailure",
			"outputs": [],
			"stateMutability": "nonpayable",
			"type": "function"
		},
		{
			"inputs": [],
			"name": "setRestaurant",
			"outputs": [],
			"stateMutability": "nonpayable",
			"type": "function"
		},
		{
			"inputs": [],
			"name": "setRestaurantFailure",
			"outputs": [],
			"stateMutability": "nonpayable",
			"type": "function"
		},
		{
			"inputs": [],
			"name": "shutdown",
			"outputs": [],
			"stateMutability": "nonpayable",
			"type": "function"
		},
		{
			"inputs": [
				{
					"internalType": "uint256",
					"name": "blocksUntilEnd",
					"type": "uint256"
				}
			],
			"name": "startVoting",
			"outputs": [],
			"stateMutability": "nonpayable",
			"type": "function"
		},
		{
			"inputs": [],
			"name": "startVotingPhase",
			"outputs": [],
			"stateMutability": "nonpayable",
			"type": "function"
		},
		{
			"inputs": [],
			"name": "testDuplicateFriend",
			"outputs": [],
			"stateMutability": "nonpayable",
			"type": "function"
		},
		{
			"inputs": [],
			"name": "testDuplicateRestaurant",
			"outputs": [],
			"stateMutability": "nonpayable",
			"type": "function"
		},
		{
			"inputs": [],
			"name": "testDuplicateVoting",
			"outputs": [],
			"stateMutability": "nonpayable",
			"type": "function"
		},
		{
			"inputs": [],
			"name": "testPhaseRestriction",
			"outputs": [],
			"stateMutability": "nonpayable",
			"type": "function"
		},
		{
			"inputs": [],
			"name": "vote",
			"outputs": [],
			"stateMutability": "nonpayable",
			"type": "function"
		},
		{
			"inputs": [],
			"name": "vote2",
			"outputs": [],
			"stateMutability": "nonpayable",
			"type": "function"
		},
		{
			"inputs": [],
			"name": "vote3",
			"outputs": [],
			"stateMutability": "nonpayable",
			"type": "function"
		},
		{
			"inputs": [],
			"name": "voteAfterClosedFailure",
			"outputs": [],
			"stateMutability": "nonpayable",
			"type": "function"
		},
		{
			"inputs": [
				{
					"internalType": "uint256",
					"name": "restaurant",
					"type": "uint256"
				}
			],
			"name": "voteAs",
			"outputs": [
				{
					"internalType": "bool",
					"name": "",
					"type": "bool"
				}
			],
			"stateMutability": "nonpayable",
			"type": "function"
		},
		{
			"inputs": [],
			"name": "voteFailure",
			"outputs": [],
			"stateMutability": "nonpayable",
			"type": "function"
		},
		{
			"inputs": [],
			"name": "voteOpen",
			"outputs": [
				{
					"internalType": "bool",
					"name": "",
					"type": "bool"
				}
			],
			"stateMutability": "view",
			"type": "function"
		},
		{
			"inputs": [],
			"name": "voteOpenTest",
			"outputs": [],
			"stateMutability": "nonpayable",
			"type": "function"
		},
		{
			"inputs": [],
			"name": "votedRestaurant",
			"outputs": [
				{
					"internalType": "string",
					"name": "",
					"type": "string"
				}
			],
			"stateMutability": "view",
			"type": "function"
		},
		{
			"inputs": [
				{
					"internalType": "uint256",
					"name": "",
					"type": "uint256"
				}
			],
			"name": "votes",
			"outputs": [
				{
					"internalType": "address",
					"name": "voterAddress",
					"type": "address"
				},
				{
					"internalType": "uint256",
					"name": "restaurant",
					"type": "uint256"
				}
			],
			"stateMutability": "view",
			"type": "function"
		}
	]
}